{
	"Lecturers.sol": {
		"Lecturers": {
			"abi": [
				{
					"inputs": [
						{
							"internalType": "string",
							"name": "_name",
							"type": "string"
						},
						{
							"internalType": "uint256",
							"name": "_age",
							"type": "uint256"
						}
					],
					"name": "addLecturer",
					"outputs": [],
					"stateMutability": "nonpayable",
					"type": "function"
				},
				{
					"inputs": [
						{
							"internalType": "uint256",
							"name": "",
							"type": "uint256"
						}
					],
					"name": "lecturers",
					"outputs": [
						{
							"internalType": "string",
							"name": "name",
							"type": "string"
						},
						{
							"internalType": "uint256",
							"name": "age",
							"type": "uint256"
						}
					],
					"stateMutability": "view",
					"type": "function"
				}
			],
			"devdoc": {
				"kind": "dev",
				"methods": {},
				"version": 1
			},
			"evm": {
				"assembly": "    /* \"Lecturers.sol\":58:307  contract Lecturers {... */\n  mstore(0x40, 0x80)\n  callvalue\n  dup1\n  iszero\n  tag_1\n  jumpi\n  revert(0x00, 0x00)\ntag_1:\n  pop\n  dataSize(sub_0)\n  dup1\n  dataOffset(sub_0)\n  0x00\n  codecopy\n  0x00\n  return\nstop\n\nsub_0: assembly {\n        /* \"Lecturers.sol\":58:307  contract Lecturers {... */\n      mstore(0x40, 0x80)\n      callvalue\n      dup1\n      iszero\n      tag_1\n      jumpi\n      revert(0x00, 0x00)\n    tag_1:\n      pop\n      jumpi(tag_2, lt(calldatasize, 0x04))\n      shr(0xe0, calldataload(0x00))\n      dup1\n      0x0b8392e1\n      eq\n      tag_3\n      jumpi\n      dup1\n      0x3b83ad65\n      eq\n      tag_4\n      jumpi\n    tag_2:\n      revert(0x00, 0x00)\n        /* \"Lecturers.sol\":154:181  Lecturer[] public lecturers */\n    tag_3:\n      tag_5\n      0x04\n      dup1\n      calldatasize\n      sub\n      dup2\n      add\n      swap1\n      tag_6\n      swap2\n      swap1\n      tag_7\n      jump\t// in\n    tag_6:\n      tag_8\n      jump\t// in\n    tag_5:\n      mload(0x40)\n      tag_9\n      swap3\n      swap2\n      swap1\n      tag_10\n      jump\t// in\n    tag_9:\n      mload(0x40)\n      dup1\n      swap2\n      sub\n      swap1\n      return\n        /* \"Lecturers.sol\":188:305  function addLecturer(string memory _name, uint256 _age) public {... */\n    tag_4:\n      tag_11\n      0x04\n      dup1\n      calldatasize\n      sub\n      dup2\n      add\n      swap1\n      tag_12\n      swap2\n      swap1\n      tag_13\n      jump\t// in\n    tag_12:\n      tag_14\n      jump\t// in\n    tag_11:\n      stop\n        /* \"Lecturers.sol\":154:181  Lecturer[] public lecturers */\n    tag_8:\n      0x00\n      dup2\n      dup2\n      sload\n      dup2\n      lt\n      tag_15\n      jumpi\n      0x00\n      dup1\n      revert\n    tag_15:\n      swap1\n      0x00\n      mstore\n      keccak256(0x00, 0x20)\n      swap1\n      0x02\n      mul\n      add\n      0x00\n      swap2\n      pop\n      swap1\n      pop\n      dup1\n      0x00\n      add\n      dup1\n      sload\n      tag_17\n      swap1\n      tag_18\n      jump\t// in\n    tag_17:\n      dup1\n      0x1f\n      add\n      0x20\n      dup1\n      swap2\n      div\n      mul\n      0x20\n      add\n      mload(0x40)\n      swap1\n      dup2\n      add\n      0x40\n      mstore\n      dup1\n      swap3\n      swap2\n      swap1\n      dup2\n      dup2\n      mstore\n      0x20\n      add\n      dup3\n      dup1\n      sload\n      tag_19\n      swap1\n      tag_18\n      jump\t// in\n    tag_19:\n      dup1\n      iszero\n      tag_20\n      jumpi\n      dup1\n      0x1f\n      lt\n      tag_21\n      jumpi\n      0x0100\n      dup1\n      dup4\n      sload\n      div\n      mul\n      dup4\n      mstore\n      swap2\n      0x20\n      add\n      swap2\n      jump(tag_20)\n    tag_21:\n      dup3\n      add\n      swap2\n      swap1\n      0x00\n      mstore\n      keccak256(0x00, 0x20)\n      swap1\n    tag_22:\n      dup2\n      sload\n      dup2\n      mstore\n      swap1\n      0x01\n      add\n      swap1\n      0x20\n      add\n      dup1\n      dup4\n      gt\n      tag_22\n      jumpi\n      dup3\n      swap1\n      sub\n      0x1f\n      and\n      dup3\n      add\n      swap2\n    tag_20:\n      pop\n      pop\n      pop\n      pop\n      pop\n      swap1\n      dup1\n      0x01\n      add\n      sload\n      swap1\n      pop\n      dup3\n      jump\t// out\n        /* \"Lecturers.sol\":188:305  function addLecturer(string memory _name, uint256 _age) public {... */\n    tag_14:\n        /* \"Lecturers.sol\":261:270  lecturers */\n      0x00\n        /* \"Lecturers.sol\":276:297  Lecturer(_name, _age) */\n      mload(0x40)\n      dup1\n      0x40\n      add\n      0x40\n      mstore\n      dup1\n        /* \"Lecturers.sol\":285:290  _name */\n      dup5\n        /* \"Lecturers.sol\":276:297  Lecturer(_name, _age) */\n      dup2\n      mstore\n      0x20\n      add\n        /* \"Lecturers.sol\":292:296  _age */\n      dup4\n        /* \"Lecturers.sol\":276:297  Lecturer(_name, _age) */\n      dup2\n      mstore\n      pop\n        /* \"Lecturers.sol\":261:298  lecturers.push(Lecturer(_name, _age)) */\n      swap1\n      dup1\n      0x01\n      dup2\n      sload\n      add\n      dup1\n      dup3\n      sstore\n      dup1\n      swap2\n      pop\n      pop\n      0x01\n      swap1\n      sub\n      swap1\n      0x00\n      mstore\n      keccak256(0x00, 0x20)\n      swap1\n      0x02\n      mul\n      add\n      0x00\n      swap1\n      swap2\n      swap1\n      swap2\n      swap1\n      swap2\n      pop\n      0x00\n      dup3\n      add\n      mload\n      dup2\n      0x00\n      add\n      swap1\n      dup2\n      tag_25\n      swap2\n      swap1\n      tag_26\n      jump\t// in\n    tag_25:\n      pop\n      0x20\n      dup3\n      add\n      mload\n      dup2\n      0x01\n      add\n      sstore\n      pop\n      pop\n        /* \"Lecturers.sol\":188:305  function addLecturer(string memory _name, uint256 _age) public {... */\n      pop\n      pop\n      jump\t// out\n        /* \"#utility.yul\":7:82   */\n    tag_27:\n        /* \"#utility.yul\":40:46   */\n      0x00\n        /* \"#utility.yul\":73:75   */\n      0x40\n        /* \"#utility.yul\":67:76   */\n      mload\n        /* \"#utility.yul\":57:76   */\n      swap1\n      pop\n        /* \"#utility.yul\":7:82   */\n      swap1\n      jump\t// out\n        /* \"#utility.yul\":88:205   */\n    tag_28:\n        /* \"#utility.yul\":197:198   */\n      0x00\n        /* \"#utility.yul\":194:195   */\n      0x00\n        /* \"#utility.yul\":187:199   */\n      revert\n        /* \"#utility.yul\":211:328   */\n    tag_29:\n        /* \"#utility.yul\":320:321   */\n      0x00\n        /* \"#utility.yul\":317:318   */\n      0x00\n        /* \"#utility.yul\":310:322   */\n      revert\n        /* \"#utility.yul\":334:411   */\n    tag_30:\n        /* \"#utility.yul\":371:378   */\n      0x00\n        /* \"#utility.yul\":400:405   */\n      dup2\n        /* \"#utility.yul\":389:405   */\n      swap1\n      pop\n        /* \"#utility.yul\":334:411   */\n      swap2\n      swap1\n      pop\n      jump\t// out\n        /* \"#utility.yul\":417:539   */\n    tag_31:\n        /* \"#utility.yul\":490:514   */\n      tag_70\n        /* \"#utility.yul\":508:513   */\n      dup2\n        /* \"#utility.yul\":490:514   */\n      tag_30\n      jump\t// in\n    tag_70:\n        /* \"#utility.yul\":483:488   */\n      dup2\n        /* \"#utility.yul\":480:515   */\n      eq\n        /* \"#utility.yul\":470:533   */\n      tag_71\n      jumpi\n        /* \"#utility.yul\":529:530   */\n      0x00\n        /* \"#utility.yul\":526:527   */\n      0x00\n        /* \"#utility.yul\":519:531   */\n      revert\n        /* \"#utility.yul\":470:533   */\n    tag_71:\n        /* \"#utility.yul\":417:539   */\n      pop\n      jump\t// out\n        /* \"#utility.yul\":545:684   */\n    tag_32:\n        /* \"#utility.yul\":591:596   */\n      0x00\n        /* \"#utility.yul\":629:635   */\n      dup2\n        /* \"#utility.yul\":616:636   */\n      calldataload\n        /* \"#utility.yul\":607:636   */\n      swap1\n      pop\n        /* \"#utility.yul\":645:678   */\n      tag_73\n        /* \"#utility.yul\":672:677   */\n      dup2\n        /* \"#utility.yul\":645:678   */\n      tag_31\n      jump\t// in\n    tag_73:\n        /* \"#utility.yul\":545:684   */\n      swap3\n      swap2\n      pop\n      pop\n      jump\t// out\n        /* \"#utility.yul\":690:1019   */\n    tag_7:\n        /* \"#utility.yul\":749:755   */\n      0x00\n        /* \"#utility.yul\":798:800   */\n      0x20\n        /* \"#utility.yul\":786:795   */\n      dup3\n        /* \"#utility.yul\":777:784   */\n      dup5\n        /* \"#utility.yul\":773:796   */\n      sub\n        /* \"#utility.yul\":769:801   */\n      slt\n        /* \"#utility.yul\":766:885   */\n      iszero\n      tag_75\n      jumpi\n        /* \"#utility.yul\":804:883   */\n      tag_76\n      tag_28\n      jump\t// in\n    tag_76:\n        /* \"#utility.yul\":766:885   */\n    tag_75:\n        /* \"#utility.yul\":924:925   */\n      0x00\n        /* \"#utility.yul\":949:1002   */\n      tag_77\n        /* \"#utility.yul\":994:1001   */\n      dup5\n        /* \"#utility.yul\":985:991   */\n      dup3\n        /* \"#utility.yul\":974:983   */\n      dup6\n        /* \"#utility.yul\":970:992   */\n      add\n        /* \"#utility.yul\":949:1002   */\n      tag_32\n      jump\t// in\n    tag_77:\n        /* \"#utility.yul\":939:1002   */\n      swap2\n      pop\n        /* \"#utility.yul\":895:1012   */\n      pop\n        /* \"#utility.yul\":690:1019   */\n      swap3\n      swap2\n      pop\n      pop\n      jump\t// out\n        /* \"#utility.yul\":1025:1124   */\n    tag_33:\n        /* \"#utility.yul\":1077:1083   */\n      0x00\n        /* \"#utility.yul\":1111:1116   */\n      dup2\n        /* \"#utility.yul\":1105:1117   */\n      mload\n        /* \"#utility.yul\":1095:1117   */\n      swap1\n      pop\n        /* \"#utility.yul\":1025:1124   */\n      swap2\n      swap1\n      pop\n      jump\t// out\n        /* \"#utility.yul\":1130:1299   */\n    tag_34:\n        /* \"#utility.yul\":1214:1225   */\n      0x00\n        /* \"#utility.yul\":1248:1254   */\n      dup3\n        /* \"#utility.yul\":1243:1246   */\n      dup3\n        /* \"#utility.yul\":1236:1255   */\n      mstore\n        /* \"#utility.yul\":1288:1292   */\n      0x20\n        /* \"#utility.yul\":1283:1286   */\n      dup3\n        /* \"#utility.yul\":1279:1293   */\n      add\n        /* \"#utility.yul\":1264:1293   */\n      swap1\n      pop\n        /* \"#utility.yul\":1130:1299   */\n      swap3\n      swap2\n      pop\n      pop\n      jump\t// out\n        /* \"#utility.yul\":1305:1444   */\n    tag_35:\n        /* \"#utility.yul\":1394:1400   */\n      dup3\n        /* \"#utility.yul\":1389:1392   */\n      dup2\n        /* \"#utility.yul\":1384:1387   */\n      dup4\n        /* \"#utility.yul\":1378:1401   */\n      mcopy\n        /* \"#utility.yul\":1435:1436   */\n      0x00\n        /* \"#utility.yul\":1426:1432   */\n      dup4\n        /* \"#utility.yul\":1421:1424   */\n      dup4\n        /* \"#utility.yul\":1417:1433   */\n      add\n        /* \"#utility.yul\":1410:1437   */\n      mstore\n        /* \"#utility.yul\":1305:1444   */\n      pop\n      pop\n      pop\n      jump\t// out\n        /* \"#utility.yul\":1450:1552   */\n    tag_36:\n        /* \"#utility.yul\":1491:1497   */\n      0x00\n        /* \"#utility.yul\":1542:1544   */\n      0x1f\n        /* \"#utility.yul\":1538:1545   */\n      not\n        /* \"#utility.yul\":1533:1535   */\n      0x1f\n        /* \"#utility.yul\":1526:1531   */\n      dup4\n        /* \"#utility.yul\":1522:1536   */\n      add\n        /* \"#utility.yul\":1518:1546   */\n      and\n        /* \"#utility.yul\":1508:1546   */\n      swap1\n      pop\n        /* \"#utility.yul\":1450:1552   */\n      swap2\n      swap1\n      pop\n      jump\t// out\n        /* \"#utility.yul\":1558:1935   */\n    tag_37:\n        /* \"#utility.yul\":1646:1649   */\n      0x00\n        /* \"#utility.yul\":1674:1713   */\n      tag_83\n        /* \"#utility.yul\":1707:1712   */\n      dup3\n        /* \"#utility.yul\":1674:1713   */\n      tag_33\n      jump\t// in\n    tag_83:\n        /* \"#utility.yul\":1729:1800   */\n      tag_84\n        /* \"#utility.yul\":1793:1799   */\n      dup2\n        /* \"#utility.yul\":1788:1791   */\n      dup6\n        /* \"#utility.yul\":1729:1800   */\n      tag_34\n      jump\t// in\n    tag_84:\n        /* \"#utility.yul\":1722:1800   */\n      swap4\n      pop\n        /* \"#utility.yul\":1809:1874   */\n      tag_85\n        /* \"#utility.yul\":1867:1873   */\n      dup2\n        /* \"#utility.yul\":1862:1865   */\n      dup6\n        /* \"#utility.yul\":1855:1859   */\n      0x20\n        /* \"#utility.yul\":1848:1853   */\n      dup7\n        /* \"#utility.yul\":1844:1860   */\n      add\n        /* \"#utility.yul\":1809:1874   */\n      tag_35\n      jump\t// in\n    tag_85:\n        /* \"#utility.yul\":1899:1928   */\n      tag_86\n        /* \"#utility.yul\":1921:1927   */\n      dup2\n        /* \"#utility.yul\":1899:1928   */\n      tag_36\n      jump\t// in\n    tag_86:\n        /* \"#utility.yul\":1894:1897   */\n      dup5\n        /* \"#utility.yul\":1890:1929   */\n      add\n        /* \"#utility.yul\":1883:1929   */\n      swap2\n      pop\n        /* \"#utility.yul\":1650:1935   */\n      pop\n        /* \"#utility.yul\":1558:1935   */\n      swap3\n      swap2\n      pop\n      pop\n      jump\t// out\n        /* \"#utility.yul\":1941:2059   */\n    tag_38:\n        /* \"#utility.yul\":2028:2052   */\n      tag_88\n        /* \"#utility.yul\":2046:2051   */\n      dup2\n        /* \"#utility.yul\":2028:2052   */\n      tag_30\n      jump\t// in\n    tag_88:\n        /* \"#utility.yul\":2023:2026   */\n      dup3\n        /* \"#utility.yul\":2016:2053   */\n      mstore\n        /* \"#utility.yul\":1941:2059   */\n      pop\n      pop\n      jump\t// out\n        /* \"#utility.yul\":2065:2488   */\n    tag_10:\n        /* \"#utility.yul\":2206:2210   */\n      0x00\n        /* \"#utility.yul\":2244:2246   */\n      0x40\n        /* \"#utility.yul\":2233:2242   */\n      dup3\n        /* \"#utility.yul\":2229:2247   */\n      add\n        /* \"#utility.yul\":2221:2247   */\n      swap1\n      pop\n        /* \"#utility.yul\":2293:2302   */\n      dup2\n        /* \"#utility.yul\":2287:2291   */\n      dup2\n        /* \"#utility.yul\":2283:2303   */\n      sub\n        /* \"#utility.yul\":2279:2280   */\n      0x00\n        /* \"#utility.yul\":2268:2277   */\n      dup4\n        /* \"#utility.yul\":2264:2281   */\n      add\n        /* \"#utility.yul\":2257:2304   */\n      mstore\n        /* \"#utility.yul\":2321:2399   */\n      tag_90\n        /* \"#utility.yul\":2394:2398   */\n      dup2\n        /* \"#utility.yul\":2385:2391   */\n      dup6\n        /* \"#utility.yul\":2321:2399   */\n      tag_37\n      jump\t// in\n    tag_90:\n        /* \"#utility.yul\":2313:2399   */\n      swap1\n      pop\n        /* \"#utility.yul\":2409:2481   */\n      tag_91\n        /* \"#utility.yul\":2477:2479   */\n      0x20\n        /* \"#utility.yul\":2466:2475   */\n      dup4\n        /* \"#utility.yul\":2462:2480   */\n      add\n        /* \"#utility.yul\":2453:2459   */\n      dup5\n        /* \"#utility.yul\":2409:2481   */\n      tag_38\n      jump\t// in\n    tag_91:\n        /* \"#utility.yul\":2065:2488   */\n      swap4\n      swap3\n      pop\n      pop\n      pop\n      jump\t// out\n        /* \"#utility.yul\":2494:2611   */\n    tag_39:\n        /* \"#utility.yul\":2603:2604   */\n      0x00\n        /* \"#utility.yul\":2600:2601   */\n      0x00\n        /* \"#utility.yul\":2593:2605   */\n      revert\n        /* \"#utility.yul\":2617:2734   */\n    tag_40:\n        /* \"#utility.yul\":2726:2727   */\n      0x00\n        /* \"#utility.yul\":2723:2724   */\n      0x00\n        /* \"#utility.yul\":2716:2728   */\n      revert\n        /* \"#utility.yul\":2740:2920   */\n    tag_41:\n        /* \"#utility.yul\":2788:2865   */\n      0x4e487b7100000000000000000000000000000000000000000000000000000000\n        /* \"#utility.yul\":2785:2786   */\n      0x00\n        /* \"#utility.yul\":2778:2866   */\n      mstore\n        /* \"#utility.yul\":2885:2889   */\n      0x41\n        /* \"#utility.yul\":2882:2883   */\n      0x04\n        /* \"#utility.yul\":2875:2890   */\n      mstore\n        /* \"#utility.yul\":2909:2913   */\n      0x24\n        /* \"#utility.yul\":2906:2907   */\n      0x00\n        /* \"#utility.yul\":2899:2914   */\n      revert\n        /* \"#utility.yul\":2926:3207   */\n    tag_42:\n        /* \"#utility.yul\":3009:3036   */\n      tag_96\n        /* \"#utility.yul\":3031:3035   */\n      dup3\n        /* \"#utility.yul\":3009:3036   */\n      tag_36\n      jump\t// in\n    tag_96:\n        /* \"#utility.yul\":3001:3007   */\n      dup2\n        /* \"#utility.yul\":2997:3037   */\n      add\n        /* \"#utility.yul\":3139:3145   */\n      dup2\n        /* \"#utility.yul\":3127:3137   */\n      dup2\n        /* \"#utility.yul\":3124:3146   */\n      lt\n        /* \"#utility.yul\":3103:3121   */\n      0xffffffffffffffff\n        /* \"#utility.yul\":3091:3101   */\n      dup3\n        /* \"#utility.yul\":3088:3122   */\n      gt\n        /* \"#utility.yul\":3085:3147   */\n      or\n        /* \"#utility.yul\":3082:3170   */\n      iszero\n      tag_97\n      jumpi\n        /* \"#utility.yul\":3150:3168   */\n      tag_98\n      tag_41\n      jump\t// in\n    tag_98:\n        /* \"#utility.yul\":3082:3170   */\n    tag_97:\n        /* \"#utility.yul\":3190:3200   */\n      dup1\n        /* \"#utility.yul\":3186:3188   */\n      0x40\n        /* \"#utility.yul\":3179:3201   */\n      mstore\n        /* \"#utility.yul\":2969:3207   */\n      pop\n        /* \"#utility.yul\":2926:3207   */\n      pop\n      pop\n      jump\t// out\n        /* \"#utility.yul\":3213:3342   */\n    tag_43:\n        /* \"#utility.yul\":3247:3253   */\n      0x00\n        /* \"#utility.yul\":3274:3294   */\n      tag_100\n      tag_27\n      jump\t// in\n    tag_100:\n        /* \"#utility.yul\":3264:3294   */\n      swap1\n      pop\n        /* \"#utility.yul\":3303:3336   */\n      tag_101\n        /* \"#utility.yul\":3331:3335   */\n      dup3\n        /* \"#utility.yul\":3323:3329   */\n      dup3\n        /* \"#utility.yul\":3303:3336   */\n      tag_42\n      jump\t// in\n    tag_101:\n        /* \"#utility.yul\":3213:3342   */\n      swap2\n      swap1\n      pop\n      jump\t// out\n        /* \"#utility.yul\":3348:3656   */\n    tag_44:\n        /* \"#utility.yul\":3410:3414   */\n      0x00\n        /* \"#utility.yul\":3500:3518   */\n      0xffffffffffffffff\n        /* \"#utility.yul\":3492:3498   */\n      dup3\n        /* \"#utility.yul\":3489:3519   */\n      gt\n        /* \"#utility.yul\":3486:3542   */\n      iszero\n      tag_103\n      jumpi\n        /* \"#utility.yul\":3522:3540   */\n      tag_104\n      tag_41\n      jump\t// in\n    tag_104:\n        /* \"#utility.yul\":3486:3542   */\n    tag_103:\n        /* \"#utility.yul\":3560:3589   */\n      tag_105\n        /* \"#utility.yul\":3582:3588   */\n      dup3\n        /* \"#utility.yul\":3560:3589   */\n      tag_36\n      jump\t// in\n    tag_105:\n        /* \"#utility.yul\":3552:3589   */\n      swap1\n      pop\n        /* \"#utility.yul\":3644:3648   */\n      0x20\n        /* \"#utility.yul\":3638:3642   */\n      dup2\n        /* \"#utility.yul\":3634:3649   */\n      add\n        /* \"#utility.yul\":3626:3649   */\n      swap1\n      pop\n        /* \"#utility.yul\":3348:3656   */\n      swap2\n      swap1\n      pop\n      jump\t// out\n        /* \"#utility.yul\":3662:3810   */\n    tag_45:\n        /* \"#utility.yul\":3760:3766   */\n      dup3\n        /* \"#utility.yul\":3755:3758   */\n      dup2\n        /* \"#utility.yul\":3750:3753   */\n      dup4\n        /* \"#utility.yul\":3737:3767   */\n      calldatacopy\n        /* \"#utility.yul\":3801:3802   */\n      0x00\n        /* \"#utility.yul\":3792:3798   */\n      dup4\n        /* \"#utility.yul\":3787:3790   */\n      dup4\n        /* \"#utility.yul\":3783:3799   */\n      add\n        /* \"#utility.yul\":3776:3803   */\n      mstore\n        /* \"#utility.yul\":3662:3810   */\n      pop\n      pop\n      pop\n      jump\t// out\n        /* \"#utility.yul\":3816:4241   */\n    tag_46:\n        /* \"#utility.yul\":3894:3899   */\n      0x00\n        /* \"#utility.yul\":3919:3985   */\n      tag_108\n        /* \"#utility.yul\":3935:3984   */\n      tag_109\n        /* \"#utility.yul\":3977:3983   */\n      dup5\n        /* \"#utility.yul\":3935:3984   */\n      tag_44\n      jump\t// in\n    tag_109:\n        /* \"#utility.yul\":3919:3985   */\n      tag_43\n      jump\t// in\n    tag_108:\n        /* \"#utility.yul\":3910:3985   */\n      swap1\n      pop\n        /* \"#utility.yul\":4008:4014   */\n      dup3\n        /* \"#utility.yul\":4001:4006   */\n      dup2\n        /* \"#utility.yul\":3994:4015   */\n      mstore\n        /* \"#utility.yul\":4046:4050   */\n      0x20\n        /* \"#utility.yul\":4039:4044   */\n      dup2\n        /* \"#utility.yul\":4035:4051   */\n      add\n        /* \"#utility.yul\":4084:4087   */\n      dup5\n        /* \"#utility.yul\":4075:4081   */\n      dup5\n        /* \"#utility.yul\":4070:4073   */\n      dup5\n        /* \"#utility.yul\":4066:4082   */\n      add\n        /* \"#utility.yul\":4063:4088   */\n      gt\n        /* \"#utility.yul\":4060:4172   */\n      iszero\n      tag_110\n      jumpi\n        /* \"#utility.yul\":4091:4170   */\n      tag_111\n      tag_40\n      jump\t// in\n    tag_111:\n        /* \"#utility.yul\":4060:4172   */\n    tag_110:\n        /* \"#utility.yul\":4181:4235   */\n      tag_112\n        /* \"#utility.yul\":4228:4234   */\n      dup5\n        /* \"#utility.yul\":4223:4226   */\n      dup3\n        /* \"#utility.yul\":4218:4221   */\n      dup6\n        /* \"#utility.yul\":4181:4235   */\n      tag_45\n      jump\t// in\n    tag_112:\n        /* \"#utility.yul\":3900:4241   */\n      pop\n        /* \"#utility.yul\":3816:4241   */\n      swap4\n      swap3\n      pop\n      pop\n      pop\n      jump\t// out\n        /* \"#utility.yul\":4261:4601   */\n    tag_47:\n        /* \"#utility.yul\":4317:4322   */\n      0x00\n        /* \"#utility.yul\":4366:4369   */\n      dup3\n        /* \"#utility.yul\":4359:4363   */\n      0x1f\n        /* \"#utility.yul\":4351:4357   */\n      dup4\n        /* \"#utility.yul\":4347:4364   */\n      add\n        /* \"#utility.yul\":4343:4370   */\n      slt\n        /* \"#utility.yul\":4333:4455   */\n      tag_114\n      jumpi\n        /* \"#utility.yul\":4374:4453   */\n      tag_115\n      tag_39\n      jump\t// in\n    tag_115:\n        /* \"#utility.yul\":4333:4455   */\n    tag_114:\n        /* \"#utility.yul\":4491:4497   */\n      dup2\n        /* \"#utility.yul\":4478:4498   */\n      calldataload\n        /* \"#utility.yul\":4516:4595   */\n      tag_116\n        /* \"#utility.yul\":4591:4594   */\n      dup5\n        /* \"#utility.yul\":4583:4589   */\n      dup3\n        /* \"#utility.yul\":4576:4580   */\n      0x20\n        /* \"#utility.yul\":4568:4574   */\n      dup7\n        /* \"#utility.yul\":4564:4581   */\n      add\n        /* \"#utility.yul\":4516:4595   */\n      tag_46\n      jump\t// in\n    tag_116:\n        /* \"#utility.yul\":4507:4595   */\n      swap2\n      pop\n        /* \"#utility.yul\":4323:4601   */\n      pop\n        /* \"#utility.yul\":4261:4601   */\n      swap3\n      swap2\n      pop\n      pop\n      jump\t// out\n        /* \"#utility.yul\":4607:5261   */\n    tag_13:\n        /* \"#utility.yul\":4685:4691   */\n      0x00\n        /* \"#utility.yul\":4693:4699   */\n      0x00\n        /* \"#utility.yul\":4742:4744   */\n      0x40\n        /* \"#utility.yul\":4730:4739   */\n      dup4\n        /* \"#utility.yul\":4721:4728   */\n      dup6\n        /* \"#utility.yul\":4717:4740   */\n      sub\n        /* \"#utility.yul\":4713:4745   */\n      slt\n        /* \"#utility.yul\":4710:4829   */\n      iszero\n      tag_118\n      jumpi\n        /* \"#utility.yul\":4748:4827   */\n      tag_119\n      tag_28\n      jump\t// in\n    tag_119:\n        /* \"#utility.yul\":4710:4829   */\n    tag_118:\n        /* \"#utility.yul\":4896:4897   */\n      0x00\n        /* \"#utility.yul\":4885:4894   */\n      dup4\n        /* \"#utility.yul\":4881:4898   */\n      add\n        /* \"#utility.yul\":4868:4899   */\n      calldataload\n        /* \"#utility.yul\":4926:4944   */\n      0xffffffffffffffff\n        /* \"#utility.yul\":4918:4924   */\n      dup2\n        /* \"#utility.yul\":4915:4945   */\n      gt\n        /* \"#utility.yul\":4912:5029   */\n      iszero\n      tag_120\n      jumpi\n        /* \"#utility.yul\":4948:5027   */\n      tag_121\n      tag_29\n      jump\t// in\n    tag_121:\n        /* \"#utility.yul\":4912:5029   */\n    tag_120:\n        /* \"#utility.yul\":5053:5116   */\n      tag_122\n        /* \"#utility.yul\":5108:5115   */\n      dup6\n        /* \"#utility.yul\":5099:5105   */\n      dup3\n        /* \"#utility.yul\":5088:5097   */\n      dup7\n        /* \"#utility.yul\":5084:5106   */\n      add\n        /* \"#utility.yul\":5053:5116   */\n      tag_47\n      jump\t// in\n    tag_122:\n        /* \"#utility.yul\":5043:5116   */\n      swap3\n      pop\n        /* \"#utility.yul\":4839:5126   */\n      pop\n        /* \"#utility.yul\":5165:5167   */\n      0x20\n        /* \"#utility.yul\":5191:5244   */\n      tag_123\n        /* \"#utility.yul\":5236:5243   */\n      dup6\n        /* \"#utility.yul\":5227:5233   */\n      dup3\n        /* \"#utility.yul\":5216:5225   */\n      dup7\n        /* \"#utility.yul\":5212:5234   */\n      add\n        /* \"#utility.yul\":5191:5244   */\n      tag_32\n      jump\t// in\n    tag_123:\n        /* \"#utility.yul\":5181:5244   */\n      swap2\n      pop\n        /* \"#utility.yul\":5136:5254   */\n      pop\n        /* \"#utility.yul\":4607:5261   */\n      swap3\n      pop\n      swap3\n      swap1\n      pop\n      jump\t// out\n        /* \"#utility.yul\":5267:5447   */\n    tag_48:\n        /* \"#utility.yul\":5315:5392   */\n      0x4e487b7100000000000000000000000000000000000000000000000000000000\n        /* \"#utility.yul\":5312:5313   */\n      0x00\n        /* \"#utility.yul\":5305:5393   */\n      mstore\n        /* \"#utility.yul\":5412:5416   */\n      0x22\n        /* \"#utility.yul\":5409:5410   */\n      0x04\n        /* \"#utility.yul\":5402:5417   */\n      mstore\n        /* \"#utility.yul\":5436:5440   */\n      0x24\n        /* \"#utility.yul\":5433:5434   */\n      0x00\n        /* \"#utility.yul\":5426:5441   */\n      revert\n        /* \"#utility.yul\":5453:5773   */\n    tag_18:\n        /* \"#utility.yul\":5497:5503   */\n      0x00\n        /* \"#utility.yul\":5534:5535   */\n      0x02\n        /* \"#utility.yul\":5528:5532   */\n      dup3\n        /* \"#utility.yul\":5524:5536   */\n      div\n        /* \"#utility.yul\":5514:5536   */\n      swap1\n      pop\n        /* \"#utility.yul\":5581:5582   */\n      0x01\n        /* \"#utility.yul\":5575:5579   */\n      dup3\n        /* \"#utility.yul\":5571:5583   */\n      and\n        /* \"#utility.yul\":5602:5620   */\n      dup1\n        /* \"#utility.yul\":5592:5673   */\n      tag_126\n      jumpi\n        /* \"#utility.yul\":5658:5662   */\n      0x7f\n        /* \"#utility.yul\":5650:5656   */\n      dup3\n        /* \"#utility.yul\":5646:5663   */\n      and\n        /* \"#utility.yul\":5636:5663   */\n      swap2\n      pop\n        /* \"#utility.yul\":5592:5673   */\n    tag_126:\n        /* \"#utility.yul\":5720:5722   */\n      0x20\n        /* \"#utility.yul\":5712:5718   */\n      dup3\n        /* \"#utility.yul\":5709:5723   */\n      lt\n        /* \"#utility.yul\":5689:5707   */\n      dup2\n        /* \"#utility.yul\":5686:5724   */\n      sub\n        /* \"#utility.yul\":5683:5767   */\n      tag_127\n      jumpi\n        /* \"#utility.yul\":5739:5757   */\n      tag_128\n      tag_48\n      jump\t// in\n    tag_128:\n        /* \"#utility.yul\":5683:5767   */\n    tag_127:\n        /* \"#utility.yul\":5504:5773   */\n      pop\n        /* \"#utility.yul\":5453:5773   */\n      swap2\n      swap1\n      pop\n      jump\t// out\n        /* \"#utility.yul\":5779:5920   */\n    tag_49:\n        /* \"#utility.yul\":5828:5832   */\n      0x00\n        /* \"#utility.yul\":5851:5854   */\n      dup2\n        /* \"#utility.yul\":5843:5854   */\n      swap1\n      pop\n        /* \"#utility.yul\":5874:5877   */\n      dup2\n        /* \"#utility.yul\":5871:5872   */\n      0x00\n        /* \"#utility.yul\":5864:5878   */\n      mstore\n        /* \"#utility.yul\":5908:5912   */\n      0x20\n        /* \"#utility.yul\":5905:5906   */\n      0x00\n        /* \"#utility.yul\":5895:5913   */\n      keccak256\n        /* \"#utility.yul\":5887:5913   */\n      swap1\n      pop\n        /* \"#utility.yul\":5779:5920   */\n      swap2\n      swap1\n      pop\n      jump\t// out\n        /* \"#utility.yul\":5926:6019   */\n    tag_50:\n        /* \"#utility.yul\":5963:5969   */\n      0x00\n        /* \"#utility.yul\":6010:6012   */\n      0x20\n        /* \"#utility.yul\":6005:6007   */\n      0x1f\n        /* \"#utility.yul\":5998:6003   */\n      dup4\n        /* \"#utility.yul\":5994:6008   */\n      add\n        /* \"#utility.yul\":5990:6013   */\n      div\n        /* \"#utility.yul\":5980:6013   */\n      swap1\n      pop\n        /* \"#utility.yul\":5926:6019   */\n      swap2\n      swap1\n      pop\n      jump\t// out\n        /* \"#utility.yul\":6025:6132   */\n    tag_51:\n        /* \"#utility.yul\":6069:6077   */\n      0x00\n        /* \"#utility.yul\":6119:6124   */\n      dup3\n        /* \"#utility.yul\":6113:6117   */\n      dup3\n        /* \"#utility.yul\":6109:6125   */\n      shl\n        /* \"#utility.yul\":6088:6125   */\n      swap1\n      pop\n        /* \"#utility.yul\":6025:6132   */\n      swap3\n      swap2\n      pop\n      pop\n      jump\t// out\n        /* \"#utility.yul\":6138:6531   */\n    tag_52:\n        /* \"#utility.yul\":6207:6213   */\n      0x00\n        /* \"#utility.yul\":6257:6258   */\n      0x08\n        /* \"#utility.yul\":6245:6255   */\n      dup4\n        /* \"#utility.yul\":6241:6259   */\n      mul\n        /* \"#utility.yul\":6280:6377   */\n      tag_133\n        /* \"#utility.yul\":6310:6376   */\n      0xffffffffffffffffffffffffffffffffffffffffffffffffffffffffffffffff\n        /* \"#utility.yul\":6299:6308   */\n      dup3\n        /* \"#utility.yul\":6280:6377   */\n      tag_51\n      jump\t// in\n    tag_133:\n        /* \"#utility.yul\":6398:6437   */\n      tag_134\n        /* \"#utility.yul\":6428:6436   */\n      dup7\n        /* \"#utility.yul\":6417:6426   */\n      dup4\n        /* \"#utility.yul\":6398:6437   */\n      tag_51\n      jump\t// in\n    tag_134:\n        /* \"#utility.yul\":6386:6437   */\n      swap6\n      pop\n        /* \"#utility.yul\":6470:6474   */\n      dup1\n        /* \"#utility.yul\":6466:6475   */\n      not\n        /* \"#utility.yul\":6459:6464   */\n      dup5\n        /* \"#utility.yul\":6455:6476   */\n      and\n        /* \"#utility.yul\":6446:6476   */\n      swap4\n      pop\n        /* \"#utility.yul\":6519:6523   */\n      dup1\n        /* \"#utility.yul\":6509:6517   */\n      dup7\n        /* \"#utility.yul\":6505:6524   */\n      and\n        /* \"#utility.yul\":6498:6503   */\n      dup5\n        /* \"#utility.yul\":6495:6525   */\n      or\n        /* \"#utility.yul\":6485:6525   */\n      swap3\n      pop\n        /* \"#utility.yul\":6214:6531   */\n      pop\n      pop\n        /* \"#utility.yul\":6138:6531   */\n      swap4\n      swap3\n      pop\n      pop\n      pop\n      jump\t// out\n        /* \"#utility.yul\":6537:6597   */\n    tag_53:\n        /* \"#utility.yul\":6565:6568   */\n      0x00\n        /* \"#utility.yul\":6586:6591   */\n      dup2\n        /* \"#utility.yul\":6579:6591   */\n      swap1\n      pop\n        /* \"#utility.yul\":6537:6597   */\n      swap2\n      swap1\n      pop\n      jump\t// out\n        /* \"#utility.yul\":6603:6745   */\n    tag_54:\n        /* \"#utility.yul\":6653:6662   */\n      0x00\n        /* \"#utility.yul\":6686:6739   */\n      tag_137\n        /* \"#utility.yul\":6704:6738   */\n      tag_138\n        /* \"#utility.yul\":6713:6737   */\n      tag_139\n        /* \"#utility.yul\":6731:6736   */\n      dup5\n        /* \"#utility.yul\":6713:6737   */\n      tag_30\n      jump\t// in\n    tag_139:\n        /* \"#utility.yul\":6704:6738   */\n      tag_53\n      jump\t// in\n    tag_138:\n        /* \"#utility.yul\":6686:6739   */\n      tag_30\n      jump\t// in\n    tag_137:\n        /* \"#utility.yul\":6673:6739   */\n      swap1\n      pop\n        /* \"#utility.yul\":6603:6745   */\n      swap2\n      swap1\n      pop\n      jump\t// out\n        /* \"#utility.yul\":6751:6826   */\n    tag_55:\n        /* \"#utility.yul\":6794:6797   */\n      0x00\n        /* \"#utility.yul\":6815:6820   */\n      dup2\n        /* \"#utility.yul\":6808:6820   */\n      swap1\n      pop\n        /* \"#utility.yul\":6751:6826   */\n      swap2\n      swap1\n      pop\n      jump\t// out\n        /* \"#utility.yul\":6832:7101   */\n    tag_56:\n        /* \"#utility.yul\":6942:6981   */\n      tag_142\n        /* \"#utility.yul\":6973:6980   */\n      dup4\n        /* \"#utility.yul\":6942:6981   */\n      tag_54\n      jump\t// in\n    tag_142:\n        /* \"#utility.yul\":7003:7094   */\n      tag_143\n        /* \"#utility.yul\":7052:7093   */\n      tag_144\n        /* \"#utility.yul\":7076:7092   */\n      dup3\n        /* \"#utility.yul\":7052:7093   */\n      tag_55\n      jump\t// in\n    tag_144:\n        /* \"#utility.yul\":7044:7050   */\n      dup5\n        /* \"#utility.yul\":7037:7041   */\n      dup5\n        /* \"#utility.yul\":7031:7042   */\n      sload\n        /* \"#utility.yul\":7003:7094   */\n      tag_52\n      jump\t// in\n    tag_143:\n        /* \"#utility.yul\":6997:7001   */\n      dup3\n        /* \"#utility.yul\":6990:7095   */\n      sstore\n        /* \"#utility.yul\":6908:7101   */\n      pop\n        /* \"#utility.yul\":6832:7101   */\n      pop\n      pop\n      pop\n      jump\t// out\n        /* \"#utility.yul\":7107:7180   */\n    tag_57:\n        /* \"#utility.yul\":7152:7155   */\n      0x00\n        /* \"#utility.yul\":7173:7174   */\n      0x00\n        /* \"#utility.yul\":7166:7174   */\n      swap1\n      pop\n        /* \"#utility.yul\":7107:7180   */\n      swap1\n      jump\t// out\n        /* \"#utility.yul\":7186:7375   */\n    tag_58:\n        /* \"#utility.yul\":7263:7295   */\n      tag_147\n      tag_57\n      jump\t// in\n    tag_147:\n        /* \"#utility.yul\":7304:7369   */\n      tag_148\n        /* \"#utility.yul\":7362:7368   */\n      dup2\n        /* \"#utility.yul\":7354:7360   */\n      dup5\n        /* \"#utility.yul\":7348:7352   */\n      dup5\n        /* \"#utility.yul\":7304:7369   */\n      tag_56\n      jump\t// in\n    tag_148:\n        /* \"#utility.yul\":7239:7375   */\n      pop\n        /* \"#utility.yul\":7186:7375   */\n      pop\n      pop\n      jump\t// out\n        /* \"#utility.yul\":7381:7567   */\n    tag_59:\n        /* \"#utility.yul\":7441:7561   */\n    tag_150:\n        /* \"#utility.yul\":7458:7461   */\n      dup2\n        /* \"#utility.yul\":7451:7456   */\n      dup2\n        /* \"#utility.yul\":7448:7462   */\n      lt\n        /* \"#utility.yul\":7441:7561   */\n      iszero\n      tag_152\n      jumpi\n        /* \"#utility.yul\":7512:7551   */\n      tag_153\n        /* \"#utility.yul\":7549:7550   */\n      0x00\n        /* \"#utility.yul\":7542:7547   */\n      dup3\n        /* \"#utility.yul\":7512:7551   */\n      tag_58\n      jump\t// in\n    tag_153:\n        /* \"#utility.yul\":7485:7486   */\n      0x01\n        /* \"#utility.yul\":7478:7483   */\n      dup2\n        /* \"#utility.yul\":7474:7487   */\n      add\n        /* \"#utility.yul\":7465:7487   */\n      swap1\n      pop\n        /* \"#utility.yul\":7441:7561   */\n      jump(tag_150)\n    tag_152:\n        /* \"#utility.yul\":7381:7567   */\n      pop\n      pop\n      jump\t// out\n        /* \"#utility.yul\":7573:8116   */\n    tag_60:\n        /* \"#utility.yul\":7674:7676   */\n      0x1f\n        /* \"#utility.yul\":7669:7672   */\n      dup3\n        /* \"#utility.yul\":7666:7677   */\n      gt\n        /* \"#utility.yul\":7663:8109   */\n      iszero\n      tag_155\n      jumpi\n        /* \"#utility.yul\":7708:7746   */\n      tag_156\n        /* \"#utility.yul\":7740:7745   */\n      dup2\n        /* \"#utility.yul\":7708:7746   */\n      tag_49\n      jump\t// in\n    tag_156:\n        /* \"#utility.yul\":7792:7821   */\n      tag_157\n        /* \"#utility.yul\":7810:7820   */\n      dup5\n        /* \"#utility.yul\":7792:7821   */\n      tag_50\n      jump\t// in\n    tag_157:\n        /* \"#utility.yul\":7782:7790   */\n      dup2\n        /* \"#utility.yul\":7778:7822   */\n      add\n        /* \"#utility.yul\":7975:7977   */\n      0x20\n        /* \"#utility.yul\":7963:7973   */\n      dup6\n        /* \"#utility.yul\":7960:7978   */\n      lt\n        /* \"#utility.yul\":7957:8006   */\n      iszero\n      tag_158\n      jumpi\n        /* \"#utility.yul\":7996:8004   */\n      dup2\n        /* \"#utility.yul\":7981:8004   */\n      swap1\n      pop\n        /* \"#utility.yul\":7957:8006   */\n    tag_158:\n        /* \"#utility.yul\":8019:8099   */\n      tag_159\n        /* \"#utility.yul\":8075:8097   */\n      tag_160\n        /* \"#utility.yul\":8093:8096   */\n      dup6\n        /* \"#utility.yul\":8075:8097   */\n      tag_50\n      jump\t// in\n    tag_160:\n        /* \"#utility.yul\":8065:8073   */\n      dup4\n        /* \"#utility.yul\":8061:8098   */\n      add\n        /* \"#utility.yul\":8048:8059   */\n      dup3\n        /* \"#utility.yul\":8019:8099   */\n      tag_59\n      jump\t// in\n    tag_159:\n        /* \"#utility.yul\":7678:8109   */\n      pop\n      pop\n        /* \"#utility.yul\":7663:8109   */\n    tag_155:\n        /* \"#utility.yul\":7573:8116   */\n      pop\n      pop\n      pop\n      jump\t// out\n        /* \"#utility.yul\":8122:8239   */\n    tag_61:\n        /* \"#utility.yul\":8176:8184   */\n      0x00\n        /* \"#utility.yul\":8226:8231   */\n      dup3\n        /* \"#utility.yul\":8220:8224   */\n      dup3\n        /* \"#utility.yul\":8216:8232   */\n      shr\n        /* \"#utility.yul\":8195:8232   */\n      swap1\n      pop\n        /* \"#utility.yul\":8122:8239   */\n      swap3\n      swap2\n      pop\n      pop\n      jump\t// out\n        /* \"#utility.yul\":8245:8414   */\n    tag_62:\n        /* \"#utility.yul\":8289:8295   */\n      0x00\n        /* \"#utility.yul\":8322:8373   */\n      tag_163\n        /* \"#utility.yul\":8370:8371   */\n      0x00\n        /* \"#utility.yul\":8366:8372   */\n      not\n        /* \"#utility.yul\":8358:8363   */\n      dup5\n        /* \"#utility.yul\":8355:8356   */\n      0x08\n        /* \"#utility.yul\":8351:8364   */\n      mul\n        /* \"#utility.yul\":8322:8373   */\n      tag_61\n      jump\t// in\n    tag_163:\n        /* \"#utility.yul\":8318:8374   */\n      not\n        /* \"#utility.yul\":8403:8407   */\n      dup1\n        /* \"#utility.yul\":8397:8401   */\n      dup4\n        /* \"#utility.yul\":8393:8408   */\n      and\n        /* \"#utility.yul\":8383:8408   */\n      swap2\n      pop\n        /* \"#utility.yul\":8296:8414   */\n      pop\n        /* \"#utility.yul\":8245:8414   */\n      swap3\n      swap2\n      pop\n      pop\n      jump\t// out\n        /* \"#utility.yul\":8419:8714   */\n    tag_63:\n        /* \"#utility.yul\":8495:8499   */\n      0x00\n        /* \"#utility.yul\":8641:8670   */\n      tag_165\n        /* \"#utility.yul\":8666:8669   */\n      dup4\n        /* \"#utility.yul\":8660:8664   */\n      dup4\n        /* \"#utility.yul\":8641:8670   */\n      tag_62\n      jump\t// in\n    tag_165:\n        /* \"#utility.yul\":8633:8670   */\n      swap2\n      pop\n        /* \"#utility.yul\":8703:8706   */\n      dup3\n        /* \"#utility.yul\":8700:8701   */\n      0x02\n        /* \"#utility.yul\":8696:8707   */\n      mul\n        /* \"#utility.yul\":8690:8694   */\n      dup3\n        /* \"#utility.yul\":8687:8708   */\n      or\n        /* \"#utility.yul\":8679:8708   */\n      swap1\n      pop\n        /* \"#utility.yul\":8419:8714   */\n      swap3\n      swap2\n      pop\n      pop\n      jump\t// out\n        /* \"#utility.yul\":8719:10114   */\n    tag_26:\n        /* \"#utility.yul\":8836:8873   */\n      tag_167\n        /* \"#utility.yul\":8869:8872   */\n      dup3\n        /* \"#utility.yul\":8836:8873   */\n      tag_33\n      jump\t// in\n    tag_167:\n        /* \"#utility.yul\":8938:8956   */\n      0xffffffffffffffff\n        /* \"#utility.yul\":8930:8936   */\n      dup2\n        /* \"#utility.yul\":8927:8957   */\n      gt\n        /* \"#utility.yul\":8924:8980   */\n      iszero\n      tag_168\n      jumpi\n        /* \"#utility.yul\":8960:8978   */\n      tag_169\n      tag_41\n      jump\t// in\n    tag_169:\n        /* \"#utility.yul\":8924:8980   */\n    tag_168:\n        /* \"#utility.yul\":9004:9042   */\n      tag_170\n        /* \"#utility.yul\":9036:9040   */\n      dup3\n        /* \"#utility.yul\":9030:9041   */\n      sload\n        /* \"#utility.yul\":9004:9042   */\n      tag_18\n      jump\t// in\n    tag_170:\n        /* \"#utility.yul\":9089:9156   */\n      tag_171\n        /* \"#utility.yul\":9149:9155   */\n      dup3\n        /* \"#utility.yul\":9141:9147   */\n      dup3\n        /* \"#utility.yul\":9135:9139   */\n      dup6\n        /* \"#utility.yul\":9089:9156   */\n      tag_60\n      jump\t// in\n    tag_171:\n        /* \"#utility.yul\":9183:9184   */\n      0x00\n        /* \"#utility.yul\":9207:9211   */\n      0x20\n        /* \"#utility.yul\":9194:9211   */\n      swap1\n      pop\n        /* \"#utility.yul\":9239:9241   */\n      0x1f\n        /* \"#utility.yul\":9231:9237   */\n      dup4\n        /* \"#utility.yul\":9228:9242   */\n      gt\n        /* \"#utility.yul\":9256:9257   */\n      0x01\n        /* \"#utility.yul\":9251:9869   */\n      dup2\n      eq\n      tag_173\n      jumpi\n        /* \"#utility.yul\":9913:9914   */\n      0x00\n        /* \"#utility.yul\":9930:9936   */\n      dup5\n        /* \"#utility.yul\":9927:10004   */\n      iszero\n      tag_174\n      jumpi\n        /* \"#utility.yul\":9979:9988   */\n      dup3\n        /* \"#utility.yul\":9974:9977   */\n      dup8\n        /* \"#utility.yul\":9970:9989   */\n      add\n        /* \"#utility.yul\":9964:9990   */\n      mload\n        /* \"#utility.yul\":9955:9990   */\n      swap1\n      pop\n        /* \"#utility.yul\":9927:10004   */\n    tag_174:\n        /* \"#utility.yul\":10030:10097   */\n      tag_175\n        /* \"#utility.yul\":10090:10096   */\n      dup6\n        /* \"#utility.yul\":10083:10088   */\n      dup3\n        /* \"#utility.yul\":10030:10097   */\n      tag_63\n      jump\t// in\n    tag_175:\n        /* \"#utility.yul\":10024:10028   */\n      dup7\n        /* \"#utility.yul\":10017:10098   */\n      sstore\n        /* \"#utility.yul\":9886:10108   */\n      pop\n        /* \"#utility.yul\":9221:10108   */\n      jump(tag_172)\n        /* \"#utility.yul\":9251:9869   */\n    tag_173:\n        /* \"#utility.yul\":9303:9307   */\n      0x1f\n        /* \"#utility.yul\":9299:9308   */\n      not\n        /* \"#utility.yul\":9291:9297   */\n      dup5\n        /* \"#utility.yul\":9287:9309   */\n      and\n        /* \"#utility.yul\":9337:9374   */\n      tag_176\n        /* \"#utility.yul\":9369:9373   */\n      dup7\n        /* \"#utility.yul\":9337:9374   */\n      tag_49\n      jump\t// in\n    tag_176:\n        /* \"#utility.yul\":9396:9397   */\n      0x00\n        /* \"#utility.yul\":9410:9618   */\n    tag_177:\n        /* \"#utility.yul\":9424:9431   */\n      dup3\n        /* \"#utility.yul\":9421:9422   */\n      dup2\n        /* \"#utility.yul\":9418:9432   */\n      lt\n        /* \"#utility.yul\":9410:9618   */\n      iszero\n      tag_179\n      jumpi\n        /* \"#utility.yul\":9503:9512   */\n      dup5\n        /* \"#utility.yul\":9498:9501   */\n      dup10\n        /* \"#utility.yul\":9494:9513   */\n      add\n        /* \"#utility.yul\":9488:9514   */\n      mload\n        /* \"#utility.yul\":9480:9486   */\n      dup3\n        /* \"#utility.yul\":9473:9515   */\n      sstore\n        /* \"#utility.yul\":9554:9555   */\n      0x01\n        /* \"#utility.yul\":9546:9552   */\n      dup3\n        /* \"#utility.yul\":9542:9556   */\n      add\n        /* \"#utility.yul\":9532:9556   */\n      swap2\n      pop\n        /* \"#utility.yul\":9601:9603   */\n      0x20\n        /* \"#utility.yul\":9590:9599   */\n      dup6\n        /* \"#utility.yul\":9586:9604   */\n      add\n        /* \"#utility.yul\":9573:9604   */\n      swap5\n      pop\n        /* \"#utility.yul\":9447:9451   */\n      0x20\n        /* \"#utility.yul\":9444:9445   */\n      dup2\n        /* \"#utility.yul\":9440:9452   */\n      add\n        /* \"#utility.yul\":9435:9452   */\n      swap1\n      pop\n        /* \"#utility.yul\":9410:9618   */\n      jump(tag_177)\n    tag_179:\n        /* \"#utility.yul\":9646:9652   */\n      dup7\n        /* \"#utility.yul\":9637:9644   */\n      dup4\n        /* \"#utility.yul\":9634:9653   */\n      lt\n        /* \"#utility.yul\":9631:9810   */\n      iszero\n      tag_180\n      jumpi\n        /* \"#utility.yul\":9704:9713   */\n      dup5\n        /* \"#utility.yul\":9699:9702   */\n      dup10\n        /* \"#utility.yul\":9695:9714   */\n      add\n        /* \"#utility.yul\":9689:9715   */\n      mload\n        /* \"#utility.yul\":9747:9795   */\n      tag_181\n        /* \"#utility.yul\":9789:9793   */\n      0x1f\n        /* \"#utility.yul\":9781:9787   */\n      dup10\n        /* \"#utility.yul\":9777:9794   */\n      and\n        /* \"#utility.yul\":9766:9775   */\n      dup3\n        /* \"#utility.yul\":9747:9795   */\n      tag_62\n      jump\t// in\n    tag_181:\n        /* \"#utility.yul\":9739:9745   */\n      dup4\n        /* \"#utility.yul\":9732:9796   */\n      sstore\n        /* \"#utility.yul\":9654:9810   */\n      pop\n        /* \"#utility.yul\":9631:9810   */\n    tag_180:\n        /* \"#utility.yul\":9856:9857   */\n      0x01\n        /* \"#utility.yul\":9852:9853   */\n      0x02\n        /* \"#utility.yul\":9844:9850   */\n      dup9\n        /* \"#utility.yul\":9840:9854   */\n      mul\n        /* \"#utility.yul\":9836:9858   */\n      add\n        /* \"#utility.yul\":9830:9834   */\n      dup9\n        /* \"#utility.yul\":9823:9859   */\n      sstore\n        /* \"#utility.yul\":9258:9869   */\n      pop\n      pop\n      pop\n        /* \"#utility.yul\":9221:10108   */\n    tag_172:\n      pop\n        /* \"#utility.yul\":8811:10114   */\n      pop\n      pop\n      pop\n        /* \"#utility.yul\":8719:10114   */\n      pop\n      pop\n      jump\t// out\n\n    auxdata: 0xa26469706673582212209d6c8274291f7c0b5e5707f6ae972a3474d4ab19d545478d2839147844367eb564736f6c634300081f0033\n}\n",
				"bytecode": {
					"linkReferences": {},
					"object": "6080604052348015600e575f5ffd5b5061073d8061001c5f395ff3fe608060405234801561000f575f5ffd5b5060043610610034575f3560e01c80630b8392e1146100385780633b83ad6514610069575b5f5ffd5b610052600480360381019061004d91906101dd565b610085565b604051610060929190610287565b60405180910390f35b610083600480360381019061007e91906103e1565b610139565b005b5f8181548110610093575f80fd5b905f5260205f2090600202015f91509050805f0180546100b290610468565b80601f01602080910402602001604051908101604052809291908181526020018280546100de90610468565b80156101295780601f1061010057610100808354040283529160200191610129565b820191905f5260205f20905b81548152906001019060200180831161010c57829003601f168201915b5050505050908060010154905082565b5f604051806040016040528084815260200183815250908060018154018082558091505060019003905f5260205f2090600202015f909190919091505f820151815f0190816101889190610638565b506020820151816001015550505050565b5f604051905090565b5f5ffd5b5f5ffd5b5f819050919050565b6101bc816101aa565b81146101c6575f5ffd5b50565b5f813590506101d7816101b3565b92915050565b5f602082840312156101f2576101f16101a2565b5b5f6101ff848285016101c9565b91505092915050565b5f81519050919050565b5f82825260208201905092915050565b8281835e5f83830152505050565b5f601f19601f8301169050919050565b5f61024a82610208565b6102548185610212565b9350610264818560208601610222565b61026d81610230565b840191505092915050565b610281816101aa565b82525050565b5f6040820190508181035f83015261029f8185610240565b90506102ae6020830184610278565b9392505050565b5f5ffd5b5f5ffd5b7f4e487b71000000000000000000000000000000000000000000000000000000005f52604160045260245ffd5b6102f382610230565b810181811067ffffffffffffffff82111715610312576103116102bd565b5b80604052505050565b5f610324610199565b905061033082826102ea565b919050565b5f67ffffffffffffffff82111561034f5761034e6102bd565b5b61035882610230565b9050602081019050919050565b828183375f83830152505050565b5f61038561038084610335565b61031b565b9050828152602081018484840111156103a1576103a06102b9565b5b6103ac848285610365565b509392505050565b5f82601f8301126103c8576103c76102b5565b5b81356103d8848260208601610373565b91505092915050565b5f5f604083850312156103f7576103f66101a2565b5b5f83013567ffffffffffffffff811115610414576104136101a6565b5b610420858286016103b4565b9250506020610431858286016101c9565b9150509250929050565b7f4e487b71000000000000000000000000000000000000000000000000000000005f52602260045260245ffd5b5f600282049050600182168061047f57607f821691505b6020821081036104925761049161043b565b5b50919050565b5f819050815f5260205f209050919050565b5f6020601f8301049050919050565b5f82821b905092915050565b5f600883026104f47fffffffffffffffffffffffffffffffffffffffffffffffffffffffffffffffff826104b9565b6104fe86836104b9565b95508019841693508086168417925050509392505050565b5f819050919050565b5f61053961053461052f846101aa565b610516565b6101aa565b9050919050565b5f819050919050565b6105528361051f565b61056661055e82610540565b8484546104c5565b825550505050565b5f5f905090565b61057d61056e565b610588818484610549565b505050565b5b818110156105ab576105a05f82610575565b60018101905061058e565b5050565b601f8211156105f0576105c181610498565b6105ca846104aa565b810160208510156105d9578190505b6105ed6105e5856104aa565b83018261058d565b50505b505050565b5f82821c905092915050565b5f6106105f19846008026105f5565b1980831691505092915050565b5f6106288383610601565b9150826002028217905092915050565b61064182610208565b67ffffffffffffffff81111561065a576106596102bd565b5b6106648254610468565b61066f8282856105af565b5f60209050601f8311600181146106a0575f841561068e578287015190505b610698858261061d565b8655506106ff565b601f1984166106ae86610498565b5f5b828110156106d5578489015182556001820191506020850194506020810190506106b0565b868310156106f257848901516106ee601f891682610601565b8355505b6001600288020188555050505b50505050505056fea26469706673582212209d6c8274291f7c0b5e5707f6ae972a3474d4ab19d545478d2839147844367eb564736f6c634300081f0033",
					"opcodes": "PUSH1 0x80 PUSH1 0x40 MSTORE CALLVALUE DUP1 ISZERO PUSH1 0xE JUMPI PUSH0 PUSH0 REVERT JUMPDEST POP PUSH2 0x73D DUP1 PUSH2 0x1C PUSH0 CODECOPY PUSH0 RETURN INVALID PUSH1 0x80 PUSH1 0x40 MSTORE CALLVALUE DUP1 ISZERO PUSH2 0xF JUMPI PUSH0 PUSH0 REVERT JUMPDEST POP PUSH1 0x4 CALLDATASIZE LT PUSH2 0x34 JUMPI PUSH0 CALLDATALOAD PUSH1 0xE0 SHR DUP1 PUSH4 0xB8392E1 EQ PUSH2 0x38 JUMPI DUP1 PUSH4 0x3B83AD65 EQ PUSH2 0x69 JUMPI JUMPDEST PUSH0 PUSH0 REVERT JUMPDEST PUSH2 0x52 PUSH1 0x4 DUP1 CALLDATASIZE SUB DUP2 ADD SWAP1 PUSH2 0x4D SWAP2 SWAP1 PUSH2 0x1DD JUMP JUMPDEST PUSH2 0x85 JUMP JUMPDEST PUSH1 0x40 MLOAD PUSH2 0x60 SWAP3 SWAP2 SWAP1 PUSH2 0x287 JUMP JUMPDEST PUSH1 0x40 MLOAD DUP1 SWAP2 SUB SWAP1 RETURN JUMPDEST PUSH2 0x83 PUSH1 0x4 DUP1 CALLDATASIZE SUB DUP2 ADD SWAP1 PUSH2 0x7E SWAP2 SWAP1 PUSH2 0x3E1 JUMP JUMPDEST PUSH2 0x139 JUMP JUMPDEST STOP JUMPDEST PUSH0 DUP2 DUP2 SLOAD DUP2 LT PUSH2 0x93 JUMPI PUSH0 DUP1 REVERT JUMPDEST SWAP1 PUSH0 MSTORE PUSH1 0x20 PUSH0 KECCAK256 SWAP1 PUSH1 0x2 MUL ADD PUSH0 SWAP2 POP SWAP1 POP DUP1 PUSH0 ADD DUP1 SLOAD PUSH2 0xB2 SWAP1 PUSH2 0x468 JUMP JUMPDEST DUP1 PUSH1 0x1F ADD PUSH1 0x20 DUP1 SWAP2 DIV MUL PUSH1 0x20 ADD PUSH1 0x40 MLOAD SWAP1 DUP2 ADD PUSH1 0x40 MSTORE DUP1 SWAP3 SWAP2 SWAP1 DUP2 DUP2 MSTORE PUSH1 0x20 ADD DUP3 DUP1 SLOAD PUSH2 0xDE SWAP1 PUSH2 0x468 JUMP JUMPDEST DUP1 ISZERO PUSH2 0x129 JUMPI DUP1 PUSH1 0x1F LT PUSH2 0x100 JUMPI PUSH2 0x100 DUP1 DUP4 SLOAD DIV MUL DUP4 MSTORE SWAP2 PUSH1 0x20 ADD SWAP2 PUSH2 0x129 JUMP JUMPDEST DUP3 ADD SWAP2 SWAP1 PUSH0 MSTORE PUSH1 0x20 PUSH0 KECCAK256 SWAP1 JUMPDEST DUP2 SLOAD DUP2 MSTORE SWAP1 PUSH1 0x1 ADD SWAP1 PUSH1 0x20 ADD DUP1 DUP4 GT PUSH2 0x10C JUMPI DUP3 SWAP1 SUB PUSH1 0x1F AND DUP3 ADD SWAP2 JUMPDEST POP POP POP POP POP SWAP1 DUP1 PUSH1 0x1 ADD SLOAD SWAP1 POP DUP3 JUMP JUMPDEST PUSH0 PUSH1 0x40 MLOAD DUP1 PUSH1 0x40 ADD PUSH1 0x40 MSTORE DUP1 DUP5 DUP2 MSTORE PUSH1 0x20 ADD DUP4 DUP2 MSTORE POP SWAP1 DUP1 PUSH1 0x1 DUP2 SLOAD ADD DUP1 DUP3 SSTORE DUP1 SWAP2 POP POP PUSH1 0x1 SWAP1 SUB SWAP1 PUSH0 MSTORE PUSH1 0x20 PUSH0 KECCAK256 SWAP1 PUSH1 0x2 MUL ADD PUSH0 SWAP1 SWAP2 SWAP1 SWAP2 SWAP1 SWAP2 POP PUSH0 DUP3 ADD MLOAD DUP2 PUSH0 ADD SWAP1 DUP2 PUSH2 0x188 SWAP2 SWAP1 PUSH2 0x638 JUMP JUMPDEST POP PUSH1 0x20 DUP3 ADD MLOAD DUP2 PUSH1 0x1 ADD SSTORE POP POP POP POP JUMP JUMPDEST PUSH0 PUSH1 0x40 MLOAD SWAP1 POP SWAP1 JUMP JUMPDEST PUSH0 PUSH0 REVERT JUMPDEST PUSH0 PUSH0 REVERT JUMPDEST PUSH0 DUP2 SWAP1 POP SWAP2 SWAP1 POP JUMP JUMPDEST PUSH2 0x1BC DUP2 PUSH2 0x1AA JUMP JUMPDEST DUP2 EQ PUSH2 0x1C6 JUMPI PUSH0 PUSH0 REVERT JUMPDEST POP JUMP JUMPDEST PUSH0 DUP2 CALLDATALOAD SWAP1 POP PUSH2 0x1D7 DUP2 PUSH2 0x1B3 JUMP JUMPDEST SWAP3 SWAP2 POP POP JUMP JUMPDEST PUSH0 PUSH1 0x20 DUP3 DUP5 SUB SLT ISZERO PUSH2 0x1F2 JUMPI PUSH2 0x1F1 PUSH2 0x1A2 JUMP JUMPDEST JUMPDEST PUSH0 PUSH2 0x1FF DUP5 DUP3 DUP6 ADD PUSH2 0x1C9 JUMP JUMPDEST SWAP2 POP POP SWAP3 SWAP2 POP POP JUMP JUMPDEST PUSH0 DUP2 MLOAD SWAP1 POP SWAP2 SWAP1 POP JUMP JUMPDEST PUSH0 DUP3 DUP3 MSTORE PUSH1 0x20 DUP3 ADD SWAP1 POP SWAP3 SWAP2 POP POP JUMP JUMPDEST DUP3 DUP2 DUP4 MCOPY PUSH0 DUP4 DUP4 ADD MSTORE POP POP POP JUMP JUMPDEST PUSH0 PUSH1 0x1F NOT PUSH1 0x1F DUP4 ADD AND SWAP1 POP SWAP2 SWAP1 POP JUMP JUMPDEST PUSH0 PUSH2 0x24A DUP3 PUSH2 0x208 JUMP JUMPDEST PUSH2 0x254 DUP2 DUP6 PUSH2 0x212 JUMP JUMPDEST SWAP4 POP PUSH2 0x264 DUP2 DUP6 PUSH1 0x20 DUP7 ADD PUSH2 0x222 JUMP JUMPDEST PUSH2 0x26D DUP2 PUSH2 0x230 JUMP JUMPDEST DUP5 ADD SWAP2 POP POP SWAP3 SWAP2 POP POP JUMP JUMPDEST PUSH2 0x281 DUP2 PUSH2 0x1AA JUMP JUMPDEST DUP3 MSTORE POP POP JUMP JUMPDEST PUSH0 PUSH1 0x40 DUP3 ADD SWAP1 POP DUP2 DUP2 SUB PUSH0 DUP4 ADD MSTORE PUSH2 0x29F DUP2 DUP6 PUSH2 0x240 JUMP JUMPDEST SWAP1 POP PUSH2 0x2AE PUSH1 0x20 DUP4 ADD DUP5 PUSH2 0x278 JUMP JUMPDEST SWAP4 SWAP3 POP POP POP JUMP JUMPDEST PUSH0 PUSH0 REVERT JUMPDEST PUSH0 PUSH0 REVERT JUMPDEST PUSH32 0x4E487B7100000000000000000000000000000000000000000000000000000000 PUSH0 MSTORE PUSH1 0x41 PUSH1 0x4 MSTORE PUSH1 0x24 PUSH0 REVERT JUMPDEST PUSH2 0x2F3 DUP3 PUSH2 0x230 JUMP JUMPDEST DUP2 ADD DUP2 DUP2 LT PUSH8 0xFFFFFFFFFFFFFFFF DUP3 GT OR ISZERO PUSH2 0x312 JUMPI PUSH2 0x311 PUSH2 0x2BD JUMP JUMPDEST JUMPDEST DUP1 PUSH1 0x40 MSTORE POP POP POP JUMP JUMPDEST PUSH0 PUSH2 0x324 PUSH2 0x199 JUMP JUMPDEST SWAP1 POP PUSH2 0x330 DUP3 DUP3 PUSH2 0x2EA JUMP JUMPDEST SWAP2 SWAP1 POP JUMP JUMPDEST PUSH0 PUSH8 0xFFFFFFFFFFFFFFFF DUP3 GT ISZERO PUSH2 0x34F JUMPI PUSH2 0x34E PUSH2 0x2BD JUMP JUMPDEST JUMPDEST PUSH2 0x358 DUP3 PUSH2 0x230 JUMP JUMPDEST SWAP1 POP PUSH1 0x20 DUP2 ADD SWAP1 POP SWAP2 SWAP1 POP JUMP JUMPDEST DUP3 DUP2 DUP4 CALLDATACOPY PUSH0 DUP4 DUP4 ADD MSTORE POP POP POP JUMP JUMPDEST PUSH0 PUSH2 0x385 PUSH2 0x380 DUP5 PUSH2 0x335 JUMP JUMPDEST PUSH2 0x31B JUMP JUMPDEST SWAP1 POP DUP3 DUP2 MSTORE PUSH1 0x20 DUP2 ADD DUP5 DUP5 DUP5 ADD GT ISZERO PUSH2 0x3A1 JUMPI PUSH2 0x3A0 PUSH2 0x2B9 JUMP JUMPDEST JUMPDEST PUSH2 0x3AC DUP5 DUP3 DUP6 PUSH2 0x365 JUMP JUMPDEST POP SWAP4 SWAP3 POP POP POP JUMP JUMPDEST PUSH0 DUP3 PUSH1 0x1F DUP4 ADD SLT PUSH2 0x3C8 JUMPI PUSH2 0x3C7 PUSH2 0x2B5 JUMP JUMPDEST JUMPDEST DUP2 CALLDATALOAD PUSH2 0x3D8 DUP5 DUP3 PUSH1 0x20 DUP7 ADD PUSH2 0x373 JUMP JUMPDEST SWAP2 POP POP SWAP3 SWAP2 POP POP JUMP JUMPDEST PUSH0 PUSH0 PUSH1 0x40 DUP4 DUP6 SUB SLT ISZERO PUSH2 0x3F7 JUMPI PUSH2 0x3F6 PUSH2 0x1A2 JUMP JUMPDEST JUMPDEST PUSH0 DUP4 ADD CALLDATALOAD PUSH8 0xFFFFFFFFFFFFFFFF DUP2 GT ISZERO PUSH2 0x414 JUMPI PUSH2 0x413 PUSH2 0x1A6 JUMP JUMPDEST JUMPDEST PUSH2 0x420 DUP6 DUP3 DUP7 ADD PUSH2 0x3B4 JUMP JUMPDEST SWAP3 POP POP PUSH1 0x20 PUSH2 0x431 DUP6 DUP3 DUP7 ADD PUSH2 0x1C9 JUMP JUMPDEST SWAP2 POP POP SWAP3 POP SWAP3 SWAP1 POP JUMP JUMPDEST PUSH32 0x4E487B7100000000000000000000000000000000000000000000000000000000 PUSH0 MSTORE PUSH1 0x22 PUSH1 0x4 MSTORE PUSH1 0x24 PUSH0 REVERT JUMPDEST PUSH0 PUSH1 0x2 DUP3 DIV SWAP1 POP PUSH1 0x1 DUP3 AND DUP1 PUSH2 0x47F JUMPI PUSH1 0x7F DUP3 AND SWAP2 POP JUMPDEST PUSH1 0x20 DUP3 LT DUP2 SUB PUSH2 0x492 JUMPI PUSH2 0x491 PUSH2 0x43B JUMP JUMPDEST JUMPDEST POP SWAP2 SWAP1 POP JUMP JUMPDEST PUSH0 DUP2 SWAP1 POP DUP2 PUSH0 MSTORE PUSH1 0x20 PUSH0 KECCAK256 SWAP1 POP SWAP2 SWAP1 POP JUMP JUMPDEST PUSH0 PUSH1 0x20 PUSH1 0x1F DUP4 ADD DIV SWAP1 POP SWAP2 SWAP1 POP JUMP JUMPDEST PUSH0 DUP3 DUP3 SHL SWAP1 POP SWAP3 SWAP2 POP POP JUMP JUMPDEST PUSH0 PUSH1 0x8 DUP4 MUL PUSH2 0x4F4 PUSH32 0xFFFFFFFFFFFFFFFFFFFFFFFFFFFFFFFFFFFFFFFFFFFFFFFFFFFFFFFFFFFFFFFF DUP3 PUSH2 0x4B9 JUMP JUMPDEST PUSH2 0x4FE DUP7 DUP4 PUSH2 0x4B9 JUMP JUMPDEST SWAP6 POP DUP1 NOT DUP5 AND SWAP4 POP DUP1 DUP7 AND DUP5 OR SWAP3 POP POP POP SWAP4 SWAP3 POP POP POP JUMP JUMPDEST PUSH0 DUP2 SWAP1 POP SWAP2 SWAP1 POP JUMP JUMPDEST PUSH0 PUSH2 0x539 PUSH2 0x534 PUSH2 0x52F DUP5 PUSH2 0x1AA JUMP JUMPDEST PUSH2 0x516 JUMP JUMPDEST PUSH2 0x1AA JUMP JUMPDEST SWAP1 POP SWAP2 SWAP1 POP JUMP JUMPDEST PUSH0 DUP2 SWAP1 POP SWAP2 SWAP1 POP JUMP JUMPDEST PUSH2 0x552 DUP4 PUSH2 0x51F JUMP JUMPDEST PUSH2 0x566 PUSH2 0x55E DUP3 PUSH2 0x540 JUMP JUMPDEST DUP5 DUP5 SLOAD PUSH2 0x4C5 JUMP JUMPDEST DUP3 SSTORE POP POP POP POP JUMP JUMPDEST PUSH0 PUSH0 SWAP1 POP SWAP1 JUMP JUMPDEST PUSH2 0x57D PUSH2 0x56E JUMP JUMPDEST PUSH2 0x588 DUP2 DUP5 DUP5 PUSH2 0x549 JUMP JUMPDEST POP POP POP JUMP JUMPDEST JUMPDEST DUP2 DUP2 LT ISZERO PUSH2 0x5AB JUMPI PUSH2 0x5A0 PUSH0 DUP3 PUSH2 0x575 JUMP JUMPDEST PUSH1 0x1 DUP2 ADD SWAP1 POP PUSH2 0x58E JUMP JUMPDEST POP POP JUMP JUMPDEST PUSH1 0x1F DUP3 GT ISZERO PUSH2 0x5F0 JUMPI PUSH2 0x5C1 DUP2 PUSH2 0x498 JUMP JUMPDEST PUSH2 0x5CA DUP5 PUSH2 0x4AA JUMP JUMPDEST DUP2 ADD PUSH1 0x20 DUP6 LT ISZERO PUSH2 0x5D9 JUMPI DUP2 SWAP1 POP JUMPDEST PUSH2 0x5ED PUSH2 0x5E5 DUP6 PUSH2 0x4AA JUMP JUMPDEST DUP4 ADD DUP3 PUSH2 0x58D JUMP JUMPDEST POP POP JUMPDEST POP POP POP JUMP JUMPDEST PUSH0 DUP3 DUP3 SHR SWAP1 POP SWAP3 SWAP2 POP POP JUMP JUMPDEST PUSH0 PUSH2 0x610 PUSH0 NOT DUP5 PUSH1 0x8 MUL PUSH2 0x5F5 JUMP JUMPDEST NOT DUP1 DUP4 AND SWAP2 POP POP SWAP3 SWAP2 POP POP JUMP JUMPDEST PUSH0 PUSH2 0x628 DUP4 DUP4 PUSH2 0x601 JUMP JUMPDEST SWAP2 POP DUP3 PUSH1 0x2 MUL DUP3 OR SWAP1 POP SWAP3 SWAP2 POP POP JUMP JUMPDEST PUSH2 0x641 DUP3 PUSH2 0x208 JUMP JUMPDEST PUSH8 0xFFFFFFFFFFFFFFFF DUP2 GT ISZERO PUSH2 0x65A JUMPI PUSH2 0x659 PUSH2 0x2BD JUMP JUMPDEST JUMPDEST PUSH2 0x664 DUP3 SLOAD PUSH2 0x468 JUMP JUMPDEST PUSH2 0x66F DUP3 DUP3 DUP6 PUSH2 0x5AF JUMP JUMPDEST PUSH0 PUSH1 0x20 SWAP1 POP PUSH1 0x1F DUP4 GT PUSH1 0x1 DUP2 EQ PUSH2 0x6A0 JUMPI PUSH0 DUP5 ISZERO PUSH2 0x68E JUMPI DUP3 DUP8 ADD MLOAD SWAP1 POP JUMPDEST PUSH2 0x698 DUP6 DUP3 PUSH2 0x61D JUMP JUMPDEST DUP7 SSTORE POP PUSH2 0x6FF JUMP JUMPDEST PUSH1 0x1F NOT DUP5 AND PUSH2 0x6AE DUP7 PUSH2 0x498 JUMP JUMPDEST PUSH0 JUMPDEST DUP3 DUP2 LT ISZERO PUSH2 0x6D5 JUMPI DUP5 DUP10 ADD MLOAD DUP3 SSTORE PUSH1 0x1 DUP3 ADD SWAP2 POP PUSH1 0x20 DUP6 ADD SWAP5 POP PUSH1 0x20 DUP2 ADD SWAP1 POP PUSH2 0x6B0 JUMP JUMPDEST DUP7 DUP4 LT ISZERO PUSH2 0x6F2 JUMPI DUP5 DUP10 ADD MLOAD PUSH2 0x6EE PUSH1 0x1F DUP10 AND DUP3 PUSH2 0x601 JUMP JUMPDEST DUP4 SSTORE POP JUMPDEST PUSH1 0x1 PUSH1 0x2 DUP9 MUL ADD DUP9 SSTORE POP POP POP JUMPDEST POP POP POP POP POP POP JUMP INVALID LOG2 PUSH5 0x6970667358 0x22 SLT KECCAK256 SWAP14 PUSH13 0x8274291F7C0B5E5707F6AE972A CALLVALUE PUSH21 0xD4AB19D545478D2839147844367EB564736F6C6343 STOP ADDMOD 0x1F STOP CALLER "
				},
				"gasEstimates": {
					"creation": {
						"codeDepositCost": "370600",
						"executionCost": "403",
						"totalCost": "371003"
					},
					"external": {
						"addLecturer(string,uint256)": "infinite",
						"lecturers(uint256)": "infinite"
					}
				},
				"methodIdentifiers": {
					"addLecturer(string,uint256)": "3b83ad65",
					"lecturers(uint256)": "0b8392e1"
				}
			},
			"storageLayout": {
				"storage": [
					{
						"astId": 77,
						"contract": "Lecturers.sol:Lecturers",
						"label": "lecturers",
						"offset": 0,
						"slot": "0",
						"type": "t_array(t_struct(Lecturer)73_storage)dyn_storage"
					}
				],
				"types": {
					"t_array(t_struct(Lecturer)73_storage)dyn_storage": {
						"base": "t_struct(Lecturer)73_storage",
						"encoding": "dynamic_array",
						"label": "struct Lecturers.Lecturer[]",
						"numberOfBytes": "32"
					},
					"t_string_storage": {
						"encoding": "bytes",
						"label": "string",
						"numberOfBytes": "32"
					},
					"t_struct(Lecturer)73_storage": {
						"encoding": "inplace",
						"label": "struct Lecturers.Lecturer",
						"members": [
							{
								"astId": 70,
								"contract": "Lecturers.sol:Lecturers",
								"label": "name",
								"offset": 0,
								"slot": "0",
								"type": "t_string_storage"
							},
							{
								"astId": 72,
								"contract": "Lecturers.sol:Lecturers",
								"label": "age",
								"offset": 0,
								"slot": "1",
								"type": "t_uint256"
							}
						],
						"numberOfBytes": "64"
					},
					"t_uint256": {
						"encoding": "inplace",
						"label": "uint256",
						"numberOfBytes": "32"
					}
				}
			},
			"userdoc": {
				"kind": "user",
				"methods": {},
				"version": 1
			}
		}
	}
}