{
	"Courses.sol": {
		"Courses": {
			"abi": [
				{
					"inputs": [
						{
							"internalType": "string",
							"name": "",
							"type": "string"
						}
					],
					"name": "codeToCourse",
					"outputs": [
						{
							"internalType": "string",
							"name": "title",
							"type": "string"
						},
						{
							"internalType": "uint256",
							"name": "unit",
							"type": "uint256"
						},
						{
							"internalType": "string",
							"name": "code",
							"type": "string"
						},
						{
							"internalType": "string",
							"name": "lecturer",
							"type": "string"
						}
					],
					"stateMutability": "view",
					"type": "function"
				},
				{
					"inputs": [
						{
							"internalType": "uint256",
							"name": "",
							"type": "uint256"
						}
					],
					"name": "courses",
					"outputs": [
						{
							"internalType": "string",
							"name": "title",
							"type": "string"
						},
						{
							"internalType": "uint256",
							"name": "unit",
							"type": "uint256"
						},
						{
							"internalType": "string",
							"name": "code",
							"type": "string"
						},
						{
							"internalType": "string",
							"name": "lecturer",
							"type": "string"
						}
					],
					"stateMutability": "view",
					"type": "function"
				},
				{
					"inputs": [
						{
							"internalType": "string",
							"name": "_title",
							"type": "string"
						},
						{
							"internalType": "string",
							"name": "_code",
							"type": "string"
						},
						{
							"internalType": "uint256",
							"name": "_unit",
							"type": "uint256"
						},
						{
							"internalType": "string",
							"name": "_lecturer",
							"type": "string"
						}
					],
					"name": "createCourse",
					"outputs": [],
					"stateMutability": "nonpayable",
					"type": "function"
				},
				{
					"inputs": [],
					"name": "getCourses",
					"outputs": [
						{
							"components": [
								{
									"internalType": "string",
									"name": "title",
									"type": "string"
								},
								{
									"internalType": "uint256",
									"name": "unit",
									"type": "uint256"
								},
								{
									"internalType": "string",
									"name": "code",
									"type": "string"
								},
								{
									"internalType": "string",
									"name": "lecturer",
									"type": "string"
								}
							],
							"internalType": "struct Courses.Course[]",
							"name": "",
							"type": "tuple[]"
						}
					],
					"stateMutability": "view",
					"type": "function"
				}
			],
			"devdoc": {
				"kind": "dev",
				"methods": {},
				"version": 1
			},
			"evm": {
				"assembly": "    /* \"Courses.sol\":103:881  contract Courses {... */\n  mstore(0x40, 0x80)\n  callvalue\n  dup1\n  iszero\n  tag_1\n  jumpi\n  revert(0x00, 0x00)\ntag_1:\n  pop\n  dataSize(sub_0)\n  dup1\n  dataOffset(sub_0)\n  0x00\n  codecopy\n  0x00\n  return\nstop\n\nsub_0: assembly {\n        /* \"Courses.sol\":103:881  contract Courses {... */\n      mstore(0x40, 0x80)\n      callvalue\n      dup1\n      iszero\n      tag_1\n      jumpi\n      revert(0x00, 0x00)\n    tag_1:\n      pop\n      jumpi(tag_2, lt(calldatasize, 0x04))\n      shr(0xe0, calldataload(0x00))\n      dup1\n      0x904ae8ad\n      eq\n      tag_3\n      jumpi\n      dup1\n      0x96f979d2\n      eq\n      tag_4\n      jumpi\n      dup1\n      0x981d6c33\n      eq\n      tag_5\n      jumpi\n      dup1\n      0xcc126479\n      eq\n      tag_6\n      jumpi\n    tag_2:\n      revert(0x00, 0x00)\n        /* \"Courses.sol\":326:777  function createCourse (... */\n    tag_3:\n      tag_7\n      0x04\n      dup1\n      calldatasize\n      sub\n      dup2\n      add\n      swap1\n      tag_8\n      swap2\n      swap1\n      tag_9\n      jump\t// in\n    tag_8:\n      tag_10\n      jump\t// in\n    tag_7:\n      stop\n        /* \"Courses.sol\":243:266  Course[] public courses */\n    tag_4:\n      tag_11\n      0x04\n      dup1\n      calldatasize\n      sub\n      dup2\n      add\n      swap1\n      tag_12\n      swap2\n      swap1\n      tag_13\n      jump\t// in\n    tag_12:\n      tag_14\n      jump\t// in\n    tag_11:\n      mload(0x40)\n      tag_15\n      swap5\n      swap4\n      swap3\n      swap2\n      swap1\n      tag_16\n      jump\t// in\n    tag_15:\n      mload(0x40)\n      dup1\n      swap2\n      sub\n      swap1\n      return\n        /* \"Courses.sol\":273:318  mapping(string => Course) public codeToCourse */\n    tag_5:\n      tag_17\n      0x04\n      dup1\n      calldatasize\n      sub\n      dup2\n      add\n      swap1\n      tag_18\n      swap2\n      swap1\n      tag_19\n      jump\t// in\n    tag_18:\n      tag_20\n      jump\t// in\n    tag_17:\n      mload(0x40)\n      tag_21\n      swap5\n      swap4\n      swap3\n      swap2\n      swap1\n      tag_16\n      jump\t// in\n    tag_21:\n      mload(0x40)\n      dup1\n      swap2\n      sub\n      swap1\n      return\n        /* \"Courses.sol\":788:879  function getCourses() public view returns (Course[] memory) {... */\n    tag_6:\n      tag_22\n      tag_23\n      jump\t// in\n    tag_22:\n      mload(0x40)\n      tag_24\n      swap2\n      swap1\n      tag_25\n      jump\t// in\n    tag_24:\n      mload(0x40)\n      dup1\n      swap2\n      sub\n      swap1\n      return\n        /* \"Courses.sol\":326:777  function createCourse (... */\n    tag_10:\n        /* \"Courses.sol\":541:564  Course memory newCourse */\n      0x00\n        /* \"Courses.sol\":567:695  Course({... */\n      mload(0x40)\n      dup1\n      0x80\n      add\n      0x40\n      mstore\n      dup1\n        /* \"Courses.sol\":595:601  _title */\n      dup7\n        /* \"Courses.sol\":567:695  Course({... */\n      dup2\n      mstore\n      0x20\n      add\n        /* \"Courses.sol\":621:626  _unit */\n      dup5\n        /* \"Courses.sol\":567:695  Course({... */\n      dup2\n      mstore\n      0x20\n      add\n        /* \"Courses.sol\":646:651  _code */\n      dup6\n        /* \"Courses.sol\":567:695  Course({... */\n      dup2\n      mstore\n      0x20\n      add\n        /* \"Courses.sol\":675:684  _lecturer */\n      dup4\n        /* \"Courses.sol\":567:695  Course({... */\n      dup2\n      mstore\n      pop\n        /* \"Courses.sol\":541:695  Course memory newCourse = Course({... */\n      swap1\n      pop\n        /* \"Courses.sol\":706:713  courses */\n      0x00\n        /* \"Courses.sol\":719:728  newCourse */\n      dup2\n        /* \"Courses.sol\":706:729  courses.push(newCourse) */\n      swap1\n      dup1\n      0x01\n      dup2\n      sload\n      add\n      dup1\n      dup3\n      sstore\n      dup1\n      swap2\n      pop\n      pop\n      0x01\n      swap1\n      sub\n      swap1\n      0x00\n      mstore\n      keccak256(0x00, 0x20)\n      swap1\n      0x04\n      mul\n      add\n      0x00\n      swap1\n      swap2\n      swap1\n      swap2\n      swap1\n      swap2\n      pop\n      0x00\n      dup3\n      add\n      mload\n      dup2\n      0x00\n      add\n      swap1\n      dup2\n      tag_28\n      swap2\n      swap1\n      tag_29\n      jump\t// in\n    tag_28:\n      pop\n      0x20\n      dup3\n      add\n      mload\n      dup2\n      0x01\n      add\n      sstore\n      0x40\n      dup3\n      add\n      mload\n      dup2\n      0x02\n      add\n      swap1\n      dup2\n      tag_30\n      swap2\n      swap1\n      tag_29\n      jump\t// in\n    tag_30:\n      pop\n      0x60\n      dup3\n      add\n      mload\n      dup2\n      0x03\n      add\n      swap1\n      dup2\n      tag_31\n      swap2\n      swap1\n      tag_29\n      jump\t// in\n    tag_31:\n      pop\n      pop\n      pop\n        /* \"Courses.sol\":761:770  newCourse */\n      dup1\n        /* \"Courses.sol\":739:751  codeToCourse */\n      0x01\n        /* \"Courses.sol\":752:757  _code */\n      dup6\n        /* \"Courses.sol\":739:758  codeToCourse[_code] */\n      mload(0x40)\n      tag_32\n      swap2\n      swap1\n      tag_33\n      jump\t// in\n    tag_32:\n      swap1\n      dup2\n      mstore\n      0x20\n      add\n      mload(0x40)\n      dup1\n      swap2\n      sub\n      swap1\n      keccak256\n        /* \"Courses.sol\":739:770  codeToCourse[_code] = newCourse */\n      0x00\n      dup3\n      add\n      mload\n      dup2\n      0x00\n      add\n      swap1\n      dup2\n      tag_34\n      swap2\n      swap1\n      tag_29\n      jump\t// in\n    tag_34:\n      pop\n      0x20\n      dup3\n      add\n      mload\n      dup2\n      0x01\n      add\n      sstore\n      0x40\n      dup3\n      add\n      mload\n      dup2\n      0x02\n      add\n      swap1\n      dup2\n      tag_35\n      swap2\n      swap1\n      tag_29\n      jump\t// in\n    tag_35:\n      pop\n      0x60\n      dup3\n      add\n      mload\n      dup2\n      0x03\n      add\n      swap1\n      dup2\n      tag_36\n      swap2\n      swap1\n      tag_29\n      jump\t// in\n    tag_36:\n      pop\n      swap1\n      pop\n      pop\n        /* \"Courses.sol\":478:777  {... */\n      pop\n        /* \"Courses.sol\":326:777  function createCourse (... */\n      pop\n      pop\n      pop\n      pop\n      jump\t// out\n        /* \"Courses.sol\":243:266  Course[] public courses */\n    tag_14:\n      0x00\n      dup2\n      dup2\n      sload\n      dup2\n      lt\n      tag_37\n      jumpi\n      0x00\n      dup1\n      revert\n    tag_37:\n      swap1\n      0x00\n      mstore\n      keccak256(0x00, 0x20)\n      swap1\n      0x04\n      mul\n      add\n      0x00\n      swap2\n      pop\n      swap1\n      pop\n      dup1\n      0x00\n      add\n      dup1\n      sload\n      tag_39\n      swap1\n      tag_40\n      jump\t// in\n    tag_39:\n      dup1\n      0x1f\n      add\n      0x20\n      dup1\n      swap2\n      div\n      mul\n      0x20\n      add\n      mload(0x40)\n      swap1\n      dup2\n      add\n      0x40\n      mstore\n      dup1\n      swap3\n      swap2\n      swap1\n      dup2\n      dup2\n      mstore\n      0x20\n      add\n      dup3\n      dup1\n      sload\n      tag_41\n      swap1\n      tag_40\n      jump\t// in\n    tag_41:\n      dup1\n      iszero\n      tag_42\n      jumpi\n      dup1\n      0x1f\n      lt\n      tag_43\n      jumpi\n      0x0100\n      dup1\n      dup4\n      sload\n      div\n      mul\n      dup4\n      mstore\n      swap2\n      0x20\n      add\n      swap2\n      jump(tag_42)\n    tag_43:\n      dup3\n      add\n      swap2\n      swap1\n      0x00\n      mstore\n      keccak256(0x00, 0x20)\n      swap1\n    tag_44:\n      dup2\n      sload\n      dup2\n      mstore\n      swap1\n      0x01\n      add\n      swap1\n      0x20\n      add\n      dup1\n      dup4\n      gt\n      tag_44\n      jumpi\n      dup3\n      swap1\n      sub\n      0x1f\n      and\n      dup3\n      add\n      swap2\n    tag_42:\n      pop\n      pop\n      pop\n      pop\n      pop\n      swap1\n      dup1\n      0x01\n      add\n      sload\n      swap1\n      dup1\n      0x02\n      add\n      dup1\n      sload\n      tag_45\n      swap1\n      tag_40\n      jump\t// in\n    tag_45:\n      dup1\n      0x1f\n      add\n      0x20\n      dup1\n      swap2\n      div\n      mul\n      0x20\n      add\n      mload(0x40)\n      swap1\n      dup2\n      add\n      0x40\n      mstore\n      dup1\n      swap3\n      swap2\n      swap1\n      dup2\n      dup2\n      mstore\n      0x20\n      add\n      dup3\n      dup1\n      sload\n      tag_46\n      swap1\n      tag_40\n      jump\t// in\n    tag_46:\n      dup1\n      iszero\n      tag_47\n      jumpi\n      dup1\n      0x1f\n      lt\n      tag_48\n      jumpi\n      0x0100\n      dup1\n      dup4\n      sload\n      div\n      mul\n      dup4\n      mstore\n      swap2\n      0x20\n      add\n      swap2\n      jump(tag_47)\n    tag_48:\n      dup3\n      add\n      swap2\n      swap1\n      0x00\n      mstore\n      keccak256(0x00, 0x20)\n      swap1\n    tag_49:\n      dup2\n      sload\n      dup2\n      mstore\n      swap1\n      0x01\n      add\n      swap1\n      0x20\n      add\n      dup1\n      dup4\n      gt\n      tag_49\n      jumpi\n      dup3\n      swap1\n      sub\n      0x1f\n      and\n      dup3\n      add\n      swap2\n    tag_47:\n      pop\n      pop\n      pop\n      pop\n      pop\n      swap1\n      dup1\n      0x03\n      add\n      dup1\n      sload\n      tag_50\n      swap1\n      tag_40\n      jump\t// in\n    tag_50:\n      dup1\n      0x1f\n      add\n      0x20\n      dup1\n      swap2\n      div\n      mul\n      0x20\n      add\n      mload(0x40)\n      swap1\n      dup2\n      add\n      0x40\n      mstore\n      dup1\n      swap3\n      swap2\n      swap1\n      dup2\n      dup2\n      mstore\n      0x20\n      add\n      dup3\n      dup1\n      sload\n      tag_51\n      swap1\n      tag_40\n      jump\t// in\n    tag_51:\n      dup1\n      iszero\n      tag_52\n      jumpi\n      dup1\n      0x1f\n      lt\n      tag_53\n      jumpi\n      0x0100\n      dup1\n      dup4\n      sload\n      div\n      mul\n      dup4\n      mstore\n      swap2\n      0x20\n      add\n      swap2\n      jump(tag_52)\n    tag_53:\n      dup3\n      add\n      swap2\n      swap1\n      0x00\n      mstore\n      keccak256(0x00, 0x20)\n      swap1\n    tag_54:\n      dup2\n      sload\n      dup2\n      mstore\n      swap1\n      0x01\n      add\n      swap1\n      0x20\n      add\n      dup1\n      dup4\n      gt\n      tag_54\n      jumpi\n      dup3\n      swap1\n      sub\n      0x1f\n      and\n      dup3\n      add\n      swap2\n    tag_52:\n      pop\n      pop\n      pop\n      pop\n      pop\n      swap1\n      pop\n      dup5\n      jump\t// out\n        /* \"Courses.sol\":273:318  mapping(string => Course) public codeToCourse */\n    tag_20:\n      0x01\n      dup2\n      dup1\n      mload\n      0x20\n      dup2\n      add\n      dup3\n      add\n      dup1\n      mload\n      dup5\n      dup3\n      mstore\n      0x20\n      dup4\n      add\n      0x20\n      dup6\n      add\n      keccak256\n      dup2\n      dup4\n      mstore\n      dup1\n      swap6\n      pop\n      pop\n      pop\n      pop\n      pop\n      pop\n      0x00\n      swap2\n      pop\n      swap1\n      pop\n      dup1\n      0x00\n      add\n      dup1\n      sload\n      tag_55\n      swap1\n      tag_40\n      jump\t// in\n    tag_55:\n      dup1\n      0x1f\n      add\n      0x20\n      dup1\n      swap2\n      div\n      mul\n      0x20\n      add\n      mload(0x40)\n      swap1\n      dup2\n      add\n      0x40\n      mstore\n      dup1\n      swap3\n      swap2\n      swap1\n      dup2\n      dup2\n      mstore\n      0x20\n      add\n      dup3\n      dup1\n      sload\n      tag_56\n      swap1\n      tag_40\n      jump\t// in\n    tag_56:\n      dup1\n      iszero\n      tag_57\n      jumpi\n      dup1\n      0x1f\n      lt\n      tag_58\n      jumpi\n      0x0100\n      dup1\n      dup4\n      sload\n      div\n      mul\n      dup4\n      mstore\n      swap2\n      0x20\n      add\n      swap2\n      jump(tag_57)\n    tag_58:\n      dup3\n      add\n      swap2\n      swap1\n      0x00\n      mstore\n      keccak256(0x00, 0x20)\n      swap1\n    tag_59:\n      dup2\n      sload\n      dup2\n      mstore\n      swap1\n      0x01\n      add\n      swap1\n      0x20\n      add\n      dup1\n      dup4\n      gt\n      tag_59\n      jumpi\n      dup3\n      swap1\n      sub\n      0x1f\n      and\n      dup3\n      add\n      swap2\n    tag_57:\n      pop\n      pop\n      pop\n      pop\n      pop\n      swap1\n      dup1\n      0x01\n      add\n      sload\n      swap1\n      dup1\n      0x02\n      add\n      dup1\n      sload\n      tag_60\n      swap1\n      tag_40\n      jump\t// in\n    tag_60:\n      dup1\n      0x1f\n      add\n      0x20\n      dup1\n      swap2\n      div\n      mul\n      0x20\n      add\n      mload(0x40)\n      swap1\n      dup2\n      add\n      0x40\n      mstore\n      dup1\n      swap3\n      swap2\n      swap1\n      dup2\n      dup2\n      mstore\n      0x20\n      add\n      dup3\n      dup1\n      sload\n      tag_61\n      swap1\n      tag_40\n      jump\t// in\n    tag_61:\n      dup1\n      iszero\n      tag_62\n      jumpi\n      dup1\n      0x1f\n      lt\n      tag_63\n      jumpi\n      0x0100\n      dup1\n      dup4\n      sload\n      div\n      mul\n      dup4\n      mstore\n      swap2\n      0x20\n      add\n      swap2\n      jump(tag_62)\n    tag_63:\n      dup3\n      add\n      swap2\n      swap1\n      0x00\n      mstore\n      keccak256(0x00, 0x20)\n      swap1\n    tag_64:\n      dup2\n      sload\n      dup2\n      mstore\n      swap1\n      0x01\n      add\n      swap1\n      0x20\n      add\n      dup1\n      dup4\n      gt\n      tag_64\n      jumpi\n      dup3\n      swap1\n      sub\n      0x1f\n      and\n      dup3\n      add\n      swap2\n    tag_62:\n      pop\n      pop\n      pop\n      pop\n      pop\n      swap1\n      dup1\n      0x03\n      add\n      dup1\n      sload\n      tag_65\n      swap1\n      tag_40\n      jump\t// in\n    tag_65:\n      dup1\n      0x1f\n      add\n      0x20\n      dup1\n      swap2\n      div\n      mul\n      0x20\n      add\n      mload(0x40)\n      swap1\n      dup2\n      add\n      0x40\n      mstore\n      dup1\n      swap3\n      swap2\n      swap1\n      dup2\n      dup2\n      mstore\n      0x20\n      add\n      dup3\n      dup1\n      sload\n      tag_66\n      swap1\n      tag_40\n      jump\t// in\n    tag_66:\n      dup1\n      iszero\n      tag_67\n      jumpi\n      dup1\n      0x1f\n      lt\n      tag_68\n      jumpi\n      0x0100\n      dup1\n      dup4\n      sload\n      div\n      mul\n      dup4\n      mstore\n      swap2\n      0x20\n      add\n      swap2\n      jump(tag_67)\n    tag_68:\n      dup3\n      add\n      swap2\n      swap1\n      0x00\n      mstore\n      keccak256(0x00, 0x20)\n      swap1\n    tag_69:\n      dup2\n      sload\n      dup2\n      mstore\n      swap1\n      0x01\n      add\n      swap1\n      0x20\n      add\n      dup1\n      dup4\n      gt\n      tag_69\n      jumpi\n      dup3\n      swap1\n      sub\n      0x1f\n      and\n      dup3\n      add\n      swap2\n    tag_67:\n      pop\n      pop\n      pop\n      pop\n      pop\n      swap1\n      pop\n      dup5\n      jump\t// out\n        /* \"Courses.sol\":788:879  function getCourses() public view returns (Course[] memory) {... */\n    tag_23:\n        /* \"Courses.sol\":831:846  Course[] memory */\n      0x60\n        /* \"Courses.sol\":865:872  courses */\n      0x00\n        /* \"Courses.sol\":858:872  return courses */\n      dup1\n      sload\n      dup1\n      0x20\n      mul\n      0x20\n      add\n      mload(0x40)\n      swap1\n      dup2\n      add\n      0x40\n      mstore\n      dup1\n      swap3\n      swap2\n      swap1\n      dup2\n      dup2\n      mstore\n      0x20\n      add\n      0x00\n      swap1\n    tag_71:\n      dup3\n      dup3\n      lt\n      iszero\n      tag_72\n      jumpi\n      dup4\n      dup3\n      swap1\n      0x00\n      mstore\n      keccak256(0x00, 0x20)\n      swap1\n      0x04\n      mul\n      add\n      mload(0x40)\n      dup1\n      0x80\n      add\n      0x40\n      mstore\n      swap1\n      dup2\n      0x00\n      dup3\n      add\n      dup1\n      sload\n      tag_74\n      swap1\n      tag_40\n      jump\t// in\n    tag_74:\n      dup1\n      0x1f\n      add\n      0x20\n      dup1\n      swap2\n      div\n      mul\n      0x20\n      add\n      mload(0x40)\n      swap1\n      dup2\n      add\n      0x40\n      mstore\n      dup1\n      swap3\n      swap2\n      swap1\n      dup2\n      dup2\n      mstore\n      0x20\n      add\n      dup3\n      dup1\n      sload\n      tag_75\n      swap1\n      tag_40\n      jump\t// in\n    tag_75:\n      dup1\n      iszero\n      tag_76\n      jumpi\n      dup1\n      0x1f\n      lt\n      tag_77\n      jumpi\n      0x0100\n      dup1\n      dup4\n      sload\n      div\n      mul\n      dup4\n      mstore\n      swap2\n      0x20\n      add\n      swap2\n      jump(tag_76)\n    tag_77:\n      dup3\n      add\n      swap2\n      swap1\n      0x00\n      mstore\n      keccak256(0x00, 0x20)\n      swap1\n    tag_78:\n      dup2\n      sload\n      dup2\n      mstore\n      swap1\n      0x01\n      add\n      swap1\n      0x20\n      add\n      dup1\n      dup4\n      gt\n      tag_78\n      jumpi\n      dup3\n      swap1\n      sub\n      0x1f\n      and\n      dup3\n      add\n      swap2\n    tag_76:\n      pop\n      pop\n      pop\n      pop\n      pop\n      dup2\n      mstore\n      0x20\n      add\n      0x01\n      dup3\n      add\n      sload\n      dup2\n      mstore\n      0x20\n      add\n      0x02\n      dup3\n      add\n      dup1\n      sload\n      tag_79\n      swap1\n      tag_40\n      jump\t// in\n    tag_79:\n      dup1\n      0x1f\n      add\n      0x20\n      dup1\n      swap2\n      div\n      mul\n      0x20\n      add\n      mload(0x40)\n      swap1\n      dup2\n      add\n      0x40\n      mstore\n      dup1\n      swap3\n      swap2\n      swap1\n      dup2\n      dup2\n      mstore\n      0x20\n      add\n      dup3\n      dup1\n      sload\n      tag_80\n      swap1\n      tag_40\n      jump\t// in\n    tag_80:\n      dup1\n      iszero\n      tag_81\n      jumpi\n      dup1\n      0x1f\n      lt\n      tag_82\n      jumpi\n      0x0100\n      dup1\n      dup4\n      sload\n      div\n      mul\n      dup4\n      mstore\n      swap2\n      0x20\n      add\n      swap2\n      jump(tag_81)\n    tag_82:\n      dup3\n      add\n      swap2\n      swap1\n      0x00\n      mstore\n      keccak256(0x00, 0x20)\n      swap1\n    tag_83:\n      dup2\n      sload\n      dup2\n      mstore\n      swap1\n      0x01\n      add\n      swap1\n      0x20\n      add\n      dup1\n      dup4\n      gt\n      tag_83\n      jumpi\n      dup3\n      swap1\n      sub\n      0x1f\n      and\n      dup3\n      add\n      swap2\n    tag_81:\n      pop\n      pop\n      pop\n      pop\n      pop\n      dup2\n      mstore\n      0x20\n      add\n      0x03\n      dup3\n      add\n      dup1\n      sload\n      tag_84\n      swap1\n      tag_40\n      jump\t// in\n    tag_84:\n      dup1\n      0x1f\n      add\n      0x20\n      dup1\n      swap2\n      div\n      mul\n      0x20\n      add\n      mload(0x40)\n      swap1\n      dup2\n      add\n      0x40\n      mstore\n      dup1\n      swap3\n      swap2\n      swap1\n      dup2\n      dup2\n      mstore\n      0x20\n      add\n      dup3\n      dup1\n      sload\n      tag_85\n      swap1\n      tag_40\n      jump\t// in\n    tag_85:\n      dup1\n      iszero\n      tag_86\n      jumpi\n      dup1\n      0x1f\n      lt\n      tag_87\n      jumpi\n      0x0100\n      dup1\n      dup4\n      sload\n      div\n      mul\n      dup4\n      mstore\n      swap2\n      0x20\n      add\n      swap2\n      jump(tag_86)\n    tag_87:\n      dup3\n      add\n      swap2\n      swap1\n      0x00\n      mstore\n      keccak256(0x00, 0x20)\n      swap1\n    tag_88:\n      dup2\n      sload\n      dup2\n      mstore\n      swap1\n      0x01\n      add\n      swap1\n      0x20\n      add\n      dup1\n      dup4\n      gt\n      tag_88\n      jumpi\n      dup3\n      swap1\n      sub\n      0x1f\n      and\n      dup3\n      add\n      swap2\n    tag_86:\n      pop\n      pop\n      pop\n      pop\n      pop\n      dup2\n      mstore\n      pop\n      pop\n      dup2\n      mstore\n      0x20\n      add\n      swap1\n      0x01\n      add\n      swap1\n      jump(tag_71)\n    tag_72:\n      pop\n      pop\n      pop\n      pop\n      swap1\n      pop\n        /* \"Courses.sol\":788:879  function getCourses() public view returns (Course[] memory) {... */\n      swap1\n      jump\t// out\n        /* \"#utility.yul\":7:82   */\n    tag_89:\n        /* \"#utility.yul\":40:46   */\n      0x00\n        /* \"#utility.yul\":73:75   */\n      0x40\n        /* \"#utility.yul\":67:76   */\n      mload\n        /* \"#utility.yul\":57:76   */\n      swap1\n      pop\n        /* \"#utility.yul\":7:82   */\n      swap1\n      jump\t// out\n        /* \"#utility.yul\":88:205   */\n    tag_90:\n        /* \"#utility.yul\":197:198   */\n      0x00\n        /* \"#utility.yul\":194:195   */\n      0x00\n        /* \"#utility.yul\":187:199   */\n      revert\n        /* \"#utility.yul\":211:328   */\n    tag_91:\n        /* \"#utility.yul\":320:321   */\n      0x00\n        /* \"#utility.yul\":317:318   */\n      0x00\n        /* \"#utility.yul\":310:322   */\n      revert\n        /* \"#utility.yul\":334:451   */\n    tag_92:\n        /* \"#utility.yul\":443:444   */\n      0x00\n        /* \"#utility.yul\":440:441   */\n      0x00\n        /* \"#utility.yul\":433:445   */\n      revert\n        /* \"#utility.yul\":457:574   */\n    tag_93:\n        /* \"#utility.yul\":566:567   */\n      0x00\n        /* \"#utility.yul\":563:564   */\n      0x00\n        /* \"#utility.yul\":556:568   */\n      revert\n        /* \"#utility.yul\":580:682   */\n    tag_94:\n        /* \"#utility.yul\":621:627   */\n      0x00\n        /* \"#utility.yul\":672:674   */\n      0x1f\n        /* \"#utility.yul\":668:675   */\n      not\n        /* \"#utility.yul\":663:665   */\n      0x1f\n        /* \"#utility.yul\":656:661   */\n      dup4\n        /* \"#utility.yul\":652:666   */\n      add\n        /* \"#utility.yul\":648:676   */\n      and\n        /* \"#utility.yul\":638:676   */\n      swap1\n      pop\n        /* \"#utility.yul\":580:682   */\n      swap2\n      swap1\n      pop\n      jump\t// out\n        /* \"#utility.yul\":688:868   */\n    tag_95:\n        /* \"#utility.yul\":736:813   */\n      0x4e487b7100000000000000000000000000000000000000000000000000000000\n        /* \"#utility.yul\":733:734   */\n      0x00\n        /* \"#utility.yul\":726:814   */\n      mstore\n        /* \"#utility.yul\":833:837   */\n      0x41\n        /* \"#utility.yul\":830:831   */\n      0x04\n        /* \"#utility.yul\":823:838   */\n      mstore\n        /* \"#utility.yul\":857:861   */\n      0x24\n        /* \"#utility.yul\":854:855   */\n      0x00\n        /* \"#utility.yul\":847:862   */\n      revert\n        /* \"#utility.yul\":874:1155   */\n    tag_96:\n        /* \"#utility.yul\":957:984   */\n      tag_147\n        /* \"#utility.yul\":979:983   */\n      dup3\n        /* \"#utility.yul\":957:984   */\n      tag_94\n      jump\t// in\n    tag_147:\n        /* \"#utility.yul\":949:955   */\n      dup2\n        /* \"#utility.yul\":945:985   */\n      add\n        /* \"#utility.yul\":1087:1093   */\n      dup2\n        /* \"#utility.yul\":1075:1085   */\n      dup2\n        /* \"#utility.yul\":1072:1094   */\n      lt\n        /* \"#utility.yul\":1051:1069   */\n      0xffffffffffffffff\n        /* \"#utility.yul\":1039:1049   */\n      dup3\n        /* \"#utility.yul\":1036:1070   */\n      gt\n        /* \"#utility.yul\":1033:1095   */\n      or\n        /* \"#utility.yul\":1030:1118   */\n      iszero\n      tag_148\n      jumpi\n        /* \"#utility.yul\":1098:1116   */\n      tag_149\n      tag_95\n      jump\t// in\n    tag_149:\n        /* \"#utility.yul\":1030:1118   */\n    tag_148:\n        /* \"#utility.yul\":1138:1148   */\n      dup1\n        /* \"#utility.yul\":1134:1136   */\n      0x40\n        /* \"#utility.yul\":1127:1149   */\n      mstore\n        /* \"#utility.yul\":917:1155   */\n      pop\n        /* \"#utility.yul\":874:1155   */\n      pop\n      pop\n      jump\t// out\n        /* \"#utility.yul\":1161:1290   */\n    tag_97:\n        /* \"#utility.yul\":1195:1201   */\n      0x00\n        /* \"#utility.yul\":1222:1242   */\n      tag_151\n      tag_89\n      jump\t// in\n    tag_151:\n        /* \"#utility.yul\":1212:1242   */\n      swap1\n      pop\n        /* \"#utility.yul\":1251:1284   */\n      tag_152\n        /* \"#utility.yul\":1279:1283   */\n      dup3\n        /* \"#utility.yul\":1271:1277   */\n      dup3\n        /* \"#utility.yul\":1251:1284   */\n      tag_96\n      jump\t// in\n    tag_152:\n        /* \"#utility.yul\":1161:1290   */\n      swap2\n      swap1\n      pop\n      jump\t// out\n        /* \"#utility.yul\":1296:1604   */\n    tag_98:\n        /* \"#utility.yul\":1358:1362   */\n      0x00\n        /* \"#utility.yul\":1448:1466   */\n      0xffffffffffffffff\n        /* \"#utility.yul\":1440:1446   */\n      dup3\n        /* \"#utility.yul\":1437:1467   */\n      gt\n        /* \"#utility.yul\":1434:1490   */\n      iszero\n      tag_154\n      jumpi\n        /* \"#utility.yul\":1470:1488   */\n      tag_155\n      tag_95\n      jump\t// in\n    tag_155:\n        /* \"#utility.yul\":1434:1490   */\n    tag_154:\n        /* \"#utility.yul\":1508:1537   */\n      tag_156\n        /* \"#utility.yul\":1530:1536   */\n      dup3\n        /* \"#utility.yul\":1508:1537   */\n      tag_94\n      jump\t// in\n    tag_156:\n        /* \"#utility.yul\":1500:1537   */\n      swap1\n      pop\n        /* \"#utility.yul\":1592:1596   */\n      0x20\n        /* \"#utility.yul\":1586:1590   */\n      dup2\n        /* \"#utility.yul\":1582:1597   */\n      add\n        /* \"#utility.yul\":1574:1597   */\n      swap1\n      pop\n        /* \"#utility.yul\":1296:1604   */\n      swap2\n      swap1\n      pop\n      jump\t// out\n        /* \"#utility.yul\":1610:1758   */\n    tag_99:\n        /* \"#utility.yul\":1708:1714   */\n      dup3\n        /* \"#utility.yul\":1703:1706   */\n      dup2\n        /* \"#utility.yul\":1698:1701   */\n      dup4\n        /* \"#utility.yul\":1685:1715   */\n      calldatacopy\n        /* \"#utility.yul\":1749:1750   */\n      0x00\n        /* \"#utility.yul\":1740:1746   */\n      dup4\n        /* \"#utility.yul\":1735:1738   */\n      dup4\n        /* \"#utility.yul\":1731:1747   */\n      add\n        /* \"#utility.yul\":1724:1751   */\n      mstore\n        /* \"#utility.yul\":1610:1758   */\n      pop\n      pop\n      pop\n      jump\t// out\n        /* \"#utility.yul\":1764:2189   */\n    tag_100:\n        /* \"#utility.yul\":1842:1847   */\n      0x00\n        /* \"#utility.yul\":1867:1933   */\n      tag_159\n        /* \"#utility.yul\":1883:1932   */\n      tag_160\n        /* \"#utility.yul\":1925:1931   */\n      dup5\n        /* \"#utility.yul\":1883:1932   */\n      tag_98\n      jump\t// in\n    tag_160:\n        /* \"#utility.yul\":1867:1933   */\n      tag_97\n      jump\t// in\n    tag_159:\n        /* \"#utility.yul\":1858:1933   */\n      swap1\n      pop\n        /* \"#utility.yul\":1956:1962   */\n      dup3\n        /* \"#utility.yul\":1949:1954   */\n      dup2\n        /* \"#utility.yul\":1942:1963   */\n      mstore\n        /* \"#utility.yul\":1994:1998   */\n      0x20\n        /* \"#utility.yul\":1987:1992   */\n      dup2\n        /* \"#utility.yul\":1983:1999   */\n      add\n        /* \"#utility.yul\":2032:2035   */\n      dup5\n        /* \"#utility.yul\":2023:2029   */\n      dup5\n        /* \"#utility.yul\":2018:2021   */\n      dup5\n        /* \"#utility.yul\":2014:2030   */\n      add\n        /* \"#utility.yul\":2011:2036   */\n      gt\n        /* \"#utility.yul\":2008:2120   */\n      iszero\n      tag_161\n      jumpi\n        /* \"#utility.yul\":2039:2118   */\n      tag_162\n      tag_93\n      jump\t// in\n    tag_162:\n        /* \"#utility.yul\":2008:2120   */\n    tag_161:\n        /* \"#utility.yul\":2129:2183   */\n      tag_163\n        /* \"#utility.yul\":2176:2182   */\n      dup5\n        /* \"#utility.yul\":2171:2174   */\n      dup3\n        /* \"#utility.yul\":2166:2169   */\n      dup6\n        /* \"#utility.yul\":2129:2183   */\n      tag_99\n      jump\t// in\n    tag_163:\n        /* \"#utility.yul\":1848:2189   */\n      pop\n        /* \"#utility.yul\":1764:2189   */\n      swap4\n      swap3\n      pop\n      pop\n      pop\n      jump\t// out\n        /* \"#utility.yul\":2209:2549   */\n    tag_101:\n        /* \"#utility.yul\":2265:2270   */\n      0x00\n        /* \"#utility.yul\":2314:2317   */\n      dup3\n        /* \"#utility.yul\":2307:2311   */\n      0x1f\n        /* \"#utility.yul\":2299:2305   */\n      dup4\n        /* \"#utility.yul\":2295:2312   */\n      add\n        /* \"#utility.yul\":2291:2318   */\n      slt\n        /* \"#utility.yul\":2281:2403   */\n      tag_165\n      jumpi\n        /* \"#utility.yul\":2322:2401   */\n      tag_166\n      tag_92\n      jump\t// in\n    tag_166:\n        /* \"#utility.yul\":2281:2403   */\n    tag_165:\n        /* \"#utility.yul\":2439:2445   */\n      dup2\n        /* \"#utility.yul\":2426:2446   */\n      calldataload\n        /* \"#utility.yul\":2464:2543   */\n      tag_167\n        /* \"#utility.yul\":2539:2542   */\n      dup5\n        /* \"#utility.yul\":2531:2537   */\n      dup3\n        /* \"#utility.yul\":2524:2528   */\n      0x20\n        /* \"#utility.yul\":2516:2522   */\n      dup7\n        /* \"#utility.yul\":2512:2529   */\n      add\n        /* \"#utility.yul\":2464:2543   */\n      tag_100\n      jump\t// in\n    tag_167:\n        /* \"#utility.yul\":2455:2543   */\n      swap2\n      pop\n        /* \"#utility.yul\":2271:2549   */\n      pop\n        /* \"#utility.yul\":2209:2549   */\n      swap3\n      swap2\n      pop\n      pop\n      jump\t// out\n        /* \"#utility.yul\":2555:2632   */\n    tag_102:\n        /* \"#utility.yul\":2592:2599   */\n      0x00\n        /* \"#utility.yul\":2621:2626   */\n      dup2\n        /* \"#utility.yul\":2610:2626   */\n      swap1\n      pop\n        /* \"#utility.yul\":2555:2632   */\n      swap2\n      swap1\n      pop\n      jump\t// out\n        /* \"#utility.yul\":2638:2760   */\n    tag_103:\n        /* \"#utility.yul\":2711:2735   */\n      tag_170\n        /* \"#utility.yul\":2729:2734   */\n      dup2\n        /* \"#utility.yul\":2711:2735   */\n      tag_102\n      jump\t// in\n    tag_170:\n        /* \"#utility.yul\":2704:2709   */\n      dup2\n        /* \"#utility.yul\":2701:2736   */\n      eq\n        /* \"#utility.yul\":2691:2754   */\n      tag_171\n      jumpi\n        /* \"#utility.yul\":2750:2751   */\n      0x00\n        /* \"#utility.yul\":2747:2748   */\n      0x00\n        /* \"#utility.yul\":2740:2752   */\n      revert\n        /* \"#utility.yul\":2691:2754   */\n    tag_171:\n        /* \"#utility.yul\":2638:2760   */\n      pop\n      jump\t// out\n        /* \"#utility.yul\":2766:2905   */\n    tag_104:\n        /* \"#utility.yul\":2812:2817   */\n      0x00\n        /* \"#utility.yul\":2850:2856   */\n      dup2\n        /* \"#utility.yul\":2837:2857   */\n      calldataload\n        /* \"#utility.yul\":2828:2857   */\n      swap1\n      pop\n        /* \"#utility.yul\":2866:2899   */\n      tag_173\n        /* \"#utility.yul\":2893:2898   */\n      dup2\n        /* \"#utility.yul\":2866:2899   */\n      tag_103\n      jump\t// in\n    tag_173:\n        /* \"#utility.yul\":2766:2905   */\n      swap3\n      swap2\n      pop\n      pop\n      jump\t// out\n        /* \"#utility.yul\":2911:4216   */\n    tag_9:\n        /* \"#utility.yul\":3027:3033   */\n      0x00\n        /* \"#utility.yul\":3035:3041   */\n      0x00\n        /* \"#utility.yul\":3043:3049   */\n      0x00\n        /* \"#utility.yul\":3051:3057   */\n      0x00\n        /* \"#utility.yul\":3100:3103   */\n      0x80\n        /* \"#utility.yul\":3088:3097   */\n      dup6\n        /* \"#utility.yul\":3079:3086   */\n      dup8\n        /* \"#utility.yul\":3075:3098   */\n      sub\n        /* \"#utility.yul\":3071:3104   */\n      slt\n        /* \"#utility.yul\":3068:3188   */\n      iszero\n      tag_175\n      jumpi\n        /* \"#utility.yul\":3107:3186   */\n      tag_176\n      tag_90\n      jump\t// in\n    tag_176:\n        /* \"#utility.yul\":3068:3188   */\n    tag_175:\n        /* \"#utility.yul\":3255:3256   */\n      0x00\n        /* \"#utility.yul\":3244:3253   */\n      dup6\n        /* \"#utility.yul\":3240:3257   */\n      add\n        /* \"#utility.yul\":3227:3258   */\n      calldataload\n        /* \"#utility.yul\":3285:3303   */\n      0xffffffffffffffff\n        /* \"#utility.yul\":3277:3283   */\n      dup2\n        /* \"#utility.yul\":3274:3304   */\n      gt\n        /* \"#utility.yul\":3271:3388   */\n      iszero\n      tag_177\n      jumpi\n        /* \"#utility.yul\":3307:3386   */\n      tag_178\n      tag_91\n      jump\t// in\n    tag_178:\n        /* \"#utility.yul\":3271:3388   */\n    tag_177:\n        /* \"#utility.yul\":3412:3475   */\n      tag_179\n        /* \"#utility.yul\":3467:3474   */\n      dup8\n        /* \"#utility.yul\":3458:3464   */\n      dup3\n        /* \"#utility.yul\":3447:3456   */\n      dup9\n        /* \"#utility.yul\":3443:3465   */\n      add\n        /* \"#utility.yul\":3412:3475   */\n      tag_101\n      jump\t// in\n    tag_179:\n        /* \"#utility.yul\":3402:3475   */\n      swap5\n      pop\n        /* \"#utility.yul\":3198:3485   */\n      pop\n        /* \"#utility.yul\":3552:3554   */\n      0x20\n        /* \"#utility.yul\":3541:3550   */\n      dup6\n        /* \"#utility.yul\":3537:3555   */\n      add\n        /* \"#utility.yul\":3524:3556   */\n      calldataload\n        /* \"#utility.yul\":3583:3601   */\n      0xffffffffffffffff\n        /* \"#utility.yul\":3575:3581   */\n      dup2\n        /* \"#utility.yul\":3572:3602   */\n      gt\n        /* \"#utility.yul\":3569:3686   */\n      iszero\n      tag_180\n      jumpi\n        /* \"#utility.yul\":3605:3684   */\n      tag_181\n      tag_91\n      jump\t// in\n    tag_181:\n        /* \"#utility.yul\":3569:3686   */\n    tag_180:\n        /* \"#utility.yul\":3710:3773   */\n      tag_182\n        /* \"#utility.yul\":3765:3772   */\n      dup8\n        /* \"#utility.yul\":3756:3762   */\n      dup3\n        /* \"#utility.yul\":3745:3754   */\n      dup9\n        /* \"#utility.yul\":3741:3763   */\n      add\n        /* \"#utility.yul\":3710:3773   */\n      tag_101\n      jump\t// in\n    tag_182:\n        /* \"#utility.yul\":3700:3773   */\n      swap4\n      pop\n        /* \"#utility.yul\":3495:3783   */\n      pop\n        /* \"#utility.yul\":3822:3824   */\n      0x40\n        /* \"#utility.yul\":3848:3901   */\n      tag_183\n        /* \"#utility.yul\":3893:3900   */\n      dup8\n        /* \"#utility.yul\":3884:3890   */\n      dup3\n        /* \"#utility.yul\":3873:3882   */\n      dup9\n        /* \"#utility.yul\":3869:3891   */\n      add\n        /* \"#utility.yul\":3848:3901   */\n      tag_104\n      jump\t// in\n    tag_183:\n        /* \"#utility.yul\":3838:3901   */\n      swap3\n      pop\n        /* \"#utility.yul\":3793:3911   */\n      pop\n        /* \"#utility.yul\":3978:3980   */\n      0x60\n        /* \"#utility.yul\":3967:3976   */\n      dup6\n        /* \"#utility.yul\":3963:3981   */\n      add\n        /* \"#utility.yul\":3950:3982   */\n      calldataload\n        /* \"#utility.yul\":4009:4027   */\n      0xffffffffffffffff\n        /* \"#utility.yul\":4001:4007   */\n      dup2\n        /* \"#utility.yul\":3998:4028   */\n      gt\n        /* \"#utility.yul\":3995:4112   */\n      iszero\n      tag_184\n      jumpi\n        /* \"#utility.yul\":4031:4110   */\n      tag_185\n      tag_91\n      jump\t// in\n    tag_185:\n        /* \"#utility.yul\":3995:4112   */\n    tag_184:\n        /* \"#utility.yul\":4136:4199   */\n      tag_186\n        /* \"#utility.yul\":4191:4198   */\n      dup8\n        /* \"#utility.yul\":4182:4188   */\n      dup3\n        /* \"#utility.yul\":4171:4180   */\n      dup9\n        /* \"#utility.yul\":4167:4189   */\n      add\n        /* \"#utility.yul\":4136:4199   */\n      tag_101\n      jump\t// in\n    tag_186:\n        /* \"#utility.yul\":4126:4199   */\n      swap2\n      pop\n        /* \"#utility.yul\":3921:4209   */\n      pop\n        /* \"#utility.yul\":2911:4216   */\n      swap3\n      swap6\n      swap2\n      swap5\n      pop\n      swap3\n      pop\n      jump\t// out\n        /* \"#utility.yul\":4222:4551   */\n    tag_13:\n        /* \"#utility.yul\":4281:4287   */\n      0x00\n        /* \"#utility.yul\":4330:4332   */\n      0x20\n        /* \"#utility.yul\":4318:4327   */\n      dup3\n        /* \"#utility.yul\":4309:4316   */\n      dup5\n        /* \"#utility.yul\":4305:4328   */\n      sub\n        /* \"#utility.yul\":4301:4333   */\n      slt\n        /* \"#utility.yul\":4298:4417   */\n      iszero\n      tag_188\n      jumpi\n        /* \"#utility.yul\":4336:4415   */\n      tag_189\n      tag_90\n      jump\t// in\n    tag_189:\n        /* \"#utility.yul\":4298:4417   */\n    tag_188:\n        /* \"#utility.yul\":4456:4457   */\n      0x00\n        /* \"#utility.yul\":4481:4534   */\n      tag_190\n        /* \"#utility.yul\":4526:4533   */\n      dup5\n        /* \"#utility.yul\":4517:4523   */\n      dup3\n        /* \"#utility.yul\":4506:4515   */\n      dup6\n        /* \"#utility.yul\":4502:4524   */\n      add\n        /* \"#utility.yul\":4481:4534   */\n      tag_104\n      jump\t// in\n    tag_190:\n        /* \"#utility.yul\":4471:4534   */\n      swap2\n      pop\n        /* \"#utility.yul\":4427:4544   */\n      pop\n        /* \"#utility.yul\":4222:4551   */\n      swap3\n      swap2\n      pop\n      pop\n      jump\t// out\n        /* \"#utility.yul\":4557:4656   */\n    tag_105:\n        /* \"#utility.yul\":4609:4615   */\n      0x00\n        /* \"#utility.yul\":4643:4648   */\n      dup2\n        /* \"#utility.yul\":4637:4649   */\n      mload\n        /* \"#utility.yul\":4627:4649   */\n      swap1\n      pop\n        /* \"#utility.yul\":4557:4656   */\n      swap2\n      swap1\n      pop\n      jump\t// out\n        /* \"#utility.yul\":4662:4831   */\n    tag_106:\n        /* \"#utility.yul\":4746:4757   */\n      0x00\n        /* \"#utility.yul\":4780:4786   */\n      dup3\n        /* \"#utility.yul\":4775:4778   */\n      dup3\n        /* \"#utility.yul\":4768:4787   */\n      mstore\n        /* \"#utility.yul\":4820:4824   */\n      0x20\n        /* \"#utility.yul\":4815:4818   */\n      dup3\n        /* \"#utility.yul\":4811:4825   */\n      add\n        /* \"#utility.yul\":4796:4825   */\n      swap1\n      pop\n        /* \"#utility.yul\":4662:4831   */\n      swap3\n      swap2\n      pop\n      pop\n      jump\t// out\n        /* \"#utility.yul\":4837:4976   */\n    tag_107:\n        /* \"#utility.yul\":4926:4932   */\n      dup3\n        /* \"#utility.yul\":4921:4924   */\n      dup2\n        /* \"#utility.yul\":4916:4919   */\n      dup4\n        /* \"#utility.yul\":4910:4933   */\n      mcopy\n        /* \"#utility.yul\":4967:4968   */\n      0x00\n        /* \"#utility.yul\":4958:4964   */\n      dup4\n        /* \"#utility.yul\":4953:4956   */\n      dup4\n        /* \"#utility.yul\":4949:4965   */\n      add\n        /* \"#utility.yul\":4942:4969   */\n      mstore\n        /* \"#utility.yul\":4837:4976   */\n      pop\n      pop\n      pop\n      jump\t// out\n        /* \"#utility.yul\":4982:5359   */\n    tag_108:\n        /* \"#utility.yul\":5070:5073   */\n      0x00\n        /* \"#utility.yul\":5098:5137   */\n      tag_195\n        /* \"#utility.yul\":5131:5136   */\n      dup3\n        /* \"#utility.yul\":5098:5137   */\n      tag_105\n      jump\t// in\n    tag_195:\n        /* \"#utility.yul\":5153:5224   */\n      tag_196\n        /* \"#utility.yul\":5217:5223   */\n      dup2\n        /* \"#utility.yul\":5212:5215   */\n      dup6\n        /* \"#utility.yul\":5153:5224   */\n      tag_106\n      jump\t// in\n    tag_196:\n        /* \"#utility.yul\":5146:5224   */\n      swap4\n      pop\n        /* \"#utility.yul\":5233:5298   */\n      tag_197\n        /* \"#utility.yul\":5291:5297   */\n      dup2\n        /* \"#utility.yul\":5286:5289   */\n      dup6\n        /* \"#utility.yul\":5279:5283   */\n      0x20\n        /* \"#utility.yul\":5272:5277   */\n      dup7\n        /* \"#utility.yul\":5268:5284   */\n      add\n        /* \"#utility.yul\":5233:5298   */\n      tag_107\n      jump\t// in\n    tag_197:\n        /* \"#utility.yul\":5323:5352   */\n      tag_198\n        /* \"#utility.yul\":5345:5351   */\n      dup2\n        /* \"#utility.yul\":5323:5352   */\n      tag_94\n      jump\t// in\n    tag_198:\n        /* \"#utility.yul\":5318:5321   */\n      dup5\n        /* \"#utility.yul\":5314:5353   */\n      add\n        /* \"#utility.yul\":5307:5353   */\n      swap2\n      pop\n        /* \"#utility.yul\":5074:5359   */\n      pop\n        /* \"#utility.yul\":4982:5359   */\n      swap3\n      swap2\n      pop\n      pop\n      jump\t// out\n        /* \"#utility.yul\":5365:5483   */\n    tag_109:\n        /* \"#utility.yul\":5452:5476   */\n      tag_200\n        /* \"#utility.yul\":5470:5475   */\n      dup2\n        /* \"#utility.yul\":5452:5476   */\n      tag_102\n      jump\t// in\n    tag_200:\n        /* \"#utility.yul\":5447:5450   */\n      dup3\n        /* \"#utility.yul\":5440:5477   */\n      mstore\n        /* \"#utility.yul\":5365:5483   */\n      pop\n      pop\n      jump\t// out\n        /* \"#utility.yul\":5489:6315   */\n    tag_16:\n        /* \"#utility.yul\":5726:5730   */\n      0x00\n        /* \"#utility.yul\":5764:5767   */\n      0x80\n        /* \"#utility.yul\":5753:5762   */\n      dup3\n        /* \"#utility.yul\":5749:5768   */\n      add\n        /* \"#utility.yul\":5741:5768   */\n      swap1\n      pop\n        /* \"#utility.yul\":5814:5823   */\n      dup2\n        /* \"#utility.yul\":5808:5812   */\n      dup2\n        /* \"#utility.yul\":5804:5824   */\n      sub\n        /* \"#utility.yul\":5800:5801   */\n      0x00\n        /* \"#utility.yul\":5789:5798   */\n      dup4\n        /* \"#utility.yul\":5785:5802   */\n      add\n        /* \"#utility.yul\":5778:5825   */\n      mstore\n        /* \"#utility.yul\":5842:5920   */\n      tag_202\n        /* \"#utility.yul\":5915:5919   */\n      dup2\n        /* \"#utility.yul\":5906:5912   */\n      dup8\n        /* \"#utility.yul\":5842:5920   */\n      tag_108\n      jump\t// in\n    tag_202:\n        /* \"#utility.yul\":5834:5920   */\n      swap1\n      pop\n        /* \"#utility.yul\":5930:6002   */\n      tag_203\n        /* \"#utility.yul\":5998:6000   */\n      0x20\n        /* \"#utility.yul\":5987:5996   */\n      dup4\n        /* \"#utility.yul\":5983:6001   */\n      add\n        /* \"#utility.yul\":5974:5980   */\n      dup7\n        /* \"#utility.yul\":5930:6002   */\n      tag_109\n      jump\t// in\n    tag_203:\n        /* \"#utility.yul\":6049:6058   */\n      dup2\n        /* \"#utility.yul\":6043:6047   */\n      dup2\n        /* \"#utility.yul\":6039:6059   */\n      sub\n        /* \"#utility.yul\":6034:6036   */\n      0x40\n        /* \"#utility.yul\":6023:6032   */\n      dup4\n        /* \"#utility.yul\":6019:6037   */\n      add\n        /* \"#utility.yul\":6012:6060   */\n      mstore\n        /* \"#utility.yul\":6077:6155   */\n      tag_204\n        /* \"#utility.yul\":6150:6154   */\n      dup2\n        /* \"#utility.yul\":6141:6147   */\n      dup6\n        /* \"#utility.yul\":6077:6155   */\n      tag_108\n      jump\t// in\n    tag_204:\n        /* \"#utility.yul\":6069:6155   */\n      swap1\n      pop\n        /* \"#utility.yul\":6202:6211   */\n      dup2\n        /* \"#utility.yul\":6196:6200   */\n      dup2\n        /* \"#utility.yul\":6192:6212   */\n      sub\n        /* \"#utility.yul\":6187:6189   */\n      0x60\n        /* \"#utility.yul\":6176:6185   */\n      dup4\n        /* \"#utility.yul\":6172:6190   */\n      add\n        /* \"#utility.yul\":6165:6213   */\n      mstore\n        /* \"#utility.yul\":6230:6308   */\n      tag_205\n        /* \"#utility.yul\":6303:6307   */\n      dup2\n        /* \"#utility.yul\":6294:6300   */\n      dup5\n        /* \"#utility.yul\":6230:6308   */\n      tag_108\n      jump\t// in\n    tag_205:\n        /* \"#utility.yul\":6222:6308   */\n      swap1\n      pop\n        /* \"#utility.yul\":5489:6315   */\n      swap6\n      swap5\n      pop\n      pop\n      pop\n      pop\n      pop\n      jump\t// out\n        /* \"#utility.yul\":6321:6830   */\n    tag_19:\n        /* \"#utility.yul\":6390:6396   */\n      0x00\n        /* \"#utility.yul\":6439:6441   */\n      0x20\n        /* \"#utility.yul\":6427:6436   */\n      dup3\n        /* \"#utility.yul\":6418:6425   */\n      dup5\n        /* \"#utility.yul\":6414:6437   */\n      sub\n        /* \"#utility.yul\":6410:6442   */\n      slt\n        /* \"#utility.yul\":6407:6526   */\n      iszero\n      tag_207\n      jumpi\n        /* \"#utility.yul\":6445:6524   */\n      tag_208\n      tag_90\n      jump\t// in\n    tag_208:\n        /* \"#utility.yul\":6407:6526   */\n    tag_207:\n        /* \"#utility.yul\":6593:6594   */\n      0x00\n        /* \"#utility.yul\":6582:6591   */\n      dup3\n        /* \"#utility.yul\":6578:6595   */\n      add\n        /* \"#utility.yul\":6565:6596   */\n      calldataload\n        /* \"#utility.yul\":6623:6641   */\n      0xffffffffffffffff\n        /* \"#utility.yul\":6615:6621   */\n      dup2\n        /* \"#utility.yul\":6612:6642   */\n      gt\n        /* \"#utility.yul\":6609:6726   */\n      iszero\n      tag_209\n      jumpi\n        /* \"#utility.yul\":6645:6724   */\n      tag_210\n      tag_91\n      jump\t// in\n    tag_210:\n        /* \"#utility.yul\":6609:6726   */\n    tag_209:\n        /* \"#utility.yul\":6750:6813   */\n      tag_211\n        /* \"#utility.yul\":6805:6812   */\n      dup5\n        /* \"#utility.yul\":6796:6802   */\n      dup3\n        /* \"#utility.yul\":6785:6794   */\n      dup6\n        /* \"#utility.yul\":6781:6803   */\n      add\n        /* \"#utility.yul\":6750:6813   */\n      tag_101\n      jump\t// in\n    tag_211:\n        /* \"#utility.yul\":6740:6813   */\n      swap2\n      pop\n        /* \"#utility.yul\":6536:6823   */\n      pop\n        /* \"#utility.yul\":6321:6830   */\n      swap3\n      swap2\n      pop\n      pop\n      jump\t// out\n        /* \"#utility.yul\":6836:6972   */\n    tag_110:\n        /* \"#utility.yul\":6925:6931   */\n      0x00\n        /* \"#utility.yul\":6959:6964   */\n      dup2\n        /* \"#utility.yul\":6953:6965   */\n      mload\n        /* \"#utility.yul\":6943:6965   */\n      swap1\n      pop\n        /* \"#utility.yul\":6836:6972   */\n      swap2\n      swap1\n      pop\n      jump\t// out\n        /* \"#utility.yul\":6978:7184   */\n    tag_111:\n        /* \"#utility.yul\":7099:7110   */\n      0x00\n        /* \"#utility.yul\":7133:7139   */\n      dup3\n        /* \"#utility.yul\":7128:7131   */\n      dup3\n        /* \"#utility.yul\":7121:7140   */\n      mstore\n        /* \"#utility.yul\":7173:7177   */\n      0x20\n        /* \"#utility.yul\":7168:7171   */\n      dup3\n        /* \"#utility.yul\":7164:7178   */\n      add\n        /* \"#utility.yul\":7149:7178   */\n      swap1\n      pop\n        /* \"#utility.yul\":6978:7184   */\n      swap3\n      swap2\n      pop\n      pop\n      jump\t// out\n        /* \"#utility.yul\":7190:7344   */\n    tag_112:\n        /* \"#utility.yul\":7279:7283   */\n      0x00\n        /* \"#utility.yul\":7302:7305   */\n      dup2\n        /* \"#utility.yul\":7294:7305   */\n      swap1\n      pop\n        /* \"#utility.yul\":7332:7336   */\n      0x20\n        /* \"#utility.yul\":7327:7330   */\n      dup3\n        /* \"#utility.yul\":7323:7337   */\n      add\n        /* \"#utility.yul\":7315:7337   */\n      swap1\n      pop\n        /* \"#utility.yul\":7190:7344   */\n      swap2\n      swap1\n      pop\n      jump\t// out\n        /* \"#utility.yul\":7350:7509   */\n    tag_113:\n        /* \"#utility.yul\":7424:7435   */\n      0x00\n        /* \"#utility.yul\":7458:7464   */\n      dup3\n        /* \"#utility.yul\":7453:7456   */\n      dup3\n        /* \"#utility.yul\":7446:7465   */\n      mstore\n        /* \"#utility.yul\":7498:7502   */\n      0x20\n        /* \"#utility.yul\":7493:7496   */\n      dup3\n        /* \"#utility.yul\":7489:7503   */\n      add\n        /* \"#utility.yul\":7474:7503   */\n      swap1\n      pop\n        /* \"#utility.yul\":7350:7509   */\n      swap3\n      swap2\n      pop\n      pop\n      jump\t// out\n        /* \"#utility.yul\":7515:7872   */\n    tag_114:\n        /* \"#utility.yul\":7593:7596   */\n      0x00\n        /* \"#utility.yul\":7621:7660   */\n      tag_217\n        /* \"#utility.yul\":7654:7659   */\n      dup3\n        /* \"#utility.yul\":7621:7660   */\n      tag_105\n      jump\t// in\n    tag_217:\n        /* \"#utility.yul\":7676:7737   */\n      tag_218\n        /* \"#utility.yul\":7730:7736   */\n      dup2\n        /* \"#utility.yul\":7725:7728   */\n      dup6\n        /* \"#utility.yul\":7676:7737   */\n      tag_113\n      jump\t// in\n    tag_218:\n        /* \"#utility.yul\":7669:7737   */\n      swap4\n      pop\n        /* \"#utility.yul\":7746:7811   */\n      tag_219\n        /* \"#utility.yul\":7804:7810   */\n      dup2\n        /* \"#utility.yul\":7799:7802   */\n      dup6\n        /* \"#utility.yul\":7792:7796   */\n      0x20\n        /* \"#utility.yul\":7785:7790   */\n      dup7\n        /* \"#utility.yul\":7781:7797   */\n      add\n        /* \"#utility.yul\":7746:7811   */\n      tag_107\n      jump\t// in\n    tag_219:\n        /* \"#utility.yul\":7836:7865   */\n      tag_220\n        /* \"#utility.yul\":7858:7864   */\n      dup2\n        /* \"#utility.yul\":7836:7865   */\n      tag_94\n      jump\t// in\n    tag_220:\n        /* \"#utility.yul\":7831:7834   */\n      dup5\n        /* \"#utility.yul\":7827:7866   */\n      add\n        /* \"#utility.yul\":7820:7866   */\n      swap2\n      pop\n        /* \"#utility.yul\":7597:7872   */\n      pop\n        /* \"#utility.yul\":7515:7872   */\n      swap3\n      swap2\n      pop\n      pop\n      jump\t// out\n        /* \"#utility.yul\":7878:7986   */\n    tag_115:\n        /* \"#utility.yul\":7955:7979   */\n      tag_222\n        /* \"#utility.yul\":7973:7978   */\n      dup2\n        /* \"#utility.yul\":7955:7979   */\n      tag_102\n      jump\t// in\n    tag_222:\n        /* \"#utility.yul\":7950:7953   */\n      dup3\n        /* \"#utility.yul\":7943:7980   */\n      mstore\n        /* \"#utility.yul\":7878:7986   */\n      pop\n      pop\n      jump\t// out\n        /* \"#utility.yul\":8046:9131   */\n    tag_116:\n        /* \"#utility.yul\":8149:8152   */\n      0x00\n        /* \"#utility.yul\":8185:8189   */\n      0x80\n        /* \"#utility.yul\":8180:8183   */\n      dup4\n        /* \"#utility.yul\":8176:8190   */\n      add\n        /* \"#utility.yul\":8273:8277   */\n      0x00\n        /* \"#utility.yul\":8266:8271   */\n      dup4\n        /* \"#utility.yul\":8262:8278   */\n      add\n        /* \"#utility.yul\":8256:8279   */\n      mload\n        /* \"#utility.yul\":8326:8329   */\n      dup5\n        /* \"#utility.yul\":8320:8324   */\n      dup3\n        /* \"#utility.yul\":8316:8330   */\n      sub\n        /* \"#utility.yul\":8309:8313   */\n      0x00\n        /* \"#utility.yul\":8304:8307   */\n      dup7\n        /* \"#utility.yul\":8300:8314   */\n      add\n        /* \"#utility.yul\":8293:8331   */\n      mstore\n        /* \"#utility.yul\":8352:8425   */\n      tag_224\n        /* \"#utility.yul\":8420:8424   */\n      dup3\n        /* \"#utility.yul\":8406:8418   */\n      dup3\n        /* \"#utility.yul\":8352:8425   */\n      tag_114\n      jump\t// in\n    tag_224:\n        /* \"#utility.yul\":8344:8425   */\n      swap2\n      pop\n        /* \"#utility.yul\":8200:8436   */\n      pop\n        /* \"#utility.yul\":8518:8522   */\n      0x20\n        /* \"#utility.yul\":8511:8516   */\n      dup4\n        /* \"#utility.yul\":8507:8523   */\n      add\n        /* \"#utility.yul\":8501:8524   */\n      mload\n        /* \"#utility.yul\":8537:8600   */\n      tag_225\n        /* \"#utility.yul\":8594:8598   */\n      0x20\n        /* \"#utility.yul\":8589:8592   */\n      dup7\n        /* \"#utility.yul\":8585:8599   */\n      add\n        /* \"#utility.yul\":8571:8583   */\n      dup3\n        /* \"#utility.yul\":8537:8600   */\n      tag_115\n      jump\t// in\n    tag_225:\n        /* \"#utility.yul\":8446:8610   */\n      pop\n        /* \"#utility.yul\":8692:8696   */\n      0x40\n        /* \"#utility.yul\":8685:8690   */\n      dup4\n        /* \"#utility.yul\":8681:8697   */\n      add\n        /* \"#utility.yul\":8675:8698   */\n      mload\n        /* \"#utility.yul\":8745:8748   */\n      dup5\n        /* \"#utility.yul\":8739:8743   */\n      dup3\n        /* \"#utility.yul\":8735:8749   */\n      sub\n        /* \"#utility.yul\":8728:8732   */\n      0x40\n        /* \"#utility.yul\":8723:8726   */\n      dup7\n        /* \"#utility.yul\":8719:8733   */\n      add\n        /* \"#utility.yul\":8712:8750   */\n      mstore\n        /* \"#utility.yul\":8771:8844   */\n      tag_226\n        /* \"#utility.yul\":8839:8843   */\n      dup3\n        /* \"#utility.yul\":8825:8837   */\n      dup3\n        /* \"#utility.yul\":8771:8844   */\n      tag_114\n      jump\t// in\n    tag_226:\n        /* \"#utility.yul\":8763:8844   */\n      swap2\n      pop\n        /* \"#utility.yul\":8620:8855   */\n      pop\n        /* \"#utility.yul\":8941:8945   */\n      0x60\n        /* \"#utility.yul\":8934:8939   */\n      dup4\n        /* \"#utility.yul\":8930:8946   */\n      add\n        /* \"#utility.yul\":8924:8947   */\n      mload\n        /* \"#utility.yul\":8994:8997   */\n      dup5\n        /* \"#utility.yul\":8988:8992   */\n      dup3\n        /* \"#utility.yul\":8984:8998   */\n      sub\n        /* \"#utility.yul\":8977:8981   */\n      0x60\n        /* \"#utility.yul\":8972:8975   */\n      dup7\n        /* \"#utility.yul\":8968:8982   */\n      add\n        /* \"#utility.yul\":8961:8999   */\n      mstore\n        /* \"#utility.yul\":9020:9093   */\n      tag_227\n        /* \"#utility.yul\":9088:9092   */\n      dup3\n        /* \"#utility.yul\":9074:9086   */\n      dup3\n        /* \"#utility.yul\":9020:9093   */\n      tag_114\n      jump\t// in\n    tag_227:\n        /* \"#utility.yul\":9012:9093   */\n      swap2\n      pop\n        /* \"#utility.yul\":8865:9104   */\n      pop\n        /* \"#utility.yul\":9121:9125   */\n      dup1\n        /* \"#utility.yul\":9114:9125   */\n      swap2\n      pop\n        /* \"#utility.yul\":8154:9131   */\n      pop\n        /* \"#utility.yul\":8046:9131   */\n      swap3\n      swap2\n      pop\n      pop\n      jump\t// out\n        /* \"#utility.yul\":9137:9381   */\n    tag_117:\n        /* \"#utility.yul\":9250:9260   */\n      0x00\n        /* \"#utility.yul\":9285:9375   */\n      tag_229\n        /* \"#utility.yul\":9371:9374   */\n      dup4\n        /* \"#utility.yul\":9363:9369   */\n      dup4\n        /* \"#utility.yul\":9285:9375   */\n      tag_116\n      jump\t// in\n    tag_229:\n        /* \"#utility.yul\":9271:9375   */\n      swap1\n      pop\n        /* \"#utility.yul\":9137:9381   */\n      swap3\n      swap2\n      pop\n      pop\n      jump\t// out\n        /* \"#utility.yul\":9387:9522   */\n    tag_118:\n        /* \"#utility.yul\":9479:9483   */\n      0x00\n        /* \"#utility.yul\":9511:9515   */\n      0x20\n        /* \"#utility.yul\":9506:9509   */\n      dup3\n        /* \"#utility.yul\":9502:9516   */\n      add\n        /* \"#utility.yul\":9494:9516   */\n      swap1\n      pop\n        /* \"#utility.yul\":9387:9522   */\n      swap2\n      swap1\n      pop\n      jump\t// out\n        /* \"#utility.yul\":9586:10673   */\n    tag_119:\n        /* \"#utility.yul\":9749:9752   */\n      0x00\n        /* \"#utility.yul\":9778:9854   */\n      tag_232\n        /* \"#utility.yul\":9848:9853   */\n      dup3\n        /* \"#utility.yul\":9778:9854   */\n      tag_110\n      jump\t// in\n    tag_232:\n        /* \"#utility.yul\":9870:9978   */\n      tag_233\n        /* \"#utility.yul\":9971:9977   */\n      dup2\n        /* \"#utility.yul\":9966:9969   */\n      dup6\n        /* \"#utility.yul\":9870:9978   */\n      tag_111\n      jump\t// in\n    tag_233:\n        /* \"#utility.yul\":9863:9978   */\n      swap4\n      pop\n        /* \"#utility.yul\":10004:10007   */\n      dup4\n        /* \"#utility.yul\":10049:10053   */\n      0x20\n        /* \"#utility.yul\":10041:10047   */\n      dup3\n        /* \"#utility.yul\":10037:10054   */\n      mul\n        /* \"#utility.yul\":10032:10035   */\n      dup6\n        /* \"#utility.yul\":10028:10055   */\n      add\n        /* \"#utility.yul\":10079:10157   */\n      tag_234\n        /* \"#utility.yul\":10151:10156   */\n      dup6\n        /* \"#utility.yul\":10079:10157   */\n      tag_112\n      jump\t// in\n    tag_234:\n        /* \"#utility.yul\":10180:10187   */\n      dup1\n        /* \"#utility.yul\":10211:10212   */\n      0x00\n        /* \"#utility.yul\":10196:10628   */\n    tag_235:\n        /* \"#utility.yul\":10221:10227   */\n      dup6\n        /* \"#utility.yul\":10218:10219   */\n      dup2\n        /* \"#utility.yul\":10215:10228   */\n      lt\n        /* \"#utility.yul\":10196:10628   */\n      iszero\n      tag_237\n      jumpi\n        /* \"#utility.yul\":10292:10301   */\n      dup5\n        /* \"#utility.yul\":10286:10290   */\n      dup5\n        /* \"#utility.yul\":10282:10302   */\n      sub\n        /* \"#utility.yul\":10277:10280   */\n      dup10\n        /* \"#utility.yul\":10270:10303   */\n      mstore\n        /* \"#utility.yul\":10343:10349   */\n      dup2\n        /* \"#utility.yul\":10337:10350   */\n      mload\n        /* \"#utility.yul\":10371:10479   */\n      tag_238\n        /* \"#utility.yul\":10474:10478   */\n      dup6\n        /* \"#utility.yul\":10459:10472   */\n      dup3\n        /* \"#utility.yul\":10371:10479   */\n      tag_117\n      jump\t// in\n    tag_238:\n        /* \"#utility.yul\":10363:10479   */\n      swap5\n      pop\n        /* \"#utility.yul\":10502:10584   */\n      tag_239\n        /* \"#utility.yul\":10577:10583   */\n      dup4\n        /* \"#utility.yul\":10502:10584   */\n      tag_118\n      jump\t// in\n    tag_239:\n        /* \"#utility.yul\":10492:10584   */\n      swap3\n      pop\n        /* \"#utility.yul\":10613:10617   */\n      0x20\n        /* \"#utility.yul\":10608:10611   */\n      dup11\n        /* \"#utility.yul\":10604:10618   */\n      add\n        /* \"#utility.yul\":10597:10618   */\n      swap10\n      pop\n        /* \"#utility.yul\":10256:10628   */\n      pop\n        /* \"#utility.yul\":10243:10244   */\n      0x01\n        /* \"#utility.yul\":10240:10241   */\n      dup2\n        /* \"#utility.yul\":10236:10245   */\n      add\n        /* \"#utility.yul\":10231:10245   */\n      swap1\n      pop\n        /* \"#utility.yul\":10196:10628   */\n      jump(tag_235)\n    tag_237:\n        /* \"#utility.yul\":10200:10214   */\n      pop\n        /* \"#utility.yul\":10644:10648   */\n      dup3\n        /* \"#utility.yul\":10637:10648   */\n      swap8\n      pop\n        /* \"#utility.yul\":10664:10667   */\n      dup8\n        /* \"#utility.yul\":10657:10667   */\n      swap6\n      pop\n        /* \"#utility.yul\":9754:10673   */\n      pop\n      pop\n      pop\n      pop\n      pop\n        /* \"#utility.yul\":9586:10673   */\n      swap3\n      swap2\n      pop\n      pop\n      jump\t// out\n        /* \"#utility.yul\":10679:11140   */\n    tag_25:\n        /* \"#utility.yul\":10866:10870   */\n      0x00\n        /* \"#utility.yul\":10904:10906   */\n      0x20\n        /* \"#utility.yul\":10893:10902   */\n      dup3\n        /* \"#utility.yul\":10889:10907   */\n      add\n        /* \"#utility.yul\":10881:10907   */\n      swap1\n      pop\n        /* \"#utility.yul\":10953:10962   */\n      dup2\n        /* \"#utility.yul\":10947:10951   */\n      dup2\n        /* \"#utility.yul\":10943:10963   */\n      sub\n        /* \"#utility.yul\":10939:10940   */\n      0x00\n        /* \"#utility.yul\":10928:10937   */\n      dup4\n        /* \"#utility.yul\":10924:10941   */\n      add\n        /* \"#utility.yul\":10917:10964   */\n      mstore\n        /* \"#utility.yul\":10981:11133   */\n      tag_241\n        /* \"#utility.yul\":11128:11132   */\n      dup2\n        /* \"#utility.yul\":11119:11125   */\n      dup5\n        /* \"#utility.yul\":10981:11133   */\n      tag_119\n      jump\t// in\n    tag_241:\n        /* \"#utility.yul\":10973:11133   */\n      swap1\n      pop\n        /* \"#utility.yul\":10679:11140   */\n      swap3\n      swap2\n      pop\n      pop\n      jump\t// out\n        /* \"#utility.yul\":11146:11326   */\n    tag_120:\n        /* \"#utility.yul\":11194:11271   */\n      0x4e487b7100000000000000000000000000000000000000000000000000000000\n        /* \"#utility.yul\":11191:11192   */\n      0x00\n        /* \"#utility.yul\":11184:11272   */\n      mstore\n        /* \"#utility.yul\":11291:11295   */\n      0x22\n        /* \"#utility.yul\":11288:11289   */\n      0x04\n        /* \"#utility.yul\":11281:11296   */\n      mstore\n        /* \"#utility.yul\":11315:11319   */\n      0x24\n        /* \"#utility.yul\":11312:11313   */\n      0x00\n        /* \"#utility.yul\":11305:11320   */\n      revert\n        /* \"#utility.yul\":11332:11652   */\n    tag_40:\n        /* \"#utility.yul\":11376:11382   */\n      0x00\n        /* \"#utility.yul\":11413:11414   */\n      0x02\n        /* \"#utility.yul\":11407:11411   */\n      dup3\n        /* \"#utility.yul\":11403:11415   */\n      div\n        /* \"#utility.yul\":11393:11415   */\n      swap1\n      pop\n        /* \"#utility.yul\":11460:11461   */\n      0x01\n        /* \"#utility.yul\":11454:11458   */\n      dup3\n        /* \"#utility.yul\":11450:11462   */\n      and\n        /* \"#utility.yul\":11481:11499   */\n      dup1\n        /* \"#utility.yul\":11471:11552   */\n      tag_244\n      jumpi\n        /* \"#utility.yul\":11537:11541   */\n      0x7f\n        /* \"#utility.yul\":11529:11535   */\n      dup3\n        /* \"#utility.yul\":11525:11542   */\n      and\n        /* \"#utility.yul\":11515:11542   */\n      swap2\n      pop\n        /* \"#utility.yul\":11471:11552   */\n    tag_244:\n        /* \"#utility.yul\":11599:11601   */\n      0x20\n        /* \"#utility.yul\":11591:11597   */\n      dup3\n        /* \"#utility.yul\":11588:11602   */\n      lt\n        /* \"#utility.yul\":11568:11586   */\n      dup2\n        /* \"#utility.yul\":11565:11603   */\n      sub\n        /* \"#utility.yul\":11562:11646   */\n      tag_245\n      jumpi\n        /* \"#utility.yul\":11618:11636   */\n      tag_246\n      tag_120\n      jump\t// in\n    tag_246:\n        /* \"#utility.yul\":11562:11646   */\n    tag_245:\n        /* \"#utility.yul\":11383:11652   */\n      pop\n        /* \"#utility.yul\":11332:11652   */\n      swap2\n      swap1\n      pop\n      jump\t// out\n        /* \"#utility.yul\":11658:11799   */\n    tag_121:\n        /* \"#utility.yul\":11707:11711   */\n      0x00\n        /* \"#utility.yul\":11730:11733   */\n      dup2\n        /* \"#utility.yul\":11722:11733   */\n      swap1\n      pop\n        /* \"#utility.yul\":11753:11756   */\n      dup2\n        /* \"#utility.yul\":11750:11751   */\n      0x00\n        /* \"#utility.yul\":11743:11757   */\n      mstore\n        /* \"#utility.yul\":11787:11791   */\n      0x20\n        /* \"#utility.yul\":11784:11785   */\n      0x00\n        /* \"#utility.yul\":11774:11792   */\n      keccak256\n        /* \"#utility.yul\":11766:11792   */\n      swap1\n      pop\n        /* \"#utility.yul\":11658:11799   */\n      swap2\n      swap1\n      pop\n      jump\t// out\n        /* \"#utility.yul\":11805:11898   */\n    tag_122:\n        /* \"#utility.yul\":11842:11848   */\n      0x00\n        /* \"#utility.yul\":11889:11891   */\n      0x20\n        /* \"#utility.yul\":11884:11886   */\n      0x1f\n        /* \"#utility.yul\":11877:11882   */\n      dup4\n        /* \"#utility.yul\":11873:11887   */\n      add\n        /* \"#utility.yul\":11869:11892   */\n      div\n        /* \"#utility.yul\":11859:11892   */\n      swap1\n      pop\n        /* \"#utility.yul\":11805:11898   */\n      swap2\n      swap1\n      pop\n      jump\t// out\n        /* \"#utility.yul\":11904:12011   */\n    tag_123:\n        /* \"#utility.yul\":11948:11956   */\n      0x00\n        /* \"#utility.yul\":11998:12003   */\n      dup3\n        /* \"#utility.yul\":11992:11996   */\n      dup3\n        /* \"#utility.yul\":11988:12004   */\n      shl\n        /* \"#utility.yul\":11967:12004   */\n      swap1\n      pop\n        /* \"#utility.yul\":11904:12011   */\n      swap3\n      swap2\n      pop\n      pop\n      jump\t// out\n        /* \"#utility.yul\":12017:12410   */\n    tag_124:\n        /* \"#utility.yul\":12086:12092   */\n      0x00\n        /* \"#utility.yul\":12136:12137   */\n      0x08\n        /* \"#utility.yul\":12124:12134   */\n      dup4\n        /* \"#utility.yul\":12120:12138   */\n      mul\n        /* \"#utility.yul\":12159:12256   */\n      tag_251\n        /* \"#utility.yul\":12189:12255   */\n      0xffffffffffffffffffffffffffffffffffffffffffffffffffffffffffffffff\n        /* \"#utility.yul\":12178:12187   */\n      dup3\n        /* \"#utility.yul\":12159:12256   */\n      tag_123\n      jump\t// in\n    tag_251:\n        /* \"#utility.yul\":12277:12316   */\n      tag_252\n        /* \"#utility.yul\":12307:12315   */\n      dup7\n        /* \"#utility.yul\":12296:12305   */\n      dup4\n        /* \"#utility.yul\":12277:12316   */\n      tag_123\n      jump\t// in\n    tag_252:\n        /* \"#utility.yul\":12265:12316   */\n      swap6\n      pop\n        /* \"#utility.yul\":12349:12353   */\n      dup1\n        /* \"#utility.yul\":12345:12354   */\n      not\n        /* \"#utility.yul\":12338:12343   */\n      dup5\n        /* \"#utility.yul\":12334:12355   */\n      and\n        /* \"#utility.yul\":12325:12355   */\n      swap4\n      pop\n        /* \"#utility.yul\":12398:12402   */\n      dup1\n        /* \"#utility.yul\":12388:12396   */\n      dup7\n        /* \"#utility.yul\":12384:12403   */\n      and\n        /* \"#utility.yul\":12377:12382   */\n      dup5\n        /* \"#utility.yul\":12374:12404   */\n      or\n        /* \"#utility.yul\":12364:12404   */\n      swap3\n      pop\n        /* \"#utility.yul\":12093:12410   */\n      pop\n      pop\n        /* \"#utility.yul\":12017:12410   */\n      swap4\n      swap3\n      pop\n      pop\n      pop\n      jump\t// out\n        /* \"#utility.yul\":12416:12476   */\n    tag_125:\n        /* \"#utility.yul\":12444:12447   */\n      0x00\n        /* \"#utility.yul\":12465:12470   */\n      dup2\n        /* \"#utility.yul\":12458:12470   */\n      swap1\n      pop\n        /* \"#utility.yul\":12416:12476   */\n      swap2\n      swap1\n      pop\n      jump\t// out\n        /* \"#utility.yul\":12482:12624   */\n    tag_126:\n        /* \"#utility.yul\":12532:12541   */\n      0x00\n        /* \"#utility.yul\":12565:12618   */\n      tag_255\n        /* \"#utility.yul\":12583:12617   */\n      tag_256\n        /* \"#utility.yul\":12592:12616   */\n      tag_257\n        /* \"#utility.yul\":12610:12615   */\n      dup5\n        /* \"#utility.yul\":12592:12616   */\n      tag_102\n      jump\t// in\n    tag_257:\n        /* \"#utility.yul\":12583:12617   */\n      tag_125\n      jump\t// in\n    tag_256:\n        /* \"#utility.yul\":12565:12618   */\n      tag_102\n      jump\t// in\n    tag_255:\n        /* \"#utility.yul\":12552:12618   */\n      swap1\n      pop\n        /* \"#utility.yul\":12482:12624   */\n      swap2\n      swap1\n      pop\n      jump\t// out\n        /* \"#utility.yul\":12630:12705   */\n    tag_127:\n        /* \"#utility.yul\":12673:12676   */\n      0x00\n        /* \"#utility.yul\":12694:12699   */\n      dup2\n        /* \"#utility.yul\":12687:12699   */\n      swap1\n      pop\n        /* \"#utility.yul\":12630:12705   */\n      swap2\n      swap1\n      pop\n      jump\t// out\n        /* \"#utility.yul\":12711:12980   */\n    tag_128:\n        /* \"#utility.yul\":12821:12860   */\n      tag_260\n        /* \"#utility.yul\":12852:12859   */\n      dup4\n        /* \"#utility.yul\":12821:12860   */\n      tag_126\n      jump\t// in\n    tag_260:\n        /* \"#utility.yul\":12882:12973   */\n      tag_261\n        /* \"#utility.yul\":12931:12972   */\n      tag_262\n        /* \"#utility.yul\":12955:12971   */\n      dup3\n        /* \"#utility.yul\":12931:12972   */\n      tag_127\n      jump\t// in\n    tag_262:\n        /* \"#utility.yul\":12923:12929   */\n      dup5\n        /* \"#utility.yul\":12916:12920   */\n      dup5\n        /* \"#utility.yul\":12910:12921   */\n      sload\n        /* \"#utility.yul\":12882:12973   */\n      tag_124\n      jump\t// in\n    tag_261:\n        /* \"#utility.yul\":12876:12880   */\n      dup3\n        /* \"#utility.yul\":12869:12974   */\n      sstore\n        /* \"#utility.yul\":12787:12980   */\n      pop\n        /* \"#utility.yul\":12711:12980   */\n      pop\n      pop\n      pop\n      jump\t// out\n        /* \"#utility.yul\":12986:13059   */\n    tag_129:\n        /* \"#utility.yul\":13031:13034   */\n      0x00\n        /* \"#utility.yul\":13052:13053   */\n      0x00\n        /* \"#utility.yul\":13045:13053   */\n      swap1\n      pop\n        /* \"#utility.yul\":12986:13059   */\n      swap1\n      jump\t// out\n        /* \"#utility.yul\":13065:13254   */\n    tag_130:\n        /* \"#utility.yul\":13142:13174   */\n      tag_265\n      tag_129\n      jump\t// in\n    tag_265:\n        /* \"#utility.yul\":13183:13248   */\n      tag_266\n        /* \"#utility.yul\":13241:13247   */\n      dup2\n        /* \"#utility.yul\":13233:13239   */\n      dup5\n        /* \"#utility.yul\":13227:13231   */\n      dup5\n        /* \"#utility.yul\":13183:13248   */\n      tag_128\n      jump\t// in\n    tag_266:\n        /* \"#utility.yul\":13118:13254   */\n      pop\n        /* \"#utility.yul\":13065:13254   */\n      pop\n      pop\n      jump\t// out\n        /* \"#utility.yul\":13260:13446   */\n    tag_131:\n        /* \"#utility.yul\":13320:13440   */\n    tag_268:\n        /* \"#utility.yul\":13337:13340   */\n      dup2\n        /* \"#utility.yul\":13330:13335   */\n      dup2\n        /* \"#utility.yul\":13327:13341   */\n      lt\n        /* \"#utility.yul\":13320:13440   */\n      iszero\n      tag_270\n      jumpi\n        /* \"#utility.yul\":13391:13430   */\n      tag_271\n        /* \"#utility.yul\":13428:13429   */\n      0x00\n        /* \"#utility.yul\":13421:13426   */\n      dup3\n        /* \"#utility.yul\":13391:13430   */\n      tag_130\n      jump\t// in\n    tag_271:\n        /* \"#utility.yul\":13364:13365   */\n      0x01\n        /* \"#utility.yul\":13357:13362   */\n      dup2\n        /* \"#utility.yul\":13353:13366   */\n      add\n        /* \"#utility.yul\":13344:13366   */\n      swap1\n      pop\n        /* \"#utility.yul\":13320:13440   */\n      jump(tag_268)\n    tag_270:\n        /* \"#utility.yul\":13260:13446   */\n      pop\n      pop\n      jump\t// out\n        /* \"#utility.yul\":13452:13995   */\n    tag_132:\n        /* \"#utility.yul\":13553:13555   */\n      0x1f\n        /* \"#utility.yul\":13548:13551   */\n      dup3\n        /* \"#utility.yul\":13545:13556   */\n      gt\n        /* \"#utility.yul\":13542:13988   */\n      iszero\n      tag_273\n      jumpi\n        /* \"#utility.yul\":13587:13625   */\n      tag_274\n        /* \"#utility.yul\":13619:13624   */\n      dup2\n        /* \"#utility.yul\":13587:13625   */\n      tag_121\n      jump\t// in\n    tag_274:\n        /* \"#utility.yul\":13671:13700   */\n      tag_275\n        /* \"#utility.yul\":13689:13699   */\n      dup5\n        /* \"#utility.yul\":13671:13700   */\n      tag_122\n      jump\t// in\n    tag_275:\n        /* \"#utility.yul\":13661:13669   */\n      dup2\n        /* \"#utility.yul\":13657:13701   */\n      add\n        /* \"#utility.yul\":13854:13856   */\n      0x20\n        /* \"#utility.yul\":13842:13852   */\n      dup6\n        /* \"#utility.yul\":13839:13857   */\n      lt\n        /* \"#utility.yul\":13836:13885   */\n      iszero\n      tag_276\n      jumpi\n        /* \"#utility.yul\":13875:13883   */\n      dup2\n        /* \"#utility.yul\":13860:13883   */\n      swap1\n      pop\n        /* \"#utility.yul\":13836:13885   */\n    tag_276:\n        /* \"#utility.yul\":13898:13978   */\n      tag_277\n        /* \"#utility.yul\":13954:13976   */\n      tag_278\n        /* \"#utility.yul\":13972:13975   */\n      dup6\n        /* \"#utility.yul\":13954:13976   */\n      tag_122\n      jump\t// in\n    tag_278:\n        /* \"#utility.yul\":13944:13952   */\n      dup4\n        /* \"#utility.yul\":13940:13977   */\n      add\n        /* \"#utility.yul\":13927:13938   */\n      dup3\n        /* \"#utility.yul\":13898:13978   */\n      tag_131\n      jump\t// in\n    tag_277:\n        /* \"#utility.yul\":13557:13988   */\n      pop\n      pop\n        /* \"#utility.yul\":13542:13988   */\n    tag_273:\n        /* \"#utility.yul\":13452:13995   */\n      pop\n      pop\n      pop\n      jump\t// out\n        /* \"#utility.yul\":14001:14118   */\n    tag_133:\n        /* \"#utility.yul\":14055:14063   */\n      0x00\n        /* \"#utility.yul\":14105:14110   */\n      dup3\n        /* \"#utility.yul\":14099:14103   */\n      dup3\n        /* \"#utility.yul\":14095:14111   */\n      shr\n        /* \"#utility.yul\":14074:14111   */\n      swap1\n      pop\n        /* \"#utility.yul\":14001:14118   */\n      swap3\n      swap2\n      pop\n      pop\n      jump\t// out\n        /* \"#utility.yul\":14124:14293   */\n    tag_134:\n        /* \"#utility.yul\":14168:14174   */\n      0x00\n        /* \"#utility.yul\":14201:14252   */\n      tag_281\n        /* \"#utility.yul\":14249:14250   */\n      0x00\n        /* \"#utility.yul\":14245:14251   */\n      not\n        /* \"#utility.yul\":14237:14242   */\n      dup5\n        /* \"#utility.yul\":14234:14235   */\n      0x08\n        /* \"#utility.yul\":14230:14243   */\n      mul\n        /* \"#utility.yul\":14201:14252   */\n      tag_133\n      jump\t// in\n    tag_281:\n        /* \"#utility.yul\":14197:14253   */\n      not\n        /* \"#utility.yul\":14282:14286   */\n      dup1\n        /* \"#utility.yul\":14276:14280   */\n      dup4\n        /* \"#utility.yul\":14272:14287   */\n      and\n        /* \"#utility.yul\":14262:14287   */\n      swap2\n      pop\n        /* \"#utility.yul\":14175:14293   */\n      pop\n        /* \"#utility.yul\":14124:14293   */\n      swap3\n      swap2\n      pop\n      pop\n      jump\t// out\n        /* \"#utility.yul\":14298:14593   */\n    tag_135:\n        /* \"#utility.yul\":14374:14378   */\n      0x00\n        /* \"#utility.yul\":14520:14549   */\n      tag_283\n        /* \"#utility.yul\":14545:14548   */\n      dup4\n        /* \"#utility.yul\":14539:14543   */\n      dup4\n        /* \"#utility.yul\":14520:14549   */\n      tag_134\n      jump\t// in\n    tag_283:\n        /* \"#utility.yul\":14512:14549   */\n      swap2\n      pop\n        /* \"#utility.yul\":14582:14585   */\n      dup3\n        /* \"#utility.yul\":14579:14580   */\n      0x02\n        /* \"#utility.yul\":14575:14586   */\n      mul\n        /* \"#utility.yul\":14569:14573   */\n      dup3\n        /* \"#utility.yul\":14566:14587   */\n      or\n        /* \"#utility.yul\":14558:14587   */\n      swap1\n      pop\n        /* \"#utility.yul\":14298:14593   */\n      swap3\n      swap2\n      pop\n      pop\n      jump\t// out\n        /* \"#utility.yul\":14598:15993   */\n    tag_29:\n        /* \"#utility.yul\":14715:14752   */\n      tag_285\n        /* \"#utility.yul\":14748:14751   */\n      dup3\n        /* \"#utility.yul\":14715:14752   */\n      tag_105\n      jump\t// in\n    tag_285:\n        /* \"#utility.yul\":14817:14835   */\n      0xffffffffffffffff\n        /* \"#utility.yul\":14809:14815   */\n      dup2\n        /* \"#utility.yul\":14806:14836   */\n      gt\n        /* \"#utility.yul\":14803:14859   */\n      iszero\n      tag_286\n      jumpi\n        /* \"#utility.yul\":14839:14857   */\n      tag_287\n      tag_95\n      jump\t// in\n    tag_287:\n        /* \"#utility.yul\":14803:14859   */\n    tag_286:\n        /* \"#utility.yul\":14883:14921   */\n      tag_288\n        /* \"#utility.yul\":14915:14919   */\n      dup3\n        /* \"#utility.yul\":14909:14920   */\n      sload\n        /* \"#utility.yul\":14883:14921   */\n      tag_40\n      jump\t// in\n    tag_288:\n        /* \"#utility.yul\":14968:15035   */\n      tag_289\n        /* \"#utility.yul\":15028:15034   */\n      dup3\n        /* \"#utility.yul\":15020:15026   */\n      dup3\n        /* \"#utility.yul\":15014:15018   */\n      dup6\n        /* \"#utility.yul\":14968:15035   */\n      tag_132\n      jump\t// in\n    tag_289:\n        /* \"#utility.yul\":15062:15063   */\n      0x00\n        /* \"#utility.yul\":15086:15090   */\n      0x20\n        /* \"#utility.yul\":15073:15090   */\n      swap1\n      pop\n        /* \"#utility.yul\":15118:15120   */\n      0x1f\n        /* \"#utility.yul\":15110:15116   */\n      dup4\n        /* \"#utility.yul\":15107:15121   */\n      gt\n        /* \"#utility.yul\":15135:15136   */\n      0x01\n        /* \"#utility.yul\":15130:15748   */\n      dup2\n      eq\n      tag_291\n      jumpi\n        /* \"#utility.yul\":15792:15793   */\n      0x00\n        /* \"#utility.yul\":15809:15815   */\n      dup5\n        /* \"#utility.yul\":15806:15883   */\n      iszero\n      tag_292\n      jumpi\n        /* \"#utility.yul\":15858:15867   */\n      dup3\n        /* \"#utility.yul\":15853:15856   */\n      dup8\n        /* \"#utility.yul\":15849:15868   */\n      add\n        /* \"#utility.yul\":15843:15869   */\n      mload\n        /* \"#utility.yul\":15834:15869   */\n      swap1\n      pop\n        /* \"#utility.yul\":15806:15883   */\n    tag_292:\n        /* \"#utility.yul\":15909:15976   */\n      tag_293\n        /* \"#utility.yul\":15969:15975   */\n      dup6\n        /* \"#utility.yul\":15962:15967   */\n      dup3\n        /* \"#utility.yul\":15909:15976   */\n      tag_135\n      jump\t// in\n    tag_293:\n        /* \"#utility.yul\":15903:15907   */\n      dup7\n        /* \"#utility.yul\":15896:15977   */\n      sstore\n        /* \"#utility.yul\":15765:15987   */\n      pop\n        /* \"#utility.yul\":15100:15987   */\n      jump(tag_290)\n        /* \"#utility.yul\":15130:15748   */\n    tag_291:\n        /* \"#utility.yul\":15182:15186   */\n      0x1f\n        /* \"#utility.yul\":15178:15187   */\n      not\n        /* \"#utility.yul\":15170:15176   */\n      dup5\n        /* \"#utility.yul\":15166:15188   */\n      and\n        /* \"#utility.yul\":15216:15253   */\n      tag_294\n        /* \"#utility.yul\":15248:15252   */\n      dup7\n        /* \"#utility.yul\":15216:15253   */\n      tag_121\n      jump\t// in\n    tag_294:\n        /* \"#utility.yul\":15275:15276   */\n      0x00\n        /* \"#utility.yul\":15289:15497   */\n    tag_295:\n        /* \"#utility.yul\":15303:15310   */\n      dup3\n        /* \"#utility.yul\":15300:15301   */\n      dup2\n        /* \"#utility.yul\":15297:15311   */\n      lt\n        /* \"#utility.yul\":15289:15497   */\n      iszero\n      tag_297\n      jumpi\n        /* \"#utility.yul\":15382:15391   */\n      dup5\n        /* \"#utility.yul\":15377:15380   */\n      dup10\n        /* \"#utility.yul\":15373:15392   */\n      add\n        /* \"#utility.yul\":15367:15393   */\n      mload\n        /* \"#utility.yul\":15359:15365   */\n      dup3\n        /* \"#utility.yul\":15352:15394   */\n      sstore\n        /* \"#utility.yul\":15433:15434   */\n      0x01\n        /* \"#utility.yul\":15425:15431   */\n      dup3\n        /* \"#utility.yul\":15421:15435   */\n      add\n        /* \"#utility.yul\":15411:15435   */\n      swap2\n      pop\n        /* \"#utility.yul\":15480:15482   */\n      0x20\n        /* \"#utility.yul\":15469:15478   */\n      dup6\n        /* \"#utility.yul\":15465:15483   */\n      add\n        /* \"#utility.yul\":15452:15483   */\n      swap5\n      pop\n        /* \"#utility.yul\":15326:15330   */\n      0x20\n        /* \"#utility.yul\":15323:15324   */\n      dup2\n        /* \"#utility.yul\":15319:15331   */\n      add\n        /* \"#utility.yul\":15314:15331   */\n      swap1\n      pop\n        /* \"#utility.yul\":15289:15497   */\n      jump(tag_295)\n    tag_297:\n        /* \"#utility.yul\":15525:15531   */\n      dup7\n        /* \"#utility.yul\":15516:15523   */\n      dup4\n        /* \"#utility.yul\":15513:15532   */\n      lt\n        /* \"#utility.yul\":15510:15689   */\n      iszero\n      tag_298\n      jumpi\n        /* \"#utility.yul\":15583:15592   */\n      dup5\n        /* \"#utility.yul\":15578:15581   */\n      dup10\n        /* \"#utility.yul\":15574:15593   */\n      add\n        /* \"#utility.yul\":15568:15594   */\n      mload\n        /* \"#utility.yul\":15626:15674   */\n      tag_299\n        /* \"#utility.yul\":15668:15672   */\n      0x1f\n        /* \"#utility.yul\":15660:15666   */\n      dup10\n        /* \"#utility.yul\":15656:15673   */\n      and\n        /* \"#utility.yul\":15645:15654   */\n      dup3\n        /* \"#utility.yul\":15626:15674   */\n      tag_134\n      jump\t// in\n    tag_299:\n        /* \"#utility.yul\":15618:15624   */\n      dup4\n        /* \"#utility.yul\":15611:15675   */\n      sstore\n        /* \"#utility.yul\":15533:15689   */\n      pop\n        /* \"#utility.yul\":15510:15689   */\n    tag_298:\n        /* \"#utility.yul\":15735:15736   */\n      0x01\n        /* \"#utility.yul\":15731:15732   */\n      0x02\n        /* \"#utility.yul\":15723:15729   */\n      dup9\n        /* \"#utility.yul\":15719:15733   */\n      mul\n        /* \"#utility.yul\":15715:15737   */\n      add\n        /* \"#utility.yul\":15709:15713   */\n      dup9\n        /* \"#utility.yul\":15702:15738   */\n      sstore\n        /* \"#utility.yul\":15137:15748   */\n      pop\n      pop\n      pop\n        /* \"#utility.yul\":15100:15987   */\n    tag_290:\n      pop\n        /* \"#utility.yul\":14690:15993   */\n      pop\n      pop\n      pop\n        /* \"#utility.yul\":14598:15993   */\n      pop\n      pop\n      jump\t// out\n        /* \"#utility.yul\":15999:16147   */\n    tag_136:\n        /* \"#utility.yul\":16101:16112   */\n      0x00\n        /* \"#utility.yul\":16138:16141   */\n      dup2\n        /* \"#utility.yul\":16123:16141   */\n      swap1\n      pop\n        /* \"#utility.yul\":15999:16147   */\n      swap3\n      swap2\n      pop\n      pop\n      jump\t// out\n        /* \"#utility.yul\":16153:16543   */\n    tag_137:\n        /* \"#utility.yul\":16259:16262   */\n      0x00\n        /* \"#utility.yul\":16287:16326   */\n      tag_302\n        /* \"#utility.yul\":16320:16325   */\n      dup3\n        /* \"#utility.yul\":16287:16326   */\n      tag_105\n      jump\t// in\n    tag_302:\n        /* \"#utility.yul\":16342:16431   */\n      tag_303\n        /* \"#utility.yul\":16424:16430   */\n      dup2\n        /* \"#utility.yul\":16419:16422   */\n      dup6\n        /* \"#utility.yul\":16342:16431   */\n      tag_136\n      jump\t// in\n    tag_303:\n        /* \"#utility.yul\":16335:16431   */\n      swap4\n      pop\n        /* \"#utility.yul\":16440:16505   */\n      tag_304\n        /* \"#utility.yul\":16498:16504   */\n      dup2\n        /* \"#utility.yul\":16493:16496   */\n      dup6\n        /* \"#utility.yul\":16486:16490   */\n      0x20\n        /* \"#utility.yul\":16479:16484   */\n      dup7\n        /* \"#utility.yul\":16475:16491   */\n      add\n        /* \"#utility.yul\":16440:16505   */\n      tag_107\n      jump\t// in\n    tag_304:\n        /* \"#utility.yul\":16530:16536   */\n      dup1\n        /* \"#utility.yul\":16525:16528   */\n      dup5\n        /* \"#utility.yul\":16521:16537   */\n      add\n        /* \"#utility.yul\":16514:16537   */\n      swap2\n      pop\n        /* \"#utility.yul\":16263:16543   */\n      pop\n        /* \"#utility.yul\":16153:16543   */\n      swap3\n      swap2\n      pop\n      pop\n      jump\t// out\n        /* \"#utility.yul\":16549:16824   */\n    tag_33:\n        /* \"#utility.yul\":16681:16684   */\n      0x00\n        /* \"#utility.yul\":16703:16798   */\n      tag_306\n        /* \"#utility.yul\":16794:16797   */\n      dup3\n        /* \"#utility.yul\":16785:16791   */\n      dup5\n        /* \"#utility.yul\":16703:16798   */\n      tag_137\n      jump\t// in\n    tag_306:\n        /* \"#utility.yul\":16696:16798   */\n      swap2\n      pop\n        /* \"#utility.yul\":16815:16818   */\n      dup2\n        /* \"#utility.yul\":16808:16818   */\n      swap1\n      pop\n        /* \"#utility.yul\":16549:16824   */\n      swap3\n      swap2\n      pop\n      pop\n      jump\t// out\n\n    auxdata: 0xa264697066735822122000a7b3d36d6fb7d27e17fba815c8ee629ce5ba90922a5b79e0747cf1165a12ba64736f6c634300081f0033\n}\n",
				"bytecode": {
					"linkReferences": {},
					"object": "6080604052348015600e575f5ffd5b506110128061001c5f395ff3fe608060405234801561000f575f5ffd5b506004361061004a575f3560e01c8063904ae8ad1461004e57806396f979d21461006a578063981d6c331461009d578063cc126479146100d0575b5f5ffd5b6100686004803603810190610063919061092f565b6100ee565b005b610084600480360381019061007f91906109e7565b6101f9565b6040516100949493929190610a81565b60405180910390f35b6100b760048036038101906100b29190610ad9565b6103c5565b6040516100c79493929190610a81565b60405180910390f35b6100d861059b565b6040516100e59190610ca0565b60405180910390f35b5f60405180608001604052808681526020018481526020018581526020018381525090505f81908060018154018082558091505060019003905f5260205f2090600402015f909190919091505f820151815f01908161014d9190610ebd565b5060208201518160010155604082015181600201908161016d9190610ebd565b5060608201518160030190816101839190610ebd565b505050806001856040516101979190610fc6565b90815260200160405180910390205f820151815f0190816101b89190610ebd565b506020820151816001015560408201518160020190816101d89190610ebd565b5060608201518160030190816101ee9190610ebd565b509050505050505050565b5f8181548110610207575f80fd5b905f5260205f2090600402015f91509050805f01805461022690610ced565b80601f016020809104026020016040519081016040528092919081815260200182805461025290610ced565b801561029d5780601f106102745761010080835404028352916020019161029d565b820191905f5260205f20905b81548152906001019060200180831161028057829003601f168201915b5050505050908060010154908060020180546102b890610ced565b80601f01602080910402602001604051908101604052809291908181526020018280546102e490610ced565b801561032f5780601f106103065761010080835404028352916020019161032f565b820191905f5260205f20905b81548152906001019060200180831161031257829003601f168201915b50505050509080600301805461034490610ced565b80601f016020809104026020016040519081016040528092919081815260200182805461037090610ced565b80156103bb5780601f10610392576101008083540402835291602001916103bb565b820191905f5260205f20905b81548152906001019060200180831161039e57829003601f168201915b5050505050905084565b6001818051602081018201805184825260208301602085012081835280955050505050505f91509050805f0180546103fc90610ced565b80601f016020809104026020016040519081016040528092919081815260200182805461042890610ced565b80156104735780601f1061044a57610100808354040283529160200191610473565b820191905f5260205f20905b81548152906001019060200180831161045657829003601f168201915b50505050509080600101549080600201805461048e90610ced565b80601f01602080910402602001604051908101604052809291908181526020018280546104ba90610ced565b80156105055780601f106104dc57610100808354040283529160200191610505565b820191905f5260205f20905b8154815290600101906020018083116104e857829003601f168201915b50505050509080600301805461051a90610ced565b80601f016020809104026020016040519081016040528092919081815260200182805461054690610ced565b80156105915780601f1061056857610100808354040283529160200191610591565b820191905f5260205f20905b81548152906001019060200180831161057457829003601f168201915b5050505050905084565b60605f805480602002602001604051908101604052809291908181526020015f905b828210156107a6578382905f5260205f2090600402016040518060800160405290815f820180546105ed90610ced565b80601f016020809104026020016040519081016040528092919081815260200182805461061990610ced565b80156106645780601f1061063b57610100808354040283529160200191610664565b820191905f5260205f20905b81548152906001019060200180831161064757829003601f168201915b505050505081526020016001820154815260200160028201805461068790610ced565b80601f01602080910402602001604051908101604052809291908181526020018280546106b390610ced565b80156106fe5780601f106106d5576101008083540402835291602001916106fe565b820191905f5260205f20905b8154815290600101906020018083116106e157829003601f168201915b5050505050815260200160038201805461071790610ced565b80601f016020809104026020016040519081016040528092919081815260200182805461074390610ced565b801561078e5780601f106107655761010080835404028352916020019161078e565b820191905f5260205f20905b81548152906001019060200180831161077157829003601f168201915b505050505081525050815260200190600101906105bd565b50505050905090565b5f604051905090565b5f5ffd5b5f5ffd5b5f5ffd5b5f5ffd5b5f601f19601f8301169050919050565b7f4e487b71000000000000000000000000000000000000000000000000000000005f52604160045260245ffd5b61080e826107c8565b810181811067ffffffffffffffff8211171561082d5761082c6107d8565b5b80604052505050565b5f61083f6107af565b905061084b8282610805565b919050565b5f67ffffffffffffffff82111561086a576108696107d8565b5b610873826107c8565b9050602081019050919050565b828183375f83830152505050565b5f6108a061089b84610850565b610836565b9050828152602081018484840111156108bc576108bb6107c4565b5b6108c7848285610880565b509392505050565b5f82601f8301126108e3576108e26107c0565b5b81356108f384826020860161088e565b91505092915050565b5f819050919050565b61090e816108fc565b8114610918575f5ffd5b50565b5f8135905061092981610905565b92915050565b5f5f5f5f60808587031215610947576109466107b8565b5b5f85013567ffffffffffffffff811115610964576109636107bc565b5b610970878288016108cf565b945050602085013567ffffffffffffffff811115610991576109906107bc565b5b61099d878288016108cf565b93505060406109ae8782880161091b565b925050606085013567ffffffffffffffff8111156109cf576109ce6107bc565b5b6109db878288016108cf565b91505092959194509250565b5f602082840312156109fc576109fb6107b8565b5b5f610a098482850161091b565b91505092915050565b5f81519050919050565b5f82825260208201905092915050565b8281835e5f83830152505050565b5f610a4482610a12565b610a4e8185610a1c565b9350610a5e818560208601610a2c565b610a67816107c8565b840191505092915050565b610a7b816108fc565b82525050565b5f6080820190508181035f830152610a998187610a3a565b9050610aa86020830186610a72565b8181036040830152610aba8185610a3a565b90508181036060830152610ace8184610a3a565b905095945050505050565b5f60208284031215610aee57610aed6107b8565b5b5f82013567ffffffffffffffff811115610b0b57610b0a6107bc565b5b610b17848285016108cf565b91505092915050565b5f81519050919050565b5f82825260208201905092915050565b5f819050602082019050919050565b5f82825260208201905092915050565b5f610b6382610a12565b610b6d8185610b49565b9350610b7d818560208601610a2c565b610b86816107c8565b840191505092915050565b610b9a816108fc565b82525050565b5f608083015f8301518482035f860152610bba8282610b59565b9150506020830151610bcf6020860182610b91565b5060408301518482036040860152610be78282610b59565b91505060608301518482036060860152610c018282610b59565b9150508091505092915050565b5f610c198383610ba0565b905092915050565b5f602082019050919050565b5f610c3782610b20565b610c418185610b2a565b935083602082028501610c5385610b3a565b805f5b85811015610c8e5784840389528151610c6f8582610c0e565b9450610c7a83610c21565b925060208a01995050600181019050610c56565b50829750879550505050505092915050565b5f6020820190508181035f830152610cb88184610c2d565b905092915050565b7f4e487b71000000000000000000000000000000000000000000000000000000005f52602260045260245ffd5b5f6002820490506001821680610d0457607f821691505b602082108103610d1757610d16610cc0565b5b50919050565b5f819050815f5260205f209050919050565b5f6020601f8301049050919050565b5f82821b905092915050565b5f60088302610d797fffffffffffffffffffffffffffffffffffffffffffffffffffffffffffffffff82610d3e565b610d838683610d3e565b95508019841693508086168417925050509392505050565b5f819050919050565b5f610dbe610db9610db4846108fc565b610d9b565b6108fc565b9050919050565b5f819050919050565b610dd783610da4565b610deb610de382610dc5565b848454610d4a565b825550505050565b5f5f905090565b610e02610df3565b610e0d818484610dce565b505050565b5b81811015610e3057610e255f82610dfa565b600181019050610e13565b5050565b601f821115610e7557610e4681610d1d565b610e4f84610d2f565b81016020851015610e5e578190505b610e72610e6a85610d2f565b830182610e12565b50505b505050565b5f82821c905092915050565b5f610e955f1984600802610e7a565b1980831691505092915050565b5f610ead8383610e86565b9150826002028217905092915050565b610ec682610a12565b67ffffffffffffffff811115610edf57610ede6107d8565b5b610ee98254610ced565b610ef4828285610e34565b5f60209050601f831160018114610f25575f8415610f13578287015190505b610f1d8582610ea2565b865550610f84565b601f198416610f3386610d1d565b5f5b82811015610f5a57848901518255600182019150602085019450602081019050610f35565b86831015610f775784890151610f73601f891682610e86565b8355505b6001600288020188555050505b505050505050565b5f81905092915050565b5f610fa082610a12565b610faa8185610f8c565b9350610fba818560208601610a2c565b80840191505092915050565b5f610fd18284610f96565b91508190509291505056fea264697066735822122000a7b3d36d6fb7d27e17fba815c8ee629ce5ba90922a5b79e0747cf1165a12ba64736f6c634300081f0033",
					"opcodes": "PUSH1 0x80 PUSH1 0x40 MSTORE CALLVALUE DUP1 ISZERO PUSH1 0xE JUMPI PUSH0 PUSH0 REVERT JUMPDEST POP PUSH2 0x1012 DUP1 PUSH2 0x1C PUSH0 CODECOPY PUSH0 RETURN INVALID PUSH1 0x80 PUSH1 0x40 MSTORE CALLVALUE DUP1 ISZERO PUSH2 0xF JUMPI PUSH0 PUSH0 REVERT JUMPDEST POP PUSH1 0x4 CALLDATASIZE LT PUSH2 0x4A JUMPI PUSH0 CALLDATALOAD PUSH1 0xE0 SHR DUP1 PUSH4 0x904AE8AD EQ PUSH2 0x4E JUMPI DUP1 PUSH4 0x96F979D2 EQ PUSH2 0x6A JUMPI DUP1 PUSH4 0x981D6C33 EQ PUSH2 0x9D JUMPI DUP1 PUSH4 0xCC126479 EQ PUSH2 0xD0 JUMPI JUMPDEST PUSH0 PUSH0 REVERT JUMPDEST PUSH2 0x68 PUSH1 0x4 DUP1 CALLDATASIZE SUB DUP2 ADD SWAP1 PUSH2 0x63 SWAP2 SWAP1 PUSH2 0x92F JUMP JUMPDEST PUSH2 0xEE JUMP JUMPDEST STOP JUMPDEST PUSH2 0x84 PUSH1 0x4 DUP1 CALLDATASIZE SUB DUP2 ADD SWAP1 PUSH2 0x7F SWAP2 SWAP1 PUSH2 0x9E7 JUMP JUMPDEST PUSH2 0x1F9 JUMP JUMPDEST PUSH1 0x40 MLOAD PUSH2 0x94 SWAP5 SWAP4 SWAP3 SWAP2 SWAP1 PUSH2 0xA81 JUMP JUMPDEST PUSH1 0x40 MLOAD DUP1 SWAP2 SUB SWAP1 RETURN JUMPDEST PUSH2 0xB7 PUSH1 0x4 DUP1 CALLDATASIZE SUB DUP2 ADD SWAP1 PUSH2 0xB2 SWAP2 SWAP1 PUSH2 0xAD9 JUMP JUMPDEST PUSH2 0x3C5 JUMP JUMPDEST PUSH1 0x40 MLOAD PUSH2 0xC7 SWAP5 SWAP4 SWAP3 SWAP2 SWAP1 PUSH2 0xA81 JUMP JUMPDEST PUSH1 0x40 MLOAD DUP1 SWAP2 SUB SWAP1 RETURN JUMPDEST PUSH2 0xD8 PUSH2 0x59B JUMP JUMPDEST PUSH1 0x40 MLOAD PUSH2 0xE5 SWAP2 SWAP1 PUSH2 0xCA0 JUMP JUMPDEST PUSH1 0x40 MLOAD DUP1 SWAP2 SUB SWAP1 RETURN JUMPDEST PUSH0 PUSH1 0x40 MLOAD DUP1 PUSH1 0x80 ADD PUSH1 0x40 MSTORE DUP1 DUP7 DUP2 MSTORE PUSH1 0x20 ADD DUP5 DUP2 MSTORE PUSH1 0x20 ADD DUP6 DUP2 MSTORE PUSH1 0x20 ADD DUP4 DUP2 MSTORE POP SWAP1 POP PUSH0 DUP2 SWAP1 DUP1 PUSH1 0x1 DUP2 SLOAD ADD DUP1 DUP3 SSTORE DUP1 SWAP2 POP POP PUSH1 0x1 SWAP1 SUB SWAP1 PUSH0 MSTORE PUSH1 0x20 PUSH0 KECCAK256 SWAP1 PUSH1 0x4 MUL ADD PUSH0 SWAP1 SWAP2 SWAP1 SWAP2 SWAP1 SWAP2 POP PUSH0 DUP3 ADD MLOAD DUP2 PUSH0 ADD SWAP1 DUP2 PUSH2 0x14D SWAP2 SWAP1 PUSH2 0xEBD JUMP JUMPDEST POP PUSH1 0x20 DUP3 ADD MLOAD DUP2 PUSH1 0x1 ADD SSTORE PUSH1 0x40 DUP3 ADD MLOAD DUP2 PUSH1 0x2 ADD SWAP1 DUP2 PUSH2 0x16D SWAP2 SWAP1 PUSH2 0xEBD JUMP JUMPDEST POP PUSH1 0x60 DUP3 ADD MLOAD DUP2 PUSH1 0x3 ADD SWAP1 DUP2 PUSH2 0x183 SWAP2 SWAP1 PUSH2 0xEBD JUMP JUMPDEST POP POP POP DUP1 PUSH1 0x1 DUP6 PUSH1 0x40 MLOAD PUSH2 0x197 SWAP2 SWAP1 PUSH2 0xFC6 JUMP JUMPDEST SWAP1 DUP2 MSTORE PUSH1 0x20 ADD PUSH1 0x40 MLOAD DUP1 SWAP2 SUB SWAP1 KECCAK256 PUSH0 DUP3 ADD MLOAD DUP2 PUSH0 ADD SWAP1 DUP2 PUSH2 0x1B8 SWAP2 SWAP1 PUSH2 0xEBD JUMP JUMPDEST POP PUSH1 0x20 DUP3 ADD MLOAD DUP2 PUSH1 0x1 ADD SSTORE PUSH1 0x40 DUP3 ADD MLOAD DUP2 PUSH1 0x2 ADD SWAP1 DUP2 PUSH2 0x1D8 SWAP2 SWAP1 PUSH2 0xEBD JUMP JUMPDEST POP PUSH1 0x60 DUP3 ADD MLOAD DUP2 PUSH1 0x3 ADD SWAP1 DUP2 PUSH2 0x1EE SWAP2 SWAP1 PUSH2 0xEBD JUMP JUMPDEST POP SWAP1 POP POP POP POP POP POP POP JUMP JUMPDEST PUSH0 DUP2 DUP2 SLOAD DUP2 LT PUSH2 0x207 JUMPI PUSH0 DUP1 REVERT JUMPDEST SWAP1 PUSH0 MSTORE PUSH1 0x20 PUSH0 KECCAK256 SWAP1 PUSH1 0x4 MUL ADD PUSH0 SWAP2 POP SWAP1 POP DUP1 PUSH0 ADD DUP1 SLOAD PUSH2 0x226 SWAP1 PUSH2 0xCED JUMP JUMPDEST DUP1 PUSH1 0x1F ADD PUSH1 0x20 DUP1 SWAP2 DIV MUL PUSH1 0x20 ADD PUSH1 0x40 MLOAD SWAP1 DUP2 ADD PUSH1 0x40 MSTORE DUP1 SWAP3 SWAP2 SWAP1 DUP2 DUP2 MSTORE PUSH1 0x20 ADD DUP3 DUP1 SLOAD PUSH2 0x252 SWAP1 PUSH2 0xCED JUMP JUMPDEST DUP1 ISZERO PUSH2 0x29D JUMPI DUP1 PUSH1 0x1F LT PUSH2 0x274 JUMPI PUSH2 0x100 DUP1 DUP4 SLOAD DIV MUL DUP4 MSTORE SWAP2 PUSH1 0x20 ADD SWAP2 PUSH2 0x29D JUMP JUMPDEST DUP3 ADD SWAP2 SWAP1 PUSH0 MSTORE PUSH1 0x20 PUSH0 KECCAK256 SWAP1 JUMPDEST DUP2 SLOAD DUP2 MSTORE SWAP1 PUSH1 0x1 ADD SWAP1 PUSH1 0x20 ADD DUP1 DUP4 GT PUSH2 0x280 JUMPI DUP3 SWAP1 SUB PUSH1 0x1F AND DUP3 ADD SWAP2 JUMPDEST POP POP POP POP POP SWAP1 DUP1 PUSH1 0x1 ADD SLOAD SWAP1 DUP1 PUSH1 0x2 ADD DUP1 SLOAD PUSH2 0x2B8 SWAP1 PUSH2 0xCED JUMP JUMPDEST DUP1 PUSH1 0x1F ADD PUSH1 0x20 DUP1 SWAP2 DIV MUL PUSH1 0x20 ADD PUSH1 0x40 MLOAD SWAP1 DUP2 ADD PUSH1 0x40 MSTORE DUP1 SWAP3 SWAP2 SWAP1 DUP2 DUP2 MSTORE PUSH1 0x20 ADD DUP3 DUP1 SLOAD PUSH2 0x2E4 SWAP1 PUSH2 0xCED JUMP JUMPDEST DUP1 ISZERO PUSH2 0x32F JUMPI DUP1 PUSH1 0x1F LT PUSH2 0x306 JUMPI PUSH2 0x100 DUP1 DUP4 SLOAD DIV MUL DUP4 MSTORE SWAP2 PUSH1 0x20 ADD SWAP2 PUSH2 0x32F JUMP JUMPDEST DUP3 ADD SWAP2 SWAP1 PUSH0 MSTORE PUSH1 0x20 PUSH0 KECCAK256 SWAP1 JUMPDEST DUP2 SLOAD DUP2 MSTORE SWAP1 PUSH1 0x1 ADD SWAP1 PUSH1 0x20 ADD DUP1 DUP4 GT PUSH2 0x312 JUMPI DUP3 SWAP1 SUB PUSH1 0x1F AND DUP3 ADD SWAP2 JUMPDEST POP POP POP POP POP SWAP1 DUP1 PUSH1 0x3 ADD DUP1 SLOAD PUSH2 0x344 SWAP1 PUSH2 0xCED JUMP JUMPDEST DUP1 PUSH1 0x1F ADD PUSH1 0x20 DUP1 SWAP2 DIV MUL PUSH1 0x20 ADD PUSH1 0x40 MLOAD SWAP1 DUP2 ADD PUSH1 0x40 MSTORE DUP1 SWAP3 SWAP2 SWAP1 DUP2 DUP2 MSTORE PUSH1 0x20 ADD DUP3 DUP1 SLOAD PUSH2 0x370 SWAP1 PUSH2 0xCED JUMP JUMPDEST DUP1 ISZERO PUSH2 0x3BB JUMPI DUP1 PUSH1 0x1F LT PUSH2 0x392 JUMPI PUSH2 0x100 DUP1 DUP4 SLOAD DIV MUL DUP4 MSTORE SWAP2 PUSH1 0x20 ADD SWAP2 PUSH2 0x3BB JUMP JUMPDEST DUP3 ADD SWAP2 SWAP1 PUSH0 MSTORE PUSH1 0x20 PUSH0 KECCAK256 SWAP1 JUMPDEST DUP2 SLOAD DUP2 MSTORE SWAP1 PUSH1 0x1 ADD SWAP1 PUSH1 0x20 ADD DUP1 DUP4 GT PUSH2 0x39E JUMPI DUP3 SWAP1 SUB PUSH1 0x1F AND DUP3 ADD SWAP2 JUMPDEST POP POP POP POP POP SWAP1 POP DUP5 JUMP JUMPDEST PUSH1 0x1 DUP2 DUP1 MLOAD PUSH1 0x20 DUP2 ADD DUP3 ADD DUP1 MLOAD DUP5 DUP3 MSTORE PUSH1 0x20 DUP4 ADD PUSH1 0x20 DUP6 ADD KECCAK256 DUP2 DUP4 MSTORE DUP1 SWAP6 POP POP POP POP POP POP PUSH0 SWAP2 POP SWAP1 POP DUP1 PUSH0 ADD DUP1 SLOAD PUSH2 0x3FC SWAP1 PUSH2 0xCED JUMP JUMPDEST DUP1 PUSH1 0x1F ADD PUSH1 0x20 DUP1 SWAP2 DIV MUL PUSH1 0x20 ADD PUSH1 0x40 MLOAD SWAP1 DUP2 ADD PUSH1 0x40 MSTORE DUP1 SWAP3 SWAP2 SWAP1 DUP2 DUP2 MSTORE PUSH1 0x20 ADD DUP3 DUP1 SLOAD PUSH2 0x428 SWAP1 PUSH2 0xCED JUMP JUMPDEST DUP1 ISZERO PUSH2 0x473 JUMPI DUP1 PUSH1 0x1F LT PUSH2 0x44A JUMPI PUSH2 0x100 DUP1 DUP4 SLOAD DIV MUL DUP4 MSTORE SWAP2 PUSH1 0x20 ADD SWAP2 PUSH2 0x473 JUMP JUMPDEST DUP3 ADD SWAP2 SWAP1 PUSH0 MSTORE PUSH1 0x20 PUSH0 KECCAK256 SWAP1 JUMPDEST DUP2 SLOAD DUP2 MSTORE SWAP1 PUSH1 0x1 ADD SWAP1 PUSH1 0x20 ADD DUP1 DUP4 GT PUSH2 0x456 JUMPI DUP3 SWAP1 SUB PUSH1 0x1F AND DUP3 ADD SWAP2 JUMPDEST POP POP POP POP POP SWAP1 DUP1 PUSH1 0x1 ADD SLOAD SWAP1 DUP1 PUSH1 0x2 ADD DUP1 SLOAD PUSH2 0x48E SWAP1 PUSH2 0xCED JUMP JUMPDEST DUP1 PUSH1 0x1F ADD PUSH1 0x20 DUP1 SWAP2 DIV MUL PUSH1 0x20 ADD PUSH1 0x40 MLOAD SWAP1 DUP2 ADD PUSH1 0x40 MSTORE DUP1 SWAP3 SWAP2 SWAP1 DUP2 DUP2 MSTORE PUSH1 0x20 ADD DUP3 DUP1 SLOAD PUSH2 0x4BA SWAP1 PUSH2 0xCED JUMP JUMPDEST DUP1 ISZERO PUSH2 0x505 JUMPI DUP1 PUSH1 0x1F LT PUSH2 0x4DC JUMPI PUSH2 0x100 DUP1 DUP4 SLOAD DIV MUL DUP4 MSTORE SWAP2 PUSH1 0x20 ADD SWAP2 PUSH2 0x505 JUMP JUMPDEST DUP3 ADD SWAP2 SWAP1 PUSH0 MSTORE PUSH1 0x20 PUSH0 KECCAK256 SWAP1 JUMPDEST DUP2 SLOAD DUP2 MSTORE SWAP1 PUSH1 0x1 ADD SWAP1 PUSH1 0x20 ADD DUP1 DUP4 GT PUSH2 0x4E8 JUMPI DUP3 SWAP1 SUB PUSH1 0x1F AND DUP3 ADD SWAP2 JUMPDEST POP POP POP POP POP SWAP1 DUP1 PUSH1 0x3 ADD DUP1 SLOAD PUSH2 0x51A SWAP1 PUSH2 0xCED JUMP JUMPDEST DUP1 PUSH1 0x1F ADD PUSH1 0x20 DUP1 SWAP2 DIV MUL PUSH1 0x20 ADD PUSH1 0x40 MLOAD SWAP1 DUP2 ADD PUSH1 0x40 MSTORE DUP1 SWAP3 SWAP2 SWAP1 DUP2 DUP2 MSTORE PUSH1 0x20 ADD DUP3 DUP1 SLOAD PUSH2 0x546 SWAP1 PUSH2 0xCED JUMP JUMPDEST DUP1 ISZERO PUSH2 0x591 JUMPI DUP1 PUSH1 0x1F LT PUSH2 0x568 JUMPI PUSH2 0x100 DUP1 DUP4 SLOAD DIV MUL DUP4 MSTORE SWAP2 PUSH1 0x20 ADD SWAP2 PUSH2 0x591 JUMP JUMPDEST DUP3 ADD SWAP2 SWAP1 PUSH0 MSTORE PUSH1 0x20 PUSH0 KECCAK256 SWAP1 JUMPDEST DUP2 SLOAD DUP2 MSTORE SWAP1 PUSH1 0x1 ADD SWAP1 PUSH1 0x20 ADD DUP1 DUP4 GT PUSH2 0x574 JUMPI DUP3 SWAP1 SUB PUSH1 0x1F AND DUP3 ADD SWAP2 JUMPDEST POP POP POP POP POP SWAP1 POP DUP5 JUMP JUMPDEST PUSH1 0x60 PUSH0 DUP1 SLOAD DUP1 PUSH1 0x20 MUL PUSH1 0x20 ADD PUSH1 0x40 MLOAD SWAP1 DUP2 ADD PUSH1 0x40 MSTORE DUP1 SWAP3 SWAP2 SWAP1 DUP2 DUP2 MSTORE PUSH1 0x20 ADD PUSH0 SWAP1 JUMPDEST DUP3 DUP3 LT ISZERO PUSH2 0x7A6 JUMPI DUP4 DUP3 SWAP1 PUSH0 MSTORE PUSH1 0x20 PUSH0 KECCAK256 SWAP1 PUSH1 0x4 MUL ADD PUSH1 0x40 MLOAD DUP1 PUSH1 0x80 ADD PUSH1 0x40 MSTORE SWAP1 DUP2 PUSH0 DUP3 ADD DUP1 SLOAD PUSH2 0x5ED SWAP1 PUSH2 0xCED JUMP JUMPDEST DUP1 PUSH1 0x1F ADD PUSH1 0x20 DUP1 SWAP2 DIV MUL PUSH1 0x20 ADD PUSH1 0x40 MLOAD SWAP1 DUP2 ADD PUSH1 0x40 MSTORE DUP1 SWAP3 SWAP2 SWAP1 DUP2 DUP2 MSTORE PUSH1 0x20 ADD DUP3 DUP1 SLOAD PUSH2 0x619 SWAP1 PUSH2 0xCED JUMP JUMPDEST DUP1 ISZERO PUSH2 0x664 JUMPI DUP1 PUSH1 0x1F LT PUSH2 0x63B JUMPI PUSH2 0x100 DUP1 DUP4 SLOAD DIV MUL DUP4 MSTORE SWAP2 PUSH1 0x20 ADD SWAP2 PUSH2 0x664 JUMP JUMPDEST DUP3 ADD SWAP2 SWAP1 PUSH0 MSTORE PUSH1 0x20 PUSH0 KECCAK256 SWAP1 JUMPDEST DUP2 SLOAD DUP2 MSTORE SWAP1 PUSH1 0x1 ADD SWAP1 PUSH1 0x20 ADD DUP1 DUP4 GT PUSH2 0x647 JUMPI DUP3 SWAP1 SUB PUSH1 0x1F AND DUP3 ADD SWAP2 JUMPDEST POP POP POP POP POP DUP2 MSTORE PUSH1 0x20 ADD PUSH1 0x1 DUP3 ADD SLOAD DUP2 MSTORE PUSH1 0x20 ADD PUSH1 0x2 DUP3 ADD DUP1 SLOAD PUSH2 0x687 SWAP1 PUSH2 0xCED JUMP JUMPDEST DUP1 PUSH1 0x1F ADD PUSH1 0x20 DUP1 SWAP2 DIV MUL PUSH1 0x20 ADD PUSH1 0x40 MLOAD SWAP1 DUP2 ADD PUSH1 0x40 MSTORE DUP1 SWAP3 SWAP2 SWAP1 DUP2 DUP2 MSTORE PUSH1 0x20 ADD DUP3 DUP1 SLOAD PUSH2 0x6B3 SWAP1 PUSH2 0xCED JUMP JUMPDEST DUP1 ISZERO PUSH2 0x6FE JUMPI DUP1 PUSH1 0x1F LT PUSH2 0x6D5 JUMPI PUSH2 0x100 DUP1 DUP4 SLOAD DIV MUL DUP4 MSTORE SWAP2 PUSH1 0x20 ADD SWAP2 PUSH2 0x6FE JUMP JUMPDEST DUP3 ADD SWAP2 SWAP1 PUSH0 MSTORE PUSH1 0x20 PUSH0 KECCAK256 SWAP1 JUMPDEST DUP2 SLOAD DUP2 MSTORE SWAP1 PUSH1 0x1 ADD SWAP1 PUSH1 0x20 ADD DUP1 DUP4 GT PUSH2 0x6E1 JUMPI DUP3 SWAP1 SUB PUSH1 0x1F AND DUP3 ADD SWAP2 JUMPDEST POP POP POP POP POP DUP2 MSTORE PUSH1 0x20 ADD PUSH1 0x3 DUP3 ADD DUP1 SLOAD PUSH2 0x717 SWAP1 PUSH2 0xCED JUMP JUMPDEST DUP1 PUSH1 0x1F ADD PUSH1 0x20 DUP1 SWAP2 DIV MUL PUSH1 0x20 ADD PUSH1 0x40 MLOAD SWAP1 DUP2 ADD PUSH1 0x40 MSTORE DUP1 SWAP3 SWAP2 SWAP1 DUP2 DUP2 MSTORE PUSH1 0x20 ADD DUP3 DUP1 SLOAD PUSH2 0x743 SWAP1 PUSH2 0xCED JUMP JUMPDEST DUP1 ISZERO PUSH2 0x78E JUMPI DUP1 PUSH1 0x1F LT PUSH2 0x765 JUMPI PUSH2 0x100 DUP1 DUP4 SLOAD DIV MUL DUP4 MSTORE SWAP2 PUSH1 0x20 ADD SWAP2 PUSH2 0x78E JUMP JUMPDEST DUP3 ADD SWAP2 SWAP1 PUSH0 MSTORE PUSH1 0x20 PUSH0 KECCAK256 SWAP1 JUMPDEST DUP2 SLOAD DUP2 MSTORE SWAP1 PUSH1 0x1 ADD SWAP1 PUSH1 0x20 ADD DUP1 DUP4 GT PUSH2 0x771 JUMPI DUP3 SWAP1 SUB PUSH1 0x1F AND DUP3 ADD SWAP2 JUMPDEST POP POP POP POP POP DUP2 MSTORE POP POP DUP2 MSTORE PUSH1 0x20 ADD SWAP1 PUSH1 0x1 ADD SWAP1 PUSH2 0x5BD JUMP JUMPDEST POP POP POP POP SWAP1 POP SWAP1 JUMP JUMPDEST PUSH0 PUSH1 0x40 MLOAD SWAP1 POP SWAP1 JUMP JUMPDEST PUSH0 PUSH0 REVERT JUMPDEST PUSH0 PUSH0 REVERT JUMPDEST PUSH0 PUSH0 REVERT JUMPDEST PUSH0 PUSH0 REVERT JUMPDEST PUSH0 PUSH1 0x1F NOT PUSH1 0x1F DUP4 ADD AND SWAP1 POP SWAP2 SWAP1 POP JUMP JUMPDEST PUSH32 0x4E487B7100000000000000000000000000000000000000000000000000000000 PUSH0 MSTORE PUSH1 0x41 PUSH1 0x4 MSTORE PUSH1 0x24 PUSH0 REVERT JUMPDEST PUSH2 0x80E DUP3 PUSH2 0x7C8 JUMP JUMPDEST DUP2 ADD DUP2 DUP2 LT PUSH8 0xFFFFFFFFFFFFFFFF DUP3 GT OR ISZERO PUSH2 0x82D JUMPI PUSH2 0x82C PUSH2 0x7D8 JUMP JUMPDEST JUMPDEST DUP1 PUSH1 0x40 MSTORE POP POP POP JUMP JUMPDEST PUSH0 PUSH2 0x83F PUSH2 0x7AF JUMP JUMPDEST SWAP1 POP PUSH2 0x84B DUP3 DUP3 PUSH2 0x805 JUMP JUMPDEST SWAP2 SWAP1 POP JUMP JUMPDEST PUSH0 PUSH8 0xFFFFFFFFFFFFFFFF DUP3 GT ISZERO PUSH2 0x86A JUMPI PUSH2 0x869 PUSH2 0x7D8 JUMP JUMPDEST JUMPDEST PUSH2 0x873 DUP3 PUSH2 0x7C8 JUMP JUMPDEST SWAP1 POP PUSH1 0x20 DUP2 ADD SWAP1 POP SWAP2 SWAP1 POP JUMP JUMPDEST DUP3 DUP2 DUP4 CALLDATACOPY PUSH0 DUP4 DUP4 ADD MSTORE POP POP POP JUMP JUMPDEST PUSH0 PUSH2 0x8A0 PUSH2 0x89B DUP5 PUSH2 0x850 JUMP JUMPDEST PUSH2 0x836 JUMP JUMPDEST SWAP1 POP DUP3 DUP2 MSTORE PUSH1 0x20 DUP2 ADD DUP5 DUP5 DUP5 ADD GT ISZERO PUSH2 0x8BC JUMPI PUSH2 0x8BB PUSH2 0x7C4 JUMP JUMPDEST JUMPDEST PUSH2 0x8C7 DUP5 DUP3 DUP6 PUSH2 0x880 JUMP JUMPDEST POP SWAP4 SWAP3 POP POP POP JUMP JUMPDEST PUSH0 DUP3 PUSH1 0x1F DUP4 ADD SLT PUSH2 0x8E3 JUMPI PUSH2 0x8E2 PUSH2 0x7C0 JUMP JUMPDEST JUMPDEST DUP2 CALLDATALOAD PUSH2 0x8F3 DUP5 DUP3 PUSH1 0x20 DUP7 ADD PUSH2 0x88E JUMP JUMPDEST SWAP2 POP POP SWAP3 SWAP2 POP POP JUMP JUMPDEST PUSH0 DUP2 SWAP1 POP SWAP2 SWAP1 POP JUMP JUMPDEST PUSH2 0x90E DUP2 PUSH2 0x8FC JUMP JUMPDEST DUP2 EQ PUSH2 0x918 JUMPI PUSH0 PUSH0 REVERT JUMPDEST POP JUMP JUMPDEST PUSH0 DUP2 CALLDATALOAD SWAP1 POP PUSH2 0x929 DUP2 PUSH2 0x905 JUMP JUMPDEST SWAP3 SWAP2 POP POP JUMP JUMPDEST PUSH0 PUSH0 PUSH0 PUSH0 PUSH1 0x80 DUP6 DUP8 SUB SLT ISZERO PUSH2 0x947 JUMPI PUSH2 0x946 PUSH2 0x7B8 JUMP JUMPDEST JUMPDEST PUSH0 DUP6 ADD CALLDATALOAD PUSH8 0xFFFFFFFFFFFFFFFF DUP2 GT ISZERO PUSH2 0x964 JUMPI PUSH2 0x963 PUSH2 0x7BC JUMP JUMPDEST JUMPDEST PUSH2 0x970 DUP8 DUP3 DUP9 ADD PUSH2 0x8CF JUMP JUMPDEST SWAP5 POP POP PUSH1 0x20 DUP6 ADD CALLDATALOAD PUSH8 0xFFFFFFFFFFFFFFFF DUP2 GT ISZERO PUSH2 0x991 JUMPI PUSH2 0x990 PUSH2 0x7BC JUMP JUMPDEST JUMPDEST PUSH2 0x99D DUP8 DUP3 DUP9 ADD PUSH2 0x8CF JUMP JUMPDEST SWAP4 POP POP PUSH1 0x40 PUSH2 0x9AE DUP8 DUP3 DUP9 ADD PUSH2 0x91B JUMP JUMPDEST SWAP3 POP POP PUSH1 0x60 DUP6 ADD CALLDATALOAD PUSH8 0xFFFFFFFFFFFFFFFF DUP2 GT ISZERO PUSH2 0x9CF JUMPI PUSH2 0x9CE PUSH2 0x7BC JUMP JUMPDEST JUMPDEST PUSH2 0x9DB DUP8 DUP3 DUP9 ADD PUSH2 0x8CF JUMP JUMPDEST SWAP2 POP POP SWAP3 SWAP6 SWAP2 SWAP5 POP SWAP3 POP JUMP JUMPDEST PUSH0 PUSH1 0x20 DUP3 DUP5 SUB SLT ISZERO PUSH2 0x9FC JUMPI PUSH2 0x9FB PUSH2 0x7B8 JUMP JUMPDEST JUMPDEST PUSH0 PUSH2 0xA09 DUP5 DUP3 DUP6 ADD PUSH2 0x91B JUMP JUMPDEST SWAP2 POP POP SWAP3 SWAP2 POP POP JUMP JUMPDEST PUSH0 DUP2 MLOAD SWAP1 POP SWAP2 SWAP1 POP JUMP JUMPDEST PUSH0 DUP3 DUP3 MSTORE PUSH1 0x20 DUP3 ADD SWAP1 POP SWAP3 SWAP2 POP POP JUMP JUMPDEST DUP3 DUP2 DUP4 MCOPY PUSH0 DUP4 DUP4 ADD MSTORE POP POP POP JUMP JUMPDEST PUSH0 PUSH2 0xA44 DUP3 PUSH2 0xA12 JUMP JUMPDEST PUSH2 0xA4E DUP2 DUP6 PUSH2 0xA1C JUMP JUMPDEST SWAP4 POP PUSH2 0xA5E DUP2 DUP6 PUSH1 0x20 DUP7 ADD PUSH2 0xA2C JUMP JUMPDEST PUSH2 0xA67 DUP2 PUSH2 0x7C8 JUMP JUMPDEST DUP5 ADD SWAP2 POP POP SWAP3 SWAP2 POP POP JUMP JUMPDEST PUSH2 0xA7B DUP2 PUSH2 0x8FC JUMP JUMPDEST DUP3 MSTORE POP POP JUMP JUMPDEST PUSH0 PUSH1 0x80 DUP3 ADD SWAP1 POP DUP2 DUP2 SUB PUSH0 DUP4 ADD MSTORE PUSH2 0xA99 DUP2 DUP8 PUSH2 0xA3A JUMP JUMPDEST SWAP1 POP PUSH2 0xAA8 PUSH1 0x20 DUP4 ADD DUP7 PUSH2 0xA72 JUMP JUMPDEST DUP2 DUP2 SUB PUSH1 0x40 DUP4 ADD MSTORE PUSH2 0xABA DUP2 DUP6 PUSH2 0xA3A JUMP JUMPDEST SWAP1 POP DUP2 DUP2 SUB PUSH1 0x60 DUP4 ADD MSTORE PUSH2 0xACE DUP2 DUP5 PUSH2 0xA3A JUMP JUMPDEST SWAP1 POP SWAP6 SWAP5 POP POP POP POP POP JUMP JUMPDEST PUSH0 PUSH1 0x20 DUP3 DUP5 SUB SLT ISZERO PUSH2 0xAEE JUMPI PUSH2 0xAED PUSH2 0x7B8 JUMP JUMPDEST JUMPDEST PUSH0 DUP3 ADD CALLDATALOAD PUSH8 0xFFFFFFFFFFFFFFFF DUP2 GT ISZERO PUSH2 0xB0B JUMPI PUSH2 0xB0A PUSH2 0x7BC JUMP JUMPDEST JUMPDEST PUSH2 0xB17 DUP5 DUP3 DUP6 ADD PUSH2 0x8CF JUMP JUMPDEST SWAP2 POP POP SWAP3 SWAP2 POP POP JUMP JUMPDEST PUSH0 DUP2 MLOAD SWAP1 POP SWAP2 SWAP1 POP JUMP JUMPDEST PUSH0 DUP3 DUP3 MSTORE PUSH1 0x20 DUP3 ADD SWAP1 POP SWAP3 SWAP2 POP POP JUMP JUMPDEST PUSH0 DUP2 SWAP1 POP PUSH1 0x20 DUP3 ADD SWAP1 POP SWAP2 SWAP1 POP JUMP JUMPDEST PUSH0 DUP3 DUP3 MSTORE PUSH1 0x20 DUP3 ADD SWAP1 POP SWAP3 SWAP2 POP POP JUMP JUMPDEST PUSH0 PUSH2 0xB63 DUP3 PUSH2 0xA12 JUMP JUMPDEST PUSH2 0xB6D DUP2 DUP6 PUSH2 0xB49 JUMP JUMPDEST SWAP4 POP PUSH2 0xB7D DUP2 DUP6 PUSH1 0x20 DUP7 ADD PUSH2 0xA2C JUMP JUMPDEST PUSH2 0xB86 DUP2 PUSH2 0x7C8 JUMP JUMPDEST DUP5 ADD SWAP2 POP POP SWAP3 SWAP2 POP POP JUMP JUMPDEST PUSH2 0xB9A DUP2 PUSH2 0x8FC JUMP JUMPDEST DUP3 MSTORE POP POP JUMP JUMPDEST PUSH0 PUSH1 0x80 DUP4 ADD PUSH0 DUP4 ADD MLOAD DUP5 DUP3 SUB PUSH0 DUP7 ADD MSTORE PUSH2 0xBBA DUP3 DUP3 PUSH2 0xB59 JUMP JUMPDEST SWAP2 POP POP PUSH1 0x20 DUP4 ADD MLOAD PUSH2 0xBCF PUSH1 0x20 DUP7 ADD DUP3 PUSH2 0xB91 JUMP JUMPDEST POP PUSH1 0x40 DUP4 ADD MLOAD DUP5 DUP3 SUB PUSH1 0x40 DUP7 ADD MSTORE PUSH2 0xBE7 DUP3 DUP3 PUSH2 0xB59 JUMP JUMPDEST SWAP2 POP POP PUSH1 0x60 DUP4 ADD MLOAD DUP5 DUP3 SUB PUSH1 0x60 DUP7 ADD MSTORE PUSH2 0xC01 DUP3 DUP3 PUSH2 0xB59 JUMP JUMPDEST SWAP2 POP POP DUP1 SWAP2 POP POP SWAP3 SWAP2 POP POP JUMP JUMPDEST PUSH0 PUSH2 0xC19 DUP4 DUP4 PUSH2 0xBA0 JUMP JUMPDEST SWAP1 POP SWAP3 SWAP2 POP POP JUMP JUMPDEST PUSH0 PUSH1 0x20 DUP3 ADD SWAP1 POP SWAP2 SWAP1 POP JUMP JUMPDEST PUSH0 PUSH2 0xC37 DUP3 PUSH2 0xB20 JUMP JUMPDEST PUSH2 0xC41 DUP2 DUP6 PUSH2 0xB2A JUMP JUMPDEST SWAP4 POP DUP4 PUSH1 0x20 DUP3 MUL DUP6 ADD PUSH2 0xC53 DUP6 PUSH2 0xB3A JUMP JUMPDEST DUP1 PUSH0 JUMPDEST DUP6 DUP2 LT ISZERO PUSH2 0xC8E JUMPI DUP5 DUP5 SUB DUP10 MSTORE DUP2 MLOAD PUSH2 0xC6F DUP6 DUP3 PUSH2 0xC0E JUMP JUMPDEST SWAP5 POP PUSH2 0xC7A DUP4 PUSH2 0xC21 JUMP JUMPDEST SWAP3 POP PUSH1 0x20 DUP11 ADD SWAP10 POP POP PUSH1 0x1 DUP2 ADD SWAP1 POP PUSH2 0xC56 JUMP JUMPDEST POP DUP3 SWAP8 POP DUP8 SWAP6 POP POP POP POP POP POP SWAP3 SWAP2 POP POP JUMP JUMPDEST PUSH0 PUSH1 0x20 DUP3 ADD SWAP1 POP DUP2 DUP2 SUB PUSH0 DUP4 ADD MSTORE PUSH2 0xCB8 DUP2 DUP5 PUSH2 0xC2D JUMP JUMPDEST SWAP1 POP SWAP3 SWAP2 POP POP JUMP JUMPDEST PUSH32 0x4E487B7100000000000000000000000000000000000000000000000000000000 PUSH0 MSTORE PUSH1 0x22 PUSH1 0x4 MSTORE PUSH1 0x24 PUSH0 REVERT JUMPDEST PUSH0 PUSH1 0x2 DUP3 DIV SWAP1 POP PUSH1 0x1 DUP3 AND DUP1 PUSH2 0xD04 JUMPI PUSH1 0x7F DUP3 AND SWAP2 POP JUMPDEST PUSH1 0x20 DUP3 LT DUP2 SUB PUSH2 0xD17 JUMPI PUSH2 0xD16 PUSH2 0xCC0 JUMP JUMPDEST JUMPDEST POP SWAP2 SWAP1 POP JUMP JUMPDEST PUSH0 DUP2 SWAP1 POP DUP2 PUSH0 MSTORE PUSH1 0x20 PUSH0 KECCAK256 SWAP1 POP SWAP2 SWAP1 POP JUMP JUMPDEST PUSH0 PUSH1 0x20 PUSH1 0x1F DUP4 ADD DIV SWAP1 POP SWAP2 SWAP1 POP JUMP JUMPDEST PUSH0 DUP3 DUP3 SHL SWAP1 POP SWAP3 SWAP2 POP POP JUMP JUMPDEST PUSH0 PUSH1 0x8 DUP4 MUL PUSH2 0xD79 PUSH32 0xFFFFFFFFFFFFFFFFFFFFFFFFFFFFFFFFFFFFFFFFFFFFFFFFFFFFFFFFFFFFFFFF DUP3 PUSH2 0xD3E JUMP JUMPDEST PUSH2 0xD83 DUP7 DUP4 PUSH2 0xD3E JUMP JUMPDEST SWAP6 POP DUP1 NOT DUP5 AND SWAP4 POP DUP1 DUP7 AND DUP5 OR SWAP3 POP POP POP SWAP4 SWAP3 POP POP POP JUMP JUMPDEST PUSH0 DUP2 SWAP1 POP SWAP2 SWAP1 POP JUMP JUMPDEST PUSH0 PUSH2 0xDBE PUSH2 0xDB9 PUSH2 0xDB4 DUP5 PUSH2 0x8FC JUMP JUMPDEST PUSH2 0xD9B JUMP JUMPDEST PUSH2 0x8FC JUMP JUMPDEST SWAP1 POP SWAP2 SWAP1 POP JUMP JUMPDEST PUSH0 DUP2 SWAP1 POP SWAP2 SWAP1 POP JUMP JUMPDEST PUSH2 0xDD7 DUP4 PUSH2 0xDA4 JUMP JUMPDEST PUSH2 0xDEB PUSH2 0xDE3 DUP3 PUSH2 0xDC5 JUMP JUMPDEST DUP5 DUP5 SLOAD PUSH2 0xD4A JUMP JUMPDEST DUP3 SSTORE POP POP POP POP JUMP JUMPDEST PUSH0 PUSH0 SWAP1 POP SWAP1 JUMP JUMPDEST PUSH2 0xE02 PUSH2 0xDF3 JUMP JUMPDEST PUSH2 0xE0D DUP2 DUP5 DUP5 PUSH2 0xDCE JUMP JUMPDEST POP POP POP JUMP JUMPDEST JUMPDEST DUP2 DUP2 LT ISZERO PUSH2 0xE30 JUMPI PUSH2 0xE25 PUSH0 DUP3 PUSH2 0xDFA JUMP JUMPDEST PUSH1 0x1 DUP2 ADD SWAP1 POP PUSH2 0xE13 JUMP JUMPDEST POP POP JUMP JUMPDEST PUSH1 0x1F DUP3 GT ISZERO PUSH2 0xE75 JUMPI PUSH2 0xE46 DUP2 PUSH2 0xD1D JUMP JUMPDEST PUSH2 0xE4F DUP5 PUSH2 0xD2F JUMP JUMPDEST DUP2 ADD PUSH1 0x20 DUP6 LT ISZERO PUSH2 0xE5E JUMPI DUP2 SWAP1 POP JUMPDEST PUSH2 0xE72 PUSH2 0xE6A DUP6 PUSH2 0xD2F JUMP JUMPDEST DUP4 ADD DUP3 PUSH2 0xE12 JUMP JUMPDEST POP POP JUMPDEST POP POP POP JUMP JUMPDEST PUSH0 DUP3 DUP3 SHR SWAP1 POP SWAP3 SWAP2 POP POP JUMP JUMPDEST PUSH0 PUSH2 0xE95 PUSH0 NOT DUP5 PUSH1 0x8 MUL PUSH2 0xE7A JUMP JUMPDEST NOT DUP1 DUP4 AND SWAP2 POP POP SWAP3 SWAP2 POP POP JUMP JUMPDEST PUSH0 PUSH2 0xEAD DUP4 DUP4 PUSH2 0xE86 JUMP JUMPDEST SWAP2 POP DUP3 PUSH1 0x2 MUL DUP3 OR SWAP1 POP SWAP3 SWAP2 POP POP JUMP JUMPDEST PUSH2 0xEC6 DUP3 PUSH2 0xA12 JUMP JUMPDEST PUSH8 0xFFFFFFFFFFFFFFFF DUP2 GT ISZERO PUSH2 0xEDF JUMPI PUSH2 0xEDE PUSH2 0x7D8 JUMP JUMPDEST JUMPDEST PUSH2 0xEE9 DUP3 SLOAD PUSH2 0xCED JUMP JUMPDEST PUSH2 0xEF4 DUP3 DUP3 DUP6 PUSH2 0xE34 JUMP JUMPDEST PUSH0 PUSH1 0x20 SWAP1 POP PUSH1 0x1F DUP4 GT PUSH1 0x1 DUP2 EQ PUSH2 0xF25 JUMPI PUSH0 DUP5 ISZERO PUSH2 0xF13 JUMPI DUP3 DUP8 ADD MLOAD SWAP1 POP JUMPDEST PUSH2 0xF1D DUP6 DUP3 PUSH2 0xEA2 JUMP JUMPDEST DUP7 SSTORE POP PUSH2 0xF84 JUMP JUMPDEST PUSH1 0x1F NOT DUP5 AND PUSH2 0xF33 DUP7 PUSH2 0xD1D JUMP JUMPDEST PUSH0 JUMPDEST DUP3 DUP2 LT ISZERO PUSH2 0xF5A JUMPI DUP5 DUP10 ADD MLOAD DUP3 SSTORE PUSH1 0x1 DUP3 ADD SWAP2 POP PUSH1 0x20 DUP6 ADD SWAP5 POP PUSH1 0x20 DUP2 ADD SWAP1 POP PUSH2 0xF35 JUMP JUMPDEST DUP7 DUP4 LT ISZERO PUSH2 0xF77 JUMPI DUP5 DUP10 ADD MLOAD PUSH2 0xF73 PUSH1 0x1F DUP10 AND DUP3 PUSH2 0xE86 JUMP JUMPDEST DUP4 SSTORE POP JUMPDEST PUSH1 0x1 PUSH1 0x2 DUP9 MUL ADD DUP9 SSTORE POP POP POP JUMPDEST POP POP POP POP POP POP JUMP JUMPDEST PUSH0 DUP2 SWAP1 POP SWAP3 SWAP2 POP POP JUMP JUMPDEST PUSH0 PUSH2 0xFA0 DUP3 PUSH2 0xA12 JUMP JUMPDEST PUSH2 0xFAA DUP2 DUP6 PUSH2 0xF8C JUMP JUMPDEST SWAP4 POP PUSH2 0xFBA DUP2 DUP6 PUSH1 0x20 DUP7 ADD PUSH2 0xA2C JUMP JUMPDEST DUP1 DUP5 ADD SWAP2 POP POP SWAP3 SWAP2 POP POP JUMP JUMPDEST PUSH0 PUSH2 0xFD1 DUP3 DUP5 PUSH2 0xF96 JUMP JUMPDEST SWAP2 POP DUP2 SWAP1 POP SWAP3 SWAP2 POP POP JUMP INVALID LOG2 PUSH5 0x6970667358 0x22 SLT KECCAK256 STOP 0xA7 0xB3 0xD3 PUSH14 0x6FB7D27E17FBA815C8EE629CE5BA SWAP1 SWAP3 0x2A JUMPDEST PUSH26 0xE0747CF1165A12BA64736F6C634300081F003300000000000000 "
				},
				"gasEstimates": {
					"creation": {
						"codeDepositCost": "822800",
						"executionCost": "855",
						"totalCost": "823655"
					},
					"external": {
						"codeToCourse(string)": "infinite",
						"courses(uint256)": "infinite",
						"createCourse(string,string,uint256,string)": "infinite",
						"getCourses()": "infinite"
					}
				},
				"methodIdentifiers": {
					"codeToCourse(string)": "981d6c33",
					"courses(uint256)": "96f979d2",
					"createCourse(string,string,uint256,string)": "904ae8ad",
					"getCourses()": "cc126479"
				}
			},
			"storageLayout": {
				"storage": [
					{
						"astId": 16,
						"contract": "Courses.sol:Courses",
						"label": "courses",
						"offset": 0,
						"slot": "0",
						"type": "t_array(t_struct(Course)12_storage)dyn_storage"
					},
					{
						"astId": 21,
						"contract": "Courses.sol:Courses",
						"label": "codeToCourse",
						"offset": 0,
						"slot": "1",
						"type": "t_mapping(t_string_memory_ptr,t_struct(Course)12_storage)"
					}
				],
				"types": {
					"t_array(t_struct(Course)12_storage)dyn_storage": {
						"base": "t_struct(Course)12_storage",
						"encoding": "dynamic_array",
						"label": "struct Courses.Course[]",
						"numberOfBytes": "32"
					},
					"t_mapping(t_string_memory_ptr,t_struct(Course)12_storage)": {
						"encoding": "mapping",
						"key": "t_string_memory_ptr",
						"label": "mapping(string => struct Courses.Course)",
						"numberOfBytes": "32",
						"value": "t_struct(Course)12_storage"
					},
					"t_string_memory_ptr": {
						"encoding": "bytes",
						"label": "string",
						"numberOfBytes": "32"
					},
					"t_string_storage": {
						"encoding": "bytes",
						"label": "string",
						"numberOfBytes": "32"
					},
					"t_struct(Course)12_storage": {
						"encoding": "inplace",
						"label": "struct Courses.Course",
						"members": [
							{
								"astId": 5,
								"contract": "Courses.sol:Courses",
								"label": "title",
								"offset": 0,
								"slot": "0",
								"type": "t_string_storage"
							},
							{
								"astId": 7,
								"contract": "Courses.sol:Courses",
								"label": "unit",
								"offset": 0,
								"slot": "1",
								"type": "t_uint256"
							},
							{
								"astId": 9,
								"contract": "Courses.sol:Courses",
								"label": "code",
								"offset": 0,
								"slot": "2",
								"type": "t_string_storage"
							},
							{
								"astId": 11,
								"contract": "Courses.sol:Courses",
								"label": "lecturer",
								"offset": 0,
								"slot": "3",
								"type": "t_string_storage"
							}
						],
						"numberOfBytes": "128"
					},
					"t_uint256": {
						"encoding": "inplace",
						"label": "uint256",
						"numberOfBytes": "32"
					}
				}
			},
			"userdoc": {
				"kind": "user",
				"methods": {},
				"version": 1
			}
		}
	}
}