{
	"StudentRecords.sol": {
		"StudentRecords": {
			"abi": [
				{
					"inputs": [
						{
							"internalType": "uint256",
							"name": "_index",
							"type": "uint256"
						}
					],
					"name": "getStudentByIndex",
					"outputs": [
						{
							"components": [
								{
									"internalType": "string",
									"name": "name",
									"type": "string"
								},
								{
									"internalType": "uint256",
									"name": "age",
									"type": "uint256"
								},
								{
									"internalType": "string",
									"name": "gender",
									"type": "string"
								},
								{
									"internalType": "string",
									"name": "department",
									"type": "string"
								}
							],
							"internalType": "struct StudentRecords.Student",
							"name": "",
							"type": "tuple"
						}
					],
					"stateMutability": "view",
					"type": "function"
				},
				{
					"inputs": [],
					"name": "getStudents",
					"outputs": [
						{
							"components": [
								{
									"internalType": "string",
									"name": "name",
									"type": "string"
								},
								{
									"internalType": "uint256",
									"name": "age",
									"type": "uint256"
								},
								{
									"internalType": "string",
									"name": "gender",
									"type": "string"
								},
								{
									"internalType": "string",
									"name": "department",
									"type": "string"
								}
							],
							"internalType": "struct StudentRecords.Student[]",
							"name": "",
							"type": "tuple[]"
						}
					],
					"stateMutability": "view",
					"type": "function"
				},
				{
					"inputs": [
						{
							"internalType": "string",
							"name": "",
							"type": "string"
						}
					],
					"name": "nameToAge",
					"outputs": [
						{
							"internalType": "uint256",
							"name": "",
							"type": "uint256"
						}
					],
					"stateMutability": "view",
					"type": "function"
				},
				{
					"inputs": [
						{
							"internalType": "string",
							"name": "",
							"type": "string"
						}
					],
					"name": "nameToRecord",
					"outputs": [
						{
							"internalType": "string",
							"name": "name",
							"type": "string"
						},
						{
							"internalType": "uint256",
							"name": "age",
							"type": "uint256"
						},
						{
							"internalType": "string",
							"name": "gender",
							"type": "string"
						},
						{
							"internalType": "string",
							"name": "department",
							"type": "string"
						}
					],
					"stateMutability": "view",
					"type": "function"
				},
				{
					"inputs": [
						{
							"internalType": "string",
							"name": "_name",
							"type": "string"
						},
						{
							"internalType": "uint256",
							"name": "_age",
							"type": "uint256"
						},
						{
							"internalType": "string",
							"name": "_gender",
							"type": "string"
						},
						{
							"internalType": "string",
							"name": "_department",
							"type": "string"
						}
					],
					"name": "registerStudent",
					"outputs": [],
					"stateMutability": "nonpayable",
					"type": "function"
				}
			],
			"devdoc": {
				"kind": "dev",
				"methods": {},
				"version": 1
			},
			"evm": {
				"assembly": "    /* \"StudentRecords.sol\":59:884  contract StudentRecords {... */\n  mstore(0x40, 0x80)\n  callvalue\n  dup1\n  iszero\n  tag_1\n  jumpi\n  revert(0x00, 0x00)\ntag_1:\n  pop\n  dataSize(sub_0)\n  dup1\n  dataOffset(sub_0)\n  0x00\n  codecopy\n  0x00\n  return\nstop\n\nsub_0: assembly {\n        /* \"StudentRecords.sol\":59:884  contract StudentRecords {... */\n      mstore(0x40, 0x80)\n      callvalue\n      dup1\n      iszero\n      tag_1\n      jumpi\n      revert(0x00, 0x00)\n    tag_1:\n      pop\n      jumpi(tag_2, lt(calldatasize, 0x04))\n      shr(0xe0, calldataload(0x00))\n      dup1\n      0x8917d33c\n      eq\n      tag_3\n      jumpi\n      dup1\n      0x90c3ee4d\n      eq\n      tag_4\n      jumpi\n      dup1\n      0xaa67f06b\n      eq\n      tag_5\n      jumpi\n      dup1\n      0xdc78302b\n      eq\n      tag_6\n      jumpi\n      dup1\n      0xf1d064b3\n      eq\n      tag_7\n      jumpi\n    tag_2:\n      revert(0x00, 0x00)\n        /* \"StudentRecords.sol\":336:655  function registerStudent(... */\n    tag_3:\n      tag_8\n      0x04\n      dup1\n      calldatasize\n      sub\n      dup2\n      add\n      swap1\n      tag_9\n      swap2\n      swap1\n      tag_10\n      jump\t// in\n    tag_9:\n      tag_11\n      jump\t// in\n    tag_8:\n      stop\n        /* \"StudentRecords.sol\":234:277  mapping(string => uint256) public nameToAge */\n    tag_4:\n      tag_12\n      0x04\n      dup1\n      calldatasize\n      sub\n      dup2\n      add\n      swap1\n      tag_13\n      swap2\n      swap1\n      tag_14\n      jump\t// in\n    tag_13:\n      tag_15\n      jump\t// in\n    tag_12:\n      mload(0x40)\n      tag_16\n      swap2\n      swap1\n      tag_17\n      jump\t// in\n    tag_16:\n      mload(0x40)\n      dup1\n      swap2\n      sub\n      swap1\n      return\n        /* \"StudentRecords.sol\":283:329  mapping(string => Student) public nameToRecord */\n    tag_5:\n      tag_18\n      0x04\n      dup1\n      calldatasize\n      sub\n      dup2\n      add\n      swap1\n      tag_19\n      swap2\n      swap1\n      tag_14\n      jump\t// in\n    tag_19:\n      tag_20\n      jump\t// in\n    tag_18:\n      mload(0x40)\n      tag_21\n      swap5\n      swap4\n      swap3\n      swap2\n      swap1\n      tag_22\n      jump\t// in\n    tag_21:\n      mload(0x40)\n      dup1\n      swap2\n      sub\n      swap1\n      return\n        /* \"StudentRecords.sol\":762:882  function getStudentByIndex(uint256 _index) public view returns (Student memory) {... */\n    tag_6:\n      tag_23\n      0x04\n      dup1\n      calldatasize\n      sub\n      dup2\n      add\n      swap1\n      tag_24\n      swap2\n      swap1\n      tag_25\n      jump\t// in\n    tag_24:\n      tag_26\n      jump\t// in\n    tag_23:\n      mload(0x40)\n      tag_27\n      swap2\n      swap1\n      tag_28\n      jump\t// in\n    tag_27:\n      mload(0x40)\n      dup1\n      swap2\n      sub\n      swap1\n      return\n        /* \"StudentRecords.sol\":661:756  function getStudents () public view returns (Student[] memory) {... */\n    tag_7:\n      tag_29\n      tag_30\n      jump\t// in\n    tag_29:\n      mload(0x40)\n      tag_31\n      swap2\n      swap1\n      tag_32\n      jump\t// in\n    tag_31:\n      mload(0x40)\n      dup1\n      swap2\n      sub\n      swap1\n      return\n        /* \"StudentRecords.sol\":336:655  function registerStudent(... */\n    tag_11:\n        /* \"StudentRecords.sol\":501:526  Student memory newStudent */\n      0x00\n        /* \"StudentRecords.sol\":529:571  Student(_name, _age, _gender, _department) */\n      mload(0x40)\n      dup1\n      0x80\n      add\n      0x40\n      mstore\n      dup1\n        /* \"StudentRecords.sol\":537:542  _name */\n      dup7\n        /* \"StudentRecords.sol\":529:571  Student(_name, _age, _gender, _department) */\n      dup2\n      mstore\n      0x20\n      add\n        /* \"StudentRecords.sol\":544:548  _age */\n      dup6\n        /* \"StudentRecords.sol\":529:571  Student(_name, _age, _gender, _department) */\n      dup2\n      mstore\n      0x20\n      add\n        /* \"StudentRecords.sol\":550:557  _gender */\n      dup5\n        /* \"StudentRecords.sol\":529:571  Student(_name, _age, _gender, _department) */\n      dup2\n      mstore\n      0x20\n      add\n        /* \"StudentRecords.sol\":559:570  _department */\n      dup4\n        /* \"StudentRecords.sol\":529:571  Student(_name, _age, _gender, _department) */\n      dup2\n      mstore\n      pop\n        /* \"StudentRecords.sol\":501:571  Student memory newStudent = Student(_name, _age, _gender, _department) */\n      swap1\n      pop\n        /* \"StudentRecords.sol\":581:589  students */\n      0x00\n        /* \"StudentRecords.sol\":595:605  newStudent */\n      dup2\n        /* \"StudentRecords.sol\":581:606  students.push(newStudent) */\n      swap1\n      dup1\n      0x01\n      dup2\n      sload\n      add\n      dup1\n      dup3\n      sstore\n      dup1\n      swap2\n      pop\n      pop\n      0x01\n      swap1\n      sub\n      swap1\n      0x00\n      mstore\n      keccak256(0x00, 0x20)\n      swap1\n      0x04\n      mul\n      add\n      0x00\n      swap1\n      swap2\n      swap1\n      swap2\n      swap1\n      swap2\n      pop\n      0x00\n      dup3\n      add\n      mload\n      dup2\n      0x00\n      add\n      swap1\n      dup2\n      tag_35\n      swap2\n      swap1\n      tag_36\n      jump\t// in\n    tag_35:\n      pop\n      0x20\n      dup3\n      add\n      mload\n      dup2\n      0x01\n      add\n      sstore\n      0x40\n      dup3\n      add\n      mload\n      dup2\n      0x02\n      add\n      swap1\n      dup2\n      tag_37\n      swap2\n      swap1\n      tag_36\n      jump\t// in\n    tag_37:\n      pop\n      0x60\n      dup3\n      add\n      mload\n      dup2\n      0x03\n      add\n      swap1\n      dup2\n      tag_38\n      swap2\n      swap1\n      tag_36\n      jump\t// in\n    tag_38:\n      pop\n      pop\n      pop\n        /* \"StudentRecords.sol\":638:648  newStudent */\n      dup1\n        /* \"StudentRecords.sol\":616:628  nameToRecord */\n      0x02\n        /* \"StudentRecords.sol\":629:634  _name */\n      dup7\n        /* \"StudentRecords.sol\":616:635  nameToRecord[_name] */\n      mload(0x40)\n      tag_39\n      swap2\n      swap1\n      tag_40\n      jump\t// in\n    tag_39:\n      swap1\n      dup2\n      mstore\n      0x20\n      add\n      mload(0x40)\n      dup1\n      swap2\n      sub\n      swap1\n      keccak256\n        /* \"StudentRecords.sol\":616:648  nameToRecord[_name] = newStudent */\n      0x00\n      dup3\n      add\n      mload\n      dup2\n      0x00\n      add\n      swap1\n      dup2\n      tag_41\n      swap2\n      swap1\n      tag_36\n      jump\t// in\n    tag_41:\n      pop\n      0x20\n      dup3\n      add\n      mload\n      dup2\n      0x01\n      add\n      sstore\n      0x40\n      dup3\n      add\n      mload\n      dup2\n      0x02\n      add\n      swap1\n      dup2\n      tag_42\n      swap2\n      swap1\n      tag_36\n      jump\t// in\n    tag_42:\n      pop\n      0x60\n      dup3\n      add\n      mload\n      dup2\n      0x03\n      add\n      swap1\n      dup2\n      tag_43\n      swap2\n      swap1\n      tag_36\n      jump\t// in\n    tag_43:\n      pop\n      swap1\n      pop\n      pop\n        /* \"StudentRecords.sol\":491:655  {... */\n      pop\n        /* \"StudentRecords.sol\":336:655  function registerStudent(... */\n      pop\n      pop\n      pop\n      pop\n      jump\t// out\n        /* \"StudentRecords.sol\":234:277  mapping(string => uint256) public nameToAge */\n    tag_15:\n      0x01\n      dup2\n      dup1\n      mload\n      0x20\n      dup2\n      add\n      dup3\n      add\n      dup1\n      mload\n      dup5\n      dup3\n      mstore\n      0x20\n      dup4\n      add\n      0x20\n      dup6\n      add\n      keccak256\n      dup2\n      dup4\n      mstore\n      dup1\n      swap6\n      pop\n      pop\n      pop\n      pop\n      pop\n      pop\n      0x00\n      swap2\n      pop\n      swap1\n      pop\n      sload\n      dup2\n      jump\t// out\n        /* \"StudentRecords.sol\":283:329  mapping(string => Student) public nameToRecord */\n    tag_20:\n      0x02\n      dup2\n      dup1\n      mload\n      0x20\n      dup2\n      add\n      dup3\n      add\n      dup1\n      mload\n      dup5\n      dup3\n      mstore\n      0x20\n      dup4\n      add\n      0x20\n      dup6\n      add\n      keccak256\n      dup2\n      dup4\n      mstore\n      dup1\n      swap6\n      pop\n      pop\n      pop\n      pop\n      pop\n      pop\n      0x00\n      swap2\n      pop\n      swap1\n      pop\n      dup1\n      0x00\n      add\n      dup1\n      sload\n      tag_44\n      swap1\n      tag_45\n      jump\t// in\n    tag_44:\n      dup1\n      0x1f\n      add\n      0x20\n      dup1\n      swap2\n      div\n      mul\n      0x20\n      add\n      mload(0x40)\n      swap1\n      dup2\n      add\n      0x40\n      mstore\n      dup1\n      swap3\n      swap2\n      swap1\n      dup2\n      dup2\n      mstore\n      0x20\n      add\n      dup3\n      dup1\n      sload\n      tag_46\n      swap1\n      tag_45\n      jump\t// in\n    tag_46:\n      dup1\n      iszero\n      tag_47\n      jumpi\n      dup1\n      0x1f\n      lt\n      tag_48\n      jumpi\n      0x0100\n      dup1\n      dup4\n      sload\n      div\n      mul\n      dup4\n      mstore\n      swap2\n      0x20\n      add\n      swap2\n      jump(tag_47)\n    tag_48:\n      dup3\n      add\n      swap2\n      swap1\n      0x00\n      mstore\n      keccak256(0x00, 0x20)\n      swap1\n    tag_49:\n      dup2\n      sload\n      dup2\n      mstore\n      swap1\n      0x01\n      add\n      swap1\n      0x20\n      add\n      dup1\n      dup4\n      gt\n      tag_49\n      jumpi\n      dup3\n      swap1\n      sub\n      0x1f\n      and\n      dup3\n      add\n      swap2\n    tag_47:\n      pop\n      pop\n      pop\n      pop\n      pop\n      swap1\n      dup1\n      0x01\n      add\n      sload\n      swap1\n      dup1\n      0x02\n      add\n      dup1\n      sload\n      tag_50\n      swap1\n      tag_45\n      jump\t// in\n    tag_50:\n      dup1\n      0x1f\n      add\n      0x20\n      dup1\n      swap2\n      div\n      mul\n      0x20\n      add\n      mload(0x40)\n      swap1\n      dup2\n      add\n      0x40\n      mstore\n      dup1\n      swap3\n      swap2\n      swap1\n      dup2\n      dup2\n      mstore\n      0x20\n      add\n      dup3\n      dup1\n      sload\n      tag_51\n      swap1\n      tag_45\n      jump\t// in\n    tag_51:\n      dup1\n      iszero\n      tag_52\n      jumpi\n      dup1\n      0x1f\n      lt\n      tag_53\n      jumpi\n      0x0100\n      dup1\n      dup4\n      sload\n      div\n      mul\n      dup4\n      mstore\n      swap2\n      0x20\n      add\n      swap2\n      jump(tag_52)\n    tag_53:\n      dup3\n      add\n      swap2\n      swap1\n      0x00\n      mstore\n      keccak256(0x00, 0x20)\n      swap1\n    tag_54:\n      dup2\n      sload\n      dup2\n      mstore\n      swap1\n      0x01\n      add\n      swap1\n      0x20\n      add\n      dup1\n      dup4\n      gt\n      tag_54\n      jumpi\n      dup3\n      swap1\n      sub\n      0x1f\n      and\n      dup3\n      add\n      swap2\n    tag_52:\n      pop\n      pop\n      pop\n      pop\n      pop\n      swap1\n      dup1\n      0x03\n      add\n      dup1\n      sload\n      tag_55\n      swap1\n      tag_45\n      jump\t// in\n    tag_55:\n      dup1\n      0x1f\n      add\n      0x20\n      dup1\n      swap2\n      div\n      mul\n      0x20\n      add\n      mload(0x40)\n      swap1\n      dup2\n      add\n      0x40\n      mstore\n      dup1\n      swap3\n      swap2\n      swap1\n      dup2\n      dup2\n      mstore\n      0x20\n      add\n      dup3\n      dup1\n      sload\n      tag_56\n      swap1\n      tag_45\n      jump\t// in\n    tag_56:\n      dup1\n      iszero\n      tag_57\n      jumpi\n      dup1\n      0x1f\n      lt\n      tag_58\n      jumpi\n      0x0100\n      dup1\n      dup4\n      sload\n      div\n      mul\n      dup4\n      mstore\n      swap2\n      0x20\n      add\n      swap2\n      jump(tag_57)\n    tag_58:\n      dup3\n      add\n      swap2\n      swap1\n      0x00\n      mstore\n      keccak256(0x00, 0x20)\n      swap1\n    tag_59:\n      dup2\n      sload\n      dup2\n      mstore\n      swap1\n      0x01\n      add\n      swap1\n      0x20\n      add\n      dup1\n      dup4\n      gt\n      tag_59\n      jumpi\n      dup3\n      swap1\n      sub\n      0x1f\n      and\n      dup3\n      add\n      swap2\n    tag_57:\n      pop\n      pop\n      pop\n      pop\n      pop\n      swap1\n      pop\n      dup5\n      jump\t// out\n        /* \"StudentRecords.sol\":762:882  function getStudentByIndex(uint256 _index) public view returns (Student memory) {... */\n    tag_26:\n        /* \"StudentRecords.sol\":826:840  Student memory */\n      tag_60\n      tag_61\n      jump\t// in\n    tag_60:\n        /* \"StudentRecords.sol\":859:867  students */\n      0x00\n        /* \"StudentRecords.sol\":868:874  _index */\n      dup3\n        /* \"StudentRecords.sol\":859:875  students[_index] */\n      dup2\n      sload\n      dup2\n      lt\n      tag_63\n      jumpi\n      tag_64\n      tag_65\n      jump\t// in\n    tag_64:\n    tag_63:\n      swap1\n      0x00\n      mstore\n      keccak256(0x00, 0x20)\n      swap1\n      0x04\n      mul\n      add\n        /* \"StudentRecords.sol\":852:875  return students[_index] */\n      mload(0x40)\n      dup1\n      0x80\n      add\n      0x40\n      mstore\n      swap1\n      dup2\n      0x00\n      dup3\n      add\n      dup1\n      sload\n      tag_67\n      swap1\n      tag_45\n      jump\t// in\n    tag_67:\n      dup1\n      0x1f\n      add\n      0x20\n      dup1\n      swap2\n      div\n      mul\n      0x20\n      add\n      mload(0x40)\n      swap1\n      dup2\n      add\n      0x40\n      mstore\n      dup1\n      swap3\n      swap2\n      swap1\n      dup2\n      dup2\n      mstore\n      0x20\n      add\n      dup3\n      dup1\n      sload\n      tag_68\n      swap1\n      tag_45\n      jump\t// in\n    tag_68:\n      dup1\n      iszero\n      tag_69\n      jumpi\n      dup1\n      0x1f\n      lt\n      tag_70\n      jumpi\n      0x0100\n      dup1\n      dup4\n      sload\n      div\n      mul\n      dup4\n      mstore\n      swap2\n      0x20\n      add\n      swap2\n      jump(tag_69)\n    tag_70:\n      dup3\n      add\n      swap2\n      swap1\n      0x00\n      mstore\n      keccak256(0x00, 0x20)\n      swap1\n    tag_71:\n      dup2\n      sload\n      dup2\n      mstore\n      swap1\n      0x01\n      add\n      swap1\n      0x20\n      add\n      dup1\n      dup4\n      gt\n      tag_71\n      jumpi\n      dup3\n      swap1\n      sub\n      0x1f\n      and\n      dup3\n      add\n      swap2\n    tag_69:\n      pop\n      pop\n      pop\n      pop\n      pop\n      dup2\n      mstore\n      0x20\n      add\n      0x01\n      dup3\n      add\n      sload\n      dup2\n      mstore\n      0x20\n      add\n      0x02\n      dup3\n      add\n      dup1\n      sload\n      tag_72\n      swap1\n      tag_45\n      jump\t// in\n    tag_72:\n      dup1\n      0x1f\n      add\n      0x20\n      dup1\n      swap2\n      div\n      mul\n      0x20\n      add\n      mload(0x40)\n      swap1\n      dup2\n      add\n      0x40\n      mstore\n      dup1\n      swap3\n      swap2\n      swap1\n      dup2\n      dup2\n      mstore\n      0x20\n      add\n      dup3\n      dup1\n      sload\n      tag_73\n      swap1\n      tag_45\n      jump\t// in\n    tag_73:\n      dup1\n      iszero\n      tag_74\n      jumpi\n      dup1\n      0x1f\n      lt\n      tag_75\n      jumpi\n      0x0100\n      dup1\n      dup4\n      sload\n      div\n      mul\n      dup4\n      mstore\n      swap2\n      0x20\n      add\n      swap2\n      jump(tag_74)\n    tag_75:\n      dup3\n      add\n      swap2\n      swap1\n      0x00\n      mstore\n      keccak256(0x00, 0x20)\n      swap1\n    tag_76:\n      dup2\n      sload\n      dup2\n      mstore\n      swap1\n      0x01\n      add\n      swap1\n      0x20\n      add\n      dup1\n      dup4\n      gt\n      tag_76\n      jumpi\n      dup3\n      swap1\n      sub\n      0x1f\n      and\n      dup3\n      add\n      swap2\n    tag_74:\n      pop\n      pop\n      pop\n      pop\n      pop\n      dup2\n      mstore\n      0x20\n      add\n      0x03\n      dup3\n      add\n      dup1\n      sload\n      tag_77\n      swap1\n      tag_45\n      jump\t// in\n    tag_77:\n      dup1\n      0x1f\n      add\n      0x20\n      dup1\n      swap2\n      div\n      mul\n      0x20\n      add\n      mload(0x40)\n      swap1\n      dup2\n      add\n      0x40\n      mstore\n      dup1\n      swap3\n      swap2\n      swap1\n      dup2\n      dup2\n      mstore\n      0x20\n      add\n      dup3\n      dup1\n      sload\n      tag_78\n      swap1\n      tag_45\n      jump\t// in\n    tag_78:\n      dup1\n      iszero\n      tag_79\n      jumpi\n      dup1\n      0x1f\n      lt\n      tag_80\n      jumpi\n      0x0100\n      dup1\n      dup4\n      sload\n      div\n      mul\n      dup4\n      mstore\n      swap2\n      0x20\n      add\n      swap2\n      jump(tag_79)\n    tag_80:\n      dup3\n      add\n      swap2\n      swap1\n      0x00\n      mstore\n      keccak256(0x00, 0x20)\n      swap1\n    tag_81:\n      dup2\n      sload\n      dup2\n      mstore\n      swap1\n      0x01\n      add\n      swap1\n      0x20\n      add\n      dup1\n      dup4\n      gt\n      tag_81\n      jumpi\n      dup3\n      swap1\n      sub\n      0x1f\n      and\n      dup3\n      add\n      swap2\n    tag_79:\n      pop\n      pop\n      pop\n      pop\n      pop\n      dup2\n      mstore\n      pop\n      pop\n      swap1\n      pop\n        /* \"StudentRecords.sol\":762:882  function getStudentByIndex(uint256 _index) public view returns (Student memory) {... */\n      swap2\n      swap1\n      pop\n      jump\t// out\n        /* \"StudentRecords.sol\":661:756  function getStudents () public view returns (Student[] memory) {... */\n    tag_30:\n        /* \"StudentRecords.sol\":706:722  Student[] memory */\n      0x60\n        /* \"StudentRecords.sol\":741:749  students */\n      0x00\n        /* \"StudentRecords.sol\":734:749  return students */\n      dup1\n      sload\n      dup1\n      0x20\n      mul\n      0x20\n      add\n      mload(0x40)\n      swap1\n      dup2\n      add\n      0x40\n      mstore\n      dup1\n      swap3\n      swap2\n      swap1\n      dup2\n      dup2\n      mstore\n      0x20\n      add\n      0x00\n      swap1\n    tag_83:\n      dup3\n      dup3\n      lt\n      iszero\n      tag_84\n      jumpi\n      dup4\n      dup3\n      swap1\n      0x00\n      mstore\n      keccak256(0x00, 0x20)\n      swap1\n      0x04\n      mul\n      add\n      mload(0x40)\n      dup1\n      0x80\n      add\n      0x40\n      mstore\n      swap1\n      dup2\n      0x00\n      dup3\n      add\n      dup1\n      sload\n      tag_86\n      swap1\n      tag_45\n      jump\t// in\n    tag_86:\n      dup1\n      0x1f\n      add\n      0x20\n      dup1\n      swap2\n      div\n      mul\n      0x20\n      add\n      mload(0x40)\n      swap1\n      dup2\n      add\n      0x40\n      mstore\n      dup1\n      swap3\n      swap2\n      swap1\n      dup2\n      dup2\n      mstore\n      0x20\n      add\n      dup3\n      dup1\n      sload\n      tag_87\n      swap1\n      tag_45\n      jump\t// in\n    tag_87:\n      dup1\n      iszero\n      tag_88\n      jumpi\n      dup1\n      0x1f\n      lt\n      tag_89\n      jumpi\n      0x0100\n      dup1\n      dup4\n      sload\n      div\n      mul\n      dup4\n      mstore\n      swap2\n      0x20\n      add\n      swap2\n      jump(tag_88)\n    tag_89:\n      dup3\n      add\n      swap2\n      swap1\n      0x00\n      mstore\n      keccak256(0x00, 0x20)\n      swap1\n    tag_90:\n      dup2\n      sload\n      dup2\n      mstore\n      swap1\n      0x01\n      add\n      swap1\n      0x20\n      add\n      dup1\n      dup4\n      gt\n      tag_90\n      jumpi\n      dup3\n      swap1\n      sub\n      0x1f\n      and\n      dup3\n      add\n      swap2\n    tag_88:\n      pop\n      pop\n      pop\n      pop\n      pop\n      dup2\n      mstore\n      0x20\n      add\n      0x01\n      dup3\n      add\n      sload\n      dup2\n      mstore\n      0x20\n      add\n      0x02\n      dup3\n      add\n      dup1\n      sload\n      tag_91\n      swap1\n      tag_45\n      jump\t// in\n    tag_91:\n      dup1\n      0x1f\n      add\n      0x20\n      dup1\n      swap2\n      div\n      mul\n      0x20\n      add\n      mload(0x40)\n      swap1\n      dup2\n      add\n      0x40\n      mstore\n      dup1\n      swap3\n      swap2\n      swap1\n      dup2\n      dup2\n      mstore\n      0x20\n      add\n      dup3\n      dup1\n      sload\n      tag_92\n      swap1\n      tag_45\n      jump\t// in\n    tag_92:\n      dup1\n      iszero\n      tag_93\n      jumpi\n      dup1\n      0x1f\n      lt\n      tag_94\n      jumpi\n      0x0100\n      dup1\n      dup4\n      sload\n      div\n      mul\n      dup4\n      mstore\n      swap2\n      0x20\n      add\n      swap2\n      jump(tag_93)\n    tag_94:\n      dup3\n      add\n      swap2\n      swap1\n      0x00\n      mstore\n      keccak256(0x00, 0x20)\n      swap1\n    tag_95:\n      dup2\n      sload\n      dup2\n      mstore\n      swap1\n      0x01\n      add\n      swap1\n      0x20\n      add\n      dup1\n      dup4\n      gt\n      tag_95\n      jumpi\n      dup3\n      swap1\n      sub\n      0x1f\n      and\n      dup3\n      add\n      swap2\n    tag_93:\n      pop\n      pop\n      pop\n      pop\n      pop\n      dup2\n      mstore\n      0x20\n      add\n      0x03\n      dup3\n      add\n      dup1\n      sload\n      tag_96\n      swap1\n      tag_45\n      jump\t// in\n    tag_96:\n      dup1\n      0x1f\n      add\n      0x20\n      dup1\n      swap2\n      div\n      mul\n      0x20\n      add\n      mload(0x40)\n      swap1\n      dup2\n      add\n      0x40\n      mstore\n      dup1\n      swap3\n      swap2\n      swap1\n      dup2\n      dup2\n      mstore\n      0x20\n      add\n      dup3\n      dup1\n      sload\n      tag_97\n      swap1\n      tag_45\n      jump\t// in\n    tag_97:\n      dup1\n      iszero\n      tag_98\n      jumpi\n      dup1\n      0x1f\n      lt\n      tag_99\n      jumpi\n      0x0100\n      dup1\n      dup4\n      sload\n      div\n      mul\n      dup4\n      mstore\n      swap2\n      0x20\n      add\n      swap2\n      jump(tag_98)\n    tag_99:\n      dup3\n      add\n      swap2\n      swap1\n      0x00\n      mstore\n      keccak256(0x00, 0x20)\n      swap1\n    tag_100:\n      dup2\n      sload\n      dup2\n      mstore\n      swap1\n      0x01\n      add\n      swap1\n      0x20\n      add\n      dup1\n      dup4\n      gt\n      tag_100\n      jumpi\n      dup3\n      swap1\n      sub\n      0x1f\n      and\n      dup3\n      add\n      swap2\n    tag_98:\n      pop\n      pop\n      pop\n      pop\n      pop\n      dup2\n      mstore\n      pop\n      pop\n      dup2\n      mstore\n      0x20\n      add\n      swap1\n      0x01\n      add\n      swap1\n      jump(tag_83)\n    tag_84:\n      pop\n      pop\n      pop\n      pop\n      swap1\n      pop\n        /* \"StudentRecords.sol\":661:756  function getStudents () public view returns (Student[] memory) {... */\n      swap1\n      jump\t// out\n    tag_61:\n      mload(0x40)\n      dup1\n      0x80\n      add\n      0x40\n      mstore\n      dup1\n      0x60\n      dup2\n      mstore\n      0x20\n      add\n      0x00\n      dup2\n      mstore\n      0x20\n      add\n      0x60\n      dup2\n      mstore\n      0x20\n      add\n      0x60\n      dup2\n      mstore\n      pop\n      swap1\n      jump\t// out\n        /* \"#utility.yul\":7:82   */\n    tag_101:\n        /* \"#utility.yul\":40:46   */\n      0x00\n        /* \"#utility.yul\":73:75   */\n      0x40\n        /* \"#utility.yul\":67:76   */\n      mload\n        /* \"#utility.yul\":57:76   */\n      swap1\n      pop\n        /* \"#utility.yul\":7:82   */\n      swap1\n      jump\t// out\n        /* \"#utility.yul\":88:205   */\n    tag_102:\n        /* \"#utility.yul\":197:198   */\n      0x00\n        /* \"#utility.yul\":194:195   */\n      0x00\n        /* \"#utility.yul\":187:199   */\n      revert\n        /* \"#utility.yul\":211:328   */\n    tag_103:\n        /* \"#utility.yul\":320:321   */\n      0x00\n        /* \"#utility.yul\":317:318   */\n      0x00\n        /* \"#utility.yul\":310:322   */\n      revert\n        /* \"#utility.yul\":334:451   */\n    tag_104:\n        /* \"#utility.yul\":443:444   */\n      0x00\n        /* \"#utility.yul\":440:441   */\n      0x00\n        /* \"#utility.yul\":433:445   */\n      revert\n        /* \"#utility.yul\":457:574   */\n    tag_105:\n        /* \"#utility.yul\":566:567   */\n      0x00\n        /* \"#utility.yul\":563:564   */\n      0x00\n        /* \"#utility.yul\":556:568   */\n      revert\n        /* \"#utility.yul\":580:682   */\n    tag_106:\n        /* \"#utility.yul\":621:627   */\n      0x00\n        /* \"#utility.yul\":672:674   */\n      0x1f\n        /* \"#utility.yul\":668:675   */\n      not\n        /* \"#utility.yul\":663:665   */\n      0x1f\n        /* \"#utility.yul\":656:661   */\n      dup4\n        /* \"#utility.yul\":652:666   */\n      add\n        /* \"#utility.yul\":648:676   */\n      and\n        /* \"#utility.yul\":638:676   */\n      swap1\n      pop\n        /* \"#utility.yul\":580:682   */\n      swap2\n      swap1\n      pop\n      jump\t// out\n        /* \"#utility.yul\":688:868   */\n    tag_107:\n        /* \"#utility.yul\":736:813   */\n      0x4e487b7100000000000000000000000000000000000000000000000000000000\n        /* \"#utility.yul\":733:734   */\n      0x00\n        /* \"#utility.yul\":726:814   */\n      mstore\n        /* \"#utility.yul\":833:837   */\n      0x41\n        /* \"#utility.yul\":830:831   */\n      0x04\n        /* \"#utility.yul\":823:838   */\n      mstore\n        /* \"#utility.yul\":857:861   */\n      0x24\n        /* \"#utility.yul\":854:855   */\n      0x00\n        /* \"#utility.yul\":847:862   */\n      revert\n        /* \"#utility.yul\":874:1155   */\n    tag_108:\n        /* \"#utility.yul\":957:984   */\n      tag_160\n        /* \"#utility.yul\":979:983   */\n      dup3\n        /* \"#utility.yul\":957:984   */\n      tag_106\n      jump\t// in\n    tag_160:\n        /* \"#utility.yul\":949:955   */\n      dup2\n        /* \"#utility.yul\":945:985   */\n      add\n        /* \"#utility.yul\":1087:1093   */\n      dup2\n        /* \"#utility.yul\":1075:1085   */\n      dup2\n        /* \"#utility.yul\":1072:1094   */\n      lt\n        /* \"#utility.yul\":1051:1069   */\n      0xffffffffffffffff\n        /* \"#utility.yul\":1039:1049   */\n      dup3\n        /* \"#utility.yul\":1036:1070   */\n      gt\n        /* \"#utility.yul\":1033:1095   */\n      or\n        /* \"#utility.yul\":1030:1118   */\n      iszero\n      tag_161\n      jumpi\n        /* \"#utility.yul\":1098:1116   */\n      tag_162\n      tag_107\n      jump\t// in\n    tag_162:\n        /* \"#utility.yul\":1030:1118   */\n    tag_161:\n        /* \"#utility.yul\":1138:1148   */\n      dup1\n        /* \"#utility.yul\":1134:1136   */\n      0x40\n        /* \"#utility.yul\":1127:1149   */\n      mstore\n        /* \"#utility.yul\":917:1155   */\n      pop\n        /* \"#utility.yul\":874:1155   */\n      pop\n      pop\n      jump\t// out\n        /* \"#utility.yul\":1161:1290   */\n    tag_109:\n        /* \"#utility.yul\":1195:1201   */\n      0x00\n        /* \"#utility.yul\":1222:1242   */\n      tag_164\n      tag_101\n      jump\t// in\n    tag_164:\n        /* \"#utility.yul\":1212:1242   */\n      swap1\n      pop\n        /* \"#utility.yul\":1251:1284   */\n      tag_165\n        /* \"#utility.yul\":1279:1283   */\n      dup3\n        /* \"#utility.yul\":1271:1277   */\n      dup3\n        /* \"#utility.yul\":1251:1284   */\n      tag_108\n      jump\t// in\n    tag_165:\n        /* \"#utility.yul\":1161:1290   */\n      swap2\n      swap1\n      pop\n      jump\t// out\n        /* \"#utility.yul\":1296:1604   */\n    tag_110:\n        /* \"#utility.yul\":1358:1362   */\n      0x00\n        /* \"#utility.yul\":1448:1466   */\n      0xffffffffffffffff\n        /* \"#utility.yul\":1440:1446   */\n      dup3\n        /* \"#utility.yul\":1437:1467   */\n      gt\n        /* \"#utility.yul\":1434:1490   */\n      iszero\n      tag_167\n      jumpi\n        /* \"#utility.yul\":1470:1488   */\n      tag_168\n      tag_107\n      jump\t// in\n    tag_168:\n        /* \"#utility.yul\":1434:1490   */\n    tag_167:\n        /* \"#utility.yul\":1508:1537   */\n      tag_169\n        /* \"#utility.yul\":1530:1536   */\n      dup3\n        /* \"#utility.yul\":1508:1537   */\n      tag_106\n      jump\t// in\n    tag_169:\n        /* \"#utility.yul\":1500:1537   */\n      swap1\n      pop\n        /* \"#utility.yul\":1592:1596   */\n      0x20\n        /* \"#utility.yul\":1586:1590   */\n      dup2\n        /* \"#utility.yul\":1582:1597   */\n      add\n        /* \"#utility.yul\":1574:1597   */\n      swap1\n      pop\n        /* \"#utility.yul\":1296:1604   */\n      swap2\n      swap1\n      pop\n      jump\t// out\n        /* \"#utility.yul\":1610:1758   */\n    tag_111:\n        /* \"#utility.yul\":1708:1714   */\n      dup3\n        /* \"#utility.yul\":1703:1706   */\n      dup2\n        /* \"#utility.yul\":1698:1701   */\n      dup4\n        /* \"#utility.yul\":1685:1715   */\n      calldatacopy\n        /* \"#utility.yul\":1749:1750   */\n      0x00\n        /* \"#utility.yul\":1740:1746   */\n      dup4\n        /* \"#utility.yul\":1735:1738   */\n      dup4\n        /* \"#utility.yul\":1731:1747   */\n      add\n        /* \"#utility.yul\":1724:1751   */\n      mstore\n        /* \"#utility.yul\":1610:1758   */\n      pop\n      pop\n      pop\n      jump\t// out\n        /* \"#utility.yul\":1764:2189   */\n    tag_112:\n        /* \"#utility.yul\":1842:1847   */\n      0x00\n        /* \"#utility.yul\":1867:1933   */\n      tag_172\n        /* \"#utility.yul\":1883:1932   */\n      tag_173\n        /* \"#utility.yul\":1925:1931   */\n      dup5\n        /* \"#utility.yul\":1883:1932   */\n      tag_110\n      jump\t// in\n    tag_173:\n        /* \"#utility.yul\":1867:1933   */\n      tag_109\n      jump\t// in\n    tag_172:\n        /* \"#utility.yul\":1858:1933   */\n      swap1\n      pop\n        /* \"#utility.yul\":1956:1962   */\n      dup3\n        /* \"#utility.yul\":1949:1954   */\n      dup2\n        /* \"#utility.yul\":1942:1963   */\n      mstore\n        /* \"#utility.yul\":1994:1998   */\n      0x20\n        /* \"#utility.yul\":1987:1992   */\n      dup2\n        /* \"#utility.yul\":1983:1999   */\n      add\n        /* \"#utility.yul\":2032:2035   */\n      dup5\n        /* \"#utility.yul\":2023:2029   */\n      dup5\n        /* \"#utility.yul\":2018:2021   */\n      dup5\n        /* \"#utility.yul\":2014:2030   */\n      add\n        /* \"#utility.yul\":2011:2036   */\n      gt\n        /* \"#utility.yul\":2008:2120   */\n      iszero\n      tag_174\n      jumpi\n        /* \"#utility.yul\":2039:2118   */\n      tag_175\n      tag_105\n      jump\t// in\n    tag_175:\n        /* \"#utility.yul\":2008:2120   */\n    tag_174:\n        /* \"#utility.yul\":2129:2183   */\n      tag_176\n        /* \"#utility.yul\":2176:2182   */\n      dup5\n        /* \"#utility.yul\":2171:2174   */\n      dup3\n        /* \"#utility.yul\":2166:2169   */\n      dup6\n        /* \"#utility.yul\":2129:2183   */\n      tag_111\n      jump\t// in\n    tag_176:\n        /* \"#utility.yul\":1848:2189   */\n      pop\n        /* \"#utility.yul\":1764:2189   */\n      swap4\n      swap3\n      pop\n      pop\n      pop\n      jump\t// out\n        /* \"#utility.yul\":2209:2549   */\n    tag_113:\n        /* \"#utility.yul\":2265:2270   */\n      0x00\n        /* \"#utility.yul\":2314:2317   */\n      dup3\n        /* \"#utility.yul\":2307:2311   */\n      0x1f\n        /* \"#utility.yul\":2299:2305   */\n      dup4\n        /* \"#utility.yul\":2295:2312   */\n      add\n        /* \"#utility.yul\":2291:2318   */\n      slt\n        /* \"#utility.yul\":2281:2403   */\n      tag_178\n      jumpi\n        /* \"#utility.yul\":2322:2401   */\n      tag_179\n      tag_104\n      jump\t// in\n    tag_179:\n        /* \"#utility.yul\":2281:2403   */\n    tag_178:\n        /* \"#utility.yul\":2439:2445   */\n      dup2\n        /* \"#utility.yul\":2426:2446   */\n      calldataload\n        /* \"#utility.yul\":2464:2543   */\n      tag_180\n        /* \"#utility.yul\":2539:2542   */\n      dup5\n        /* \"#utility.yul\":2531:2537   */\n      dup3\n        /* \"#utility.yul\":2524:2528   */\n      0x20\n        /* \"#utility.yul\":2516:2522   */\n      dup7\n        /* \"#utility.yul\":2512:2529   */\n      add\n        /* \"#utility.yul\":2464:2543   */\n      tag_112\n      jump\t// in\n    tag_180:\n        /* \"#utility.yul\":2455:2543   */\n      swap2\n      pop\n        /* \"#utility.yul\":2271:2549   */\n      pop\n        /* \"#utility.yul\":2209:2549   */\n      swap3\n      swap2\n      pop\n      pop\n      jump\t// out\n        /* \"#utility.yul\":2555:2632   */\n    tag_114:\n        /* \"#utility.yul\":2592:2599   */\n      0x00\n        /* \"#utility.yul\":2621:2626   */\n      dup2\n        /* \"#utility.yul\":2610:2626   */\n      swap1\n      pop\n        /* \"#utility.yul\":2555:2632   */\n      swap2\n      swap1\n      pop\n      jump\t// out\n        /* \"#utility.yul\":2638:2760   */\n    tag_115:\n        /* \"#utility.yul\":2711:2735   */\n      tag_183\n        /* \"#utility.yul\":2729:2734   */\n      dup2\n        /* \"#utility.yul\":2711:2735   */\n      tag_114\n      jump\t// in\n    tag_183:\n        /* \"#utility.yul\":2704:2709   */\n      dup2\n        /* \"#utility.yul\":2701:2736   */\n      eq\n        /* \"#utility.yul\":2691:2754   */\n      tag_184\n      jumpi\n        /* \"#utility.yul\":2750:2751   */\n      0x00\n        /* \"#utility.yul\":2747:2748   */\n      0x00\n        /* \"#utility.yul\":2740:2752   */\n      revert\n        /* \"#utility.yul\":2691:2754   */\n    tag_184:\n        /* \"#utility.yul\":2638:2760   */\n      pop\n      jump\t// out\n        /* \"#utility.yul\":2766:2905   */\n    tag_116:\n        /* \"#utility.yul\":2812:2817   */\n      0x00\n        /* \"#utility.yul\":2850:2856   */\n      dup2\n        /* \"#utility.yul\":2837:2857   */\n      calldataload\n        /* \"#utility.yul\":2828:2857   */\n      swap1\n      pop\n        /* \"#utility.yul\":2866:2899   */\n      tag_186\n        /* \"#utility.yul\":2893:2898   */\n      dup2\n        /* \"#utility.yul\":2866:2899   */\n      tag_115\n      jump\t// in\n    tag_186:\n        /* \"#utility.yul\":2766:2905   */\n      swap3\n      swap2\n      pop\n      pop\n      jump\t// out\n        /* \"#utility.yul\":2911:4216   */\n    tag_10:\n        /* \"#utility.yul\":3027:3033   */\n      0x00\n        /* \"#utility.yul\":3035:3041   */\n      0x00\n        /* \"#utility.yul\":3043:3049   */\n      0x00\n        /* \"#utility.yul\":3051:3057   */\n      0x00\n        /* \"#utility.yul\":3100:3103   */\n      0x80\n        /* \"#utility.yul\":3088:3097   */\n      dup6\n        /* \"#utility.yul\":3079:3086   */\n      dup8\n        /* \"#utility.yul\":3075:3098   */\n      sub\n        /* \"#utility.yul\":3071:3104   */\n      slt\n        /* \"#utility.yul\":3068:3188   */\n      iszero\n      tag_188\n      jumpi\n        /* \"#utility.yul\":3107:3186   */\n      tag_189\n      tag_102\n      jump\t// in\n    tag_189:\n        /* \"#utility.yul\":3068:3188   */\n    tag_188:\n        /* \"#utility.yul\":3255:3256   */\n      0x00\n        /* \"#utility.yul\":3244:3253   */\n      dup6\n        /* \"#utility.yul\":3240:3257   */\n      add\n        /* \"#utility.yul\":3227:3258   */\n      calldataload\n        /* \"#utility.yul\":3285:3303   */\n      0xffffffffffffffff\n        /* \"#utility.yul\":3277:3283   */\n      dup2\n        /* \"#utility.yul\":3274:3304   */\n      gt\n        /* \"#utility.yul\":3271:3388   */\n      iszero\n      tag_190\n      jumpi\n        /* \"#utility.yul\":3307:3386   */\n      tag_191\n      tag_103\n      jump\t// in\n    tag_191:\n        /* \"#utility.yul\":3271:3388   */\n    tag_190:\n        /* \"#utility.yul\":3412:3475   */\n      tag_192\n        /* \"#utility.yul\":3467:3474   */\n      dup8\n        /* \"#utility.yul\":3458:3464   */\n      dup3\n        /* \"#utility.yul\":3447:3456   */\n      dup9\n        /* \"#utility.yul\":3443:3465   */\n      add\n        /* \"#utility.yul\":3412:3475   */\n      tag_113\n      jump\t// in\n    tag_192:\n        /* \"#utility.yul\":3402:3475   */\n      swap5\n      pop\n        /* \"#utility.yul\":3198:3485   */\n      pop\n        /* \"#utility.yul\":3524:3526   */\n      0x20\n        /* \"#utility.yul\":3550:3603   */\n      tag_193\n        /* \"#utility.yul\":3595:3602   */\n      dup8\n        /* \"#utility.yul\":3586:3592   */\n      dup3\n        /* \"#utility.yul\":3575:3584   */\n      dup9\n        /* \"#utility.yul\":3571:3593   */\n      add\n        /* \"#utility.yul\":3550:3603   */\n      tag_116\n      jump\t// in\n    tag_193:\n        /* \"#utility.yul\":3540:3603   */\n      swap4\n      pop\n        /* \"#utility.yul\":3495:3613   */\n      pop\n        /* \"#utility.yul\":3680:3682   */\n      0x40\n        /* \"#utility.yul\":3669:3678   */\n      dup6\n        /* \"#utility.yul\":3665:3683   */\n      add\n        /* \"#utility.yul\":3652:3684   */\n      calldataload\n        /* \"#utility.yul\":3711:3729   */\n      0xffffffffffffffff\n        /* \"#utility.yul\":3703:3709   */\n      dup2\n        /* \"#utility.yul\":3700:3730   */\n      gt\n        /* \"#utility.yul\":3697:3814   */\n      iszero\n      tag_194\n      jumpi\n        /* \"#utility.yul\":3733:3812   */\n      tag_195\n      tag_103\n      jump\t// in\n    tag_195:\n        /* \"#utility.yul\":3697:3814   */\n    tag_194:\n        /* \"#utility.yul\":3838:3901   */\n      tag_196\n        /* \"#utility.yul\":3893:3900   */\n      dup8\n        /* \"#utility.yul\":3884:3890   */\n      dup3\n        /* \"#utility.yul\":3873:3882   */\n      dup9\n        /* \"#utility.yul\":3869:3891   */\n      add\n        /* \"#utility.yul\":3838:3901   */\n      tag_113\n      jump\t// in\n    tag_196:\n        /* \"#utility.yul\":3828:3901   */\n      swap3\n      pop\n        /* \"#utility.yul\":3623:3911   */\n      pop\n        /* \"#utility.yul\":3978:3980   */\n      0x60\n        /* \"#utility.yul\":3967:3976   */\n      dup6\n        /* \"#utility.yul\":3963:3981   */\n      add\n        /* \"#utility.yul\":3950:3982   */\n      calldataload\n        /* \"#utility.yul\":4009:4027   */\n      0xffffffffffffffff\n        /* \"#utility.yul\":4001:4007   */\n      dup2\n        /* \"#utility.yul\":3998:4028   */\n      gt\n        /* \"#utility.yul\":3995:4112   */\n      iszero\n      tag_197\n      jumpi\n        /* \"#utility.yul\":4031:4110   */\n      tag_198\n      tag_103\n      jump\t// in\n    tag_198:\n        /* \"#utility.yul\":3995:4112   */\n    tag_197:\n        /* \"#utility.yul\":4136:4199   */\n      tag_199\n        /* \"#utility.yul\":4191:4198   */\n      dup8\n        /* \"#utility.yul\":4182:4188   */\n      dup3\n        /* \"#utility.yul\":4171:4180   */\n      dup9\n        /* \"#utility.yul\":4167:4189   */\n      add\n        /* \"#utility.yul\":4136:4199   */\n      tag_113\n      jump\t// in\n    tag_199:\n        /* \"#utility.yul\":4126:4199   */\n      swap2\n      pop\n        /* \"#utility.yul\":3921:4209   */\n      pop\n        /* \"#utility.yul\":2911:4216   */\n      swap3\n      swap6\n      swap2\n      swap5\n      pop\n      swap3\n      pop\n      jump\t// out\n        /* \"#utility.yul\":4222:4731   */\n    tag_14:\n        /* \"#utility.yul\":4291:4297   */\n      0x00\n        /* \"#utility.yul\":4340:4342   */\n      0x20\n        /* \"#utility.yul\":4328:4337   */\n      dup3\n        /* \"#utility.yul\":4319:4326   */\n      dup5\n        /* \"#utility.yul\":4315:4338   */\n      sub\n        /* \"#utility.yul\":4311:4343   */\n      slt\n        /* \"#utility.yul\":4308:4427   */\n      iszero\n      tag_201\n      jumpi\n        /* \"#utility.yul\":4346:4425   */\n      tag_202\n      tag_102\n      jump\t// in\n    tag_202:\n        /* \"#utility.yul\":4308:4427   */\n    tag_201:\n        /* \"#utility.yul\":4494:4495   */\n      0x00\n        /* \"#utility.yul\":4483:4492   */\n      dup3\n        /* \"#utility.yul\":4479:4496   */\n      add\n        /* \"#utility.yul\":4466:4497   */\n      calldataload\n        /* \"#utility.yul\":4524:4542   */\n      0xffffffffffffffff\n        /* \"#utility.yul\":4516:4522   */\n      dup2\n        /* \"#utility.yul\":4513:4543   */\n      gt\n        /* \"#utility.yul\":4510:4627   */\n      iszero\n      tag_203\n      jumpi\n        /* \"#utility.yul\":4546:4625   */\n      tag_204\n      tag_103\n      jump\t// in\n    tag_204:\n        /* \"#utility.yul\":4510:4627   */\n    tag_203:\n        /* \"#utility.yul\":4651:4714   */\n      tag_205\n        /* \"#utility.yul\":4706:4713   */\n      dup5\n        /* \"#utility.yul\":4697:4703   */\n      dup3\n        /* \"#utility.yul\":4686:4695   */\n      dup6\n        /* \"#utility.yul\":4682:4704   */\n      add\n        /* \"#utility.yul\":4651:4714   */\n      tag_113\n      jump\t// in\n    tag_205:\n        /* \"#utility.yul\":4641:4714   */\n      swap2\n      pop\n        /* \"#utility.yul\":4437:4724   */\n      pop\n        /* \"#utility.yul\":4222:4731   */\n      swap3\n      swap2\n      pop\n      pop\n      jump\t// out\n        /* \"#utility.yul\":4737:4855   */\n    tag_117:\n        /* \"#utility.yul\":4824:4848   */\n      tag_207\n        /* \"#utility.yul\":4842:4847   */\n      dup2\n        /* \"#utility.yul\":4824:4848   */\n      tag_114\n      jump\t// in\n    tag_207:\n        /* \"#utility.yul\":4819:4822   */\n      dup3\n        /* \"#utility.yul\":4812:4849   */\n      mstore\n        /* \"#utility.yul\":4737:4855   */\n      pop\n      pop\n      jump\t// out\n        /* \"#utility.yul\":4861:5083   */\n    tag_17:\n        /* \"#utility.yul\":4954:4958   */\n      0x00\n        /* \"#utility.yul\":4992:4994   */\n      0x20\n        /* \"#utility.yul\":4981:4990   */\n      dup3\n        /* \"#utility.yul\":4977:4995   */\n      add\n        /* \"#utility.yul\":4969:4995   */\n      swap1\n      pop\n        /* \"#utility.yul\":5005:5076   */\n      tag_209\n        /* \"#utility.yul\":5073:5074   */\n      0x00\n        /* \"#utility.yul\":5062:5071   */\n      dup4\n        /* \"#utility.yul\":5058:5075   */\n      add\n        /* \"#utility.yul\":5049:5055   */\n      dup5\n        /* \"#utility.yul\":5005:5076   */\n      tag_117\n      jump\t// in\n    tag_209:\n        /* \"#utility.yul\":4861:5083   */\n      swap3\n      swap2\n      pop\n      pop\n      jump\t// out\n        /* \"#utility.yul\":5089:5188   */\n    tag_118:\n        /* \"#utility.yul\":5141:5147   */\n      0x00\n        /* \"#utility.yul\":5175:5180   */\n      dup2\n        /* \"#utility.yul\":5169:5181   */\n      mload\n        /* \"#utility.yul\":5159:5181   */\n      swap1\n      pop\n        /* \"#utility.yul\":5089:5188   */\n      swap2\n      swap1\n      pop\n      jump\t// out\n        /* \"#utility.yul\":5194:5363   */\n    tag_119:\n        /* \"#utility.yul\":5278:5289   */\n      0x00\n        /* \"#utility.yul\":5312:5318   */\n      dup3\n        /* \"#utility.yul\":5307:5310   */\n      dup3\n        /* \"#utility.yul\":5300:5319   */\n      mstore\n        /* \"#utility.yul\":5352:5356   */\n      0x20\n        /* \"#utility.yul\":5347:5350   */\n      dup3\n        /* \"#utility.yul\":5343:5357   */\n      add\n        /* \"#utility.yul\":5328:5357   */\n      swap1\n      pop\n        /* \"#utility.yul\":5194:5363   */\n      swap3\n      swap2\n      pop\n      pop\n      jump\t// out\n        /* \"#utility.yul\":5369:5508   */\n    tag_120:\n        /* \"#utility.yul\":5458:5464   */\n      dup3\n        /* \"#utility.yul\":5453:5456   */\n      dup2\n        /* \"#utility.yul\":5448:5451   */\n      dup4\n        /* \"#utility.yul\":5442:5465   */\n      mcopy\n        /* \"#utility.yul\":5499:5500   */\n      0x00\n        /* \"#utility.yul\":5490:5496   */\n      dup4\n        /* \"#utility.yul\":5485:5488   */\n      dup4\n        /* \"#utility.yul\":5481:5497   */\n      add\n        /* \"#utility.yul\":5474:5501   */\n      mstore\n        /* \"#utility.yul\":5369:5508   */\n      pop\n      pop\n      pop\n      jump\t// out\n        /* \"#utility.yul\":5514:5891   */\n    tag_121:\n        /* \"#utility.yul\":5602:5605   */\n      0x00\n        /* \"#utility.yul\":5630:5669   */\n      tag_214\n        /* \"#utility.yul\":5663:5668   */\n      dup3\n        /* \"#utility.yul\":5630:5669   */\n      tag_118\n      jump\t// in\n    tag_214:\n        /* \"#utility.yul\":5685:5756   */\n      tag_215\n        /* \"#utility.yul\":5749:5755   */\n      dup2\n        /* \"#utility.yul\":5744:5747   */\n      dup6\n        /* \"#utility.yul\":5685:5756   */\n      tag_119\n      jump\t// in\n    tag_215:\n        /* \"#utility.yul\":5678:5756   */\n      swap4\n      pop\n        /* \"#utility.yul\":5765:5830   */\n      tag_216\n        /* \"#utility.yul\":5823:5829   */\n      dup2\n        /* \"#utility.yul\":5818:5821   */\n      dup6\n        /* \"#utility.yul\":5811:5815   */\n      0x20\n        /* \"#utility.yul\":5804:5809   */\n      dup7\n        /* \"#utility.yul\":5800:5816   */\n      add\n        /* \"#utility.yul\":5765:5830   */\n      tag_120\n      jump\t// in\n    tag_216:\n        /* \"#utility.yul\":5855:5884   */\n      tag_217\n        /* \"#utility.yul\":5877:5883   */\n      dup2\n        /* \"#utility.yul\":5855:5884   */\n      tag_106\n      jump\t// in\n    tag_217:\n        /* \"#utility.yul\":5850:5853   */\n      dup5\n        /* \"#utility.yul\":5846:5885   */\n      add\n        /* \"#utility.yul\":5839:5885   */\n      swap2\n      pop\n        /* \"#utility.yul\":5606:5891   */\n      pop\n        /* \"#utility.yul\":5514:5891   */\n      swap3\n      swap2\n      pop\n      pop\n      jump\t// out\n        /* \"#utility.yul\":5897:6723   */\n    tag_22:\n        /* \"#utility.yul\":6134:6138   */\n      0x00\n        /* \"#utility.yul\":6172:6175   */\n      0x80\n        /* \"#utility.yul\":6161:6170   */\n      dup3\n        /* \"#utility.yul\":6157:6176   */\n      add\n        /* \"#utility.yul\":6149:6176   */\n      swap1\n      pop\n        /* \"#utility.yul\":6222:6231   */\n      dup2\n        /* \"#utility.yul\":6216:6220   */\n      dup2\n        /* \"#utility.yul\":6212:6232   */\n      sub\n        /* \"#utility.yul\":6208:6209   */\n      0x00\n        /* \"#utility.yul\":6197:6206   */\n      dup4\n        /* \"#utility.yul\":6193:6210   */\n      add\n        /* \"#utility.yul\":6186:6233   */\n      mstore\n        /* \"#utility.yul\":6250:6328   */\n      tag_219\n        /* \"#utility.yul\":6323:6327   */\n      dup2\n        /* \"#utility.yul\":6314:6320   */\n      dup8\n        /* \"#utility.yul\":6250:6328   */\n      tag_121\n      jump\t// in\n    tag_219:\n        /* \"#utility.yul\":6242:6328   */\n      swap1\n      pop\n        /* \"#utility.yul\":6338:6410   */\n      tag_220\n        /* \"#utility.yul\":6406:6408   */\n      0x20\n        /* \"#utility.yul\":6395:6404   */\n      dup4\n        /* \"#utility.yul\":6391:6409   */\n      add\n        /* \"#utility.yul\":6382:6388   */\n      dup7\n        /* \"#utility.yul\":6338:6410   */\n      tag_117\n      jump\t// in\n    tag_220:\n        /* \"#utility.yul\":6457:6466   */\n      dup2\n        /* \"#utility.yul\":6451:6455   */\n      dup2\n        /* \"#utility.yul\":6447:6467   */\n      sub\n        /* \"#utility.yul\":6442:6444   */\n      0x40\n        /* \"#utility.yul\":6431:6440   */\n      dup4\n        /* \"#utility.yul\":6427:6445   */\n      add\n        /* \"#utility.yul\":6420:6468   */\n      mstore\n        /* \"#utility.yul\":6485:6563   */\n      tag_221\n        /* \"#utility.yul\":6558:6562   */\n      dup2\n        /* \"#utility.yul\":6549:6555   */\n      dup6\n        /* \"#utility.yul\":6485:6563   */\n      tag_121\n      jump\t// in\n    tag_221:\n        /* \"#utility.yul\":6477:6563   */\n      swap1\n      pop\n        /* \"#utility.yul\":6610:6619   */\n      dup2\n        /* \"#utility.yul\":6604:6608   */\n      dup2\n        /* \"#utility.yul\":6600:6620   */\n      sub\n        /* \"#utility.yul\":6595:6597   */\n      0x60\n        /* \"#utility.yul\":6584:6593   */\n      dup4\n        /* \"#utility.yul\":6580:6598   */\n      add\n        /* \"#utility.yul\":6573:6621   */\n      mstore\n        /* \"#utility.yul\":6638:6716   */\n      tag_222\n        /* \"#utility.yul\":6711:6715   */\n      dup2\n        /* \"#utility.yul\":6702:6708   */\n      dup5\n        /* \"#utility.yul\":6638:6716   */\n      tag_121\n      jump\t// in\n    tag_222:\n        /* \"#utility.yul\":6630:6716   */\n      swap1\n      pop\n        /* \"#utility.yul\":5897:6723   */\n      swap6\n      swap5\n      pop\n      pop\n      pop\n      pop\n      pop\n      jump\t// out\n        /* \"#utility.yul\":6729:7058   */\n    tag_25:\n        /* \"#utility.yul\":6788:6794   */\n      0x00\n        /* \"#utility.yul\":6837:6839   */\n      0x20\n        /* \"#utility.yul\":6825:6834   */\n      dup3\n        /* \"#utility.yul\":6816:6823   */\n      dup5\n        /* \"#utility.yul\":6812:6835   */\n      sub\n        /* \"#utility.yul\":6808:6840   */\n      slt\n        /* \"#utility.yul\":6805:6924   */\n      iszero\n      tag_224\n      jumpi\n        /* \"#utility.yul\":6843:6922   */\n      tag_225\n      tag_102\n      jump\t// in\n    tag_225:\n        /* \"#utility.yul\":6805:6924   */\n    tag_224:\n        /* \"#utility.yul\":6963:6964   */\n      0x00\n        /* \"#utility.yul\":6988:7041   */\n      tag_226\n        /* \"#utility.yul\":7033:7040   */\n      dup5\n        /* \"#utility.yul\":7024:7030   */\n      dup3\n        /* \"#utility.yul\":7013:7022   */\n      dup6\n        /* \"#utility.yul\":7009:7031   */\n      add\n        /* \"#utility.yul\":6988:7041   */\n      tag_116\n      jump\t// in\n    tag_226:\n        /* \"#utility.yul\":6978:7041   */\n      swap2\n      pop\n        /* \"#utility.yul\":6934:7051   */\n      pop\n        /* \"#utility.yul\":6729:7058   */\n      swap3\n      swap2\n      pop\n      pop\n      jump\t// out\n        /* \"#utility.yul\":7064:7223   */\n    tag_122:\n        /* \"#utility.yul\":7138:7149   */\n      0x00\n        /* \"#utility.yul\":7172:7178   */\n      dup3\n        /* \"#utility.yul\":7167:7170   */\n      dup3\n        /* \"#utility.yul\":7160:7179   */\n      mstore\n        /* \"#utility.yul\":7212:7216   */\n      0x20\n        /* \"#utility.yul\":7207:7210   */\n      dup3\n        /* \"#utility.yul\":7203:7217   */\n      add\n        /* \"#utility.yul\":7188:7217   */\n      swap1\n      pop\n        /* \"#utility.yul\":7064:7223   */\n      swap3\n      swap2\n      pop\n      pop\n      jump\t// out\n        /* \"#utility.yul\":7229:7586   */\n    tag_123:\n        /* \"#utility.yul\":7307:7310   */\n      0x00\n        /* \"#utility.yul\":7335:7374   */\n      tag_229\n        /* \"#utility.yul\":7368:7373   */\n      dup3\n        /* \"#utility.yul\":7335:7374   */\n      tag_118\n      jump\t// in\n    tag_229:\n        /* \"#utility.yul\":7390:7451   */\n      tag_230\n        /* \"#utility.yul\":7444:7450   */\n      dup2\n        /* \"#utility.yul\":7439:7442   */\n      dup6\n        /* \"#utility.yul\":7390:7451   */\n      tag_122\n      jump\t// in\n    tag_230:\n        /* \"#utility.yul\":7383:7451   */\n      swap4\n      pop\n        /* \"#utility.yul\":7460:7525   */\n      tag_231\n        /* \"#utility.yul\":7518:7524   */\n      dup2\n        /* \"#utility.yul\":7513:7516   */\n      dup6\n        /* \"#utility.yul\":7506:7510   */\n      0x20\n        /* \"#utility.yul\":7499:7504   */\n      dup7\n        /* \"#utility.yul\":7495:7511   */\n      add\n        /* \"#utility.yul\":7460:7525   */\n      tag_120\n      jump\t// in\n    tag_231:\n        /* \"#utility.yul\":7550:7579   */\n      tag_232\n        /* \"#utility.yul\":7572:7578   */\n      dup2\n        /* \"#utility.yul\":7550:7579   */\n      tag_106\n      jump\t// in\n    tag_232:\n        /* \"#utility.yul\":7545:7548   */\n      dup5\n        /* \"#utility.yul\":7541:7580   */\n      add\n        /* \"#utility.yul\":7534:7580   */\n      swap2\n      pop\n        /* \"#utility.yul\":7311:7586   */\n      pop\n        /* \"#utility.yul\":7229:7586   */\n      swap3\n      swap2\n      pop\n      pop\n      jump\t// out\n        /* \"#utility.yul\":7592:7700   */\n    tag_124:\n        /* \"#utility.yul\":7669:7693   */\n      tag_234\n        /* \"#utility.yul\":7687:7692   */\n      dup2\n        /* \"#utility.yul\":7669:7693   */\n      tag_114\n      jump\t// in\n    tag_234:\n        /* \"#utility.yul\":7664:7667   */\n      dup3\n        /* \"#utility.yul\":7657:7694   */\n      mstore\n        /* \"#utility.yul\":7592:7700   */\n      pop\n      pop\n      jump\t// out\n        /* \"#utility.yul\":7776:8877   */\n    tag_125:\n        /* \"#utility.yul\":7893:7896   */\n      0x00\n        /* \"#utility.yul\":7929:7933   */\n      0x80\n        /* \"#utility.yul\":7924:7927   */\n      dup4\n        /* \"#utility.yul\":7920:7934   */\n      add\n        /* \"#utility.yul\":8016:8020   */\n      0x00\n        /* \"#utility.yul\":8009:8014   */\n      dup4\n        /* \"#utility.yul\":8005:8021   */\n      add\n        /* \"#utility.yul\":7999:8022   */\n      mload\n        /* \"#utility.yul\":8069:8072   */\n      dup5\n        /* \"#utility.yul\":8063:8067   */\n      dup3\n        /* \"#utility.yul\":8059:8073   */\n      sub\n        /* \"#utility.yul\":8052:8056   */\n      0x00\n        /* \"#utility.yul\":8047:8050   */\n      dup7\n        /* \"#utility.yul\":8043:8057   */\n      add\n        /* \"#utility.yul\":8036:8074   */\n      mstore\n        /* \"#utility.yul\":8095:8168   */\n      tag_236\n        /* \"#utility.yul\":8163:8167   */\n      dup3\n        /* \"#utility.yul\":8149:8161   */\n      dup3\n        /* \"#utility.yul\":8095:8168   */\n      tag_123\n      jump\t// in\n    tag_236:\n        /* \"#utility.yul\":8087:8168   */\n      swap2\n      pop\n        /* \"#utility.yul\":7944:8179   */\n      pop\n        /* \"#utility.yul\":8260:8264   */\n      0x20\n        /* \"#utility.yul\":8253:8258   */\n      dup4\n        /* \"#utility.yul\":8249:8265   */\n      add\n        /* \"#utility.yul\":8243:8266   */\n      mload\n        /* \"#utility.yul\":8279:8342   */\n      tag_237\n        /* \"#utility.yul\":8336:8340   */\n      0x20\n        /* \"#utility.yul\":8331:8334   */\n      dup7\n        /* \"#utility.yul\":8327:8341   */\n      add\n        /* \"#utility.yul\":8313:8325   */\n      dup3\n        /* \"#utility.yul\":8279:8342   */\n      tag_124\n      jump\t// in\n    tag_237:\n        /* \"#utility.yul\":8189:8352   */\n      pop\n        /* \"#utility.yul\":8436:8440   */\n      0x40\n        /* \"#utility.yul\":8429:8434   */\n      dup4\n        /* \"#utility.yul\":8425:8441   */\n      add\n        /* \"#utility.yul\":8419:8442   */\n      mload\n        /* \"#utility.yul\":8489:8492   */\n      dup5\n        /* \"#utility.yul\":8483:8487   */\n      dup3\n        /* \"#utility.yul\":8479:8493   */\n      sub\n        /* \"#utility.yul\":8472:8476   */\n      0x40\n        /* \"#utility.yul\":8467:8470   */\n      dup7\n        /* \"#utility.yul\":8463:8477   */\n      add\n        /* \"#utility.yul\":8456:8494   */\n      mstore\n        /* \"#utility.yul\":8515:8588   */\n      tag_238\n        /* \"#utility.yul\":8583:8587   */\n      dup3\n        /* \"#utility.yul\":8569:8581   */\n      dup3\n        /* \"#utility.yul\":8515:8588   */\n      tag_123\n      jump\t// in\n    tag_238:\n        /* \"#utility.yul\":8507:8588   */\n      swap2\n      pop\n        /* \"#utility.yul\":8362:8599   */\n      pop\n        /* \"#utility.yul\":8687:8691   */\n      0x60\n        /* \"#utility.yul\":8680:8685   */\n      dup4\n        /* \"#utility.yul\":8676:8692   */\n      add\n        /* \"#utility.yul\":8670:8693   */\n      mload\n        /* \"#utility.yul\":8740:8743   */\n      dup5\n        /* \"#utility.yul\":8734:8738   */\n      dup3\n        /* \"#utility.yul\":8730:8744   */\n      sub\n        /* \"#utility.yul\":8723:8727   */\n      0x60\n        /* \"#utility.yul\":8718:8721   */\n      dup7\n        /* \"#utility.yul\":8714:8728   */\n      add\n        /* \"#utility.yul\":8707:8745   */\n      mstore\n        /* \"#utility.yul\":8766:8839   */\n      tag_239\n        /* \"#utility.yul\":8834:8838   */\n      dup3\n        /* \"#utility.yul\":8820:8832   */\n      dup3\n        /* \"#utility.yul\":8766:8839   */\n      tag_123\n      jump\t// in\n    tag_239:\n        /* \"#utility.yul\":8758:8839   */\n      swap2\n      pop\n        /* \"#utility.yul\":8609:8850   */\n      pop\n        /* \"#utility.yul\":8867:8871   */\n      dup1\n        /* \"#utility.yul\":8860:8871   */\n      swap2\n      pop\n        /* \"#utility.yul\":7898:8877   */\n      pop\n        /* \"#utility.yul\":7776:8877   */\n      swap3\n      swap2\n      pop\n      pop\n      jump\t// out\n        /* \"#utility.yul\":8883:9252   */\n    tag_28:\n        /* \"#utility.yul\":9024:9028   */\n      0x00\n        /* \"#utility.yul\":9062:9064   */\n      0x20\n        /* \"#utility.yul\":9051:9060   */\n      dup3\n        /* \"#utility.yul\":9047:9065   */\n      add\n        /* \"#utility.yul\":9039:9065   */\n      swap1\n      pop\n        /* \"#utility.yul\":9111:9120   */\n      dup2\n        /* \"#utility.yul\":9105:9109   */\n      dup2\n        /* \"#utility.yul\":9101:9121   */\n      sub\n        /* \"#utility.yul\":9097:9098   */\n      0x00\n        /* \"#utility.yul\":9086:9095   */\n      dup4\n        /* \"#utility.yul\":9082:9099   */\n      add\n        /* \"#utility.yul\":9075:9122   */\n      mstore\n        /* \"#utility.yul\":9139:9245   */\n      tag_241\n        /* \"#utility.yul\":9240:9244   */\n      dup2\n        /* \"#utility.yul\":9231:9237   */\n      dup5\n        /* \"#utility.yul\":9139:9245   */\n      tag_125\n      jump\t// in\n    tag_241:\n        /* \"#utility.yul\":9131:9245   */\n      swap1\n      pop\n        /* \"#utility.yul\":8883:9252   */\n      swap3\n      swap2\n      pop\n      pop\n      jump\t// out\n        /* \"#utility.yul\":9258:9396   */\n    tag_126:\n        /* \"#utility.yul\":9349:9355   */\n      0x00\n        /* \"#utility.yul\":9383:9388   */\n      dup2\n        /* \"#utility.yul\":9377:9389   */\n      mload\n        /* \"#utility.yul\":9367:9389   */\n      swap1\n      pop\n        /* \"#utility.yul\":9258:9396   */\n      swap2\n      swap1\n      pop\n      jump\t// out\n        /* \"#utility.yul\":9402:9610   */\n    tag_127:\n        /* \"#utility.yul\":9525:9536   */\n      0x00\n        /* \"#utility.yul\":9559:9565   */\n      dup3\n        /* \"#utility.yul\":9554:9557   */\n      dup3\n        /* \"#utility.yul\":9547:9566   */\n      mstore\n        /* \"#utility.yul\":9599:9603   */\n      0x20\n        /* \"#utility.yul\":9594:9597   */\n      dup3\n        /* \"#utility.yul\":9590:9604   */\n      add\n        /* \"#utility.yul\":9575:9604   */\n      swap1\n      pop\n        /* \"#utility.yul\":9402:9610   */\n      swap3\n      swap2\n      pop\n      pop\n      jump\t// out\n        /* \"#utility.yul\":9616:9772   */\n    tag_128:\n        /* \"#utility.yul\":9707:9711   */\n      0x00\n        /* \"#utility.yul\":9730:9733   */\n      dup2\n        /* \"#utility.yul\":9722:9733   */\n      swap1\n      pop\n        /* \"#utility.yul\":9760:9764   */\n      0x20\n        /* \"#utility.yul\":9755:9758   */\n      dup3\n        /* \"#utility.yul\":9751:9765   */\n      add\n        /* \"#utility.yul\":9743:9765   */\n      swap1\n      pop\n        /* \"#utility.yul\":9616:9772   */\n      swap2\n      swap1\n      pop\n      jump\t// out\n        /* \"#utility.yul\":9848:10939   */\n    tag_129:\n        /* \"#utility.yul\":9955:9958   */\n      0x00\n        /* \"#utility.yul\":9991:9995   */\n      0x80\n        /* \"#utility.yul\":9986:9989   */\n      dup4\n        /* \"#utility.yul\":9982:9996   */\n      add\n        /* \"#utility.yul\":10078:10082   */\n      0x00\n        /* \"#utility.yul\":10071:10076   */\n      dup4\n        /* \"#utility.yul\":10067:10083   */\n      add\n        /* \"#utility.yul\":10061:10084   */\n      mload\n        /* \"#utility.yul\":10131:10134   */\n      dup5\n        /* \"#utility.yul\":10125:10129   */\n      dup3\n        /* \"#utility.yul\":10121:10135   */\n      sub\n        /* \"#utility.yul\":10114:10118   */\n      0x00\n        /* \"#utility.yul\":10109:10112   */\n      dup7\n        /* \"#utility.yul\":10105:10119   */\n      add\n        /* \"#utility.yul\":10098:10136   */\n      mstore\n        /* \"#utility.yul\":10157:10230   */\n      tag_246\n        /* \"#utility.yul\":10225:10229   */\n      dup3\n        /* \"#utility.yul\":10211:10223   */\n      dup3\n        /* \"#utility.yul\":10157:10230   */\n      tag_123\n      jump\t// in\n    tag_246:\n        /* \"#utility.yul\":10149:10230   */\n      swap2\n      pop\n        /* \"#utility.yul\":10006:10241   */\n      pop\n        /* \"#utility.yul\":10322:10326   */\n      0x20\n        /* \"#utility.yul\":10315:10320   */\n      dup4\n        /* \"#utility.yul\":10311:10327   */\n      add\n        /* \"#utility.yul\":10305:10328   */\n      mload\n        /* \"#utility.yul\":10341:10404   */\n      tag_247\n        /* \"#utility.yul\":10398:10402   */\n      0x20\n        /* \"#utility.yul\":10393:10396   */\n      dup7\n        /* \"#utility.yul\":10389:10403   */\n      add\n        /* \"#utility.yul\":10375:10387   */\n      dup3\n        /* \"#utility.yul\":10341:10404   */\n      tag_124\n      jump\t// in\n    tag_247:\n        /* \"#utility.yul\":10251:10414   */\n      pop\n        /* \"#utility.yul\":10498:10502   */\n      0x40\n        /* \"#utility.yul\":10491:10496   */\n      dup4\n        /* \"#utility.yul\":10487:10503   */\n      add\n        /* \"#utility.yul\":10481:10504   */\n      mload\n        /* \"#utility.yul\":10551:10554   */\n      dup5\n        /* \"#utility.yul\":10545:10549   */\n      dup3\n        /* \"#utility.yul\":10541:10555   */\n      sub\n        /* \"#utility.yul\":10534:10538   */\n      0x40\n        /* \"#utility.yul\":10529:10532   */\n      dup7\n        /* \"#utility.yul\":10525:10539   */\n      add\n        /* \"#utility.yul\":10518:10556   */\n      mstore\n        /* \"#utility.yul\":10577:10650   */\n      tag_248\n        /* \"#utility.yul\":10645:10649   */\n      dup3\n        /* \"#utility.yul\":10631:10643   */\n      dup3\n        /* \"#utility.yul\":10577:10650   */\n      tag_123\n      jump\t// in\n    tag_248:\n        /* \"#utility.yul\":10569:10650   */\n      swap2\n      pop\n        /* \"#utility.yul\":10424:10661   */\n      pop\n        /* \"#utility.yul\":10749:10753   */\n      0x60\n        /* \"#utility.yul\":10742:10747   */\n      dup4\n        /* \"#utility.yul\":10738:10754   */\n      add\n        /* \"#utility.yul\":10732:10755   */\n      mload\n        /* \"#utility.yul\":10802:10805   */\n      dup5\n        /* \"#utility.yul\":10796:10800   */\n      dup3\n        /* \"#utility.yul\":10792:10806   */\n      sub\n        /* \"#utility.yul\":10785:10789   */\n      0x60\n        /* \"#utility.yul\":10780:10783   */\n      dup7\n        /* \"#utility.yul\":10776:10790   */\n      add\n        /* \"#utility.yul\":10769:10807   */\n      mstore\n        /* \"#utility.yul\":10828:10901   */\n      tag_249\n        /* \"#utility.yul\":10896:10900   */\n      dup3\n        /* \"#utility.yul\":10882:10894   */\n      dup3\n        /* \"#utility.yul\":10828:10901   */\n      tag_123\n      jump\t// in\n    tag_249:\n        /* \"#utility.yul\":10820:10901   */\n      swap2\n      pop\n        /* \"#utility.yul\":10671:10912   */\n      pop\n        /* \"#utility.yul\":10929:10933   */\n      dup1\n        /* \"#utility.yul\":10922:10933   */\n      swap2\n      pop\n        /* \"#utility.yul\":9960:10939   */\n      pop\n        /* \"#utility.yul\":9848:10939   */\n      swap3\n      swap2\n      pop\n      pop\n      jump\t// out\n        /* \"#utility.yul\":10945:11197   */\n    tag_130:\n        /* \"#utility.yul\":11062:11072   */\n      0x00\n        /* \"#utility.yul\":11097:11191   */\n      tag_251\n        /* \"#utility.yul\":11187:11190   */\n      dup4\n        /* \"#utility.yul\":11179:11185   */\n      dup4\n        /* \"#utility.yul\":11097:11191   */\n      tag_129\n      jump\t// in\n    tag_251:\n        /* \"#utility.yul\":11083:11191   */\n      swap1\n      pop\n        /* \"#utility.yul\":10945:11197   */\n      swap3\n      swap2\n      pop\n      pop\n      jump\t// out\n        /* \"#utility.yul\":11203:11340   */\n    tag_131:\n        /* \"#utility.yul\":11297:11301   */\n      0x00\n        /* \"#utility.yul\":11329:11333   */\n      0x20\n        /* \"#utility.yul\":11324:11327   */\n      dup3\n        /* \"#utility.yul\":11320:11334   */\n      add\n        /* \"#utility.yul\":11312:11334   */\n      swap1\n      pop\n        /* \"#utility.yul\":11203:11340   */\n      swap2\n      swap1\n      pop\n      jump\t// out\n        /* \"#utility.yul\":11420:12523   */\n    tag_132:\n        /* \"#utility.yul\":11587:11590   */\n      0x00\n        /* \"#utility.yul\":11616:11694   */\n      tag_254\n        /* \"#utility.yul\":11688:11693   */\n      dup3\n        /* \"#utility.yul\":11616:11694   */\n      tag_126\n      jump\t// in\n    tag_254:\n        /* \"#utility.yul\":11710:11820   */\n      tag_255\n        /* \"#utility.yul\":11813:11819   */\n      dup2\n        /* \"#utility.yul\":11808:11811   */\n      dup6\n        /* \"#utility.yul\":11710:11820   */\n      tag_127\n      jump\t// in\n    tag_255:\n        /* \"#utility.yul\":11703:11820   */\n      swap4\n      pop\n        /* \"#utility.yul\":11846:11849   */\n      dup4\n        /* \"#utility.yul\":11891:11895   */\n      0x20\n        /* \"#utility.yul\":11883:11889   */\n      dup3\n        /* \"#utility.yul\":11879:11896   */\n      mul\n        /* \"#utility.yul\":11874:11877   */\n      dup6\n        /* \"#utility.yul\":11870:11897   */\n      add\n        /* \"#utility.yul\":11921:12001   */\n      tag_256\n        /* \"#utility.yul\":11995:12000   */\n      dup6\n        /* \"#utility.yul\":11921:12001   */\n      tag_128\n      jump\t// in\n    tag_256:\n        /* \"#utility.yul\":12024:12031   */\n      dup1\n        /* \"#utility.yul\":12055:12056   */\n      0x00\n        /* \"#utility.yul\":12040:12478   */\n    tag_257:\n        /* \"#utility.yul\":12065:12071   */\n      dup6\n        /* \"#utility.yul\":12062:12063   */\n      dup2\n        /* \"#utility.yul\":12059:12072   */\n      lt\n        /* \"#utility.yul\":12040:12478   */\n      iszero\n      tag_259\n      jumpi\n        /* \"#utility.yul\":12136:12145   */\n      dup5\n        /* \"#utility.yul\":12130:12134   */\n      dup5\n        /* \"#utility.yul\":12126:12146   */\n      sub\n        /* \"#utility.yul\":12121:12124   */\n      dup10\n        /* \"#utility.yul\":12114:12147   */\n      mstore\n        /* \"#utility.yul\":12187:12193   */\n      dup2\n        /* \"#utility.yul\":12181:12194   */\n      mload\n        /* \"#utility.yul\":12215:12327   */\n      tag_260\n        /* \"#utility.yul\":12322:12326   */\n      dup6\n        /* \"#utility.yul\":12307:12320   */\n      dup3\n        /* \"#utility.yul\":12215:12327   */\n      tag_130\n      jump\t// in\n    tag_260:\n        /* \"#utility.yul\":12207:12327   */\n      swap5\n      pop\n        /* \"#utility.yul\":12350:12434   */\n      tag_261\n        /* \"#utility.yul\":12427:12433   */\n      dup4\n        /* \"#utility.yul\":12350:12434   */\n      tag_131\n      jump\t// in\n    tag_261:\n        /* \"#utility.yul\":12340:12434   */\n      swap3\n      pop\n        /* \"#utility.yul\":12463:12467   */\n      0x20\n        /* \"#utility.yul\":12458:12461   */\n      dup11\n        /* \"#utility.yul\":12454:12468   */\n      add\n        /* \"#utility.yul\":12447:12468   */\n      swap10\n      pop\n        /* \"#utility.yul\":12100:12478   */\n      pop\n        /* \"#utility.yul\":12087:12088   */\n      0x01\n        /* \"#utility.yul\":12084:12085   */\n      dup2\n        /* \"#utility.yul\":12080:12089   */\n      add\n        /* \"#utility.yul\":12075:12089   */\n      swap1\n      pop\n        /* \"#utility.yul\":12040:12478   */\n      jump(tag_257)\n    tag_259:\n        /* \"#utility.yul\":12044:12058   */\n      pop\n        /* \"#utility.yul\":12494:12498   */\n      dup3\n        /* \"#utility.yul\":12487:12498   */\n      swap8\n      pop\n        /* \"#utility.yul\":12514:12517   */\n      dup8\n        /* \"#utility.yul\":12507:12517   */\n      swap6\n      pop\n        /* \"#utility.yul\":11592:12523   */\n      pop\n      pop\n      pop\n      pop\n      pop\n        /* \"#utility.yul\":11420:12523   */\n      swap3\n      swap2\n      pop\n      pop\n      jump\t// out\n        /* \"#utility.yul\":12529:12998   */\n    tag_32:\n        /* \"#utility.yul\":12720:12724   */\n      0x00\n        /* \"#utility.yul\":12758:12760   */\n      0x20\n        /* \"#utility.yul\":12747:12756   */\n      dup3\n        /* \"#utility.yul\":12743:12761   */\n      add\n        /* \"#utility.yul\":12735:12761   */\n      swap1\n      pop\n        /* \"#utility.yul\":12807:12816   */\n      dup2\n        /* \"#utility.yul\":12801:12805   */\n      dup2\n        /* \"#utility.yul\":12797:12817   */\n      sub\n        /* \"#utility.yul\":12793:12794   */\n      0x00\n        /* \"#utility.yul\":12782:12791   */\n      dup4\n        /* \"#utility.yul\":12778:12795   */\n      add\n        /* \"#utility.yul\":12771:12818   */\n      mstore\n        /* \"#utility.yul\":12835:12991   */\n      tag_263\n        /* \"#utility.yul\":12986:12990   */\n      dup2\n        /* \"#utility.yul\":12977:12983   */\n      dup5\n        /* \"#utility.yul\":12835:12991   */\n      tag_132\n      jump\t// in\n    tag_263:\n        /* \"#utility.yul\":12827:12991   */\n      swap1\n      pop\n        /* \"#utility.yul\":12529:12998   */\n      swap3\n      swap2\n      pop\n      pop\n      jump\t// out\n        /* \"#utility.yul\":13004:13184   */\n    tag_133:\n        /* \"#utility.yul\":13052:13129   */\n      0x4e487b7100000000000000000000000000000000000000000000000000000000\n        /* \"#utility.yul\":13049:13050   */\n      0x00\n        /* \"#utility.yul\":13042:13130   */\n      mstore\n        /* \"#utility.yul\":13149:13153   */\n      0x22\n        /* \"#utility.yul\":13146:13147   */\n      0x04\n        /* \"#utility.yul\":13139:13154   */\n      mstore\n        /* \"#utility.yul\":13173:13177   */\n      0x24\n        /* \"#utility.yul\":13170:13171   */\n      0x00\n        /* \"#utility.yul\":13163:13178   */\n      revert\n        /* \"#utility.yul\":13190:13510   */\n    tag_45:\n        /* \"#utility.yul\":13234:13240   */\n      0x00\n        /* \"#utility.yul\":13271:13272   */\n      0x02\n        /* \"#utility.yul\":13265:13269   */\n      dup3\n        /* \"#utility.yul\":13261:13273   */\n      div\n        /* \"#utility.yul\":13251:13273   */\n      swap1\n      pop\n        /* \"#utility.yul\":13318:13319   */\n      0x01\n        /* \"#utility.yul\":13312:13316   */\n      dup3\n        /* \"#utility.yul\":13308:13320   */\n      and\n        /* \"#utility.yul\":13339:13357   */\n      dup1\n        /* \"#utility.yul\":13329:13410   */\n      tag_266\n      jumpi\n        /* \"#utility.yul\":13395:13399   */\n      0x7f\n        /* \"#utility.yul\":13387:13393   */\n      dup3\n        /* \"#utility.yul\":13383:13400   */\n      and\n        /* \"#utility.yul\":13373:13400   */\n      swap2\n      pop\n        /* \"#utility.yul\":13329:13410   */\n    tag_266:\n        /* \"#utility.yul\":13457:13459   */\n      0x20\n        /* \"#utility.yul\":13449:13455   */\n      dup3\n        /* \"#utility.yul\":13446:13460   */\n      lt\n        /* \"#utility.yul\":13426:13444   */\n      dup2\n        /* \"#utility.yul\":13423:13461   */\n      sub\n        /* \"#utility.yul\":13420:13504   */\n      tag_267\n      jumpi\n        /* \"#utility.yul\":13476:13494   */\n      tag_268\n      tag_133\n      jump\t// in\n    tag_268:\n        /* \"#utility.yul\":13420:13504   */\n    tag_267:\n        /* \"#utility.yul\":13241:13510   */\n      pop\n        /* \"#utility.yul\":13190:13510   */\n      swap2\n      swap1\n      pop\n      jump\t// out\n        /* \"#utility.yul\":13516:13657   */\n    tag_134:\n        /* \"#utility.yul\":13565:13569   */\n      0x00\n        /* \"#utility.yul\":13588:13591   */\n      dup2\n        /* \"#utility.yul\":13580:13591   */\n      swap1\n      pop\n        /* \"#utility.yul\":13611:13614   */\n      dup2\n        /* \"#utility.yul\":13608:13609   */\n      0x00\n        /* \"#utility.yul\":13601:13615   */\n      mstore\n        /* \"#utility.yul\":13645:13649   */\n      0x20\n        /* \"#utility.yul\":13642:13643   */\n      0x00\n        /* \"#utility.yul\":13632:13650   */\n      keccak256\n        /* \"#utility.yul\":13624:13650   */\n      swap1\n      pop\n        /* \"#utility.yul\":13516:13657   */\n      swap2\n      swap1\n      pop\n      jump\t// out\n        /* \"#utility.yul\":13663:13756   */\n    tag_135:\n        /* \"#utility.yul\":13700:13706   */\n      0x00\n        /* \"#utility.yul\":13747:13749   */\n      0x20\n        /* \"#utility.yul\":13742:13744   */\n      0x1f\n        /* \"#utility.yul\":13735:13740   */\n      dup4\n        /* \"#utility.yul\":13731:13745   */\n      add\n        /* \"#utility.yul\":13727:13750   */\n      div\n        /* \"#utility.yul\":13717:13750   */\n      swap1\n      pop\n        /* \"#utility.yul\":13663:13756   */\n      swap2\n      swap1\n      pop\n      jump\t// out\n        /* \"#utility.yul\":13762:13869   */\n    tag_136:\n        /* \"#utility.yul\":13806:13814   */\n      0x00\n        /* \"#utility.yul\":13856:13861   */\n      dup3\n        /* \"#utility.yul\":13850:13854   */\n      dup3\n        /* \"#utility.yul\":13846:13862   */\n      shl\n        /* \"#utility.yul\":13825:13862   */\n      swap1\n      pop\n        /* \"#utility.yul\":13762:13869   */\n      swap3\n      swap2\n      pop\n      pop\n      jump\t// out\n        /* \"#utility.yul\":13875:14268   */\n    tag_137:\n        /* \"#utility.yul\":13944:13950   */\n      0x00\n        /* \"#utility.yul\":13994:13995   */\n      0x08\n        /* \"#utility.yul\":13982:13992   */\n      dup4\n        /* \"#utility.yul\":13978:13996   */\n      mul\n        /* \"#utility.yul\":14017:14114   */\n      tag_273\n        /* \"#utility.yul\":14047:14113   */\n      0xffffffffffffffffffffffffffffffffffffffffffffffffffffffffffffffff\n        /* \"#utility.yul\":14036:14045   */\n      dup3\n        /* \"#utility.yul\":14017:14114   */\n      tag_136\n      jump\t// in\n    tag_273:\n        /* \"#utility.yul\":14135:14174   */\n      tag_274\n        /* \"#utility.yul\":14165:14173   */\n      dup7\n        /* \"#utility.yul\":14154:14163   */\n      dup4\n        /* \"#utility.yul\":14135:14174   */\n      tag_136\n      jump\t// in\n    tag_274:\n        /* \"#utility.yul\":14123:14174   */\n      swap6\n      pop\n        /* \"#utility.yul\":14207:14211   */\n      dup1\n        /* \"#utility.yul\":14203:14212   */\n      not\n        /* \"#utility.yul\":14196:14201   */\n      dup5\n        /* \"#utility.yul\":14192:14213   */\n      and\n        /* \"#utility.yul\":14183:14213   */\n      swap4\n      pop\n        /* \"#utility.yul\":14256:14260   */\n      dup1\n        /* \"#utility.yul\":14246:14254   */\n      dup7\n        /* \"#utility.yul\":14242:14261   */\n      and\n        /* \"#utility.yul\":14235:14240   */\n      dup5\n        /* \"#utility.yul\":14232:14262   */\n      or\n        /* \"#utility.yul\":14222:14262   */\n      swap3\n      pop\n        /* \"#utility.yul\":13951:14268   */\n      pop\n      pop\n        /* \"#utility.yul\":13875:14268   */\n      swap4\n      swap3\n      pop\n      pop\n      pop\n      jump\t// out\n        /* \"#utility.yul\":14274:14334   */\n    tag_138:\n        /* \"#utility.yul\":14302:14305   */\n      0x00\n        /* \"#utility.yul\":14323:14328   */\n      dup2\n        /* \"#utility.yul\":14316:14328   */\n      swap1\n      pop\n        /* \"#utility.yul\":14274:14334   */\n      swap2\n      swap1\n      pop\n      jump\t// out\n        /* \"#utility.yul\":14340:14482   */\n    tag_139:\n        /* \"#utility.yul\":14390:14399   */\n      0x00\n        /* \"#utility.yul\":14423:14476   */\n      tag_277\n        /* \"#utility.yul\":14441:14475   */\n      tag_278\n        /* \"#utility.yul\":14450:14474   */\n      tag_279\n        /* \"#utility.yul\":14468:14473   */\n      dup5\n        /* \"#utility.yul\":14450:14474   */\n      tag_114\n      jump\t// in\n    tag_279:\n        /* \"#utility.yul\":14441:14475   */\n      tag_138\n      jump\t// in\n    tag_278:\n        /* \"#utility.yul\":14423:14476   */\n      tag_114\n      jump\t// in\n    tag_277:\n        /* \"#utility.yul\":14410:14476   */\n      swap1\n      pop\n        /* \"#utility.yul\":14340:14482   */\n      swap2\n      swap1\n      pop\n      jump\t// out\n        /* \"#utility.yul\":14488:14563   */\n    tag_140:\n        /* \"#utility.yul\":14531:14534   */\n      0x00\n        /* \"#utility.yul\":14552:14557   */\n      dup2\n        /* \"#utility.yul\":14545:14557   */\n      swap1\n      pop\n        /* \"#utility.yul\":14488:14563   */\n      swap2\n      swap1\n      pop\n      jump\t// out\n        /* \"#utility.yul\":14569:14838   */\n    tag_141:\n        /* \"#utility.yul\":14679:14718   */\n      tag_282\n        /* \"#utility.yul\":14710:14717   */\n      dup4\n        /* \"#utility.yul\":14679:14718   */\n      tag_139\n      jump\t// in\n    tag_282:\n        /* \"#utility.yul\":14740:14831   */\n      tag_283\n        /* \"#utility.yul\":14789:14830   */\n      tag_284\n        /* \"#utility.yul\":14813:14829   */\n      dup3\n        /* \"#utility.yul\":14789:14830   */\n      tag_140\n      jump\t// in\n    tag_284:\n        /* \"#utility.yul\":14781:14787   */\n      dup5\n        /* \"#utility.yul\":14774:14778   */\n      dup5\n        /* \"#utility.yul\":14768:14779   */\n      sload\n        /* \"#utility.yul\":14740:14831   */\n      tag_137\n      jump\t// in\n    tag_283:\n        /* \"#utility.yul\":14734:14738   */\n      dup3\n        /* \"#utility.yul\":14727:14832   */\n      sstore\n        /* \"#utility.yul\":14645:14838   */\n      pop\n        /* \"#utility.yul\":14569:14838   */\n      pop\n      pop\n      pop\n      jump\t// out\n        /* \"#utility.yul\":14844:14917   */\n    tag_142:\n        /* \"#utility.yul\":14889:14892   */\n      0x00\n        /* \"#utility.yul\":14910:14911   */\n      0x00\n        /* \"#utility.yul\":14903:14911   */\n      swap1\n      pop\n        /* \"#utility.yul\":14844:14917   */\n      swap1\n      jump\t// out\n        /* \"#utility.yul\":14923:15112   */\n    tag_143:\n        /* \"#utility.yul\":15000:15032   */\n      tag_287\n      tag_142\n      jump\t// in\n    tag_287:\n        /* \"#utility.yul\":15041:15106   */\n      tag_288\n        /* \"#utility.yul\":15099:15105   */\n      dup2\n        /* \"#utility.yul\":15091:15097   */\n      dup5\n        /* \"#utility.yul\":15085:15089   */\n      dup5\n        /* \"#utility.yul\":15041:15106   */\n      tag_141\n      jump\t// in\n    tag_288:\n        /* \"#utility.yul\":14976:15112   */\n      pop\n        /* \"#utility.yul\":14923:15112   */\n      pop\n      pop\n      jump\t// out\n        /* \"#utility.yul\":15118:15304   */\n    tag_144:\n        /* \"#utility.yul\":15178:15298   */\n    tag_290:\n        /* \"#utility.yul\":15195:15198   */\n      dup2\n        /* \"#utility.yul\":15188:15193   */\n      dup2\n        /* \"#utility.yul\":15185:15199   */\n      lt\n        /* \"#utility.yul\":15178:15298   */\n      iszero\n      tag_292\n      jumpi\n        /* \"#utility.yul\":15249:15288   */\n      tag_293\n        /* \"#utility.yul\":15286:15287   */\n      0x00\n        /* \"#utility.yul\":15279:15284   */\n      dup3\n        /* \"#utility.yul\":15249:15288   */\n      tag_143\n      jump\t// in\n    tag_293:\n        /* \"#utility.yul\":15222:15223   */\n      0x01\n        /* \"#utility.yul\":15215:15220   */\n      dup2\n        /* \"#utility.yul\":15211:15224   */\n      add\n        /* \"#utility.yul\":15202:15224   */\n      swap1\n      pop\n        /* \"#utility.yul\":15178:15298   */\n      jump(tag_290)\n    tag_292:\n        /* \"#utility.yul\":15118:15304   */\n      pop\n      pop\n      jump\t// out\n        /* \"#utility.yul\":15310:15853   */\n    tag_145:\n        /* \"#utility.yul\":15411:15413   */\n      0x1f\n        /* \"#utility.yul\":15406:15409   */\n      dup3\n        /* \"#utility.yul\":15403:15414   */\n      gt\n        /* \"#utility.yul\":15400:15846   */\n      iszero\n      tag_295\n      jumpi\n        /* \"#utility.yul\":15445:15483   */\n      tag_296\n        /* \"#utility.yul\":15477:15482   */\n      dup2\n        /* \"#utility.yul\":15445:15483   */\n      tag_134\n      jump\t// in\n    tag_296:\n        /* \"#utility.yul\":15529:15558   */\n      tag_297\n        /* \"#utility.yul\":15547:15557   */\n      dup5\n        /* \"#utility.yul\":15529:15558   */\n      tag_135\n      jump\t// in\n    tag_297:\n        /* \"#utility.yul\":15519:15527   */\n      dup2\n        /* \"#utility.yul\":15515:15559   */\n      add\n        /* \"#utility.yul\":15712:15714   */\n      0x20\n        /* \"#utility.yul\":15700:15710   */\n      dup6\n        /* \"#utility.yul\":15697:15715   */\n      lt\n        /* \"#utility.yul\":15694:15743   */\n      iszero\n      tag_298\n      jumpi\n        /* \"#utility.yul\":15733:15741   */\n      dup2\n        /* \"#utility.yul\":15718:15741   */\n      swap1\n      pop\n        /* \"#utility.yul\":15694:15743   */\n    tag_298:\n        /* \"#utility.yul\":15756:15836   */\n      tag_299\n        /* \"#utility.yul\":15812:15834   */\n      tag_300\n        /* \"#utility.yul\":15830:15833   */\n      dup6\n        /* \"#utility.yul\":15812:15834   */\n      tag_135\n      jump\t// in\n    tag_300:\n        /* \"#utility.yul\":15802:15810   */\n      dup4\n        /* \"#utility.yul\":15798:15835   */\n      add\n        /* \"#utility.yul\":15785:15796   */\n      dup3\n        /* \"#utility.yul\":15756:15836   */\n      tag_144\n      jump\t// in\n    tag_299:\n        /* \"#utility.yul\":15415:15846   */\n      pop\n      pop\n        /* \"#utility.yul\":15400:15846   */\n    tag_295:\n        /* \"#utility.yul\":15310:15853   */\n      pop\n      pop\n      pop\n      jump\t// out\n        /* \"#utility.yul\":15859:15976   */\n    tag_146:\n        /* \"#utility.yul\":15913:15921   */\n      0x00\n        /* \"#utility.yul\":15963:15968   */\n      dup3\n        /* \"#utility.yul\":15957:15961   */\n      dup3\n        /* \"#utility.yul\":15953:15969   */\n      shr\n        /* \"#utility.yul\":15932:15969   */\n      swap1\n      pop\n        /* \"#utility.yul\":15859:15976   */\n      swap3\n      swap2\n      pop\n      pop\n      jump\t// out\n        /* \"#utility.yul\":15982:16151   */\n    tag_147:\n        /* \"#utility.yul\":16026:16032   */\n      0x00\n        /* \"#utility.yul\":16059:16110   */\n      tag_303\n        /* \"#utility.yul\":16107:16108   */\n      0x00\n        /* \"#utility.yul\":16103:16109   */\n      not\n        /* \"#utility.yul\":16095:16100   */\n      dup5\n        /* \"#utility.yul\":16092:16093   */\n      0x08\n        /* \"#utility.yul\":16088:16101   */\n      mul\n        /* \"#utility.yul\":16059:16110   */\n      tag_146\n      jump\t// in\n    tag_303:\n        /* \"#utility.yul\":16055:16111   */\n      not\n        /* \"#utility.yul\":16140:16144   */\n      dup1\n        /* \"#utility.yul\":16134:16138   */\n      dup4\n        /* \"#utility.yul\":16130:16145   */\n      and\n        /* \"#utility.yul\":16120:16145   */\n      swap2\n      pop\n        /* \"#utility.yul\":16033:16151   */\n      pop\n        /* \"#utility.yul\":15982:16151   */\n      swap3\n      swap2\n      pop\n      pop\n      jump\t// out\n        /* \"#utility.yul\":16156:16451   */\n    tag_148:\n        /* \"#utility.yul\":16232:16236   */\n      0x00\n        /* \"#utility.yul\":16378:16407   */\n      tag_305\n        /* \"#utility.yul\":16403:16406   */\n      dup4\n        /* \"#utility.yul\":16397:16401   */\n      dup4\n        /* \"#utility.yul\":16378:16407   */\n      tag_147\n      jump\t// in\n    tag_305:\n        /* \"#utility.yul\":16370:16407   */\n      swap2\n      pop\n        /* \"#utility.yul\":16440:16443   */\n      dup3\n        /* \"#utility.yul\":16437:16438   */\n      0x02\n        /* \"#utility.yul\":16433:16444   */\n      mul\n        /* \"#utility.yul\":16427:16431   */\n      dup3\n        /* \"#utility.yul\":16424:16445   */\n      or\n        /* \"#utility.yul\":16416:16445   */\n      swap1\n      pop\n        /* \"#utility.yul\":16156:16451   */\n      swap3\n      swap2\n      pop\n      pop\n      jump\t// out\n        /* \"#utility.yul\":16456:17851   */\n    tag_36:\n        /* \"#utility.yul\":16573:16610   */\n      tag_307\n        /* \"#utility.yul\":16606:16609   */\n      dup3\n        /* \"#utility.yul\":16573:16610   */\n      tag_118\n      jump\t// in\n    tag_307:\n        /* \"#utility.yul\":16675:16693   */\n      0xffffffffffffffff\n        /* \"#utility.yul\":16667:16673   */\n      dup2\n        /* \"#utility.yul\":16664:16694   */\n      gt\n        /* \"#utility.yul\":16661:16717   */\n      iszero\n      tag_308\n      jumpi\n        /* \"#utility.yul\":16697:16715   */\n      tag_309\n      tag_107\n      jump\t// in\n    tag_309:\n        /* \"#utility.yul\":16661:16717   */\n    tag_308:\n        /* \"#utility.yul\":16741:16779   */\n      tag_310\n        /* \"#utility.yul\":16773:16777   */\n      dup3\n        /* \"#utility.yul\":16767:16778   */\n      sload\n        /* \"#utility.yul\":16741:16779   */\n      tag_45\n      jump\t// in\n    tag_310:\n        /* \"#utility.yul\":16826:16893   */\n      tag_311\n        /* \"#utility.yul\":16886:16892   */\n      dup3\n        /* \"#utility.yul\":16878:16884   */\n      dup3\n        /* \"#utility.yul\":16872:16876   */\n      dup6\n        /* \"#utility.yul\":16826:16893   */\n      tag_145\n      jump\t// in\n    tag_311:\n        /* \"#utility.yul\":16920:16921   */\n      0x00\n        /* \"#utility.yul\":16944:16948   */\n      0x20\n        /* \"#utility.yul\":16931:16948   */\n      swap1\n      pop\n        /* \"#utility.yul\":16976:16978   */\n      0x1f\n        /* \"#utility.yul\":16968:16974   */\n      dup4\n        /* \"#utility.yul\":16965:16979   */\n      gt\n        /* \"#utility.yul\":16993:16994   */\n      0x01\n        /* \"#utility.yul\":16988:17606   */\n      dup2\n      eq\n      tag_313\n      jumpi\n        /* \"#utility.yul\":17650:17651   */\n      0x00\n        /* \"#utility.yul\":17667:17673   */\n      dup5\n        /* \"#utility.yul\":17664:17741   */\n      iszero\n      tag_314\n      jumpi\n        /* \"#utility.yul\":17716:17725   */\n      dup3\n        /* \"#utility.yul\":17711:17714   */\n      dup8\n        /* \"#utility.yul\":17707:17726   */\n      add\n        /* \"#utility.yul\":17701:17727   */\n      mload\n        /* \"#utility.yul\":17692:17727   */\n      swap1\n      pop\n        /* \"#utility.yul\":17664:17741   */\n    tag_314:\n        /* \"#utility.yul\":17767:17834   */\n      tag_315\n        /* \"#utility.yul\":17827:17833   */\n      dup6\n        /* \"#utility.yul\":17820:17825   */\n      dup3\n        /* \"#utility.yul\":17767:17834   */\n      tag_148\n      jump\t// in\n    tag_315:\n        /* \"#utility.yul\":17761:17765   */\n      dup7\n        /* \"#utility.yul\":17754:17835   */\n      sstore\n        /* \"#utility.yul\":17623:17845   */\n      pop\n        /* \"#utility.yul\":16958:17845   */\n      jump(tag_312)\n        /* \"#utility.yul\":16988:17606   */\n    tag_313:\n        /* \"#utility.yul\":17040:17044   */\n      0x1f\n        /* \"#utility.yul\":17036:17045   */\n      not\n        /* \"#utility.yul\":17028:17034   */\n      dup5\n        /* \"#utility.yul\":17024:17046   */\n      and\n        /* \"#utility.yul\":17074:17111   */\n      tag_316\n        /* \"#utility.yul\":17106:17110   */\n      dup7\n        /* \"#utility.yul\":17074:17111   */\n      tag_134\n      jump\t// in\n    tag_316:\n        /* \"#utility.yul\":17133:17134   */\n      0x00\n        /* \"#utility.yul\":17147:17355   */\n    tag_317:\n        /* \"#utility.yul\":17161:17168   */\n      dup3\n        /* \"#utility.yul\":17158:17159   */\n      dup2\n        /* \"#utility.yul\":17155:17169   */\n      lt\n        /* \"#utility.yul\":17147:17355   */\n      iszero\n      tag_319\n      jumpi\n        /* \"#utility.yul\":17240:17249   */\n      dup5\n        /* \"#utility.yul\":17235:17238   */\n      dup10\n        /* \"#utility.yul\":17231:17250   */\n      add\n        /* \"#utility.yul\":17225:17251   */\n      mload\n        /* \"#utility.yul\":17217:17223   */\n      dup3\n        /* \"#utility.yul\":17210:17252   */\n      sstore\n        /* \"#utility.yul\":17291:17292   */\n      0x01\n        /* \"#utility.yul\":17283:17289   */\n      dup3\n        /* \"#utility.yul\":17279:17293   */\n      add\n        /* \"#utility.yul\":17269:17293   */\n      swap2\n      pop\n        /* \"#utility.yul\":17338:17340   */\n      0x20\n        /* \"#utility.yul\":17327:17336   */\n      dup6\n        /* \"#utility.yul\":17323:17341   */\n      add\n        /* \"#utility.yul\":17310:17341   */\n      swap5\n      pop\n        /* \"#utility.yul\":17184:17188   */\n      0x20\n        /* \"#utility.yul\":17181:17182   */\n      dup2\n        /* \"#utility.yul\":17177:17189   */\n      add\n        /* \"#utility.yul\":17172:17189   */\n      swap1\n      pop\n        /* \"#utility.yul\":17147:17355   */\n      jump(tag_317)\n    tag_319:\n        /* \"#utility.yul\":17383:17389   */\n      dup7\n        /* \"#utility.yul\":17374:17381   */\n      dup4\n        /* \"#utility.yul\":17371:17390   */\n      lt\n        /* \"#utility.yul\":17368:17547   */\n      iszero\n      tag_320\n      jumpi\n        /* \"#utility.yul\":17441:17450   */\n      dup5\n        /* \"#utility.yul\":17436:17439   */\n      dup10\n        /* \"#utility.yul\":17432:17451   */\n      add\n        /* \"#utility.yul\":17426:17452   */\n      mload\n        /* \"#utility.yul\":17484:17532   */\n      tag_321\n        /* \"#utility.yul\":17526:17530   */\n      0x1f\n        /* \"#utility.yul\":17518:17524   */\n      dup10\n        /* \"#utility.yul\":17514:17531   */\n      and\n        /* \"#utility.yul\":17503:17512   */\n      dup3\n        /* \"#utility.yul\":17484:17532   */\n      tag_147\n      jump\t// in\n    tag_321:\n        /* \"#utility.yul\":17476:17482   */\n      dup4\n        /* \"#utility.yul\":17469:17533   */\n      sstore\n        /* \"#utility.yul\":17391:17547   */\n      pop\n        /* \"#utility.yul\":17368:17547   */\n    tag_320:\n        /* \"#utility.yul\":17593:17594   */\n      0x01\n        /* \"#utility.yul\":17589:17590   */\n      0x02\n        /* \"#utility.yul\":17581:17587   */\n      dup9\n        /* \"#utility.yul\":17577:17591   */\n      mul\n        /* \"#utility.yul\":17573:17595   */\n      add\n        /* \"#utility.yul\":17567:17571   */\n      dup9\n        /* \"#utility.yul\":17560:17596   */\n      sstore\n        /* \"#utility.yul\":16995:17606   */\n      pop\n      pop\n      pop\n        /* \"#utility.yul\":16958:17845   */\n    tag_312:\n      pop\n        /* \"#utility.yul\":16548:17851   */\n      pop\n      pop\n      pop\n        /* \"#utility.yul\":16456:17851   */\n      pop\n      pop\n      jump\t// out\n        /* \"#utility.yul\":17857:18005   */\n    tag_149:\n        /* \"#utility.yul\":17959:17970   */\n      0x00\n        /* \"#utility.yul\":17996:17999   */\n      dup2\n        /* \"#utility.yul\":17981:17999   */\n      swap1\n      pop\n        /* \"#utility.yul\":17857:18005   */\n      swap3\n      swap2\n      pop\n      pop\n      jump\t// out\n        /* \"#utility.yul\":18011:18401   */\n    tag_150:\n        /* \"#utility.yul\":18117:18120   */\n      0x00\n        /* \"#utility.yul\":18145:18184   */\n      tag_324\n        /* \"#utility.yul\":18178:18183   */\n      dup3\n        /* \"#utility.yul\":18145:18184   */\n      tag_118\n      jump\t// in\n    tag_324:\n        /* \"#utility.yul\":18200:18289   */\n      tag_325\n        /* \"#utility.yul\":18282:18288   */\n      dup2\n        /* \"#utility.yul\":18277:18280   */\n      dup6\n        /* \"#utility.yul\":18200:18289   */\n      tag_149\n      jump\t// in\n    tag_325:\n        /* \"#utility.yul\":18193:18289   */\n      swap4\n      pop\n        /* \"#utility.yul\":18298:18363   */\n      tag_326\n        /* \"#utility.yul\":18356:18362   */\n      dup2\n        /* \"#utility.yul\":18351:18354   */\n      dup6\n        /* \"#utility.yul\":18344:18348   */\n      0x20\n        /* \"#utility.yul\":18337:18342   */\n      dup7\n        /* \"#utility.yul\":18333:18349   */\n      add\n        /* \"#utility.yul\":18298:18363   */\n      tag_120\n      jump\t// in\n    tag_326:\n        /* \"#utility.yul\":18388:18394   */\n      dup1\n        /* \"#utility.yul\":18383:18386   */\n      dup5\n        /* \"#utility.yul\":18379:18395   */\n      add\n        /* \"#utility.yul\":18372:18395   */\n      swap2\n      pop\n        /* \"#utility.yul\":18121:18401   */\n      pop\n        /* \"#utility.yul\":18011:18401   */\n      swap3\n      swap2\n      pop\n      pop\n      jump\t// out\n        /* \"#utility.yul\":18407:18682   */\n    tag_40:\n        /* \"#utility.yul\":18539:18542   */\n      0x00\n        /* \"#utility.yul\":18561:18656   */\n      tag_328\n        /* \"#utility.yul\":18652:18655   */\n      dup3\n        /* \"#utility.yul\":18643:18649   */\n      dup5\n        /* \"#utility.yul\":18561:18656   */\n      tag_150\n      jump\t// in\n    tag_328:\n        /* \"#utility.yul\":18554:18656   */\n      swap2\n      pop\n        /* \"#utility.yul\":18673:18676   */\n      dup2\n        /* \"#utility.yul\":18666:18676   */\n      swap1\n      pop\n        /* \"#utility.yul\":18407:18682   */\n      swap3\n      swap2\n      pop\n      pop\n      jump\t// out\n        /* \"#utility.yul\":18688:18868   */\n    tag_65:\n        /* \"#utility.yul\":18736:18813   */\n      0x4e487b7100000000000000000000000000000000000000000000000000000000\n        /* \"#utility.yul\":18733:18734   */\n      0x00\n        /* \"#utility.yul\":18726:18814   */\n      mstore\n        /* \"#utility.yul\":18833:18837   */\n      0x32\n        /* \"#utility.yul\":18830:18831   */\n      0x04\n        /* \"#utility.yul\":18823:18838   */\n      mstore\n        /* \"#utility.yul\":18857:18861   */\n      0x24\n        /* \"#utility.yul\":18854:18855   */\n      0x00\n        /* \"#utility.yul\":18847:18862   */\n      revert\n\n    auxdata: 0xa2646970667358221220cb77ae4173d4c1644247a31fae4da1854eb409dd7009658b2790f5ffab69088064736f6c634300081f0033\n}\n",
				"bytecode": {
					"linkReferences": {},
					"object": "6080604052348015600e575f5ffd5b506111988061001c5f395ff3fe608060405234801561000f575f5ffd5b5060043610610055575f3560e01c80638917d33c1461005957806390c3ee4d14610075578063aa67f06b146100a5578063dc78302b146100d8578063f1d064b314610108575b5f5ffd5b610073600480360381019061006e91906109e1565b610126565b005b61008f600480360381019061008a9190610a99565b610231565b60405161009c9190610aef565b60405180910390f35b6100bf60048036038101906100ba9190610a99565b61025e565b6040516100cf9493929190610b68565b60405180910390f35b6100f260048036038101906100ed9190610bc0565b610434565b6040516100ff9190610cb0565b60405180910390f35b610110610626565b60405161011d9190610df9565b60405180910390f35b5f60405180608001604052808681526020018581526020018481526020018381525090505f81908060018154018082558091505060019003905f5260205f2090600402015f909190919091505f820151815f0190816101859190611016565b506020820151816001015560408201518160020190816101a59190611016565b5060608201518160030190816101bb9190611016565b505050806002866040516101cf919061111f565b90815260200160405180910390205f820151815f0190816101f09190611016565b506020820151816001015560408201518160020190816102109190611016565b5060608201518160030190816102269190611016565b509050505050505050565b6001818051602081018201805184825260208301602085012081835280955050505050505f915090505481565b6002818051602081018201805184825260208301602085012081835280955050505050505f91509050805f01805461029590610e46565b80601f01602080910402602001604051908101604052809291908181526020018280546102c190610e46565b801561030c5780601f106102e35761010080835404028352916020019161030c565b820191905f5260205f20905b8154815290600101906020018083116102ef57829003601f168201915b50505050509080600101549080600201805461032790610e46565b80601f016020809104026020016040519081016040528092919081815260200182805461035390610e46565b801561039e5780601f106103755761010080835404028352916020019161039e565b820191905f5260205f20905b81548152906001019060200180831161038157829003601f168201915b5050505050908060030180546103b390610e46565b80601f01602080910402602001604051908101604052809291908181526020018280546103df90610e46565b801561042a5780601f106104015761010080835404028352916020019161042a565b820191905f5260205f20905b81548152906001019060200180831161040d57829003601f168201915b5050505050905084565b61043c61083a565b5f828154811061044f5761044e611135565b5b905f5260205f2090600402016040518060800160405290815f8201805461047590610e46565b80601f01602080910402602001604051908101604052809291908181526020018280546104a190610e46565b80156104ec5780601f106104c3576101008083540402835291602001916104ec565b820191905f5260205f20905b8154815290600101906020018083116104cf57829003601f168201915b505050505081526020016001820154815260200160028201805461050f90610e46565b80601f016020809104026020016040519081016040528092919081815260200182805461053b90610e46565b80156105865780601f1061055d57610100808354040283529160200191610586565b820191905f5260205f20905b81548152906001019060200180831161056957829003601f168201915b5050505050815260200160038201805461059f90610e46565b80601f01602080910402602001604051908101604052809291908181526020018280546105cb90610e46565b80156106165780601f106105ed57610100808354040283529160200191610616565b820191905f5260205f20905b8154815290600101906020018083116105f957829003601f168201915b5050505050815250509050919050565b60605f805480602002602001604051908101604052809291908181526020015f905b82821015610831578382905f5260205f2090600402016040518060800160405290815f8201805461067890610e46565b80601f01602080910402602001604051908101604052809291908181526020018280546106a490610e46565b80156106ef5780601f106106c6576101008083540402835291602001916106ef565b820191905f5260205f20905b8154815290600101906020018083116106d257829003601f168201915b505050505081526020016001820154815260200160028201805461071290610e46565b80601f016020809104026020016040519081016040528092919081815260200182805461073e90610e46565b80156107895780601f1061076057610100808354040283529160200191610789565b820191905f5260205f20905b81548152906001019060200180831161076c57829003601f168201915b505050505081526020016003820180546107a290610e46565b80601f01602080910402602001604051908101604052809291908181526020018280546107ce90610e46565b80156108195780601f106107f057610100808354040283529160200191610819565b820191905f5260205f20905b8154815290600101906020018083116107fc57829003601f168201915b50505050508152505081526020019060010190610648565b50505050905090565b6040518060800160405280606081526020015f815260200160608152602001606081525090565b5f604051905090565b5f5ffd5b5f5ffd5b5f5ffd5b5f5ffd5b5f601f19601f8301169050919050565b7f4e487b71000000000000000000000000000000000000000000000000000000005f52604160045260245ffd5b6108c08261087a565b810181811067ffffffffffffffff821117156108df576108de61088a565b5b80604052505050565b5f6108f1610861565b90506108fd82826108b7565b919050565b5f67ffffffffffffffff82111561091c5761091b61088a565b5b6109258261087a565b9050602081019050919050565b828183375f83830152505050565b5f61095261094d84610902565b6108e8565b90508281526020810184848401111561096e5761096d610876565b5b610979848285610932565b509392505050565b5f82601f83011261099557610994610872565b5b81356109a5848260208601610940565b91505092915050565b5f819050919050565b6109c0816109ae565b81146109ca575f5ffd5b50565b5f813590506109db816109b7565b92915050565b5f5f5f5f608085870312156109f9576109f861086a565b5b5f85013567ffffffffffffffff811115610a1657610a1561086e565b5b610a2287828801610981565b9450506020610a33878288016109cd565b935050604085013567ffffffffffffffff811115610a5457610a5361086e565b5b610a6087828801610981565b925050606085013567ffffffffffffffff811115610a8157610a8061086e565b5b610a8d87828801610981565b91505092959194509250565b5f60208284031215610aae57610aad61086a565b5b5f82013567ffffffffffffffff811115610acb57610aca61086e565b5b610ad784828501610981565b91505092915050565b610ae9816109ae565b82525050565b5f602082019050610b025f830184610ae0565b92915050565b5f81519050919050565b5f82825260208201905092915050565b8281835e5f83830152505050565b5f610b3a82610b08565b610b448185610b12565b9350610b54818560208601610b22565b610b5d8161087a565b840191505092915050565b5f6080820190508181035f830152610b808187610b30565b9050610b8f6020830186610ae0565b8181036040830152610ba18185610b30565b90508181036060830152610bb58184610b30565b905095945050505050565b5f60208284031215610bd557610bd461086a565b5b5f610be2848285016109cd565b91505092915050565b5f82825260208201905092915050565b5f610c0582610b08565b610c0f8185610beb565b9350610c1f818560208601610b22565b610c288161087a565b840191505092915050565b610c3c816109ae565b82525050565b5f608083015f8301518482035f860152610c5c8282610bfb565b9150506020830151610c716020860182610c33565b5060408301518482036040860152610c898282610bfb565b91505060608301518482036060860152610ca38282610bfb565b9150508091505092915050565b5f6020820190508181035f830152610cc88184610c42565b905092915050565b5f81519050919050565b5f82825260208201905092915050565b5f819050602082019050919050565b5f608083015f8301518482035f860152610d138282610bfb565b9150506020830151610d286020860182610c33565b5060408301518482036040860152610d408282610bfb565b91505060608301518482036060860152610d5a8282610bfb565b9150508091505092915050565b5f610d728383610cf9565b905092915050565b5f602082019050919050565b5f610d9082610cd0565b610d9a8185610cda565b935083602082028501610dac85610cea565b805f5b85811015610de75784840389528151610dc88582610d67565b9450610dd383610d7a565b925060208a01995050600181019050610daf565b50829750879550505050505092915050565b5f6020820190508181035f830152610e118184610d86565b905092915050565b7f4e487b71000000000000000000000000000000000000000000000000000000005f52602260045260245ffd5b5f6002820490506001821680610e5d57607f821691505b602082108103610e7057610e6f610e19565b5b50919050565b5f819050815f5260205f209050919050565b5f6020601f8301049050919050565b5f82821b905092915050565b5f60088302610ed27fffffffffffffffffffffffffffffffffffffffffffffffffffffffffffffffff82610e97565b610edc8683610e97565b95508019841693508086168417925050509392505050565b5f819050919050565b5f610f17610f12610f0d846109ae565b610ef4565b6109ae565b9050919050565b5f819050919050565b610f3083610efd565b610f44610f3c82610f1e565b848454610ea3565b825550505050565b5f5f905090565b610f5b610f4c565b610f66818484610f27565b505050565b5b81811015610f8957610f7e5f82610f53565b600181019050610f6c565b5050565b601f821115610fce57610f9f81610e76565b610fa884610e88565b81016020851015610fb7578190505b610fcb610fc385610e88565b830182610f6b565b50505b505050565b5f82821c905092915050565b5f610fee5f1984600802610fd3565b1980831691505092915050565b5f6110068383610fdf565b9150826002028217905092915050565b61101f82610b08565b67ffffffffffffffff8111156110385761103761088a565b5b6110428254610e46565b61104d828285610f8d565b5f60209050601f83116001811461107e575f841561106c578287015190505b6110768582610ffb565b8655506110dd565b601f19841661108c86610e76565b5f5b828110156110b35784890151825560018201915060208501945060208101905061108e565b868310156110d057848901516110cc601f891682610fdf565b8355505b6001600288020188555050505b505050505050565b5f81905092915050565b5f6110f982610b08565b61110381856110e5565b9350611113818560208601610b22565b80840191505092915050565b5f61112a82846110ef565b915081905092915050565b7f4e487b71000000000000000000000000000000000000000000000000000000005f52603260045260245ffdfea2646970667358221220cb77ae4173d4c1644247a31fae4da1854eb409dd7009658b2790f5ffab69088064736f6c634300081f0033",
					"opcodes": "PUSH1 0x80 PUSH1 0x40 MSTORE CALLVALUE DUP1 ISZERO PUSH1 0xE JUMPI PUSH0 PUSH0 REVERT JUMPDEST POP PUSH2 0x1198 DUP1 PUSH2 0x1C PUSH0 CODECOPY PUSH0 RETURN INVALID PUSH1 0x80 PUSH1 0x40 MSTORE CALLVALUE DUP1 ISZERO PUSH2 0xF JUMPI PUSH0 PUSH0 REVERT JUMPDEST POP PUSH1 0x4 CALLDATASIZE LT PUSH2 0x55 JUMPI PUSH0 CALLDATALOAD PUSH1 0xE0 SHR DUP1 PUSH4 0x8917D33C EQ PUSH2 0x59 JUMPI DUP1 PUSH4 0x90C3EE4D EQ PUSH2 0x75 JUMPI DUP1 PUSH4 0xAA67F06B EQ PUSH2 0xA5 JUMPI DUP1 PUSH4 0xDC78302B EQ PUSH2 0xD8 JUMPI DUP1 PUSH4 0xF1D064B3 EQ PUSH2 0x108 JUMPI JUMPDEST PUSH0 PUSH0 REVERT JUMPDEST PUSH2 0x73 PUSH1 0x4 DUP1 CALLDATASIZE SUB DUP2 ADD SWAP1 PUSH2 0x6E SWAP2 SWAP1 PUSH2 0x9E1 JUMP JUMPDEST PUSH2 0x126 JUMP JUMPDEST STOP JUMPDEST PUSH2 0x8F PUSH1 0x4 DUP1 CALLDATASIZE SUB DUP2 ADD SWAP1 PUSH2 0x8A SWAP2 SWAP1 PUSH2 0xA99 JUMP JUMPDEST PUSH2 0x231 JUMP JUMPDEST PUSH1 0x40 MLOAD PUSH2 0x9C SWAP2 SWAP1 PUSH2 0xAEF JUMP JUMPDEST PUSH1 0x40 MLOAD DUP1 SWAP2 SUB SWAP1 RETURN JUMPDEST PUSH2 0xBF PUSH1 0x4 DUP1 CALLDATASIZE SUB DUP2 ADD SWAP1 PUSH2 0xBA SWAP2 SWAP1 PUSH2 0xA99 JUMP JUMPDEST PUSH2 0x25E JUMP JUMPDEST PUSH1 0x40 MLOAD PUSH2 0xCF SWAP5 SWAP4 SWAP3 SWAP2 SWAP1 PUSH2 0xB68 JUMP JUMPDEST PUSH1 0x40 MLOAD DUP1 SWAP2 SUB SWAP1 RETURN JUMPDEST PUSH2 0xF2 PUSH1 0x4 DUP1 CALLDATASIZE SUB DUP2 ADD SWAP1 PUSH2 0xED SWAP2 SWAP1 PUSH2 0xBC0 JUMP JUMPDEST PUSH2 0x434 JUMP JUMPDEST PUSH1 0x40 MLOAD PUSH2 0xFF SWAP2 SWAP1 PUSH2 0xCB0 JUMP JUMPDEST PUSH1 0x40 MLOAD DUP1 SWAP2 SUB SWAP1 RETURN JUMPDEST PUSH2 0x110 PUSH2 0x626 JUMP JUMPDEST PUSH1 0x40 MLOAD PUSH2 0x11D SWAP2 SWAP1 PUSH2 0xDF9 JUMP JUMPDEST PUSH1 0x40 MLOAD DUP1 SWAP2 SUB SWAP1 RETURN JUMPDEST PUSH0 PUSH1 0x40 MLOAD DUP1 PUSH1 0x80 ADD PUSH1 0x40 MSTORE DUP1 DUP7 DUP2 MSTORE PUSH1 0x20 ADD DUP6 DUP2 MSTORE PUSH1 0x20 ADD DUP5 DUP2 MSTORE PUSH1 0x20 ADD DUP4 DUP2 MSTORE POP SWAP1 POP PUSH0 DUP2 SWAP1 DUP1 PUSH1 0x1 DUP2 SLOAD ADD DUP1 DUP3 SSTORE DUP1 SWAP2 POP POP PUSH1 0x1 SWAP1 SUB SWAP1 PUSH0 MSTORE PUSH1 0x20 PUSH0 KECCAK256 SWAP1 PUSH1 0x4 MUL ADD PUSH0 SWAP1 SWAP2 SWAP1 SWAP2 SWAP1 SWAP2 POP PUSH0 DUP3 ADD MLOAD DUP2 PUSH0 ADD SWAP1 DUP2 PUSH2 0x185 SWAP2 SWAP1 PUSH2 0x1016 JUMP JUMPDEST POP PUSH1 0x20 DUP3 ADD MLOAD DUP2 PUSH1 0x1 ADD SSTORE PUSH1 0x40 DUP3 ADD MLOAD DUP2 PUSH1 0x2 ADD SWAP1 DUP2 PUSH2 0x1A5 SWAP2 SWAP1 PUSH2 0x1016 JUMP JUMPDEST POP PUSH1 0x60 DUP3 ADD MLOAD DUP2 PUSH1 0x3 ADD SWAP1 DUP2 PUSH2 0x1BB SWAP2 SWAP1 PUSH2 0x1016 JUMP JUMPDEST POP POP POP DUP1 PUSH1 0x2 DUP7 PUSH1 0x40 MLOAD PUSH2 0x1CF SWAP2 SWAP1 PUSH2 0x111F JUMP JUMPDEST SWAP1 DUP2 MSTORE PUSH1 0x20 ADD PUSH1 0x40 MLOAD DUP1 SWAP2 SUB SWAP1 KECCAK256 PUSH0 DUP3 ADD MLOAD DUP2 PUSH0 ADD SWAP1 DUP2 PUSH2 0x1F0 SWAP2 SWAP1 PUSH2 0x1016 JUMP JUMPDEST POP PUSH1 0x20 DUP3 ADD MLOAD DUP2 PUSH1 0x1 ADD SSTORE PUSH1 0x40 DUP3 ADD MLOAD DUP2 PUSH1 0x2 ADD SWAP1 DUP2 PUSH2 0x210 SWAP2 SWAP1 PUSH2 0x1016 JUMP JUMPDEST POP PUSH1 0x60 DUP3 ADD MLOAD DUP2 PUSH1 0x3 ADD SWAP1 DUP2 PUSH2 0x226 SWAP2 SWAP1 PUSH2 0x1016 JUMP JUMPDEST POP SWAP1 POP POP POP POP POP POP POP JUMP JUMPDEST PUSH1 0x1 DUP2 DUP1 MLOAD PUSH1 0x20 DUP2 ADD DUP3 ADD DUP1 MLOAD DUP5 DUP3 MSTORE PUSH1 0x20 DUP4 ADD PUSH1 0x20 DUP6 ADD KECCAK256 DUP2 DUP4 MSTORE DUP1 SWAP6 POP POP POP POP POP POP PUSH0 SWAP2 POP SWAP1 POP SLOAD DUP2 JUMP JUMPDEST PUSH1 0x2 DUP2 DUP1 MLOAD PUSH1 0x20 DUP2 ADD DUP3 ADD DUP1 MLOAD DUP5 DUP3 MSTORE PUSH1 0x20 DUP4 ADD PUSH1 0x20 DUP6 ADD KECCAK256 DUP2 DUP4 MSTORE DUP1 SWAP6 POP POP POP POP POP POP PUSH0 SWAP2 POP SWAP1 POP DUP1 PUSH0 ADD DUP1 SLOAD PUSH2 0x295 SWAP1 PUSH2 0xE46 JUMP JUMPDEST DUP1 PUSH1 0x1F ADD PUSH1 0x20 DUP1 SWAP2 DIV MUL PUSH1 0x20 ADD PUSH1 0x40 MLOAD SWAP1 DUP2 ADD PUSH1 0x40 MSTORE DUP1 SWAP3 SWAP2 SWAP1 DUP2 DUP2 MSTORE PUSH1 0x20 ADD DUP3 DUP1 SLOAD PUSH2 0x2C1 SWAP1 PUSH2 0xE46 JUMP JUMPDEST DUP1 ISZERO PUSH2 0x30C JUMPI DUP1 PUSH1 0x1F LT PUSH2 0x2E3 JUMPI PUSH2 0x100 DUP1 DUP4 SLOAD DIV MUL DUP4 MSTORE SWAP2 PUSH1 0x20 ADD SWAP2 PUSH2 0x30C JUMP JUMPDEST DUP3 ADD SWAP2 SWAP1 PUSH0 MSTORE PUSH1 0x20 PUSH0 KECCAK256 SWAP1 JUMPDEST DUP2 SLOAD DUP2 MSTORE SWAP1 PUSH1 0x1 ADD SWAP1 PUSH1 0x20 ADD DUP1 DUP4 GT PUSH2 0x2EF JUMPI DUP3 SWAP1 SUB PUSH1 0x1F AND DUP3 ADD SWAP2 JUMPDEST POP POP POP POP POP SWAP1 DUP1 PUSH1 0x1 ADD SLOAD SWAP1 DUP1 PUSH1 0x2 ADD DUP1 SLOAD PUSH2 0x327 SWAP1 PUSH2 0xE46 JUMP JUMPDEST DUP1 PUSH1 0x1F ADD PUSH1 0x20 DUP1 SWAP2 DIV MUL PUSH1 0x20 ADD PUSH1 0x40 MLOAD SWAP1 DUP2 ADD PUSH1 0x40 MSTORE DUP1 SWAP3 SWAP2 SWAP1 DUP2 DUP2 MSTORE PUSH1 0x20 ADD DUP3 DUP1 SLOAD PUSH2 0x353 SWAP1 PUSH2 0xE46 JUMP JUMPDEST DUP1 ISZERO PUSH2 0x39E JUMPI DUP1 PUSH1 0x1F LT PUSH2 0x375 JUMPI PUSH2 0x100 DUP1 DUP4 SLOAD DIV MUL DUP4 MSTORE SWAP2 PUSH1 0x20 ADD SWAP2 PUSH2 0x39E JUMP JUMPDEST DUP3 ADD SWAP2 SWAP1 PUSH0 MSTORE PUSH1 0x20 PUSH0 KECCAK256 SWAP1 JUMPDEST DUP2 SLOAD DUP2 MSTORE SWAP1 PUSH1 0x1 ADD SWAP1 PUSH1 0x20 ADD DUP1 DUP4 GT PUSH2 0x381 JUMPI DUP3 SWAP1 SUB PUSH1 0x1F AND DUP3 ADD SWAP2 JUMPDEST POP POP POP POP POP SWAP1 DUP1 PUSH1 0x3 ADD DUP1 SLOAD PUSH2 0x3B3 SWAP1 PUSH2 0xE46 JUMP JUMPDEST DUP1 PUSH1 0x1F ADD PUSH1 0x20 DUP1 SWAP2 DIV MUL PUSH1 0x20 ADD PUSH1 0x40 MLOAD SWAP1 DUP2 ADD PUSH1 0x40 MSTORE DUP1 SWAP3 SWAP2 SWAP1 DUP2 DUP2 MSTORE PUSH1 0x20 ADD DUP3 DUP1 SLOAD PUSH2 0x3DF SWAP1 PUSH2 0xE46 JUMP JUMPDEST DUP1 ISZERO PUSH2 0x42A JUMPI DUP1 PUSH1 0x1F LT PUSH2 0x401 JUMPI PUSH2 0x100 DUP1 DUP4 SLOAD DIV MUL DUP4 MSTORE SWAP2 PUSH1 0x20 ADD SWAP2 PUSH2 0x42A JUMP JUMPDEST DUP3 ADD SWAP2 SWAP1 PUSH0 MSTORE PUSH1 0x20 PUSH0 KECCAK256 SWAP1 JUMPDEST DUP2 SLOAD DUP2 MSTORE SWAP1 PUSH1 0x1 ADD SWAP1 PUSH1 0x20 ADD DUP1 DUP4 GT PUSH2 0x40D JUMPI DUP3 SWAP1 SUB PUSH1 0x1F AND DUP3 ADD SWAP2 JUMPDEST POP POP POP POP POP SWAP1 POP DUP5 JUMP JUMPDEST PUSH2 0x43C PUSH2 0x83A JUMP JUMPDEST PUSH0 DUP3 DUP2 SLOAD DUP2 LT PUSH2 0x44F JUMPI PUSH2 0x44E PUSH2 0x1135 JUMP JUMPDEST JUMPDEST SWAP1 PUSH0 MSTORE PUSH1 0x20 PUSH0 KECCAK256 SWAP1 PUSH1 0x4 MUL ADD PUSH1 0x40 MLOAD DUP1 PUSH1 0x80 ADD PUSH1 0x40 MSTORE SWAP1 DUP2 PUSH0 DUP3 ADD DUP1 SLOAD PUSH2 0x475 SWAP1 PUSH2 0xE46 JUMP JUMPDEST DUP1 PUSH1 0x1F ADD PUSH1 0x20 DUP1 SWAP2 DIV MUL PUSH1 0x20 ADD PUSH1 0x40 MLOAD SWAP1 DUP2 ADD PUSH1 0x40 MSTORE DUP1 SWAP3 SWAP2 SWAP1 DUP2 DUP2 MSTORE PUSH1 0x20 ADD DUP3 DUP1 SLOAD PUSH2 0x4A1 SWAP1 PUSH2 0xE46 JUMP JUMPDEST DUP1 ISZERO PUSH2 0x4EC JUMPI DUP1 PUSH1 0x1F LT PUSH2 0x4C3 JUMPI PUSH2 0x100 DUP1 DUP4 SLOAD DIV MUL DUP4 MSTORE SWAP2 PUSH1 0x20 ADD SWAP2 PUSH2 0x4EC JUMP JUMPDEST DUP3 ADD SWAP2 SWAP1 PUSH0 MSTORE PUSH1 0x20 PUSH0 KECCAK256 SWAP1 JUMPDEST DUP2 SLOAD DUP2 MSTORE SWAP1 PUSH1 0x1 ADD SWAP1 PUSH1 0x20 ADD DUP1 DUP4 GT PUSH2 0x4CF JUMPI DUP3 SWAP1 SUB PUSH1 0x1F AND DUP3 ADD SWAP2 JUMPDEST POP POP POP POP POP DUP2 MSTORE PUSH1 0x20 ADD PUSH1 0x1 DUP3 ADD SLOAD DUP2 MSTORE PUSH1 0x20 ADD PUSH1 0x2 DUP3 ADD DUP1 SLOAD PUSH2 0x50F SWAP1 PUSH2 0xE46 JUMP JUMPDEST DUP1 PUSH1 0x1F ADD PUSH1 0x20 DUP1 SWAP2 DIV MUL PUSH1 0x20 ADD PUSH1 0x40 MLOAD SWAP1 DUP2 ADD PUSH1 0x40 MSTORE DUP1 SWAP3 SWAP2 SWAP1 DUP2 DUP2 MSTORE PUSH1 0x20 ADD DUP3 DUP1 SLOAD PUSH2 0x53B SWAP1 PUSH2 0xE46 JUMP JUMPDEST DUP1 ISZERO PUSH2 0x586 JUMPI DUP1 PUSH1 0x1F LT PUSH2 0x55D JUMPI PUSH2 0x100 DUP1 DUP4 SLOAD DIV MUL DUP4 MSTORE SWAP2 PUSH1 0x20 ADD SWAP2 PUSH2 0x586 JUMP JUMPDEST DUP3 ADD SWAP2 SWAP1 PUSH0 MSTORE PUSH1 0x20 PUSH0 KECCAK256 SWAP1 JUMPDEST DUP2 SLOAD DUP2 MSTORE SWAP1 PUSH1 0x1 ADD SWAP1 PUSH1 0x20 ADD DUP1 DUP4 GT PUSH2 0x569 JUMPI DUP3 SWAP1 SUB PUSH1 0x1F AND DUP3 ADD SWAP2 JUMPDEST POP POP POP POP POP DUP2 MSTORE PUSH1 0x20 ADD PUSH1 0x3 DUP3 ADD DUP1 SLOAD PUSH2 0x59F SWAP1 PUSH2 0xE46 JUMP JUMPDEST DUP1 PUSH1 0x1F ADD PUSH1 0x20 DUP1 SWAP2 DIV MUL PUSH1 0x20 ADD PUSH1 0x40 MLOAD SWAP1 DUP2 ADD PUSH1 0x40 MSTORE DUP1 SWAP3 SWAP2 SWAP1 DUP2 DUP2 MSTORE PUSH1 0x20 ADD DUP3 DUP1 SLOAD PUSH2 0x5CB SWAP1 PUSH2 0xE46 JUMP JUMPDEST DUP1 ISZERO PUSH2 0x616 JUMPI DUP1 PUSH1 0x1F LT PUSH2 0x5ED JUMPI PUSH2 0x100 DUP1 DUP4 SLOAD DIV MUL DUP4 MSTORE SWAP2 PUSH1 0x20 ADD SWAP2 PUSH2 0x616 JUMP JUMPDEST DUP3 ADD SWAP2 SWAP1 PUSH0 MSTORE PUSH1 0x20 PUSH0 KECCAK256 SWAP1 JUMPDEST DUP2 SLOAD DUP2 MSTORE SWAP1 PUSH1 0x1 ADD SWAP1 PUSH1 0x20 ADD DUP1 DUP4 GT PUSH2 0x5F9 JUMPI DUP3 SWAP1 SUB PUSH1 0x1F AND DUP3 ADD SWAP2 JUMPDEST POP POP POP POP POP DUP2 MSTORE POP POP SWAP1 POP SWAP2 SWAP1 POP JUMP JUMPDEST PUSH1 0x60 PUSH0 DUP1 SLOAD DUP1 PUSH1 0x20 MUL PUSH1 0x20 ADD PUSH1 0x40 MLOAD SWAP1 DUP2 ADD PUSH1 0x40 MSTORE DUP1 SWAP3 SWAP2 SWAP1 DUP2 DUP2 MSTORE PUSH1 0x20 ADD PUSH0 SWAP1 JUMPDEST DUP3 DUP3 LT ISZERO PUSH2 0x831 JUMPI DUP4 DUP3 SWAP1 PUSH0 MSTORE PUSH1 0x20 PUSH0 KECCAK256 SWAP1 PUSH1 0x4 MUL ADD PUSH1 0x40 MLOAD DUP1 PUSH1 0x80 ADD PUSH1 0x40 MSTORE SWAP1 DUP2 PUSH0 DUP3 ADD DUP1 SLOAD PUSH2 0x678 SWAP1 PUSH2 0xE46 JUMP JUMPDEST DUP1 PUSH1 0x1F ADD PUSH1 0x20 DUP1 SWAP2 DIV MUL PUSH1 0x20 ADD PUSH1 0x40 MLOAD SWAP1 DUP2 ADD PUSH1 0x40 MSTORE DUP1 SWAP3 SWAP2 SWAP1 DUP2 DUP2 MSTORE PUSH1 0x20 ADD DUP3 DUP1 SLOAD PUSH2 0x6A4 SWAP1 PUSH2 0xE46 JUMP JUMPDEST DUP1 ISZERO PUSH2 0x6EF JUMPI DUP1 PUSH1 0x1F LT PUSH2 0x6C6 JUMPI PUSH2 0x100 DUP1 DUP4 SLOAD DIV MUL DUP4 MSTORE SWAP2 PUSH1 0x20 ADD SWAP2 PUSH2 0x6EF JUMP JUMPDEST DUP3 ADD SWAP2 SWAP1 PUSH0 MSTORE PUSH1 0x20 PUSH0 KECCAK256 SWAP1 JUMPDEST DUP2 SLOAD DUP2 MSTORE SWAP1 PUSH1 0x1 ADD SWAP1 PUSH1 0x20 ADD DUP1 DUP4 GT PUSH2 0x6D2 JUMPI DUP3 SWAP1 SUB PUSH1 0x1F AND DUP3 ADD SWAP2 JUMPDEST POP POP POP POP POP DUP2 MSTORE PUSH1 0x20 ADD PUSH1 0x1 DUP3 ADD SLOAD DUP2 MSTORE PUSH1 0x20 ADD PUSH1 0x2 DUP3 ADD DUP1 SLOAD PUSH2 0x712 SWAP1 PUSH2 0xE46 JUMP JUMPDEST DUP1 PUSH1 0x1F ADD PUSH1 0x20 DUP1 SWAP2 DIV MUL PUSH1 0x20 ADD PUSH1 0x40 MLOAD SWAP1 DUP2 ADD PUSH1 0x40 MSTORE DUP1 SWAP3 SWAP2 SWAP1 DUP2 DUP2 MSTORE PUSH1 0x20 ADD DUP3 DUP1 SLOAD PUSH2 0x73E SWAP1 PUSH2 0xE46 JUMP JUMPDEST DUP1 ISZERO PUSH2 0x789 JUMPI DUP1 PUSH1 0x1F LT PUSH2 0x760 JUMPI PUSH2 0x100 DUP1 DUP4 SLOAD DIV MUL DUP4 MSTORE SWAP2 PUSH1 0x20 ADD SWAP2 PUSH2 0x789 JUMP JUMPDEST DUP3 ADD SWAP2 SWAP1 PUSH0 MSTORE PUSH1 0x20 PUSH0 KECCAK256 SWAP1 JUMPDEST DUP2 SLOAD DUP2 MSTORE SWAP1 PUSH1 0x1 ADD SWAP1 PUSH1 0x20 ADD DUP1 DUP4 GT PUSH2 0x76C JUMPI DUP3 SWAP1 SUB PUSH1 0x1F AND DUP3 ADD SWAP2 JUMPDEST POP POP POP POP POP DUP2 MSTORE PUSH1 0x20 ADD PUSH1 0x3 DUP3 ADD DUP1 SLOAD PUSH2 0x7A2 SWAP1 PUSH2 0xE46 JUMP JUMPDEST DUP1 PUSH1 0x1F ADD PUSH1 0x20 DUP1 SWAP2 DIV MUL PUSH1 0x20 ADD PUSH1 0x40 MLOAD SWAP1 DUP2 ADD PUSH1 0x40 MSTORE DUP1 SWAP3 SWAP2 SWAP1 DUP2 DUP2 MSTORE PUSH1 0x20 ADD DUP3 DUP1 SLOAD PUSH2 0x7CE SWAP1 PUSH2 0xE46 JUMP JUMPDEST DUP1 ISZERO PUSH2 0x819 JUMPI DUP1 PUSH1 0x1F LT PUSH2 0x7F0 JUMPI PUSH2 0x100 DUP1 DUP4 SLOAD DIV MUL DUP4 MSTORE SWAP2 PUSH1 0x20 ADD SWAP2 PUSH2 0x819 JUMP JUMPDEST DUP3 ADD SWAP2 SWAP1 PUSH0 MSTORE PUSH1 0x20 PUSH0 KECCAK256 SWAP1 JUMPDEST DUP2 SLOAD DUP2 MSTORE SWAP1 PUSH1 0x1 ADD SWAP1 PUSH1 0x20 ADD DUP1 DUP4 GT PUSH2 0x7FC JUMPI DUP3 SWAP1 SUB PUSH1 0x1F AND DUP3 ADD SWAP2 JUMPDEST POP POP POP POP POP DUP2 MSTORE POP POP DUP2 MSTORE PUSH1 0x20 ADD SWAP1 PUSH1 0x1 ADD SWAP1 PUSH2 0x648 JUMP JUMPDEST POP POP POP POP SWAP1 POP SWAP1 JUMP JUMPDEST PUSH1 0x40 MLOAD DUP1 PUSH1 0x80 ADD PUSH1 0x40 MSTORE DUP1 PUSH1 0x60 DUP2 MSTORE PUSH1 0x20 ADD PUSH0 DUP2 MSTORE PUSH1 0x20 ADD PUSH1 0x60 DUP2 MSTORE PUSH1 0x20 ADD PUSH1 0x60 DUP2 MSTORE POP SWAP1 JUMP JUMPDEST PUSH0 PUSH1 0x40 MLOAD SWAP1 POP SWAP1 JUMP JUMPDEST PUSH0 PUSH0 REVERT JUMPDEST PUSH0 PUSH0 REVERT JUMPDEST PUSH0 PUSH0 REVERT JUMPDEST PUSH0 PUSH0 REVERT JUMPDEST PUSH0 PUSH1 0x1F NOT PUSH1 0x1F DUP4 ADD AND SWAP1 POP SWAP2 SWAP1 POP JUMP JUMPDEST PUSH32 0x4E487B7100000000000000000000000000000000000000000000000000000000 PUSH0 MSTORE PUSH1 0x41 PUSH1 0x4 MSTORE PUSH1 0x24 PUSH0 REVERT JUMPDEST PUSH2 0x8C0 DUP3 PUSH2 0x87A JUMP JUMPDEST DUP2 ADD DUP2 DUP2 LT PUSH8 0xFFFFFFFFFFFFFFFF DUP3 GT OR ISZERO PUSH2 0x8DF JUMPI PUSH2 0x8DE PUSH2 0x88A JUMP JUMPDEST JUMPDEST DUP1 PUSH1 0x40 MSTORE POP POP POP JUMP JUMPDEST PUSH0 PUSH2 0x8F1 PUSH2 0x861 JUMP JUMPDEST SWAP1 POP PUSH2 0x8FD DUP3 DUP3 PUSH2 0x8B7 JUMP JUMPDEST SWAP2 SWAP1 POP JUMP JUMPDEST PUSH0 PUSH8 0xFFFFFFFFFFFFFFFF DUP3 GT ISZERO PUSH2 0x91C JUMPI PUSH2 0x91B PUSH2 0x88A JUMP JUMPDEST JUMPDEST PUSH2 0x925 DUP3 PUSH2 0x87A JUMP JUMPDEST SWAP1 POP PUSH1 0x20 DUP2 ADD SWAP1 POP SWAP2 SWAP1 POP JUMP JUMPDEST DUP3 DUP2 DUP4 CALLDATACOPY PUSH0 DUP4 DUP4 ADD MSTORE POP POP POP JUMP JUMPDEST PUSH0 PUSH2 0x952 PUSH2 0x94D DUP5 PUSH2 0x902 JUMP JUMPDEST PUSH2 0x8E8 JUMP JUMPDEST SWAP1 POP DUP3 DUP2 MSTORE PUSH1 0x20 DUP2 ADD DUP5 DUP5 DUP5 ADD GT ISZERO PUSH2 0x96E JUMPI PUSH2 0x96D PUSH2 0x876 JUMP JUMPDEST JUMPDEST PUSH2 0x979 DUP5 DUP3 DUP6 PUSH2 0x932 JUMP JUMPDEST POP SWAP4 SWAP3 POP POP POP JUMP JUMPDEST PUSH0 DUP3 PUSH1 0x1F DUP4 ADD SLT PUSH2 0x995 JUMPI PUSH2 0x994 PUSH2 0x872 JUMP JUMPDEST JUMPDEST DUP2 CALLDATALOAD PUSH2 0x9A5 DUP5 DUP3 PUSH1 0x20 DUP7 ADD PUSH2 0x940 JUMP JUMPDEST SWAP2 POP POP SWAP3 SWAP2 POP POP JUMP JUMPDEST PUSH0 DUP2 SWAP1 POP SWAP2 SWAP1 POP JUMP JUMPDEST PUSH2 0x9C0 DUP2 PUSH2 0x9AE JUMP JUMPDEST DUP2 EQ PUSH2 0x9CA JUMPI PUSH0 PUSH0 REVERT JUMPDEST POP JUMP JUMPDEST PUSH0 DUP2 CALLDATALOAD SWAP1 POP PUSH2 0x9DB DUP2 PUSH2 0x9B7 JUMP JUMPDEST SWAP3 SWAP2 POP POP JUMP JUMPDEST PUSH0 PUSH0 PUSH0 PUSH0 PUSH1 0x80 DUP6 DUP8 SUB SLT ISZERO PUSH2 0x9F9 JUMPI PUSH2 0x9F8 PUSH2 0x86A JUMP JUMPDEST JUMPDEST PUSH0 DUP6 ADD CALLDATALOAD PUSH8 0xFFFFFFFFFFFFFFFF DUP2 GT ISZERO PUSH2 0xA16 JUMPI PUSH2 0xA15 PUSH2 0x86E JUMP JUMPDEST JUMPDEST PUSH2 0xA22 DUP8 DUP3 DUP9 ADD PUSH2 0x981 JUMP JUMPDEST SWAP5 POP POP PUSH1 0x20 PUSH2 0xA33 DUP8 DUP3 DUP9 ADD PUSH2 0x9CD JUMP JUMPDEST SWAP4 POP POP PUSH1 0x40 DUP6 ADD CALLDATALOAD PUSH8 0xFFFFFFFFFFFFFFFF DUP2 GT ISZERO PUSH2 0xA54 JUMPI PUSH2 0xA53 PUSH2 0x86E JUMP JUMPDEST JUMPDEST PUSH2 0xA60 DUP8 DUP3 DUP9 ADD PUSH2 0x981 JUMP JUMPDEST SWAP3 POP POP PUSH1 0x60 DUP6 ADD CALLDATALOAD PUSH8 0xFFFFFFFFFFFFFFFF DUP2 GT ISZERO PUSH2 0xA81 JUMPI PUSH2 0xA80 PUSH2 0x86E JUMP JUMPDEST JUMPDEST PUSH2 0xA8D DUP8 DUP3 DUP9 ADD PUSH2 0x981 JUMP JUMPDEST SWAP2 POP POP SWAP3 SWAP6 SWAP2 SWAP5 POP SWAP3 POP JUMP JUMPDEST PUSH0 PUSH1 0x20 DUP3 DUP5 SUB SLT ISZERO PUSH2 0xAAE JUMPI PUSH2 0xAAD PUSH2 0x86A JUMP JUMPDEST JUMPDEST PUSH0 DUP3 ADD CALLDATALOAD PUSH8 0xFFFFFFFFFFFFFFFF DUP2 GT ISZERO PUSH2 0xACB JUMPI PUSH2 0xACA PUSH2 0x86E JUMP JUMPDEST JUMPDEST PUSH2 0xAD7 DUP5 DUP3 DUP6 ADD PUSH2 0x981 JUMP JUMPDEST SWAP2 POP POP SWAP3 SWAP2 POP POP JUMP JUMPDEST PUSH2 0xAE9 DUP2 PUSH2 0x9AE JUMP JUMPDEST DUP3 MSTORE POP POP JUMP JUMPDEST PUSH0 PUSH1 0x20 DUP3 ADD SWAP1 POP PUSH2 0xB02 PUSH0 DUP4 ADD DUP5 PUSH2 0xAE0 JUMP JUMPDEST SWAP3 SWAP2 POP POP JUMP JUMPDEST PUSH0 DUP2 MLOAD SWAP1 POP SWAP2 SWAP1 POP JUMP JUMPDEST PUSH0 DUP3 DUP3 MSTORE PUSH1 0x20 DUP3 ADD SWAP1 POP SWAP3 SWAP2 POP POP JUMP JUMPDEST DUP3 DUP2 DUP4 MCOPY PUSH0 DUP4 DUP4 ADD MSTORE POP POP POP JUMP JUMPDEST PUSH0 PUSH2 0xB3A DUP3 PUSH2 0xB08 JUMP JUMPDEST PUSH2 0xB44 DUP2 DUP6 PUSH2 0xB12 JUMP JUMPDEST SWAP4 POP PUSH2 0xB54 DUP2 DUP6 PUSH1 0x20 DUP7 ADD PUSH2 0xB22 JUMP JUMPDEST PUSH2 0xB5D DUP2 PUSH2 0x87A JUMP JUMPDEST DUP5 ADD SWAP2 POP POP SWAP3 SWAP2 POP POP JUMP JUMPDEST PUSH0 PUSH1 0x80 DUP3 ADD SWAP1 POP DUP2 DUP2 SUB PUSH0 DUP4 ADD MSTORE PUSH2 0xB80 DUP2 DUP8 PUSH2 0xB30 JUMP JUMPDEST SWAP1 POP PUSH2 0xB8F PUSH1 0x20 DUP4 ADD DUP7 PUSH2 0xAE0 JUMP JUMPDEST DUP2 DUP2 SUB PUSH1 0x40 DUP4 ADD MSTORE PUSH2 0xBA1 DUP2 DUP6 PUSH2 0xB30 JUMP JUMPDEST SWAP1 POP DUP2 DUP2 SUB PUSH1 0x60 DUP4 ADD MSTORE PUSH2 0xBB5 DUP2 DUP5 PUSH2 0xB30 JUMP JUMPDEST SWAP1 POP SWAP6 SWAP5 POP POP POP POP POP JUMP JUMPDEST PUSH0 PUSH1 0x20 DUP3 DUP5 SUB SLT ISZERO PUSH2 0xBD5 JUMPI PUSH2 0xBD4 PUSH2 0x86A JUMP JUMPDEST JUMPDEST PUSH0 PUSH2 0xBE2 DUP5 DUP3 DUP6 ADD PUSH2 0x9CD JUMP JUMPDEST SWAP2 POP POP SWAP3 SWAP2 POP POP JUMP JUMPDEST PUSH0 DUP3 DUP3 MSTORE PUSH1 0x20 DUP3 ADD SWAP1 POP SWAP3 SWAP2 POP POP JUMP JUMPDEST PUSH0 PUSH2 0xC05 DUP3 PUSH2 0xB08 JUMP JUMPDEST PUSH2 0xC0F DUP2 DUP6 PUSH2 0xBEB JUMP JUMPDEST SWAP4 POP PUSH2 0xC1F DUP2 DUP6 PUSH1 0x20 DUP7 ADD PUSH2 0xB22 JUMP JUMPDEST PUSH2 0xC28 DUP2 PUSH2 0x87A JUMP JUMPDEST DUP5 ADD SWAP2 POP POP SWAP3 SWAP2 POP POP JUMP JUMPDEST PUSH2 0xC3C DUP2 PUSH2 0x9AE JUMP JUMPDEST DUP3 MSTORE POP POP JUMP JUMPDEST PUSH0 PUSH1 0x80 DUP4 ADD PUSH0 DUP4 ADD MLOAD DUP5 DUP3 SUB PUSH0 DUP7 ADD MSTORE PUSH2 0xC5C DUP3 DUP3 PUSH2 0xBFB JUMP JUMPDEST SWAP2 POP POP PUSH1 0x20 DUP4 ADD MLOAD PUSH2 0xC71 PUSH1 0x20 DUP7 ADD DUP3 PUSH2 0xC33 JUMP JUMPDEST POP PUSH1 0x40 DUP4 ADD MLOAD DUP5 DUP3 SUB PUSH1 0x40 DUP7 ADD MSTORE PUSH2 0xC89 DUP3 DUP3 PUSH2 0xBFB JUMP JUMPDEST SWAP2 POP POP PUSH1 0x60 DUP4 ADD MLOAD DUP5 DUP3 SUB PUSH1 0x60 DUP7 ADD MSTORE PUSH2 0xCA3 DUP3 DUP3 PUSH2 0xBFB JUMP JUMPDEST SWAP2 POP POP DUP1 SWAP2 POP POP SWAP3 SWAP2 POP POP JUMP JUMPDEST PUSH0 PUSH1 0x20 DUP3 ADD SWAP1 POP DUP2 DUP2 SUB PUSH0 DUP4 ADD MSTORE PUSH2 0xCC8 DUP2 DUP5 PUSH2 0xC42 JUMP JUMPDEST SWAP1 POP SWAP3 SWAP2 POP POP JUMP JUMPDEST PUSH0 DUP2 MLOAD SWAP1 POP SWAP2 SWAP1 POP JUMP JUMPDEST PUSH0 DUP3 DUP3 MSTORE PUSH1 0x20 DUP3 ADD SWAP1 POP SWAP3 SWAP2 POP POP JUMP JUMPDEST PUSH0 DUP2 SWAP1 POP PUSH1 0x20 DUP3 ADD SWAP1 POP SWAP2 SWAP1 POP JUMP JUMPDEST PUSH0 PUSH1 0x80 DUP4 ADD PUSH0 DUP4 ADD MLOAD DUP5 DUP3 SUB PUSH0 DUP7 ADD MSTORE PUSH2 0xD13 DUP3 DUP3 PUSH2 0xBFB JUMP JUMPDEST SWAP2 POP POP PUSH1 0x20 DUP4 ADD MLOAD PUSH2 0xD28 PUSH1 0x20 DUP7 ADD DUP3 PUSH2 0xC33 JUMP JUMPDEST POP PUSH1 0x40 DUP4 ADD MLOAD DUP5 DUP3 SUB PUSH1 0x40 DUP7 ADD MSTORE PUSH2 0xD40 DUP3 DUP3 PUSH2 0xBFB JUMP JUMPDEST SWAP2 POP POP PUSH1 0x60 DUP4 ADD MLOAD DUP5 DUP3 SUB PUSH1 0x60 DUP7 ADD MSTORE PUSH2 0xD5A DUP3 DUP3 PUSH2 0xBFB JUMP JUMPDEST SWAP2 POP POP DUP1 SWAP2 POP POP SWAP3 SWAP2 POP POP JUMP JUMPDEST PUSH0 PUSH2 0xD72 DUP4 DUP4 PUSH2 0xCF9 JUMP JUMPDEST SWAP1 POP SWAP3 SWAP2 POP POP JUMP JUMPDEST PUSH0 PUSH1 0x20 DUP3 ADD SWAP1 POP SWAP2 SWAP1 POP JUMP JUMPDEST PUSH0 PUSH2 0xD90 DUP3 PUSH2 0xCD0 JUMP JUMPDEST PUSH2 0xD9A DUP2 DUP6 PUSH2 0xCDA JUMP JUMPDEST SWAP4 POP DUP4 PUSH1 0x20 DUP3 MUL DUP6 ADD PUSH2 0xDAC DUP6 PUSH2 0xCEA JUMP JUMPDEST DUP1 PUSH0 JUMPDEST DUP6 DUP2 LT ISZERO PUSH2 0xDE7 JUMPI DUP5 DUP5 SUB DUP10 MSTORE DUP2 MLOAD PUSH2 0xDC8 DUP6 DUP3 PUSH2 0xD67 JUMP JUMPDEST SWAP5 POP PUSH2 0xDD3 DUP4 PUSH2 0xD7A JUMP JUMPDEST SWAP3 POP PUSH1 0x20 DUP11 ADD SWAP10 POP POP PUSH1 0x1 DUP2 ADD SWAP1 POP PUSH2 0xDAF JUMP JUMPDEST POP DUP3 SWAP8 POP DUP8 SWAP6 POP POP POP POP POP POP SWAP3 SWAP2 POP POP JUMP JUMPDEST PUSH0 PUSH1 0x20 DUP3 ADD SWAP1 POP DUP2 DUP2 SUB PUSH0 DUP4 ADD MSTORE PUSH2 0xE11 DUP2 DUP5 PUSH2 0xD86 JUMP JUMPDEST SWAP1 POP SWAP3 SWAP2 POP POP JUMP JUMPDEST PUSH32 0x4E487B7100000000000000000000000000000000000000000000000000000000 PUSH0 MSTORE PUSH1 0x22 PUSH1 0x4 MSTORE PUSH1 0x24 PUSH0 REVERT JUMPDEST PUSH0 PUSH1 0x2 DUP3 DIV SWAP1 POP PUSH1 0x1 DUP3 AND DUP1 PUSH2 0xE5D JUMPI PUSH1 0x7F DUP3 AND SWAP2 POP JUMPDEST PUSH1 0x20 DUP3 LT DUP2 SUB PUSH2 0xE70 JUMPI PUSH2 0xE6F PUSH2 0xE19 JUMP JUMPDEST JUMPDEST POP SWAP2 SWAP1 POP JUMP JUMPDEST PUSH0 DUP2 SWAP1 POP DUP2 PUSH0 MSTORE PUSH1 0x20 PUSH0 KECCAK256 SWAP1 POP SWAP2 SWAP1 POP JUMP JUMPDEST PUSH0 PUSH1 0x20 PUSH1 0x1F DUP4 ADD DIV SWAP1 POP SWAP2 SWAP1 POP JUMP JUMPDEST PUSH0 DUP3 DUP3 SHL SWAP1 POP SWAP3 SWAP2 POP POP JUMP JUMPDEST PUSH0 PUSH1 0x8 DUP4 MUL PUSH2 0xED2 PUSH32 0xFFFFFFFFFFFFFFFFFFFFFFFFFFFFFFFFFFFFFFFFFFFFFFFFFFFFFFFFFFFFFFFF DUP3 PUSH2 0xE97 JUMP JUMPDEST PUSH2 0xEDC DUP7 DUP4 PUSH2 0xE97 JUMP JUMPDEST SWAP6 POP DUP1 NOT DUP5 AND SWAP4 POP DUP1 DUP7 AND DUP5 OR SWAP3 POP POP POP SWAP4 SWAP3 POP POP POP JUMP JUMPDEST PUSH0 DUP2 SWAP1 POP SWAP2 SWAP1 POP JUMP JUMPDEST PUSH0 PUSH2 0xF17 PUSH2 0xF12 PUSH2 0xF0D DUP5 PUSH2 0x9AE JUMP JUMPDEST PUSH2 0xEF4 JUMP JUMPDEST PUSH2 0x9AE JUMP JUMPDEST SWAP1 POP SWAP2 SWAP1 POP JUMP JUMPDEST PUSH0 DUP2 SWAP1 POP SWAP2 SWAP1 POP JUMP JUMPDEST PUSH2 0xF30 DUP4 PUSH2 0xEFD JUMP JUMPDEST PUSH2 0xF44 PUSH2 0xF3C DUP3 PUSH2 0xF1E JUMP JUMPDEST DUP5 DUP5 SLOAD PUSH2 0xEA3 JUMP JUMPDEST DUP3 SSTORE POP POP POP POP JUMP JUMPDEST PUSH0 PUSH0 SWAP1 POP SWAP1 JUMP JUMPDEST PUSH2 0xF5B PUSH2 0xF4C JUMP JUMPDEST PUSH2 0xF66 DUP2 DUP5 DUP5 PUSH2 0xF27 JUMP JUMPDEST POP POP POP JUMP JUMPDEST JUMPDEST DUP2 DUP2 LT ISZERO PUSH2 0xF89 JUMPI PUSH2 0xF7E PUSH0 DUP3 PUSH2 0xF53 JUMP JUMPDEST PUSH1 0x1 DUP2 ADD SWAP1 POP PUSH2 0xF6C JUMP JUMPDEST POP POP JUMP JUMPDEST PUSH1 0x1F DUP3 GT ISZERO PUSH2 0xFCE JUMPI PUSH2 0xF9F DUP2 PUSH2 0xE76 JUMP JUMPDEST PUSH2 0xFA8 DUP5 PUSH2 0xE88 JUMP JUMPDEST DUP2 ADD PUSH1 0x20 DUP6 LT ISZERO PUSH2 0xFB7 JUMPI DUP2 SWAP1 POP JUMPDEST PUSH2 0xFCB PUSH2 0xFC3 DUP6 PUSH2 0xE88 JUMP JUMPDEST DUP4 ADD DUP3 PUSH2 0xF6B JUMP JUMPDEST POP POP JUMPDEST POP POP POP JUMP JUMPDEST PUSH0 DUP3 DUP3 SHR SWAP1 POP SWAP3 SWAP2 POP POP JUMP JUMPDEST PUSH0 PUSH2 0xFEE PUSH0 NOT DUP5 PUSH1 0x8 MUL PUSH2 0xFD3 JUMP JUMPDEST NOT DUP1 DUP4 AND SWAP2 POP POP SWAP3 SWAP2 POP POP JUMP JUMPDEST PUSH0 PUSH2 0x1006 DUP4 DUP4 PUSH2 0xFDF JUMP JUMPDEST SWAP2 POP DUP3 PUSH1 0x2 MUL DUP3 OR SWAP1 POP SWAP3 SWAP2 POP POP JUMP JUMPDEST PUSH2 0x101F DUP3 PUSH2 0xB08 JUMP JUMPDEST PUSH8 0xFFFFFFFFFFFFFFFF DUP2 GT ISZERO PUSH2 0x1038 JUMPI PUSH2 0x1037 PUSH2 0x88A JUMP JUMPDEST JUMPDEST PUSH2 0x1042 DUP3 SLOAD PUSH2 0xE46 JUMP JUMPDEST PUSH2 0x104D DUP3 DUP3 DUP6 PUSH2 0xF8D JUMP JUMPDEST PUSH0 PUSH1 0x20 SWAP1 POP PUSH1 0x1F DUP4 GT PUSH1 0x1 DUP2 EQ PUSH2 0x107E JUMPI PUSH0 DUP5 ISZERO PUSH2 0x106C JUMPI DUP3 DUP8 ADD MLOAD SWAP1 POP JUMPDEST PUSH2 0x1076 DUP6 DUP3 PUSH2 0xFFB JUMP JUMPDEST DUP7 SSTORE POP PUSH2 0x10DD JUMP JUMPDEST PUSH1 0x1F NOT DUP5 AND PUSH2 0x108C DUP7 PUSH2 0xE76 JUMP JUMPDEST PUSH0 JUMPDEST DUP3 DUP2 LT ISZERO PUSH2 0x10B3 JUMPI DUP5 DUP10 ADD MLOAD DUP3 SSTORE PUSH1 0x1 DUP3 ADD SWAP2 POP PUSH1 0x20 DUP6 ADD SWAP5 POP PUSH1 0x20 DUP2 ADD SWAP1 POP PUSH2 0x108E JUMP JUMPDEST DUP7 DUP4 LT ISZERO PUSH2 0x10D0 JUMPI DUP5 DUP10 ADD MLOAD PUSH2 0x10CC PUSH1 0x1F DUP10 AND DUP3 PUSH2 0xFDF JUMP JUMPDEST DUP4 SSTORE POP JUMPDEST PUSH1 0x1 PUSH1 0x2 DUP9 MUL ADD DUP9 SSTORE POP POP POP JUMPDEST POP POP POP POP POP POP JUMP JUMPDEST PUSH0 DUP2 SWAP1 POP SWAP3 SWAP2 POP POP JUMP JUMPDEST PUSH0 PUSH2 0x10F9 DUP3 PUSH2 0xB08 JUMP JUMPDEST PUSH2 0x1103 DUP2 DUP6 PUSH2 0x10E5 JUMP JUMPDEST SWAP4 POP PUSH2 0x1113 DUP2 DUP6 PUSH1 0x20 DUP7 ADD PUSH2 0xB22 JUMP JUMPDEST DUP1 DUP5 ADD SWAP2 POP POP SWAP3 SWAP2 POP POP JUMP JUMPDEST PUSH0 PUSH2 0x112A DUP3 DUP5 PUSH2 0x10EF JUMP JUMPDEST SWAP2 POP DUP2 SWAP1 POP SWAP3 SWAP2 POP POP JUMP JUMPDEST PUSH32 0x4E487B7100000000000000000000000000000000000000000000000000000000 PUSH0 MSTORE PUSH1 0x32 PUSH1 0x4 MSTORE PUSH1 0x24 PUSH0 REVERT INVALID LOG2 PUSH5 0x6970667358 0x22 SLT KECCAK256 0xCB PUSH24 0xAE4173D4C1644247A31FAE4DA1854EB409DD7009658B2790 CREATE2 SELFDESTRUCT 0xAB PUSH10 0x88064736F6C63430008 0x1F STOP CALLER "
				},
				"gasEstimates": {
					"creation": {
						"codeDepositCost": "900800",
						"executionCost": "933",
						"totalCost": "901733"
					},
					"external": {
						"getStudentByIndex(uint256)": "infinite",
						"getStudents()": "infinite",
						"nameToAge(string)": "infinite",
						"nameToRecord(string)": "infinite",
						"registerStudent(string,uint256,string,string)": "infinite"
					}
				},
				"methodIdentifiers": {
					"getStudentByIndex(uint256)": "dc78302b",
					"getStudents()": "f1d064b3",
					"nameToAge(string)": "90c3ee4d",
					"nameToRecord(string)": "aa67f06b",
					"registerStudent(string,uint256,string,string)": "8917d33c"
				}
			},
			"storageLayout": {
				"storage": [
					{
						"astId": 134,
						"contract": "StudentRecords.sol:StudentRecords",
						"label": "students",
						"offset": 0,
						"slot": "0",
						"type": "t_array(t_struct(Student)130_storage)dyn_storage"
					},
					{
						"astId": 138,
						"contract": "StudentRecords.sol:StudentRecords",
						"label": "nameToAge",
						"offset": 0,
						"slot": "1",
						"type": "t_mapping(t_string_memory_ptr,t_uint256)"
					},
					{
						"astId": 143,
						"contract": "StudentRecords.sol:StudentRecords",
						"label": "nameToRecord",
						"offset": 0,
						"slot": "2",
						"type": "t_mapping(t_string_memory_ptr,t_struct(Student)130_storage)"
					}
				],
				"types": {
					"t_array(t_struct(Student)130_storage)dyn_storage": {
						"base": "t_struct(Student)130_storage",
						"encoding": "dynamic_array",
						"label": "struct StudentRecords.Student[]",
						"numberOfBytes": "32"
					},
					"t_mapping(t_string_memory_ptr,t_struct(Student)130_storage)": {
						"encoding": "mapping",
						"key": "t_string_memory_ptr",
						"label": "mapping(string => struct StudentRecords.Student)",
						"numberOfBytes": "32",
						"value": "t_struct(Student)130_storage"
					},
					"t_mapping(t_string_memory_ptr,t_uint256)": {
						"encoding": "mapping",
						"key": "t_string_memory_ptr",
						"label": "mapping(string => uint256)",
						"numberOfBytes": "32",
						"value": "t_uint256"
					},
					"t_string_memory_ptr": {
						"encoding": "bytes",
						"label": "string",
						"numberOfBytes": "32"
					},
					"t_string_storage": {
						"encoding": "bytes",
						"label": "string",
						"numberOfBytes": "32"
					},
					"t_struct(Student)130_storage": {
						"encoding": "inplace",
						"label": "struct StudentRecords.Student",
						"members": [
							{
								"astId": 123,
								"contract": "StudentRecords.sol:StudentRecords",
								"label": "name",
								"offset": 0,
								"slot": "0",
								"type": "t_string_storage"
							},
							{
								"astId": 125,
								"contract": "StudentRecords.sol:StudentRecords",
								"label": "age",
								"offset": 0,
								"slot": "1",
								"type": "t_uint256"
							},
							{
								"astId": 127,
								"contract": "StudentRecords.sol:StudentRecords",
								"label": "gender",
								"offset": 0,
								"slot": "2",
								"type": "t_string_storage"
							},
							{
								"astId": 129,
								"contract": "StudentRecords.sol:StudentRecords",
								"label": "department",
								"offset": 0,
								"slot": "3",
								"type": "t_string_storage"
							}
						],
						"numberOfBytes": "128"
					},
					"t_uint256": {
						"encoding": "inplace",
						"label": "uint256",
						"numberOfBytes": "32"
					}
				}
			},
			"userdoc": {
				"kind": "user",
				"methods": {},
				"version": 1
			}
		}
	}
}