{
	"Courses.sol": {
		"Courses": {
			"abi": [
				{
					"inputs": [
						{
							"internalType": "string",
							"name": "",
							"type": "string"
						}
					],
					"name": "codeToCourse",
					"outputs": [
						{
							"internalType": "string",
							"name": "title",
							"type": "string"
						},
						{
							"internalType": "uint256",
							"name": "unit",
							"type": "uint256"
						},
						{
							"internalType": "string",
							"name": "code",
							"type": "string"
						},
						{
							"internalType": "string",
							"name": "lecturer",
							"type": "string"
						}
					],
					"stateMutability": "view",
					"type": "function"
				},
				{
					"inputs": [
						{
							"internalType": "string",
							"name": "_title",
							"type": "string"
						},
						{
							"internalType": "string",
							"name": "_code",
							"type": "string"
						},
						{
							"internalType": "uint256",
							"name": "_unit",
							"type": "uint256"
						},
						{
							"internalType": "string",
							"name": "_lecturer",
							"type": "string"
						}
					],
					"name": "createCourse",
					"outputs": [],
					"stateMutability": "nonpayable",
					"type": "function"
				},
				{
					"inputs": [],
					"name": "getCourses",
					"outputs": [
						{
							"components": [
								{
									"internalType": "string",
									"name": "title",
									"type": "string"
								},
								{
									"internalType": "uint256",
									"name": "unit",
									"type": "uint256"
								},
								{
									"internalType": "string",
									"name": "code",
									"type": "string"
								},
								{
									"internalType": "string",
									"name": "lecturer",
									"type": "string"
								}
							],
							"internalType": "struct Courses.Course[]",
							"name": "",
							"type": "tuple[]"
						}
					],
					"stateMutability": "view",
					"type": "function"
				}
			],
			"devdoc": {
				"kind": "dev",
				"methods": {},
				"version": 1
			},
			"evm": {
				"assembly": "    /* \"Courses.sol\":59:773  contract Courses {... */\n  mstore(0x40, 0x80)\n  callvalue\n  dup1\n  iszero\n  tag_1\n  jumpi\n  revert(0x00, 0x00)\ntag_1:\n  pop\n  dataSize(sub_0)\n  dup1\n  dataOffset(sub_0)\n  0x00\n  codecopy\n  0x00\n  return\nstop\n\nsub_0: assembly {\n        /* \"Courses.sol\":59:773  contract Courses {... */\n      mstore(0x40, 0x80)\n      callvalue\n      dup1\n      iszero\n      tag_1\n      jumpi\n      revert(0x00, 0x00)\n    tag_1:\n      pop\n      jumpi(tag_2, lt(calldatasize, 0x04))\n      shr(0xe0, calldataload(0x00))\n      dup1\n      0x904ae8ad\n      eq\n      tag_3\n      jumpi\n      dup1\n      0x981d6c33\n      eq\n      tag_4\n      jumpi\n      dup1\n      0xcc126479\n      eq\n      tag_5\n      jumpi\n    tag_2:\n      revert(0x00, 0x00)\n        /* \"Courses.sol\":275:673  function createCourse (... */\n    tag_3:\n      tag_6\n      0x04\n      dup1\n      calldatasize\n      sub\n      dup2\n      add\n      swap1\n      tag_7\n      swap2\n      swap1\n      tag_8\n      jump\t// in\n    tag_7:\n      tag_9\n      jump\t// in\n    tag_6:\n      stop\n        /* \"Courses.sol\":222:267  mapping(string => Course) public codeToCourse */\n    tag_4:\n      tag_10\n      0x04\n      dup1\n      calldatasize\n      sub\n      dup2\n      add\n      swap1\n      tag_11\n      swap2\n      swap1\n      tag_12\n      jump\t// in\n    tag_11:\n      tag_13\n      jump\t// in\n    tag_10:\n      mload(0x40)\n      tag_14\n      swap5\n      swap4\n      swap3\n      swap2\n      swap1\n      tag_15\n      jump\t// in\n    tag_14:\n      mload(0x40)\n      dup1\n      swap2\n      sub\n      swap1\n      return\n        /* \"Courses.sol\":679:771  function getCourses () public view returns (Course[] memory) {... */\n    tag_5:\n      tag_16\n      tag_17\n      jump\t// in\n    tag_16:\n      mload(0x40)\n      tag_18\n      swap2\n      swap1\n      tag_19\n      jump\t// in\n    tag_18:\n      mload(0x40)\n      dup1\n      swap2\n      sub\n      swap1\n      return\n        /* \"Courses.sol\":275:673  function createCourse (... */\n    tag_9:\n        /* \"Courses.sol\":437:460  Course memory newCourse */\n      0x00\n        /* \"Courses.sol\":463:591  Course({... */\n      mload(0x40)\n      dup1\n      0x80\n      add\n      0x40\n      mstore\n      dup1\n        /* \"Courses.sol\":491:497  _title */\n      dup7\n        /* \"Courses.sol\":463:591  Course({... */\n      dup2\n      mstore\n      0x20\n      add\n        /* \"Courses.sol\":517:522  _unit */\n      dup5\n        /* \"Courses.sol\":463:591  Course({... */\n      dup2\n      mstore\n      0x20\n      add\n        /* \"Courses.sol\":542:547  _code */\n      dup6\n        /* \"Courses.sol\":463:591  Course({... */\n      dup2\n      mstore\n      0x20\n      add\n        /* \"Courses.sol\":571:580  _lecturer */\n      dup4\n        /* \"Courses.sol\":463:591  Course({... */\n      dup2\n      mstore\n      pop\n        /* \"Courses.sol\":437:591  Course memory newCourse = Course({... */\n      swap1\n      pop\n        /* \"Courses.sol\":602:609  courses */\n      0x00\n        /* \"Courses.sol\":615:624  newCourse */\n      dup2\n        /* \"Courses.sol\":602:625  courses.push(newCourse) */\n      swap1\n      dup1\n      0x01\n      dup2\n      sload\n      add\n      dup1\n      dup3\n      sstore\n      dup1\n      swap2\n      pop\n      pop\n      0x01\n      swap1\n      sub\n      swap1\n      0x00\n      mstore\n      keccak256(0x00, 0x20)\n      swap1\n      0x04\n      mul\n      add\n      0x00\n      swap1\n      swap2\n      swap1\n      swap2\n      swap1\n      swap2\n      pop\n      0x00\n      dup3\n      add\n      mload\n      dup2\n      0x00\n      add\n      swap1\n      dup2\n      tag_22\n      swap2\n      swap1\n      tag_23\n      jump\t// in\n    tag_22:\n      pop\n      0x20\n      dup3\n      add\n      mload\n      dup2\n      0x01\n      add\n      sstore\n      0x40\n      dup3\n      add\n      mload\n      dup2\n      0x02\n      add\n      swap1\n      dup2\n      tag_24\n      swap2\n      swap1\n      tag_23\n      jump\t// in\n    tag_24:\n      pop\n      0x60\n      dup3\n      add\n      mload\n      dup2\n      0x03\n      add\n      swap1\n      dup2\n      tag_25\n      swap2\n      swap1\n      tag_23\n      jump\t// in\n    tag_25:\n      pop\n      pop\n      pop\n        /* \"Courses.sol\":657:666  newCourse */\n      dup1\n        /* \"Courses.sol\":635:647  codeToCourse */\n      0x01\n        /* \"Courses.sol\":648:653  _code */\n      dup6\n        /* \"Courses.sol\":635:654  codeToCourse[_code] */\n      mload(0x40)\n      tag_26\n      swap2\n      swap1\n      tag_27\n      jump\t// in\n    tag_26:\n      swap1\n      dup2\n      mstore\n      0x20\n      add\n      mload(0x40)\n      dup1\n      swap2\n      sub\n      swap1\n      keccak256\n        /* \"Courses.sol\":635:666  codeToCourse[_code] = newCourse */\n      0x00\n      dup3\n      add\n      mload\n      dup2\n      0x00\n      add\n      swap1\n      dup2\n      tag_28\n      swap2\n      swap1\n      tag_23\n      jump\t// in\n    tag_28:\n      pop\n      0x20\n      dup3\n      add\n      mload\n      dup2\n      0x01\n      add\n      sstore\n      0x40\n      dup3\n      add\n      mload\n      dup2\n      0x02\n      add\n      swap1\n      dup2\n      tag_29\n      swap2\n      swap1\n      tag_23\n      jump\t// in\n    tag_29:\n      pop\n      0x60\n      dup3\n      add\n      mload\n      dup2\n      0x03\n      add\n      swap1\n      dup2\n      tag_30\n      swap2\n      swap1\n      tag_23\n      jump\t// in\n    tag_30:\n      pop\n      swap1\n      pop\n      pop\n        /* \"Courses.sol\":427:673  {... */\n      pop\n        /* \"Courses.sol\":275:673  function createCourse (... */\n      pop\n      pop\n      pop\n      pop\n      jump\t// out\n        /* \"Courses.sol\":222:267  mapping(string => Course) public codeToCourse */\n    tag_13:\n      0x01\n      dup2\n      dup1\n      mload\n      0x20\n      dup2\n      add\n      dup3\n      add\n      dup1\n      mload\n      dup5\n      dup3\n      mstore\n      0x20\n      dup4\n      add\n      0x20\n      dup6\n      add\n      keccak256\n      dup2\n      dup4\n      mstore\n      dup1\n      swap6\n      pop\n      pop\n      pop\n      pop\n      pop\n      pop\n      0x00\n      swap2\n      pop\n      swap1\n      pop\n      dup1\n      0x00\n      add\n      dup1\n      sload\n      tag_31\n      swap1\n      tag_32\n      jump\t// in\n    tag_31:\n      dup1\n      0x1f\n      add\n      0x20\n      dup1\n      swap2\n      div\n      mul\n      0x20\n      add\n      mload(0x40)\n      swap1\n      dup2\n      add\n      0x40\n      mstore\n      dup1\n      swap3\n      swap2\n      swap1\n      dup2\n      dup2\n      mstore\n      0x20\n      add\n      dup3\n      dup1\n      sload\n      tag_33\n      swap1\n      tag_32\n      jump\t// in\n    tag_33:\n      dup1\n      iszero\n      tag_34\n      jumpi\n      dup1\n      0x1f\n      lt\n      tag_35\n      jumpi\n      0x0100\n      dup1\n      dup4\n      sload\n      div\n      mul\n      dup4\n      mstore\n      swap2\n      0x20\n      add\n      swap2\n      jump(tag_34)\n    tag_35:\n      dup3\n      add\n      swap2\n      swap1\n      0x00\n      mstore\n      keccak256(0x00, 0x20)\n      swap1\n    tag_36:\n      dup2\n      sload\n      dup2\n      mstore\n      swap1\n      0x01\n      add\n      swap1\n      0x20\n      add\n      dup1\n      dup4\n      gt\n      tag_36\n      jumpi\n      dup3\n      swap1\n      sub\n      0x1f\n      and\n      dup3\n      add\n      swap2\n    tag_34:\n      pop\n      pop\n      pop\n      pop\n      pop\n      swap1\n      dup1\n      0x01\n      add\n      sload\n      swap1\n      dup1\n      0x02\n      add\n      dup1\n      sload\n      tag_37\n      swap1\n      tag_32\n      jump\t// in\n    tag_37:\n      dup1\n      0x1f\n      add\n      0x20\n      dup1\n      swap2\n      div\n      mul\n      0x20\n      add\n      mload(0x40)\n      swap1\n      dup2\n      add\n      0x40\n      mstore\n      dup1\n      swap3\n      swap2\n      swap1\n      dup2\n      dup2\n      mstore\n      0x20\n      add\n      dup3\n      dup1\n      sload\n      tag_38\n      swap1\n      tag_32\n      jump\t// in\n    tag_38:\n      dup1\n      iszero\n      tag_39\n      jumpi\n      dup1\n      0x1f\n      lt\n      tag_40\n      jumpi\n      0x0100\n      dup1\n      dup4\n      sload\n      div\n      mul\n      dup4\n      mstore\n      swap2\n      0x20\n      add\n      swap2\n      jump(tag_39)\n    tag_40:\n      dup3\n      add\n      swap2\n      swap1\n      0x00\n      mstore\n      keccak256(0x00, 0x20)\n      swap1\n    tag_41:\n      dup2\n      sload\n      dup2\n      mstore\n      swap1\n      0x01\n      add\n      swap1\n      0x20\n      add\n      dup1\n      dup4\n      gt\n      tag_41\n      jumpi\n      dup3\n      swap1\n      sub\n      0x1f\n      and\n      dup3\n      add\n      swap2\n    tag_39:\n      pop\n      pop\n      pop\n      pop\n      pop\n      swap1\n      dup1\n      0x03\n      add\n      dup1\n      sload\n      tag_42\n      swap1\n      tag_32\n      jump\t// in\n    tag_42:\n      dup1\n      0x1f\n      add\n      0x20\n      dup1\n      swap2\n      div\n      mul\n      0x20\n      add\n      mload(0x40)\n      swap1\n      dup2\n      add\n      0x40\n      mstore\n      dup1\n      swap3\n      swap2\n      swap1\n      dup2\n      dup2\n      mstore\n      0x20\n      add\n      dup3\n      dup1\n      sload\n      tag_43\n      swap1\n      tag_32\n      jump\t// in\n    tag_43:\n      dup1\n      iszero\n      tag_44\n      jumpi\n      dup1\n      0x1f\n      lt\n      tag_45\n      jumpi\n      0x0100\n      dup1\n      dup4\n      sload\n      div\n      mul\n      dup4\n      mstore\n      swap2\n      0x20\n      add\n      swap2\n      jump(tag_44)\n    tag_45:\n      dup3\n      add\n      swap2\n      swap1\n      0x00\n      mstore\n      keccak256(0x00, 0x20)\n      swap1\n    tag_46:\n      dup2\n      sload\n      dup2\n      mstore\n      swap1\n      0x01\n      add\n      swap1\n      0x20\n      add\n      dup1\n      dup4\n      gt\n      tag_46\n      jumpi\n      dup3\n      swap1\n      sub\n      0x1f\n      and\n      dup3\n      add\n      swap2\n    tag_44:\n      pop\n      pop\n      pop\n      pop\n      pop\n      swap1\n      pop\n      dup5\n      jump\t// out\n        /* \"Courses.sol\":679:771  function getCourses () public view returns (Course[] memory) {... */\n    tag_17:\n        /* \"Courses.sol\":723:738  Course[] memory */\n      0x60\n        /* \"Courses.sol\":757:764  courses */\n      0x00\n        /* \"Courses.sol\":750:764  return courses */\n      dup1\n      sload\n      dup1\n      0x20\n      mul\n      0x20\n      add\n      mload(0x40)\n      swap1\n      dup2\n      add\n      0x40\n      mstore\n      dup1\n      swap3\n      swap2\n      swap1\n      dup2\n      dup2\n      mstore\n      0x20\n      add\n      0x00\n      swap1\n    tag_48:\n      dup3\n      dup3\n      lt\n      iszero\n      tag_49\n      jumpi\n      dup4\n      dup3\n      swap1\n      0x00\n      mstore\n      keccak256(0x00, 0x20)\n      swap1\n      0x04\n      mul\n      add\n      mload(0x40)\n      dup1\n      0x80\n      add\n      0x40\n      mstore\n      swap1\n      dup2\n      0x00\n      dup3\n      add\n      dup1\n      sload\n      tag_51\n      swap1\n      tag_32\n      jump\t// in\n    tag_51:\n      dup1\n      0x1f\n      add\n      0x20\n      dup1\n      swap2\n      div\n      mul\n      0x20\n      add\n      mload(0x40)\n      swap1\n      dup2\n      add\n      0x40\n      mstore\n      dup1\n      swap3\n      swap2\n      swap1\n      dup2\n      dup2\n      mstore\n      0x20\n      add\n      dup3\n      dup1\n      sload\n      tag_52\n      swap1\n      tag_32\n      jump\t// in\n    tag_52:\n      dup1\n      iszero\n      tag_53\n      jumpi\n      dup1\n      0x1f\n      lt\n      tag_54\n      jumpi\n      0x0100\n      dup1\n      dup4\n      sload\n      div\n      mul\n      dup4\n      mstore\n      swap2\n      0x20\n      add\n      swap2\n      jump(tag_53)\n    tag_54:\n      dup3\n      add\n      swap2\n      swap1\n      0x00\n      mstore\n      keccak256(0x00, 0x20)\n      swap1\n    tag_55:\n      dup2\n      sload\n      dup2\n      mstore\n      swap1\n      0x01\n      add\n      swap1\n      0x20\n      add\n      dup1\n      dup4\n      gt\n      tag_55\n      jumpi\n      dup3\n      swap1\n      sub\n      0x1f\n      and\n      dup3\n      add\n      swap2\n    tag_53:\n      pop\n      pop\n      pop\n      pop\n      pop\n      dup2\n      mstore\n      0x20\n      add\n      0x01\n      dup3\n      add\n      sload\n      dup2\n      mstore\n      0x20\n      add\n      0x02\n      dup3\n      add\n      dup1\n      sload\n      tag_56\n      swap1\n      tag_32\n      jump\t// in\n    tag_56:\n      dup1\n      0x1f\n      add\n      0x20\n      dup1\n      swap2\n      div\n      mul\n      0x20\n      add\n      mload(0x40)\n      swap1\n      dup2\n      add\n      0x40\n      mstore\n      dup1\n      swap3\n      swap2\n      swap1\n      dup2\n      dup2\n      mstore\n      0x20\n      add\n      dup3\n      dup1\n      sload\n      tag_57\n      swap1\n      tag_32\n      jump\t// in\n    tag_57:\n      dup1\n      iszero\n      tag_58\n      jumpi\n      dup1\n      0x1f\n      lt\n      tag_59\n      jumpi\n      0x0100\n      dup1\n      dup4\n      sload\n      div\n      mul\n      dup4\n      mstore\n      swap2\n      0x20\n      add\n      swap2\n      jump(tag_58)\n    tag_59:\n      dup3\n      add\n      swap2\n      swap1\n      0x00\n      mstore\n      keccak256(0x00, 0x20)\n      swap1\n    tag_60:\n      dup2\n      sload\n      dup2\n      mstore\n      swap1\n      0x01\n      add\n      swap1\n      0x20\n      add\n      dup1\n      dup4\n      gt\n      tag_60\n      jumpi\n      dup3\n      swap1\n      sub\n      0x1f\n      and\n      dup3\n      add\n      swap2\n    tag_58:\n      pop\n      pop\n      pop\n      pop\n      pop\n      dup2\n      mstore\n      0x20\n      add\n      0x03\n      dup3\n      add\n      dup1\n      sload\n      tag_61\n      swap1\n      tag_32\n      jump\t// in\n    tag_61:\n      dup1\n      0x1f\n      add\n      0x20\n      dup1\n      swap2\n      div\n      mul\n      0x20\n      add\n      mload(0x40)\n      swap1\n      dup2\n      add\n      0x40\n      mstore\n      dup1\n      swap3\n      swap2\n      swap1\n      dup2\n      dup2\n      mstore\n      0x20\n      add\n      dup3\n      dup1\n      sload\n      tag_62\n      swap1\n      tag_32\n      jump\t// in\n    tag_62:\n      dup1\n      iszero\n      tag_63\n      jumpi\n      dup1\n      0x1f\n      lt\n      tag_64\n      jumpi\n      0x0100\n      dup1\n      dup4\n      sload\n      div\n      mul\n      dup4\n      mstore\n      swap2\n      0x20\n      add\n      swap2\n      jump(tag_63)\n    tag_64:\n      dup3\n      add\n      swap2\n      swap1\n      0x00\n      mstore\n      keccak256(0x00, 0x20)\n      swap1\n    tag_65:\n      dup2\n      sload\n      dup2\n      mstore\n      swap1\n      0x01\n      add\n      swap1\n      0x20\n      add\n      dup1\n      dup4\n      gt\n      tag_65\n      jumpi\n      dup3\n      swap1\n      sub\n      0x1f\n      and\n      dup3\n      add\n      swap2\n    tag_63:\n      pop\n      pop\n      pop\n      pop\n      pop\n      dup2\n      mstore\n      pop\n      pop\n      dup2\n      mstore\n      0x20\n      add\n      swap1\n      0x01\n      add\n      swap1\n      jump(tag_48)\n    tag_49:\n      pop\n      pop\n      pop\n      pop\n      swap1\n      pop\n        /* \"Courses.sol\":679:771  function getCourses () public view returns (Course[] memory) {... */\n      swap1\n      jump\t// out\n        /* \"#utility.yul\":7:82   */\n    tag_66:\n        /* \"#utility.yul\":40:46   */\n      0x00\n        /* \"#utility.yul\":73:75   */\n      0x40\n        /* \"#utility.yul\":67:76   */\n      mload\n        /* \"#utility.yul\":57:76   */\n      swap1\n      pop\n        /* \"#utility.yul\":7:82   */\n      swap1\n      jump\t// out\n        /* \"#utility.yul\":88:205   */\n    tag_67:\n        /* \"#utility.yul\":197:198   */\n      0x00\n        /* \"#utility.yul\":194:195   */\n      0x00\n        /* \"#utility.yul\":187:199   */\n      revert\n        /* \"#utility.yul\":211:328   */\n    tag_68:\n        /* \"#utility.yul\":320:321   */\n      0x00\n        /* \"#utility.yul\":317:318   */\n      0x00\n        /* \"#utility.yul\":310:322   */\n      revert\n        /* \"#utility.yul\":334:451   */\n    tag_69:\n        /* \"#utility.yul\":443:444   */\n      0x00\n        /* \"#utility.yul\":440:441   */\n      0x00\n        /* \"#utility.yul\":433:445   */\n      revert\n        /* \"#utility.yul\":457:574   */\n    tag_70:\n        /* \"#utility.yul\":566:567   */\n      0x00\n        /* \"#utility.yul\":563:564   */\n      0x00\n        /* \"#utility.yul\":556:568   */\n      revert\n        /* \"#utility.yul\":580:682   */\n    tag_71:\n        /* \"#utility.yul\":621:627   */\n      0x00\n        /* \"#utility.yul\":672:674   */\n      0x1f\n        /* \"#utility.yul\":668:675   */\n      not\n        /* \"#utility.yul\":663:665   */\n      0x1f\n        /* \"#utility.yul\":656:661   */\n      dup4\n        /* \"#utility.yul\":652:666   */\n      add\n        /* \"#utility.yul\":648:676   */\n      and\n        /* \"#utility.yul\":638:676   */\n      swap1\n      pop\n        /* \"#utility.yul\":580:682   */\n      swap2\n      swap1\n      pop\n      jump\t// out\n        /* \"#utility.yul\":688:868   */\n    tag_72:\n        /* \"#utility.yul\":736:813   */\n      0x4e487b7100000000000000000000000000000000000000000000000000000000\n        /* \"#utility.yul\":733:734   */\n      0x00\n        /* \"#utility.yul\":726:814   */\n      mstore\n        /* \"#utility.yul\":833:837   */\n      0x41\n        /* \"#utility.yul\":830:831   */\n      0x04\n        /* \"#utility.yul\":823:838   */\n      mstore\n        /* \"#utility.yul\":857:861   */\n      0x24\n        /* \"#utility.yul\":854:855   */\n      0x00\n        /* \"#utility.yul\":847:862   */\n      revert\n        /* \"#utility.yul\":874:1155   */\n    tag_73:\n        /* \"#utility.yul\":957:984   */\n      tag_124\n        /* \"#utility.yul\":979:983   */\n      dup3\n        /* \"#utility.yul\":957:984   */\n      tag_71\n      jump\t// in\n    tag_124:\n        /* \"#utility.yul\":949:955   */\n      dup2\n        /* \"#utility.yul\":945:985   */\n      add\n        /* \"#utility.yul\":1087:1093   */\n      dup2\n        /* \"#utility.yul\":1075:1085   */\n      dup2\n        /* \"#utility.yul\":1072:1094   */\n      lt\n        /* \"#utility.yul\":1051:1069   */\n      0xffffffffffffffff\n        /* \"#utility.yul\":1039:1049   */\n      dup3\n        /* \"#utility.yul\":1036:1070   */\n      gt\n        /* \"#utility.yul\":1033:1095   */\n      or\n        /* \"#utility.yul\":1030:1118   */\n      iszero\n      tag_125\n      jumpi\n        /* \"#utility.yul\":1098:1116   */\n      tag_126\n      tag_72\n      jump\t// in\n    tag_126:\n        /* \"#utility.yul\":1030:1118   */\n    tag_125:\n        /* \"#utility.yul\":1138:1148   */\n      dup1\n        /* \"#utility.yul\":1134:1136   */\n      0x40\n        /* \"#utility.yul\":1127:1149   */\n      mstore\n        /* \"#utility.yul\":917:1155   */\n      pop\n        /* \"#utility.yul\":874:1155   */\n      pop\n      pop\n      jump\t// out\n        /* \"#utility.yul\":1161:1290   */\n    tag_74:\n        /* \"#utility.yul\":1195:1201   */\n      0x00\n        /* \"#utility.yul\":1222:1242   */\n      tag_128\n      tag_66\n      jump\t// in\n    tag_128:\n        /* \"#utility.yul\":1212:1242   */\n      swap1\n      pop\n        /* \"#utility.yul\":1251:1284   */\n      tag_129\n        /* \"#utility.yul\":1279:1283   */\n      dup3\n        /* \"#utility.yul\":1271:1277   */\n      dup3\n        /* \"#utility.yul\":1251:1284   */\n      tag_73\n      jump\t// in\n    tag_129:\n        /* \"#utility.yul\":1161:1290   */\n      swap2\n      swap1\n      pop\n      jump\t// out\n        /* \"#utility.yul\":1296:1604   */\n    tag_75:\n        /* \"#utility.yul\":1358:1362   */\n      0x00\n        /* \"#utility.yul\":1448:1466   */\n      0xffffffffffffffff\n        /* \"#utility.yul\":1440:1446   */\n      dup3\n        /* \"#utility.yul\":1437:1467   */\n      gt\n        /* \"#utility.yul\":1434:1490   */\n      iszero\n      tag_131\n      jumpi\n        /* \"#utility.yul\":1470:1488   */\n      tag_132\n      tag_72\n      jump\t// in\n    tag_132:\n        /* \"#utility.yul\":1434:1490   */\n    tag_131:\n        /* \"#utility.yul\":1508:1537   */\n      tag_133\n        /* \"#utility.yul\":1530:1536   */\n      dup3\n        /* \"#utility.yul\":1508:1537   */\n      tag_71\n      jump\t// in\n    tag_133:\n        /* \"#utility.yul\":1500:1537   */\n      swap1\n      pop\n        /* \"#utility.yul\":1592:1596   */\n      0x20\n        /* \"#utility.yul\":1586:1590   */\n      dup2\n        /* \"#utility.yul\":1582:1597   */\n      add\n        /* \"#utility.yul\":1574:1597   */\n      swap1\n      pop\n        /* \"#utility.yul\":1296:1604   */\n      swap2\n      swap1\n      pop\n      jump\t// out\n        /* \"#utility.yul\":1610:1758   */\n    tag_76:\n        /* \"#utility.yul\":1708:1714   */\n      dup3\n        /* \"#utility.yul\":1703:1706   */\n      dup2\n        /* \"#utility.yul\":1698:1701   */\n      dup4\n        /* \"#utility.yul\":1685:1715   */\n      calldatacopy\n        /* \"#utility.yul\":1749:1750   */\n      0x00\n        /* \"#utility.yul\":1740:1746   */\n      dup4\n        /* \"#utility.yul\":1735:1738   */\n      dup4\n        /* \"#utility.yul\":1731:1747   */\n      add\n        /* \"#utility.yul\":1724:1751   */\n      mstore\n        /* \"#utility.yul\":1610:1758   */\n      pop\n      pop\n      pop\n      jump\t// out\n        /* \"#utility.yul\":1764:2189   */\n    tag_77:\n        /* \"#utility.yul\":1842:1847   */\n      0x00\n        /* \"#utility.yul\":1867:1933   */\n      tag_136\n        /* \"#utility.yul\":1883:1932   */\n      tag_137\n        /* \"#utility.yul\":1925:1931   */\n      dup5\n        /* \"#utility.yul\":1883:1932   */\n      tag_75\n      jump\t// in\n    tag_137:\n        /* \"#utility.yul\":1867:1933   */\n      tag_74\n      jump\t// in\n    tag_136:\n        /* \"#utility.yul\":1858:1933   */\n      swap1\n      pop\n        /* \"#utility.yul\":1956:1962   */\n      dup3\n        /* \"#utility.yul\":1949:1954   */\n      dup2\n        /* \"#utility.yul\":1942:1963   */\n      mstore\n        /* \"#utility.yul\":1994:1998   */\n      0x20\n        /* \"#utility.yul\":1987:1992   */\n      dup2\n        /* \"#utility.yul\":1983:1999   */\n      add\n        /* \"#utility.yul\":2032:2035   */\n      dup5\n        /* \"#utility.yul\":2023:2029   */\n      dup5\n        /* \"#utility.yul\":2018:2021   */\n      dup5\n        /* \"#utility.yul\":2014:2030   */\n      add\n        /* \"#utility.yul\":2011:2036   */\n      gt\n        /* \"#utility.yul\":2008:2120   */\n      iszero\n      tag_138\n      jumpi\n        /* \"#utility.yul\":2039:2118   */\n      tag_139\n      tag_70\n      jump\t// in\n    tag_139:\n        /* \"#utility.yul\":2008:2120   */\n    tag_138:\n        /* \"#utility.yul\":2129:2183   */\n      tag_140\n        /* \"#utility.yul\":2176:2182   */\n      dup5\n        /* \"#utility.yul\":2171:2174   */\n      dup3\n        /* \"#utility.yul\":2166:2169   */\n      dup6\n        /* \"#utility.yul\":2129:2183   */\n      tag_76\n      jump\t// in\n    tag_140:\n        /* \"#utility.yul\":1848:2189   */\n      pop\n        /* \"#utility.yul\":1764:2189   */\n      swap4\n      swap3\n      pop\n      pop\n      pop\n      jump\t// out\n        /* \"#utility.yul\":2209:2549   */\n    tag_78:\n        /* \"#utility.yul\":2265:2270   */\n      0x00\n        /* \"#utility.yul\":2314:2317   */\n      dup3\n        /* \"#utility.yul\":2307:2311   */\n      0x1f\n        /* \"#utility.yul\":2299:2305   */\n      dup4\n        /* \"#utility.yul\":2295:2312   */\n      add\n        /* \"#utility.yul\":2291:2318   */\n      slt\n        /* \"#utility.yul\":2281:2403   */\n      tag_142\n      jumpi\n        /* \"#utility.yul\":2322:2401   */\n      tag_143\n      tag_69\n      jump\t// in\n    tag_143:\n        /* \"#utility.yul\":2281:2403   */\n    tag_142:\n        /* \"#utility.yul\":2439:2445   */\n      dup2\n        /* \"#utility.yul\":2426:2446   */\n      calldataload\n        /* \"#utility.yul\":2464:2543   */\n      tag_144\n        /* \"#utility.yul\":2539:2542   */\n      dup5\n        /* \"#utility.yul\":2531:2537   */\n      dup3\n        /* \"#utility.yul\":2524:2528   */\n      0x20\n        /* \"#utility.yul\":2516:2522   */\n      dup7\n        /* \"#utility.yul\":2512:2529   */\n      add\n        /* \"#utility.yul\":2464:2543   */\n      tag_77\n      jump\t// in\n    tag_144:\n        /* \"#utility.yul\":2455:2543   */\n      swap2\n      pop\n        /* \"#utility.yul\":2271:2549   */\n      pop\n        /* \"#utility.yul\":2209:2549   */\n      swap3\n      swap2\n      pop\n      pop\n      jump\t// out\n        /* \"#utility.yul\":2555:2632   */\n    tag_79:\n        /* \"#utility.yul\":2592:2599   */\n      0x00\n        /* \"#utility.yul\":2621:2626   */\n      dup2\n        /* \"#utility.yul\":2610:2626   */\n      swap1\n      pop\n        /* \"#utility.yul\":2555:2632   */\n      swap2\n      swap1\n      pop\n      jump\t// out\n        /* \"#utility.yul\":2638:2760   */\n    tag_80:\n        /* \"#utility.yul\":2711:2735   */\n      tag_147\n        /* \"#utility.yul\":2729:2734   */\n      dup2\n        /* \"#utility.yul\":2711:2735   */\n      tag_79\n      jump\t// in\n    tag_147:\n        /* \"#utility.yul\":2704:2709   */\n      dup2\n        /* \"#utility.yul\":2701:2736   */\n      eq\n        /* \"#utility.yul\":2691:2754   */\n      tag_148\n      jumpi\n        /* \"#utility.yul\":2750:2751   */\n      0x00\n        /* \"#utility.yul\":2747:2748   */\n      0x00\n        /* \"#utility.yul\":2740:2752   */\n      revert\n        /* \"#utility.yul\":2691:2754   */\n    tag_148:\n        /* \"#utility.yul\":2638:2760   */\n      pop\n      jump\t// out\n        /* \"#utility.yul\":2766:2905   */\n    tag_81:\n        /* \"#utility.yul\":2812:2817   */\n      0x00\n        /* \"#utility.yul\":2850:2856   */\n      dup2\n        /* \"#utility.yul\":2837:2857   */\n      calldataload\n        /* \"#utility.yul\":2828:2857   */\n      swap1\n      pop\n        /* \"#utility.yul\":2866:2899   */\n      tag_150\n        /* \"#utility.yul\":2893:2898   */\n      dup2\n        /* \"#utility.yul\":2866:2899   */\n      tag_80\n      jump\t// in\n    tag_150:\n        /* \"#utility.yul\":2766:2905   */\n      swap3\n      swap2\n      pop\n      pop\n      jump\t// out\n        /* \"#utility.yul\":2911:4216   */\n    tag_8:\n        /* \"#utility.yul\":3027:3033   */\n      0x00\n        /* \"#utility.yul\":3035:3041   */\n      0x00\n        /* \"#utility.yul\":3043:3049   */\n      0x00\n        /* \"#utility.yul\":3051:3057   */\n      0x00\n        /* \"#utility.yul\":3100:3103   */\n      0x80\n        /* \"#utility.yul\":3088:3097   */\n      dup6\n        /* \"#utility.yul\":3079:3086   */\n      dup8\n        /* \"#utility.yul\":3075:3098   */\n      sub\n        /* \"#utility.yul\":3071:3104   */\n      slt\n        /* \"#utility.yul\":3068:3188   */\n      iszero\n      tag_152\n      jumpi\n        /* \"#utility.yul\":3107:3186   */\n      tag_153\n      tag_67\n      jump\t// in\n    tag_153:\n        /* \"#utility.yul\":3068:3188   */\n    tag_152:\n        /* \"#utility.yul\":3255:3256   */\n      0x00\n        /* \"#utility.yul\":3244:3253   */\n      dup6\n        /* \"#utility.yul\":3240:3257   */\n      add\n        /* \"#utility.yul\":3227:3258   */\n      calldataload\n        /* \"#utility.yul\":3285:3303   */\n      0xffffffffffffffff\n        /* \"#utility.yul\":3277:3283   */\n      dup2\n        /* \"#utility.yul\":3274:3304   */\n      gt\n        /* \"#utility.yul\":3271:3388   */\n      iszero\n      tag_154\n      jumpi\n        /* \"#utility.yul\":3307:3386   */\n      tag_155\n      tag_68\n      jump\t// in\n    tag_155:\n        /* \"#utility.yul\":3271:3388   */\n    tag_154:\n        /* \"#utility.yul\":3412:3475   */\n      tag_156\n        /* \"#utility.yul\":3467:3474   */\n      dup8\n        /* \"#utility.yul\":3458:3464   */\n      dup3\n        /* \"#utility.yul\":3447:3456   */\n      dup9\n        /* \"#utility.yul\":3443:3465   */\n      add\n        /* \"#utility.yul\":3412:3475   */\n      tag_78\n      jump\t// in\n    tag_156:\n        /* \"#utility.yul\":3402:3475   */\n      swap5\n      pop\n        /* \"#utility.yul\":3198:3485   */\n      pop\n        /* \"#utility.yul\":3552:3554   */\n      0x20\n        /* \"#utility.yul\":3541:3550   */\n      dup6\n        /* \"#utility.yul\":3537:3555   */\n      add\n        /* \"#utility.yul\":3524:3556   */\n      calldataload\n        /* \"#utility.yul\":3583:3601   */\n      0xffffffffffffffff\n        /* \"#utility.yul\":3575:3581   */\n      dup2\n        /* \"#utility.yul\":3572:3602   */\n      gt\n        /* \"#utility.yul\":3569:3686   */\n      iszero\n      tag_157\n      jumpi\n        /* \"#utility.yul\":3605:3684   */\n      tag_158\n      tag_68\n      jump\t// in\n    tag_158:\n        /* \"#utility.yul\":3569:3686   */\n    tag_157:\n        /* \"#utility.yul\":3710:3773   */\n      tag_159\n        /* \"#utility.yul\":3765:3772   */\n      dup8\n        /* \"#utility.yul\":3756:3762   */\n      dup3\n        /* \"#utility.yul\":3745:3754   */\n      dup9\n        /* \"#utility.yul\":3741:3763   */\n      add\n        /* \"#utility.yul\":3710:3773   */\n      tag_78\n      jump\t// in\n    tag_159:\n        /* \"#utility.yul\":3700:3773   */\n      swap4\n      pop\n        /* \"#utility.yul\":3495:3783   */\n      pop\n        /* \"#utility.yul\":3822:3824   */\n      0x40\n        /* \"#utility.yul\":3848:3901   */\n      tag_160\n        /* \"#utility.yul\":3893:3900   */\n      dup8\n        /* \"#utility.yul\":3884:3890   */\n      dup3\n        /* \"#utility.yul\":3873:3882   */\n      dup9\n        /* \"#utility.yul\":3869:3891   */\n      add\n        /* \"#utility.yul\":3848:3901   */\n      tag_81\n      jump\t// in\n    tag_160:\n        /* \"#utility.yul\":3838:3901   */\n      swap3\n      pop\n        /* \"#utility.yul\":3793:3911   */\n      pop\n        /* \"#utility.yul\":3978:3980   */\n      0x60\n        /* \"#utility.yul\":3967:3976   */\n      dup6\n        /* \"#utility.yul\":3963:3981   */\n      add\n        /* \"#utility.yul\":3950:3982   */\n      calldataload\n        /* \"#utility.yul\":4009:4027   */\n      0xffffffffffffffff\n        /* \"#utility.yul\":4001:4007   */\n      dup2\n        /* \"#utility.yul\":3998:4028   */\n      gt\n        /* \"#utility.yul\":3995:4112   */\n      iszero\n      tag_161\n      jumpi\n        /* \"#utility.yul\":4031:4110   */\n      tag_162\n      tag_68\n      jump\t// in\n    tag_162:\n        /* \"#utility.yul\":3995:4112   */\n    tag_161:\n        /* \"#utility.yul\":4136:4199   */\n      tag_163\n        /* \"#utility.yul\":4191:4198   */\n      dup8\n        /* \"#utility.yul\":4182:4188   */\n      dup3\n        /* \"#utility.yul\":4171:4180   */\n      dup9\n        /* \"#utility.yul\":4167:4189   */\n      add\n        /* \"#utility.yul\":4136:4199   */\n      tag_78\n      jump\t// in\n    tag_163:\n        /* \"#utility.yul\":4126:4199   */\n      swap2\n      pop\n        /* \"#utility.yul\":3921:4209   */\n      pop\n        /* \"#utility.yul\":2911:4216   */\n      swap3\n      swap6\n      swap2\n      swap5\n      pop\n      swap3\n      pop\n      jump\t// out\n        /* \"#utility.yul\":4222:4731   */\n    tag_12:\n        /* \"#utility.yul\":4291:4297   */\n      0x00\n        /* \"#utility.yul\":4340:4342   */\n      0x20\n        /* \"#utility.yul\":4328:4337   */\n      dup3\n        /* \"#utility.yul\":4319:4326   */\n      dup5\n        /* \"#utility.yul\":4315:4338   */\n      sub\n        /* \"#utility.yul\":4311:4343   */\n      slt\n        /* \"#utility.yul\":4308:4427   */\n      iszero\n      tag_165\n      jumpi\n        /* \"#utility.yul\":4346:4425   */\n      tag_166\n      tag_67\n      jump\t// in\n    tag_166:\n        /* \"#utility.yul\":4308:4427   */\n    tag_165:\n        /* \"#utility.yul\":4494:4495   */\n      0x00\n        /* \"#utility.yul\":4483:4492   */\n      dup3\n        /* \"#utility.yul\":4479:4496   */\n      add\n        /* \"#utility.yul\":4466:4497   */\n      calldataload\n        /* \"#utility.yul\":4524:4542   */\n      0xffffffffffffffff\n        /* \"#utility.yul\":4516:4522   */\n      dup2\n        /* \"#utility.yul\":4513:4543   */\n      gt\n        /* \"#utility.yul\":4510:4627   */\n      iszero\n      tag_167\n      jumpi\n        /* \"#utility.yul\":4546:4625   */\n      tag_168\n      tag_68\n      jump\t// in\n    tag_168:\n        /* \"#utility.yul\":4510:4627   */\n    tag_167:\n        /* \"#utility.yul\":4651:4714   */\n      tag_169\n        /* \"#utility.yul\":4706:4713   */\n      dup5\n        /* \"#utility.yul\":4697:4703   */\n      dup3\n        /* \"#utility.yul\":4686:4695   */\n      dup6\n        /* \"#utility.yul\":4682:4704   */\n      add\n        /* \"#utility.yul\":4651:4714   */\n      tag_78\n      jump\t// in\n    tag_169:\n        /* \"#utility.yul\":4641:4714   */\n      swap2\n      pop\n        /* \"#utility.yul\":4437:4724   */\n      pop\n        /* \"#utility.yul\":4222:4731   */\n      swap3\n      swap2\n      pop\n      pop\n      jump\t// out\n        /* \"#utility.yul\":4737:4836   */\n    tag_82:\n        /* \"#utility.yul\":4789:4795   */\n      0x00\n        /* \"#utility.yul\":4823:4828   */\n      dup2\n        /* \"#utility.yul\":4817:4829   */\n      mload\n        /* \"#utility.yul\":4807:4829   */\n      swap1\n      pop\n        /* \"#utility.yul\":4737:4836   */\n      swap2\n      swap1\n      pop\n      jump\t// out\n        /* \"#utility.yul\":4842:5011   */\n    tag_83:\n        /* \"#utility.yul\":4926:4937   */\n      0x00\n        /* \"#utility.yul\":4960:4966   */\n      dup3\n        /* \"#utility.yul\":4955:4958   */\n      dup3\n        /* \"#utility.yul\":4948:4967   */\n      mstore\n        /* \"#utility.yul\":5000:5004   */\n      0x20\n        /* \"#utility.yul\":4995:4998   */\n      dup3\n        /* \"#utility.yul\":4991:5005   */\n      add\n        /* \"#utility.yul\":4976:5005   */\n      swap1\n      pop\n        /* \"#utility.yul\":4842:5011   */\n      swap3\n      swap2\n      pop\n      pop\n      jump\t// out\n        /* \"#utility.yul\":5017:5156   */\n    tag_84:\n        /* \"#utility.yul\":5106:5112   */\n      dup3\n        /* \"#utility.yul\":5101:5104   */\n      dup2\n        /* \"#utility.yul\":5096:5099   */\n      dup4\n        /* \"#utility.yul\":5090:5113   */\n      mcopy\n        /* \"#utility.yul\":5147:5148   */\n      0x00\n        /* \"#utility.yul\":5138:5144   */\n      dup4\n        /* \"#utility.yul\":5133:5136   */\n      dup4\n        /* \"#utility.yul\":5129:5145   */\n      add\n        /* \"#utility.yul\":5122:5149   */\n      mstore\n        /* \"#utility.yul\":5017:5156   */\n      pop\n      pop\n      pop\n      jump\t// out\n        /* \"#utility.yul\":5162:5539   */\n    tag_85:\n        /* \"#utility.yul\":5250:5253   */\n      0x00\n        /* \"#utility.yul\":5278:5317   */\n      tag_174\n        /* \"#utility.yul\":5311:5316   */\n      dup3\n        /* \"#utility.yul\":5278:5317   */\n      tag_82\n      jump\t// in\n    tag_174:\n        /* \"#utility.yul\":5333:5404   */\n      tag_175\n        /* \"#utility.yul\":5397:5403   */\n      dup2\n        /* \"#utility.yul\":5392:5395   */\n      dup6\n        /* \"#utility.yul\":5333:5404   */\n      tag_83\n      jump\t// in\n    tag_175:\n        /* \"#utility.yul\":5326:5404   */\n      swap4\n      pop\n        /* \"#utility.yul\":5413:5478   */\n      tag_176\n        /* \"#utility.yul\":5471:5477   */\n      dup2\n        /* \"#utility.yul\":5466:5469   */\n      dup6\n        /* \"#utility.yul\":5459:5463   */\n      0x20\n        /* \"#utility.yul\":5452:5457   */\n      dup7\n        /* \"#utility.yul\":5448:5464   */\n      add\n        /* \"#utility.yul\":5413:5478   */\n      tag_84\n      jump\t// in\n    tag_176:\n        /* \"#utility.yul\":5503:5532   */\n      tag_177\n        /* \"#utility.yul\":5525:5531   */\n      dup2\n        /* \"#utility.yul\":5503:5532   */\n      tag_71\n      jump\t// in\n    tag_177:\n        /* \"#utility.yul\":5498:5501   */\n      dup5\n        /* \"#utility.yul\":5494:5533   */\n      add\n        /* \"#utility.yul\":5487:5533   */\n      swap2\n      pop\n        /* \"#utility.yul\":5254:5539   */\n      pop\n        /* \"#utility.yul\":5162:5539   */\n      swap3\n      swap2\n      pop\n      pop\n      jump\t// out\n        /* \"#utility.yul\":5545:5663   */\n    tag_86:\n        /* \"#utility.yul\":5632:5656   */\n      tag_179\n        /* \"#utility.yul\":5650:5655   */\n      dup2\n        /* \"#utility.yul\":5632:5656   */\n      tag_79\n      jump\t// in\n    tag_179:\n        /* \"#utility.yul\":5627:5630   */\n      dup3\n        /* \"#utility.yul\":5620:5657   */\n      mstore\n        /* \"#utility.yul\":5545:5663   */\n      pop\n      pop\n      jump\t// out\n        /* \"#utility.yul\":5669:6495   */\n    tag_15:\n        /* \"#utility.yul\":5906:5910   */\n      0x00\n        /* \"#utility.yul\":5944:5947   */\n      0x80\n        /* \"#utility.yul\":5933:5942   */\n      dup3\n        /* \"#utility.yul\":5929:5948   */\n      add\n        /* \"#utility.yul\":5921:5948   */\n      swap1\n      pop\n        /* \"#utility.yul\":5994:6003   */\n      dup2\n        /* \"#utility.yul\":5988:5992   */\n      dup2\n        /* \"#utility.yul\":5984:6004   */\n      sub\n        /* \"#utility.yul\":5980:5981   */\n      0x00\n        /* \"#utility.yul\":5969:5978   */\n      dup4\n        /* \"#utility.yul\":5965:5982   */\n      add\n        /* \"#utility.yul\":5958:6005   */\n      mstore\n        /* \"#utility.yul\":6022:6100   */\n      tag_181\n        /* \"#utility.yul\":6095:6099   */\n      dup2\n        /* \"#utility.yul\":6086:6092   */\n      dup8\n        /* \"#utility.yul\":6022:6100   */\n      tag_85\n      jump\t// in\n    tag_181:\n        /* \"#utility.yul\":6014:6100   */\n      swap1\n      pop\n        /* \"#utility.yul\":6110:6182   */\n      tag_182\n        /* \"#utility.yul\":6178:6180   */\n      0x20\n        /* \"#utility.yul\":6167:6176   */\n      dup4\n        /* \"#utility.yul\":6163:6181   */\n      add\n        /* \"#utility.yul\":6154:6160   */\n      dup7\n        /* \"#utility.yul\":6110:6182   */\n      tag_86\n      jump\t// in\n    tag_182:\n        /* \"#utility.yul\":6229:6238   */\n      dup2\n        /* \"#utility.yul\":6223:6227   */\n      dup2\n        /* \"#utility.yul\":6219:6239   */\n      sub\n        /* \"#utility.yul\":6214:6216   */\n      0x40\n        /* \"#utility.yul\":6203:6212   */\n      dup4\n        /* \"#utility.yul\":6199:6217   */\n      add\n        /* \"#utility.yul\":6192:6240   */\n      mstore\n        /* \"#utility.yul\":6257:6335   */\n      tag_183\n        /* \"#utility.yul\":6330:6334   */\n      dup2\n        /* \"#utility.yul\":6321:6327   */\n      dup6\n        /* \"#utility.yul\":6257:6335   */\n      tag_85\n      jump\t// in\n    tag_183:\n        /* \"#utility.yul\":6249:6335   */\n      swap1\n      pop\n        /* \"#utility.yul\":6382:6391   */\n      dup2\n        /* \"#utility.yul\":6376:6380   */\n      dup2\n        /* \"#utility.yul\":6372:6392   */\n      sub\n        /* \"#utility.yul\":6367:6369   */\n      0x60\n        /* \"#utility.yul\":6356:6365   */\n      dup4\n        /* \"#utility.yul\":6352:6370   */\n      add\n        /* \"#utility.yul\":6345:6393   */\n      mstore\n        /* \"#utility.yul\":6410:6488   */\n      tag_184\n        /* \"#utility.yul\":6483:6487   */\n      dup2\n        /* \"#utility.yul\":6474:6480   */\n      dup5\n        /* \"#utility.yul\":6410:6488   */\n      tag_85\n      jump\t// in\n    tag_184:\n        /* \"#utility.yul\":6402:6488   */\n      swap1\n      pop\n        /* \"#utility.yul\":5669:6495   */\n      swap6\n      swap5\n      pop\n      pop\n      pop\n      pop\n      pop\n      jump\t// out\n        /* \"#utility.yul\":6501:6637   */\n    tag_87:\n        /* \"#utility.yul\":6590:6596   */\n      0x00\n        /* \"#utility.yul\":6624:6629   */\n      dup2\n        /* \"#utility.yul\":6618:6630   */\n      mload\n        /* \"#utility.yul\":6608:6630   */\n      swap1\n      pop\n        /* \"#utility.yul\":6501:6637   */\n      swap2\n      swap1\n      pop\n      jump\t// out\n        /* \"#utility.yul\":6643:6849   */\n    tag_88:\n        /* \"#utility.yul\":6764:6775   */\n      0x00\n        /* \"#utility.yul\":6798:6804   */\n      dup3\n        /* \"#utility.yul\":6793:6796   */\n      dup3\n        /* \"#utility.yul\":6786:6805   */\n      mstore\n        /* \"#utility.yul\":6838:6842   */\n      0x20\n        /* \"#utility.yul\":6833:6836   */\n      dup3\n        /* \"#utility.yul\":6829:6843   */\n      add\n        /* \"#utility.yul\":6814:6843   */\n      swap1\n      pop\n        /* \"#utility.yul\":6643:6849   */\n      swap3\n      swap2\n      pop\n      pop\n      jump\t// out\n        /* \"#utility.yul\":6855:7009   */\n    tag_89:\n        /* \"#utility.yul\":6944:6948   */\n      0x00\n        /* \"#utility.yul\":6967:6970   */\n      dup2\n        /* \"#utility.yul\":6959:6970   */\n      swap1\n      pop\n        /* \"#utility.yul\":6997:7001   */\n      0x20\n        /* \"#utility.yul\":6992:6995   */\n      dup3\n        /* \"#utility.yul\":6988:7002   */\n      add\n        /* \"#utility.yul\":6980:7002   */\n      swap1\n      pop\n        /* \"#utility.yul\":6855:7009   */\n      swap2\n      swap1\n      pop\n      jump\t// out\n        /* \"#utility.yul\":7015:7174   */\n    tag_90:\n        /* \"#utility.yul\":7089:7100   */\n      0x00\n        /* \"#utility.yul\":7123:7129   */\n      dup3\n        /* \"#utility.yul\":7118:7121   */\n      dup3\n        /* \"#utility.yul\":7111:7130   */\n      mstore\n        /* \"#utility.yul\":7163:7167   */\n      0x20\n        /* \"#utility.yul\":7158:7161   */\n      dup3\n        /* \"#utility.yul\":7154:7168   */\n      add\n        /* \"#utility.yul\":7139:7168   */\n      swap1\n      pop\n        /* \"#utility.yul\":7015:7174   */\n      swap3\n      swap2\n      pop\n      pop\n      jump\t// out\n        /* \"#utility.yul\":7180:7537   */\n    tag_91:\n        /* \"#utility.yul\":7258:7261   */\n      0x00\n        /* \"#utility.yul\":7286:7325   */\n      tag_190\n        /* \"#utility.yul\":7319:7324   */\n      dup3\n        /* \"#utility.yul\":7286:7325   */\n      tag_82\n      jump\t// in\n    tag_190:\n        /* \"#utility.yul\":7341:7402   */\n      tag_191\n        /* \"#utility.yul\":7395:7401   */\n      dup2\n        /* \"#utility.yul\":7390:7393   */\n      dup6\n        /* \"#utility.yul\":7341:7402   */\n      tag_90\n      jump\t// in\n    tag_191:\n        /* \"#utility.yul\":7334:7402   */\n      swap4\n      pop\n        /* \"#utility.yul\":7411:7476   */\n      tag_192\n        /* \"#utility.yul\":7469:7475   */\n      dup2\n        /* \"#utility.yul\":7464:7467   */\n      dup6\n        /* \"#utility.yul\":7457:7461   */\n      0x20\n        /* \"#utility.yul\":7450:7455   */\n      dup7\n        /* \"#utility.yul\":7446:7462   */\n      add\n        /* \"#utility.yul\":7411:7476   */\n      tag_84\n      jump\t// in\n    tag_192:\n        /* \"#utility.yul\":7501:7530   */\n      tag_193\n        /* \"#utility.yul\":7523:7529   */\n      dup2\n        /* \"#utility.yul\":7501:7530   */\n      tag_71\n      jump\t// in\n    tag_193:\n        /* \"#utility.yul\":7496:7499   */\n      dup5\n        /* \"#utility.yul\":7492:7531   */\n      add\n        /* \"#utility.yul\":7485:7531   */\n      swap2\n      pop\n        /* \"#utility.yul\":7262:7537   */\n      pop\n        /* \"#utility.yul\":7180:7537   */\n      swap3\n      swap2\n      pop\n      pop\n      jump\t// out\n        /* \"#utility.yul\":7543:7651   */\n    tag_92:\n        /* \"#utility.yul\":7620:7644   */\n      tag_195\n        /* \"#utility.yul\":7638:7643   */\n      dup2\n        /* \"#utility.yul\":7620:7644   */\n      tag_79\n      jump\t// in\n    tag_195:\n        /* \"#utility.yul\":7615:7618   */\n      dup3\n        /* \"#utility.yul\":7608:7645   */\n      mstore\n        /* \"#utility.yul\":7543:7651   */\n      pop\n      pop\n      jump\t// out\n        /* \"#utility.yul\":7711:8796   */\n    tag_93:\n        /* \"#utility.yul\":7814:7817   */\n      0x00\n        /* \"#utility.yul\":7850:7854   */\n      0x80\n        /* \"#utility.yul\":7845:7848   */\n      dup4\n        /* \"#utility.yul\":7841:7855   */\n      add\n        /* \"#utility.yul\":7938:7942   */\n      0x00\n        /* \"#utility.yul\":7931:7936   */\n      dup4\n        /* \"#utility.yul\":7927:7943   */\n      add\n        /* \"#utility.yul\":7921:7944   */\n      mload\n        /* \"#utility.yul\":7991:7994   */\n      dup5\n        /* \"#utility.yul\":7985:7989   */\n      dup3\n        /* \"#utility.yul\":7981:7995   */\n      sub\n        /* \"#utility.yul\":7974:7978   */\n      0x00\n        /* \"#utility.yul\":7969:7972   */\n      dup7\n        /* \"#utility.yul\":7965:7979   */\n      add\n        /* \"#utility.yul\":7958:7996   */\n      mstore\n        /* \"#utility.yul\":8017:8090   */\n      tag_197\n        /* \"#utility.yul\":8085:8089   */\n      dup3\n        /* \"#utility.yul\":8071:8083   */\n      dup3\n        /* \"#utility.yul\":8017:8090   */\n      tag_91\n      jump\t// in\n    tag_197:\n        /* \"#utility.yul\":8009:8090   */\n      swap2\n      pop\n        /* \"#utility.yul\":7865:8101   */\n      pop\n        /* \"#utility.yul\":8183:8187   */\n      0x20\n        /* \"#utility.yul\":8176:8181   */\n      dup4\n        /* \"#utility.yul\":8172:8188   */\n      add\n        /* \"#utility.yul\":8166:8189   */\n      mload\n        /* \"#utility.yul\":8202:8265   */\n      tag_198\n        /* \"#utility.yul\":8259:8263   */\n      0x20\n        /* \"#utility.yul\":8254:8257   */\n      dup7\n        /* \"#utility.yul\":8250:8264   */\n      add\n        /* \"#utility.yul\":8236:8248   */\n      dup3\n        /* \"#utility.yul\":8202:8265   */\n      tag_92\n      jump\t// in\n    tag_198:\n        /* \"#utility.yul\":8111:8275   */\n      pop\n        /* \"#utility.yul\":8357:8361   */\n      0x40\n        /* \"#utility.yul\":8350:8355   */\n      dup4\n        /* \"#utility.yul\":8346:8362   */\n      add\n        /* \"#utility.yul\":8340:8363   */\n      mload\n        /* \"#utility.yul\":8410:8413   */\n      dup5\n        /* \"#utility.yul\":8404:8408   */\n      dup3\n        /* \"#utility.yul\":8400:8414   */\n      sub\n        /* \"#utility.yul\":8393:8397   */\n      0x40\n        /* \"#utility.yul\":8388:8391   */\n      dup7\n        /* \"#utility.yul\":8384:8398   */\n      add\n        /* \"#utility.yul\":8377:8415   */\n      mstore\n        /* \"#utility.yul\":8436:8509   */\n      tag_199\n        /* \"#utility.yul\":8504:8508   */\n      dup3\n        /* \"#utility.yul\":8490:8502   */\n      dup3\n        /* \"#utility.yul\":8436:8509   */\n      tag_91\n      jump\t// in\n    tag_199:\n        /* \"#utility.yul\":8428:8509   */\n      swap2\n      pop\n        /* \"#utility.yul\":8285:8520   */\n      pop\n        /* \"#utility.yul\":8606:8610   */\n      0x60\n        /* \"#utility.yul\":8599:8604   */\n      dup4\n        /* \"#utility.yul\":8595:8611   */\n      add\n        /* \"#utility.yul\":8589:8612   */\n      mload\n        /* \"#utility.yul\":8659:8662   */\n      dup5\n        /* \"#utility.yul\":8653:8657   */\n      dup3\n        /* \"#utility.yul\":8649:8663   */\n      sub\n        /* \"#utility.yul\":8642:8646   */\n      0x60\n        /* \"#utility.yul\":8637:8640   */\n      dup7\n        /* \"#utility.yul\":8633:8647   */\n      add\n        /* \"#utility.yul\":8626:8664   */\n      mstore\n        /* \"#utility.yul\":8685:8758   */\n      tag_200\n        /* \"#utility.yul\":8753:8757   */\n      dup3\n        /* \"#utility.yul\":8739:8751   */\n      dup3\n        /* \"#utility.yul\":8685:8758   */\n      tag_91\n      jump\t// in\n    tag_200:\n        /* \"#utility.yul\":8677:8758   */\n      swap2\n      pop\n        /* \"#utility.yul\":8530:8769   */\n      pop\n        /* \"#utility.yul\":8786:8790   */\n      dup1\n        /* \"#utility.yul\":8779:8790   */\n      swap2\n      pop\n        /* \"#utility.yul\":7819:8796   */\n      pop\n        /* \"#utility.yul\":7711:8796   */\n      swap3\n      swap2\n      pop\n      pop\n      jump\t// out\n        /* \"#utility.yul\":8802:9046   */\n    tag_94:\n        /* \"#utility.yul\":8915:8925   */\n      0x00\n        /* \"#utility.yul\":8950:9040   */\n      tag_202\n        /* \"#utility.yul\":9036:9039   */\n      dup4\n        /* \"#utility.yul\":9028:9034   */\n      dup4\n        /* \"#utility.yul\":8950:9040   */\n      tag_93\n      jump\t// in\n    tag_202:\n        /* \"#utility.yul\":8936:9040   */\n      swap1\n      pop\n        /* \"#utility.yul\":8802:9046   */\n      swap3\n      swap2\n      pop\n      pop\n      jump\t// out\n        /* \"#utility.yul\":9052:9187   */\n    tag_95:\n        /* \"#utility.yul\":9144:9148   */\n      0x00\n        /* \"#utility.yul\":9176:9180   */\n      0x20\n        /* \"#utility.yul\":9171:9174   */\n      dup3\n        /* \"#utility.yul\":9167:9181   */\n      add\n        /* \"#utility.yul\":9159:9181   */\n      swap1\n      pop\n        /* \"#utility.yul\":9052:9187   */\n      swap2\n      swap1\n      pop\n      jump\t// out\n        /* \"#utility.yul\":9251:10338   */\n    tag_96:\n        /* \"#utility.yul\":9414:9417   */\n      0x00\n        /* \"#utility.yul\":9443:9519   */\n      tag_205\n        /* \"#utility.yul\":9513:9518   */\n      dup3\n        /* \"#utility.yul\":9443:9519   */\n      tag_87\n      jump\t// in\n    tag_205:\n        /* \"#utility.yul\":9535:9643   */\n      tag_206\n        /* \"#utility.yul\":9636:9642   */\n      dup2\n        /* \"#utility.yul\":9631:9634   */\n      dup6\n        /* \"#utility.yul\":9535:9643   */\n      tag_88\n      jump\t// in\n    tag_206:\n        /* \"#utility.yul\":9528:9643   */\n      swap4\n      pop\n        /* \"#utility.yul\":9669:9672   */\n      dup4\n        /* \"#utility.yul\":9714:9718   */\n      0x20\n        /* \"#utility.yul\":9706:9712   */\n      dup3\n        /* \"#utility.yul\":9702:9719   */\n      mul\n        /* \"#utility.yul\":9697:9700   */\n      dup6\n        /* \"#utility.yul\":9693:9720   */\n      add\n        /* \"#utility.yul\":9744:9822   */\n      tag_207\n        /* \"#utility.yul\":9816:9821   */\n      dup6\n        /* \"#utility.yul\":9744:9822   */\n      tag_89\n      jump\t// in\n    tag_207:\n        /* \"#utility.yul\":9845:9852   */\n      dup1\n        /* \"#utility.yul\":9876:9877   */\n      0x00\n        /* \"#utility.yul\":9861:10293   */\n    tag_208:\n        /* \"#utility.yul\":9886:9892   */\n      dup6\n        /* \"#utility.yul\":9883:9884   */\n      dup2\n        /* \"#utility.yul\":9880:9893   */\n      lt\n        /* \"#utility.yul\":9861:10293   */\n      iszero\n      tag_210\n      jumpi\n        /* \"#utility.yul\":9957:9966   */\n      dup5\n        /* \"#utility.yul\":9951:9955   */\n      dup5\n        /* \"#utility.yul\":9947:9967   */\n      sub\n        /* \"#utility.yul\":9942:9945   */\n      dup10\n        /* \"#utility.yul\":9935:9968   */\n      mstore\n        /* \"#utility.yul\":10008:10014   */\n      dup2\n        /* \"#utility.yul\":10002:10015   */\n      mload\n        /* \"#utility.yul\":10036:10144   */\n      tag_211\n        /* \"#utility.yul\":10139:10143   */\n      dup6\n        /* \"#utility.yul\":10124:10137   */\n      dup3\n        /* \"#utility.yul\":10036:10144   */\n      tag_94\n      jump\t// in\n    tag_211:\n        /* \"#utility.yul\":10028:10144   */\n      swap5\n      pop\n        /* \"#utility.yul\":10167:10249   */\n      tag_212\n        /* \"#utility.yul\":10242:10248   */\n      dup4\n        /* \"#utility.yul\":10167:10249   */\n      tag_95\n      jump\t// in\n    tag_212:\n        /* \"#utility.yul\":10157:10249   */\n      swap3\n      pop\n        /* \"#utility.yul\":10278:10282   */\n      0x20\n        /* \"#utility.yul\":10273:10276   */\n      dup11\n        /* \"#utility.yul\":10269:10283   */\n      add\n        /* \"#utility.yul\":10262:10283   */\n      swap10\n      pop\n        /* \"#utility.yul\":9921:10293   */\n      pop\n        /* \"#utility.yul\":9908:9909   */\n      0x01\n        /* \"#utility.yul\":9905:9906   */\n      dup2\n        /* \"#utility.yul\":9901:9910   */\n      add\n        /* \"#utility.yul\":9896:9910   */\n      swap1\n      pop\n        /* \"#utility.yul\":9861:10293   */\n      jump(tag_208)\n    tag_210:\n        /* \"#utility.yul\":9865:9879   */\n      pop\n        /* \"#utility.yul\":10309:10313   */\n      dup3\n        /* \"#utility.yul\":10302:10313   */\n      swap8\n      pop\n        /* \"#utility.yul\":10329:10332   */\n      dup8\n        /* \"#utility.yul\":10322:10332   */\n      swap6\n      pop\n        /* \"#utility.yul\":9419:10338   */\n      pop\n      pop\n      pop\n      pop\n      pop\n        /* \"#utility.yul\":9251:10338   */\n      swap3\n      swap2\n      pop\n      pop\n      jump\t// out\n        /* \"#utility.yul\":10344:10805   */\n    tag_19:\n        /* \"#utility.yul\":10531:10535   */\n      0x00\n        /* \"#utility.yul\":10569:10571   */\n      0x20\n        /* \"#utility.yul\":10558:10567   */\n      dup3\n        /* \"#utility.yul\":10554:10572   */\n      add\n        /* \"#utility.yul\":10546:10572   */\n      swap1\n      pop\n        /* \"#utility.yul\":10618:10627   */\n      dup2\n        /* \"#utility.yul\":10612:10616   */\n      dup2\n        /* \"#utility.yul\":10608:10628   */\n      sub\n        /* \"#utility.yul\":10604:10605   */\n      0x00\n        /* \"#utility.yul\":10593:10602   */\n      dup4\n        /* \"#utility.yul\":10589:10606   */\n      add\n        /* \"#utility.yul\":10582:10629   */\n      mstore\n        /* \"#utility.yul\":10646:10798   */\n      tag_214\n        /* \"#utility.yul\":10793:10797   */\n      dup2\n        /* \"#utility.yul\":10784:10790   */\n      dup5\n        /* \"#utility.yul\":10646:10798   */\n      tag_96\n      jump\t// in\n    tag_214:\n        /* \"#utility.yul\":10638:10798   */\n      swap1\n      pop\n        /* \"#utility.yul\":10344:10805   */\n      swap3\n      swap2\n      pop\n      pop\n      jump\t// out\n        /* \"#utility.yul\":10811:10991   */\n    tag_97:\n        /* \"#utility.yul\":10859:10936   */\n      0x4e487b7100000000000000000000000000000000000000000000000000000000\n        /* \"#utility.yul\":10856:10857   */\n      0x00\n        /* \"#utility.yul\":10849:10937   */\n      mstore\n        /* \"#utility.yul\":10956:10960   */\n      0x22\n        /* \"#utility.yul\":10953:10954   */\n      0x04\n        /* \"#utility.yul\":10946:10961   */\n      mstore\n        /* \"#utility.yul\":10980:10984   */\n      0x24\n        /* \"#utility.yul\":10977:10978   */\n      0x00\n        /* \"#utility.yul\":10970:10985   */\n      revert\n        /* \"#utility.yul\":10997:11317   */\n    tag_32:\n        /* \"#utility.yul\":11041:11047   */\n      0x00\n        /* \"#utility.yul\":11078:11079   */\n      0x02\n        /* \"#utility.yul\":11072:11076   */\n      dup3\n        /* \"#utility.yul\":11068:11080   */\n      div\n        /* \"#utility.yul\":11058:11080   */\n      swap1\n      pop\n        /* \"#utility.yul\":11125:11126   */\n      0x01\n        /* \"#utility.yul\":11119:11123   */\n      dup3\n        /* \"#utility.yul\":11115:11127   */\n      and\n        /* \"#utility.yul\":11146:11164   */\n      dup1\n        /* \"#utility.yul\":11136:11217   */\n      tag_217\n      jumpi\n        /* \"#utility.yul\":11202:11206   */\n      0x7f\n        /* \"#utility.yul\":11194:11200   */\n      dup3\n        /* \"#utility.yul\":11190:11207   */\n      and\n        /* \"#utility.yul\":11180:11207   */\n      swap2\n      pop\n        /* \"#utility.yul\":11136:11217   */\n    tag_217:\n        /* \"#utility.yul\":11264:11266   */\n      0x20\n        /* \"#utility.yul\":11256:11262   */\n      dup3\n        /* \"#utility.yul\":11253:11267   */\n      lt\n        /* \"#utility.yul\":11233:11251   */\n      dup2\n        /* \"#utility.yul\":11230:11268   */\n      sub\n        /* \"#utility.yul\":11227:11311   */\n      tag_218\n      jumpi\n        /* \"#utility.yul\":11283:11301   */\n      tag_219\n      tag_97\n      jump\t// in\n    tag_219:\n        /* \"#utility.yul\":11227:11311   */\n    tag_218:\n        /* \"#utility.yul\":11048:11317   */\n      pop\n        /* \"#utility.yul\":10997:11317   */\n      swap2\n      swap1\n      pop\n      jump\t// out\n        /* \"#utility.yul\":11323:11464   */\n    tag_98:\n        /* \"#utility.yul\":11372:11376   */\n      0x00\n        /* \"#utility.yul\":11395:11398   */\n      dup2\n        /* \"#utility.yul\":11387:11398   */\n      swap1\n      pop\n        /* \"#utility.yul\":11418:11421   */\n      dup2\n        /* \"#utility.yul\":11415:11416   */\n      0x00\n        /* \"#utility.yul\":11408:11422   */\n      mstore\n        /* \"#utility.yul\":11452:11456   */\n      0x20\n        /* \"#utility.yul\":11449:11450   */\n      0x00\n        /* \"#utility.yul\":11439:11457   */\n      keccak256\n        /* \"#utility.yul\":11431:11457   */\n      swap1\n      pop\n        /* \"#utility.yul\":11323:11464   */\n      swap2\n      swap1\n      pop\n      jump\t// out\n        /* \"#utility.yul\":11470:11563   */\n    tag_99:\n        /* \"#utility.yul\":11507:11513   */\n      0x00\n        /* \"#utility.yul\":11554:11556   */\n      0x20\n        /* \"#utility.yul\":11549:11551   */\n      0x1f\n        /* \"#utility.yul\":11542:11547   */\n      dup4\n        /* \"#utility.yul\":11538:11552   */\n      add\n        /* \"#utility.yul\":11534:11557   */\n      div\n        /* \"#utility.yul\":11524:11557   */\n      swap1\n      pop\n        /* \"#utility.yul\":11470:11563   */\n      swap2\n      swap1\n      pop\n      jump\t// out\n        /* \"#utility.yul\":11569:11676   */\n    tag_100:\n        /* \"#utility.yul\":11613:11621   */\n      0x00\n        /* \"#utility.yul\":11663:11668   */\n      dup3\n        /* \"#utility.yul\":11657:11661   */\n      dup3\n        /* \"#utility.yul\":11653:11669   */\n      shl\n        /* \"#utility.yul\":11632:11669   */\n      swap1\n      pop\n        /* \"#utility.yul\":11569:11676   */\n      swap3\n      swap2\n      pop\n      pop\n      jump\t// out\n        /* \"#utility.yul\":11682:12075   */\n    tag_101:\n        /* \"#utility.yul\":11751:11757   */\n      0x00\n        /* \"#utility.yul\":11801:11802   */\n      0x08\n        /* \"#utility.yul\":11789:11799   */\n      dup4\n        /* \"#utility.yul\":11785:11803   */\n      mul\n        /* \"#utility.yul\":11824:11921   */\n      tag_224\n        /* \"#utility.yul\":11854:11920   */\n      0xffffffffffffffffffffffffffffffffffffffffffffffffffffffffffffffff\n        /* \"#utility.yul\":11843:11852   */\n      dup3\n        /* \"#utility.yul\":11824:11921   */\n      tag_100\n      jump\t// in\n    tag_224:\n        /* \"#utility.yul\":11942:11981   */\n      tag_225\n        /* \"#utility.yul\":11972:11980   */\n      dup7\n        /* \"#utility.yul\":11961:11970   */\n      dup4\n        /* \"#utility.yul\":11942:11981   */\n      tag_100\n      jump\t// in\n    tag_225:\n        /* \"#utility.yul\":11930:11981   */\n      swap6\n      pop\n        /* \"#utility.yul\":12014:12018   */\n      dup1\n        /* \"#utility.yul\":12010:12019   */\n      not\n        /* \"#utility.yul\":12003:12008   */\n      dup5\n        /* \"#utility.yul\":11999:12020   */\n      and\n        /* \"#utility.yul\":11990:12020   */\n      swap4\n      pop\n        /* \"#utility.yul\":12063:12067   */\n      dup1\n        /* \"#utility.yul\":12053:12061   */\n      dup7\n        /* \"#utility.yul\":12049:12068   */\n      and\n        /* \"#utility.yul\":12042:12047   */\n      dup5\n        /* \"#utility.yul\":12039:12069   */\n      or\n        /* \"#utility.yul\":12029:12069   */\n      swap3\n      pop\n        /* \"#utility.yul\":11758:12075   */\n      pop\n      pop\n        /* \"#utility.yul\":11682:12075   */\n      swap4\n      swap3\n      pop\n      pop\n      pop\n      jump\t// out\n        /* \"#utility.yul\":12081:12141   */\n    tag_102:\n        /* \"#utility.yul\":12109:12112   */\n      0x00\n        /* \"#utility.yul\":12130:12135   */\n      dup2\n        /* \"#utility.yul\":12123:12135   */\n      swap1\n      pop\n        /* \"#utility.yul\":12081:12141   */\n      swap2\n      swap1\n      pop\n      jump\t// out\n        /* \"#utility.yul\":12147:12289   */\n    tag_103:\n        /* \"#utility.yul\":12197:12206   */\n      0x00\n        /* \"#utility.yul\":12230:12283   */\n      tag_228\n        /* \"#utility.yul\":12248:12282   */\n      tag_229\n        /* \"#utility.yul\":12257:12281   */\n      tag_230\n        /* \"#utility.yul\":12275:12280   */\n      dup5\n        /* \"#utility.yul\":12257:12281   */\n      tag_79\n      jump\t// in\n    tag_230:\n        /* \"#utility.yul\":12248:12282   */\n      tag_102\n      jump\t// in\n    tag_229:\n        /* \"#utility.yul\":12230:12283   */\n      tag_79\n      jump\t// in\n    tag_228:\n        /* \"#utility.yul\":12217:12283   */\n      swap1\n      pop\n        /* \"#utility.yul\":12147:12289   */\n      swap2\n      swap1\n      pop\n      jump\t// out\n        /* \"#utility.yul\":12295:12370   */\n    tag_104:\n        /* \"#utility.yul\":12338:12341   */\n      0x00\n        /* \"#utility.yul\":12359:12364   */\n      dup2\n        /* \"#utility.yul\":12352:12364   */\n      swap1\n      pop\n        /* \"#utility.yul\":12295:12370   */\n      swap2\n      swap1\n      pop\n      jump\t// out\n        /* \"#utility.yul\":12376:12645   */\n    tag_105:\n        /* \"#utility.yul\":12486:12525   */\n      tag_233\n        /* \"#utility.yul\":12517:12524   */\n      dup4\n        /* \"#utility.yul\":12486:12525   */\n      tag_103\n      jump\t// in\n    tag_233:\n        /* \"#utility.yul\":12547:12638   */\n      tag_234\n        /* \"#utility.yul\":12596:12637   */\n      tag_235\n        /* \"#utility.yul\":12620:12636   */\n      dup3\n        /* \"#utility.yul\":12596:12637   */\n      tag_104\n      jump\t// in\n    tag_235:\n        /* \"#utility.yul\":12588:12594   */\n      dup5\n        /* \"#utility.yul\":12581:12585   */\n      dup5\n        /* \"#utility.yul\":12575:12586   */\n      sload\n        /* \"#utility.yul\":12547:12638   */\n      tag_101\n      jump\t// in\n    tag_234:\n        /* \"#utility.yul\":12541:12545   */\n      dup3\n        /* \"#utility.yul\":12534:12639   */\n      sstore\n        /* \"#utility.yul\":12452:12645   */\n      pop\n        /* \"#utility.yul\":12376:12645   */\n      pop\n      pop\n      pop\n      jump\t// out\n        /* \"#utility.yul\":12651:12724   */\n    tag_106:\n        /* \"#utility.yul\":12696:12699   */\n      0x00\n        /* \"#utility.yul\":12717:12718   */\n      0x00\n        /* \"#utility.yul\":12710:12718   */\n      swap1\n      pop\n        /* \"#utility.yul\":12651:12724   */\n      swap1\n      jump\t// out\n        /* \"#utility.yul\":12730:12919   */\n    tag_107:\n        /* \"#utility.yul\":12807:12839   */\n      tag_238\n      tag_106\n      jump\t// in\n    tag_238:\n        /* \"#utility.yul\":12848:12913   */\n      tag_239\n        /* \"#utility.yul\":12906:12912   */\n      dup2\n        /* \"#utility.yul\":12898:12904   */\n      dup5\n        /* \"#utility.yul\":12892:12896   */\n      dup5\n        /* \"#utility.yul\":12848:12913   */\n      tag_105\n      jump\t// in\n    tag_239:\n        /* \"#utility.yul\":12783:12919   */\n      pop\n        /* \"#utility.yul\":12730:12919   */\n      pop\n      pop\n      jump\t// out\n        /* \"#utility.yul\":12925:13111   */\n    tag_108:\n        /* \"#utility.yul\":12985:13105   */\n    tag_241:\n        /* \"#utility.yul\":13002:13005   */\n      dup2\n        /* \"#utility.yul\":12995:13000   */\n      dup2\n        /* \"#utility.yul\":12992:13006   */\n      lt\n        /* \"#utility.yul\":12985:13105   */\n      iszero\n      tag_243\n      jumpi\n        /* \"#utility.yul\":13056:13095   */\n      tag_244\n        /* \"#utility.yul\":13093:13094   */\n      0x00\n        /* \"#utility.yul\":13086:13091   */\n      dup3\n        /* \"#utility.yul\":13056:13095   */\n      tag_107\n      jump\t// in\n    tag_244:\n        /* \"#utility.yul\":13029:13030   */\n      0x01\n        /* \"#utility.yul\":13022:13027   */\n      dup2\n        /* \"#utility.yul\":13018:13031   */\n      add\n        /* \"#utility.yul\":13009:13031   */\n      swap1\n      pop\n        /* \"#utility.yul\":12985:13105   */\n      jump(tag_241)\n    tag_243:\n        /* \"#utility.yul\":12925:13111   */\n      pop\n      pop\n      jump\t// out\n        /* \"#utility.yul\":13117:13660   */\n    tag_109:\n        /* \"#utility.yul\":13218:13220   */\n      0x1f\n        /* \"#utility.yul\":13213:13216   */\n      dup3\n        /* \"#utility.yul\":13210:13221   */\n      gt\n        /* \"#utility.yul\":13207:13653   */\n      iszero\n      tag_246\n      jumpi\n        /* \"#utility.yul\":13252:13290   */\n      tag_247\n        /* \"#utility.yul\":13284:13289   */\n      dup2\n        /* \"#utility.yul\":13252:13290   */\n      tag_98\n      jump\t// in\n    tag_247:\n        /* \"#utility.yul\":13336:13365   */\n      tag_248\n        /* \"#utility.yul\":13354:13364   */\n      dup5\n        /* \"#utility.yul\":13336:13365   */\n      tag_99\n      jump\t// in\n    tag_248:\n        /* \"#utility.yul\":13326:13334   */\n      dup2\n        /* \"#utility.yul\":13322:13366   */\n      add\n        /* \"#utility.yul\":13519:13521   */\n      0x20\n        /* \"#utility.yul\":13507:13517   */\n      dup6\n        /* \"#utility.yul\":13504:13522   */\n      lt\n        /* \"#utility.yul\":13501:13550   */\n      iszero\n      tag_249\n      jumpi\n        /* \"#utility.yul\":13540:13548   */\n      dup2\n        /* \"#utility.yul\":13525:13548   */\n      swap1\n      pop\n        /* \"#utility.yul\":13501:13550   */\n    tag_249:\n        /* \"#utility.yul\":13563:13643   */\n      tag_250\n        /* \"#utility.yul\":13619:13641   */\n      tag_251\n        /* \"#utility.yul\":13637:13640   */\n      dup6\n        /* \"#utility.yul\":13619:13641   */\n      tag_99\n      jump\t// in\n    tag_251:\n        /* \"#utility.yul\":13609:13617   */\n      dup4\n        /* \"#utility.yul\":13605:13642   */\n      add\n        /* \"#utility.yul\":13592:13603   */\n      dup3\n        /* \"#utility.yul\":13563:13643   */\n      tag_108\n      jump\t// in\n    tag_250:\n        /* \"#utility.yul\":13222:13653   */\n      pop\n      pop\n        /* \"#utility.yul\":13207:13653   */\n    tag_246:\n        /* \"#utility.yul\":13117:13660   */\n      pop\n      pop\n      pop\n      jump\t// out\n        /* \"#utility.yul\":13666:13783   */\n    tag_110:\n        /* \"#utility.yul\":13720:13728   */\n      0x00\n        /* \"#utility.yul\":13770:13775   */\n      dup3\n        /* \"#utility.yul\":13764:13768   */\n      dup3\n        /* \"#utility.yul\":13760:13776   */\n      shr\n        /* \"#utility.yul\":13739:13776   */\n      swap1\n      pop\n        /* \"#utility.yul\":13666:13783   */\n      swap3\n      swap2\n      pop\n      pop\n      jump\t// out\n        /* \"#utility.yul\":13789:13958   */\n    tag_111:\n        /* \"#utility.yul\":13833:13839   */\n      0x00\n        /* \"#utility.yul\":13866:13917   */\n      tag_254\n        /* \"#utility.yul\":13914:13915   */\n      0x00\n        /* \"#utility.yul\":13910:13916   */\n      not\n        /* \"#utility.yul\":13902:13907   */\n      dup5\n        /* \"#utility.yul\":13899:13900   */\n      0x08\n        /* \"#utility.yul\":13895:13908   */\n      mul\n        /* \"#utility.yul\":13866:13917   */\n      tag_110\n      jump\t// in\n    tag_254:\n        /* \"#utility.yul\":13862:13918   */\n      not\n        /* \"#utility.yul\":13947:13951   */\n      dup1\n        /* \"#utility.yul\":13941:13945   */\n      dup4\n        /* \"#utility.yul\":13937:13952   */\n      and\n        /* \"#utility.yul\":13927:13952   */\n      swap2\n      pop\n        /* \"#utility.yul\":13840:13958   */\n      pop\n        /* \"#utility.yul\":13789:13958   */\n      swap3\n      swap2\n      pop\n      pop\n      jump\t// out\n        /* \"#utility.yul\":13963:14258   */\n    tag_112:\n        /* \"#utility.yul\":14039:14043   */\n      0x00\n        /* \"#utility.yul\":14185:14214   */\n      tag_256\n        /* \"#utility.yul\":14210:14213   */\n      dup4\n        /* \"#utility.yul\":14204:14208   */\n      dup4\n        /* \"#utility.yul\":14185:14214   */\n      tag_111\n      jump\t// in\n    tag_256:\n        /* \"#utility.yul\":14177:14214   */\n      swap2\n      pop\n        /* \"#utility.yul\":14247:14250   */\n      dup3\n        /* \"#utility.yul\":14244:14245   */\n      0x02\n        /* \"#utility.yul\":14240:14251   */\n      mul\n        /* \"#utility.yul\":14234:14238   */\n      dup3\n        /* \"#utility.yul\":14231:14252   */\n      or\n        /* \"#utility.yul\":14223:14252   */\n      swap1\n      pop\n        /* \"#utility.yul\":13963:14258   */\n      swap3\n      swap2\n      pop\n      pop\n      jump\t// out\n        /* \"#utility.yul\":14263:15658   */\n    tag_23:\n        /* \"#utility.yul\":14380:14417   */\n      tag_258\n        /* \"#utility.yul\":14413:14416   */\n      dup3\n        /* \"#utility.yul\":14380:14417   */\n      tag_82\n      jump\t// in\n    tag_258:\n        /* \"#utility.yul\":14482:14500   */\n      0xffffffffffffffff\n        /* \"#utility.yul\":14474:14480   */\n      dup2\n        /* \"#utility.yul\":14471:14501   */\n      gt\n        /* \"#utility.yul\":14468:14524   */\n      iszero\n      tag_259\n      jumpi\n        /* \"#utility.yul\":14504:14522   */\n      tag_260\n      tag_72\n      jump\t// in\n    tag_260:\n        /* \"#utility.yul\":14468:14524   */\n    tag_259:\n        /* \"#utility.yul\":14548:14586   */\n      tag_261\n        /* \"#utility.yul\":14580:14584   */\n      dup3\n        /* \"#utility.yul\":14574:14585   */\n      sload\n        /* \"#utility.yul\":14548:14586   */\n      tag_32\n      jump\t// in\n    tag_261:\n        /* \"#utility.yul\":14633:14700   */\n      tag_262\n        /* \"#utility.yul\":14693:14699   */\n      dup3\n        /* \"#utility.yul\":14685:14691   */\n      dup3\n        /* \"#utility.yul\":14679:14683   */\n      dup6\n        /* \"#utility.yul\":14633:14700   */\n      tag_109\n      jump\t// in\n    tag_262:\n        /* \"#utility.yul\":14727:14728   */\n      0x00\n        /* \"#utility.yul\":14751:14755   */\n      0x20\n        /* \"#utility.yul\":14738:14755   */\n      swap1\n      pop\n        /* \"#utility.yul\":14783:14785   */\n      0x1f\n        /* \"#utility.yul\":14775:14781   */\n      dup4\n        /* \"#utility.yul\":14772:14786   */\n      gt\n        /* \"#utility.yul\":14800:14801   */\n      0x01\n        /* \"#utility.yul\":14795:15413   */\n      dup2\n      eq\n      tag_264\n      jumpi\n        /* \"#utility.yul\":15457:15458   */\n      0x00\n        /* \"#utility.yul\":15474:15480   */\n      dup5\n        /* \"#utility.yul\":15471:15548   */\n      iszero\n      tag_265\n      jumpi\n        /* \"#utility.yul\":15523:15532   */\n      dup3\n        /* \"#utility.yul\":15518:15521   */\n      dup8\n        /* \"#utility.yul\":15514:15533   */\n      add\n        /* \"#utility.yul\":15508:15534   */\n      mload\n        /* \"#utility.yul\":15499:15534   */\n      swap1\n      pop\n        /* \"#utility.yul\":15471:15548   */\n    tag_265:\n        /* \"#utility.yul\":15574:15641   */\n      tag_266\n        /* \"#utility.yul\":15634:15640   */\n      dup6\n        /* \"#utility.yul\":15627:15632   */\n      dup3\n        /* \"#utility.yul\":15574:15641   */\n      tag_112\n      jump\t// in\n    tag_266:\n        /* \"#utility.yul\":15568:15572   */\n      dup7\n        /* \"#utility.yul\":15561:15642   */\n      sstore\n        /* \"#utility.yul\":15430:15652   */\n      pop\n        /* \"#utility.yul\":14765:15652   */\n      jump(tag_263)\n        /* \"#utility.yul\":14795:15413   */\n    tag_264:\n        /* \"#utility.yul\":14847:14851   */\n      0x1f\n        /* \"#utility.yul\":14843:14852   */\n      not\n        /* \"#utility.yul\":14835:14841   */\n      dup5\n        /* \"#utility.yul\":14831:14853   */\n      and\n        /* \"#utility.yul\":14881:14918   */\n      tag_267\n        /* \"#utility.yul\":14913:14917   */\n      dup7\n        /* \"#utility.yul\":14881:14918   */\n      tag_98\n      jump\t// in\n    tag_267:\n        /* \"#utility.yul\":14940:14941   */\n      0x00\n        /* \"#utility.yul\":14954:15162   */\n    tag_268:\n        /* \"#utility.yul\":14968:14975   */\n      dup3\n        /* \"#utility.yul\":14965:14966   */\n      dup2\n        /* \"#utility.yul\":14962:14976   */\n      lt\n        /* \"#utility.yul\":14954:15162   */\n      iszero\n      tag_270\n      jumpi\n        /* \"#utility.yul\":15047:15056   */\n      dup5\n        /* \"#utility.yul\":15042:15045   */\n      dup10\n        /* \"#utility.yul\":15038:15057   */\n      add\n        /* \"#utility.yul\":15032:15058   */\n      mload\n        /* \"#utility.yul\":15024:15030   */\n      dup3\n        /* \"#utility.yul\":15017:15059   */\n      sstore\n        /* \"#utility.yul\":15098:15099   */\n      0x01\n        /* \"#utility.yul\":15090:15096   */\n      dup3\n        /* \"#utility.yul\":15086:15100   */\n      add\n        /* \"#utility.yul\":15076:15100   */\n      swap2\n      pop\n        /* \"#utility.yul\":15145:15147   */\n      0x20\n        /* \"#utility.yul\":15134:15143   */\n      dup6\n        /* \"#utility.yul\":15130:15148   */\n      add\n        /* \"#utility.yul\":15117:15148   */\n      swap5\n      pop\n        /* \"#utility.yul\":14991:14995   */\n      0x20\n        /* \"#utility.yul\":14988:14989   */\n      dup2\n        /* \"#utility.yul\":14984:14996   */\n      add\n        /* \"#utility.yul\":14979:14996   */\n      swap1\n      pop\n        /* \"#utility.yul\":14954:15162   */\n      jump(tag_268)\n    tag_270:\n        /* \"#utility.yul\":15190:15196   */\n      dup7\n        /* \"#utility.yul\":15181:15188   */\n      dup4\n        /* \"#utility.yul\":15178:15197   */\n      lt\n        /* \"#utility.yul\":15175:15354   */\n      iszero\n      tag_271\n      jumpi\n        /* \"#utility.yul\":15248:15257   */\n      dup5\n        /* \"#utility.yul\":15243:15246   */\n      dup10\n        /* \"#utility.yul\":15239:15258   */\n      add\n        /* \"#utility.yul\":15233:15259   */\n      mload\n        /* \"#utility.yul\":15291:15339   */\n      tag_272\n        /* \"#utility.yul\":15333:15337   */\n      0x1f\n        /* \"#utility.yul\":15325:15331   */\n      dup10\n        /* \"#utility.yul\":15321:15338   */\n      and\n        /* \"#utility.yul\":15310:15319   */\n      dup3\n        /* \"#utility.yul\":15291:15339   */\n      tag_111\n      jump\t// in\n    tag_272:\n        /* \"#utility.yul\":15283:15289   */\n      dup4\n        /* \"#utility.yul\":15276:15340   */\n      sstore\n        /* \"#utility.yul\":15198:15354   */\n      pop\n        /* \"#utility.yul\":15175:15354   */\n    tag_271:\n        /* \"#utility.yul\":15400:15401   */\n      0x01\n        /* \"#utility.yul\":15396:15397   */\n      0x02\n        /* \"#utility.yul\":15388:15394   */\n      dup9\n        /* \"#utility.yul\":15384:15398   */\n      mul\n        /* \"#utility.yul\":15380:15402   */\n      add\n        /* \"#utility.yul\":15374:15378   */\n      dup9\n        /* \"#utility.yul\":15367:15403   */\n      sstore\n        /* \"#utility.yul\":14802:15413   */\n      pop\n      pop\n      pop\n        /* \"#utility.yul\":14765:15652   */\n    tag_263:\n      pop\n        /* \"#utility.yul\":14355:15658   */\n      pop\n      pop\n      pop\n        /* \"#utility.yul\":14263:15658   */\n      pop\n      pop\n      jump\t// out\n        /* \"#utility.yul\":15664:15812   */\n    tag_113:\n        /* \"#utility.yul\":15766:15777   */\n      0x00\n        /* \"#utility.yul\":15803:15806   */\n      dup2\n        /* \"#utility.yul\":15788:15806   */\n      swap1\n      pop\n        /* \"#utility.yul\":15664:15812   */\n      swap3\n      swap2\n      pop\n      pop\n      jump\t// out\n        /* \"#utility.yul\":15818:16208   */\n    tag_114:\n        /* \"#utility.yul\":15924:15927   */\n      0x00\n        /* \"#utility.yul\":15952:15991   */\n      tag_275\n        /* \"#utility.yul\":15985:15990   */\n      dup3\n        /* \"#utility.yul\":15952:15991   */\n      tag_82\n      jump\t// in\n    tag_275:\n        /* \"#utility.yul\":16007:16096   */\n      tag_276\n        /* \"#utility.yul\":16089:16095   */\n      dup2\n        /* \"#utility.yul\":16084:16087   */\n      dup6\n        /* \"#utility.yul\":16007:16096   */\n      tag_113\n      jump\t// in\n    tag_276:\n        /* \"#utility.yul\":16000:16096   */\n      swap4\n      pop\n        /* \"#utility.yul\":16105:16170   */\n      tag_277\n        /* \"#utility.yul\":16163:16169   */\n      dup2\n        /* \"#utility.yul\":16158:16161   */\n      dup6\n        /* \"#utility.yul\":16151:16155   */\n      0x20\n        /* \"#utility.yul\":16144:16149   */\n      dup7\n        /* \"#utility.yul\":16140:16156   */\n      add\n        /* \"#utility.yul\":16105:16170   */\n      tag_84\n      jump\t// in\n    tag_277:\n        /* \"#utility.yul\":16195:16201   */\n      dup1\n        /* \"#utility.yul\":16190:16193   */\n      dup5\n        /* \"#utility.yul\":16186:16202   */\n      add\n        /* \"#utility.yul\":16179:16202   */\n      swap2\n      pop\n        /* \"#utility.yul\":15928:16208   */\n      pop\n        /* \"#utility.yul\":15818:16208   */\n      swap3\n      swap2\n      pop\n      pop\n      jump\t// out\n        /* \"#utility.yul\":16214:16489   */\n    tag_27:\n        /* \"#utility.yul\":16346:16349   */\n      0x00\n        /* \"#utility.yul\":16368:16463   */\n      tag_279\n        /* \"#utility.yul\":16459:16462   */\n      dup3\n        /* \"#utility.yul\":16450:16456   */\n      dup5\n        /* \"#utility.yul\":16368:16463   */\n      tag_114\n      jump\t// in\n    tag_279:\n        /* \"#utility.yul\":16361:16463   */\n      swap2\n      pop\n        /* \"#utility.yul\":16480:16483   */\n      dup2\n        /* \"#utility.yul\":16473:16483   */\n      swap1\n      pop\n        /* \"#utility.yul\":16214:16489   */\n      swap3\n      swap2\n      pop\n      pop\n      jump\t// out\n\n    auxdata: 0xa26469706673582212209513894b5079dd3ab37a1746b719b73bb4eaffa095db9aba4656abc2b281569864736f6c634300081f0033\n}\n",
				"bytecode": {
					"linkReferences": {},
					"object": "6080604052348015600e575f5ffd5b50610ddd8061001c5f395ff3fe608060405234801561000f575f5ffd5b506004361061003f575f3560e01c8063904ae8ad14610043578063981d6c331461005f578063cc12647914610092575b5f5ffd5b61005d60048036038101906100589190610725565b6100b0565b005b610079600480360381019061007491906107dd565b6101bb565b6040516100899493929190610893565b60405180910390f35b61009a610391565b6040516100a79190610a6b565b60405180910390f35b5f60405180608001604052808681526020018481526020018581526020018381525090505f81908060018154018082558091505060019003905f5260205f2090600402015f909190919091505f820151815f01908161010f9190610c88565b5060208201518160010155604082015181600201908161012f9190610c88565b5060608201518160030190816101459190610c88565b505050806001856040516101599190610d91565b90815260200160405180910390205f820151815f01908161017a9190610c88565b5060208201518160010155604082015181600201908161019a9190610c88565b5060608201518160030190816101b09190610c88565b509050505050505050565b6001818051602081018201805184825260208301602085012081835280955050505050505f91509050805f0180546101f290610ab8565b80601f016020809104026020016040519081016040528092919081815260200182805461021e90610ab8565b80156102695780601f1061024057610100808354040283529160200191610269565b820191905f5260205f20905b81548152906001019060200180831161024c57829003601f168201915b50505050509080600101549080600201805461028490610ab8565b80601f01602080910402602001604051908101604052809291908181526020018280546102b090610ab8565b80156102fb5780601f106102d2576101008083540402835291602001916102fb565b820191905f5260205f20905b8154815290600101906020018083116102de57829003601f168201915b50505050509080600301805461031090610ab8565b80601f016020809104026020016040519081016040528092919081815260200182805461033c90610ab8565b80156103875780601f1061035e57610100808354040283529160200191610387565b820191905f5260205f20905b81548152906001019060200180831161036a57829003601f168201915b5050505050905084565b60605f805480602002602001604051908101604052809291908181526020015f905b8282101561059c578382905f5260205f2090600402016040518060800160405290815f820180546103e390610ab8565b80601f016020809104026020016040519081016040528092919081815260200182805461040f90610ab8565b801561045a5780601f106104315761010080835404028352916020019161045a565b820191905f5260205f20905b81548152906001019060200180831161043d57829003601f168201915b505050505081526020016001820154815260200160028201805461047d90610ab8565b80601f01602080910402602001604051908101604052809291908181526020018280546104a990610ab8565b80156104f45780601f106104cb576101008083540402835291602001916104f4565b820191905f5260205f20905b8154815290600101906020018083116104d757829003601f168201915b5050505050815260200160038201805461050d90610ab8565b80601f016020809104026020016040519081016040528092919081815260200182805461053990610ab8565b80156105845780601f1061055b57610100808354040283529160200191610584565b820191905f5260205f20905b81548152906001019060200180831161056757829003601f168201915b505050505081525050815260200190600101906103b3565b50505050905090565b5f604051905090565b5f5ffd5b5f5ffd5b5f5ffd5b5f5ffd5b5f601f19601f8301169050919050565b7f4e487b71000000000000000000000000000000000000000000000000000000005f52604160045260245ffd5b610604826105be565b810181811067ffffffffffffffff82111715610623576106226105ce565b5b80604052505050565b5f6106356105a5565b905061064182826105fb565b919050565b5f67ffffffffffffffff8211156106605761065f6105ce565b5b610669826105be565b9050602081019050919050565b828183375f83830152505050565b5f61069661069184610646565b61062c565b9050828152602081018484840111156106b2576106b16105ba565b5b6106bd848285610676565b509392505050565b5f82601f8301126106d9576106d86105b6565b5b81356106e9848260208601610684565b91505092915050565b5f819050919050565b610704816106f2565b811461070e575f5ffd5b50565b5f8135905061071f816106fb565b92915050565b5f5f5f5f6080858703121561073d5761073c6105ae565b5b5f85013567ffffffffffffffff81111561075a576107596105b2565b5b610766878288016106c5565b945050602085013567ffffffffffffffff811115610787576107866105b2565b5b610793878288016106c5565b93505060406107a487828801610711565b925050606085013567ffffffffffffffff8111156107c5576107c46105b2565b5b6107d1878288016106c5565b91505092959194509250565b5f602082840312156107f2576107f16105ae565b5b5f82013567ffffffffffffffff81111561080f5761080e6105b2565b5b61081b848285016106c5565b91505092915050565b5f81519050919050565b5f82825260208201905092915050565b8281835e5f83830152505050565b5f61085682610824565b610860818561082e565b935061087081856020860161083e565b610879816105be565b840191505092915050565b61088d816106f2565b82525050565b5f6080820190508181035f8301526108ab818761084c565b90506108ba6020830186610884565b81810360408301526108cc818561084c565b905081810360608301526108e0818461084c565b905095945050505050565b5f81519050919050565b5f82825260208201905092915050565b5f819050602082019050919050565b5f82825260208201905092915050565b5f61092e82610824565b6109388185610914565b935061094881856020860161083e565b610951816105be565b840191505092915050565b610965816106f2565b82525050565b5f608083015f8301518482035f8601526109858282610924565b915050602083015161099a602086018261095c565b50604083015184820360408601526109b28282610924565b915050606083015184820360608601526109cc8282610924565b9150508091505092915050565b5f6109e4838361096b565b905092915050565b5f602082019050919050565b5f610a02826108eb565b610a0c81856108f5565b935083602082028501610a1e85610905565b805f5b85811015610a595784840389528151610a3a85826109d9565b9450610a45836109ec565b925060208a01995050600181019050610a21565b50829750879550505050505092915050565b5f6020820190508181035f830152610a8381846109f8565b905092915050565b7f4e487b71000000000000000000000000000000000000000000000000000000005f52602260045260245ffd5b5f6002820490506001821680610acf57607f821691505b602082108103610ae257610ae1610a8b565b5b50919050565b5f819050815f5260205f209050919050565b5f6020601f8301049050919050565b5f82821b905092915050565b5f60088302610b447fffffffffffffffffffffffffffffffffffffffffffffffffffffffffffffffff82610b09565b610b4e8683610b09565b95508019841693508086168417925050509392505050565b5f819050919050565b5f610b89610b84610b7f846106f2565b610b66565b6106f2565b9050919050565b5f819050919050565b610ba283610b6f565b610bb6610bae82610b90565b848454610b15565b825550505050565b5f5f905090565b610bcd610bbe565b610bd8818484610b99565b505050565b5b81811015610bfb57610bf05f82610bc5565b600181019050610bde565b5050565b601f821115610c4057610c1181610ae8565b610c1a84610afa565b81016020851015610c29578190505b610c3d610c3585610afa565b830182610bdd565b50505b505050565b5f82821c905092915050565b5f610c605f1984600802610c45565b1980831691505092915050565b5f610c788383610c51565b9150826002028217905092915050565b610c9182610824565b67ffffffffffffffff811115610caa57610ca96105ce565b5b610cb48254610ab8565b610cbf828285610bff565b5f60209050601f831160018114610cf0575f8415610cde578287015190505b610ce88582610c6d565b865550610d4f565b601f198416610cfe86610ae8565b5f5b82811015610d2557848901518255600182019150602085019450602081019050610d00565b86831015610d425784890151610d3e601f891682610c51565b8355505b6001600288020188555050505b505050505050565b5f81905092915050565b5f610d6b82610824565b610d758185610d57565b9350610d8581856020860161083e565b80840191505092915050565b5f610d9c8284610d61565b91508190509291505056fea26469706673582212209513894b5079dd3ab37a1746b719b73bb4eaffa095db9aba4656abc2b281569864736f6c634300081f0033",
					"opcodes": "PUSH1 0x80 PUSH1 0x40 MSTORE CALLVALUE DUP1 ISZERO PUSH1 0xE JUMPI PUSH0 PUSH0 REVERT JUMPDEST POP PUSH2 0xDDD DUP1 PUSH2 0x1C PUSH0 CODECOPY PUSH0 RETURN INVALID PUSH1 0x80 PUSH1 0x40 MSTORE CALLVALUE DUP1 ISZERO PUSH2 0xF JUMPI PUSH0 PUSH0 REVERT JUMPDEST POP PUSH1 0x4 CALLDATASIZE LT PUSH2 0x3F JUMPI PUSH0 CALLDATALOAD PUSH1 0xE0 SHR DUP1 PUSH4 0x904AE8AD EQ PUSH2 0x43 JUMPI DUP1 PUSH4 0x981D6C33 EQ PUSH2 0x5F JUMPI DUP1 PUSH4 0xCC126479 EQ PUSH2 0x92 JUMPI JUMPDEST PUSH0 PUSH0 REVERT JUMPDEST PUSH2 0x5D PUSH1 0x4 DUP1 CALLDATASIZE SUB DUP2 ADD SWAP1 PUSH2 0x58 SWAP2 SWAP1 PUSH2 0x725 JUMP JUMPDEST PUSH2 0xB0 JUMP JUMPDEST STOP JUMPDEST PUSH2 0x79 PUSH1 0x4 DUP1 CALLDATASIZE SUB DUP2 ADD SWAP1 PUSH2 0x74 SWAP2 SWAP1 PUSH2 0x7DD JUMP JUMPDEST PUSH2 0x1BB JUMP JUMPDEST PUSH1 0x40 MLOAD PUSH2 0x89 SWAP5 SWAP4 SWAP3 SWAP2 SWAP1 PUSH2 0x893 JUMP JUMPDEST PUSH1 0x40 MLOAD DUP1 SWAP2 SUB SWAP1 RETURN JUMPDEST PUSH2 0x9A PUSH2 0x391 JUMP JUMPDEST PUSH1 0x40 MLOAD PUSH2 0xA7 SWAP2 SWAP1 PUSH2 0xA6B JUMP JUMPDEST PUSH1 0x40 MLOAD DUP1 SWAP2 SUB SWAP1 RETURN JUMPDEST PUSH0 PUSH1 0x40 MLOAD DUP1 PUSH1 0x80 ADD PUSH1 0x40 MSTORE DUP1 DUP7 DUP2 MSTORE PUSH1 0x20 ADD DUP5 DUP2 MSTORE PUSH1 0x20 ADD DUP6 DUP2 MSTORE PUSH1 0x20 ADD DUP4 DUP2 MSTORE POP SWAP1 POP PUSH0 DUP2 SWAP1 DUP1 PUSH1 0x1 DUP2 SLOAD ADD DUP1 DUP3 SSTORE DUP1 SWAP2 POP POP PUSH1 0x1 SWAP1 SUB SWAP1 PUSH0 MSTORE PUSH1 0x20 PUSH0 KECCAK256 SWAP1 PUSH1 0x4 MUL ADD PUSH0 SWAP1 SWAP2 SWAP1 SWAP2 SWAP1 SWAP2 POP PUSH0 DUP3 ADD MLOAD DUP2 PUSH0 ADD SWAP1 DUP2 PUSH2 0x10F SWAP2 SWAP1 PUSH2 0xC88 JUMP JUMPDEST POP PUSH1 0x20 DUP3 ADD MLOAD DUP2 PUSH1 0x1 ADD SSTORE PUSH1 0x40 DUP3 ADD MLOAD DUP2 PUSH1 0x2 ADD SWAP1 DUP2 PUSH2 0x12F SWAP2 SWAP1 PUSH2 0xC88 JUMP JUMPDEST POP PUSH1 0x60 DUP3 ADD MLOAD DUP2 PUSH1 0x3 ADD SWAP1 DUP2 PUSH2 0x145 SWAP2 SWAP1 PUSH2 0xC88 JUMP JUMPDEST POP POP POP DUP1 PUSH1 0x1 DUP6 PUSH1 0x40 MLOAD PUSH2 0x159 SWAP2 SWAP1 PUSH2 0xD91 JUMP JUMPDEST SWAP1 DUP2 MSTORE PUSH1 0x20 ADD PUSH1 0x40 MLOAD DUP1 SWAP2 SUB SWAP1 KECCAK256 PUSH0 DUP3 ADD MLOAD DUP2 PUSH0 ADD SWAP1 DUP2 PUSH2 0x17A SWAP2 SWAP1 PUSH2 0xC88 JUMP JUMPDEST POP PUSH1 0x20 DUP3 ADD MLOAD DUP2 PUSH1 0x1 ADD SSTORE PUSH1 0x40 DUP3 ADD MLOAD DUP2 PUSH1 0x2 ADD SWAP1 DUP2 PUSH2 0x19A SWAP2 SWAP1 PUSH2 0xC88 JUMP JUMPDEST POP PUSH1 0x60 DUP3 ADD MLOAD DUP2 PUSH1 0x3 ADD SWAP1 DUP2 PUSH2 0x1B0 SWAP2 SWAP1 PUSH2 0xC88 JUMP JUMPDEST POP SWAP1 POP POP POP POP POP POP POP JUMP JUMPDEST PUSH1 0x1 DUP2 DUP1 MLOAD PUSH1 0x20 DUP2 ADD DUP3 ADD DUP1 MLOAD DUP5 DUP3 MSTORE PUSH1 0x20 DUP4 ADD PUSH1 0x20 DUP6 ADD KECCAK256 DUP2 DUP4 MSTORE DUP1 SWAP6 POP POP POP POP POP POP PUSH0 SWAP2 POP SWAP1 POP DUP1 PUSH0 ADD DUP1 SLOAD PUSH2 0x1F2 SWAP1 PUSH2 0xAB8 JUMP JUMPDEST DUP1 PUSH1 0x1F ADD PUSH1 0x20 DUP1 SWAP2 DIV MUL PUSH1 0x20 ADD PUSH1 0x40 MLOAD SWAP1 DUP2 ADD PUSH1 0x40 MSTORE DUP1 SWAP3 SWAP2 SWAP1 DUP2 DUP2 MSTORE PUSH1 0x20 ADD DUP3 DUP1 SLOAD PUSH2 0x21E SWAP1 PUSH2 0xAB8 JUMP JUMPDEST DUP1 ISZERO PUSH2 0x269 JUMPI DUP1 PUSH1 0x1F LT PUSH2 0x240 JUMPI PUSH2 0x100 DUP1 DUP4 SLOAD DIV MUL DUP4 MSTORE SWAP2 PUSH1 0x20 ADD SWAP2 PUSH2 0x269 JUMP JUMPDEST DUP3 ADD SWAP2 SWAP1 PUSH0 MSTORE PUSH1 0x20 PUSH0 KECCAK256 SWAP1 JUMPDEST DUP2 SLOAD DUP2 MSTORE SWAP1 PUSH1 0x1 ADD SWAP1 PUSH1 0x20 ADD DUP1 DUP4 GT PUSH2 0x24C JUMPI DUP3 SWAP1 SUB PUSH1 0x1F AND DUP3 ADD SWAP2 JUMPDEST POP POP POP POP POP SWAP1 DUP1 PUSH1 0x1 ADD SLOAD SWAP1 DUP1 PUSH1 0x2 ADD DUP1 SLOAD PUSH2 0x284 SWAP1 PUSH2 0xAB8 JUMP JUMPDEST DUP1 PUSH1 0x1F ADD PUSH1 0x20 DUP1 SWAP2 DIV MUL PUSH1 0x20 ADD PUSH1 0x40 MLOAD SWAP1 DUP2 ADD PUSH1 0x40 MSTORE DUP1 SWAP3 SWAP2 SWAP1 DUP2 DUP2 MSTORE PUSH1 0x20 ADD DUP3 DUP1 SLOAD PUSH2 0x2B0 SWAP1 PUSH2 0xAB8 JUMP JUMPDEST DUP1 ISZERO PUSH2 0x2FB JUMPI DUP1 PUSH1 0x1F LT PUSH2 0x2D2 JUMPI PUSH2 0x100 DUP1 DUP4 SLOAD DIV MUL DUP4 MSTORE SWAP2 PUSH1 0x20 ADD SWAP2 PUSH2 0x2FB JUMP JUMPDEST DUP3 ADD SWAP2 SWAP1 PUSH0 MSTORE PUSH1 0x20 PUSH0 KECCAK256 SWAP1 JUMPDEST DUP2 SLOAD DUP2 MSTORE SWAP1 PUSH1 0x1 ADD SWAP1 PUSH1 0x20 ADD DUP1 DUP4 GT PUSH2 0x2DE JUMPI DUP3 SWAP1 SUB PUSH1 0x1F AND DUP3 ADD SWAP2 JUMPDEST POP POP POP POP POP SWAP1 DUP1 PUSH1 0x3 ADD DUP1 SLOAD PUSH2 0x310 SWAP1 PUSH2 0xAB8 JUMP JUMPDEST DUP1 PUSH1 0x1F ADD PUSH1 0x20 DUP1 SWAP2 DIV MUL PUSH1 0x20 ADD PUSH1 0x40 MLOAD SWAP1 DUP2 ADD PUSH1 0x40 MSTORE DUP1 SWAP3 SWAP2 SWAP1 DUP2 DUP2 MSTORE PUSH1 0x20 ADD DUP3 DUP1 SLOAD PUSH2 0x33C SWAP1 PUSH2 0xAB8 JUMP JUMPDEST DUP1 ISZERO PUSH2 0x387 JUMPI DUP1 PUSH1 0x1F LT PUSH2 0x35E JUMPI PUSH2 0x100 DUP1 DUP4 SLOAD DIV MUL DUP4 MSTORE SWAP2 PUSH1 0x20 ADD SWAP2 PUSH2 0x387 JUMP JUMPDEST DUP3 ADD SWAP2 SWAP1 PUSH0 MSTORE PUSH1 0x20 PUSH0 KECCAK256 SWAP1 JUMPDEST DUP2 SLOAD DUP2 MSTORE SWAP1 PUSH1 0x1 ADD SWAP1 PUSH1 0x20 ADD DUP1 DUP4 GT PUSH2 0x36A JUMPI DUP3 SWAP1 SUB PUSH1 0x1F AND DUP3 ADD SWAP2 JUMPDEST POP POP POP POP POP SWAP1 POP DUP5 JUMP JUMPDEST PUSH1 0x60 PUSH0 DUP1 SLOAD DUP1 PUSH1 0x20 MUL PUSH1 0x20 ADD PUSH1 0x40 MLOAD SWAP1 DUP2 ADD PUSH1 0x40 MSTORE DUP1 SWAP3 SWAP2 SWAP1 DUP2 DUP2 MSTORE PUSH1 0x20 ADD PUSH0 SWAP1 JUMPDEST DUP3 DUP3 LT ISZERO PUSH2 0x59C JUMPI DUP4 DUP3 SWAP1 PUSH0 MSTORE PUSH1 0x20 PUSH0 KECCAK256 SWAP1 PUSH1 0x4 MUL ADD PUSH1 0x40 MLOAD DUP1 PUSH1 0x80 ADD PUSH1 0x40 MSTORE SWAP1 DUP2 PUSH0 DUP3 ADD DUP1 SLOAD PUSH2 0x3E3 SWAP1 PUSH2 0xAB8 JUMP JUMPDEST DUP1 PUSH1 0x1F ADD PUSH1 0x20 DUP1 SWAP2 DIV MUL PUSH1 0x20 ADD PUSH1 0x40 MLOAD SWAP1 DUP2 ADD PUSH1 0x40 MSTORE DUP1 SWAP3 SWAP2 SWAP1 DUP2 DUP2 MSTORE PUSH1 0x20 ADD DUP3 DUP1 SLOAD PUSH2 0x40F SWAP1 PUSH2 0xAB8 JUMP JUMPDEST DUP1 ISZERO PUSH2 0x45A JUMPI DUP1 PUSH1 0x1F LT PUSH2 0x431 JUMPI PUSH2 0x100 DUP1 DUP4 SLOAD DIV MUL DUP4 MSTORE SWAP2 PUSH1 0x20 ADD SWAP2 PUSH2 0x45A JUMP JUMPDEST DUP3 ADD SWAP2 SWAP1 PUSH0 MSTORE PUSH1 0x20 PUSH0 KECCAK256 SWAP1 JUMPDEST DUP2 SLOAD DUP2 MSTORE SWAP1 PUSH1 0x1 ADD SWAP1 PUSH1 0x20 ADD DUP1 DUP4 GT PUSH2 0x43D JUMPI DUP3 SWAP1 SUB PUSH1 0x1F AND DUP3 ADD SWAP2 JUMPDEST POP POP POP POP POP DUP2 MSTORE PUSH1 0x20 ADD PUSH1 0x1 DUP3 ADD SLOAD DUP2 MSTORE PUSH1 0x20 ADD PUSH1 0x2 DUP3 ADD DUP1 SLOAD PUSH2 0x47D SWAP1 PUSH2 0xAB8 JUMP JUMPDEST DUP1 PUSH1 0x1F ADD PUSH1 0x20 DUP1 SWAP2 DIV MUL PUSH1 0x20 ADD PUSH1 0x40 MLOAD SWAP1 DUP2 ADD PUSH1 0x40 MSTORE DUP1 SWAP3 SWAP2 SWAP1 DUP2 DUP2 MSTORE PUSH1 0x20 ADD DUP3 DUP1 SLOAD PUSH2 0x4A9 SWAP1 PUSH2 0xAB8 JUMP JUMPDEST DUP1 ISZERO PUSH2 0x4F4 JUMPI DUP1 PUSH1 0x1F LT PUSH2 0x4CB JUMPI PUSH2 0x100 DUP1 DUP4 SLOAD DIV MUL DUP4 MSTORE SWAP2 PUSH1 0x20 ADD SWAP2 PUSH2 0x4F4 JUMP JUMPDEST DUP3 ADD SWAP2 SWAP1 PUSH0 MSTORE PUSH1 0x20 PUSH0 KECCAK256 SWAP1 JUMPDEST DUP2 SLOAD DUP2 MSTORE SWAP1 PUSH1 0x1 ADD SWAP1 PUSH1 0x20 ADD DUP1 DUP4 GT PUSH2 0x4D7 JUMPI DUP3 SWAP1 SUB PUSH1 0x1F AND DUP3 ADD SWAP2 JUMPDEST POP POP POP POP POP DUP2 MSTORE PUSH1 0x20 ADD PUSH1 0x3 DUP3 ADD DUP1 SLOAD PUSH2 0x50D SWAP1 PUSH2 0xAB8 JUMP JUMPDEST DUP1 PUSH1 0x1F ADD PUSH1 0x20 DUP1 SWAP2 DIV MUL PUSH1 0x20 ADD PUSH1 0x40 MLOAD SWAP1 DUP2 ADD PUSH1 0x40 MSTORE DUP1 SWAP3 SWAP2 SWAP1 DUP2 DUP2 MSTORE PUSH1 0x20 ADD DUP3 DUP1 SLOAD PUSH2 0x539 SWAP1 PUSH2 0xAB8 JUMP JUMPDEST DUP1 ISZERO PUSH2 0x584 JUMPI DUP1 PUSH1 0x1F LT PUSH2 0x55B JUMPI PUSH2 0x100 DUP1 DUP4 SLOAD DIV MUL DUP4 MSTORE SWAP2 PUSH1 0x20 ADD SWAP2 PUSH2 0x584 JUMP JUMPDEST DUP3 ADD SWAP2 SWAP1 PUSH0 MSTORE PUSH1 0x20 PUSH0 KECCAK256 SWAP1 JUMPDEST DUP2 SLOAD DUP2 MSTORE SWAP1 PUSH1 0x1 ADD SWAP1 PUSH1 0x20 ADD DUP1 DUP4 GT PUSH2 0x567 JUMPI DUP3 SWAP1 SUB PUSH1 0x1F AND DUP3 ADD SWAP2 JUMPDEST POP POP POP POP POP DUP2 MSTORE POP POP DUP2 MSTORE PUSH1 0x20 ADD SWAP1 PUSH1 0x1 ADD SWAP1 PUSH2 0x3B3 JUMP JUMPDEST POP POP POP POP SWAP1 POP SWAP1 JUMP JUMPDEST PUSH0 PUSH1 0x40 MLOAD SWAP1 POP SWAP1 JUMP JUMPDEST PUSH0 PUSH0 REVERT JUMPDEST PUSH0 PUSH0 REVERT JUMPDEST PUSH0 PUSH0 REVERT JUMPDEST PUSH0 PUSH0 REVERT JUMPDEST PUSH0 PUSH1 0x1F NOT PUSH1 0x1F DUP4 ADD AND SWAP1 POP SWAP2 SWAP1 POP JUMP JUMPDEST PUSH32 0x4E487B7100000000000000000000000000000000000000000000000000000000 PUSH0 MSTORE PUSH1 0x41 PUSH1 0x4 MSTORE PUSH1 0x24 PUSH0 REVERT JUMPDEST PUSH2 0x604 DUP3 PUSH2 0x5BE JUMP JUMPDEST DUP2 ADD DUP2 DUP2 LT PUSH8 0xFFFFFFFFFFFFFFFF DUP3 GT OR ISZERO PUSH2 0x623 JUMPI PUSH2 0x622 PUSH2 0x5CE JUMP JUMPDEST JUMPDEST DUP1 PUSH1 0x40 MSTORE POP POP POP JUMP JUMPDEST PUSH0 PUSH2 0x635 PUSH2 0x5A5 JUMP JUMPDEST SWAP1 POP PUSH2 0x641 DUP3 DUP3 PUSH2 0x5FB JUMP JUMPDEST SWAP2 SWAP1 POP JUMP JUMPDEST PUSH0 PUSH8 0xFFFFFFFFFFFFFFFF DUP3 GT ISZERO PUSH2 0x660 JUMPI PUSH2 0x65F PUSH2 0x5CE JUMP JUMPDEST JUMPDEST PUSH2 0x669 DUP3 PUSH2 0x5BE JUMP JUMPDEST SWAP1 POP PUSH1 0x20 DUP2 ADD SWAP1 POP SWAP2 SWAP1 POP JUMP JUMPDEST DUP3 DUP2 DUP4 CALLDATACOPY PUSH0 DUP4 DUP4 ADD MSTORE POP POP POP JUMP JUMPDEST PUSH0 PUSH2 0x696 PUSH2 0x691 DUP5 PUSH2 0x646 JUMP JUMPDEST PUSH2 0x62C JUMP JUMPDEST SWAP1 POP DUP3 DUP2 MSTORE PUSH1 0x20 DUP2 ADD DUP5 DUP5 DUP5 ADD GT ISZERO PUSH2 0x6B2 JUMPI PUSH2 0x6B1 PUSH2 0x5BA JUMP JUMPDEST JUMPDEST PUSH2 0x6BD DUP5 DUP3 DUP6 PUSH2 0x676 JUMP JUMPDEST POP SWAP4 SWAP3 POP POP POP JUMP JUMPDEST PUSH0 DUP3 PUSH1 0x1F DUP4 ADD SLT PUSH2 0x6D9 JUMPI PUSH2 0x6D8 PUSH2 0x5B6 JUMP JUMPDEST JUMPDEST DUP2 CALLDATALOAD PUSH2 0x6E9 DUP5 DUP3 PUSH1 0x20 DUP7 ADD PUSH2 0x684 JUMP JUMPDEST SWAP2 POP POP SWAP3 SWAP2 POP POP JUMP JUMPDEST PUSH0 DUP2 SWAP1 POP SWAP2 SWAP1 POP JUMP JUMPDEST PUSH2 0x704 DUP2 PUSH2 0x6F2 JUMP JUMPDEST DUP2 EQ PUSH2 0x70E JUMPI PUSH0 PUSH0 REVERT JUMPDEST POP JUMP JUMPDEST PUSH0 DUP2 CALLDATALOAD SWAP1 POP PUSH2 0x71F DUP2 PUSH2 0x6FB JUMP JUMPDEST SWAP3 SWAP2 POP POP JUMP JUMPDEST PUSH0 PUSH0 PUSH0 PUSH0 PUSH1 0x80 DUP6 DUP8 SUB SLT ISZERO PUSH2 0x73D JUMPI PUSH2 0x73C PUSH2 0x5AE JUMP JUMPDEST JUMPDEST PUSH0 DUP6 ADD CALLDATALOAD PUSH8 0xFFFFFFFFFFFFFFFF DUP2 GT ISZERO PUSH2 0x75A JUMPI PUSH2 0x759 PUSH2 0x5B2 JUMP JUMPDEST JUMPDEST PUSH2 0x766 DUP8 DUP3 DUP9 ADD PUSH2 0x6C5 JUMP JUMPDEST SWAP5 POP POP PUSH1 0x20 DUP6 ADD CALLDATALOAD PUSH8 0xFFFFFFFFFFFFFFFF DUP2 GT ISZERO PUSH2 0x787 JUMPI PUSH2 0x786 PUSH2 0x5B2 JUMP JUMPDEST JUMPDEST PUSH2 0x793 DUP8 DUP3 DUP9 ADD PUSH2 0x6C5 JUMP JUMPDEST SWAP4 POP POP PUSH1 0x40 PUSH2 0x7A4 DUP8 DUP3 DUP9 ADD PUSH2 0x711 JUMP JUMPDEST SWAP3 POP POP PUSH1 0x60 DUP6 ADD CALLDATALOAD PUSH8 0xFFFFFFFFFFFFFFFF DUP2 GT ISZERO PUSH2 0x7C5 JUMPI PUSH2 0x7C4 PUSH2 0x5B2 JUMP JUMPDEST JUMPDEST PUSH2 0x7D1 DUP8 DUP3 DUP9 ADD PUSH2 0x6C5 JUMP JUMPDEST SWAP2 POP POP SWAP3 SWAP6 SWAP2 SWAP5 POP SWAP3 POP JUMP JUMPDEST PUSH0 PUSH1 0x20 DUP3 DUP5 SUB SLT ISZERO PUSH2 0x7F2 JUMPI PUSH2 0x7F1 PUSH2 0x5AE JUMP JUMPDEST JUMPDEST PUSH0 DUP3 ADD CALLDATALOAD PUSH8 0xFFFFFFFFFFFFFFFF DUP2 GT ISZERO PUSH2 0x80F JUMPI PUSH2 0x80E PUSH2 0x5B2 JUMP JUMPDEST JUMPDEST PUSH2 0x81B DUP5 DUP3 DUP6 ADD PUSH2 0x6C5 JUMP JUMPDEST SWAP2 POP POP SWAP3 SWAP2 POP POP JUMP JUMPDEST PUSH0 DUP2 MLOAD SWAP1 POP SWAP2 SWAP1 POP JUMP JUMPDEST PUSH0 DUP3 DUP3 MSTORE PUSH1 0x20 DUP3 ADD SWAP1 POP SWAP3 SWAP2 POP POP JUMP JUMPDEST DUP3 DUP2 DUP4 MCOPY PUSH0 DUP4 DUP4 ADD MSTORE POP POP POP JUMP JUMPDEST PUSH0 PUSH2 0x856 DUP3 PUSH2 0x824 JUMP JUMPDEST PUSH2 0x860 DUP2 DUP6 PUSH2 0x82E JUMP JUMPDEST SWAP4 POP PUSH2 0x870 DUP2 DUP6 PUSH1 0x20 DUP7 ADD PUSH2 0x83E JUMP JUMPDEST PUSH2 0x879 DUP2 PUSH2 0x5BE JUMP JUMPDEST DUP5 ADD SWAP2 POP POP SWAP3 SWAP2 POP POP JUMP JUMPDEST PUSH2 0x88D DUP2 PUSH2 0x6F2 JUMP JUMPDEST DUP3 MSTORE POP POP JUMP JUMPDEST PUSH0 PUSH1 0x80 DUP3 ADD SWAP1 POP DUP2 DUP2 SUB PUSH0 DUP4 ADD MSTORE PUSH2 0x8AB DUP2 DUP8 PUSH2 0x84C JUMP JUMPDEST SWAP1 POP PUSH2 0x8BA PUSH1 0x20 DUP4 ADD DUP7 PUSH2 0x884 JUMP JUMPDEST DUP2 DUP2 SUB PUSH1 0x40 DUP4 ADD MSTORE PUSH2 0x8CC DUP2 DUP6 PUSH2 0x84C JUMP JUMPDEST SWAP1 POP DUP2 DUP2 SUB PUSH1 0x60 DUP4 ADD MSTORE PUSH2 0x8E0 DUP2 DUP5 PUSH2 0x84C JUMP JUMPDEST SWAP1 POP SWAP6 SWAP5 POP POP POP POP POP JUMP JUMPDEST PUSH0 DUP2 MLOAD SWAP1 POP SWAP2 SWAP1 POP JUMP JUMPDEST PUSH0 DUP3 DUP3 MSTORE PUSH1 0x20 DUP3 ADD SWAP1 POP SWAP3 SWAP2 POP POP JUMP JUMPDEST PUSH0 DUP2 SWAP1 POP PUSH1 0x20 DUP3 ADD SWAP1 POP SWAP2 SWAP1 POP JUMP JUMPDEST PUSH0 DUP3 DUP3 MSTORE PUSH1 0x20 DUP3 ADD SWAP1 POP SWAP3 SWAP2 POP POP JUMP JUMPDEST PUSH0 PUSH2 0x92E DUP3 PUSH2 0x824 JUMP JUMPDEST PUSH2 0x938 DUP2 DUP6 PUSH2 0x914 JUMP JUMPDEST SWAP4 POP PUSH2 0x948 DUP2 DUP6 PUSH1 0x20 DUP7 ADD PUSH2 0x83E JUMP JUMPDEST PUSH2 0x951 DUP2 PUSH2 0x5BE JUMP JUMPDEST DUP5 ADD SWAP2 POP POP SWAP3 SWAP2 POP POP JUMP JUMPDEST PUSH2 0x965 DUP2 PUSH2 0x6F2 JUMP JUMPDEST DUP3 MSTORE POP POP JUMP JUMPDEST PUSH0 PUSH1 0x80 DUP4 ADD PUSH0 DUP4 ADD MLOAD DUP5 DUP3 SUB PUSH0 DUP7 ADD MSTORE PUSH2 0x985 DUP3 DUP3 PUSH2 0x924 JUMP JUMPDEST SWAP2 POP POP PUSH1 0x20 DUP4 ADD MLOAD PUSH2 0x99A PUSH1 0x20 DUP7 ADD DUP3 PUSH2 0x95C JUMP JUMPDEST POP PUSH1 0x40 DUP4 ADD MLOAD DUP5 DUP3 SUB PUSH1 0x40 DUP7 ADD MSTORE PUSH2 0x9B2 DUP3 DUP3 PUSH2 0x924 JUMP JUMPDEST SWAP2 POP POP PUSH1 0x60 DUP4 ADD MLOAD DUP5 DUP3 SUB PUSH1 0x60 DUP7 ADD MSTORE PUSH2 0x9CC DUP3 DUP3 PUSH2 0x924 JUMP JUMPDEST SWAP2 POP POP DUP1 SWAP2 POP POP SWAP3 SWAP2 POP POP JUMP JUMPDEST PUSH0 PUSH2 0x9E4 DUP4 DUP4 PUSH2 0x96B JUMP JUMPDEST SWAP1 POP SWAP3 SWAP2 POP POP JUMP JUMPDEST PUSH0 PUSH1 0x20 DUP3 ADD SWAP1 POP SWAP2 SWAP1 POP JUMP JUMPDEST PUSH0 PUSH2 0xA02 DUP3 PUSH2 0x8EB JUMP JUMPDEST PUSH2 0xA0C DUP2 DUP6 PUSH2 0x8F5 JUMP JUMPDEST SWAP4 POP DUP4 PUSH1 0x20 DUP3 MUL DUP6 ADD PUSH2 0xA1E DUP6 PUSH2 0x905 JUMP JUMPDEST DUP1 PUSH0 JUMPDEST DUP6 DUP2 LT ISZERO PUSH2 0xA59 JUMPI DUP5 DUP5 SUB DUP10 MSTORE DUP2 MLOAD PUSH2 0xA3A DUP6 DUP3 PUSH2 0x9D9 JUMP JUMPDEST SWAP5 POP PUSH2 0xA45 DUP4 PUSH2 0x9EC JUMP JUMPDEST SWAP3 POP PUSH1 0x20 DUP11 ADD SWAP10 POP POP PUSH1 0x1 DUP2 ADD SWAP1 POP PUSH2 0xA21 JUMP JUMPDEST POP DUP3 SWAP8 POP DUP8 SWAP6 POP POP POP POP POP POP SWAP3 SWAP2 POP POP JUMP JUMPDEST PUSH0 PUSH1 0x20 DUP3 ADD SWAP1 POP DUP2 DUP2 SUB PUSH0 DUP4 ADD MSTORE PUSH2 0xA83 DUP2 DUP5 PUSH2 0x9F8 JUMP JUMPDEST SWAP1 POP SWAP3 SWAP2 POP POP JUMP JUMPDEST PUSH32 0x4E487B7100000000000000000000000000000000000000000000000000000000 PUSH0 MSTORE PUSH1 0x22 PUSH1 0x4 MSTORE PUSH1 0x24 PUSH0 REVERT JUMPDEST PUSH0 PUSH1 0x2 DUP3 DIV SWAP1 POP PUSH1 0x1 DUP3 AND DUP1 PUSH2 0xACF JUMPI PUSH1 0x7F DUP3 AND SWAP2 POP JUMPDEST PUSH1 0x20 DUP3 LT DUP2 SUB PUSH2 0xAE2 JUMPI PUSH2 0xAE1 PUSH2 0xA8B JUMP JUMPDEST JUMPDEST POP SWAP2 SWAP1 POP JUMP JUMPDEST PUSH0 DUP2 SWAP1 POP DUP2 PUSH0 MSTORE PUSH1 0x20 PUSH0 KECCAK256 SWAP1 POP SWAP2 SWAP1 POP JUMP JUMPDEST PUSH0 PUSH1 0x20 PUSH1 0x1F DUP4 ADD DIV SWAP1 POP SWAP2 SWAP1 POP JUMP JUMPDEST PUSH0 DUP3 DUP3 SHL SWAP1 POP SWAP3 SWAP2 POP POP JUMP JUMPDEST PUSH0 PUSH1 0x8 DUP4 MUL PUSH2 0xB44 PUSH32 0xFFFFFFFFFFFFFFFFFFFFFFFFFFFFFFFFFFFFFFFFFFFFFFFFFFFFFFFFFFFFFFFF DUP3 PUSH2 0xB09 JUMP JUMPDEST PUSH2 0xB4E DUP7 DUP4 PUSH2 0xB09 JUMP JUMPDEST SWAP6 POP DUP1 NOT DUP5 AND SWAP4 POP DUP1 DUP7 AND DUP5 OR SWAP3 POP POP POP SWAP4 SWAP3 POP POP POP JUMP JUMPDEST PUSH0 DUP2 SWAP1 POP SWAP2 SWAP1 POP JUMP JUMPDEST PUSH0 PUSH2 0xB89 PUSH2 0xB84 PUSH2 0xB7F DUP5 PUSH2 0x6F2 JUMP JUMPDEST PUSH2 0xB66 JUMP JUMPDEST PUSH2 0x6F2 JUMP JUMPDEST SWAP1 POP SWAP2 SWAP1 POP JUMP JUMPDEST PUSH0 DUP2 SWAP1 POP SWAP2 SWAP1 POP JUMP JUMPDEST PUSH2 0xBA2 DUP4 PUSH2 0xB6F JUMP JUMPDEST PUSH2 0xBB6 PUSH2 0xBAE DUP3 PUSH2 0xB90 JUMP JUMPDEST DUP5 DUP5 SLOAD PUSH2 0xB15 JUMP JUMPDEST DUP3 SSTORE POP POP POP POP JUMP JUMPDEST PUSH0 PUSH0 SWAP1 POP SWAP1 JUMP JUMPDEST PUSH2 0xBCD PUSH2 0xBBE JUMP JUMPDEST PUSH2 0xBD8 DUP2 DUP5 DUP5 PUSH2 0xB99 JUMP JUMPDEST POP POP POP JUMP JUMPDEST JUMPDEST DUP2 DUP2 LT ISZERO PUSH2 0xBFB JUMPI PUSH2 0xBF0 PUSH0 DUP3 PUSH2 0xBC5 JUMP JUMPDEST PUSH1 0x1 DUP2 ADD SWAP1 POP PUSH2 0xBDE JUMP JUMPDEST POP POP JUMP JUMPDEST PUSH1 0x1F DUP3 GT ISZERO PUSH2 0xC40 JUMPI PUSH2 0xC11 DUP2 PUSH2 0xAE8 JUMP JUMPDEST PUSH2 0xC1A DUP5 PUSH2 0xAFA JUMP JUMPDEST DUP2 ADD PUSH1 0x20 DUP6 LT ISZERO PUSH2 0xC29 JUMPI DUP2 SWAP1 POP JUMPDEST PUSH2 0xC3D PUSH2 0xC35 DUP6 PUSH2 0xAFA JUMP JUMPDEST DUP4 ADD DUP3 PUSH2 0xBDD JUMP JUMPDEST POP POP JUMPDEST POP POP POP JUMP JUMPDEST PUSH0 DUP3 DUP3 SHR SWAP1 POP SWAP3 SWAP2 POP POP JUMP JUMPDEST PUSH0 PUSH2 0xC60 PUSH0 NOT DUP5 PUSH1 0x8 MUL PUSH2 0xC45 JUMP JUMPDEST NOT DUP1 DUP4 AND SWAP2 POP POP SWAP3 SWAP2 POP POP JUMP JUMPDEST PUSH0 PUSH2 0xC78 DUP4 DUP4 PUSH2 0xC51 JUMP JUMPDEST SWAP2 POP DUP3 PUSH1 0x2 MUL DUP3 OR SWAP1 POP SWAP3 SWAP2 POP POP JUMP JUMPDEST PUSH2 0xC91 DUP3 PUSH2 0x824 JUMP JUMPDEST PUSH8 0xFFFFFFFFFFFFFFFF DUP2 GT ISZERO PUSH2 0xCAA JUMPI PUSH2 0xCA9 PUSH2 0x5CE JUMP JUMPDEST JUMPDEST PUSH2 0xCB4 DUP3 SLOAD PUSH2 0xAB8 JUMP JUMPDEST PUSH2 0xCBF DUP3 DUP3 DUP6 PUSH2 0xBFF JUMP JUMPDEST PUSH0 PUSH1 0x20 SWAP1 POP PUSH1 0x1F DUP4 GT PUSH1 0x1 DUP2 EQ PUSH2 0xCF0 JUMPI PUSH0 DUP5 ISZERO PUSH2 0xCDE JUMPI DUP3 DUP8 ADD MLOAD SWAP1 POP JUMPDEST PUSH2 0xCE8 DUP6 DUP3 PUSH2 0xC6D JUMP JUMPDEST DUP7 SSTORE POP PUSH2 0xD4F JUMP JUMPDEST PUSH1 0x1F NOT DUP5 AND PUSH2 0xCFE DUP7 PUSH2 0xAE8 JUMP JUMPDEST PUSH0 JUMPDEST DUP3 DUP2 LT ISZERO PUSH2 0xD25 JUMPI DUP5 DUP10 ADD MLOAD DUP3 SSTORE PUSH1 0x1 DUP3 ADD SWAP2 POP PUSH1 0x20 DUP6 ADD SWAP5 POP PUSH1 0x20 DUP2 ADD SWAP1 POP PUSH2 0xD00 JUMP JUMPDEST DUP7 DUP4 LT ISZERO PUSH2 0xD42 JUMPI DUP5 DUP10 ADD MLOAD PUSH2 0xD3E PUSH1 0x1F DUP10 AND DUP3 PUSH2 0xC51 JUMP JUMPDEST DUP4 SSTORE POP JUMPDEST PUSH1 0x1 PUSH1 0x2 DUP9 MUL ADD DUP9 SSTORE POP POP POP JUMPDEST POP POP POP POP POP POP JUMP JUMPDEST PUSH0 DUP2 SWAP1 POP SWAP3 SWAP2 POP POP JUMP JUMPDEST PUSH0 PUSH2 0xD6B DUP3 PUSH2 0x824 JUMP JUMPDEST PUSH2 0xD75 DUP2 DUP6 PUSH2 0xD57 JUMP JUMPDEST SWAP4 POP PUSH2 0xD85 DUP2 DUP6 PUSH1 0x20 DUP7 ADD PUSH2 0x83E JUMP JUMPDEST DUP1 DUP5 ADD SWAP2 POP POP SWAP3 SWAP2 POP POP JUMP JUMPDEST PUSH0 PUSH2 0xD9C DUP3 DUP5 PUSH2 0xD61 JUMP JUMPDEST SWAP2 POP DUP2 SWAP1 POP SWAP3 SWAP2 POP POP JUMP INVALID LOG2 PUSH5 0x6970667358 0x22 SLT KECCAK256 SWAP6 SGT DUP10 0x4B POP PUSH26 0xDD3AB37A1746B719B73BB4EAFFA095DB9ABA4656ABC2B2815698 PUSH5 0x736F6C6343 STOP ADDMOD 0x1F STOP CALLER "
				},
				"gasEstimates": {
					"creation": {
						"codeDepositCost": "709800",
						"executionCost": "739",
						"totalCost": "710539"
					},
					"external": {
						"codeToCourse(string)": "infinite",
						"createCourse(string,string,uint256,string)": "infinite",
						"getCourses()": "infinite"
					}
				},
				"methodIdentifiers": {
					"codeToCourse(string)": "981d6c33",
					"createCourse(string,string,uint256,string)": "904ae8ad",
					"getCourses()": "cc126479"
				}
			},
			"storageLayout": {
				"storage": [
					{
						"astId": 14,
						"contract": "Courses.sol:Courses",
						"label": "courses",
						"offset": 0,
						"slot": "0",
						"type": "t_array(t_struct(Course)10_storage)dyn_storage"
					},
					{
						"astId": 19,
						"contract": "Courses.sol:Courses",
						"label": "codeToCourse",
						"offset": 0,
						"slot": "1",
						"type": "t_mapping(t_string_memory_ptr,t_struct(Course)10_storage)"
					}
				],
				"types": {
					"t_array(t_struct(Course)10_storage)dyn_storage": {
						"base": "t_struct(Course)10_storage",
						"encoding": "dynamic_array",
						"label": "struct Courses.Course[]",
						"numberOfBytes": "32"
					},
					"t_mapping(t_string_memory_ptr,t_struct(Course)10_storage)": {
						"encoding": "mapping",
						"key": "t_string_memory_ptr",
						"label": "mapping(string => struct Courses.Course)",
						"numberOfBytes": "32",
						"value": "t_struct(Course)10_storage"
					},
					"t_string_memory_ptr": {
						"encoding": "bytes",
						"label": "string",
						"numberOfBytes": "32"
					},
					"t_string_storage": {
						"encoding": "bytes",
						"label": "string",
						"numberOfBytes": "32"
					},
					"t_struct(Course)10_storage": {
						"encoding": "inplace",
						"label": "struct Courses.Course",
						"members": [
							{
								"astId": 3,
								"contract": "Courses.sol:Courses",
								"label": "title",
								"offset": 0,
								"slot": "0",
								"type": "t_string_storage"
							},
							{
								"astId": 5,
								"contract": "Courses.sol:Courses",
								"label": "unit",
								"offset": 0,
								"slot": "1",
								"type": "t_uint256"
							},
							{
								"astId": 7,
								"contract": "Courses.sol:Courses",
								"label": "code",
								"offset": 0,
								"slot": "2",
								"type": "t_string_storage"
							},
							{
								"astId": 9,
								"contract": "Courses.sol:Courses",
								"label": "lecturer",
								"offset": 0,
								"slot": "3",
								"type": "t_string_storage"
							}
						],
						"numberOfBytes": "128"
					},
					"t_uint256": {
						"encoding": "inplace",
						"label": "uint256",
						"numberOfBytes": "32"
					}
				}
			},
			"userdoc": {
				"kind": "user",
				"methods": {},
				"version": 1
			}
		}
	}
}