{
	"Courses.sol": {
		"Courses": {
			"abi": [
				{
					"inputs": [
						{
							"internalType": "uint256",
							"name": "",
							"type": "uint256"
						}
					],
					"name": "courses",
					"outputs": [
						{
							"internalType": "string",
							"name": "title",
							"type": "string"
						},
						{
							"internalType": "uint256",
							"name": "unit",
							"type": "uint256"
						},
						{
							"internalType": "string",
							"name": "code",
							"type": "string"
						},
						{
							"internalType": "string",
							"name": "lecturer",
							"type": "string"
						}
					],
					"stateMutability": "view",
					"type": "function"
				},
				{
					"inputs": [
						{
							"internalType": "string",
							"name": "_title",
							"type": "string"
						},
						{
							"internalType": "string",
							"name": "_code",
							"type": "string"
						},
						{
							"internalType": "uint256",
							"name": "_unit",
							"type": "uint256"
						},
						{
							"internalType": "string",
							"name": "_lecturer",
							"type": "string"
						}
					],
					"name": "createCourse",
					"outputs": [],
					"stateMutability": "nonpayable",
					"type": "function"
				},
				{
					"inputs": [],
					"name": "getCourses",
					"outputs": [
						{
							"components": [
								{
									"internalType": "string",
									"name": "title",
									"type": "string"
								},
								{
									"internalType": "uint256",
									"name": "unit",
									"type": "uint256"
								},
								{
									"internalType": "string",
									"name": "code",
									"type": "string"
								},
								{
									"internalType": "string",
									"name": "lecturer",
									"type": "string"
								}
							],
							"internalType": "struct Courses.Course[]",
							"name": "",
							"type": "tuple[]"
						}
					],
					"stateMutability": "view",
					"type": "function"
				}
			],
			"devdoc": {
				"kind": "dev",
				"methods": {},
				"version": 1
			},
			"evm": {
				"assembly": "    /* \"Courses.sol\":103:1032  contract Courses {... */\n  mstore(0x40, 0x80)\n  callvalue\n  dup1\n  iszero\n  tag_1\n  jumpi\n  revert(0x00, 0x00)\ntag_1:\n  pop\n  dataSize(sub_0)\n  dup1\n  dataOffset(sub_0)\n  0x00\n  codecopy\n  0x00\n  return\nstop\n\nsub_0: assembly {\n        /* \"Courses.sol\":103:1032  contract Courses {... */\n      mstore(0x40, 0x80)\n      callvalue\n      dup1\n      iszero\n      tag_1\n      jumpi\n      revert(0x00, 0x00)\n    tag_1:\n      pop\n      jumpi(tag_2, lt(calldatasize, 0x04))\n      shr(0xe0, calldataload(0x00))\n      dup1\n      0x904ae8ad\n      eq\n      tag_3\n      jumpi\n      dup1\n      0x96f979d2\n      eq\n      tag_4\n      jumpi\n      dup1\n      0xcc126479\n      eq\n      tag_5\n      jumpi\n    tag_2:\n      revert(0x00, 0x00)\n        /* \"Courses.sol\":377:928  function createCourse (... */\n    tag_3:\n      tag_6\n      0x04\n      dup1\n      calldatasize\n      sub\n      dup2\n      add\n      swap1\n      tag_7\n      swap2\n      swap1\n      tag_8\n      jump\t// in\n    tag_7:\n      tag_9\n      jump\t// in\n    tag_6:\n      stop\n        /* \"Courses.sol\":243:266  Course[] public courses */\n    tag_4:\n      tag_10\n      0x04\n      dup1\n      calldatasize\n      sub\n      dup2\n      add\n      swap1\n      tag_11\n      swap2\n      swap1\n      tag_12\n      jump\t// in\n    tag_11:\n      tag_13\n      jump\t// in\n    tag_10:\n      mload(0x40)\n      tag_14\n      swap5\n      swap4\n      swap3\n      swap2\n      swap1\n      tag_15\n      jump\t// in\n    tag_14:\n      mload(0x40)\n      dup1\n      swap2\n      sub\n      swap1\n      return\n        /* \"Courses.sol\":939:1030  function getCourses() public view returns (Course[] memory) {... */\n    tag_5:\n      tag_16\n      tag_17\n      jump\t// in\n    tag_16:\n      mload(0x40)\n      tag_18\n      swap2\n      swap1\n      tag_19\n      jump\t// in\n    tag_18:\n      mload(0x40)\n      dup1\n      swap2\n      sub\n      swap1\n      return\n        /* \"Courses.sol\":377:928  function createCourse (... */\n    tag_9:\n        /* \"Courses.sol\":548:559  courseExist */\n      0x02\n        /* \"Courses.sol\":560:566  _title */\n      dup5\n        /* \"Courses.sol\":548:567  courseExist[_title] */\n      mload(0x40)\n      tag_21\n      swap2\n      swap1\n      tag_22\n      jump\t// in\n    tag_21:\n      swap1\n      dup2\n      mstore\n      0x20\n      add\n      mload(0x40)\n      dup1\n      swap2\n      sub\n      swap1\n      keccak256\n      0x00\n      swap1\n      sload\n      swap1\n      0x0100\n      exp\n      swap1\n      div\n      0xff\n      and\n        /* \"Courses.sol\":547:567  !courseExist[_title] */\n      iszero\n        /* \"Courses.sol\":539:593  require(!courseExist[_title], \"Course already added!\") */\n      tag_23\n      jumpi\n      mload(0x40)\n      0x08c379a000000000000000000000000000000000000000000000000000000000\n      dup2\n      mstore\n      0x04\n      add\n      tag_24\n      swap1\n      tag_25\n      jump\t// in\n    tag_24:\n      mload(0x40)\n      dup1\n      swap2\n      sub\n      swap1\n      revert\n    tag_23:\n        /* \"Courses.sol\":625:629  true */\n      0x01\n        /* \"Courses.sol\":603:614  courseExist */\n      0x02\n        /* \"Courses.sol\":615:621  _title */\n      dup6\n        /* \"Courses.sol\":603:622  courseExist[_title] */\n      mload(0x40)\n      tag_26\n      swap2\n      swap1\n      tag_22\n      jump\t// in\n    tag_26:\n      swap1\n      dup2\n      mstore\n      0x20\n      add\n      mload(0x40)\n      dup1\n      swap2\n      sub\n      swap1\n      keccak256\n      0x00\n        /* \"Courses.sol\":603:629  courseExist[_title] = true */\n      0x0100\n      exp\n      dup2\n      sload\n      dup2\n      0xff\n      mul\n      not\n      and\n      swap1\n      dup4\n      iszero\n      iszero\n      mul\n      or\n      swap1\n      sstore\n      pop\n        /* \"Courses.sol\":692:715  Course memory newCourse */\n      0x00\n        /* \"Courses.sol\":718:846  Course({... */\n      mload(0x40)\n      dup1\n      0x80\n      add\n      0x40\n      mstore\n      dup1\n        /* \"Courses.sol\":746:752  _title */\n      dup7\n        /* \"Courses.sol\":718:846  Course({... */\n      dup2\n      mstore\n      0x20\n      add\n        /* \"Courses.sol\":772:777  _unit */\n      dup5\n        /* \"Courses.sol\":718:846  Course({... */\n      dup2\n      mstore\n      0x20\n      add\n        /* \"Courses.sol\":797:802  _code */\n      dup6\n        /* \"Courses.sol\":718:846  Course({... */\n      dup2\n      mstore\n      0x20\n      add\n        /* \"Courses.sol\":826:835  _lecturer */\n      dup4\n        /* \"Courses.sol\":718:846  Course({... */\n      dup2\n      mstore\n      pop\n        /* \"Courses.sol\":692:846  Course memory newCourse = Course({... */\n      swap1\n      pop\n        /* \"Courses.sol\":857:864  courses */\n      0x00\n        /* \"Courses.sol\":870:879  newCourse */\n      dup2\n        /* \"Courses.sol\":857:880  courses.push(newCourse) */\n      swap1\n      dup1\n      0x01\n      dup2\n      sload\n      add\n      dup1\n      dup3\n      sstore\n      dup1\n      swap2\n      pop\n      pop\n      0x01\n      swap1\n      sub\n      swap1\n      0x00\n      mstore\n      keccak256(0x00, 0x20)\n      swap1\n      0x04\n      mul\n      add\n      0x00\n      swap1\n      swap2\n      swap1\n      swap2\n      swap1\n      swap2\n      pop\n      0x00\n      dup3\n      add\n      mload\n      dup2\n      0x00\n      add\n      swap1\n      dup2\n      tag_28\n      swap2\n      swap1\n      tag_29\n      jump\t// in\n    tag_28:\n      pop\n      0x20\n      dup3\n      add\n      mload\n      dup2\n      0x01\n      add\n      sstore\n      0x40\n      dup3\n      add\n      mload\n      dup2\n      0x02\n      add\n      swap1\n      dup2\n      tag_30\n      swap2\n      swap1\n      tag_29\n      jump\t// in\n    tag_30:\n      pop\n      0x60\n      dup3\n      add\n      mload\n      dup2\n      0x03\n      add\n      swap1\n      dup2\n      tag_31\n      swap2\n      swap1\n      tag_29\n      jump\t// in\n    tag_31:\n      pop\n      pop\n      pop\n        /* \"Courses.sol\":912:921  newCourse */\n      dup1\n        /* \"Courses.sol\":890:902  codeToCourse */\n      0x01\n        /* \"Courses.sol\":903:908  _code */\n      dup6\n        /* \"Courses.sol\":890:909  codeToCourse[_code] */\n      mload(0x40)\n      tag_32\n      swap2\n      swap1\n      tag_22\n      jump\t// in\n    tag_32:\n      swap1\n      dup2\n      mstore\n      0x20\n      add\n      mload(0x40)\n      dup1\n      swap2\n      sub\n      swap1\n      keccak256\n        /* \"Courses.sol\":890:921  codeToCourse[_code] = newCourse */\n      0x00\n      dup3\n      add\n      mload\n      dup2\n      0x00\n      add\n      swap1\n      dup2\n      tag_33\n      swap2\n      swap1\n      tag_29\n      jump\t// in\n    tag_33:\n      pop\n      0x20\n      dup3\n      add\n      mload\n      dup2\n      0x01\n      add\n      sstore\n      0x40\n      dup3\n      add\n      mload\n      dup2\n      0x02\n      add\n      swap1\n      dup2\n      tag_34\n      swap2\n      swap1\n      tag_29\n      jump\t// in\n    tag_34:\n      pop\n      0x60\n      dup3\n      add\n      mload\n      dup2\n      0x03\n      add\n      swap1\n      dup2\n      tag_35\n      swap2\n      swap1\n      tag_29\n      jump\t// in\n    tag_35:\n      pop\n      swap1\n      pop\n      pop\n        /* \"Courses.sol\":529:928  {... */\n      pop\n        /* \"Courses.sol\":377:928  function createCourse (... */\n      pop\n      pop\n      pop\n      pop\n      jump\t// out\n        /* \"Courses.sol\":243:266  Course[] public courses */\n    tag_13:\n      0x00\n      dup2\n      dup2\n      sload\n      dup2\n      lt\n      tag_36\n      jumpi\n      0x00\n      dup1\n      revert\n    tag_36:\n      swap1\n      0x00\n      mstore\n      keccak256(0x00, 0x20)\n      swap1\n      0x04\n      mul\n      add\n      0x00\n      swap2\n      pop\n      swap1\n      pop\n      dup1\n      0x00\n      add\n      dup1\n      sload\n      tag_38\n      swap1\n      tag_39\n      jump\t// in\n    tag_38:\n      dup1\n      0x1f\n      add\n      0x20\n      dup1\n      swap2\n      div\n      mul\n      0x20\n      add\n      mload(0x40)\n      swap1\n      dup2\n      add\n      0x40\n      mstore\n      dup1\n      swap3\n      swap2\n      swap1\n      dup2\n      dup2\n      mstore\n      0x20\n      add\n      dup3\n      dup1\n      sload\n      tag_40\n      swap1\n      tag_39\n      jump\t// in\n    tag_40:\n      dup1\n      iszero\n      tag_41\n      jumpi\n      dup1\n      0x1f\n      lt\n      tag_42\n      jumpi\n      0x0100\n      dup1\n      dup4\n      sload\n      div\n      mul\n      dup4\n      mstore\n      swap2\n      0x20\n      add\n      swap2\n      jump(tag_41)\n    tag_42:\n      dup3\n      add\n      swap2\n      swap1\n      0x00\n      mstore\n      keccak256(0x00, 0x20)\n      swap1\n    tag_43:\n      dup2\n      sload\n      dup2\n      mstore\n      swap1\n      0x01\n      add\n      swap1\n      0x20\n      add\n      dup1\n      dup4\n      gt\n      tag_43\n      jumpi\n      dup3\n      swap1\n      sub\n      0x1f\n      and\n      dup3\n      add\n      swap2\n    tag_41:\n      pop\n      pop\n      pop\n      pop\n      pop\n      swap1\n      dup1\n      0x01\n      add\n      sload\n      swap1\n      dup1\n      0x02\n      add\n      dup1\n      sload\n      tag_44\n      swap1\n      tag_39\n      jump\t// in\n    tag_44:\n      dup1\n      0x1f\n      add\n      0x20\n      dup1\n      swap2\n      div\n      mul\n      0x20\n      add\n      mload(0x40)\n      swap1\n      dup2\n      add\n      0x40\n      mstore\n      dup1\n      swap3\n      swap2\n      swap1\n      dup2\n      dup2\n      mstore\n      0x20\n      add\n      dup3\n      dup1\n      sload\n      tag_45\n      swap1\n      tag_39\n      jump\t// in\n    tag_45:\n      dup1\n      iszero\n      tag_46\n      jumpi\n      dup1\n      0x1f\n      lt\n      tag_47\n      jumpi\n      0x0100\n      dup1\n      dup4\n      sload\n      div\n      mul\n      dup4\n      mstore\n      swap2\n      0x20\n      add\n      swap2\n      jump(tag_46)\n    tag_47:\n      dup3\n      add\n      swap2\n      swap1\n      0x00\n      mstore\n      keccak256(0x00, 0x20)\n      swap1\n    tag_48:\n      dup2\n      sload\n      dup2\n      mstore\n      swap1\n      0x01\n      add\n      swap1\n      0x20\n      add\n      dup1\n      dup4\n      gt\n      tag_48\n      jumpi\n      dup3\n      swap1\n      sub\n      0x1f\n      and\n      dup3\n      add\n      swap2\n    tag_46:\n      pop\n      pop\n      pop\n      pop\n      pop\n      swap1\n      dup1\n      0x03\n      add\n      dup1\n      sload\n      tag_49\n      swap1\n      tag_39\n      jump\t// in\n    tag_49:\n      dup1\n      0x1f\n      add\n      0x20\n      dup1\n      swap2\n      div\n      mul\n      0x20\n      add\n      mload(0x40)\n      swap1\n      dup2\n      add\n      0x40\n      mstore\n      dup1\n      swap3\n      swap2\n      swap1\n      dup2\n      dup2\n      mstore\n      0x20\n      add\n      dup3\n      dup1\n      sload\n      tag_50\n      swap1\n      tag_39\n      jump\t// in\n    tag_50:\n      dup1\n      iszero\n      tag_51\n      jumpi\n      dup1\n      0x1f\n      lt\n      tag_52\n      jumpi\n      0x0100\n      dup1\n      dup4\n      sload\n      div\n      mul\n      dup4\n      mstore\n      swap2\n      0x20\n      add\n      swap2\n      jump(tag_51)\n    tag_52:\n      dup3\n      add\n      swap2\n      swap1\n      0x00\n      mstore\n      keccak256(0x00, 0x20)\n      swap1\n    tag_53:\n      dup2\n      sload\n      dup2\n      mstore\n      swap1\n      0x01\n      add\n      swap1\n      0x20\n      add\n      dup1\n      dup4\n      gt\n      tag_53\n      jumpi\n      dup3\n      swap1\n      sub\n      0x1f\n      and\n      dup3\n      add\n      swap2\n    tag_51:\n      pop\n      pop\n      pop\n      pop\n      pop\n      swap1\n      pop\n      dup5\n      jump\t// out\n        /* \"Courses.sol\":939:1030  function getCourses() public view returns (Course[] memory) {... */\n    tag_17:\n        /* \"Courses.sol\":982:997  Course[] memory */\n      0x60\n        /* \"Courses.sol\":1016:1023  courses */\n      0x00\n        /* \"Courses.sol\":1009:1023  return courses */\n      dup1\n      sload\n      dup1\n      0x20\n      mul\n      0x20\n      add\n      mload(0x40)\n      swap1\n      dup2\n      add\n      0x40\n      mstore\n      dup1\n      swap3\n      swap2\n      swap1\n      dup2\n      dup2\n      mstore\n      0x20\n      add\n      0x00\n      swap1\n    tag_55:\n      dup3\n      dup3\n      lt\n      iszero\n      tag_56\n      jumpi\n      dup4\n      dup3\n      swap1\n      0x00\n      mstore\n      keccak256(0x00, 0x20)\n      swap1\n      0x04\n      mul\n      add\n      mload(0x40)\n      dup1\n      0x80\n      add\n      0x40\n      mstore\n      swap1\n      dup2\n      0x00\n      dup3\n      add\n      dup1\n      sload\n      tag_58\n      swap1\n      tag_39\n      jump\t// in\n    tag_58:\n      dup1\n      0x1f\n      add\n      0x20\n      dup1\n      swap2\n      div\n      mul\n      0x20\n      add\n      mload(0x40)\n      swap1\n      dup2\n      add\n      0x40\n      mstore\n      dup1\n      swap3\n      swap2\n      swap1\n      dup2\n      dup2\n      mstore\n      0x20\n      add\n      dup3\n      dup1\n      sload\n      tag_59\n      swap1\n      tag_39\n      jump\t// in\n    tag_59:\n      dup1\n      iszero\n      tag_60\n      jumpi\n      dup1\n      0x1f\n      lt\n      tag_61\n      jumpi\n      0x0100\n      dup1\n      dup4\n      sload\n      div\n      mul\n      dup4\n      mstore\n      swap2\n      0x20\n      add\n      swap2\n      jump(tag_60)\n    tag_61:\n      dup3\n      add\n      swap2\n      swap1\n      0x00\n      mstore\n      keccak256(0x00, 0x20)\n      swap1\n    tag_62:\n      dup2\n      sload\n      dup2\n      mstore\n      swap1\n      0x01\n      add\n      swap1\n      0x20\n      add\n      dup1\n      dup4\n      gt\n      tag_62\n      jumpi\n      dup3\n      swap1\n      sub\n      0x1f\n      and\n      dup3\n      add\n      swap2\n    tag_60:\n      pop\n      pop\n      pop\n      pop\n      pop\n      dup2\n      mstore\n      0x20\n      add\n      0x01\n      dup3\n      add\n      sload\n      dup2\n      mstore\n      0x20\n      add\n      0x02\n      dup3\n      add\n      dup1\n      sload\n      tag_63\n      swap1\n      tag_39\n      jump\t// in\n    tag_63:\n      dup1\n      0x1f\n      add\n      0x20\n      dup1\n      swap2\n      div\n      mul\n      0x20\n      add\n      mload(0x40)\n      swap1\n      dup2\n      add\n      0x40\n      mstore\n      dup1\n      swap3\n      swap2\n      swap1\n      dup2\n      dup2\n      mstore\n      0x20\n      add\n      dup3\n      dup1\n      sload\n      tag_64\n      swap1\n      tag_39\n      jump\t// in\n    tag_64:\n      dup1\n      iszero\n      tag_65\n      jumpi\n      dup1\n      0x1f\n      lt\n      tag_66\n      jumpi\n      0x0100\n      dup1\n      dup4\n      sload\n      div\n      mul\n      dup4\n      mstore\n      swap2\n      0x20\n      add\n      swap2\n      jump(tag_65)\n    tag_66:\n      dup3\n      add\n      swap2\n      swap1\n      0x00\n      mstore\n      keccak256(0x00, 0x20)\n      swap1\n    tag_67:\n      dup2\n      sload\n      dup2\n      mstore\n      swap1\n      0x01\n      add\n      swap1\n      0x20\n      add\n      dup1\n      dup4\n      gt\n      tag_67\n      jumpi\n      dup3\n      swap1\n      sub\n      0x1f\n      and\n      dup3\n      add\n      swap2\n    tag_65:\n      pop\n      pop\n      pop\n      pop\n      pop\n      dup2\n      mstore\n      0x20\n      add\n      0x03\n      dup3\n      add\n      dup1\n      sload\n      tag_68\n      swap1\n      tag_39\n      jump\t// in\n    tag_68:\n      dup1\n      0x1f\n      add\n      0x20\n      dup1\n      swap2\n      div\n      mul\n      0x20\n      add\n      mload(0x40)\n      swap1\n      dup2\n      add\n      0x40\n      mstore\n      dup1\n      swap3\n      swap2\n      swap1\n      dup2\n      dup2\n      mstore\n      0x20\n      add\n      dup3\n      dup1\n      sload\n      tag_69\n      swap1\n      tag_39\n      jump\t// in\n    tag_69:\n      dup1\n      iszero\n      tag_70\n      jumpi\n      dup1\n      0x1f\n      lt\n      tag_71\n      jumpi\n      0x0100\n      dup1\n      dup4\n      sload\n      div\n      mul\n      dup4\n      mstore\n      swap2\n      0x20\n      add\n      swap2\n      jump(tag_70)\n    tag_71:\n      dup3\n      add\n      swap2\n      swap1\n      0x00\n      mstore\n      keccak256(0x00, 0x20)\n      swap1\n    tag_72:\n      dup2\n      sload\n      dup2\n      mstore\n      swap1\n      0x01\n      add\n      swap1\n      0x20\n      add\n      dup1\n      dup4\n      gt\n      tag_72\n      jumpi\n      dup3\n      swap1\n      sub\n      0x1f\n      and\n      dup3\n      add\n      swap2\n    tag_70:\n      pop\n      pop\n      pop\n      pop\n      pop\n      dup2\n      mstore\n      pop\n      pop\n      dup2\n      mstore\n      0x20\n      add\n      swap1\n      0x01\n      add\n      swap1\n      jump(tag_55)\n    tag_56:\n      pop\n      pop\n      pop\n      pop\n      swap1\n      pop\n        /* \"Courses.sol\":939:1030  function getCourses() public view returns (Course[] memory) {... */\n      swap1\n      jump\t// out\n        /* \"#utility.yul\":7:82   */\n    tag_73:\n        /* \"#utility.yul\":40:46   */\n      0x00\n        /* \"#utility.yul\":73:75   */\n      0x40\n        /* \"#utility.yul\":67:76   */\n      mload\n        /* \"#utility.yul\":57:76   */\n      swap1\n      pop\n        /* \"#utility.yul\":7:82   */\n      swap1\n      jump\t// out\n        /* \"#utility.yul\":88:205   */\n    tag_74:\n        /* \"#utility.yul\":197:198   */\n      0x00\n        /* \"#utility.yul\":194:195   */\n      0x00\n        /* \"#utility.yul\":187:199   */\n      revert\n        /* \"#utility.yul\":211:328   */\n    tag_75:\n        /* \"#utility.yul\":320:321   */\n      0x00\n        /* \"#utility.yul\":317:318   */\n      0x00\n        /* \"#utility.yul\":310:322   */\n      revert\n        /* \"#utility.yul\":334:451   */\n    tag_76:\n        /* \"#utility.yul\":443:444   */\n      0x00\n        /* \"#utility.yul\":440:441   */\n      0x00\n        /* \"#utility.yul\":433:445   */\n      revert\n        /* \"#utility.yul\":457:574   */\n    tag_77:\n        /* \"#utility.yul\":566:567   */\n      0x00\n        /* \"#utility.yul\":563:564   */\n      0x00\n        /* \"#utility.yul\":556:568   */\n      revert\n        /* \"#utility.yul\":580:682   */\n    tag_78:\n        /* \"#utility.yul\":621:627   */\n      0x00\n        /* \"#utility.yul\":672:674   */\n      0x1f\n        /* \"#utility.yul\":668:675   */\n      not\n        /* \"#utility.yul\":663:665   */\n      0x1f\n        /* \"#utility.yul\":656:661   */\n      dup4\n        /* \"#utility.yul\":652:666   */\n      add\n        /* \"#utility.yul\":648:676   */\n      and\n        /* \"#utility.yul\":638:676   */\n      swap1\n      pop\n        /* \"#utility.yul\":580:682   */\n      swap2\n      swap1\n      pop\n      jump\t// out\n        /* \"#utility.yul\":688:868   */\n    tag_79:\n        /* \"#utility.yul\":736:813   */\n      0x4e487b7100000000000000000000000000000000000000000000000000000000\n        /* \"#utility.yul\":733:734   */\n      0x00\n        /* \"#utility.yul\":726:814   */\n      mstore\n        /* \"#utility.yul\":833:837   */\n      0x41\n        /* \"#utility.yul\":830:831   */\n      0x04\n        /* \"#utility.yul\":823:838   */\n      mstore\n        /* \"#utility.yul\":857:861   */\n      0x24\n        /* \"#utility.yul\":854:855   */\n      0x00\n        /* \"#utility.yul\":847:862   */\n      revert\n        /* \"#utility.yul\":874:1155   */\n    tag_80:\n        /* \"#utility.yul\":957:984   */\n      tag_133\n        /* \"#utility.yul\":979:983   */\n      dup3\n        /* \"#utility.yul\":957:984   */\n      tag_78\n      jump\t// in\n    tag_133:\n        /* \"#utility.yul\":949:955   */\n      dup2\n        /* \"#utility.yul\":945:985   */\n      add\n        /* \"#utility.yul\":1087:1093   */\n      dup2\n        /* \"#utility.yul\":1075:1085   */\n      dup2\n        /* \"#utility.yul\":1072:1094   */\n      lt\n        /* \"#utility.yul\":1051:1069   */\n      0xffffffffffffffff\n        /* \"#utility.yul\":1039:1049   */\n      dup3\n        /* \"#utility.yul\":1036:1070   */\n      gt\n        /* \"#utility.yul\":1033:1095   */\n      or\n        /* \"#utility.yul\":1030:1118   */\n      iszero\n      tag_134\n      jumpi\n        /* \"#utility.yul\":1098:1116   */\n      tag_135\n      tag_79\n      jump\t// in\n    tag_135:\n        /* \"#utility.yul\":1030:1118   */\n    tag_134:\n        /* \"#utility.yul\":1138:1148   */\n      dup1\n        /* \"#utility.yul\":1134:1136   */\n      0x40\n        /* \"#utility.yul\":1127:1149   */\n      mstore\n        /* \"#utility.yul\":917:1155   */\n      pop\n        /* \"#utility.yul\":874:1155   */\n      pop\n      pop\n      jump\t// out\n        /* \"#utility.yul\":1161:1290   */\n    tag_81:\n        /* \"#utility.yul\":1195:1201   */\n      0x00\n        /* \"#utility.yul\":1222:1242   */\n      tag_137\n      tag_73\n      jump\t// in\n    tag_137:\n        /* \"#utility.yul\":1212:1242   */\n      swap1\n      pop\n        /* \"#utility.yul\":1251:1284   */\n      tag_138\n        /* \"#utility.yul\":1279:1283   */\n      dup3\n        /* \"#utility.yul\":1271:1277   */\n      dup3\n        /* \"#utility.yul\":1251:1284   */\n      tag_80\n      jump\t// in\n    tag_138:\n        /* \"#utility.yul\":1161:1290   */\n      swap2\n      swap1\n      pop\n      jump\t// out\n        /* \"#utility.yul\":1296:1604   */\n    tag_82:\n        /* \"#utility.yul\":1358:1362   */\n      0x00\n        /* \"#utility.yul\":1448:1466   */\n      0xffffffffffffffff\n        /* \"#utility.yul\":1440:1446   */\n      dup3\n        /* \"#utility.yul\":1437:1467   */\n      gt\n        /* \"#utility.yul\":1434:1490   */\n      iszero\n      tag_140\n      jumpi\n        /* \"#utility.yul\":1470:1488   */\n      tag_141\n      tag_79\n      jump\t// in\n    tag_141:\n        /* \"#utility.yul\":1434:1490   */\n    tag_140:\n        /* \"#utility.yul\":1508:1537   */\n      tag_142\n        /* \"#utility.yul\":1530:1536   */\n      dup3\n        /* \"#utility.yul\":1508:1537   */\n      tag_78\n      jump\t// in\n    tag_142:\n        /* \"#utility.yul\":1500:1537   */\n      swap1\n      pop\n        /* \"#utility.yul\":1592:1596   */\n      0x20\n        /* \"#utility.yul\":1586:1590   */\n      dup2\n        /* \"#utility.yul\":1582:1597   */\n      add\n        /* \"#utility.yul\":1574:1597   */\n      swap1\n      pop\n        /* \"#utility.yul\":1296:1604   */\n      swap2\n      swap1\n      pop\n      jump\t// out\n        /* \"#utility.yul\":1610:1758   */\n    tag_83:\n        /* \"#utility.yul\":1708:1714   */\n      dup3\n        /* \"#utility.yul\":1703:1706   */\n      dup2\n        /* \"#utility.yul\":1698:1701   */\n      dup4\n        /* \"#utility.yul\":1685:1715   */\n      calldatacopy\n        /* \"#utility.yul\":1749:1750   */\n      0x00\n        /* \"#utility.yul\":1740:1746   */\n      dup4\n        /* \"#utility.yul\":1735:1738   */\n      dup4\n        /* \"#utility.yul\":1731:1747   */\n      add\n        /* \"#utility.yul\":1724:1751   */\n      mstore\n        /* \"#utility.yul\":1610:1758   */\n      pop\n      pop\n      pop\n      jump\t// out\n        /* \"#utility.yul\":1764:2189   */\n    tag_84:\n        /* \"#utility.yul\":1842:1847   */\n      0x00\n        /* \"#utility.yul\":1867:1933   */\n      tag_145\n        /* \"#utility.yul\":1883:1932   */\n      tag_146\n        /* \"#utility.yul\":1925:1931   */\n      dup5\n        /* \"#utility.yul\":1883:1932   */\n      tag_82\n      jump\t// in\n    tag_146:\n        /* \"#utility.yul\":1867:1933   */\n      tag_81\n      jump\t// in\n    tag_145:\n        /* \"#utility.yul\":1858:1933   */\n      swap1\n      pop\n        /* \"#utility.yul\":1956:1962   */\n      dup3\n        /* \"#utility.yul\":1949:1954   */\n      dup2\n        /* \"#utility.yul\":1942:1963   */\n      mstore\n        /* \"#utility.yul\":1994:1998   */\n      0x20\n        /* \"#utility.yul\":1987:1992   */\n      dup2\n        /* \"#utility.yul\":1983:1999   */\n      add\n        /* \"#utility.yul\":2032:2035   */\n      dup5\n        /* \"#utility.yul\":2023:2029   */\n      dup5\n        /* \"#utility.yul\":2018:2021   */\n      dup5\n        /* \"#utility.yul\":2014:2030   */\n      add\n        /* \"#utility.yul\":2011:2036   */\n      gt\n        /* \"#utility.yul\":2008:2120   */\n      iszero\n      tag_147\n      jumpi\n        /* \"#utility.yul\":2039:2118   */\n      tag_148\n      tag_77\n      jump\t// in\n    tag_148:\n        /* \"#utility.yul\":2008:2120   */\n    tag_147:\n        /* \"#utility.yul\":2129:2183   */\n      tag_149\n        /* \"#utility.yul\":2176:2182   */\n      dup5\n        /* \"#utility.yul\":2171:2174   */\n      dup3\n        /* \"#utility.yul\":2166:2169   */\n      dup6\n        /* \"#utility.yul\":2129:2183   */\n      tag_83\n      jump\t// in\n    tag_149:\n        /* \"#utility.yul\":1848:2189   */\n      pop\n        /* \"#utility.yul\":1764:2189   */\n      swap4\n      swap3\n      pop\n      pop\n      pop\n      jump\t// out\n        /* \"#utility.yul\":2209:2549   */\n    tag_85:\n        /* \"#utility.yul\":2265:2270   */\n      0x00\n        /* \"#utility.yul\":2314:2317   */\n      dup3\n        /* \"#utility.yul\":2307:2311   */\n      0x1f\n        /* \"#utility.yul\":2299:2305   */\n      dup4\n        /* \"#utility.yul\":2295:2312   */\n      add\n        /* \"#utility.yul\":2291:2318   */\n      slt\n        /* \"#utility.yul\":2281:2403   */\n      tag_151\n      jumpi\n        /* \"#utility.yul\":2322:2401   */\n      tag_152\n      tag_76\n      jump\t// in\n    tag_152:\n        /* \"#utility.yul\":2281:2403   */\n    tag_151:\n        /* \"#utility.yul\":2439:2445   */\n      dup2\n        /* \"#utility.yul\":2426:2446   */\n      calldataload\n        /* \"#utility.yul\":2464:2543   */\n      tag_153\n        /* \"#utility.yul\":2539:2542   */\n      dup5\n        /* \"#utility.yul\":2531:2537   */\n      dup3\n        /* \"#utility.yul\":2524:2528   */\n      0x20\n        /* \"#utility.yul\":2516:2522   */\n      dup7\n        /* \"#utility.yul\":2512:2529   */\n      add\n        /* \"#utility.yul\":2464:2543   */\n      tag_84\n      jump\t// in\n    tag_153:\n        /* \"#utility.yul\":2455:2543   */\n      swap2\n      pop\n        /* \"#utility.yul\":2271:2549   */\n      pop\n        /* \"#utility.yul\":2209:2549   */\n      swap3\n      swap2\n      pop\n      pop\n      jump\t// out\n        /* \"#utility.yul\":2555:2632   */\n    tag_86:\n        /* \"#utility.yul\":2592:2599   */\n      0x00\n        /* \"#utility.yul\":2621:2626   */\n      dup2\n        /* \"#utility.yul\":2610:2626   */\n      swap1\n      pop\n        /* \"#utility.yul\":2555:2632   */\n      swap2\n      swap1\n      pop\n      jump\t// out\n        /* \"#utility.yul\":2638:2760   */\n    tag_87:\n        /* \"#utility.yul\":2711:2735   */\n      tag_156\n        /* \"#utility.yul\":2729:2734   */\n      dup2\n        /* \"#utility.yul\":2711:2735   */\n      tag_86\n      jump\t// in\n    tag_156:\n        /* \"#utility.yul\":2704:2709   */\n      dup2\n        /* \"#utility.yul\":2701:2736   */\n      eq\n        /* \"#utility.yul\":2691:2754   */\n      tag_157\n      jumpi\n        /* \"#utility.yul\":2750:2751   */\n      0x00\n        /* \"#utility.yul\":2747:2748   */\n      0x00\n        /* \"#utility.yul\":2740:2752   */\n      revert\n        /* \"#utility.yul\":2691:2754   */\n    tag_157:\n        /* \"#utility.yul\":2638:2760   */\n      pop\n      jump\t// out\n        /* \"#utility.yul\":2766:2905   */\n    tag_88:\n        /* \"#utility.yul\":2812:2817   */\n      0x00\n        /* \"#utility.yul\":2850:2856   */\n      dup2\n        /* \"#utility.yul\":2837:2857   */\n      calldataload\n        /* \"#utility.yul\":2828:2857   */\n      swap1\n      pop\n        /* \"#utility.yul\":2866:2899   */\n      tag_159\n        /* \"#utility.yul\":2893:2898   */\n      dup2\n        /* \"#utility.yul\":2866:2899   */\n      tag_87\n      jump\t// in\n    tag_159:\n        /* \"#utility.yul\":2766:2905   */\n      swap3\n      swap2\n      pop\n      pop\n      jump\t// out\n        /* \"#utility.yul\":2911:4216   */\n    tag_8:\n        /* \"#utility.yul\":3027:3033   */\n      0x00\n        /* \"#utility.yul\":3035:3041   */\n      0x00\n        /* \"#utility.yul\":3043:3049   */\n      0x00\n        /* \"#utility.yul\":3051:3057   */\n      0x00\n        /* \"#utility.yul\":3100:3103   */\n      0x80\n        /* \"#utility.yul\":3088:3097   */\n      dup6\n        /* \"#utility.yul\":3079:3086   */\n      dup8\n        /* \"#utility.yul\":3075:3098   */\n      sub\n        /* \"#utility.yul\":3071:3104   */\n      slt\n        /* \"#utility.yul\":3068:3188   */\n      iszero\n      tag_161\n      jumpi\n        /* \"#utility.yul\":3107:3186   */\n      tag_162\n      tag_74\n      jump\t// in\n    tag_162:\n        /* \"#utility.yul\":3068:3188   */\n    tag_161:\n        /* \"#utility.yul\":3255:3256   */\n      0x00\n        /* \"#utility.yul\":3244:3253   */\n      dup6\n        /* \"#utility.yul\":3240:3257   */\n      add\n        /* \"#utility.yul\":3227:3258   */\n      calldataload\n        /* \"#utility.yul\":3285:3303   */\n      0xffffffffffffffff\n        /* \"#utility.yul\":3277:3283   */\n      dup2\n        /* \"#utility.yul\":3274:3304   */\n      gt\n        /* \"#utility.yul\":3271:3388   */\n      iszero\n      tag_163\n      jumpi\n        /* \"#utility.yul\":3307:3386   */\n      tag_164\n      tag_75\n      jump\t// in\n    tag_164:\n        /* \"#utility.yul\":3271:3388   */\n    tag_163:\n        /* \"#utility.yul\":3412:3475   */\n      tag_165\n        /* \"#utility.yul\":3467:3474   */\n      dup8\n        /* \"#utility.yul\":3458:3464   */\n      dup3\n        /* \"#utility.yul\":3447:3456   */\n      dup9\n        /* \"#utility.yul\":3443:3465   */\n      add\n        /* \"#utility.yul\":3412:3475   */\n      tag_85\n      jump\t// in\n    tag_165:\n        /* \"#utility.yul\":3402:3475   */\n      swap5\n      pop\n        /* \"#utility.yul\":3198:3485   */\n      pop\n        /* \"#utility.yul\":3552:3554   */\n      0x20\n        /* \"#utility.yul\":3541:3550   */\n      dup6\n        /* \"#utility.yul\":3537:3555   */\n      add\n        /* \"#utility.yul\":3524:3556   */\n      calldataload\n        /* \"#utility.yul\":3583:3601   */\n      0xffffffffffffffff\n        /* \"#utility.yul\":3575:3581   */\n      dup2\n        /* \"#utility.yul\":3572:3602   */\n      gt\n        /* \"#utility.yul\":3569:3686   */\n      iszero\n      tag_166\n      jumpi\n        /* \"#utility.yul\":3605:3684   */\n      tag_167\n      tag_75\n      jump\t// in\n    tag_167:\n        /* \"#utility.yul\":3569:3686   */\n    tag_166:\n        /* \"#utility.yul\":3710:3773   */\n      tag_168\n        /* \"#utility.yul\":3765:3772   */\n      dup8\n        /* \"#utility.yul\":3756:3762   */\n      dup3\n        /* \"#utility.yul\":3745:3754   */\n      dup9\n        /* \"#utility.yul\":3741:3763   */\n      add\n        /* \"#utility.yul\":3710:3773   */\n      tag_85\n      jump\t// in\n    tag_168:\n        /* \"#utility.yul\":3700:3773   */\n      swap4\n      pop\n        /* \"#utility.yul\":3495:3783   */\n      pop\n        /* \"#utility.yul\":3822:3824   */\n      0x40\n        /* \"#utility.yul\":3848:3901   */\n      tag_169\n        /* \"#utility.yul\":3893:3900   */\n      dup8\n        /* \"#utility.yul\":3884:3890   */\n      dup3\n        /* \"#utility.yul\":3873:3882   */\n      dup9\n        /* \"#utility.yul\":3869:3891   */\n      add\n        /* \"#utility.yul\":3848:3901   */\n      tag_88\n      jump\t// in\n    tag_169:\n        /* \"#utility.yul\":3838:3901   */\n      swap3\n      pop\n        /* \"#utility.yul\":3793:3911   */\n      pop\n        /* \"#utility.yul\":3978:3980   */\n      0x60\n        /* \"#utility.yul\":3967:3976   */\n      dup6\n        /* \"#utility.yul\":3963:3981   */\n      add\n        /* \"#utility.yul\":3950:3982   */\n      calldataload\n        /* \"#utility.yul\":4009:4027   */\n      0xffffffffffffffff\n        /* \"#utility.yul\":4001:4007   */\n      dup2\n        /* \"#utility.yul\":3998:4028   */\n      gt\n        /* \"#utility.yul\":3995:4112   */\n      iszero\n      tag_170\n      jumpi\n        /* \"#utility.yul\":4031:4110   */\n      tag_171\n      tag_75\n      jump\t// in\n    tag_171:\n        /* \"#utility.yul\":3995:4112   */\n    tag_170:\n        /* \"#utility.yul\":4136:4199   */\n      tag_172\n        /* \"#utility.yul\":4191:4198   */\n      dup8\n        /* \"#utility.yul\":4182:4188   */\n      dup3\n        /* \"#utility.yul\":4171:4180   */\n      dup9\n        /* \"#utility.yul\":4167:4189   */\n      add\n        /* \"#utility.yul\":4136:4199   */\n      tag_85\n      jump\t// in\n    tag_172:\n        /* \"#utility.yul\":4126:4199   */\n      swap2\n      pop\n        /* \"#utility.yul\":3921:4209   */\n      pop\n        /* \"#utility.yul\":2911:4216   */\n      swap3\n      swap6\n      swap2\n      swap5\n      pop\n      swap3\n      pop\n      jump\t// out\n        /* \"#utility.yul\":4222:4551   */\n    tag_12:\n        /* \"#utility.yul\":4281:4287   */\n      0x00\n        /* \"#utility.yul\":4330:4332   */\n      0x20\n        /* \"#utility.yul\":4318:4327   */\n      dup3\n        /* \"#utility.yul\":4309:4316   */\n      dup5\n        /* \"#utility.yul\":4305:4328   */\n      sub\n        /* \"#utility.yul\":4301:4333   */\n      slt\n        /* \"#utility.yul\":4298:4417   */\n      iszero\n      tag_174\n      jumpi\n        /* \"#utility.yul\":4336:4415   */\n      tag_175\n      tag_74\n      jump\t// in\n    tag_175:\n        /* \"#utility.yul\":4298:4417   */\n    tag_174:\n        /* \"#utility.yul\":4456:4457   */\n      0x00\n        /* \"#utility.yul\":4481:4534   */\n      tag_176\n        /* \"#utility.yul\":4526:4533   */\n      dup5\n        /* \"#utility.yul\":4517:4523   */\n      dup3\n        /* \"#utility.yul\":4506:4515   */\n      dup6\n        /* \"#utility.yul\":4502:4524   */\n      add\n        /* \"#utility.yul\":4481:4534   */\n      tag_88\n      jump\t// in\n    tag_176:\n        /* \"#utility.yul\":4471:4534   */\n      swap2\n      pop\n        /* \"#utility.yul\":4427:4544   */\n      pop\n        /* \"#utility.yul\":4222:4551   */\n      swap3\n      swap2\n      pop\n      pop\n      jump\t// out\n        /* \"#utility.yul\":4557:4656   */\n    tag_89:\n        /* \"#utility.yul\":4609:4615   */\n      0x00\n        /* \"#utility.yul\":4643:4648   */\n      dup2\n        /* \"#utility.yul\":4637:4649   */\n      mload\n        /* \"#utility.yul\":4627:4649   */\n      swap1\n      pop\n        /* \"#utility.yul\":4557:4656   */\n      swap2\n      swap1\n      pop\n      jump\t// out\n        /* \"#utility.yul\":4662:4831   */\n    tag_90:\n        /* \"#utility.yul\":4746:4757   */\n      0x00\n        /* \"#utility.yul\":4780:4786   */\n      dup3\n        /* \"#utility.yul\":4775:4778   */\n      dup3\n        /* \"#utility.yul\":4768:4787   */\n      mstore\n        /* \"#utility.yul\":4820:4824   */\n      0x20\n        /* \"#utility.yul\":4815:4818   */\n      dup3\n        /* \"#utility.yul\":4811:4825   */\n      add\n        /* \"#utility.yul\":4796:4825   */\n      swap1\n      pop\n        /* \"#utility.yul\":4662:4831   */\n      swap3\n      swap2\n      pop\n      pop\n      jump\t// out\n        /* \"#utility.yul\":4837:4976   */\n    tag_91:\n        /* \"#utility.yul\":4926:4932   */\n      dup3\n        /* \"#utility.yul\":4921:4924   */\n      dup2\n        /* \"#utility.yul\":4916:4919   */\n      dup4\n        /* \"#utility.yul\":4910:4933   */\n      mcopy\n        /* \"#utility.yul\":4967:4968   */\n      0x00\n        /* \"#utility.yul\":4958:4964   */\n      dup4\n        /* \"#utility.yul\":4953:4956   */\n      dup4\n        /* \"#utility.yul\":4949:4965   */\n      add\n        /* \"#utility.yul\":4942:4969   */\n      mstore\n        /* \"#utility.yul\":4837:4976   */\n      pop\n      pop\n      pop\n      jump\t// out\n        /* \"#utility.yul\":4982:5359   */\n    tag_92:\n        /* \"#utility.yul\":5070:5073   */\n      0x00\n        /* \"#utility.yul\":5098:5137   */\n      tag_181\n        /* \"#utility.yul\":5131:5136   */\n      dup3\n        /* \"#utility.yul\":5098:5137   */\n      tag_89\n      jump\t// in\n    tag_181:\n        /* \"#utility.yul\":5153:5224   */\n      tag_182\n        /* \"#utility.yul\":5217:5223   */\n      dup2\n        /* \"#utility.yul\":5212:5215   */\n      dup6\n        /* \"#utility.yul\":5153:5224   */\n      tag_90\n      jump\t// in\n    tag_182:\n        /* \"#utility.yul\":5146:5224   */\n      swap4\n      pop\n        /* \"#utility.yul\":5233:5298   */\n      tag_183\n        /* \"#utility.yul\":5291:5297   */\n      dup2\n        /* \"#utility.yul\":5286:5289   */\n      dup6\n        /* \"#utility.yul\":5279:5283   */\n      0x20\n        /* \"#utility.yul\":5272:5277   */\n      dup7\n        /* \"#utility.yul\":5268:5284   */\n      add\n        /* \"#utility.yul\":5233:5298   */\n      tag_91\n      jump\t// in\n    tag_183:\n        /* \"#utility.yul\":5323:5352   */\n      tag_184\n        /* \"#utility.yul\":5345:5351   */\n      dup2\n        /* \"#utility.yul\":5323:5352   */\n      tag_78\n      jump\t// in\n    tag_184:\n        /* \"#utility.yul\":5318:5321   */\n      dup5\n        /* \"#utility.yul\":5314:5353   */\n      add\n        /* \"#utility.yul\":5307:5353   */\n      swap2\n      pop\n        /* \"#utility.yul\":5074:5359   */\n      pop\n        /* \"#utility.yul\":4982:5359   */\n      swap3\n      swap2\n      pop\n      pop\n      jump\t// out\n        /* \"#utility.yul\":5365:5483   */\n    tag_93:\n        /* \"#utility.yul\":5452:5476   */\n      tag_186\n        /* \"#utility.yul\":5470:5475   */\n      dup2\n        /* \"#utility.yul\":5452:5476   */\n      tag_86\n      jump\t// in\n    tag_186:\n        /* \"#utility.yul\":5447:5450   */\n      dup3\n        /* \"#utility.yul\":5440:5477   */\n      mstore\n        /* \"#utility.yul\":5365:5483   */\n      pop\n      pop\n      jump\t// out\n        /* \"#utility.yul\":5489:6315   */\n    tag_15:\n        /* \"#utility.yul\":5726:5730   */\n      0x00\n        /* \"#utility.yul\":5764:5767   */\n      0x80\n        /* \"#utility.yul\":5753:5762   */\n      dup3\n        /* \"#utility.yul\":5749:5768   */\n      add\n        /* \"#utility.yul\":5741:5768   */\n      swap1\n      pop\n        /* \"#utility.yul\":5814:5823   */\n      dup2\n        /* \"#utility.yul\":5808:5812   */\n      dup2\n        /* \"#utility.yul\":5804:5824   */\n      sub\n        /* \"#utility.yul\":5800:5801   */\n      0x00\n        /* \"#utility.yul\":5789:5798   */\n      dup4\n        /* \"#utility.yul\":5785:5802   */\n      add\n        /* \"#utility.yul\":5778:5825   */\n      mstore\n        /* \"#utility.yul\":5842:5920   */\n      tag_188\n        /* \"#utility.yul\":5915:5919   */\n      dup2\n        /* \"#utility.yul\":5906:5912   */\n      dup8\n        /* \"#utility.yul\":5842:5920   */\n      tag_92\n      jump\t// in\n    tag_188:\n        /* \"#utility.yul\":5834:5920   */\n      swap1\n      pop\n        /* \"#utility.yul\":5930:6002   */\n      tag_189\n        /* \"#utility.yul\":5998:6000   */\n      0x20\n        /* \"#utility.yul\":5987:5996   */\n      dup4\n        /* \"#utility.yul\":5983:6001   */\n      add\n        /* \"#utility.yul\":5974:5980   */\n      dup7\n        /* \"#utility.yul\":5930:6002   */\n      tag_93\n      jump\t// in\n    tag_189:\n        /* \"#utility.yul\":6049:6058   */\n      dup2\n        /* \"#utility.yul\":6043:6047   */\n      dup2\n        /* \"#utility.yul\":6039:6059   */\n      sub\n        /* \"#utility.yul\":6034:6036   */\n      0x40\n        /* \"#utility.yul\":6023:6032   */\n      dup4\n        /* \"#utility.yul\":6019:6037   */\n      add\n        /* \"#utility.yul\":6012:6060   */\n      mstore\n        /* \"#utility.yul\":6077:6155   */\n      tag_190\n        /* \"#utility.yul\":6150:6154   */\n      dup2\n        /* \"#utility.yul\":6141:6147   */\n      dup6\n        /* \"#utility.yul\":6077:6155   */\n      tag_92\n      jump\t// in\n    tag_190:\n        /* \"#utility.yul\":6069:6155   */\n      swap1\n      pop\n        /* \"#utility.yul\":6202:6211   */\n      dup2\n        /* \"#utility.yul\":6196:6200   */\n      dup2\n        /* \"#utility.yul\":6192:6212   */\n      sub\n        /* \"#utility.yul\":6187:6189   */\n      0x60\n        /* \"#utility.yul\":6176:6185   */\n      dup4\n        /* \"#utility.yul\":6172:6190   */\n      add\n        /* \"#utility.yul\":6165:6213   */\n      mstore\n        /* \"#utility.yul\":6230:6308   */\n      tag_191\n        /* \"#utility.yul\":6303:6307   */\n      dup2\n        /* \"#utility.yul\":6294:6300   */\n      dup5\n        /* \"#utility.yul\":6230:6308   */\n      tag_92\n      jump\t// in\n    tag_191:\n        /* \"#utility.yul\":6222:6308   */\n      swap1\n      pop\n        /* \"#utility.yul\":5489:6315   */\n      swap6\n      swap5\n      pop\n      pop\n      pop\n      pop\n      pop\n      jump\t// out\n        /* \"#utility.yul\":6321:6457   */\n    tag_94:\n        /* \"#utility.yul\":6410:6416   */\n      0x00\n        /* \"#utility.yul\":6444:6449   */\n      dup2\n        /* \"#utility.yul\":6438:6450   */\n      mload\n        /* \"#utility.yul\":6428:6450   */\n      swap1\n      pop\n        /* \"#utility.yul\":6321:6457   */\n      swap2\n      swap1\n      pop\n      jump\t// out\n        /* \"#utility.yul\":6463:6669   */\n    tag_95:\n        /* \"#utility.yul\":6584:6595   */\n      0x00\n        /* \"#utility.yul\":6618:6624   */\n      dup3\n        /* \"#utility.yul\":6613:6616   */\n      dup3\n        /* \"#utility.yul\":6606:6625   */\n      mstore\n        /* \"#utility.yul\":6658:6662   */\n      0x20\n        /* \"#utility.yul\":6653:6656   */\n      dup3\n        /* \"#utility.yul\":6649:6663   */\n      add\n        /* \"#utility.yul\":6634:6663   */\n      swap1\n      pop\n        /* \"#utility.yul\":6463:6669   */\n      swap3\n      swap2\n      pop\n      pop\n      jump\t// out\n        /* \"#utility.yul\":6675:6829   */\n    tag_96:\n        /* \"#utility.yul\":6764:6768   */\n      0x00\n        /* \"#utility.yul\":6787:6790   */\n      dup2\n        /* \"#utility.yul\":6779:6790   */\n      swap1\n      pop\n        /* \"#utility.yul\":6817:6821   */\n      0x20\n        /* \"#utility.yul\":6812:6815   */\n      dup3\n        /* \"#utility.yul\":6808:6822   */\n      add\n        /* \"#utility.yul\":6800:6822   */\n      swap1\n      pop\n        /* \"#utility.yul\":6675:6829   */\n      swap2\n      swap1\n      pop\n      jump\t// out\n        /* \"#utility.yul\":6835:6994   */\n    tag_97:\n        /* \"#utility.yul\":6909:6920   */\n      0x00\n        /* \"#utility.yul\":6943:6949   */\n      dup3\n        /* \"#utility.yul\":6938:6941   */\n      dup3\n        /* \"#utility.yul\":6931:6950   */\n      mstore\n        /* \"#utility.yul\":6983:6987   */\n      0x20\n        /* \"#utility.yul\":6978:6981   */\n      dup3\n        /* \"#utility.yul\":6974:6988   */\n      add\n        /* \"#utility.yul\":6959:6988   */\n      swap1\n      pop\n        /* \"#utility.yul\":6835:6994   */\n      swap3\n      swap2\n      pop\n      pop\n      jump\t// out\n        /* \"#utility.yul\":7000:7357   */\n    tag_98:\n        /* \"#utility.yul\":7078:7081   */\n      0x00\n        /* \"#utility.yul\":7106:7145   */\n      tag_197\n        /* \"#utility.yul\":7139:7144   */\n      dup3\n        /* \"#utility.yul\":7106:7145   */\n      tag_89\n      jump\t// in\n    tag_197:\n        /* \"#utility.yul\":7161:7222   */\n      tag_198\n        /* \"#utility.yul\":7215:7221   */\n      dup2\n        /* \"#utility.yul\":7210:7213   */\n      dup6\n        /* \"#utility.yul\":7161:7222   */\n      tag_97\n      jump\t// in\n    tag_198:\n        /* \"#utility.yul\":7154:7222   */\n      swap4\n      pop\n        /* \"#utility.yul\":7231:7296   */\n      tag_199\n        /* \"#utility.yul\":7289:7295   */\n      dup2\n        /* \"#utility.yul\":7284:7287   */\n      dup6\n        /* \"#utility.yul\":7277:7281   */\n      0x20\n        /* \"#utility.yul\":7270:7275   */\n      dup7\n        /* \"#utility.yul\":7266:7282   */\n      add\n        /* \"#utility.yul\":7231:7296   */\n      tag_91\n      jump\t// in\n    tag_199:\n        /* \"#utility.yul\":7321:7350   */\n      tag_200\n        /* \"#utility.yul\":7343:7349   */\n      dup2\n        /* \"#utility.yul\":7321:7350   */\n      tag_78\n      jump\t// in\n    tag_200:\n        /* \"#utility.yul\":7316:7319   */\n      dup5\n        /* \"#utility.yul\":7312:7351   */\n      add\n        /* \"#utility.yul\":7305:7351   */\n      swap2\n      pop\n        /* \"#utility.yul\":7082:7357   */\n      pop\n        /* \"#utility.yul\":7000:7357   */\n      swap3\n      swap2\n      pop\n      pop\n      jump\t// out\n        /* \"#utility.yul\":7363:7471   */\n    tag_99:\n        /* \"#utility.yul\":7440:7464   */\n      tag_202\n        /* \"#utility.yul\":7458:7463   */\n      dup2\n        /* \"#utility.yul\":7440:7464   */\n      tag_86\n      jump\t// in\n    tag_202:\n        /* \"#utility.yul\":7435:7438   */\n      dup3\n        /* \"#utility.yul\":7428:7465   */\n      mstore\n        /* \"#utility.yul\":7363:7471   */\n      pop\n      pop\n      jump\t// out\n        /* \"#utility.yul\":7531:8616   */\n    tag_100:\n        /* \"#utility.yul\":7634:7637   */\n      0x00\n        /* \"#utility.yul\":7670:7674   */\n      0x80\n        /* \"#utility.yul\":7665:7668   */\n      dup4\n        /* \"#utility.yul\":7661:7675   */\n      add\n        /* \"#utility.yul\":7758:7762   */\n      0x00\n        /* \"#utility.yul\":7751:7756   */\n      dup4\n        /* \"#utility.yul\":7747:7763   */\n      add\n        /* \"#utility.yul\":7741:7764   */\n      mload\n        /* \"#utility.yul\":7811:7814   */\n      dup5\n        /* \"#utility.yul\":7805:7809   */\n      dup3\n        /* \"#utility.yul\":7801:7815   */\n      sub\n        /* \"#utility.yul\":7794:7798   */\n      0x00\n        /* \"#utility.yul\":7789:7792   */\n      dup7\n        /* \"#utility.yul\":7785:7799   */\n      add\n        /* \"#utility.yul\":7778:7816   */\n      mstore\n        /* \"#utility.yul\":7837:7910   */\n      tag_204\n        /* \"#utility.yul\":7905:7909   */\n      dup3\n        /* \"#utility.yul\":7891:7903   */\n      dup3\n        /* \"#utility.yul\":7837:7910   */\n      tag_98\n      jump\t// in\n    tag_204:\n        /* \"#utility.yul\":7829:7910   */\n      swap2\n      pop\n        /* \"#utility.yul\":7685:7921   */\n      pop\n        /* \"#utility.yul\":8003:8007   */\n      0x20\n        /* \"#utility.yul\":7996:8001   */\n      dup4\n        /* \"#utility.yul\":7992:8008   */\n      add\n        /* \"#utility.yul\":7986:8009   */\n      mload\n        /* \"#utility.yul\":8022:8085   */\n      tag_205\n        /* \"#utility.yul\":8079:8083   */\n      0x20\n        /* \"#utility.yul\":8074:8077   */\n      dup7\n        /* \"#utility.yul\":8070:8084   */\n      add\n        /* \"#utility.yul\":8056:8068   */\n      dup3\n        /* \"#utility.yul\":8022:8085   */\n      tag_99\n      jump\t// in\n    tag_205:\n        /* \"#utility.yul\":7931:8095   */\n      pop\n        /* \"#utility.yul\":8177:8181   */\n      0x40\n        /* \"#utility.yul\":8170:8175   */\n      dup4\n        /* \"#utility.yul\":8166:8182   */\n      add\n        /* \"#utility.yul\":8160:8183   */\n      mload\n        /* \"#utility.yul\":8230:8233   */\n      dup5\n        /* \"#utility.yul\":8224:8228   */\n      dup3\n        /* \"#utility.yul\":8220:8234   */\n      sub\n        /* \"#utility.yul\":8213:8217   */\n      0x40\n        /* \"#utility.yul\":8208:8211   */\n      dup7\n        /* \"#utility.yul\":8204:8218   */\n      add\n        /* \"#utility.yul\":8197:8235   */\n      mstore\n        /* \"#utility.yul\":8256:8329   */\n      tag_206\n        /* \"#utility.yul\":8324:8328   */\n      dup3\n        /* \"#utility.yul\":8310:8322   */\n      dup3\n        /* \"#utility.yul\":8256:8329   */\n      tag_98\n      jump\t// in\n    tag_206:\n        /* \"#utility.yul\":8248:8329   */\n      swap2\n      pop\n        /* \"#utility.yul\":8105:8340   */\n      pop\n        /* \"#utility.yul\":8426:8430   */\n      0x60\n        /* \"#utility.yul\":8419:8424   */\n      dup4\n        /* \"#utility.yul\":8415:8431   */\n      add\n        /* \"#utility.yul\":8409:8432   */\n      mload\n        /* \"#utility.yul\":8479:8482   */\n      dup5\n        /* \"#utility.yul\":8473:8477   */\n      dup3\n        /* \"#utility.yul\":8469:8483   */\n      sub\n        /* \"#utility.yul\":8462:8466   */\n      0x60\n        /* \"#utility.yul\":8457:8460   */\n      dup7\n        /* \"#utility.yul\":8453:8467   */\n      add\n        /* \"#utility.yul\":8446:8484   */\n      mstore\n        /* \"#utility.yul\":8505:8578   */\n      tag_207\n        /* \"#utility.yul\":8573:8577   */\n      dup3\n        /* \"#utility.yul\":8559:8571   */\n      dup3\n        /* \"#utility.yul\":8505:8578   */\n      tag_98\n      jump\t// in\n    tag_207:\n        /* \"#utility.yul\":8497:8578   */\n      swap2\n      pop\n        /* \"#utility.yul\":8350:8589   */\n      pop\n        /* \"#utility.yul\":8606:8610   */\n      dup1\n        /* \"#utility.yul\":8599:8610   */\n      swap2\n      pop\n        /* \"#utility.yul\":7639:8616   */\n      pop\n        /* \"#utility.yul\":7531:8616   */\n      swap3\n      swap2\n      pop\n      pop\n      jump\t// out\n        /* \"#utility.yul\":8622:8866   */\n    tag_101:\n        /* \"#utility.yul\":8735:8745   */\n      0x00\n        /* \"#utility.yul\":8770:8860   */\n      tag_209\n        /* \"#utility.yul\":8856:8859   */\n      dup4\n        /* \"#utility.yul\":8848:8854   */\n      dup4\n        /* \"#utility.yul\":8770:8860   */\n      tag_100\n      jump\t// in\n    tag_209:\n        /* \"#utility.yul\":8756:8860   */\n      swap1\n      pop\n        /* \"#utility.yul\":8622:8866   */\n      swap3\n      swap2\n      pop\n      pop\n      jump\t// out\n        /* \"#utility.yul\":8872:9007   */\n    tag_102:\n        /* \"#utility.yul\":8964:8968   */\n      0x00\n        /* \"#utility.yul\":8996:9000   */\n      0x20\n        /* \"#utility.yul\":8991:8994   */\n      dup3\n        /* \"#utility.yul\":8987:9001   */\n      add\n        /* \"#utility.yul\":8979:9001   */\n      swap1\n      pop\n        /* \"#utility.yul\":8872:9007   */\n      swap2\n      swap1\n      pop\n      jump\t// out\n        /* \"#utility.yul\":9071:10158   */\n    tag_103:\n        /* \"#utility.yul\":9234:9237   */\n      0x00\n        /* \"#utility.yul\":9263:9339   */\n      tag_212\n        /* \"#utility.yul\":9333:9338   */\n      dup3\n        /* \"#utility.yul\":9263:9339   */\n      tag_94\n      jump\t// in\n    tag_212:\n        /* \"#utility.yul\":9355:9463   */\n      tag_213\n        /* \"#utility.yul\":9456:9462   */\n      dup2\n        /* \"#utility.yul\":9451:9454   */\n      dup6\n        /* \"#utility.yul\":9355:9463   */\n      tag_95\n      jump\t// in\n    tag_213:\n        /* \"#utility.yul\":9348:9463   */\n      swap4\n      pop\n        /* \"#utility.yul\":9489:9492   */\n      dup4\n        /* \"#utility.yul\":9534:9538   */\n      0x20\n        /* \"#utility.yul\":9526:9532   */\n      dup3\n        /* \"#utility.yul\":9522:9539   */\n      mul\n        /* \"#utility.yul\":9517:9520   */\n      dup6\n        /* \"#utility.yul\":9513:9540   */\n      add\n        /* \"#utility.yul\":9564:9642   */\n      tag_214\n        /* \"#utility.yul\":9636:9641   */\n      dup6\n        /* \"#utility.yul\":9564:9642   */\n      tag_96\n      jump\t// in\n    tag_214:\n        /* \"#utility.yul\":9665:9672   */\n      dup1\n        /* \"#utility.yul\":9696:9697   */\n      0x00\n        /* \"#utility.yul\":9681:10113   */\n    tag_215:\n        /* \"#utility.yul\":9706:9712   */\n      dup6\n        /* \"#utility.yul\":9703:9704   */\n      dup2\n        /* \"#utility.yul\":9700:9713   */\n      lt\n        /* \"#utility.yul\":9681:10113   */\n      iszero\n      tag_217\n      jumpi\n        /* \"#utility.yul\":9777:9786   */\n      dup5\n        /* \"#utility.yul\":9771:9775   */\n      dup5\n        /* \"#utility.yul\":9767:9787   */\n      sub\n        /* \"#utility.yul\":9762:9765   */\n      dup10\n        /* \"#utility.yul\":9755:9788   */\n      mstore\n        /* \"#utility.yul\":9828:9834   */\n      dup2\n        /* \"#utility.yul\":9822:9835   */\n      mload\n        /* \"#utility.yul\":9856:9964   */\n      tag_218\n        /* \"#utility.yul\":9959:9963   */\n      dup6\n        /* \"#utility.yul\":9944:9957   */\n      dup3\n        /* \"#utility.yul\":9856:9964   */\n      tag_101\n      jump\t// in\n    tag_218:\n        /* \"#utility.yul\":9848:9964   */\n      swap5\n      pop\n        /* \"#utility.yul\":9987:10069   */\n      tag_219\n        /* \"#utility.yul\":10062:10068   */\n      dup4\n        /* \"#utility.yul\":9987:10069   */\n      tag_102\n      jump\t// in\n    tag_219:\n        /* \"#utility.yul\":9977:10069   */\n      swap3\n      pop\n        /* \"#utility.yul\":10098:10102   */\n      0x20\n        /* \"#utility.yul\":10093:10096   */\n      dup11\n        /* \"#utility.yul\":10089:10103   */\n      add\n        /* \"#utility.yul\":10082:10103   */\n      swap10\n      pop\n        /* \"#utility.yul\":9741:10113   */\n      pop\n        /* \"#utility.yul\":9728:9729   */\n      0x01\n        /* \"#utility.yul\":9725:9726   */\n      dup2\n        /* \"#utility.yul\":9721:9730   */\n      add\n        /* \"#utility.yul\":9716:9730   */\n      swap1\n      pop\n        /* \"#utility.yul\":9681:10113   */\n      jump(tag_215)\n    tag_217:\n        /* \"#utility.yul\":9685:9699   */\n      pop\n        /* \"#utility.yul\":10129:10133   */\n      dup3\n        /* \"#utility.yul\":10122:10133   */\n      swap8\n      pop\n        /* \"#utility.yul\":10149:10152   */\n      dup8\n        /* \"#utility.yul\":10142:10152   */\n      swap6\n      pop\n        /* \"#utility.yul\":9239:10158   */\n      pop\n      pop\n      pop\n      pop\n      pop\n        /* \"#utility.yul\":9071:10158   */\n      swap3\n      swap2\n      pop\n      pop\n      jump\t// out\n        /* \"#utility.yul\":10164:10625   */\n    tag_19:\n        /* \"#utility.yul\":10351:10355   */\n      0x00\n        /* \"#utility.yul\":10389:10391   */\n      0x20\n        /* \"#utility.yul\":10378:10387   */\n      dup3\n        /* \"#utility.yul\":10374:10392   */\n      add\n        /* \"#utility.yul\":10366:10392   */\n      swap1\n      pop\n        /* \"#utility.yul\":10438:10447   */\n      dup2\n        /* \"#utility.yul\":10432:10436   */\n      dup2\n        /* \"#utility.yul\":10428:10448   */\n      sub\n        /* \"#utility.yul\":10424:10425   */\n      0x00\n        /* \"#utility.yul\":10413:10422   */\n      dup4\n        /* \"#utility.yul\":10409:10426   */\n      add\n        /* \"#utility.yul\":10402:10449   */\n      mstore\n        /* \"#utility.yul\":10466:10618   */\n      tag_221\n        /* \"#utility.yul\":10613:10617   */\n      dup2\n        /* \"#utility.yul\":10604:10610   */\n      dup5\n        /* \"#utility.yul\":10466:10618   */\n      tag_103\n      jump\t// in\n    tag_221:\n        /* \"#utility.yul\":10458:10618   */\n      swap1\n      pop\n        /* \"#utility.yul\":10164:10625   */\n      swap3\n      swap2\n      pop\n      pop\n      jump\t// out\n        /* \"#utility.yul\":10631:10779   */\n    tag_104:\n        /* \"#utility.yul\":10733:10744   */\n      0x00\n        /* \"#utility.yul\":10770:10773   */\n      dup2\n        /* \"#utility.yul\":10755:10773   */\n      swap1\n      pop\n        /* \"#utility.yul\":10631:10779   */\n      swap3\n      swap2\n      pop\n      pop\n      jump\t// out\n        /* \"#utility.yul\":10785:11175   */\n    tag_105:\n        /* \"#utility.yul\":10891:10894   */\n      0x00\n        /* \"#utility.yul\":10919:10958   */\n      tag_224\n        /* \"#utility.yul\":10952:10957   */\n      dup3\n        /* \"#utility.yul\":10919:10958   */\n      tag_89\n      jump\t// in\n    tag_224:\n        /* \"#utility.yul\":10974:11063   */\n      tag_225\n        /* \"#utility.yul\":11056:11062   */\n      dup2\n        /* \"#utility.yul\":11051:11054   */\n      dup6\n        /* \"#utility.yul\":10974:11063   */\n      tag_104\n      jump\t// in\n    tag_225:\n        /* \"#utility.yul\":10967:11063   */\n      swap4\n      pop\n        /* \"#utility.yul\":11072:11137   */\n      tag_226\n        /* \"#utility.yul\":11130:11136   */\n      dup2\n        /* \"#utility.yul\":11125:11128   */\n      dup6\n        /* \"#utility.yul\":11118:11122   */\n      0x20\n        /* \"#utility.yul\":11111:11116   */\n      dup7\n        /* \"#utility.yul\":11107:11123   */\n      add\n        /* \"#utility.yul\":11072:11137   */\n      tag_91\n      jump\t// in\n    tag_226:\n        /* \"#utility.yul\":11162:11168   */\n      dup1\n        /* \"#utility.yul\":11157:11160   */\n      dup5\n        /* \"#utility.yul\":11153:11169   */\n      add\n        /* \"#utility.yul\":11146:11169   */\n      swap2\n      pop\n        /* \"#utility.yul\":10895:11175   */\n      pop\n        /* \"#utility.yul\":10785:11175   */\n      swap3\n      swap2\n      pop\n      pop\n      jump\t// out\n        /* \"#utility.yul\":11181:11456   */\n    tag_22:\n        /* \"#utility.yul\":11313:11316   */\n      0x00\n        /* \"#utility.yul\":11335:11430   */\n      tag_228\n        /* \"#utility.yul\":11426:11429   */\n      dup3\n        /* \"#utility.yul\":11417:11423   */\n      dup5\n        /* \"#utility.yul\":11335:11430   */\n      tag_105\n      jump\t// in\n    tag_228:\n        /* \"#utility.yul\":11328:11430   */\n      swap2\n      pop\n        /* \"#utility.yul\":11447:11450   */\n      dup2\n        /* \"#utility.yul\":11440:11450   */\n      swap1\n      pop\n        /* \"#utility.yul\":11181:11456   */\n      swap3\n      swap2\n      pop\n      pop\n      jump\t// out\n        /* \"#utility.yul\":11462:11633   */\n    tag_106:\n        /* \"#utility.yul\":11602:11625   */\n      0x436f7572736520616c7265616479206164646564210000000000000000000000\n        /* \"#utility.yul\":11598:11599   */\n      0x00\n        /* \"#utility.yul\":11590:11596   */\n      dup3\n        /* \"#utility.yul\":11586:11600   */\n      add\n        /* \"#utility.yul\":11579:11626   */\n      mstore\n        /* \"#utility.yul\":11462:11633   */\n      pop\n      jump\t// out\n        /* \"#utility.yul\":11639:12005   */\n    tag_107:\n        /* \"#utility.yul\":11781:11784   */\n      0x00\n        /* \"#utility.yul\":11802:11869   */\n      tag_231\n        /* \"#utility.yul\":11866:11868   */\n      0x15\n        /* \"#utility.yul\":11861:11864   */\n      dup4\n        /* \"#utility.yul\":11802:11869   */\n      tag_90\n      jump\t// in\n    tag_231:\n        /* \"#utility.yul\":11795:11869   */\n      swap2\n      pop\n        /* \"#utility.yul\":11878:11971   */\n      tag_232\n        /* \"#utility.yul\":11967:11970   */\n      dup3\n        /* \"#utility.yul\":11878:11971   */\n      tag_106\n      jump\t// in\n    tag_232:\n        /* \"#utility.yul\":11996:11998   */\n      0x20\n        /* \"#utility.yul\":11991:11994   */\n      dup3\n        /* \"#utility.yul\":11987:11999   */\n      add\n        /* \"#utility.yul\":11980:11999   */\n      swap1\n      pop\n        /* \"#utility.yul\":11639:12005   */\n      swap2\n      swap1\n      pop\n      jump\t// out\n        /* \"#utility.yul\":12011:12430   */\n    tag_25:\n        /* \"#utility.yul\":12177:12181   */\n      0x00\n        /* \"#utility.yul\":12215:12217   */\n      0x20\n        /* \"#utility.yul\":12204:12213   */\n      dup3\n        /* \"#utility.yul\":12200:12218   */\n      add\n        /* \"#utility.yul\":12192:12218   */\n      swap1\n      pop\n        /* \"#utility.yul\":12264:12273   */\n      dup2\n        /* \"#utility.yul\":12258:12262   */\n      dup2\n        /* \"#utility.yul\":12254:12274   */\n      sub\n        /* \"#utility.yul\":12250:12251   */\n      0x00\n        /* \"#utility.yul\":12239:12248   */\n      dup4\n        /* \"#utility.yul\":12235:12252   */\n      add\n        /* \"#utility.yul\":12228:12275   */\n      mstore\n        /* \"#utility.yul\":12292:12423   */\n      tag_234\n        /* \"#utility.yul\":12418:12422   */\n      dup2\n        /* \"#utility.yul\":12292:12423   */\n      tag_107\n      jump\t// in\n    tag_234:\n        /* \"#utility.yul\":12284:12423   */\n      swap1\n      pop\n        /* \"#utility.yul\":12011:12430   */\n      swap2\n      swap1\n      pop\n      jump\t// out\n        /* \"#utility.yul\":12436:12616   */\n    tag_108:\n        /* \"#utility.yul\":12484:12561   */\n      0x4e487b7100000000000000000000000000000000000000000000000000000000\n        /* \"#utility.yul\":12481:12482   */\n      0x00\n        /* \"#utility.yul\":12474:12562   */\n      mstore\n        /* \"#utility.yul\":12581:12585   */\n      0x22\n        /* \"#utility.yul\":12578:12579   */\n      0x04\n        /* \"#utility.yul\":12571:12586   */\n      mstore\n        /* \"#utility.yul\":12605:12609   */\n      0x24\n        /* \"#utility.yul\":12602:12603   */\n      0x00\n        /* \"#utility.yul\":12595:12610   */\n      revert\n        /* \"#utility.yul\":12622:12942   */\n    tag_39:\n        /* \"#utility.yul\":12666:12672   */\n      0x00\n        /* \"#utility.yul\":12703:12704   */\n      0x02\n        /* \"#utility.yul\":12697:12701   */\n      dup3\n        /* \"#utility.yul\":12693:12705   */\n      div\n        /* \"#utility.yul\":12683:12705   */\n      swap1\n      pop\n        /* \"#utility.yul\":12750:12751   */\n      0x01\n        /* \"#utility.yul\":12744:12748   */\n      dup3\n        /* \"#utility.yul\":12740:12752   */\n      and\n        /* \"#utility.yul\":12771:12789   */\n      dup1\n        /* \"#utility.yul\":12761:12842   */\n      tag_237\n      jumpi\n        /* \"#utility.yul\":12827:12831   */\n      0x7f\n        /* \"#utility.yul\":12819:12825   */\n      dup3\n        /* \"#utility.yul\":12815:12832   */\n      and\n        /* \"#utility.yul\":12805:12832   */\n      swap2\n      pop\n        /* \"#utility.yul\":12761:12842   */\n    tag_237:\n        /* \"#utility.yul\":12889:12891   */\n      0x20\n        /* \"#utility.yul\":12881:12887   */\n      dup3\n        /* \"#utility.yul\":12878:12892   */\n      lt\n        /* \"#utility.yul\":12858:12876   */\n      dup2\n        /* \"#utility.yul\":12855:12893   */\n      sub\n        /* \"#utility.yul\":12852:12936   */\n      tag_238\n      jumpi\n        /* \"#utility.yul\":12908:12926   */\n      tag_239\n      tag_108\n      jump\t// in\n    tag_239:\n        /* \"#utility.yul\":12852:12936   */\n    tag_238:\n        /* \"#utility.yul\":12673:12942   */\n      pop\n        /* \"#utility.yul\":12622:12942   */\n      swap2\n      swap1\n      pop\n      jump\t// out\n        /* \"#utility.yul\":12948:13089   */\n    tag_109:\n        /* \"#utility.yul\":12997:13001   */\n      0x00\n        /* \"#utility.yul\":13020:13023   */\n      dup2\n        /* \"#utility.yul\":13012:13023   */\n      swap1\n      pop\n        /* \"#utility.yul\":13043:13046   */\n      dup2\n        /* \"#utility.yul\":13040:13041   */\n      0x00\n        /* \"#utility.yul\":13033:13047   */\n      mstore\n        /* \"#utility.yul\":13077:13081   */\n      0x20\n        /* \"#utility.yul\":13074:13075   */\n      0x00\n        /* \"#utility.yul\":13064:13082   */\n      keccak256\n        /* \"#utility.yul\":13056:13082   */\n      swap1\n      pop\n        /* \"#utility.yul\":12948:13089   */\n      swap2\n      swap1\n      pop\n      jump\t// out\n        /* \"#utility.yul\":13095:13188   */\n    tag_110:\n        /* \"#utility.yul\":13132:13138   */\n      0x00\n        /* \"#utility.yul\":13179:13181   */\n      0x20\n        /* \"#utility.yul\":13174:13176   */\n      0x1f\n        /* \"#utility.yul\":13167:13172   */\n      dup4\n        /* \"#utility.yul\":13163:13177   */\n      add\n        /* \"#utility.yul\":13159:13182   */\n      div\n        /* \"#utility.yul\":13149:13182   */\n      swap1\n      pop\n        /* \"#utility.yul\":13095:13188   */\n      swap2\n      swap1\n      pop\n      jump\t// out\n        /* \"#utility.yul\":13194:13301   */\n    tag_111:\n        /* \"#utility.yul\":13238:13246   */\n      0x00\n        /* \"#utility.yul\":13288:13293   */\n      dup3\n        /* \"#utility.yul\":13282:13286   */\n      dup3\n        /* \"#utility.yul\":13278:13294   */\n      shl\n        /* \"#utility.yul\":13257:13294   */\n      swap1\n      pop\n        /* \"#utility.yul\":13194:13301   */\n      swap3\n      swap2\n      pop\n      pop\n      jump\t// out\n        /* \"#utility.yul\":13307:13700   */\n    tag_112:\n        /* \"#utility.yul\":13376:13382   */\n      0x00\n        /* \"#utility.yul\":13426:13427   */\n      0x08\n        /* \"#utility.yul\":13414:13424   */\n      dup4\n        /* \"#utility.yul\":13410:13428   */\n      mul\n        /* \"#utility.yul\":13449:13546   */\n      tag_244\n        /* \"#utility.yul\":13479:13545   */\n      0xffffffffffffffffffffffffffffffffffffffffffffffffffffffffffffffff\n        /* \"#utility.yul\":13468:13477   */\n      dup3\n        /* \"#utility.yul\":13449:13546   */\n      tag_111\n      jump\t// in\n    tag_244:\n        /* \"#utility.yul\":13567:13606   */\n      tag_245\n        /* \"#utility.yul\":13597:13605   */\n      dup7\n        /* \"#utility.yul\":13586:13595   */\n      dup4\n        /* \"#utility.yul\":13567:13606   */\n      tag_111\n      jump\t// in\n    tag_245:\n        /* \"#utility.yul\":13555:13606   */\n      swap6\n      pop\n        /* \"#utility.yul\":13639:13643   */\n      dup1\n        /* \"#utility.yul\":13635:13644   */\n      not\n        /* \"#utility.yul\":13628:13633   */\n      dup5\n        /* \"#utility.yul\":13624:13645   */\n      and\n        /* \"#utility.yul\":13615:13645   */\n      swap4\n      pop\n        /* \"#utility.yul\":13688:13692   */\n      dup1\n        /* \"#utility.yul\":13678:13686   */\n      dup7\n        /* \"#utility.yul\":13674:13693   */\n      and\n        /* \"#utility.yul\":13667:13672   */\n      dup5\n        /* \"#utility.yul\":13664:13694   */\n      or\n        /* \"#utility.yul\":13654:13694   */\n      swap3\n      pop\n        /* \"#utility.yul\":13383:13700   */\n      pop\n      pop\n        /* \"#utility.yul\":13307:13700   */\n      swap4\n      swap3\n      pop\n      pop\n      pop\n      jump\t// out\n        /* \"#utility.yul\":13706:13766   */\n    tag_113:\n        /* \"#utility.yul\":13734:13737   */\n      0x00\n        /* \"#utility.yul\":13755:13760   */\n      dup2\n        /* \"#utility.yul\":13748:13760   */\n      swap1\n      pop\n        /* \"#utility.yul\":13706:13766   */\n      swap2\n      swap1\n      pop\n      jump\t// out\n        /* \"#utility.yul\":13772:13914   */\n    tag_114:\n        /* \"#utility.yul\":13822:13831   */\n      0x00\n        /* \"#utility.yul\":13855:13908   */\n      tag_248\n        /* \"#utility.yul\":13873:13907   */\n      tag_249\n        /* \"#utility.yul\":13882:13906   */\n      tag_250\n        /* \"#utility.yul\":13900:13905   */\n      dup5\n        /* \"#utility.yul\":13882:13906   */\n      tag_86\n      jump\t// in\n    tag_250:\n        /* \"#utility.yul\":13873:13907   */\n      tag_113\n      jump\t// in\n    tag_249:\n        /* \"#utility.yul\":13855:13908   */\n      tag_86\n      jump\t// in\n    tag_248:\n        /* \"#utility.yul\":13842:13908   */\n      swap1\n      pop\n        /* \"#utility.yul\":13772:13914   */\n      swap2\n      swap1\n      pop\n      jump\t// out\n        /* \"#utility.yul\":13920:13995   */\n    tag_115:\n        /* \"#utility.yul\":13963:13966   */\n      0x00\n        /* \"#utility.yul\":13984:13989   */\n      dup2\n        /* \"#utility.yul\":13977:13989   */\n      swap1\n      pop\n        /* \"#utility.yul\":13920:13995   */\n      swap2\n      swap1\n      pop\n      jump\t// out\n        /* \"#utility.yul\":14001:14270   */\n    tag_116:\n        /* \"#utility.yul\":14111:14150   */\n      tag_253\n        /* \"#utility.yul\":14142:14149   */\n      dup4\n        /* \"#utility.yul\":14111:14150   */\n      tag_114\n      jump\t// in\n    tag_253:\n        /* \"#utility.yul\":14172:14263   */\n      tag_254\n        /* \"#utility.yul\":14221:14262   */\n      tag_255\n        /* \"#utility.yul\":14245:14261   */\n      dup3\n        /* \"#utility.yul\":14221:14262   */\n      tag_115\n      jump\t// in\n    tag_255:\n        /* \"#utility.yul\":14213:14219   */\n      dup5\n        /* \"#utility.yul\":14206:14210   */\n      dup5\n        /* \"#utility.yul\":14200:14211   */\n      sload\n        /* \"#utility.yul\":14172:14263   */\n      tag_112\n      jump\t// in\n    tag_254:\n        /* \"#utility.yul\":14166:14170   */\n      dup3\n        /* \"#utility.yul\":14159:14264   */\n      sstore\n        /* \"#utility.yul\":14077:14270   */\n      pop\n        /* \"#utility.yul\":14001:14270   */\n      pop\n      pop\n      pop\n      jump\t// out\n        /* \"#utility.yul\":14276:14349   */\n    tag_117:\n        /* \"#utility.yul\":14321:14324   */\n      0x00\n        /* \"#utility.yul\":14342:14343   */\n      0x00\n        /* \"#utility.yul\":14335:14343   */\n      swap1\n      pop\n        /* \"#utility.yul\":14276:14349   */\n      swap1\n      jump\t// out\n        /* \"#utility.yul\":14355:14544   */\n    tag_118:\n        /* \"#utility.yul\":14432:14464   */\n      tag_258\n      tag_117\n      jump\t// in\n    tag_258:\n        /* \"#utility.yul\":14473:14538   */\n      tag_259\n        /* \"#utility.yul\":14531:14537   */\n      dup2\n        /* \"#utility.yul\":14523:14529   */\n      dup5\n        /* \"#utility.yul\":14517:14521   */\n      dup5\n        /* \"#utility.yul\":14473:14538   */\n      tag_116\n      jump\t// in\n    tag_259:\n        /* \"#utility.yul\":14408:14544   */\n      pop\n        /* \"#utility.yul\":14355:14544   */\n      pop\n      pop\n      jump\t// out\n        /* \"#utility.yul\":14550:14736   */\n    tag_119:\n        /* \"#utility.yul\":14610:14730   */\n    tag_261:\n        /* \"#utility.yul\":14627:14630   */\n      dup2\n        /* \"#utility.yul\":14620:14625   */\n      dup2\n        /* \"#utility.yul\":14617:14631   */\n      lt\n        /* \"#utility.yul\":14610:14730   */\n      iszero\n      tag_263\n      jumpi\n        /* \"#utility.yul\":14681:14720   */\n      tag_264\n        /* \"#utility.yul\":14718:14719   */\n      0x00\n        /* \"#utility.yul\":14711:14716   */\n      dup3\n        /* \"#utility.yul\":14681:14720   */\n      tag_118\n      jump\t// in\n    tag_264:\n        /* \"#utility.yul\":14654:14655   */\n      0x01\n        /* \"#utility.yul\":14647:14652   */\n      dup2\n        /* \"#utility.yul\":14643:14656   */\n      add\n        /* \"#utility.yul\":14634:14656   */\n      swap1\n      pop\n        /* \"#utility.yul\":14610:14730   */\n      jump(tag_261)\n    tag_263:\n        /* \"#utility.yul\":14550:14736   */\n      pop\n      pop\n      jump\t// out\n        /* \"#utility.yul\":14742:15285   */\n    tag_120:\n        /* \"#utility.yul\":14843:14845   */\n      0x1f\n        /* \"#utility.yul\":14838:14841   */\n      dup3\n        /* \"#utility.yul\":14835:14846   */\n      gt\n        /* \"#utility.yul\":14832:15278   */\n      iszero\n      tag_266\n      jumpi\n        /* \"#utility.yul\":14877:14915   */\n      tag_267\n        /* \"#utility.yul\":14909:14914   */\n      dup2\n        /* \"#utility.yul\":14877:14915   */\n      tag_109\n      jump\t// in\n    tag_267:\n        /* \"#utility.yul\":14961:14990   */\n      tag_268\n        /* \"#utility.yul\":14979:14989   */\n      dup5\n        /* \"#utility.yul\":14961:14990   */\n      tag_110\n      jump\t// in\n    tag_268:\n        /* \"#utility.yul\":14951:14959   */\n      dup2\n        /* \"#utility.yul\":14947:14991   */\n      add\n        /* \"#utility.yul\":15144:15146   */\n      0x20\n        /* \"#utility.yul\":15132:15142   */\n      dup6\n        /* \"#utility.yul\":15129:15147   */\n      lt\n        /* \"#utility.yul\":15126:15175   */\n      iszero\n      tag_269\n      jumpi\n        /* \"#utility.yul\":15165:15173   */\n      dup2\n        /* \"#utility.yul\":15150:15173   */\n      swap1\n      pop\n        /* \"#utility.yul\":15126:15175   */\n    tag_269:\n        /* \"#utility.yul\":15188:15268   */\n      tag_270\n        /* \"#utility.yul\":15244:15266   */\n      tag_271\n        /* \"#utility.yul\":15262:15265   */\n      dup6\n        /* \"#utility.yul\":15244:15266   */\n      tag_110\n      jump\t// in\n    tag_271:\n        /* \"#utility.yul\":15234:15242   */\n      dup4\n        /* \"#utility.yul\":15230:15267   */\n      add\n        /* \"#utility.yul\":15217:15228   */\n      dup3\n        /* \"#utility.yul\":15188:15268   */\n      tag_119\n      jump\t// in\n    tag_270:\n        /* \"#utility.yul\":14847:15278   */\n      pop\n      pop\n        /* \"#utility.yul\":14832:15278   */\n    tag_266:\n        /* \"#utility.yul\":14742:15285   */\n      pop\n      pop\n      pop\n      jump\t// out\n        /* \"#utility.yul\":15291:15408   */\n    tag_121:\n        /* \"#utility.yul\":15345:15353   */\n      0x00\n        /* \"#utility.yul\":15395:15400   */\n      dup3\n        /* \"#utility.yul\":15389:15393   */\n      dup3\n        /* \"#utility.yul\":15385:15401   */\n      shr\n        /* \"#utility.yul\":15364:15401   */\n      swap1\n      pop\n        /* \"#utility.yul\":15291:15408   */\n      swap3\n      swap2\n      pop\n      pop\n      jump\t// out\n        /* \"#utility.yul\":15414:15583   */\n    tag_122:\n        /* \"#utility.yul\":15458:15464   */\n      0x00\n        /* \"#utility.yul\":15491:15542   */\n      tag_274\n        /* \"#utility.yul\":15539:15540   */\n      0x00\n        /* \"#utility.yul\":15535:15541   */\n      not\n        /* \"#utility.yul\":15527:15532   */\n      dup5\n        /* \"#utility.yul\":15524:15525   */\n      0x08\n        /* \"#utility.yul\":15520:15533   */\n      mul\n        /* \"#utility.yul\":15491:15542   */\n      tag_121\n      jump\t// in\n    tag_274:\n        /* \"#utility.yul\":15487:15543   */\n      not\n        /* \"#utility.yul\":15572:15576   */\n      dup1\n        /* \"#utility.yul\":15566:15570   */\n      dup4\n        /* \"#utility.yul\":15562:15577   */\n      and\n        /* \"#utility.yul\":15552:15577   */\n      swap2\n      pop\n        /* \"#utility.yul\":15465:15583   */\n      pop\n        /* \"#utility.yul\":15414:15583   */\n      swap3\n      swap2\n      pop\n      pop\n      jump\t// out\n        /* \"#utility.yul\":15588:15883   */\n    tag_123:\n        /* \"#utility.yul\":15664:15668   */\n      0x00\n        /* \"#utility.yul\":15810:15839   */\n      tag_276\n        /* \"#utility.yul\":15835:15838   */\n      dup4\n        /* \"#utility.yul\":15829:15833   */\n      dup4\n        /* \"#utility.yul\":15810:15839   */\n      tag_122\n      jump\t// in\n    tag_276:\n        /* \"#utility.yul\":15802:15839   */\n      swap2\n      pop\n        /* \"#utility.yul\":15872:15875   */\n      dup3\n        /* \"#utility.yul\":15869:15870   */\n      0x02\n        /* \"#utility.yul\":15865:15876   */\n      mul\n        /* \"#utility.yul\":15859:15863   */\n      dup3\n        /* \"#utility.yul\":15856:15877   */\n      or\n        /* \"#utility.yul\":15848:15877   */\n      swap1\n      pop\n        /* \"#utility.yul\":15588:15883   */\n      swap3\n      swap2\n      pop\n      pop\n      jump\t// out\n        /* \"#utility.yul\":15888:17283   */\n    tag_29:\n        /* \"#utility.yul\":16005:16042   */\n      tag_278\n        /* \"#utility.yul\":16038:16041   */\n      dup3\n        /* \"#utility.yul\":16005:16042   */\n      tag_89\n      jump\t// in\n    tag_278:\n        /* \"#utility.yul\":16107:16125   */\n      0xffffffffffffffff\n        /* \"#utility.yul\":16099:16105   */\n      dup2\n        /* \"#utility.yul\":16096:16126   */\n      gt\n        /* \"#utility.yul\":16093:16149   */\n      iszero\n      tag_279\n      jumpi\n        /* \"#utility.yul\":16129:16147   */\n      tag_280\n      tag_79\n      jump\t// in\n    tag_280:\n        /* \"#utility.yul\":16093:16149   */\n    tag_279:\n        /* \"#utility.yul\":16173:16211   */\n      tag_281\n        /* \"#utility.yul\":16205:16209   */\n      dup3\n        /* \"#utility.yul\":16199:16210   */\n      sload\n        /* \"#utility.yul\":16173:16211   */\n      tag_39\n      jump\t// in\n    tag_281:\n        /* \"#utility.yul\":16258:16325   */\n      tag_282\n        /* \"#utility.yul\":16318:16324   */\n      dup3\n        /* \"#utility.yul\":16310:16316   */\n      dup3\n        /* \"#utility.yul\":16304:16308   */\n      dup6\n        /* \"#utility.yul\":16258:16325   */\n      tag_120\n      jump\t// in\n    tag_282:\n        /* \"#utility.yul\":16352:16353   */\n      0x00\n        /* \"#utility.yul\":16376:16380   */\n      0x20\n        /* \"#utility.yul\":16363:16380   */\n      swap1\n      pop\n        /* \"#utility.yul\":16408:16410   */\n      0x1f\n        /* \"#utility.yul\":16400:16406   */\n      dup4\n        /* \"#utility.yul\":16397:16411   */\n      gt\n        /* \"#utility.yul\":16425:16426   */\n      0x01\n        /* \"#utility.yul\":16420:17038   */\n      dup2\n      eq\n      tag_284\n      jumpi\n        /* \"#utility.yul\":17082:17083   */\n      0x00\n        /* \"#utility.yul\":17099:17105   */\n      dup5\n        /* \"#utility.yul\":17096:17173   */\n      iszero\n      tag_285\n      jumpi\n        /* \"#utility.yul\":17148:17157   */\n      dup3\n        /* \"#utility.yul\":17143:17146   */\n      dup8\n        /* \"#utility.yul\":17139:17158   */\n      add\n        /* \"#utility.yul\":17133:17159   */\n      mload\n        /* \"#utility.yul\":17124:17159   */\n      swap1\n      pop\n        /* \"#utility.yul\":17096:17173   */\n    tag_285:\n        /* \"#utility.yul\":17199:17266   */\n      tag_286\n        /* \"#utility.yul\":17259:17265   */\n      dup6\n        /* \"#utility.yul\":17252:17257   */\n      dup3\n        /* \"#utility.yul\":17199:17266   */\n      tag_123\n      jump\t// in\n    tag_286:\n        /* \"#utility.yul\":17193:17197   */\n      dup7\n        /* \"#utility.yul\":17186:17267   */\n      sstore\n        /* \"#utility.yul\":17055:17277   */\n      pop\n        /* \"#utility.yul\":16390:17277   */\n      jump(tag_283)\n        /* \"#utility.yul\":16420:17038   */\n    tag_284:\n        /* \"#utility.yul\":16472:16476   */\n      0x1f\n        /* \"#utility.yul\":16468:16477   */\n      not\n        /* \"#utility.yul\":16460:16466   */\n      dup5\n        /* \"#utility.yul\":16456:16478   */\n      and\n        /* \"#utility.yul\":16506:16543   */\n      tag_287\n        /* \"#utility.yul\":16538:16542   */\n      dup7\n        /* \"#utility.yul\":16506:16543   */\n      tag_109\n      jump\t// in\n    tag_287:\n        /* \"#utility.yul\":16565:16566   */\n      0x00\n        /* \"#utility.yul\":16579:16787   */\n    tag_288:\n        /* \"#utility.yul\":16593:16600   */\n      dup3\n        /* \"#utility.yul\":16590:16591   */\n      dup2\n        /* \"#utility.yul\":16587:16601   */\n      lt\n        /* \"#utility.yul\":16579:16787   */\n      iszero\n      tag_290\n      jumpi\n        /* \"#utility.yul\":16672:16681   */\n      dup5\n        /* \"#utility.yul\":16667:16670   */\n      dup10\n        /* \"#utility.yul\":16663:16682   */\n      add\n        /* \"#utility.yul\":16657:16683   */\n      mload\n        /* \"#utility.yul\":16649:16655   */\n      dup3\n        /* \"#utility.yul\":16642:16684   */\n      sstore\n        /* \"#utility.yul\":16723:16724   */\n      0x01\n        /* \"#utility.yul\":16715:16721   */\n      dup3\n        /* \"#utility.yul\":16711:16725   */\n      add\n        /* \"#utility.yul\":16701:16725   */\n      swap2\n      pop\n        /* \"#utility.yul\":16770:16772   */\n      0x20\n        /* \"#utility.yul\":16759:16768   */\n      dup6\n        /* \"#utility.yul\":16755:16773   */\n      add\n        /* \"#utility.yul\":16742:16773   */\n      swap5\n      pop\n        /* \"#utility.yul\":16616:16620   */\n      0x20\n        /* \"#utility.yul\":16613:16614   */\n      dup2\n        /* \"#utility.yul\":16609:16621   */\n      add\n        /* \"#utility.yul\":16604:16621   */\n      swap1\n      pop\n        /* \"#utility.yul\":16579:16787   */\n      jump(tag_288)\n    tag_290:\n        /* \"#utility.yul\":16815:16821   */\n      dup7\n        /* \"#utility.yul\":16806:16813   */\n      dup4\n        /* \"#utility.yul\":16803:16822   */\n      lt\n        /* \"#utility.yul\":16800:16979   */\n      iszero\n      tag_291\n      jumpi\n        /* \"#utility.yul\":16873:16882   */\n      dup5\n        /* \"#utility.yul\":16868:16871   */\n      dup10\n        /* \"#utility.yul\":16864:16883   */\n      add\n        /* \"#utility.yul\":16858:16884   */\n      mload\n        /* \"#utility.yul\":16916:16964   */\n      tag_292\n        /* \"#utility.yul\":16958:16962   */\n      0x1f\n        /* \"#utility.yul\":16950:16956   */\n      dup10\n        /* \"#utility.yul\":16946:16963   */\n      and\n        /* \"#utility.yul\":16935:16944   */\n      dup3\n        /* \"#utility.yul\":16916:16964   */\n      tag_122\n      jump\t// in\n    tag_292:\n        /* \"#utility.yul\":16908:16914   */\n      dup4\n        /* \"#utility.yul\":16901:16965   */\n      sstore\n        /* \"#utility.yul\":16823:16979   */\n      pop\n        /* \"#utility.yul\":16800:16979   */\n    tag_291:\n        /* \"#utility.yul\":17025:17026   */\n      0x01\n        /* \"#utility.yul\":17021:17022   */\n      0x02\n        /* \"#utility.yul\":17013:17019   */\n      dup9\n        /* \"#utility.yul\":17009:17023   */\n      mul\n        /* \"#utility.yul\":17005:17027   */\n      add\n        /* \"#utility.yul\":16999:17003   */\n      dup9\n        /* \"#utility.yul\":16992:17028   */\n      sstore\n        /* \"#utility.yul\":16427:17038   */\n      pop\n      pop\n      pop\n        /* \"#utility.yul\":16390:17277   */\n    tag_283:\n      pop\n        /* \"#utility.yul\":15980:17283   */\n      pop\n      pop\n      pop\n        /* \"#utility.yul\":15888:17283   */\n      pop\n      pop\n      jump\t// out\n\n    auxdata: 0xa264697066735822122053bb298545e74dd46e29a8b980ebdfb9500fb3a6b36ea4c1b1dc81b42a76b6fd64736f6c634300081f0033\n}\n",
				"bytecode": {
					"linkReferences": {},
					"object": "6080604052348015600e575f5ffd5b50610ec08061001c5f395ff3fe608060405234801561000f575f5ffd5b506004361061003f575f3560e01c8063904ae8ad1461004357806396f979d21461005f578063cc12647914610092575b5f5ffd5b61005d600480360381019061005891906107bc565b6100b0565b005b61007960048036038101906100749190610874565b61025c565b604051610089949392919061090e565b60405180910390f35b61009a610428565b6040516100a79190610ae6565b60405180910390f35b6002846040516100c09190610b40565b90815260200160405180910390205f9054906101000a900460ff161561011b576040517f08c379a000000000000000000000000000000000000000000000000000000000815260040161011290610ba0565b60405180910390fd5b600160028560405161012d9190610b40565b90815260200160405180910390205f6101000a81548160ff0219169083151502179055505f60405180608001604052808681526020018481526020018581526020018381525090505f81908060018154018082558091505060019003905f5260205f2090600402015f909190919091505f820151815f0190816101b09190610dbb565b506020820151816001015560408201518160020190816101d09190610dbb565b5060608201518160030190816101e69190610dbb565b505050806001856040516101fa9190610b40565b90815260200160405180910390205f820151815f01908161021b9190610dbb565b5060208201518160010155604082015181600201908161023b9190610dbb565b5060608201518160030190816102519190610dbb565b509050505050505050565b5f818154811061026a575f80fd5b905f5260205f2090600402015f91509050805f01805461028990610beb565b80601f01602080910402602001604051908101604052809291908181526020018280546102b590610beb565b80156103005780601f106102d757610100808354040283529160200191610300565b820191905f5260205f20905b8154815290600101906020018083116102e357829003601f168201915b50505050509080600101549080600201805461031b90610beb565b80601f016020809104026020016040519081016040528092919081815260200182805461034790610beb565b80156103925780601f1061036957610100808354040283529160200191610392565b820191905f5260205f20905b81548152906001019060200180831161037557829003601f168201915b5050505050908060030180546103a790610beb565b80601f01602080910402602001604051908101604052809291908181526020018280546103d390610beb565b801561041e5780601f106103f55761010080835404028352916020019161041e565b820191905f5260205f20905b81548152906001019060200180831161040157829003601f168201915b5050505050905084565b60605f805480602002602001604051908101604052809291908181526020015f905b82821015610633578382905f5260205f2090600402016040518060800160405290815f8201805461047a90610beb565b80601f01602080910402602001604051908101604052809291908181526020018280546104a690610beb565b80156104f15780601f106104c8576101008083540402835291602001916104f1565b820191905f5260205f20905b8154815290600101906020018083116104d457829003601f168201915b505050505081526020016001820154815260200160028201805461051490610beb565b80601f016020809104026020016040519081016040528092919081815260200182805461054090610beb565b801561058b5780601f106105625761010080835404028352916020019161058b565b820191905f5260205f20905b81548152906001019060200180831161056e57829003601f168201915b505050505081526020016003820180546105a490610beb565b80601f01602080910402602001604051908101604052809291908181526020018280546105d090610beb565b801561061b5780601f106105f25761010080835404028352916020019161061b565b820191905f5260205f20905b8154815290600101906020018083116105fe57829003601f168201915b5050505050815250508152602001906001019061044a565b50505050905090565b5f604051905090565b5f5ffd5b5f5ffd5b5f5ffd5b5f5ffd5b5f601f19601f8301169050919050565b7f4e487b71000000000000000000000000000000000000000000000000000000005f52604160045260245ffd5b61069b82610655565b810181811067ffffffffffffffff821117156106ba576106b9610665565b5b80604052505050565b5f6106cc61063c565b90506106d88282610692565b919050565b5f67ffffffffffffffff8211156106f7576106f6610665565b5b61070082610655565b9050602081019050919050565b828183375f83830152505050565b5f61072d610728846106dd565b6106c3565b90508281526020810184848401111561074957610748610651565b5b61075484828561070d565b509392505050565b5f82601f8301126107705761076f61064d565b5b813561078084826020860161071b565b91505092915050565b5f819050919050565b61079b81610789565b81146107a5575f5ffd5b50565b5f813590506107b681610792565b92915050565b5f5f5f5f608085870312156107d4576107d3610645565b5b5f85013567ffffffffffffffff8111156107f1576107f0610649565b5b6107fd8782880161075c565b945050602085013567ffffffffffffffff81111561081e5761081d610649565b5b61082a8782880161075c565b935050604061083b878288016107a8565b925050606085013567ffffffffffffffff81111561085c5761085b610649565b5b6108688782880161075c565b91505092959194509250565b5f6020828403121561088957610888610645565b5b5f610896848285016107a8565b91505092915050565b5f81519050919050565b5f82825260208201905092915050565b8281835e5f83830152505050565b5f6108d18261089f565b6108db81856108a9565b93506108eb8185602086016108b9565b6108f481610655565b840191505092915050565b61090881610789565b82525050565b5f6080820190508181035f83015261092681876108c7565b905061093560208301866108ff565b818103604083015261094781856108c7565b9050818103606083015261095b81846108c7565b905095945050505050565b5f81519050919050565b5f82825260208201905092915050565b5f819050602082019050919050565b5f82825260208201905092915050565b5f6109a98261089f565b6109b3818561098f565b93506109c38185602086016108b9565b6109cc81610655565b840191505092915050565b6109e081610789565b82525050565b5f608083015f8301518482035f860152610a00828261099f565b9150506020830151610a1560208601826109d7565b5060408301518482036040860152610a2d828261099f565b91505060608301518482036060860152610a47828261099f565b9150508091505092915050565b5f610a5f83836109e6565b905092915050565b5f602082019050919050565b5f610a7d82610966565b610a878185610970565b935083602082028501610a9985610980565b805f5b85811015610ad45784840389528151610ab58582610a54565b9450610ac083610a67565b925060208a01995050600181019050610a9c565b50829750879550505050505092915050565b5f6020820190508181035f830152610afe8184610a73565b905092915050565b5f81905092915050565b5f610b1a8261089f565b610b248185610b06565b9350610b348185602086016108b9565b80840191505092915050565b5f610b4b8284610b10565b915081905092915050565b7f436f7572736520616c72656164792061646465642100000000000000000000005f82015250565b5f610b8a6015836108a9565b9150610b9582610b56565b602082019050919050565b5f6020820190508181035f830152610bb781610b7e565b9050919050565b7f4e487b71000000000000000000000000000000000000000000000000000000005f52602260045260245ffd5b5f6002820490506001821680610c0257607f821691505b602082108103610c1557610c14610bbe565b5b50919050565b5f819050815f5260205f209050919050565b5f6020601f8301049050919050565b5f82821b905092915050565b5f60088302610c777fffffffffffffffffffffffffffffffffffffffffffffffffffffffffffffffff82610c3c565b610c818683610c3c565b95508019841693508086168417925050509392505050565b5f819050919050565b5f610cbc610cb7610cb284610789565b610c99565b610789565b9050919050565b5f819050919050565b610cd583610ca2565b610ce9610ce182610cc3565b848454610c48565b825550505050565b5f5f905090565b610d00610cf1565b610d0b818484610ccc565b505050565b5b81811015610d2e57610d235f82610cf8565b600181019050610d11565b5050565b601f821115610d7357610d4481610c1b565b610d4d84610c2d565b81016020851015610d5c578190505b610d70610d6885610c2d565b830182610d10565b50505b505050565b5f82821c905092915050565b5f610d935f1984600802610d78565b1980831691505092915050565b5f610dab8383610d84565b9150826002028217905092915050565b610dc48261089f565b67ffffffffffffffff811115610ddd57610ddc610665565b5b610de78254610beb565b610df2828285610d32565b5f60209050601f831160018114610e23575f8415610e11578287015190505b610e1b8582610da0565b865550610e82565b601f198416610e3186610c1b565b5f5b82811015610e5857848901518255600182019150602085019450602081019050610e33565b86831015610e755784890151610e71601f891682610d84565b8355505b6001600288020188555050505b50505050505056fea264697066735822122053bb298545e74dd46e29a8b980ebdfb9500fb3a6b36ea4c1b1dc81b42a76b6fd64736f6c634300081f0033",
					"opcodes": "PUSH1 0x80 PUSH1 0x40 MSTORE CALLVALUE DUP1 ISZERO PUSH1 0xE JUMPI PUSH0 PUSH0 REVERT JUMPDEST POP PUSH2 0xEC0 DUP1 PUSH2 0x1C PUSH0 CODECOPY PUSH0 RETURN INVALID PUSH1 0x80 PUSH1 0x40 MSTORE CALLVALUE DUP1 ISZERO PUSH2 0xF JUMPI PUSH0 PUSH0 REVERT JUMPDEST POP PUSH1 0x4 CALLDATASIZE LT PUSH2 0x3F JUMPI PUSH0 CALLDATALOAD PUSH1 0xE0 SHR DUP1 PUSH4 0x904AE8AD EQ PUSH2 0x43 JUMPI DUP1 PUSH4 0x96F979D2 EQ PUSH2 0x5F JUMPI DUP1 PUSH4 0xCC126479 EQ PUSH2 0x92 JUMPI JUMPDEST PUSH0 PUSH0 REVERT JUMPDEST PUSH2 0x5D PUSH1 0x4 DUP1 CALLDATASIZE SUB DUP2 ADD SWAP1 PUSH2 0x58 SWAP2 SWAP1 PUSH2 0x7BC JUMP JUMPDEST PUSH2 0xB0 JUMP JUMPDEST STOP JUMPDEST PUSH2 0x79 PUSH1 0x4 DUP1 CALLDATASIZE SUB DUP2 ADD SWAP1 PUSH2 0x74 SWAP2 SWAP1 PUSH2 0x874 JUMP JUMPDEST PUSH2 0x25C JUMP JUMPDEST PUSH1 0x40 MLOAD PUSH2 0x89 SWAP5 SWAP4 SWAP3 SWAP2 SWAP1 PUSH2 0x90E JUMP JUMPDEST PUSH1 0x40 MLOAD DUP1 SWAP2 SUB SWAP1 RETURN JUMPDEST PUSH2 0x9A PUSH2 0x428 JUMP JUMPDEST PUSH1 0x40 MLOAD PUSH2 0xA7 SWAP2 SWAP1 PUSH2 0xAE6 JUMP JUMPDEST PUSH1 0x40 MLOAD DUP1 SWAP2 SUB SWAP1 RETURN JUMPDEST PUSH1 0x2 DUP5 PUSH1 0x40 MLOAD PUSH2 0xC0 SWAP2 SWAP1 PUSH2 0xB40 JUMP JUMPDEST SWAP1 DUP2 MSTORE PUSH1 0x20 ADD PUSH1 0x40 MLOAD DUP1 SWAP2 SUB SWAP1 KECCAK256 PUSH0 SWAP1 SLOAD SWAP1 PUSH2 0x100 EXP SWAP1 DIV PUSH1 0xFF AND ISZERO PUSH2 0x11B JUMPI PUSH1 0x40 MLOAD PUSH32 0x8C379A000000000000000000000000000000000000000000000000000000000 DUP2 MSTORE PUSH1 0x4 ADD PUSH2 0x112 SWAP1 PUSH2 0xBA0 JUMP JUMPDEST PUSH1 0x40 MLOAD DUP1 SWAP2 SUB SWAP1 REVERT JUMPDEST PUSH1 0x1 PUSH1 0x2 DUP6 PUSH1 0x40 MLOAD PUSH2 0x12D SWAP2 SWAP1 PUSH2 0xB40 JUMP JUMPDEST SWAP1 DUP2 MSTORE PUSH1 0x20 ADD PUSH1 0x40 MLOAD DUP1 SWAP2 SUB SWAP1 KECCAK256 PUSH0 PUSH2 0x100 EXP DUP2 SLOAD DUP2 PUSH1 0xFF MUL NOT AND SWAP1 DUP4 ISZERO ISZERO MUL OR SWAP1 SSTORE POP PUSH0 PUSH1 0x40 MLOAD DUP1 PUSH1 0x80 ADD PUSH1 0x40 MSTORE DUP1 DUP7 DUP2 MSTORE PUSH1 0x20 ADD DUP5 DUP2 MSTORE PUSH1 0x20 ADD DUP6 DUP2 MSTORE PUSH1 0x20 ADD DUP4 DUP2 MSTORE POP SWAP1 POP PUSH0 DUP2 SWAP1 DUP1 PUSH1 0x1 DUP2 SLOAD ADD DUP1 DUP3 SSTORE DUP1 SWAP2 POP POP PUSH1 0x1 SWAP1 SUB SWAP1 PUSH0 MSTORE PUSH1 0x20 PUSH0 KECCAK256 SWAP1 PUSH1 0x4 MUL ADD PUSH0 SWAP1 SWAP2 SWAP1 SWAP2 SWAP1 SWAP2 POP PUSH0 DUP3 ADD MLOAD DUP2 PUSH0 ADD SWAP1 DUP2 PUSH2 0x1B0 SWAP2 SWAP1 PUSH2 0xDBB JUMP JUMPDEST POP PUSH1 0x20 DUP3 ADD MLOAD DUP2 PUSH1 0x1 ADD SSTORE PUSH1 0x40 DUP3 ADD MLOAD DUP2 PUSH1 0x2 ADD SWAP1 DUP2 PUSH2 0x1D0 SWAP2 SWAP1 PUSH2 0xDBB JUMP JUMPDEST POP PUSH1 0x60 DUP3 ADD MLOAD DUP2 PUSH1 0x3 ADD SWAP1 DUP2 PUSH2 0x1E6 SWAP2 SWAP1 PUSH2 0xDBB JUMP JUMPDEST POP POP POP DUP1 PUSH1 0x1 DUP6 PUSH1 0x40 MLOAD PUSH2 0x1FA SWAP2 SWAP1 PUSH2 0xB40 JUMP JUMPDEST SWAP1 DUP2 MSTORE PUSH1 0x20 ADD PUSH1 0x40 MLOAD DUP1 SWAP2 SUB SWAP1 KECCAK256 PUSH0 DUP3 ADD MLOAD DUP2 PUSH0 ADD SWAP1 DUP2 PUSH2 0x21B SWAP2 SWAP1 PUSH2 0xDBB JUMP JUMPDEST POP PUSH1 0x20 DUP3 ADD MLOAD DUP2 PUSH1 0x1 ADD SSTORE PUSH1 0x40 DUP3 ADD MLOAD DUP2 PUSH1 0x2 ADD SWAP1 DUP2 PUSH2 0x23B SWAP2 SWAP1 PUSH2 0xDBB JUMP JUMPDEST POP PUSH1 0x60 DUP3 ADD MLOAD DUP2 PUSH1 0x3 ADD SWAP1 DUP2 PUSH2 0x251 SWAP2 SWAP1 PUSH2 0xDBB JUMP JUMPDEST POP SWAP1 POP POP POP POP POP POP POP JUMP JUMPDEST PUSH0 DUP2 DUP2 SLOAD DUP2 LT PUSH2 0x26A JUMPI PUSH0 DUP1 REVERT JUMPDEST SWAP1 PUSH0 MSTORE PUSH1 0x20 PUSH0 KECCAK256 SWAP1 PUSH1 0x4 MUL ADD PUSH0 SWAP2 POP SWAP1 POP DUP1 PUSH0 ADD DUP1 SLOAD PUSH2 0x289 SWAP1 PUSH2 0xBEB JUMP JUMPDEST DUP1 PUSH1 0x1F ADD PUSH1 0x20 DUP1 SWAP2 DIV MUL PUSH1 0x20 ADD PUSH1 0x40 MLOAD SWAP1 DUP2 ADD PUSH1 0x40 MSTORE DUP1 SWAP3 SWAP2 SWAP1 DUP2 DUP2 MSTORE PUSH1 0x20 ADD DUP3 DUP1 SLOAD PUSH2 0x2B5 SWAP1 PUSH2 0xBEB JUMP JUMPDEST DUP1 ISZERO PUSH2 0x300 JUMPI DUP1 PUSH1 0x1F LT PUSH2 0x2D7 JUMPI PUSH2 0x100 DUP1 DUP4 SLOAD DIV MUL DUP4 MSTORE SWAP2 PUSH1 0x20 ADD SWAP2 PUSH2 0x300 JUMP JUMPDEST DUP3 ADD SWAP2 SWAP1 PUSH0 MSTORE PUSH1 0x20 PUSH0 KECCAK256 SWAP1 JUMPDEST DUP2 SLOAD DUP2 MSTORE SWAP1 PUSH1 0x1 ADD SWAP1 PUSH1 0x20 ADD DUP1 DUP4 GT PUSH2 0x2E3 JUMPI DUP3 SWAP1 SUB PUSH1 0x1F AND DUP3 ADD SWAP2 JUMPDEST POP POP POP POP POP SWAP1 DUP1 PUSH1 0x1 ADD SLOAD SWAP1 DUP1 PUSH1 0x2 ADD DUP1 SLOAD PUSH2 0x31B SWAP1 PUSH2 0xBEB JUMP JUMPDEST DUP1 PUSH1 0x1F ADD PUSH1 0x20 DUP1 SWAP2 DIV MUL PUSH1 0x20 ADD PUSH1 0x40 MLOAD SWAP1 DUP2 ADD PUSH1 0x40 MSTORE DUP1 SWAP3 SWAP2 SWAP1 DUP2 DUP2 MSTORE PUSH1 0x20 ADD DUP3 DUP1 SLOAD PUSH2 0x347 SWAP1 PUSH2 0xBEB JUMP JUMPDEST DUP1 ISZERO PUSH2 0x392 JUMPI DUP1 PUSH1 0x1F LT PUSH2 0x369 JUMPI PUSH2 0x100 DUP1 DUP4 SLOAD DIV MUL DUP4 MSTORE SWAP2 PUSH1 0x20 ADD SWAP2 PUSH2 0x392 JUMP JUMPDEST DUP3 ADD SWAP2 SWAP1 PUSH0 MSTORE PUSH1 0x20 PUSH0 KECCAK256 SWAP1 JUMPDEST DUP2 SLOAD DUP2 MSTORE SWAP1 PUSH1 0x1 ADD SWAP1 PUSH1 0x20 ADD DUP1 DUP4 GT PUSH2 0x375 JUMPI DUP3 SWAP1 SUB PUSH1 0x1F AND DUP3 ADD SWAP2 JUMPDEST POP POP POP POP POP SWAP1 DUP1 PUSH1 0x3 ADD DUP1 SLOAD PUSH2 0x3A7 SWAP1 PUSH2 0xBEB JUMP JUMPDEST DUP1 PUSH1 0x1F ADD PUSH1 0x20 DUP1 SWAP2 DIV MUL PUSH1 0x20 ADD PUSH1 0x40 MLOAD SWAP1 DUP2 ADD PUSH1 0x40 MSTORE DUP1 SWAP3 SWAP2 SWAP1 DUP2 DUP2 MSTORE PUSH1 0x20 ADD DUP3 DUP1 SLOAD PUSH2 0x3D3 SWAP1 PUSH2 0xBEB JUMP JUMPDEST DUP1 ISZERO PUSH2 0x41E JUMPI DUP1 PUSH1 0x1F LT PUSH2 0x3F5 JUMPI PUSH2 0x100 DUP1 DUP4 SLOAD DIV MUL DUP4 MSTORE SWAP2 PUSH1 0x20 ADD SWAP2 PUSH2 0x41E JUMP JUMPDEST DUP3 ADD SWAP2 SWAP1 PUSH0 MSTORE PUSH1 0x20 PUSH0 KECCAK256 SWAP1 JUMPDEST DUP2 SLOAD DUP2 MSTORE SWAP1 PUSH1 0x1 ADD SWAP1 PUSH1 0x20 ADD DUP1 DUP4 GT PUSH2 0x401 JUMPI DUP3 SWAP1 SUB PUSH1 0x1F AND DUP3 ADD SWAP2 JUMPDEST POP POP POP POP POP SWAP1 POP DUP5 JUMP JUMPDEST PUSH1 0x60 PUSH0 DUP1 SLOAD DUP1 PUSH1 0x20 MUL PUSH1 0x20 ADD PUSH1 0x40 MLOAD SWAP1 DUP2 ADD PUSH1 0x40 MSTORE DUP1 SWAP3 SWAP2 SWAP1 DUP2 DUP2 MSTORE PUSH1 0x20 ADD PUSH0 SWAP1 JUMPDEST DUP3 DUP3 LT ISZERO PUSH2 0x633 JUMPI DUP4 DUP3 SWAP1 PUSH0 MSTORE PUSH1 0x20 PUSH0 KECCAK256 SWAP1 PUSH1 0x4 MUL ADD PUSH1 0x40 MLOAD DUP1 PUSH1 0x80 ADD PUSH1 0x40 MSTORE SWAP1 DUP2 PUSH0 DUP3 ADD DUP1 SLOAD PUSH2 0x47A SWAP1 PUSH2 0xBEB JUMP JUMPDEST DUP1 PUSH1 0x1F ADD PUSH1 0x20 DUP1 SWAP2 DIV MUL PUSH1 0x20 ADD PUSH1 0x40 MLOAD SWAP1 DUP2 ADD PUSH1 0x40 MSTORE DUP1 SWAP3 SWAP2 SWAP1 DUP2 DUP2 MSTORE PUSH1 0x20 ADD DUP3 DUP1 SLOAD PUSH2 0x4A6 SWAP1 PUSH2 0xBEB JUMP JUMPDEST DUP1 ISZERO PUSH2 0x4F1 JUMPI DUP1 PUSH1 0x1F LT PUSH2 0x4C8 JUMPI PUSH2 0x100 DUP1 DUP4 SLOAD DIV MUL DUP4 MSTORE SWAP2 PUSH1 0x20 ADD SWAP2 PUSH2 0x4F1 JUMP JUMPDEST DUP3 ADD SWAP2 SWAP1 PUSH0 MSTORE PUSH1 0x20 PUSH0 KECCAK256 SWAP1 JUMPDEST DUP2 SLOAD DUP2 MSTORE SWAP1 PUSH1 0x1 ADD SWAP1 PUSH1 0x20 ADD DUP1 DUP4 GT PUSH2 0x4D4 JUMPI DUP3 SWAP1 SUB PUSH1 0x1F AND DUP3 ADD SWAP2 JUMPDEST POP POP POP POP POP DUP2 MSTORE PUSH1 0x20 ADD PUSH1 0x1 DUP3 ADD SLOAD DUP2 MSTORE PUSH1 0x20 ADD PUSH1 0x2 DUP3 ADD DUP1 SLOAD PUSH2 0x514 SWAP1 PUSH2 0xBEB JUMP JUMPDEST DUP1 PUSH1 0x1F ADD PUSH1 0x20 DUP1 SWAP2 DIV MUL PUSH1 0x20 ADD PUSH1 0x40 MLOAD SWAP1 DUP2 ADD PUSH1 0x40 MSTORE DUP1 SWAP3 SWAP2 SWAP1 DUP2 DUP2 MSTORE PUSH1 0x20 ADD DUP3 DUP1 SLOAD PUSH2 0x540 SWAP1 PUSH2 0xBEB JUMP JUMPDEST DUP1 ISZERO PUSH2 0x58B JUMPI DUP1 PUSH1 0x1F LT PUSH2 0x562 JUMPI PUSH2 0x100 DUP1 DUP4 SLOAD DIV MUL DUP4 MSTORE SWAP2 PUSH1 0x20 ADD SWAP2 PUSH2 0x58B JUMP JUMPDEST DUP3 ADD SWAP2 SWAP1 PUSH0 MSTORE PUSH1 0x20 PUSH0 KECCAK256 SWAP1 JUMPDEST DUP2 SLOAD DUP2 MSTORE SWAP1 PUSH1 0x1 ADD SWAP1 PUSH1 0x20 ADD DUP1 DUP4 GT PUSH2 0x56E JUMPI DUP3 SWAP1 SUB PUSH1 0x1F AND DUP3 ADD SWAP2 JUMPDEST POP POP POP POP POP DUP2 MSTORE PUSH1 0x20 ADD PUSH1 0x3 DUP3 ADD DUP1 SLOAD PUSH2 0x5A4 SWAP1 PUSH2 0xBEB JUMP JUMPDEST DUP1 PUSH1 0x1F ADD PUSH1 0x20 DUP1 SWAP2 DIV MUL PUSH1 0x20 ADD PUSH1 0x40 MLOAD SWAP1 DUP2 ADD PUSH1 0x40 MSTORE DUP1 SWAP3 SWAP2 SWAP1 DUP2 DUP2 MSTORE PUSH1 0x20 ADD DUP3 DUP1 SLOAD PUSH2 0x5D0 SWAP1 PUSH2 0xBEB JUMP JUMPDEST DUP1 ISZERO PUSH2 0x61B JUMPI DUP1 PUSH1 0x1F LT PUSH2 0x5F2 JUMPI PUSH2 0x100 DUP1 DUP4 SLOAD DIV MUL DUP4 MSTORE SWAP2 PUSH1 0x20 ADD SWAP2 PUSH2 0x61B JUMP JUMPDEST DUP3 ADD SWAP2 SWAP1 PUSH0 MSTORE PUSH1 0x20 PUSH0 KECCAK256 SWAP1 JUMPDEST DUP2 SLOAD DUP2 MSTORE SWAP1 PUSH1 0x1 ADD SWAP1 PUSH1 0x20 ADD DUP1 DUP4 GT PUSH2 0x5FE JUMPI DUP3 SWAP1 SUB PUSH1 0x1F AND DUP3 ADD SWAP2 JUMPDEST POP POP POP POP POP DUP2 MSTORE POP POP DUP2 MSTORE PUSH1 0x20 ADD SWAP1 PUSH1 0x1 ADD SWAP1 PUSH2 0x44A JUMP JUMPDEST POP POP POP POP SWAP1 POP SWAP1 JUMP JUMPDEST PUSH0 PUSH1 0x40 MLOAD SWAP1 POP SWAP1 JUMP JUMPDEST PUSH0 PUSH0 REVERT JUMPDEST PUSH0 PUSH0 REVERT JUMPDEST PUSH0 PUSH0 REVERT JUMPDEST PUSH0 PUSH0 REVERT JUMPDEST PUSH0 PUSH1 0x1F NOT PUSH1 0x1F DUP4 ADD AND SWAP1 POP SWAP2 SWAP1 POP JUMP JUMPDEST PUSH32 0x4E487B7100000000000000000000000000000000000000000000000000000000 PUSH0 MSTORE PUSH1 0x41 PUSH1 0x4 MSTORE PUSH1 0x24 PUSH0 REVERT JUMPDEST PUSH2 0x69B DUP3 PUSH2 0x655 JUMP JUMPDEST DUP2 ADD DUP2 DUP2 LT PUSH8 0xFFFFFFFFFFFFFFFF DUP3 GT OR ISZERO PUSH2 0x6BA JUMPI PUSH2 0x6B9 PUSH2 0x665 JUMP JUMPDEST JUMPDEST DUP1 PUSH1 0x40 MSTORE POP POP POP JUMP JUMPDEST PUSH0 PUSH2 0x6CC PUSH2 0x63C JUMP JUMPDEST SWAP1 POP PUSH2 0x6D8 DUP3 DUP3 PUSH2 0x692 JUMP JUMPDEST SWAP2 SWAP1 POP JUMP JUMPDEST PUSH0 PUSH8 0xFFFFFFFFFFFFFFFF DUP3 GT ISZERO PUSH2 0x6F7 JUMPI PUSH2 0x6F6 PUSH2 0x665 JUMP JUMPDEST JUMPDEST PUSH2 0x700 DUP3 PUSH2 0x655 JUMP JUMPDEST SWAP1 POP PUSH1 0x20 DUP2 ADD SWAP1 POP SWAP2 SWAP1 POP JUMP JUMPDEST DUP3 DUP2 DUP4 CALLDATACOPY PUSH0 DUP4 DUP4 ADD MSTORE POP POP POP JUMP JUMPDEST PUSH0 PUSH2 0x72D PUSH2 0x728 DUP5 PUSH2 0x6DD JUMP JUMPDEST PUSH2 0x6C3 JUMP JUMPDEST SWAP1 POP DUP3 DUP2 MSTORE PUSH1 0x20 DUP2 ADD DUP5 DUP5 DUP5 ADD GT ISZERO PUSH2 0x749 JUMPI PUSH2 0x748 PUSH2 0x651 JUMP JUMPDEST JUMPDEST PUSH2 0x754 DUP5 DUP3 DUP6 PUSH2 0x70D JUMP JUMPDEST POP SWAP4 SWAP3 POP POP POP JUMP JUMPDEST PUSH0 DUP3 PUSH1 0x1F DUP4 ADD SLT PUSH2 0x770 JUMPI PUSH2 0x76F PUSH2 0x64D JUMP JUMPDEST JUMPDEST DUP2 CALLDATALOAD PUSH2 0x780 DUP5 DUP3 PUSH1 0x20 DUP7 ADD PUSH2 0x71B JUMP JUMPDEST SWAP2 POP POP SWAP3 SWAP2 POP POP JUMP JUMPDEST PUSH0 DUP2 SWAP1 POP SWAP2 SWAP1 POP JUMP JUMPDEST PUSH2 0x79B DUP2 PUSH2 0x789 JUMP JUMPDEST DUP2 EQ PUSH2 0x7A5 JUMPI PUSH0 PUSH0 REVERT JUMPDEST POP JUMP JUMPDEST PUSH0 DUP2 CALLDATALOAD SWAP1 POP PUSH2 0x7B6 DUP2 PUSH2 0x792 JUMP JUMPDEST SWAP3 SWAP2 POP POP JUMP JUMPDEST PUSH0 PUSH0 PUSH0 PUSH0 PUSH1 0x80 DUP6 DUP8 SUB SLT ISZERO PUSH2 0x7D4 JUMPI PUSH2 0x7D3 PUSH2 0x645 JUMP JUMPDEST JUMPDEST PUSH0 DUP6 ADD CALLDATALOAD PUSH8 0xFFFFFFFFFFFFFFFF DUP2 GT ISZERO PUSH2 0x7F1 JUMPI PUSH2 0x7F0 PUSH2 0x649 JUMP JUMPDEST JUMPDEST PUSH2 0x7FD DUP8 DUP3 DUP9 ADD PUSH2 0x75C JUMP JUMPDEST SWAP5 POP POP PUSH1 0x20 DUP6 ADD CALLDATALOAD PUSH8 0xFFFFFFFFFFFFFFFF DUP2 GT ISZERO PUSH2 0x81E JUMPI PUSH2 0x81D PUSH2 0x649 JUMP JUMPDEST JUMPDEST PUSH2 0x82A DUP8 DUP3 DUP9 ADD PUSH2 0x75C JUMP JUMPDEST SWAP4 POP POP PUSH1 0x40 PUSH2 0x83B DUP8 DUP3 DUP9 ADD PUSH2 0x7A8 JUMP JUMPDEST SWAP3 POP POP PUSH1 0x60 DUP6 ADD CALLDATALOAD PUSH8 0xFFFFFFFFFFFFFFFF DUP2 GT ISZERO PUSH2 0x85C JUMPI PUSH2 0x85B PUSH2 0x649 JUMP JUMPDEST JUMPDEST PUSH2 0x868 DUP8 DUP3 DUP9 ADD PUSH2 0x75C JUMP JUMPDEST SWAP2 POP POP SWAP3 SWAP6 SWAP2 SWAP5 POP SWAP3 POP JUMP JUMPDEST PUSH0 PUSH1 0x20 DUP3 DUP5 SUB SLT ISZERO PUSH2 0x889 JUMPI PUSH2 0x888 PUSH2 0x645 JUMP JUMPDEST JUMPDEST PUSH0 PUSH2 0x896 DUP5 DUP3 DUP6 ADD PUSH2 0x7A8 JUMP JUMPDEST SWAP2 POP POP SWAP3 SWAP2 POP POP JUMP JUMPDEST PUSH0 DUP2 MLOAD SWAP1 POP SWAP2 SWAP1 POP JUMP JUMPDEST PUSH0 DUP3 DUP3 MSTORE PUSH1 0x20 DUP3 ADD SWAP1 POP SWAP3 SWAP2 POP POP JUMP JUMPDEST DUP3 DUP2 DUP4 MCOPY PUSH0 DUP4 DUP4 ADD MSTORE POP POP POP JUMP JUMPDEST PUSH0 PUSH2 0x8D1 DUP3 PUSH2 0x89F JUMP JUMPDEST PUSH2 0x8DB DUP2 DUP6 PUSH2 0x8A9 JUMP JUMPDEST SWAP4 POP PUSH2 0x8EB DUP2 DUP6 PUSH1 0x20 DUP7 ADD PUSH2 0x8B9 JUMP JUMPDEST PUSH2 0x8F4 DUP2 PUSH2 0x655 JUMP JUMPDEST DUP5 ADD SWAP2 POP POP SWAP3 SWAP2 POP POP JUMP JUMPDEST PUSH2 0x908 DUP2 PUSH2 0x789 JUMP JUMPDEST DUP3 MSTORE POP POP JUMP JUMPDEST PUSH0 PUSH1 0x80 DUP3 ADD SWAP1 POP DUP2 DUP2 SUB PUSH0 DUP4 ADD MSTORE PUSH2 0x926 DUP2 DUP8 PUSH2 0x8C7 JUMP JUMPDEST SWAP1 POP PUSH2 0x935 PUSH1 0x20 DUP4 ADD DUP7 PUSH2 0x8FF JUMP JUMPDEST DUP2 DUP2 SUB PUSH1 0x40 DUP4 ADD MSTORE PUSH2 0x947 DUP2 DUP6 PUSH2 0x8C7 JUMP JUMPDEST SWAP1 POP DUP2 DUP2 SUB PUSH1 0x60 DUP4 ADD MSTORE PUSH2 0x95B DUP2 DUP5 PUSH2 0x8C7 JUMP JUMPDEST SWAP1 POP SWAP6 SWAP5 POP POP POP POP POP JUMP JUMPDEST PUSH0 DUP2 MLOAD SWAP1 POP SWAP2 SWAP1 POP JUMP JUMPDEST PUSH0 DUP3 DUP3 MSTORE PUSH1 0x20 DUP3 ADD SWAP1 POP SWAP3 SWAP2 POP POP JUMP JUMPDEST PUSH0 DUP2 SWAP1 POP PUSH1 0x20 DUP3 ADD SWAP1 POP SWAP2 SWAP1 POP JUMP JUMPDEST PUSH0 DUP3 DUP3 MSTORE PUSH1 0x20 DUP3 ADD SWAP1 POP SWAP3 SWAP2 POP POP JUMP JUMPDEST PUSH0 PUSH2 0x9A9 DUP3 PUSH2 0x89F JUMP JUMPDEST PUSH2 0x9B3 DUP2 DUP6 PUSH2 0x98F JUMP JUMPDEST SWAP4 POP PUSH2 0x9C3 DUP2 DUP6 PUSH1 0x20 DUP7 ADD PUSH2 0x8B9 JUMP JUMPDEST PUSH2 0x9CC DUP2 PUSH2 0x655 JUMP JUMPDEST DUP5 ADD SWAP2 POP POP SWAP3 SWAP2 POP POP JUMP JUMPDEST PUSH2 0x9E0 DUP2 PUSH2 0x789 JUMP JUMPDEST DUP3 MSTORE POP POP JUMP JUMPDEST PUSH0 PUSH1 0x80 DUP4 ADD PUSH0 DUP4 ADD MLOAD DUP5 DUP3 SUB PUSH0 DUP7 ADD MSTORE PUSH2 0xA00 DUP3 DUP3 PUSH2 0x99F JUMP JUMPDEST SWAP2 POP POP PUSH1 0x20 DUP4 ADD MLOAD PUSH2 0xA15 PUSH1 0x20 DUP7 ADD DUP3 PUSH2 0x9D7 JUMP JUMPDEST POP PUSH1 0x40 DUP4 ADD MLOAD DUP5 DUP3 SUB PUSH1 0x40 DUP7 ADD MSTORE PUSH2 0xA2D DUP3 DUP3 PUSH2 0x99F JUMP JUMPDEST SWAP2 POP POP PUSH1 0x60 DUP4 ADD MLOAD DUP5 DUP3 SUB PUSH1 0x60 DUP7 ADD MSTORE PUSH2 0xA47 DUP3 DUP3 PUSH2 0x99F JUMP JUMPDEST SWAP2 POP POP DUP1 SWAP2 POP POP SWAP3 SWAP2 POP POP JUMP JUMPDEST PUSH0 PUSH2 0xA5F DUP4 DUP4 PUSH2 0x9E6 JUMP JUMPDEST SWAP1 POP SWAP3 SWAP2 POP POP JUMP JUMPDEST PUSH0 PUSH1 0x20 DUP3 ADD SWAP1 POP SWAP2 SWAP1 POP JUMP JUMPDEST PUSH0 PUSH2 0xA7D DUP3 PUSH2 0x966 JUMP JUMPDEST PUSH2 0xA87 DUP2 DUP6 PUSH2 0x970 JUMP JUMPDEST SWAP4 POP DUP4 PUSH1 0x20 DUP3 MUL DUP6 ADD PUSH2 0xA99 DUP6 PUSH2 0x980 JUMP JUMPDEST DUP1 PUSH0 JUMPDEST DUP6 DUP2 LT ISZERO PUSH2 0xAD4 JUMPI DUP5 DUP5 SUB DUP10 MSTORE DUP2 MLOAD PUSH2 0xAB5 DUP6 DUP3 PUSH2 0xA54 JUMP JUMPDEST SWAP5 POP PUSH2 0xAC0 DUP4 PUSH2 0xA67 JUMP JUMPDEST SWAP3 POP PUSH1 0x20 DUP11 ADD SWAP10 POP POP PUSH1 0x1 DUP2 ADD SWAP1 POP PUSH2 0xA9C JUMP JUMPDEST POP DUP3 SWAP8 POP DUP8 SWAP6 POP POP POP POP POP POP SWAP3 SWAP2 POP POP JUMP JUMPDEST PUSH0 PUSH1 0x20 DUP3 ADD SWAP1 POP DUP2 DUP2 SUB PUSH0 DUP4 ADD MSTORE PUSH2 0xAFE DUP2 DUP5 PUSH2 0xA73 JUMP JUMPDEST SWAP1 POP SWAP3 SWAP2 POP POP JUMP JUMPDEST PUSH0 DUP2 SWAP1 POP SWAP3 SWAP2 POP POP JUMP JUMPDEST PUSH0 PUSH2 0xB1A DUP3 PUSH2 0x89F JUMP JUMPDEST PUSH2 0xB24 DUP2 DUP6 PUSH2 0xB06 JUMP JUMPDEST SWAP4 POP PUSH2 0xB34 DUP2 DUP6 PUSH1 0x20 DUP7 ADD PUSH2 0x8B9 JUMP JUMPDEST DUP1 DUP5 ADD SWAP2 POP POP SWAP3 SWAP2 POP POP JUMP JUMPDEST PUSH0 PUSH2 0xB4B DUP3 DUP5 PUSH2 0xB10 JUMP JUMPDEST SWAP2 POP DUP2 SWAP1 POP SWAP3 SWAP2 POP POP JUMP JUMPDEST PUSH32 0x436F7572736520616C7265616479206164646564210000000000000000000000 PUSH0 DUP3 ADD MSTORE POP JUMP JUMPDEST PUSH0 PUSH2 0xB8A PUSH1 0x15 DUP4 PUSH2 0x8A9 JUMP JUMPDEST SWAP2 POP PUSH2 0xB95 DUP3 PUSH2 0xB56 JUMP JUMPDEST PUSH1 0x20 DUP3 ADD SWAP1 POP SWAP2 SWAP1 POP JUMP JUMPDEST PUSH0 PUSH1 0x20 DUP3 ADD SWAP1 POP DUP2 DUP2 SUB PUSH0 DUP4 ADD MSTORE PUSH2 0xBB7 DUP2 PUSH2 0xB7E JUMP JUMPDEST SWAP1 POP SWAP2 SWAP1 POP JUMP JUMPDEST PUSH32 0x4E487B7100000000000000000000000000000000000000000000000000000000 PUSH0 MSTORE PUSH1 0x22 PUSH1 0x4 MSTORE PUSH1 0x24 PUSH0 REVERT JUMPDEST PUSH0 PUSH1 0x2 DUP3 DIV SWAP1 POP PUSH1 0x1 DUP3 AND DUP1 PUSH2 0xC02 JUMPI PUSH1 0x7F DUP3 AND SWAP2 POP JUMPDEST PUSH1 0x20 DUP3 LT DUP2 SUB PUSH2 0xC15 JUMPI PUSH2 0xC14 PUSH2 0xBBE JUMP JUMPDEST JUMPDEST POP SWAP2 SWAP1 POP JUMP JUMPDEST PUSH0 DUP2 SWAP1 POP DUP2 PUSH0 MSTORE PUSH1 0x20 PUSH0 KECCAK256 SWAP1 POP SWAP2 SWAP1 POP JUMP JUMPDEST PUSH0 PUSH1 0x20 PUSH1 0x1F DUP4 ADD DIV SWAP1 POP SWAP2 SWAP1 POP JUMP JUMPDEST PUSH0 DUP3 DUP3 SHL SWAP1 POP SWAP3 SWAP2 POP POP JUMP JUMPDEST PUSH0 PUSH1 0x8 DUP4 MUL PUSH2 0xC77 PUSH32 0xFFFFFFFFFFFFFFFFFFFFFFFFFFFFFFFFFFFFFFFFFFFFFFFFFFFFFFFFFFFFFFFF DUP3 PUSH2 0xC3C JUMP JUMPDEST PUSH2 0xC81 DUP7 DUP4 PUSH2 0xC3C JUMP JUMPDEST SWAP6 POP DUP1 NOT DUP5 AND SWAP4 POP DUP1 DUP7 AND DUP5 OR SWAP3 POP POP POP SWAP4 SWAP3 POP POP POP JUMP JUMPDEST PUSH0 DUP2 SWAP1 POP SWAP2 SWAP1 POP JUMP JUMPDEST PUSH0 PUSH2 0xCBC PUSH2 0xCB7 PUSH2 0xCB2 DUP5 PUSH2 0x789 JUMP JUMPDEST PUSH2 0xC99 JUMP JUMPDEST PUSH2 0x789 JUMP JUMPDEST SWAP1 POP SWAP2 SWAP1 POP JUMP JUMPDEST PUSH0 DUP2 SWAP1 POP SWAP2 SWAP1 POP JUMP JUMPDEST PUSH2 0xCD5 DUP4 PUSH2 0xCA2 JUMP JUMPDEST PUSH2 0xCE9 PUSH2 0xCE1 DUP3 PUSH2 0xCC3 JUMP JUMPDEST DUP5 DUP5 SLOAD PUSH2 0xC48 JUMP JUMPDEST DUP3 SSTORE POP POP POP POP JUMP JUMPDEST PUSH0 PUSH0 SWAP1 POP SWAP1 JUMP JUMPDEST PUSH2 0xD00 PUSH2 0xCF1 JUMP JUMPDEST PUSH2 0xD0B DUP2 DUP5 DUP5 PUSH2 0xCCC JUMP JUMPDEST POP POP POP JUMP JUMPDEST JUMPDEST DUP2 DUP2 LT ISZERO PUSH2 0xD2E JUMPI PUSH2 0xD23 PUSH0 DUP3 PUSH2 0xCF8 JUMP JUMPDEST PUSH1 0x1 DUP2 ADD SWAP1 POP PUSH2 0xD11 JUMP JUMPDEST POP POP JUMP JUMPDEST PUSH1 0x1F DUP3 GT ISZERO PUSH2 0xD73 JUMPI PUSH2 0xD44 DUP2 PUSH2 0xC1B JUMP JUMPDEST PUSH2 0xD4D DUP5 PUSH2 0xC2D JUMP JUMPDEST DUP2 ADD PUSH1 0x20 DUP6 LT ISZERO PUSH2 0xD5C JUMPI DUP2 SWAP1 POP JUMPDEST PUSH2 0xD70 PUSH2 0xD68 DUP6 PUSH2 0xC2D JUMP JUMPDEST DUP4 ADD DUP3 PUSH2 0xD10 JUMP JUMPDEST POP POP JUMPDEST POP POP POP JUMP JUMPDEST PUSH0 DUP3 DUP3 SHR SWAP1 POP SWAP3 SWAP2 POP POP JUMP JUMPDEST PUSH0 PUSH2 0xD93 PUSH0 NOT DUP5 PUSH1 0x8 MUL PUSH2 0xD78 JUMP JUMPDEST NOT DUP1 DUP4 AND SWAP2 POP POP SWAP3 SWAP2 POP POP JUMP JUMPDEST PUSH0 PUSH2 0xDAB DUP4 DUP4 PUSH2 0xD84 JUMP JUMPDEST SWAP2 POP DUP3 PUSH1 0x2 MUL DUP3 OR SWAP1 POP SWAP3 SWAP2 POP POP JUMP JUMPDEST PUSH2 0xDC4 DUP3 PUSH2 0x89F JUMP JUMPDEST PUSH8 0xFFFFFFFFFFFFFFFF DUP2 GT ISZERO PUSH2 0xDDD JUMPI PUSH2 0xDDC PUSH2 0x665 JUMP JUMPDEST JUMPDEST PUSH2 0xDE7 DUP3 SLOAD PUSH2 0xBEB JUMP JUMPDEST PUSH2 0xDF2 DUP3 DUP3 DUP6 PUSH2 0xD32 JUMP JUMPDEST PUSH0 PUSH1 0x20 SWAP1 POP PUSH1 0x1F DUP4 GT PUSH1 0x1 DUP2 EQ PUSH2 0xE23 JUMPI PUSH0 DUP5 ISZERO PUSH2 0xE11 JUMPI DUP3 DUP8 ADD MLOAD SWAP1 POP JUMPDEST PUSH2 0xE1B DUP6 DUP3 PUSH2 0xDA0 JUMP JUMPDEST DUP7 SSTORE POP PUSH2 0xE82 JUMP JUMPDEST PUSH1 0x1F NOT DUP5 AND PUSH2 0xE31 DUP7 PUSH2 0xC1B JUMP JUMPDEST PUSH0 JUMPDEST DUP3 DUP2 LT ISZERO PUSH2 0xE58 JUMPI DUP5 DUP10 ADD MLOAD DUP3 SSTORE PUSH1 0x1 DUP3 ADD SWAP2 POP PUSH1 0x20 DUP6 ADD SWAP5 POP PUSH1 0x20 DUP2 ADD SWAP1 POP PUSH2 0xE33 JUMP JUMPDEST DUP7 DUP4 LT ISZERO PUSH2 0xE75 JUMPI DUP5 DUP10 ADD MLOAD PUSH2 0xE71 PUSH1 0x1F DUP10 AND DUP3 PUSH2 0xD84 JUMP JUMPDEST DUP4 SSTORE POP JUMPDEST PUSH1 0x1 PUSH1 0x2 DUP9 MUL ADD DUP9 SSTORE POP POP POP JUMPDEST POP POP POP POP POP POP JUMP INVALID LOG2 PUSH5 0x6970667358 0x22 SLT KECCAK256 MSTORE8 0xBB 0x29 DUP6 GASLIMIT SWAPN 0x4D 0xD4 PUSH15 0x29A8B980EBDFB9500FB3A6B36EA4C1 0xB1 0xDC DUP2 0xB4 0x2A PUSH23 0xB6FD64736F6C634300081F003300000000000000000000 "
				},
				"gasEstimates": {
					"creation": {
						"codeDepositCost": "755200",
						"executionCost": "784",
						"totalCost": "755984"
					},
					"external": {
						"courses(uint256)": "infinite",
						"createCourse(string,string,uint256,string)": "infinite",
						"getCourses()": "infinite"
					}
				},
				"methodIdentifiers": {
					"courses(uint256)": "96f979d2",
					"createCourse(string,string,uint256,string)": "904ae8ad",
					"getCourses()": "cc126479"
				}
			},
			"storageLayout": {
				"storage": [
					{
						"astId": 16,
						"contract": "Courses.sol:Courses",
						"label": "courses",
						"offset": 0,
						"slot": "0",
						"type": "t_array(t_struct(Course)12_storage)dyn_storage"
					},
					{
						"astId": 21,
						"contract": "Courses.sol:Courses",
						"label": "codeToCourse",
						"offset": 0,
						"slot": "1",
						"type": "t_mapping(t_string_memory_ptr,t_struct(Course)12_storage)"
					},
					{
						"astId": 25,
						"contract": "Courses.sol:Courses",
						"label": "courseExist",
						"offset": 0,
						"slot": "2",
						"type": "t_mapping(t_string_memory_ptr,t_bool)"
					}
				],
				"types": {
					"t_array(t_struct(Course)12_storage)dyn_storage": {
						"base": "t_struct(Course)12_storage",
						"encoding": "dynamic_array",
						"label": "struct Courses.Course[]",
						"numberOfBytes": "32"
					},
					"t_bool": {
						"encoding": "inplace",
						"label": "bool",
						"numberOfBytes": "1"
					},
					"t_mapping(t_string_memory_ptr,t_bool)": {
						"encoding": "mapping",
						"key": "t_string_memory_ptr",
						"label": "mapping(string => bool)",
						"numberOfBytes": "32",
						"value": "t_bool"
					},
					"t_mapping(t_string_memory_ptr,t_struct(Course)12_storage)": {
						"encoding": "mapping",
						"key": "t_string_memory_ptr",
						"label": "mapping(string => struct Courses.Course)",
						"numberOfBytes": "32",
						"value": "t_struct(Course)12_storage"
					},
					"t_string_memory_ptr": {
						"encoding": "bytes",
						"label": "string",
						"numberOfBytes": "32"
					},
					"t_string_storage": {
						"encoding": "bytes",
						"label": "string",
						"numberOfBytes": "32"
					},
					"t_struct(Course)12_storage": {
						"encoding": "inplace",
						"label": "struct Courses.Course",
						"members": [
							{
								"astId": 5,
								"contract": "Courses.sol:Courses",
								"label": "title",
								"offset": 0,
								"slot": "0",
								"type": "t_string_storage"
							},
							{
								"astId": 7,
								"contract": "Courses.sol:Courses",
								"label": "unit",
								"offset": 0,
								"slot": "1",
								"type": "t_uint256"
							},
							{
								"astId": 9,
								"contract": "Courses.sol:Courses",
								"label": "code",
								"offset": 0,
								"slot": "2",
								"type": "t_string_storage"
							},
							{
								"astId": 11,
								"contract": "Courses.sol:Courses",
								"label": "lecturer",
								"offset": 0,
								"slot": "3",
								"type": "t_string_storage"
							}
						],
						"numberOfBytes": "128"
					},
					"t_uint256": {
						"encoding": "inplace",
						"label": "uint256",
						"numberOfBytes": "32"
					}
				}
			},
			"userdoc": {
				"kind": "user",
				"methods": {},
				"version": 1
			}
		}
	}
}