{
	"data": {
		"bytecode": {
			"linkReferences": {},
			"object": "6080604052348015600e575f5ffd5b50610bc98061001c5f395ff3fe608060405234801561000f575f5ffd5b506004361061003f575f3560e01c80630b8392e1146100435780633b83ad65146100745780638604ca7314610090575b5f5ffd5b61005d600480360381019061005891906103dd565b6100ae565b60405161006b929190610487565b60405180910390f35b61008e600480360381019061008991906105e1565b610162565b005b6100986102a5565b6040516100a59190610787565b60405180910390f35b5f81815481106100bc575f80fd5b905f5260205f2090600202015f91509050805f0180546100db906107d4565b80601f0160208091040260200160405190810160405280929190818152602001828054610107906107d4565b80156101525780601f1061012957610100808354040283529160200191610152565b820191905f5260205f20905b81548152906001019060200180831161013557829003601f168201915b5050505050908060010154905082565b5f8251116101a5576040517f08c379a000000000000000000000000000000000000000000000000000000000815260040161019c9061084e565b60405180910390fd5b6001826040516101b591906108a6565b90815260200160405180910390205f9054906101000a900460ff1615610210576040517f08c379a000000000000000000000000000000000000000000000000000000000815260040161020790610906565b60405180910390fd5b6001808360405161022191906108a6565b90815260200160405180910390205f6101000a81548160ff0219169083151502179055505f604051806040016040528084815260200183815250908060018154018082558091505060019003905f5260205f2090600202015f909190919091505f820151815f0190816102949190610ac4565b506020820151816001015550505050565b60605f805480602002602001604051908101604052809291908181526020015f905b82821015610390578382905f5260205f2090600202016040518060400160405290815f820180546102f7906107d4565b80601f0160208091040260200160405190810160405280929190818152602001828054610323906107d4565b801561036e5780601f106103455761010080835404028352916020019161036e565b820191905f5260205f20905b81548152906001019060200180831161035157829003601f168201915b50505050508152602001600182015481525050815260200190600101906102c7565b50505050905090565b5f604051905090565b5f5ffd5b5f5ffd5b5f819050919050565b6103bc816103aa565b81146103c6575f5ffd5b50565b5f813590506103d7816103b3565b92915050565b5f602082840312156103f2576103f16103a2565b5b5f6103ff848285016103c9565b91505092915050565b5f81519050919050565b5f82825260208201905092915050565b8281835e5f83830152505050565b5f601f19601f8301169050919050565b5f61044a82610408565b6104548185610412565b9350610464818560208601610422565b61046d81610430565b840191505092915050565b610481816103aa565b82525050565b5f6040820190508181035f83015261049f8185610440565b90506104ae6020830184610478565b9392505050565b5f5ffd5b5f5ffd5b7f4e487b71000000000000000000000000000000000000000000000000000000005f52604160045260245ffd5b6104f382610430565b810181811067ffffffffffffffff82111715610512576105116104bd565b5b80604052505050565b5f610524610399565b905061053082826104ea565b919050565b5f67ffffffffffffffff82111561054f5761054e6104bd565b5b61055882610430565b9050602081019050919050565b828183375f83830152505050565b5f61058561058084610535565b61051b565b9050828152602081018484840111156105a1576105a06104b9565b5b6105ac848285610565565b509392505050565b5f82601f8301126105c8576105c76104b5565b5b81356105d8848260208601610573565b91505092915050565b5f5f604083850312156105f7576105f66103a2565b5b5f83013567ffffffffffffffff811115610614576106136103a6565b5b610620858286016105b4565b9250506020610631858286016103c9565b9150509250929050565b5f81519050919050565b5f82825260208201905092915050565b5f819050602082019050919050565b5f82825260208201905092915050565b5f61067e82610408565b6106888185610664565b9350610698818560208601610422565b6106a181610430565b840191505092915050565b6106b5816103aa565b82525050565b5f604083015f8301518482035f8601526106d58282610674565b91505060208301516106ea60208601826106ac565b508091505092915050565b5f61070083836106bb565b905092915050565b5f602082019050919050565b5f61071e8261063b565b6107288185610645565b93508360208202850161073a85610655565b805f5b85811015610775578484038952815161075685826106f5565b945061076183610708565b925060208a0199505060018101905061073d565b50829750879550505050505092915050565b5f6020820190508181035f83015261079f8184610714565b905092915050565b7f4e487b71000000000000000000000000000000000000000000000000000000005f52602260045260245ffd5b5f60028204905060018216806107eb57607f821691505b6020821081036107fe576107fd6107a7565b5b50919050565b7f4e616d652063616e6e6f7420626520656d7074790000000000000000000000005f82015250565b5f610838601483610412565b915061084382610804565b602082019050919050565b5f6020820190508181035f8301526108658161082c565b9050919050565b5f81905092915050565b5f61088082610408565b61088a818561086c565b935061089a818560208601610422565b80840191505092915050565b5f6108b18284610876565b915081905092915050565b7f4c6563747572657220616c7265616479206578697374210000000000000000005f82015250565b5f6108f0601783610412565b91506108fb826108bc565b602082019050919050565b5f6020820190508181035f83015261091d816108e4565b9050919050565b5f819050815f5260205f209050919050565b5f6020601f8301049050919050565b5f82821b905092915050565b5f600883026109807fffffffffffffffffffffffffffffffffffffffffffffffffffffffffffffffff82610945565b61098a8683610945565b95508019841693508086168417925050509392505050565b5f819050919050565b5f6109c56109c06109bb846103aa565b6109a2565b6103aa565b9050919050565b5f819050919050565b6109de836109ab565b6109f26109ea826109cc565b848454610951565b825550505050565b5f5f905090565b610a096109fa565b610a148184846109d5565b505050565b5b81811015610a3757610a2c5f82610a01565b600181019050610a1a565b5050565b601f821115610a7c57610a4d81610924565b610a5684610936565b81016020851015610a65578190505b610a79610a7185610936565b830182610a19565b50505b505050565b5f82821c905092915050565b5f610a9c5f1984600802610a81565b1980831691505092915050565b5f610ab48383610a8d565b9150826002028217905092915050565b610acd82610408565b67ffffffffffffffff811115610ae657610ae56104bd565b5b610af082546107d4565b610afb828285610a3b565b5f60209050601f831160018114610b2c575f8415610b1a578287015190505b610b248582610aa9565b865550610b8b565b601f198416610b3a86610924565b5f5b82811015610b6157848901518255600182019150602085019450602081019050610b3c565b86831015610b7e5784890151610b7a601f891682610a8d565b8355505b6001600288020188555050505b50505050505056fea2646970667358221220fc834ed722513fde1c70775862498e8d3f6fc30c2a6728a26eca3766bae6efb664736f6c634300081f0033",
			"opcodes": "PUSH1 0x80 PUSH1 0x40 MSTORE CALLVALUE DUP1 ISZERO PUSH1 0xE JUMPI PUSH0 PUSH0 REVERT JUMPDEST POP PUSH2 0xBC9 DUP1 PUSH2 0x1C PUSH0 CODECOPY PUSH0 RETURN INVALID PUSH1 0x80 PUSH1 0x40 MSTORE CALLVALUE DUP1 ISZERO PUSH2 0xF JUMPI PUSH0 PUSH0 REVERT JUMPDEST POP PUSH1 0x4 CALLDATASIZE LT PUSH2 0x3F JUMPI PUSH0 CALLDATALOAD PUSH1 0xE0 SHR DUP1 PUSH4 0xB8392E1 EQ PUSH2 0x43 JUMPI DUP1 PUSH4 0x3B83AD65 EQ PUSH2 0x74 JUMPI DUP1 PUSH4 0x8604CA73 EQ PUSH2 0x90 JUMPI JUMPDEST PUSH0 PUSH0 REVERT JUMPDEST PUSH2 0x5D PUSH1 0x4 DUP1 CALLDATASIZE SUB DUP2 ADD SWAP1 PUSH2 0x58 SWAP2 SWAP1 PUSH2 0x3DD JUMP JUMPDEST PUSH2 0xAE JUMP JUMPDEST PUSH1 0x40 MLOAD PUSH2 0x6B SWAP3 SWAP2 SWAP1 PUSH2 0x487 JUMP JUMPDEST PUSH1 0x40 MLOAD DUP1 SWAP2 SUB SWAP1 RETURN JUMPDEST PUSH2 0x8E PUSH1 0x4 DUP1 CALLDATASIZE SUB DUP2 ADD SWAP1 PUSH2 0x89 SWAP2 SWAP1 PUSH2 0x5E1 JUMP JUMPDEST PUSH2 0x162 JUMP JUMPDEST STOP JUMPDEST PUSH2 0x98 PUSH2 0x2A5 JUMP JUMPDEST PUSH1 0x40 MLOAD PUSH2 0xA5 SWAP2 SWAP1 PUSH2 0x787 JUMP JUMPDEST PUSH1 0x40 MLOAD DUP1 SWAP2 SUB SWAP1 RETURN JUMPDEST PUSH0 DUP2 DUP2 SLOAD DUP2 LT PUSH2 0xBC JUMPI PUSH0 DUP1 REVERT JUMPDEST SWAP1 PUSH0 MSTORE PUSH1 0x20 PUSH0 KECCAK256 SWAP1 PUSH1 0x2 MUL ADD PUSH0 SWAP2 POP SWAP1 POP DUP1 PUSH0 ADD DUP1 SLOAD PUSH2 0xDB SWAP1 PUSH2 0x7D4 JUMP JUMPDEST DUP1 PUSH1 0x1F ADD PUSH1 0x20 DUP1 SWAP2 DIV MUL PUSH1 0x20 ADD PUSH1 0x40 MLOAD SWAP1 DUP2 ADD PUSH1 0x40 MSTORE DUP1 SWAP3 SWAP2 SWAP1 DUP2 DUP2 MSTORE PUSH1 0x20 ADD DUP3 DUP1 SLOAD PUSH2 0x107 SWAP1 PUSH2 0x7D4 JUMP JUMPDEST DUP1 ISZERO PUSH2 0x152 JUMPI DUP1 PUSH1 0x1F LT PUSH2 0x129 JUMPI PUSH2 0x100 DUP1 DUP4 SLOAD DIV MUL DUP4 MSTORE SWAP2 PUSH1 0x20 ADD SWAP2 PUSH2 0x152 JUMP JUMPDEST DUP3 ADD SWAP2 SWAP1 PUSH0 MSTORE PUSH1 0x20 PUSH0 KECCAK256 SWAP1 JUMPDEST DUP2 SLOAD DUP2 MSTORE SWAP1 PUSH1 0x1 ADD SWAP1 PUSH1 0x20 ADD DUP1 DUP4 GT PUSH2 0x135 JUMPI DUP3 SWAP1 SUB PUSH1 0x1F AND DUP3 ADD SWAP2 JUMPDEST POP POP POP POP POP SWAP1 DUP1 PUSH1 0x1 ADD SLOAD SWAP1 POP DUP3 JUMP JUMPDEST PUSH0 DUP3 MLOAD GT PUSH2 0x1A5 JUMPI PUSH1 0x40 MLOAD PUSH32 0x8C379A000000000000000000000000000000000000000000000000000000000 DUP2 MSTORE PUSH1 0x4 ADD PUSH2 0x19C SWAP1 PUSH2 0x84E JUMP JUMPDEST PUSH1 0x40 MLOAD DUP1 SWAP2 SUB SWAP1 REVERT JUMPDEST PUSH1 0x1 DUP3 PUSH1 0x40 MLOAD PUSH2 0x1B5 SWAP2 SWAP1 PUSH2 0x8A6 JUMP JUMPDEST SWAP1 DUP2 MSTORE PUSH1 0x20 ADD PUSH1 0x40 MLOAD DUP1 SWAP2 SUB SWAP1 KECCAK256 PUSH0 SWAP1 SLOAD SWAP1 PUSH2 0x100 EXP SWAP1 DIV PUSH1 0xFF AND ISZERO PUSH2 0x210 JUMPI PUSH1 0x40 MLOAD PUSH32 0x8C379A000000000000000000000000000000000000000000000000000000000 DUP2 MSTORE PUSH1 0x4 ADD PUSH2 0x207 SWAP1 PUSH2 0x906 JUMP JUMPDEST PUSH1 0x40 MLOAD DUP1 SWAP2 SUB SWAP1 REVERT JUMPDEST PUSH1 0x1 DUP1 DUP4 PUSH1 0x40 MLOAD PUSH2 0x221 SWAP2 SWAP1 PUSH2 0x8A6 JUMP JUMPDEST SWAP1 DUP2 MSTORE PUSH1 0x20 ADD PUSH1 0x40 MLOAD DUP1 SWAP2 SUB SWAP1 KECCAK256 PUSH0 PUSH2 0x100 EXP DUP2 SLOAD DUP2 PUSH1 0xFF MUL NOT AND SWAP1 DUP4 ISZERO ISZERO MUL OR SWAP1 SSTORE POP PUSH0 PUSH1 0x40 MLOAD DUP1 PUSH1 0x40 ADD PUSH1 0x40 MSTORE DUP1 DUP5 DUP2 MSTORE PUSH1 0x20 ADD DUP4 DUP2 MSTORE POP SWAP1 DUP1 PUSH1 0x1 DUP2 SLOAD ADD DUP1 DUP3 SSTORE DUP1 SWAP2 POP POP PUSH1 0x1 SWAP1 SUB SWAP1 PUSH0 MSTORE PUSH1 0x20 PUSH0 KECCAK256 SWAP1 PUSH1 0x2 MUL ADD PUSH0 SWAP1 SWAP2 SWAP1 SWAP2 SWAP1 SWAP2 POP PUSH0 DUP3 ADD MLOAD DUP2 PUSH0 ADD SWAP1 DUP2 PUSH2 0x294 SWAP2 SWAP1 PUSH2 0xAC4 JUMP JUMPDEST POP PUSH1 0x20 DUP3 ADD MLOAD DUP2 PUSH1 0x1 ADD SSTORE POP POP POP POP JUMP JUMPDEST PUSH1 0x60 PUSH0 DUP1 SLOAD DUP1 PUSH1 0x20 MUL PUSH1 0x20 ADD PUSH1 0x40 MLOAD SWAP1 DUP2 ADD PUSH1 0x40 MSTORE DUP1 SWAP3 SWAP2 SWAP1 DUP2 DUP2 MSTORE PUSH1 0x20 ADD PUSH0 SWAP1 JUMPDEST DUP3 DUP3 LT ISZERO PUSH2 0x390 JUMPI DUP4 DUP3 SWAP1 PUSH0 MSTORE PUSH1 0x20 PUSH0 KECCAK256 SWAP1 PUSH1 0x2 MUL ADD PUSH1 0x40 MLOAD DUP1 PUSH1 0x40 ADD PUSH1 0x40 MSTORE SWAP1 DUP2 PUSH0 DUP3 ADD DUP1 SLOAD PUSH2 0x2F7 SWAP1 PUSH2 0x7D4 JUMP JUMPDEST DUP1 PUSH1 0x1F ADD PUSH1 0x20 DUP1 SWAP2 DIV MUL PUSH1 0x20 ADD PUSH1 0x40 MLOAD SWAP1 DUP2 ADD PUSH1 0x40 MSTORE DUP1 SWAP3 SWAP2 SWAP1 DUP2 DUP2 MSTORE PUSH1 0x20 ADD DUP3 DUP1 SLOAD PUSH2 0x323 SWAP1 PUSH2 0x7D4 JUMP JUMPDEST DUP1 ISZERO PUSH2 0x36E JUMPI DUP1 PUSH1 0x1F LT PUSH2 0x345 JUMPI PUSH2 0x100 DUP1 DUP4 SLOAD DIV MUL DUP4 MSTORE SWAP2 PUSH1 0x20 ADD SWAP2 PUSH2 0x36E JUMP JUMPDEST DUP3 ADD SWAP2 SWAP1 PUSH0 MSTORE PUSH1 0x20 PUSH0 KECCAK256 SWAP1 JUMPDEST DUP2 SLOAD DUP2 MSTORE SWAP1 PUSH1 0x1 ADD SWAP1 PUSH1 0x20 ADD DUP1 DUP4 GT PUSH2 0x351 JUMPI DUP3 SWAP1 SUB PUSH1 0x1F AND DUP3 ADD SWAP2 JUMPDEST POP POP POP POP POP DUP2 MSTORE PUSH1 0x20 ADD PUSH1 0x1 DUP3 ADD SLOAD DUP2 MSTORE POP POP DUP2 MSTORE PUSH1 0x20 ADD SWAP1 PUSH1 0x1 ADD SWAP1 PUSH2 0x2C7 JUMP JUMPDEST POP POP POP POP SWAP1 POP SWAP1 JUMP JUMPDEST PUSH0 PUSH1 0x40 MLOAD SWAP1 POP SWAP1 JUMP JUMPDEST PUSH0 PUSH0 REVERT JUMPDEST PUSH0 PUSH0 REVERT JUMPDEST PUSH0 DUP2 SWAP1 POP SWAP2 SWAP1 POP JUMP JUMPDEST PUSH2 0x3BC DUP2 PUSH2 0x3AA JUMP JUMPDEST DUP2 EQ PUSH2 0x3C6 JUMPI PUSH0 PUSH0 REVERT JUMPDEST POP JUMP JUMPDEST PUSH0 DUP2 CALLDATALOAD SWAP1 POP PUSH2 0x3D7 DUP2 PUSH2 0x3B3 JUMP JUMPDEST SWAP3 SWAP2 POP POP JUMP JUMPDEST PUSH0 PUSH1 0x20 DUP3 DUP5 SUB SLT ISZERO PUSH2 0x3F2 JUMPI PUSH2 0x3F1 PUSH2 0x3A2 JUMP JUMPDEST JUMPDEST PUSH0 PUSH2 0x3FF DUP5 DUP3 DUP6 ADD PUSH2 0x3C9 JUMP JUMPDEST SWAP2 POP POP SWAP3 SWAP2 POP POP JUMP JUMPDEST PUSH0 DUP2 MLOAD SWAP1 POP SWAP2 SWAP1 POP JUMP JUMPDEST PUSH0 DUP3 DUP3 MSTORE PUSH1 0x20 DUP3 ADD SWAP1 POP SWAP3 SWAP2 POP POP JUMP JUMPDEST DUP3 DUP2 DUP4 MCOPY PUSH0 DUP4 DUP4 ADD MSTORE POP POP POP JUMP JUMPDEST PUSH0 PUSH1 0x1F NOT PUSH1 0x1F DUP4 ADD AND SWAP1 POP SWAP2 SWAP1 POP JUMP JUMPDEST PUSH0 PUSH2 0x44A DUP3 PUSH2 0x408 JUMP JUMPDEST PUSH2 0x454 DUP2 DUP6 PUSH2 0x412 JUMP JUMPDEST SWAP4 POP PUSH2 0x464 DUP2 DUP6 PUSH1 0x20 DUP7 ADD PUSH2 0x422 JUMP JUMPDEST PUSH2 0x46D DUP2 PUSH2 0x430 JUMP JUMPDEST DUP5 ADD SWAP2 POP POP SWAP3 SWAP2 POP POP JUMP JUMPDEST PUSH2 0x481 DUP2 PUSH2 0x3AA JUMP JUMPDEST DUP3 MSTORE POP POP JUMP JUMPDEST PUSH0 PUSH1 0x40 DUP3 ADD SWAP1 POP DUP2 DUP2 SUB PUSH0 DUP4 ADD MSTORE PUSH2 0x49F DUP2 DUP6 PUSH2 0x440 JUMP JUMPDEST SWAP1 POP PUSH2 0x4AE PUSH1 0x20 DUP4 ADD DUP5 PUSH2 0x478 JUMP JUMPDEST SWAP4 SWAP3 POP POP POP JUMP JUMPDEST PUSH0 PUSH0 REVERT JUMPDEST PUSH0 PUSH0 REVERT JUMPDEST PUSH32 0x4E487B7100000000000000000000000000000000000000000000000000000000 PUSH0 MSTORE PUSH1 0x41 PUSH1 0x4 MSTORE PUSH1 0x24 PUSH0 REVERT JUMPDEST PUSH2 0x4F3 DUP3 PUSH2 0x430 JUMP JUMPDEST DUP2 ADD DUP2 DUP2 LT PUSH8 0xFFFFFFFFFFFFFFFF DUP3 GT OR ISZERO PUSH2 0x512 JUMPI PUSH2 0x511 PUSH2 0x4BD JUMP JUMPDEST JUMPDEST DUP1 PUSH1 0x40 MSTORE POP POP POP JUMP JUMPDEST PUSH0 PUSH2 0x524 PUSH2 0x399 JUMP JUMPDEST SWAP1 POP PUSH2 0x530 DUP3 DUP3 PUSH2 0x4EA JUMP JUMPDEST SWAP2 SWAP1 POP JUMP JUMPDEST PUSH0 PUSH8 0xFFFFFFFFFFFFFFFF DUP3 GT ISZERO PUSH2 0x54F JUMPI PUSH2 0x54E PUSH2 0x4BD JUMP JUMPDEST JUMPDEST PUSH2 0x558 DUP3 PUSH2 0x430 JUMP JUMPDEST SWAP1 POP PUSH1 0x20 DUP2 ADD SWAP1 POP SWAP2 SWAP1 POP JUMP JUMPDEST DUP3 DUP2 DUP4 CALLDATACOPY PUSH0 DUP4 DUP4 ADD MSTORE POP POP POP JUMP JUMPDEST PUSH0 PUSH2 0x585 PUSH2 0x580 DUP5 PUSH2 0x535 JUMP JUMPDEST PUSH2 0x51B JUMP JUMPDEST SWAP1 POP DUP3 DUP2 MSTORE PUSH1 0x20 DUP2 ADD DUP5 DUP5 DUP5 ADD GT ISZERO PUSH2 0x5A1 JUMPI PUSH2 0x5A0 PUSH2 0x4B9 JUMP JUMPDEST JUMPDEST PUSH2 0x5AC DUP5 DUP3 DUP6 PUSH2 0x565 JUMP JUMPDEST POP SWAP4 SWAP3 POP POP POP JUMP JUMPDEST PUSH0 DUP3 PUSH1 0x1F DUP4 ADD SLT PUSH2 0x5C8 JUMPI PUSH2 0x5C7 PUSH2 0x4B5 JUMP JUMPDEST JUMPDEST DUP2 CALLDATALOAD PUSH2 0x5D8 DUP5 DUP3 PUSH1 0x20 DUP7 ADD PUSH2 0x573 JUMP JUMPDEST SWAP2 POP POP SWAP3 SWAP2 POP POP JUMP JUMPDEST PUSH0 PUSH0 PUSH1 0x40 DUP4 DUP6 SUB SLT ISZERO PUSH2 0x5F7 JUMPI PUSH2 0x5F6 PUSH2 0x3A2 JUMP JUMPDEST JUMPDEST PUSH0 DUP4 ADD CALLDATALOAD PUSH8 0xFFFFFFFFFFFFFFFF DUP2 GT ISZERO PUSH2 0x614 JUMPI PUSH2 0x613 PUSH2 0x3A6 JUMP JUMPDEST JUMPDEST PUSH2 0x620 DUP6 DUP3 DUP7 ADD PUSH2 0x5B4 JUMP JUMPDEST SWAP3 POP POP PUSH1 0x20 PUSH2 0x631 DUP6 DUP3 DUP7 ADD PUSH2 0x3C9 JUMP JUMPDEST SWAP2 POP POP SWAP3 POP SWAP3 SWAP1 POP JUMP JUMPDEST PUSH0 DUP2 MLOAD SWAP1 POP SWAP2 SWAP1 POP JUMP JUMPDEST PUSH0 DUP3 DUP3 MSTORE PUSH1 0x20 DUP3 ADD SWAP1 POP SWAP3 SWAP2 POP POP JUMP JUMPDEST PUSH0 DUP2 SWAP1 POP PUSH1 0x20 DUP3 ADD SWAP1 POP SWAP2 SWAP1 POP JUMP JUMPDEST PUSH0 DUP3 DUP3 MSTORE PUSH1 0x20 DUP3 ADD SWAP1 POP SWAP3 SWAP2 POP POP JUMP JUMPDEST PUSH0 PUSH2 0x67E DUP3 PUSH2 0x408 JUMP JUMPDEST PUSH2 0x688 DUP2 DUP6 PUSH2 0x664 JUMP JUMPDEST SWAP4 POP PUSH2 0x698 DUP2 DUP6 PUSH1 0x20 DUP7 ADD PUSH2 0x422 JUMP JUMPDEST PUSH2 0x6A1 DUP2 PUSH2 0x430 JUMP JUMPDEST DUP5 ADD SWAP2 POP POP SWAP3 SWAP2 POP POP JUMP JUMPDEST PUSH2 0x6B5 DUP2 PUSH2 0x3AA JUMP JUMPDEST DUP3 MSTORE POP POP JUMP JUMPDEST PUSH0 PUSH1 0x40 DUP4 ADD PUSH0 DUP4 ADD MLOAD DUP5 DUP3 SUB PUSH0 DUP7 ADD MSTORE PUSH2 0x6D5 DUP3 DUP3 PUSH2 0x674 JUMP JUMPDEST SWAP2 POP POP PUSH1 0x20 DUP4 ADD MLOAD PUSH2 0x6EA PUSH1 0x20 DUP7 ADD DUP3 PUSH2 0x6AC JUMP JUMPDEST POP DUP1 SWAP2 POP POP SWAP3 SWAP2 POP POP JUMP JUMPDEST PUSH0 PUSH2 0x700 DUP4 DUP4 PUSH2 0x6BB JUMP JUMPDEST SWAP1 POP SWAP3 SWAP2 POP POP JUMP JUMPDEST PUSH0 PUSH1 0x20 DUP3 ADD SWAP1 POP SWAP2 SWAP1 POP JUMP JUMPDEST PUSH0 PUSH2 0x71E DUP3 PUSH2 0x63B JUMP JUMPDEST PUSH2 0x728 DUP2 DUP6 PUSH2 0x645 JUMP JUMPDEST SWAP4 POP DUP4 PUSH1 0x20 DUP3 MUL DUP6 ADD PUSH2 0x73A DUP6 PUSH2 0x655 JUMP JUMPDEST DUP1 PUSH0 JUMPDEST DUP6 DUP2 LT ISZERO PUSH2 0x775 JUMPI DUP5 DUP5 SUB DUP10 MSTORE DUP2 MLOAD PUSH2 0x756 DUP6 DUP3 PUSH2 0x6F5 JUMP JUMPDEST SWAP5 POP PUSH2 0x761 DUP4 PUSH2 0x708 JUMP JUMPDEST SWAP3 POP PUSH1 0x20 DUP11 ADD SWAP10 POP POP PUSH1 0x1 DUP2 ADD SWAP1 POP PUSH2 0x73D JUMP JUMPDEST POP DUP3 SWAP8 POP DUP8 SWAP6 POP POP POP POP POP POP SWAP3 SWAP2 POP POP JUMP JUMPDEST PUSH0 PUSH1 0x20 DUP3 ADD SWAP1 POP DUP2 DUP2 SUB PUSH0 DUP4 ADD MSTORE PUSH2 0x79F DUP2 DUP5 PUSH2 0x714 JUMP JUMPDEST SWAP1 POP SWAP3 SWAP2 POP POP JUMP JUMPDEST PUSH32 0x4E487B7100000000000000000000000000000000000000000000000000000000 PUSH0 MSTORE PUSH1 0x22 PUSH1 0x4 MSTORE PUSH1 0x24 PUSH0 REVERT JUMPDEST PUSH0 PUSH1 0x2 DUP3 DIV SWAP1 POP PUSH1 0x1 DUP3 AND DUP1 PUSH2 0x7EB JUMPI PUSH1 0x7F DUP3 AND SWAP2 POP JUMPDEST PUSH1 0x20 DUP3 LT DUP2 SUB PUSH2 0x7FE JUMPI PUSH2 0x7FD PUSH2 0x7A7 JUMP JUMPDEST JUMPDEST POP SWAP2 SWAP1 POP JUMP JUMPDEST PUSH32 0x4E616D652063616E6E6F7420626520656D707479000000000000000000000000 PUSH0 DUP3 ADD MSTORE POP JUMP JUMPDEST PUSH0 PUSH2 0x838 PUSH1 0x14 DUP4 PUSH2 0x412 JUMP JUMPDEST SWAP2 POP PUSH2 0x843 DUP3 PUSH2 0x804 JUMP JUMPDEST PUSH1 0x20 DUP3 ADD SWAP1 POP SWAP2 SWAP1 POP JUMP JUMPDEST PUSH0 PUSH1 0x20 DUP3 ADD SWAP1 POP DUP2 DUP2 SUB PUSH0 DUP4 ADD MSTORE PUSH2 0x865 DUP2 PUSH2 0x82C JUMP JUMPDEST SWAP1 POP SWAP2 SWAP1 POP JUMP JUMPDEST PUSH0 DUP2 SWAP1 POP SWAP3 SWAP2 POP POP JUMP JUMPDEST PUSH0 PUSH2 0x880 DUP3 PUSH2 0x408 JUMP JUMPDEST PUSH2 0x88A DUP2 DUP6 PUSH2 0x86C JUMP JUMPDEST SWAP4 POP PUSH2 0x89A DUP2 DUP6 PUSH1 0x20 DUP7 ADD PUSH2 0x422 JUMP JUMPDEST DUP1 DUP5 ADD SWAP2 POP POP SWAP3 SWAP2 POP POP JUMP JUMPDEST PUSH0 PUSH2 0x8B1 DUP3 DUP5 PUSH2 0x876 JUMP JUMPDEST SWAP2 POP DUP2 SWAP1 POP SWAP3 SWAP2 POP POP JUMP JUMPDEST PUSH32 0x4C6563747572657220616C726561647920657869737421000000000000000000 PUSH0 DUP3 ADD MSTORE POP JUMP JUMPDEST PUSH0 PUSH2 0x8F0 PUSH1 0x17 DUP4 PUSH2 0x412 JUMP JUMPDEST SWAP2 POP PUSH2 0x8FB DUP3 PUSH2 0x8BC JUMP JUMPDEST PUSH1 0x20 DUP3 ADD SWAP1 POP SWAP2 SWAP1 POP JUMP JUMPDEST PUSH0 PUSH1 0x20 DUP3 ADD SWAP1 POP DUP2 DUP2 SUB PUSH0 DUP4 ADD MSTORE PUSH2 0x91D DUP2 PUSH2 0x8E4 JUMP JUMPDEST SWAP1 POP SWAP2 SWAP1 POP JUMP JUMPDEST PUSH0 DUP2 SWAP1 POP DUP2 PUSH0 MSTORE PUSH1 0x20 PUSH0 KECCAK256 SWAP1 POP SWAP2 SWAP1 POP JUMP JUMPDEST PUSH0 PUSH1 0x20 PUSH1 0x1F DUP4 ADD DIV SWAP1 POP SWAP2 SWAP1 POP JUMP JUMPDEST PUSH0 DUP3 DUP3 SHL SWAP1 POP SWAP3 SWAP2 POP POP JUMP JUMPDEST PUSH0 PUSH1 0x8 DUP4 MUL PUSH2 0x980 PUSH32 0xFFFFFFFFFFFFFFFFFFFFFFFFFFFFFFFFFFFFFFFFFFFFFFFFFFFFFFFFFFFFFFFF DUP3 PUSH2 0x945 JUMP JUMPDEST PUSH2 0x98A DUP7 DUP4 PUSH2 0x945 JUMP JUMPDEST SWAP6 POP DUP1 NOT DUP5 AND SWAP4 POP DUP1 DUP7 AND DUP5 OR SWAP3 POP POP POP SWAP4 SWAP3 POP POP POP JUMP JUMPDEST PUSH0 DUP2 SWAP1 POP SWAP2 SWAP1 POP JUMP JUMPDEST PUSH0 PUSH2 0x9C5 PUSH2 0x9C0 PUSH2 0x9BB DUP5 PUSH2 0x3AA JUMP JUMPDEST PUSH2 0x9A2 JUMP JUMPDEST PUSH2 0x3AA JUMP JUMPDEST SWAP1 POP SWAP2 SWAP1 POP JUMP JUMPDEST PUSH0 DUP2 SWAP1 POP SWAP2 SWAP1 POP JUMP JUMPDEST PUSH2 0x9DE DUP4 PUSH2 0x9AB JUMP JUMPDEST PUSH2 0x9F2 PUSH2 0x9EA DUP3 PUSH2 0x9CC JUMP JUMPDEST DUP5 DUP5 SLOAD PUSH2 0x951 JUMP JUMPDEST DUP3 SSTORE POP POP POP POP JUMP JUMPDEST PUSH0 PUSH0 SWAP1 POP SWAP1 JUMP JUMPDEST PUSH2 0xA09 PUSH2 0x9FA JUMP JUMPDEST PUSH2 0xA14 DUP2 DUP5 DUP5 PUSH2 0x9D5 JUMP JUMPDEST POP POP POP JUMP JUMPDEST JUMPDEST DUP2 DUP2 LT ISZERO PUSH2 0xA37 JUMPI PUSH2 0xA2C PUSH0 DUP3 PUSH2 0xA01 JUMP JUMPDEST PUSH1 0x1 DUP2 ADD SWAP1 POP PUSH2 0xA1A JUMP JUMPDEST POP POP JUMP JUMPDEST PUSH1 0x1F DUP3 GT ISZERO PUSH2 0xA7C JUMPI PUSH2 0xA4D DUP2 PUSH2 0x924 JUMP JUMPDEST PUSH2 0xA56 DUP5 PUSH2 0x936 JUMP JUMPDEST DUP2 ADD PUSH1 0x20 DUP6 LT ISZERO PUSH2 0xA65 JUMPI DUP2 SWAP1 POP JUMPDEST PUSH2 0xA79 PUSH2 0xA71 DUP6 PUSH2 0x936 JUMP JUMPDEST DUP4 ADD DUP3 PUSH2 0xA19 JUMP JUMPDEST POP POP JUMPDEST POP POP POP JUMP JUMPDEST PUSH0 DUP3 DUP3 SHR SWAP1 POP SWAP3 SWAP2 POP POP JUMP JUMPDEST PUSH0 PUSH2 0xA9C PUSH0 NOT DUP5 PUSH1 0x8 MUL PUSH2 0xA81 JUMP JUMPDEST NOT DUP1 DUP4 AND SWAP2 POP POP SWAP3 SWAP2 POP POP JUMP JUMPDEST PUSH0 PUSH2 0xAB4 DUP4 DUP4 PUSH2 0xA8D JUMP JUMPDEST SWAP2 POP DUP3 PUSH1 0x2 MUL DUP3 OR SWAP1 POP SWAP3 SWAP2 POP POP JUMP JUMPDEST PUSH2 0xACD DUP3 PUSH2 0x408 JUMP JUMPDEST PUSH8 0xFFFFFFFFFFFFFFFF DUP2 GT ISZERO PUSH2 0xAE6 JUMPI PUSH2 0xAE5 PUSH2 0x4BD JUMP JUMPDEST JUMPDEST PUSH2 0xAF0 DUP3 SLOAD PUSH2 0x7D4 JUMP JUMPDEST PUSH2 0xAFB DUP3 DUP3 DUP6 PUSH2 0xA3B JUMP JUMPDEST PUSH0 PUSH1 0x20 SWAP1 POP PUSH1 0x1F DUP4 GT PUSH1 0x1 DUP2 EQ PUSH2 0xB2C JUMPI PUSH0 DUP5 ISZERO PUSH2 0xB1A JUMPI DUP3 DUP8 ADD MLOAD SWAP1 POP JUMPDEST PUSH2 0xB24 DUP6 DUP3 PUSH2 0xAA9 JUMP JUMPDEST DUP7 SSTORE POP PUSH2 0xB8B JUMP JUMPDEST PUSH1 0x1F NOT DUP5 AND PUSH2 0xB3A DUP7 PUSH2 0x924 JUMP JUMPDEST PUSH0 JUMPDEST DUP3 DUP2 LT ISZERO PUSH2 0xB61 JUMPI DUP5 DUP10 ADD MLOAD DUP3 SSTORE PUSH1 0x1 DUP3 ADD SWAP2 POP PUSH1 0x20 DUP6 ADD SWAP5 POP PUSH1 0x20 DUP2 ADD SWAP1 POP PUSH2 0xB3C JUMP JUMPDEST DUP7 DUP4 LT ISZERO PUSH2 0xB7E JUMPI DUP5 DUP10 ADD MLOAD PUSH2 0xB7A PUSH1 0x1F DUP10 AND DUP3 PUSH2 0xA8D JUMP JUMPDEST DUP4 SSTORE POP JUMPDEST PUSH1 0x1 PUSH1 0x2 DUP9 MUL ADD DUP9 SSTORE POP POP POP JUMPDEST POP POP POP POP POP POP JUMP INVALID LOG2 PUSH5 0x6970667358 0x22 SLT KECCAK256 0xFC DUP4 0x4E 0xD7 0x22 MLOAD EXTCODEHASH 0xDE SHR PUSH17 0x775862498E8D3F6FC30C2A6728A26ECA37 PUSH7 0xBAE6EFB664736F PUSH13 0x634300081F0033000000000000 "
		},
		"gasEstimates": {
			"creation": {
				"codeDepositCost": "603400",
				"executionCost": "636",
				"totalCost": "604036"
			},
			"external": {
				"addLecturer(string,uint256)": "infinite",
				"getLecturers()": "infinite",
				"lecturers(uint256)": "infinite"
			}
		},
		"methodIdentifiers": {
			"addLecturer(string,uint256)": "3b83ad65",
			"getLecturers()": "8604ca73",
			"lecturers(uint256)": "0b8392e1"
		}
	},
	"abi": [
		{
			"inputs": [
				{
					"internalType": "string",
					"name": "_name",
					"type": "string"
				},
				{
					"internalType": "uint256",
					"name": "_age",
					"type": "uint256"
				}
			],
			"name": "addLecturer",
			"outputs": [],
			"stateMutability": "nonpayable",
			"type": "function"
		},
		{
			"inputs": [],
			"name": "getLecturers",
			"outputs": [
				{
					"components": [
						{
							"internalType": "string",
							"name": "name",
							"type": "string"
						},
						{
							"internalType": "uint256",
							"name": "age",
							"type": "uint256"
						}
					],
					"internalType": "struct Lecturers.Lecturer[]",
					"name": "",
					"type": "tuple[]"
				}
			],
			"stateMutability": "view",
			"type": "function"
		},
		{
			"inputs": [
				{
					"internalType": "uint256",
					"name": "",
					"type": "uint256"
				}
			],
			"name": "lecturers",
			"outputs": [
				{
					"internalType": "string",
					"name": "name",
					"type": "string"
				},
				{
					"internalType": "uint256",
					"name": "age",
					"type": "uint256"
				}
			],
			"stateMutability": "view",
			"type": "function"
		}
	]
}