{
	"data": {
		"bytecode": {
			"linkReferences": {},
			"object": "6080604052348015600e575f5ffd5b506146b88061001c5f395ff3fe608060405234801561000f575f5ffd5b5060043610610060575f3560e01c80635456568f146100645780635dfbf120146100945780636148e637146100b0578063719c0d04146100cc578063cd8947bf14610104578063facb18c214610122575b5f5ffd5b61007e6004803603810190610079919061147e565b61013e565b60405161008b91906116d9565b60405180910390f35b6100ae60048036038101906100a99190611825565b610628565b005b6100ca60048036038101906100c591906118f9565b6109a0565b005b6100e660048036038101906100e1919061147e565b610aea565b6040516100fb99989796959493929190611a57565b60405180910390f35b61010c610dd6565b6040516101199190611c90565b60405180910390f35b61013c60048036038101906101379190611cb0565b61136f565b005b610146611374565b61014e611374565b5f5f90505f5f90505b5f8054905081101561056b57845f828154811061017757610176611d1c565b5b905f5260205f2090600902015f01540361055e575f818154811061019e5761019d611d1c565b5b905f5260205f209060090201604051806101200160405290815f82015481526020016001820180546101cf90611d76565b80601f01602080910402602001604051908101604052809291908181526020018280546101fb90611d76565b80156102465780601f1061021d57610100808354040283529160200191610246565b820191905f5260205f20905b81548152906001019060200180831161022957829003601f168201915b5050505050815260200160028201805461025f90611d76565b80601f016020809104026020016040519081016040528092919081815260200182805461028b90611d76565b80156102d65780601f106102ad576101008083540402835291602001916102d6565b820191905f5260205f20905b8154815290600101906020018083116102b957829003601f168201915b505050505081526020016003820180546102ef90611d76565b80601f016020809104026020016040519081016040528092919081815260200182805461031b90611d76565b80156103665780601f1061033d57610100808354040283529160200191610366565b820191905f5260205f20905b81548152906001019060200180831161034957829003601f168201915b5050505050815260200160048201805461037f90611d76565b80601f01602080910402602001604051908101604052809291908181526020018280546103ab90611d76565b80156103f65780601f106103cd576101008083540402835291602001916103f6565b820191905f5260205f20905b8154815290600101906020018083116103d957829003601f168201915b50505050508152602001600582015f9054906101000a900473ffffffffffffffffffffffffffffffffffffffff1673ffffffffffffffffffffffffffffffffffffffff1673ffffffffffffffffffffffffffffffffffffffff168152602001600682015f9054906101000a900473ffffffffffffffffffffffffffffffffffffffff1673ffffffffffffffffffffffffffffffffffffffff1673ffffffffffffffffffffffffffffffffffffffff168152602001600782015f9054906101000a900473ffffffffffffffffffffffffffffffffffffffff1673ffffffffffffffffffffffffffffffffffffffff1673ffffffffffffffffffffffffffffffffffffffff168152602001600882015f9054906101000a900473ffffffffffffffffffffffffffffffffffffffff1673ffffffffffffffffffffffffffffffffffffffff1673ffffffffffffffffffffffffffffffffffffffff168152505092506001915061056b565b8080600101915050610157565b50806105ac576040517f08c379a00000000000000000000000000000000000000000000000000000000081526004016105a390611df0565b60405180910390fd5b8160a0015173ffffffffffffffffffffffffffffffffffffffff163373ffffffffffffffffffffffffffffffffffffffff161461061e576040517f08c379a000000000000000000000000000000000000000000000000000000000815260040161061590611e7e565b60405180910390fd5b8192505050919050565b6001846040516106389190611ed6565b90815260200160405180910390205f9054906101000a900460ff1615610693576040517f08c379a000000000000000000000000000000000000000000000000000000000815260040161068a90611f36565b60405180910390fd5b600180856040516106a49190611ed6565b90815260200160405180910390205f6101000a81548160ff0219169083151502179055505f6040516106d590611413565b604051809103905ff0801580156106ee573d5f5f3e3d5ffd5b5090505f6040516106fe90611420565b604051809103905ff080158015610717573d5f5f3e3d5ffd5b5090505f6040516107279061142d565b604051809103905ff080158015610740573d5f5f3e3d5ffd5b5090505f60015f805490506107559190611f81565b90505f6040518061012001604052808381526020018a81526020018981526020018881526020018781526020013373ffffffffffffffffffffffffffffffffffffffff1681526020018673ffffffffffffffffffffffffffffffffffffffff1681526020018573ffffffffffffffffffffffffffffffffffffffff1681526020018473ffffffffffffffffffffffffffffffffffffffff1681525090505f81908060018154018082558091505060019003905f5260205f2090600902015f909190919091505f820151815f01556020820151816001019081610837919061214b565b50604082015181600201908161084d919061214b565b506060820151816003019081610863919061214b565b506080820151816004019081610879919061214b565b5060a0820151816005015f6101000a81548173ffffffffffffffffffffffffffffffffffffffff021916908373ffffffffffffffffffffffffffffffffffffffff16021790555060c0820151816006015f6101000a81548173ffffffffffffffffffffffffffffffffffffffff021916908373ffffffffffffffffffffffffffffffffffffffff16021790555060e0820151816007015f6101000a81548173ffffffffffffffffffffffffffffffffffffffff021916908373ffffffffffffffffffffffffffffffffffffffff160217905550610100820151816008015f6101000a81548173ffffffffffffffffffffffffffffffffffffffff021916908373ffffffffffffffffffffffffffffffffffffffff1602179055505050505050505050505050565b5f5f86815481106109b4576109b3611d1c565b5b905f5260205f2090600902019050806005015f9054906101000a900473ffffffffffffffffffffffffffffffffffffffff1673ffffffffffffffffffffffffffffffffffffffff163373ffffffffffffffffffffffffffffffffffffffff1614610a53576040517f08c379a0000000000000000000000000000000000000000000000000000000008152600401610a4a90612264565b60405180910390fd5b806006015f9054906101000a900473ffffffffffffffffffffffffffffffffffffffff1673ffffffffffffffffffffffffffffffffffffffff1663904ae8ad868686866040518563ffffffff1660e01b8152600401610ab59493929190612282565b5f604051808303815f87803b158015610acc575f5ffd5b505af1158015610ade573d5f5f3e3d5ffd5b50505050505050505050565b5f8181548110610af8575f80fd5b905f5260205f2090600902015f91509050805f015490806001018054610b1d90611d76565b80601f0160208091040260200160405190810160405280929190818152602001828054610b4990611d76565b8015610b945780601f10610b6b57610100808354040283529160200191610b94565b820191905f5260205f20905b815481529060010190602001808311610b7757829003601f168201915b505050505090806002018054610ba990611d76565b80601f0160208091040260200160405190810160405280929190818152602001828054610bd590611d76565b8015610c205780601f10610bf757610100808354040283529160200191610c20565b820191905f5260205f20905b815481529060010190602001808311610c0357829003601f168201915b505050505090806003018054610c3590611d76565b80601f0160208091040260200160405190810160405280929190818152602001828054610c6190611d76565b8015610cac5780601f10610c8357610100808354040283529160200191610cac565b820191905f5260205f20905b815481529060010190602001808311610c8f57829003601f168201915b505050505090806004018054610cc190611d76565b80601f0160208091040260200160405190810160405280929190818152602001828054610ced90611d76565b8015610d385780601f10610d0f57610100808354040283529160200191610d38565b820191905f5260205f20905b815481529060010190602001808311610d1b57829003601f168201915b505050505090806005015f9054906101000a900473ffffffffffffffffffffffffffffffffffffffff1690806006015f9054906101000a900473ffffffffffffffffffffffffffffffffffffffff1690806007015f9054906101000a900473ffffffffffffffffffffffffffffffffffffffff1690806008015f9054906101000a900473ffffffffffffffffffffffffffffffffffffffff16905089565b60605f3390505f5f90505f5f90505b5f80549050811015610e81578273ffffffffffffffffffffffffffffffffffffffff165f8281548110610e1b57610e1a611d1c565b5b905f5260205f2090600902016005015f9054906101000a900473ffffffffffffffffffffffffffffffffffffffff1673ffffffffffffffffffffffffffffffffffffffff1603610e74578180610e70906122da565b9250505b8080600101915050610de5565b505f8167ffffffffffffffff811115610e9d57610e9c611701565b5b604051908082528060200260200182016040528015610ed657816020015b610ec3611374565b815260200190600190039081610ebb5790505b5090505f5f90505f5f90505b5f80549050811015611364578473ffffffffffffffffffffffffffffffffffffffff165f8281548110610f1857610f17611d1c565b5b905f5260205f2090600902016005015f9054906101000a900473ffffffffffffffffffffffffffffffffffffffff1673ffffffffffffffffffffffffffffffffffffffff1603611357575f8181548110610f7557610f74611d1c565b5b905f5260205f209060090201604051806101200160405290815f8201548152602001600182018054610fa690611d76565b80601f0160208091040260200160405190810160405280929190818152602001828054610fd290611d76565b801561101d5780601f10610ff45761010080835404028352916020019161101d565b820191905f5260205f20905b81548152906001019060200180831161100057829003601f168201915b5050505050815260200160028201805461103690611d76565b80601f016020809104026020016040519081016040528092919081815260200182805461106290611d76565b80156110ad5780601f10611084576101008083540402835291602001916110ad565b820191905f5260205f20905b81548152906001019060200180831161109057829003601f168201915b505050505081526020016003820180546110c690611d76565b80601f01602080910402602001604051908101604052809291908181526020018280546110f290611d76565b801561113d5780601f106111145761010080835404028352916020019161113d565b820191905f5260205f20905b81548152906001019060200180831161112057829003601f168201915b5050505050815260200160048201805461115690611d76565b80601f016020809104026020016040519081016040528092919081815260200182805461118290611d76565b80156111cd5780601f106111a4576101008083540402835291602001916111cd565b820191905f5260205f20905b8154815290600101906020018083116111b057829003601f168201915b50505050508152602001600582015f9054906101000a900473ffffffffffffffffffffffffffffffffffffffff1673ffffffffffffffffffffffffffffffffffffffff1673ffffffffffffffffffffffffffffffffffffffff168152602001600682015f9054906101000a900473ffffffffffffffffffffffffffffffffffffffff1673ffffffffffffffffffffffffffffffffffffffff1673ffffffffffffffffffffffffffffffffffffffff168152602001600782015f9054906101000a900473ffffffffffffffffffffffffffffffffffffffff1673ffffffffffffffffffffffffffffffffffffffff1673ffffffffffffffffffffffffffffffffffffffff168152602001600882015f9054906101000a900473ffffffffffffffffffffffffffffffffffffffff1673ffffffffffffffffffffffffffffffffffffffff1673ffffffffffffffffffffffffffffffffffffffff168152505083838151811061133d5761133c611d1c565b5b60200260200101819052508180611353906122da565b9250505b8080600101915050610ee2565b508194505050505090565b505050565b6040518061012001604052805f8152602001606081526020016060815260200160608152602001606081526020015f73ffffffffffffffffffffffffffffffffffffffff1681526020015f73ffffffffffffffffffffffffffffffffffffffff1681526020015f73ffffffffffffffffffffffffffffffffffffffff1681526020015f73ffffffffffffffffffffffffffffffffffffffff1681525090565b610c518061232283390190565b610fb780612f7383390190565b61075980613f2a83390190565b5f604051905090565b5f5ffd5b5f5ffd5b5f819050919050565b61145d8161144b565b8114611467575f5ffd5b50565b5f8135905061147881611454565b92915050565b5f6020828403121561149357611492611443565b5b5f6114a08482850161146a565b91505092915050565b6114b28161144b565b82525050565b5f81519050919050565b5f82825260208201905092915050565b8281835e5f83830152505050565b5f601f19601f8301169050919050565b5f6114fa826114b8565b61150481856114c2565b93506115148185602086016114d2565b61151d816114e0565b840191505092915050565b5f73ffffffffffffffffffffffffffffffffffffffff82169050919050565b5f61155182611528565b9050919050565b61156181611547565b82525050565b5f819050919050565b5f61158a61158561158084611528565b611567565b611528565b9050919050565b5f61159b82611570565b9050919050565b5f6115ac82611591565b9050919050565b6115bc816115a2565b82525050565b5f6115cc82611591565b9050919050565b6115dc816115c2565b82525050565b5f6115ec82611591565b9050919050565b6115fc816115e2565b82525050565b5f61012083015f8301516116185f8601826114a9565b506020830151848203602086015261163082826114f0565b9150506040830151848203604086015261164a82826114f0565b9150506060830151848203606086015261166482826114f0565b9150506080830151848203608086015261167e82826114f0565b91505060a083015161169360a0860182611558565b5060c08301516116a660c08601826115b3565b5060e08301516116b960e08601826115d3565b506101008301516116ce6101008601826115f3565b508091505092915050565b5f6020820190508181035f8301526116f18184611602565b905092915050565b5f5ffd5b5f5ffd5b7f4e487b71000000000000000000000000000000000000000000000000000000005f52604160045260245ffd5b611737826114e0565b810181811067ffffffffffffffff8211171561175657611755611701565b5b80604052505050565b5f61176861143a565b9050611774828261172e565b919050565b5f67ffffffffffffffff82111561179357611792611701565b5b61179c826114e0565b9050602081019050919050565b828183375f83830152505050565b5f6117c96117c484611779565b61175f565b9050828152602081018484840111156117e5576117e46116fd565b5b6117f08482856117a9565b509392505050565b5f82601f83011261180c5761180b6116f9565b5b813561181c8482602086016117b7565b91505092915050565b5f5f5f5f6080858703121561183d5761183c611443565b5b5f85013567ffffffffffffffff81111561185a57611859611447565b5b611866878288016117f8565b945050602085013567ffffffffffffffff81111561188757611886611447565b5b611893878288016117f8565b935050604085013567ffffffffffffffff8111156118b4576118b3611447565b5b6118c0878288016117f8565b925050606085013567ffffffffffffffff8111156118e1576118e0611447565b5b6118ed878288016117f8565b91505092959194509250565b5f5f5f5f5f60a0868803121561191257611911611443565b5b5f61191f8882890161146a565b955050602086013567ffffffffffffffff8111156119405761193f611447565b5b61194c888289016117f8565b945050604086013567ffffffffffffffff81111561196d5761196c611447565b5b611979888289016117f8565b935050606061198a8882890161146a565b925050608086013567ffffffffffffffff8111156119ab576119aa611447565b5b6119b7888289016117f8565b9150509295509295909350565b6119cd8161144b565b82525050565b5f82825260208201905092915050565b5f6119ed826114b8565b6119f781856119d3565b9350611a078185602086016114d2565b611a10816114e0565b840191505092915050565b611a2481611547565b82525050565b611a33816115a2565b82525050565b611a42816115c2565b82525050565b611a51816115e2565b82525050565b5f61012082019050611a6b5f83018c6119c4565b8181036020830152611a7d818b6119e3565b90508181036040830152611a91818a6119e3565b90508181036060830152611aa581896119e3565b90508181036080830152611ab981886119e3565b9050611ac860a0830187611a1b565b611ad560c0830186611a2a565b611ae260e0830185611a39565b611af0610100830184611a48565b9a9950505050505050505050565b5f81519050919050565b5f82825260208201905092915050565b5f819050602082019050919050565b5f61012083015f830151611b3d5f8601826114a9565b5060208301518482036020860152611b5582826114f0565b91505060408301518482036040860152611b6f82826114f0565b91505060608301518482036060860152611b8982826114f0565b91505060808301518482036080860152611ba382826114f0565b91505060a0830151611bb860a0860182611558565b5060c0830151611bcb60c08601826115b3565b5060e0830151611bde60e08601826115d3565b50610100830151611bf36101008601826115f3565b508091505092915050565b5f611c098383611b27565b905092915050565b5f602082019050919050565b5f611c2782611afe565b611c318185611b08565b935083602082028501611c4385611b18565b805f5b85811015611c7e5784840389528151611c5f8582611bfe565b9450611c6a83611c11565b925060208a01995050600181019050611c46565b50829750879550505050505092915050565b5f6020820190508181035f830152611ca88184611c1d565b905092915050565b5f5f5f60608486031215611cc757611cc6611443565b5b5f611cd48682870161146a565b935050602084013567ffffffffffffffff811115611cf557611cf4611447565b5b611d01868287016117f8565b9250506040611d128682870161146a565b9150509250925092565b7f4e487b71000000000000000000000000000000000000000000000000000000005f52603260045260245ffd5b7f4e487b71000000000000000000000000000000000000000000000000000000005f52602260045260245ffd5b5f6002820490506001821680611d8d57607f821691505b602082108103611da057611d9f611d49565b5b50919050565b7f5363686f6f6c206e6f7420666f756e64000000000000000000000000000000005f82015250565b5f611dda6010836119d3565b9150611de582611da6565b602082019050919050565b5f6020820190508181035f830152611e0781611dce565b9050919050565b7f596f7520617265206e6f7420746865206f776e6572206f6620746869732073635f8201527f686f6f6c00000000000000000000000000000000000000000000000000000000602082015250565b5f611e686024836119d3565b9150611e7382611e0e565b604082019050919050565b5f6020820190508181035f830152611e9581611e5c565b9050919050565b5f81905092915050565b5f611eb0826114b8565b611eba8185611e9c565b9350611eca8185602086016114d2565b80840191505092915050565b5f611ee18284611ea6565b915081905092915050565b7f5363686f6f6c206e616d6520616c7265616479206578697374730000000000005f82015250565b5f611f20601a836119d3565b9150611f2b82611eec565b602082019050919050565b5f6020820190508181035f830152611f4d81611f14565b9050919050565b7f4e487b71000000000000000000000000000000000000000000000000000000005f52601160045260245ffd5b5f611f8b8261144b565b9150611f968361144b565b9250828201905080821115611fae57611fad611f54565b5b92915050565b5f819050815f5260205f209050919050565b5f6020601f8301049050919050565b5f82821b905092915050565b5f600883026120107fffffffffffffffffffffffffffffffffffffffffffffffffffffffffffffffff82611fd5565b61201a8683611fd5565b95508019841693508086168417925050509392505050565b5f61204c6120476120428461144b565b611567565b61144b565b9050919050565b5f819050919050565b61206583612032565b61207961207182612053565b848454611fe1565b825550505050565b5f5f905090565b612090612081565b61209b81848461205c565b505050565b5b818110156120be576120b35f82612088565b6001810190506120a1565b5050565b601f821115612103576120d481611fb4565b6120dd84611fc6565b810160208510156120ec578190505b6121006120f885611fc6565b8301826120a0565b50505b505050565b5f82821c905092915050565b5f6121235f1984600802612108565b1980831691505092915050565b5f61213b8383612114565b9150826002028217905092915050565b612154826114b8565b67ffffffffffffffff81111561216d5761216c611701565b5b6121778254611d76565b6121828282856120c2565b5f60209050601f8311600181146121b3575f84156121a1578287015190505b6121ab8582612130565b865550612212565b601f1984166121c186611fb4565b5f5b828110156121e8578489015182556001820191506020850194506020810190506121c3565b868310156122055784890151612201601f891682612114565b8355505b6001600288020188555050505b505050505050565b7f4f6e6c79206f776e65722063616e2061646420636f75727365730000000000005f82015250565b5f61224e601a836119d3565b91506122598261221a565b602082019050919050565b5f6020820190508181035f83015261227b81612242565b9050919050565b5f6080820190508181035f83015261229a81876119e3565b905081810360208301526122ae81866119e3565b90506122bd60408301856119c4565b81810360608301526122cf81846119e3565b905095945050505050565b5f6122e48261144b565b91507fffffffffffffffffffffffffffffffffffffffffffffffffffffffffffffffff820361231657612315611f54565b5b60018201905091905056fe6080604052348015600e575f5ffd5b50610c358061001c5f395ff3fe608060405234801561000f575f5ffd5b506004361061003f575f3560e01c8063904ae8ad1461004357806396f979d21461005f578063981d6c3314610092575b5f5ffd5b61005d600480360381019061005891906106f2565b6100c5565b005b610079600480360381019061007491906107aa565b6101d0565b6040516100899493929190610844565b60405180910390f35b6100ac60048036038101906100a7919061089c565b61039c565b6040516100bc9493929190610844565b60405180910390f35b5f60405180608001604052808681526020018481526020018581526020018381525090505f81908060018154018082558091505060019003905f5260205f2090600402015f909190919091505f820151815f0190816101249190610ae0565b506020820151816001015560408201518160020190816101449190610ae0565b50606082015181600301908161015a9190610ae0565b5050508060018560405161016e9190610be9565b90815260200160405180910390205f820151815f01908161018f9190610ae0565b506020820151816001015560408201518160020190816101af9190610ae0565b5060608201518160030190816101c59190610ae0565b509050505050505050565b5f81815481106101de575f80fd5b905f5260205f2090600402015f91509050805f0180546101fd90610910565b80601f016020809104026020016040519081016040528092919081815260200182805461022990610910565b80156102745780601f1061024b57610100808354040283529160200191610274565b820191905f5260205f20905b81548152906001019060200180831161025757829003601f168201915b50505050509080600101549080600201805461028f90610910565b80601f01602080910402602001604051908101604052809291908181526020018280546102bb90610910565b80156103065780601f106102dd57610100808354040283529160200191610306565b820191905f5260205f20905b8154815290600101906020018083116102e957829003601f168201915b50505050509080600301805461031b90610910565b80601f016020809104026020016040519081016040528092919081815260200182805461034790610910565b80156103925780601f1061036957610100808354040283529160200191610392565b820191905f5260205f20905b81548152906001019060200180831161037557829003601f168201915b5050505050905084565b6001818051602081018201805184825260208301602085012081835280955050505050505f91509050805f0180546103d390610910565b80601f01602080910402602001604051908101604052809291908181526020018280546103ff90610910565b801561044a5780601f106104215761010080835404028352916020019161044a565b820191905f5260205f20905b81548152906001019060200180831161042d57829003601f168201915b50505050509080600101549080600201805461046590610910565b80601f016020809104026020016040519081016040528092919081815260200182805461049190610910565b80156104dc5780601f106104b3576101008083540402835291602001916104dc565b820191905f5260205f20905b8154815290600101906020018083116104bf57829003601f168201915b5050505050908060030180546104f190610910565b80601f016020809104026020016040519081016040528092919081815260200182805461051d90610910565b80156105685780601f1061053f57610100808354040283529160200191610568565b820191905f5260205f20905b81548152906001019060200180831161054b57829003601f168201915b5050505050905084565b5f604051905090565b5f5ffd5b5f5ffd5b5f5ffd5b5f5ffd5b5f601f19601f8301169050919050565b7f4e487b71000000000000000000000000000000000000000000000000000000005f52604160045260245ffd5b6105d18261058b565b810181811067ffffffffffffffff821117156105f0576105ef61059b565b5b80604052505050565b5f610602610572565b905061060e82826105c8565b919050565b5f67ffffffffffffffff82111561062d5761062c61059b565b5b6106368261058b565b9050602081019050919050565b828183375f83830152505050565b5f61066361065e84610613565b6105f9565b90508281526020810184848401111561067f5761067e610587565b5b61068a848285610643565b509392505050565b5f82601f8301126106a6576106a5610583565b5b81356106b6848260208601610651565b91505092915050565b5f819050919050565b6106d1816106bf565b81146106db575f5ffd5b50565b5f813590506106ec816106c8565b92915050565b5f5f5f5f6080858703121561070a5761070961057b565b5b5f85013567ffffffffffffffff8111156107275761072661057f565b5b61073387828801610692565b945050602085013567ffffffffffffffff8111156107545761075361057f565b5b61076087828801610692565b9350506040610771878288016106de565b925050606085013567ffffffffffffffff8111156107925761079161057f565b5b61079e87828801610692565b91505092959194509250565b5f602082840312156107bf576107be61057b565b5b5f6107cc848285016106de565b91505092915050565b5f81519050919050565b5f82825260208201905092915050565b8281835e5f83830152505050565b5f610807826107d5565b61081181856107df565b93506108218185602086016107ef565b61082a8161058b565b840191505092915050565b61083e816106bf565b82525050565b5f6080820190508181035f83015261085c81876107fd565b905061086b6020830186610835565b818103604083015261087d81856107fd565b9050818103606083015261089181846107fd565b905095945050505050565b5f602082840312156108b1576108b061057b565b5b5f82013567ffffffffffffffff8111156108ce576108cd61057f565b5b6108da84828501610692565b91505092915050565b7f4e487b71000000000000000000000000000000000000000000000000000000005f52602260045260245ffd5b5f600282049050600182168061092757607f821691505b60208210810361093a576109396108e3565b5b50919050565b5f819050815f5260205f209050919050565b5f6020601f8301049050919050565b5f82821b905092915050565b5f6008830261099c7fffffffffffffffffffffffffffffffffffffffffffffffffffffffffffffffff82610961565b6109a68683610961565b95508019841693508086168417925050509392505050565b5f819050919050565b5f6109e16109dc6109d7846106bf565b6109be565b6106bf565b9050919050565b5f819050919050565b6109fa836109c7565b610a0e610a06826109e8565b84845461096d565b825550505050565b5f5f905090565b610a25610a16565b610a308184846109f1565b505050565b5b81811015610a5357610a485f82610a1d565b600181019050610a36565b5050565b601f821115610a9857610a6981610940565b610a7284610952565b81016020851015610a81578190505b610a95610a8d85610952565b830182610a35565b50505b505050565b5f82821c905092915050565b5f610ab85f1984600802610a9d565b1980831691505092915050565b5f610ad08383610aa9565b9150826002028217905092915050565b610ae9826107d5565b67ffffffffffffffff811115610b0257610b0161059b565b5b610b0c8254610910565b610b17828285610a57565b5f60209050601f831160018114610b48575f8415610b36578287015190505b610b408582610ac5565b865550610ba7565b601f198416610b5686610940565b5f5b82811015610b7d57848901518255600182019150602085019450602081019050610b58565b86831015610b9a5784890151610b96601f891682610aa9565b8355505b6001600288020188555050505b505050505050565b5f81905092915050565b5f610bc3826107d5565b610bcd8185610baf565b9350610bdd8185602086016107ef565b80840191505092915050565b5f610bf48284610bb9565b91508190509291505056fea26469706673582212209649e331a16938c7fe43f5e8c03e3d3086e6fcf58fa5b99c1f2c704e172cda8a64736f6c634300081f00336080604052348015600e575f5ffd5b50610f9b8061001c5f395ff3fe608060405234801561000f575f5ffd5b506004361061004a575f3560e01c806306ead22e1461004e5780638917d33c14610081578063aa67f06b1461009d578063dc78302b146100d0575b5f5ffd5b6100686004803603810190610063919061080a565b610100565b60405161007894939291906108b4565b60405180910390f35b61009b60048036038101906100969190610a38565b6102cc565b005b6100b760048036038101906100b29190610af0565b6103d7565b6040516100c794939291906108b4565b60405180910390f35b6100ea60048036038101906100e5919061080a565b6105ad565b6040516100f79190610bfc565b60405180910390f35b5f818154811061010e575f80fd5b905f5260205f2090600402015f91509050805f01805461012d90610c49565b80601f016020809104026020016040519081016040528092919081815260200182805461015990610c49565b80156101a45780601f1061017b576101008083540402835291602001916101a4565b820191905f5260205f20905b81548152906001019060200180831161018757829003601f168201915b5050505050908060010154908060020180546101bf90610c49565b80601f01602080910402602001604051908101604052809291908181526020018280546101eb90610c49565b80156102365780601f1061020d57610100808354040283529160200191610236565b820191905f5260205f20905b81548152906001019060200180831161021957829003601f168201915b50505050509080600301805461024b90610c49565b80601f016020809104026020016040519081016040528092919081815260200182805461027790610c49565b80156102c25780601f10610299576101008083540402835291602001916102c2565b820191905f5260205f20905b8154815290600101906020018083116102a557829003601f168201915b5050505050905084565b5f60405180608001604052808681526020018581526020018481526020018381525090505f81908060018154018082558091505060019003905f5260205f2090600402015f909190919091505f820151815f01908161032b9190610e19565b5060208201518160010155604082015181600201908161034b9190610e19565b5060608201518160030190816103619190610e19565b505050806001866040516103759190610f22565b90815260200160405180910390205f820151815f0190816103969190610e19565b506020820151816001015560408201518160020190816103b69190610e19565b5060608201518160030190816103cc9190610e19565b509050505050505050565b6001818051602081018201805184825260208301602085012081835280955050505050505f91509050805f01805461040e90610c49565b80601f016020809104026020016040519081016040528092919081815260200182805461043a90610c49565b80156104855780601f1061045c57610100808354040283529160200191610485565b820191905f5260205f20905b81548152906001019060200180831161046857829003601f168201915b5050505050908060010154908060020180546104a090610c49565b80601f01602080910402602001604051908101604052809291908181526020018280546104cc90610c49565b80156105175780601f106104ee57610100808354040283529160200191610517565b820191905f5260205f20905b8154815290600101906020018083116104fa57829003601f168201915b50505050509080600301805461052c90610c49565b80601f016020809104026020016040519081016040528092919081815260200182805461055890610c49565b80156105a35780601f1061057a576101008083540402835291602001916105a3565b820191905f5260205f20905b81548152906001019060200180831161058657829003601f168201915b5050505050905084565b6105b561079f565b5f82815481106105c8576105c7610f38565b5b905f5260205f2090600402016040518060800160405290815f820180546105ee90610c49565b80601f016020809104026020016040519081016040528092919081815260200182805461061a90610c49565b80156106655780601f1061063c57610100808354040283529160200191610665565b820191905f5260205f20905b81548152906001019060200180831161064857829003601f168201915b505050505081526020016001820154815260200160028201805461068890610c49565b80601f01602080910402602001604051908101604052809291908181526020018280546106b490610c49565b80156106ff5780601f106106d6576101008083540402835291602001916106ff565b820191905f5260205f20905b8154815290600101906020018083116106e257829003601f168201915b5050505050815260200160038201805461071890610c49565b80601f016020809104026020016040519081016040528092919081815260200182805461074490610c49565b801561078f5780601f106107665761010080835404028352916020019161078f565b820191905f5260205f20905b81548152906001019060200180831161077257829003601f168201915b5050505050815250509050919050565b6040518060800160405280606081526020015f815260200160608152602001606081525090565b5f604051905090565b5f5ffd5b5f5ffd5b5f819050919050565b6107e9816107d7565b81146107f3575f5ffd5b50565b5f81359050610804816107e0565b92915050565b5f6020828403121561081f5761081e6107cf565b5b5f61082c848285016107f6565b91505092915050565b5f81519050919050565b5f82825260208201905092915050565b8281835e5f83830152505050565b5f601f19601f8301169050919050565b5f61087782610835565b610881818561083f565b935061089181856020860161084f565b61089a8161085d565b840191505092915050565b6108ae816107d7565b82525050565b5f6080820190508181035f8301526108cc818761086d565b90506108db60208301866108a5565b81810360408301526108ed818561086d565b90508181036060830152610901818461086d565b905095945050505050565b5f5ffd5b5f5ffd5b7f4e487b71000000000000000000000000000000000000000000000000000000005f52604160045260245ffd5b61094a8261085d565b810181811067ffffffffffffffff8211171561096957610968610914565b5b80604052505050565b5f61097b6107c6565b90506109878282610941565b919050565b5f67ffffffffffffffff8211156109a6576109a5610914565b5b6109af8261085d565b9050602081019050919050565b828183375f83830152505050565b5f6109dc6109d78461098c565b610972565b9050828152602081018484840111156109f8576109f7610910565b5b610a038482856109bc565b509392505050565b5f82601f830112610a1f57610a1e61090c565b5b8135610a2f8482602086016109ca565b91505092915050565b5f5f5f5f60808587031215610a5057610a4f6107cf565b5b5f85013567ffffffffffffffff811115610a6d57610a6c6107d3565b5b610a7987828801610a0b565b9450506020610a8a878288016107f6565b935050604085013567ffffffffffffffff811115610aab57610aaa6107d3565b5b610ab787828801610a0b565b925050606085013567ffffffffffffffff811115610ad857610ad76107d3565b5b610ae487828801610a0b565b91505092959194509250565b5f60208284031215610b0557610b046107cf565b5b5f82013567ffffffffffffffff811115610b2257610b216107d3565b5b610b2e84828501610a0b565b91505092915050565b5f82825260208201905092915050565b5f610b5182610835565b610b5b8185610b37565b9350610b6b81856020860161084f565b610b748161085d565b840191505092915050565b610b88816107d7565b82525050565b5f608083015f8301518482035f860152610ba88282610b47565b9150506020830151610bbd6020860182610b7f565b5060408301518482036040860152610bd58282610b47565b91505060608301518482036060860152610bef8282610b47565b9150508091505092915050565b5f6020820190508181035f830152610c148184610b8e565b905092915050565b7f4e487b71000000000000000000000000000000000000000000000000000000005f52602260045260245ffd5b5f6002820490506001821680610c6057607f821691505b602082108103610c7357610c72610c1c565b5b50919050565b5f819050815f5260205f209050919050565b5f6020601f8301049050919050565b5f82821b905092915050565b5f60088302610cd57fffffffffffffffffffffffffffffffffffffffffffffffffffffffffffffffff82610c9a565b610cdf8683610c9a565b95508019841693508086168417925050509392505050565b5f819050919050565b5f610d1a610d15610d10846107d7565b610cf7565b6107d7565b9050919050565b5f819050919050565b610d3383610d00565b610d47610d3f82610d21565b848454610ca6565b825550505050565b5f5f905090565b610d5e610d4f565b610d69818484610d2a565b505050565b5b81811015610d8c57610d815f82610d56565b600181019050610d6f565b5050565b601f821115610dd157610da281610c79565b610dab84610c8b565b81016020851015610dba578190505b610dce610dc685610c8b565b830182610d6e565b50505b505050565b5f82821c905092915050565b5f610df15f1984600802610dd6565b1980831691505092915050565b5f610e098383610de2565b9150826002028217905092915050565b610e2282610835565b67ffffffffffffffff811115610e3b57610e3a610914565b5b610e458254610c49565b610e50828285610d90565b5f60209050601f831160018114610e81575f8415610e6f578287015190505b610e798582610dfe565b865550610ee0565b601f198416610e8f86610c79565b5f5b82811015610eb657848901518255600182019150602085019450602081019050610e91565b86831015610ed35784890151610ecf601f891682610de2565b8355505b6001600288020188555050505b505050505050565b5f81905092915050565b5f610efc82610835565b610f068185610ee8565b9350610f1681856020860161084f565b80840191505092915050565b5f610f2d8284610ef2565b915081905092915050565b7f4e487b71000000000000000000000000000000000000000000000000000000005f52603260045260245ffdfea2646970667358221220e2d0494ea55bc6b6ae1262513dd2125b50c0b002eb76eb9c634651830187c52164736f6c634300081f00336080604052348015600e575f5ffd5b5061073d8061001c5f395ff3fe608060405234801561000f575f5ffd5b5060043610610034575f3560e01c80630b8392e1146100385780633b83ad6514610069575b5f5ffd5b610052600480360381019061004d91906101dd565b610085565b604051610060929190610287565b60405180910390f35b610083600480360381019061007e91906103e1565b610139565b005b5f8181548110610093575f80fd5b905f5260205f2090600202015f91509050805f0180546100b290610468565b80601f01602080910402602001604051908101604052809291908181526020018280546100de90610468565b80156101295780601f1061010057610100808354040283529160200191610129565b820191905f5260205f20905b81548152906001019060200180831161010c57829003601f168201915b5050505050908060010154905082565b5f604051806040016040528084815260200183815250908060018154018082558091505060019003905f5260205f2090600202015f909190919091505f820151815f0190816101889190610638565b506020820151816001015550505050565b5f604051905090565b5f5ffd5b5f5ffd5b5f819050919050565b6101bc816101aa565b81146101c6575f5ffd5b50565b5f813590506101d7816101b3565b92915050565b5f602082840312156101f2576101f16101a2565b5b5f6101ff848285016101c9565b91505092915050565b5f81519050919050565b5f82825260208201905092915050565b8281835e5f83830152505050565b5f601f19601f8301169050919050565b5f61024a82610208565b6102548185610212565b9350610264818560208601610222565b61026d81610230565b840191505092915050565b610281816101aa565b82525050565b5f6040820190508181035f83015261029f8185610240565b90506102ae6020830184610278565b9392505050565b5f5ffd5b5f5ffd5b7f4e487b71000000000000000000000000000000000000000000000000000000005f52604160045260245ffd5b6102f382610230565b810181811067ffffffffffffffff82111715610312576103116102bd565b5b80604052505050565b5f610324610199565b905061033082826102ea565b919050565b5f67ffffffffffffffff82111561034f5761034e6102bd565b5b61035882610230565b9050602081019050919050565b828183375f83830152505050565b5f61038561038084610335565b61031b565b9050828152602081018484840111156103a1576103a06102b9565b5b6103ac848285610365565b509392505050565b5f82601f8301126103c8576103c76102b5565b5b81356103d8848260208601610373565b91505092915050565b5f5f604083850312156103f7576103f66101a2565b5b5f83013567ffffffffffffffff811115610414576104136101a6565b5b610420858286016103b4565b9250506020610431858286016101c9565b9150509250929050565b7f4e487b71000000000000000000000000000000000000000000000000000000005f52602260045260245ffd5b5f600282049050600182168061047f57607f821691505b6020821081036104925761049161043b565b5b50919050565b5f819050815f5260205f209050919050565b5f6020601f8301049050919050565b5f82821b905092915050565b5f600883026104f47fffffffffffffffffffffffffffffffffffffffffffffffffffffffffffffffff826104b9565b6104fe86836104b9565b95508019841693508086168417925050509392505050565b5f819050919050565b5f61053961053461052f846101aa565b610516565b6101aa565b9050919050565b5f819050919050565b6105528361051f565b61056661055e82610540565b8484546104c5565b825550505050565b5f5f905090565b61057d61056e565b610588818484610549565b505050565b5b818110156105ab576105a05f82610575565b60018101905061058e565b5050565b601f8211156105f0576105c181610498565b6105ca846104aa565b810160208510156105d9578190505b6105ed6105e5856104aa565b83018261058d565b50505b505050565b5f82821c905092915050565b5f6106105f19846008026105f5565b1980831691505092915050565b5f6106288383610601565b9150826002028217905092915050565b61064182610208565b67ffffffffffffffff81111561065a576106596102bd565b5b6106648254610468565b61066f8282856105af565b5f60209050601f8311600181146106a0575f841561068e578287015190505b610698858261061d565b8655506106ff565b601f1984166106ae86610498565b5f5b828110156106d5578489015182556001820191506020850194506020810190506106b0565b868310156106f257848901516106ee601f891682610601565b8355505b6001600288020188555050505b50505050505056fea26469706673582212209d6c8274291f7c0b5e5707f6ae972a3474d4ab19d545478d2839147844367eb564736f6c634300081f0033a26469706673582212208cf31b1c5319592c1d0e8d6c13d54e41560dd2e2c99325b7c8be2c8be785b90b64736f6c634300081f0033",
			"opcodes": "PUSH1 0x80 PUSH1 0x40 MSTORE CALLVALUE DUP1 ISZERO PUSH1 0xE JUMPI PUSH0 PUSH0 REVERT JUMPDEST POP PUSH2 0x46B8 DUP1 PUSH2 0x1C PUSH0 CODECOPY PUSH0 RETURN INVALID PUSH1 0x80 PUSH1 0x40 MSTORE CALLVALUE DUP1 ISZERO PUSH2 0xF JUMPI PUSH0 PUSH0 REVERT JUMPDEST POP PUSH1 0x4 CALLDATASIZE LT PUSH2 0x60 JUMPI PUSH0 CALLDATALOAD PUSH1 0xE0 SHR DUP1 PUSH4 0x5456568F EQ PUSH2 0x64 JUMPI DUP1 PUSH4 0x5DFBF120 EQ PUSH2 0x94 JUMPI DUP1 PUSH4 0x6148E637 EQ PUSH2 0xB0 JUMPI DUP1 PUSH4 0x719C0D04 EQ PUSH2 0xCC JUMPI DUP1 PUSH4 0xCD8947BF EQ PUSH2 0x104 JUMPI DUP1 PUSH4 0xFACB18C2 EQ PUSH2 0x122 JUMPI JUMPDEST PUSH0 PUSH0 REVERT JUMPDEST PUSH2 0x7E PUSH1 0x4 DUP1 CALLDATASIZE SUB DUP2 ADD SWAP1 PUSH2 0x79 SWAP2 SWAP1 PUSH2 0x147E JUMP JUMPDEST PUSH2 0x13E JUMP JUMPDEST PUSH1 0x40 MLOAD PUSH2 0x8B SWAP2 SWAP1 PUSH2 0x16D9 JUMP JUMPDEST PUSH1 0x40 MLOAD DUP1 SWAP2 SUB SWAP1 RETURN JUMPDEST PUSH2 0xAE PUSH1 0x4 DUP1 CALLDATASIZE SUB DUP2 ADD SWAP1 PUSH2 0xA9 SWAP2 SWAP1 PUSH2 0x1825 JUMP JUMPDEST PUSH2 0x628 JUMP JUMPDEST STOP JUMPDEST PUSH2 0xCA PUSH1 0x4 DUP1 CALLDATASIZE SUB DUP2 ADD SWAP1 PUSH2 0xC5 SWAP2 SWAP1 PUSH2 0x18F9 JUMP JUMPDEST PUSH2 0x9A0 JUMP JUMPDEST STOP JUMPDEST PUSH2 0xE6 PUSH1 0x4 DUP1 CALLDATASIZE SUB DUP2 ADD SWAP1 PUSH2 0xE1 SWAP2 SWAP1 PUSH2 0x147E JUMP JUMPDEST PUSH2 0xAEA JUMP JUMPDEST PUSH1 0x40 MLOAD PUSH2 0xFB SWAP10 SWAP9 SWAP8 SWAP7 SWAP6 SWAP5 SWAP4 SWAP3 SWAP2 SWAP1 PUSH2 0x1A57 JUMP JUMPDEST PUSH1 0x40 MLOAD DUP1 SWAP2 SUB SWAP1 RETURN JUMPDEST PUSH2 0x10C PUSH2 0xDD6 JUMP JUMPDEST PUSH1 0x40 MLOAD PUSH2 0x119 SWAP2 SWAP1 PUSH2 0x1C90 JUMP JUMPDEST PUSH1 0x40 MLOAD DUP1 SWAP2 SUB SWAP1 RETURN JUMPDEST PUSH2 0x13C PUSH1 0x4 DUP1 CALLDATASIZE SUB DUP2 ADD SWAP1 PUSH2 0x137 SWAP2 SWAP1 PUSH2 0x1CB0 JUMP JUMPDEST PUSH2 0x136F JUMP JUMPDEST STOP JUMPDEST PUSH2 0x146 PUSH2 0x1374 JUMP JUMPDEST PUSH2 0x14E PUSH2 0x1374 JUMP JUMPDEST PUSH0 PUSH0 SWAP1 POP PUSH0 PUSH0 SWAP1 POP JUMPDEST PUSH0 DUP1 SLOAD SWAP1 POP DUP2 LT ISZERO PUSH2 0x56B JUMPI DUP5 PUSH0 DUP3 DUP2 SLOAD DUP2 LT PUSH2 0x177 JUMPI PUSH2 0x176 PUSH2 0x1D1C JUMP JUMPDEST JUMPDEST SWAP1 PUSH0 MSTORE PUSH1 0x20 PUSH0 KECCAK256 SWAP1 PUSH1 0x9 MUL ADD PUSH0 ADD SLOAD SUB PUSH2 0x55E JUMPI PUSH0 DUP2 DUP2 SLOAD DUP2 LT PUSH2 0x19E JUMPI PUSH2 0x19D PUSH2 0x1D1C JUMP JUMPDEST JUMPDEST SWAP1 PUSH0 MSTORE PUSH1 0x20 PUSH0 KECCAK256 SWAP1 PUSH1 0x9 MUL ADD PUSH1 0x40 MLOAD DUP1 PUSH2 0x120 ADD PUSH1 0x40 MSTORE SWAP1 DUP2 PUSH0 DUP3 ADD SLOAD DUP2 MSTORE PUSH1 0x20 ADD PUSH1 0x1 DUP3 ADD DUP1 SLOAD PUSH2 0x1CF SWAP1 PUSH2 0x1D76 JUMP JUMPDEST DUP1 PUSH1 0x1F ADD PUSH1 0x20 DUP1 SWAP2 DIV MUL PUSH1 0x20 ADD PUSH1 0x40 MLOAD SWAP1 DUP2 ADD PUSH1 0x40 MSTORE DUP1 SWAP3 SWAP2 SWAP1 DUP2 DUP2 MSTORE PUSH1 0x20 ADD DUP3 DUP1 SLOAD PUSH2 0x1FB SWAP1 PUSH2 0x1D76 JUMP JUMPDEST DUP1 ISZERO PUSH2 0x246 JUMPI DUP1 PUSH1 0x1F LT PUSH2 0x21D JUMPI PUSH2 0x100 DUP1 DUP4 SLOAD DIV MUL DUP4 MSTORE SWAP2 PUSH1 0x20 ADD SWAP2 PUSH2 0x246 JUMP JUMPDEST DUP3 ADD SWAP2 SWAP1 PUSH0 MSTORE PUSH1 0x20 PUSH0 KECCAK256 SWAP1 JUMPDEST DUP2 SLOAD DUP2 MSTORE SWAP1 PUSH1 0x1 ADD SWAP1 PUSH1 0x20 ADD DUP1 DUP4 GT PUSH2 0x229 JUMPI DUP3 SWAP1 SUB PUSH1 0x1F AND DUP3 ADD SWAP2 JUMPDEST POP POP POP POP POP DUP2 MSTORE PUSH1 0x20 ADD PUSH1 0x2 DUP3 ADD DUP1 SLOAD PUSH2 0x25F SWAP1 PUSH2 0x1D76 JUMP JUMPDEST DUP1 PUSH1 0x1F ADD PUSH1 0x20 DUP1 SWAP2 DIV MUL PUSH1 0x20 ADD PUSH1 0x40 MLOAD SWAP1 DUP2 ADD PUSH1 0x40 MSTORE DUP1 SWAP3 SWAP2 SWAP1 DUP2 DUP2 MSTORE PUSH1 0x20 ADD DUP3 DUP1 SLOAD PUSH2 0x28B SWAP1 PUSH2 0x1D76 JUMP JUMPDEST DUP1 ISZERO PUSH2 0x2D6 JUMPI DUP1 PUSH1 0x1F LT PUSH2 0x2AD JUMPI PUSH2 0x100 DUP1 DUP4 SLOAD DIV MUL DUP4 MSTORE SWAP2 PUSH1 0x20 ADD SWAP2 PUSH2 0x2D6 JUMP JUMPDEST DUP3 ADD SWAP2 SWAP1 PUSH0 MSTORE PUSH1 0x20 PUSH0 KECCAK256 SWAP1 JUMPDEST DUP2 SLOAD DUP2 MSTORE SWAP1 PUSH1 0x1 ADD SWAP1 PUSH1 0x20 ADD DUP1 DUP4 GT PUSH2 0x2B9 JUMPI DUP3 SWAP1 SUB PUSH1 0x1F AND DUP3 ADD SWAP2 JUMPDEST POP POP POP POP POP DUP2 MSTORE PUSH1 0x20 ADD PUSH1 0x3 DUP3 ADD DUP1 SLOAD PUSH2 0x2EF SWAP1 PUSH2 0x1D76 JUMP JUMPDEST DUP1 PUSH1 0x1F ADD PUSH1 0x20 DUP1 SWAP2 DIV MUL PUSH1 0x20 ADD PUSH1 0x40 MLOAD SWAP1 DUP2 ADD PUSH1 0x40 MSTORE DUP1 SWAP3 SWAP2 SWAP1 DUP2 DUP2 MSTORE PUSH1 0x20 ADD DUP3 DUP1 SLOAD PUSH2 0x31B SWAP1 PUSH2 0x1D76 JUMP JUMPDEST DUP1 ISZERO PUSH2 0x366 JUMPI DUP1 PUSH1 0x1F LT PUSH2 0x33D JUMPI PUSH2 0x100 DUP1 DUP4 SLOAD DIV MUL DUP4 MSTORE SWAP2 PUSH1 0x20 ADD SWAP2 PUSH2 0x366 JUMP JUMPDEST DUP3 ADD SWAP2 SWAP1 PUSH0 MSTORE PUSH1 0x20 PUSH0 KECCAK256 SWAP1 JUMPDEST DUP2 SLOAD DUP2 MSTORE SWAP1 PUSH1 0x1 ADD SWAP1 PUSH1 0x20 ADD DUP1 DUP4 GT PUSH2 0x349 JUMPI DUP3 SWAP1 SUB PUSH1 0x1F AND DUP3 ADD SWAP2 JUMPDEST POP POP POP POP POP DUP2 MSTORE PUSH1 0x20 ADD PUSH1 0x4 DUP3 ADD DUP1 SLOAD PUSH2 0x37F SWAP1 PUSH2 0x1D76 JUMP JUMPDEST DUP1 PUSH1 0x1F ADD PUSH1 0x20 DUP1 SWAP2 DIV MUL PUSH1 0x20 ADD PUSH1 0x40 MLOAD SWAP1 DUP2 ADD PUSH1 0x40 MSTORE DUP1 SWAP3 SWAP2 SWAP1 DUP2 DUP2 MSTORE PUSH1 0x20 ADD DUP3 DUP1 SLOAD PUSH2 0x3AB SWAP1 PUSH2 0x1D76 JUMP JUMPDEST DUP1 ISZERO PUSH2 0x3F6 JUMPI DUP1 PUSH1 0x1F LT PUSH2 0x3CD JUMPI PUSH2 0x100 DUP1 DUP4 SLOAD DIV MUL DUP4 MSTORE SWAP2 PUSH1 0x20 ADD SWAP2 PUSH2 0x3F6 JUMP JUMPDEST DUP3 ADD SWAP2 SWAP1 PUSH0 MSTORE PUSH1 0x20 PUSH0 KECCAK256 SWAP1 JUMPDEST DUP2 SLOAD DUP2 MSTORE SWAP1 PUSH1 0x1 ADD SWAP1 PUSH1 0x20 ADD DUP1 DUP4 GT PUSH2 0x3D9 JUMPI DUP3 SWAP1 SUB PUSH1 0x1F AND DUP3 ADD SWAP2 JUMPDEST POP POP POP POP POP DUP2 MSTORE PUSH1 0x20 ADD PUSH1 0x5 DUP3 ADD PUSH0 SWAP1 SLOAD SWAP1 PUSH2 0x100 EXP SWAP1 DIV PUSH20 0xFFFFFFFFFFFFFFFFFFFFFFFFFFFFFFFFFFFFFFFF AND PUSH20 0xFFFFFFFFFFFFFFFFFFFFFFFFFFFFFFFFFFFFFFFF AND PUSH20 0xFFFFFFFFFFFFFFFFFFFFFFFFFFFFFFFFFFFFFFFF AND DUP2 MSTORE PUSH1 0x20 ADD PUSH1 0x6 DUP3 ADD PUSH0 SWAP1 SLOAD SWAP1 PUSH2 0x100 EXP SWAP1 DIV PUSH20 0xFFFFFFFFFFFFFFFFFFFFFFFFFFFFFFFFFFFFFFFF AND PUSH20 0xFFFFFFFFFFFFFFFFFFFFFFFFFFFFFFFFFFFFFFFF AND PUSH20 0xFFFFFFFFFFFFFFFFFFFFFFFFFFFFFFFFFFFFFFFF AND DUP2 MSTORE PUSH1 0x20 ADD PUSH1 0x7 DUP3 ADD PUSH0 SWAP1 SLOAD SWAP1 PUSH2 0x100 EXP SWAP1 DIV PUSH20 0xFFFFFFFFFFFFFFFFFFFFFFFFFFFFFFFFFFFFFFFF AND PUSH20 0xFFFFFFFFFFFFFFFFFFFFFFFFFFFFFFFFFFFFFFFF AND PUSH20 0xFFFFFFFFFFFFFFFFFFFFFFFFFFFFFFFFFFFFFFFF AND DUP2 MSTORE PUSH1 0x20 ADD PUSH1 0x8 DUP3 ADD PUSH0 SWAP1 SLOAD SWAP1 PUSH2 0x100 EXP SWAP1 DIV PUSH20 0xFFFFFFFFFFFFFFFFFFFFFFFFFFFFFFFFFFFFFFFF AND PUSH20 0xFFFFFFFFFFFFFFFFFFFFFFFFFFFFFFFFFFFFFFFF AND PUSH20 0xFFFFFFFFFFFFFFFFFFFFFFFFFFFFFFFFFFFFFFFF AND DUP2 MSTORE POP POP SWAP3 POP PUSH1 0x1 SWAP2 POP PUSH2 0x56B JUMP JUMPDEST DUP1 DUP1 PUSH1 0x1 ADD SWAP2 POP POP PUSH2 0x157 JUMP JUMPDEST POP DUP1 PUSH2 0x5AC JUMPI PUSH1 0x40 MLOAD PUSH32 0x8C379A000000000000000000000000000000000000000000000000000000000 DUP2 MSTORE PUSH1 0x4 ADD PUSH2 0x5A3 SWAP1 PUSH2 0x1DF0 JUMP JUMPDEST PUSH1 0x40 MLOAD DUP1 SWAP2 SUB SWAP1 REVERT JUMPDEST DUP2 PUSH1 0xA0 ADD MLOAD PUSH20 0xFFFFFFFFFFFFFFFFFFFFFFFFFFFFFFFFFFFFFFFF AND CALLER PUSH20 0xFFFFFFFFFFFFFFFFFFFFFFFFFFFFFFFFFFFFFFFF AND EQ PUSH2 0x61E JUMPI PUSH1 0x40 MLOAD PUSH32 0x8C379A000000000000000000000000000000000000000000000000000000000 DUP2 MSTORE PUSH1 0x4 ADD PUSH2 0x615 SWAP1 PUSH2 0x1E7E JUMP JUMPDEST PUSH1 0x40 MLOAD DUP1 SWAP2 SUB SWAP1 REVERT JUMPDEST DUP2 SWAP3 POP POP POP SWAP2 SWAP1 POP JUMP JUMPDEST PUSH1 0x1 DUP5 PUSH1 0x40 MLOAD PUSH2 0x638 SWAP2 SWAP1 PUSH2 0x1ED6 JUMP JUMPDEST SWAP1 DUP2 MSTORE PUSH1 0x20 ADD PUSH1 0x40 MLOAD DUP1 SWAP2 SUB SWAP1 KECCAK256 PUSH0 SWAP1 SLOAD SWAP1 PUSH2 0x100 EXP SWAP1 DIV PUSH1 0xFF AND ISZERO PUSH2 0x693 JUMPI PUSH1 0x40 MLOAD PUSH32 0x8C379A000000000000000000000000000000000000000000000000000000000 DUP2 MSTORE PUSH1 0x4 ADD PUSH2 0x68A SWAP1 PUSH2 0x1F36 JUMP JUMPDEST PUSH1 0x40 MLOAD DUP1 SWAP2 SUB SWAP1 REVERT JUMPDEST PUSH1 0x1 DUP1 DUP6 PUSH1 0x40 MLOAD PUSH2 0x6A4 SWAP2 SWAP1 PUSH2 0x1ED6 JUMP JUMPDEST SWAP1 DUP2 MSTORE PUSH1 0x20 ADD PUSH1 0x40 MLOAD DUP1 SWAP2 SUB SWAP1 KECCAK256 PUSH0 PUSH2 0x100 EXP DUP2 SLOAD DUP2 PUSH1 0xFF MUL NOT AND SWAP1 DUP4 ISZERO ISZERO MUL OR SWAP1 SSTORE POP PUSH0 PUSH1 0x40 MLOAD PUSH2 0x6D5 SWAP1 PUSH2 0x1413 JUMP JUMPDEST PUSH1 0x40 MLOAD DUP1 SWAP2 SUB SWAP1 PUSH0 CREATE DUP1 ISZERO DUP1 ISZERO PUSH2 0x6EE JUMPI RETURNDATASIZE PUSH0 PUSH0 RETURNDATACOPY RETURNDATASIZE PUSH0 REVERT JUMPDEST POP SWAP1 POP PUSH0 PUSH1 0x40 MLOAD PUSH2 0x6FE SWAP1 PUSH2 0x1420 JUMP JUMPDEST PUSH1 0x40 MLOAD DUP1 SWAP2 SUB SWAP1 PUSH0 CREATE DUP1 ISZERO DUP1 ISZERO PUSH2 0x717 JUMPI RETURNDATASIZE PUSH0 PUSH0 RETURNDATACOPY RETURNDATASIZE PUSH0 REVERT JUMPDEST POP SWAP1 POP PUSH0 PUSH1 0x40 MLOAD PUSH2 0x727 SWAP1 PUSH2 0x142D JUMP JUMPDEST PUSH1 0x40 MLOAD DUP1 SWAP2 SUB SWAP1 PUSH0 CREATE DUP1 ISZERO DUP1 ISZERO PUSH2 0x740 JUMPI RETURNDATASIZE PUSH0 PUSH0 RETURNDATACOPY RETURNDATASIZE PUSH0 REVERT JUMPDEST POP SWAP1 POP PUSH0 PUSH1 0x1 PUSH0 DUP1 SLOAD SWAP1 POP PUSH2 0x755 SWAP2 SWAP1 PUSH2 0x1F81 JUMP JUMPDEST SWAP1 POP PUSH0 PUSH1 0x40 MLOAD DUP1 PUSH2 0x120 ADD PUSH1 0x40 MSTORE DUP1 DUP4 DUP2 MSTORE PUSH1 0x20 ADD DUP11 DUP2 MSTORE PUSH1 0x20 ADD DUP10 DUP2 MSTORE PUSH1 0x20 ADD DUP9 DUP2 MSTORE PUSH1 0x20 ADD DUP8 DUP2 MSTORE PUSH1 0x20 ADD CALLER PUSH20 0xFFFFFFFFFFFFFFFFFFFFFFFFFFFFFFFFFFFFFFFF AND DUP2 MSTORE PUSH1 0x20 ADD DUP7 PUSH20 0xFFFFFFFFFFFFFFFFFFFFFFFFFFFFFFFFFFFFFFFF AND DUP2 MSTORE PUSH1 0x20 ADD DUP6 PUSH20 0xFFFFFFFFFFFFFFFFFFFFFFFFFFFFFFFFFFFFFFFF AND DUP2 MSTORE PUSH1 0x20 ADD DUP5 PUSH20 0xFFFFFFFFFFFFFFFFFFFFFFFFFFFFFFFFFFFFFFFF AND DUP2 MSTORE POP SWAP1 POP PUSH0 DUP2 SWAP1 DUP1 PUSH1 0x1 DUP2 SLOAD ADD DUP1 DUP3 SSTORE DUP1 SWAP2 POP POP PUSH1 0x1 SWAP1 SUB SWAP1 PUSH0 MSTORE PUSH1 0x20 PUSH0 KECCAK256 SWAP1 PUSH1 0x9 MUL ADD PUSH0 SWAP1 SWAP2 SWAP1 SWAP2 SWAP1 SWAP2 POP PUSH0 DUP3 ADD MLOAD DUP2 PUSH0 ADD SSTORE PUSH1 0x20 DUP3 ADD MLOAD DUP2 PUSH1 0x1 ADD SWAP1 DUP2 PUSH2 0x837 SWAP2 SWAP1 PUSH2 0x214B JUMP JUMPDEST POP PUSH1 0x40 DUP3 ADD MLOAD DUP2 PUSH1 0x2 ADD SWAP1 DUP2 PUSH2 0x84D SWAP2 SWAP1 PUSH2 0x214B JUMP JUMPDEST POP PUSH1 0x60 DUP3 ADD MLOAD DUP2 PUSH1 0x3 ADD SWAP1 DUP2 PUSH2 0x863 SWAP2 SWAP1 PUSH2 0x214B JUMP JUMPDEST POP PUSH1 0x80 DUP3 ADD MLOAD DUP2 PUSH1 0x4 ADD SWAP1 DUP2 PUSH2 0x879 SWAP2 SWAP1 PUSH2 0x214B JUMP JUMPDEST POP PUSH1 0xA0 DUP3 ADD MLOAD DUP2 PUSH1 0x5 ADD PUSH0 PUSH2 0x100 EXP DUP2 SLOAD DUP2 PUSH20 0xFFFFFFFFFFFFFFFFFFFFFFFFFFFFFFFFFFFFFFFF MUL NOT AND SWAP1 DUP4 PUSH20 0xFFFFFFFFFFFFFFFFFFFFFFFFFFFFFFFFFFFFFFFF AND MUL OR SWAP1 SSTORE POP PUSH1 0xC0 DUP3 ADD MLOAD DUP2 PUSH1 0x6 ADD PUSH0 PUSH2 0x100 EXP DUP2 SLOAD DUP2 PUSH20 0xFFFFFFFFFFFFFFFFFFFFFFFFFFFFFFFFFFFFFFFF MUL NOT AND SWAP1 DUP4 PUSH20 0xFFFFFFFFFFFFFFFFFFFFFFFFFFFFFFFFFFFFFFFF AND MUL OR SWAP1 SSTORE POP PUSH1 0xE0 DUP3 ADD MLOAD DUP2 PUSH1 0x7 ADD PUSH0 PUSH2 0x100 EXP DUP2 SLOAD DUP2 PUSH20 0xFFFFFFFFFFFFFFFFFFFFFFFFFFFFFFFFFFFFFFFF MUL NOT AND SWAP1 DUP4 PUSH20 0xFFFFFFFFFFFFFFFFFFFFFFFFFFFFFFFFFFFFFFFF AND MUL OR SWAP1 SSTORE POP PUSH2 0x100 DUP3 ADD MLOAD DUP2 PUSH1 0x8 ADD PUSH0 PUSH2 0x100 EXP DUP2 SLOAD DUP2 PUSH20 0xFFFFFFFFFFFFFFFFFFFFFFFFFFFFFFFFFFFFFFFF MUL NOT AND SWAP1 DUP4 PUSH20 0xFFFFFFFFFFFFFFFFFFFFFFFFFFFFFFFFFFFFFFFF AND MUL OR SWAP1 SSTORE POP POP POP POP POP POP POP POP POP POP POP POP JUMP JUMPDEST PUSH0 PUSH0 DUP7 DUP2 SLOAD DUP2 LT PUSH2 0x9B4 JUMPI PUSH2 0x9B3 PUSH2 0x1D1C JUMP JUMPDEST JUMPDEST SWAP1 PUSH0 MSTORE PUSH1 0x20 PUSH0 KECCAK256 SWAP1 PUSH1 0x9 MUL ADD SWAP1 POP DUP1 PUSH1 0x5 ADD PUSH0 SWAP1 SLOAD SWAP1 PUSH2 0x100 EXP SWAP1 DIV PUSH20 0xFFFFFFFFFFFFFFFFFFFFFFFFFFFFFFFFFFFFFFFF AND PUSH20 0xFFFFFFFFFFFFFFFFFFFFFFFFFFFFFFFFFFFFFFFF AND CALLER PUSH20 0xFFFFFFFFFFFFFFFFFFFFFFFFFFFFFFFFFFFFFFFF AND EQ PUSH2 0xA53 JUMPI PUSH1 0x40 MLOAD PUSH32 0x8C379A000000000000000000000000000000000000000000000000000000000 DUP2 MSTORE PUSH1 0x4 ADD PUSH2 0xA4A SWAP1 PUSH2 0x2264 JUMP JUMPDEST PUSH1 0x40 MLOAD DUP1 SWAP2 SUB SWAP1 REVERT JUMPDEST DUP1 PUSH1 0x6 ADD PUSH0 SWAP1 SLOAD SWAP1 PUSH2 0x100 EXP SWAP1 DIV PUSH20 0xFFFFFFFFFFFFFFFFFFFFFFFFFFFFFFFFFFFFFFFF AND PUSH20 0xFFFFFFFFFFFFFFFFFFFFFFFFFFFFFFFFFFFFFFFF AND PUSH4 0x904AE8AD DUP7 DUP7 DUP7 DUP7 PUSH1 0x40 MLOAD DUP6 PUSH4 0xFFFFFFFF AND PUSH1 0xE0 SHL DUP2 MSTORE PUSH1 0x4 ADD PUSH2 0xAB5 SWAP5 SWAP4 SWAP3 SWAP2 SWAP1 PUSH2 0x2282 JUMP JUMPDEST PUSH0 PUSH1 0x40 MLOAD DUP1 DUP4 SUB DUP2 PUSH0 DUP8 DUP1 EXTCODESIZE ISZERO DUP1 ISZERO PUSH2 0xACC JUMPI PUSH0 PUSH0 REVERT JUMPDEST POP GAS CALL ISZERO DUP1 ISZERO PUSH2 0xADE JUMPI RETURNDATASIZE PUSH0 PUSH0 RETURNDATACOPY RETURNDATASIZE PUSH0 REVERT JUMPDEST POP POP POP POP POP POP POP POP POP POP JUMP JUMPDEST PUSH0 DUP2 DUP2 SLOAD DUP2 LT PUSH2 0xAF8 JUMPI PUSH0 DUP1 REVERT JUMPDEST SWAP1 PUSH0 MSTORE PUSH1 0x20 PUSH0 KECCAK256 SWAP1 PUSH1 0x9 MUL ADD PUSH0 SWAP2 POP SWAP1 POP DUP1 PUSH0 ADD SLOAD SWAP1 DUP1 PUSH1 0x1 ADD DUP1 SLOAD PUSH2 0xB1D SWAP1 PUSH2 0x1D76 JUMP JUMPDEST DUP1 PUSH1 0x1F ADD PUSH1 0x20 DUP1 SWAP2 DIV MUL PUSH1 0x20 ADD PUSH1 0x40 MLOAD SWAP1 DUP2 ADD PUSH1 0x40 MSTORE DUP1 SWAP3 SWAP2 SWAP1 DUP2 DUP2 MSTORE PUSH1 0x20 ADD DUP3 DUP1 SLOAD PUSH2 0xB49 SWAP1 PUSH2 0x1D76 JUMP JUMPDEST DUP1 ISZERO PUSH2 0xB94 JUMPI DUP1 PUSH1 0x1F LT PUSH2 0xB6B JUMPI PUSH2 0x100 DUP1 DUP4 SLOAD DIV MUL DUP4 MSTORE SWAP2 PUSH1 0x20 ADD SWAP2 PUSH2 0xB94 JUMP JUMPDEST DUP3 ADD SWAP2 SWAP1 PUSH0 MSTORE PUSH1 0x20 PUSH0 KECCAK256 SWAP1 JUMPDEST DUP2 SLOAD DUP2 MSTORE SWAP1 PUSH1 0x1 ADD SWAP1 PUSH1 0x20 ADD DUP1 DUP4 GT PUSH2 0xB77 JUMPI DUP3 SWAP1 SUB PUSH1 0x1F AND DUP3 ADD SWAP2 JUMPDEST POP POP POP POP POP SWAP1 DUP1 PUSH1 0x2 ADD DUP1 SLOAD PUSH2 0xBA9 SWAP1 PUSH2 0x1D76 JUMP JUMPDEST DUP1 PUSH1 0x1F ADD PUSH1 0x20 DUP1 SWAP2 DIV MUL PUSH1 0x20 ADD PUSH1 0x40 MLOAD SWAP1 DUP2 ADD PUSH1 0x40 MSTORE DUP1 SWAP3 SWAP2 SWAP1 DUP2 DUP2 MSTORE PUSH1 0x20 ADD DUP3 DUP1 SLOAD PUSH2 0xBD5 SWAP1 PUSH2 0x1D76 JUMP JUMPDEST DUP1 ISZERO PUSH2 0xC20 JUMPI DUP1 PUSH1 0x1F LT PUSH2 0xBF7 JUMPI PUSH2 0x100 DUP1 DUP4 SLOAD DIV MUL DUP4 MSTORE SWAP2 PUSH1 0x20 ADD SWAP2 PUSH2 0xC20 JUMP JUMPDEST DUP3 ADD SWAP2 SWAP1 PUSH0 MSTORE PUSH1 0x20 PUSH0 KECCAK256 SWAP1 JUMPDEST DUP2 SLOAD DUP2 MSTORE SWAP1 PUSH1 0x1 ADD SWAP1 PUSH1 0x20 ADD DUP1 DUP4 GT PUSH2 0xC03 JUMPI DUP3 SWAP1 SUB PUSH1 0x1F AND DUP3 ADD SWAP2 JUMPDEST POP POP POP POP POP SWAP1 DUP1 PUSH1 0x3 ADD DUP1 SLOAD PUSH2 0xC35 SWAP1 PUSH2 0x1D76 JUMP JUMPDEST DUP1 PUSH1 0x1F ADD PUSH1 0x20 DUP1 SWAP2 DIV MUL PUSH1 0x20 ADD PUSH1 0x40 MLOAD SWAP1 DUP2 ADD PUSH1 0x40 MSTORE DUP1 SWAP3 SWAP2 SWAP1 DUP2 DUP2 MSTORE PUSH1 0x20 ADD DUP3 DUP1 SLOAD PUSH2 0xC61 SWAP1 PUSH2 0x1D76 JUMP JUMPDEST DUP1 ISZERO PUSH2 0xCAC JUMPI DUP1 PUSH1 0x1F LT PUSH2 0xC83 JUMPI PUSH2 0x100 DUP1 DUP4 SLOAD DIV MUL DUP4 MSTORE SWAP2 PUSH1 0x20 ADD SWAP2 PUSH2 0xCAC JUMP JUMPDEST DUP3 ADD SWAP2 SWAP1 PUSH0 MSTORE PUSH1 0x20 PUSH0 KECCAK256 SWAP1 JUMPDEST DUP2 SLOAD DUP2 MSTORE SWAP1 PUSH1 0x1 ADD SWAP1 PUSH1 0x20 ADD DUP1 DUP4 GT PUSH2 0xC8F JUMPI DUP3 SWAP1 SUB PUSH1 0x1F AND DUP3 ADD SWAP2 JUMPDEST POP POP POP POP POP SWAP1 DUP1 PUSH1 0x4 ADD DUP1 SLOAD PUSH2 0xCC1 SWAP1 PUSH2 0x1D76 JUMP JUMPDEST DUP1 PUSH1 0x1F ADD PUSH1 0x20 DUP1 SWAP2 DIV MUL PUSH1 0x20 ADD PUSH1 0x40 MLOAD SWAP1 DUP2 ADD PUSH1 0x40 MSTORE DUP1 SWAP3 SWAP2 SWAP1 DUP2 DUP2 MSTORE PUSH1 0x20 ADD DUP3 DUP1 SLOAD PUSH2 0xCED SWAP1 PUSH2 0x1D76 JUMP JUMPDEST DUP1 ISZERO PUSH2 0xD38 JUMPI DUP1 PUSH1 0x1F LT PUSH2 0xD0F JUMPI PUSH2 0x100 DUP1 DUP4 SLOAD DIV MUL DUP4 MSTORE SWAP2 PUSH1 0x20 ADD SWAP2 PUSH2 0xD38 JUMP JUMPDEST DUP3 ADD SWAP2 SWAP1 PUSH0 MSTORE PUSH1 0x20 PUSH0 KECCAK256 SWAP1 JUMPDEST DUP2 SLOAD DUP2 MSTORE SWAP1 PUSH1 0x1 ADD SWAP1 PUSH1 0x20 ADD DUP1 DUP4 GT PUSH2 0xD1B JUMPI DUP3 SWAP1 SUB PUSH1 0x1F AND DUP3 ADD SWAP2 JUMPDEST POP POP POP POP POP SWAP1 DUP1 PUSH1 0x5 ADD PUSH0 SWAP1 SLOAD SWAP1 PUSH2 0x100 EXP SWAP1 DIV PUSH20 0xFFFFFFFFFFFFFFFFFFFFFFFFFFFFFFFFFFFFFFFF AND SWAP1 DUP1 PUSH1 0x6 ADD PUSH0 SWAP1 SLOAD SWAP1 PUSH2 0x100 EXP SWAP1 DIV PUSH20 0xFFFFFFFFFFFFFFFFFFFFFFFFFFFFFFFFFFFFFFFF AND SWAP1 DUP1 PUSH1 0x7 ADD PUSH0 SWAP1 SLOAD SWAP1 PUSH2 0x100 EXP SWAP1 DIV PUSH20 0xFFFFFFFFFFFFFFFFFFFFFFFFFFFFFFFFFFFFFFFF AND SWAP1 DUP1 PUSH1 0x8 ADD PUSH0 SWAP1 SLOAD SWAP1 PUSH2 0x100 EXP SWAP1 DIV PUSH20 0xFFFFFFFFFFFFFFFFFFFFFFFFFFFFFFFFFFFFFFFF AND SWAP1 POP DUP10 JUMP JUMPDEST PUSH1 0x60 PUSH0 CALLER SWAP1 POP PUSH0 PUSH0 SWAP1 POP PUSH0 PUSH0 SWAP1 POP JUMPDEST PUSH0 DUP1 SLOAD SWAP1 POP DUP2 LT ISZERO PUSH2 0xE81 JUMPI DUP3 PUSH20 0xFFFFFFFFFFFFFFFFFFFFFFFFFFFFFFFFFFFFFFFF AND PUSH0 DUP3 DUP2 SLOAD DUP2 LT PUSH2 0xE1B JUMPI PUSH2 0xE1A PUSH2 0x1D1C JUMP JUMPDEST JUMPDEST SWAP1 PUSH0 MSTORE PUSH1 0x20 PUSH0 KECCAK256 SWAP1 PUSH1 0x9 MUL ADD PUSH1 0x5 ADD PUSH0 SWAP1 SLOAD SWAP1 PUSH2 0x100 EXP SWAP1 DIV PUSH20 0xFFFFFFFFFFFFFFFFFFFFFFFFFFFFFFFFFFFFFFFF AND PUSH20 0xFFFFFFFFFFFFFFFFFFFFFFFFFFFFFFFFFFFFFFFF AND SUB PUSH2 0xE74 JUMPI DUP2 DUP1 PUSH2 0xE70 SWAP1 PUSH2 0x22DA JUMP JUMPDEST SWAP3 POP POP JUMPDEST DUP1 DUP1 PUSH1 0x1 ADD SWAP2 POP POP PUSH2 0xDE5 JUMP JUMPDEST POP PUSH0 DUP2 PUSH8 0xFFFFFFFFFFFFFFFF DUP2 GT ISZERO PUSH2 0xE9D JUMPI PUSH2 0xE9C PUSH2 0x1701 JUMP JUMPDEST JUMPDEST PUSH1 0x40 MLOAD SWAP1 DUP1 DUP3 MSTORE DUP1 PUSH1 0x20 MUL PUSH1 0x20 ADD DUP3 ADD PUSH1 0x40 MSTORE DUP1 ISZERO PUSH2 0xED6 JUMPI DUP2 PUSH1 0x20 ADD JUMPDEST PUSH2 0xEC3 PUSH2 0x1374 JUMP JUMPDEST DUP2 MSTORE PUSH1 0x20 ADD SWAP1 PUSH1 0x1 SWAP1 SUB SWAP1 DUP2 PUSH2 0xEBB JUMPI SWAP1 POP JUMPDEST POP SWAP1 POP PUSH0 PUSH0 SWAP1 POP PUSH0 PUSH0 SWAP1 POP JUMPDEST PUSH0 DUP1 SLOAD SWAP1 POP DUP2 LT ISZERO PUSH2 0x1364 JUMPI DUP5 PUSH20 0xFFFFFFFFFFFFFFFFFFFFFFFFFFFFFFFFFFFFFFFF AND PUSH0 DUP3 DUP2 SLOAD DUP2 LT PUSH2 0xF18 JUMPI PUSH2 0xF17 PUSH2 0x1D1C JUMP JUMPDEST JUMPDEST SWAP1 PUSH0 MSTORE PUSH1 0x20 PUSH0 KECCAK256 SWAP1 PUSH1 0x9 MUL ADD PUSH1 0x5 ADD PUSH0 SWAP1 SLOAD SWAP1 PUSH2 0x100 EXP SWAP1 DIV PUSH20 0xFFFFFFFFFFFFFFFFFFFFFFFFFFFFFFFFFFFFFFFF AND PUSH20 0xFFFFFFFFFFFFFFFFFFFFFFFFFFFFFFFFFFFFFFFF AND SUB PUSH2 0x1357 JUMPI PUSH0 DUP2 DUP2 SLOAD DUP2 LT PUSH2 0xF75 JUMPI PUSH2 0xF74 PUSH2 0x1D1C JUMP JUMPDEST JUMPDEST SWAP1 PUSH0 MSTORE PUSH1 0x20 PUSH0 KECCAK256 SWAP1 PUSH1 0x9 MUL ADD PUSH1 0x40 MLOAD DUP1 PUSH2 0x120 ADD PUSH1 0x40 MSTORE SWAP1 DUP2 PUSH0 DUP3 ADD SLOAD DUP2 MSTORE PUSH1 0x20 ADD PUSH1 0x1 DUP3 ADD DUP1 SLOAD PUSH2 0xFA6 SWAP1 PUSH2 0x1D76 JUMP JUMPDEST DUP1 PUSH1 0x1F ADD PUSH1 0x20 DUP1 SWAP2 DIV MUL PUSH1 0x20 ADD PUSH1 0x40 MLOAD SWAP1 DUP2 ADD PUSH1 0x40 MSTORE DUP1 SWAP3 SWAP2 SWAP1 DUP2 DUP2 MSTORE PUSH1 0x20 ADD DUP3 DUP1 SLOAD PUSH2 0xFD2 SWAP1 PUSH2 0x1D76 JUMP JUMPDEST DUP1 ISZERO PUSH2 0x101D JUMPI DUP1 PUSH1 0x1F LT PUSH2 0xFF4 JUMPI PUSH2 0x100 DUP1 DUP4 SLOAD DIV MUL DUP4 MSTORE SWAP2 PUSH1 0x20 ADD SWAP2 PUSH2 0x101D JUMP JUMPDEST DUP3 ADD SWAP2 SWAP1 PUSH0 MSTORE PUSH1 0x20 PUSH0 KECCAK256 SWAP1 JUMPDEST DUP2 SLOAD DUP2 MSTORE SWAP1 PUSH1 0x1 ADD SWAP1 PUSH1 0x20 ADD DUP1 DUP4 GT PUSH2 0x1000 JUMPI DUP3 SWAP1 SUB PUSH1 0x1F AND DUP3 ADD SWAP2 JUMPDEST POP POP POP POP POP DUP2 MSTORE PUSH1 0x20 ADD PUSH1 0x2 DUP3 ADD DUP1 SLOAD PUSH2 0x1036 SWAP1 PUSH2 0x1D76 JUMP JUMPDEST DUP1 PUSH1 0x1F ADD PUSH1 0x20 DUP1 SWAP2 DIV MUL PUSH1 0x20 ADD PUSH1 0x40 MLOAD SWAP1 DUP2 ADD PUSH1 0x40 MSTORE DUP1 SWAP3 SWAP2 SWAP1 DUP2 DUP2 MSTORE PUSH1 0x20 ADD DUP3 DUP1 SLOAD PUSH2 0x1062 SWAP1 PUSH2 0x1D76 JUMP JUMPDEST DUP1 ISZERO PUSH2 0x10AD JUMPI DUP1 PUSH1 0x1F LT PUSH2 0x1084 JUMPI PUSH2 0x100 DUP1 DUP4 SLOAD DIV MUL DUP4 MSTORE SWAP2 PUSH1 0x20 ADD SWAP2 PUSH2 0x10AD JUMP JUMPDEST DUP3 ADD SWAP2 SWAP1 PUSH0 MSTORE PUSH1 0x20 PUSH0 KECCAK256 SWAP1 JUMPDEST DUP2 SLOAD DUP2 MSTORE SWAP1 PUSH1 0x1 ADD SWAP1 PUSH1 0x20 ADD DUP1 DUP4 GT PUSH2 0x1090 JUMPI DUP3 SWAP1 SUB PUSH1 0x1F AND DUP3 ADD SWAP2 JUMPDEST POP POP POP POP POP DUP2 MSTORE PUSH1 0x20 ADD PUSH1 0x3 DUP3 ADD DUP1 SLOAD PUSH2 0x10C6 SWAP1 PUSH2 0x1D76 JUMP JUMPDEST DUP1 PUSH1 0x1F ADD PUSH1 0x20 DUP1 SWAP2 DIV MUL PUSH1 0x20 ADD PUSH1 0x40 MLOAD SWAP1 DUP2 ADD PUSH1 0x40 MSTORE DUP1 SWAP3 SWAP2 SWAP1 DUP2 DUP2 MSTORE PUSH1 0x20 ADD DUP3 DUP1 SLOAD PUSH2 0x10F2 SWAP1 PUSH2 0x1D76 JUMP JUMPDEST DUP1 ISZERO PUSH2 0x113D JUMPI DUP1 PUSH1 0x1F LT PUSH2 0x1114 JUMPI PUSH2 0x100 DUP1 DUP4 SLOAD DIV MUL DUP4 MSTORE SWAP2 PUSH1 0x20 ADD SWAP2 PUSH2 0x113D JUMP JUMPDEST DUP3 ADD SWAP2 SWAP1 PUSH0 MSTORE PUSH1 0x20 PUSH0 KECCAK256 SWAP1 JUMPDEST DUP2 SLOAD DUP2 MSTORE SWAP1 PUSH1 0x1 ADD SWAP1 PUSH1 0x20 ADD DUP1 DUP4 GT PUSH2 0x1120 JUMPI DUP3 SWAP1 SUB PUSH1 0x1F AND DUP3 ADD SWAP2 JUMPDEST POP POP POP POP POP DUP2 MSTORE PUSH1 0x20 ADD PUSH1 0x4 DUP3 ADD DUP1 SLOAD PUSH2 0x1156 SWAP1 PUSH2 0x1D76 JUMP JUMPDEST DUP1 PUSH1 0x1F ADD PUSH1 0x20 DUP1 SWAP2 DIV MUL PUSH1 0x20 ADD PUSH1 0x40 MLOAD SWAP1 DUP2 ADD PUSH1 0x40 MSTORE DUP1 SWAP3 SWAP2 SWAP1 DUP2 DUP2 MSTORE PUSH1 0x20 ADD DUP3 DUP1 SLOAD PUSH2 0x1182 SWAP1 PUSH2 0x1D76 JUMP JUMPDEST DUP1 ISZERO PUSH2 0x11CD JUMPI DUP1 PUSH1 0x1F LT PUSH2 0x11A4 JUMPI PUSH2 0x100 DUP1 DUP4 SLOAD DIV MUL DUP4 MSTORE SWAP2 PUSH1 0x20 ADD SWAP2 PUSH2 0x11CD JUMP JUMPDEST DUP3 ADD SWAP2 SWAP1 PUSH0 MSTORE PUSH1 0x20 PUSH0 KECCAK256 SWAP1 JUMPDEST DUP2 SLOAD DUP2 MSTORE SWAP1 PUSH1 0x1 ADD SWAP1 PUSH1 0x20 ADD DUP1 DUP4 GT PUSH2 0x11B0 JUMPI DUP3 SWAP1 SUB PUSH1 0x1F AND DUP3 ADD SWAP2 JUMPDEST POP POP POP POP POP DUP2 MSTORE PUSH1 0x20 ADD PUSH1 0x5 DUP3 ADD PUSH0 SWAP1 SLOAD SWAP1 PUSH2 0x100 EXP SWAP1 DIV PUSH20 0xFFFFFFFFFFFFFFFFFFFFFFFFFFFFFFFFFFFFFFFF AND PUSH20 0xFFFFFFFFFFFFFFFFFFFFFFFFFFFFFFFFFFFFFFFF AND PUSH20 0xFFFFFFFFFFFFFFFFFFFFFFFFFFFFFFFFFFFFFFFF AND DUP2 MSTORE PUSH1 0x20 ADD PUSH1 0x6 DUP3 ADD PUSH0 SWAP1 SLOAD SWAP1 PUSH2 0x100 EXP SWAP1 DIV PUSH20 0xFFFFFFFFFFFFFFFFFFFFFFFFFFFFFFFFFFFFFFFF AND PUSH20 0xFFFFFFFFFFFFFFFFFFFFFFFFFFFFFFFFFFFFFFFF AND PUSH20 0xFFFFFFFFFFFFFFFFFFFFFFFFFFFFFFFFFFFFFFFF AND DUP2 MSTORE PUSH1 0x20 ADD PUSH1 0x7 DUP3 ADD PUSH0 SWAP1 SLOAD SWAP1 PUSH2 0x100 EXP SWAP1 DIV PUSH20 0xFFFFFFFFFFFFFFFFFFFFFFFFFFFFFFFFFFFFFFFF AND PUSH20 0xFFFFFFFFFFFFFFFFFFFFFFFFFFFFFFFFFFFFFFFF AND PUSH20 0xFFFFFFFFFFFFFFFFFFFFFFFFFFFFFFFFFFFFFFFF AND DUP2 MSTORE PUSH1 0x20 ADD PUSH1 0x8 DUP3 ADD PUSH0 SWAP1 SLOAD SWAP1 PUSH2 0x100 EXP SWAP1 DIV PUSH20 0xFFFFFFFFFFFFFFFFFFFFFFFFFFFFFFFFFFFFFFFF AND PUSH20 0xFFFFFFFFFFFFFFFFFFFFFFFFFFFFFFFFFFFFFFFF AND PUSH20 0xFFFFFFFFFFFFFFFFFFFFFFFFFFFFFFFFFFFFFFFF AND DUP2 MSTORE POP POP DUP4 DUP4 DUP2 MLOAD DUP2 LT PUSH2 0x133D JUMPI PUSH2 0x133C PUSH2 0x1D1C JUMP JUMPDEST JUMPDEST PUSH1 0x20 MUL PUSH1 0x20 ADD ADD DUP2 SWAP1 MSTORE POP DUP2 DUP1 PUSH2 0x1353 SWAP1 PUSH2 0x22DA JUMP JUMPDEST SWAP3 POP POP JUMPDEST DUP1 DUP1 PUSH1 0x1 ADD SWAP2 POP POP PUSH2 0xEE2 JUMP JUMPDEST POP DUP2 SWAP5 POP POP POP POP POP SWAP1 JUMP JUMPDEST POP POP POP JUMP JUMPDEST PUSH1 0x40 MLOAD DUP1 PUSH2 0x120 ADD PUSH1 0x40 MSTORE DUP1 PUSH0 DUP2 MSTORE PUSH1 0x20 ADD PUSH1 0x60 DUP2 MSTORE PUSH1 0x20 ADD PUSH1 0x60 DUP2 MSTORE PUSH1 0x20 ADD PUSH1 0x60 DUP2 MSTORE PUSH1 0x20 ADD PUSH1 0x60 DUP2 MSTORE PUSH1 0x20 ADD PUSH0 PUSH20 0xFFFFFFFFFFFFFFFFFFFFFFFFFFFFFFFFFFFFFFFF AND DUP2 MSTORE PUSH1 0x20 ADD PUSH0 PUSH20 0xFFFFFFFFFFFFFFFFFFFFFFFFFFFFFFFFFFFFFFFF AND DUP2 MSTORE PUSH1 0x20 ADD PUSH0 PUSH20 0xFFFFFFFFFFFFFFFFFFFFFFFFFFFFFFFFFFFFFFFF AND DUP2 MSTORE PUSH1 0x20 ADD PUSH0 PUSH20 0xFFFFFFFFFFFFFFFFFFFFFFFFFFFFFFFFFFFFFFFF AND DUP2 MSTORE POP SWAP1 JUMP JUMPDEST PUSH2 0xC51 DUP1 PUSH2 0x2322 DUP4 CODECOPY ADD SWAP1 JUMP JUMPDEST PUSH2 0xFB7 DUP1 PUSH2 0x2F73 DUP4 CODECOPY ADD SWAP1 JUMP JUMPDEST PUSH2 0x759 DUP1 PUSH2 0x3F2A DUP4 CODECOPY ADD SWAP1 JUMP JUMPDEST PUSH0 PUSH1 0x40 MLOAD SWAP1 POP SWAP1 JUMP JUMPDEST PUSH0 PUSH0 REVERT JUMPDEST PUSH0 PUSH0 REVERT JUMPDEST PUSH0 DUP2 SWAP1 POP SWAP2 SWAP1 POP JUMP JUMPDEST PUSH2 0x145D DUP2 PUSH2 0x144B JUMP JUMPDEST DUP2 EQ PUSH2 0x1467 JUMPI PUSH0 PUSH0 REVERT JUMPDEST POP JUMP JUMPDEST PUSH0 DUP2 CALLDATALOAD SWAP1 POP PUSH2 0x1478 DUP2 PUSH2 0x1454 JUMP JUMPDEST SWAP3 SWAP2 POP POP JUMP JUMPDEST PUSH0 PUSH1 0x20 DUP3 DUP5 SUB SLT ISZERO PUSH2 0x1493 JUMPI PUSH2 0x1492 PUSH2 0x1443 JUMP JUMPDEST JUMPDEST PUSH0 PUSH2 0x14A0 DUP5 DUP3 DUP6 ADD PUSH2 0x146A JUMP JUMPDEST SWAP2 POP POP SWAP3 SWAP2 POP POP JUMP JUMPDEST PUSH2 0x14B2 DUP2 PUSH2 0x144B JUMP JUMPDEST DUP3 MSTORE POP POP JUMP JUMPDEST PUSH0 DUP2 MLOAD SWAP1 POP SWAP2 SWAP1 POP JUMP JUMPDEST PUSH0 DUP3 DUP3 MSTORE PUSH1 0x20 DUP3 ADD SWAP1 POP SWAP3 SWAP2 POP POP JUMP JUMPDEST DUP3 DUP2 DUP4 MCOPY PUSH0 DUP4 DUP4 ADD MSTORE POP POP POP JUMP JUMPDEST PUSH0 PUSH1 0x1F NOT PUSH1 0x1F DUP4 ADD AND SWAP1 POP SWAP2 SWAP1 POP JUMP JUMPDEST PUSH0 PUSH2 0x14FA DUP3 PUSH2 0x14B8 JUMP JUMPDEST PUSH2 0x1504 DUP2 DUP6 PUSH2 0x14C2 JUMP JUMPDEST SWAP4 POP PUSH2 0x1514 DUP2 DUP6 PUSH1 0x20 DUP7 ADD PUSH2 0x14D2 JUMP JUMPDEST PUSH2 0x151D DUP2 PUSH2 0x14E0 JUMP JUMPDEST DUP5 ADD SWAP2 POP POP SWAP3 SWAP2 POP POP JUMP JUMPDEST PUSH0 PUSH20 0xFFFFFFFFFFFFFFFFFFFFFFFFFFFFFFFFFFFFFFFF DUP3 AND SWAP1 POP SWAP2 SWAP1 POP JUMP JUMPDEST PUSH0 PUSH2 0x1551 DUP3 PUSH2 0x1528 JUMP JUMPDEST SWAP1 POP SWAP2 SWAP1 POP JUMP JUMPDEST PUSH2 0x1561 DUP2 PUSH2 0x1547 JUMP JUMPDEST DUP3 MSTORE POP POP JUMP JUMPDEST PUSH0 DUP2 SWAP1 POP SWAP2 SWAP1 POP JUMP JUMPDEST PUSH0 PUSH2 0x158A PUSH2 0x1585 PUSH2 0x1580 DUP5 PUSH2 0x1528 JUMP JUMPDEST PUSH2 0x1567 JUMP JUMPDEST PUSH2 0x1528 JUMP JUMPDEST SWAP1 POP SWAP2 SWAP1 POP JUMP JUMPDEST PUSH0 PUSH2 0x159B DUP3 PUSH2 0x1570 JUMP JUMPDEST SWAP1 POP SWAP2 SWAP1 POP JUMP JUMPDEST PUSH0 PUSH2 0x15AC DUP3 PUSH2 0x1591 JUMP JUMPDEST SWAP1 POP SWAP2 SWAP1 POP JUMP JUMPDEST PUSH2 0x15BC DUP2 PUSH2 0x15A2 JUMP JUMPDEST DUP3 MSTORE POP POP JUMP JUMPDEST PUSH0 PUSH2 0x15CC DUP3 PUSH2 0x1591 JUMP JUMPDEST SWAP1 POP SWAP2 SWAP1 POP JUMP JUMPDEST PUSH2 0x15DC DUP2 PUSH2 0x15C2 JUMP JUMPDEST DUP3 MSTORE POP POP JUMP JUMPDEST PUSH0 PUSH2 0x15EC DUP3 PUSH2 0x1591 JUMP JUMPDEST SWAP1 POP SWAP2 SWAP1 POP JUMP JUMPDEST PUSH2 0x15FC DUP2 PUSH2 0x15E2 JUMP JUMPDEST DUP3 MSTORE POP POP JUMP JUMPDEST PUSH0 PUSH2 0x120 DUP4 ADD PUSH0 DUP4 ADD MLOAD PUSH2 0x1618 PUSH0 DUP7 ADD DUP3 PUSH2 0x14A9 JUMP JUMPDEST POP PUSH1 0x20 DUP4 ADD MLOAD DUP5 DUP3 SUB PUSH1 0x20 DUP7 ADD MSTORE PUSH2 0x1630 DUP3 DUP3 PUSH2 0x14F0 JUMP JUMPDEST SWAP2 POP POP PUSH1 0x40 DUP4 ADD MLOAD DUP5 DUP3 SUB PUSH1 0x40 DUP7 ADD MSTORE PUSH2 0x164A DUP3 DUP3 PUSH2 0x14F0 JUMP JUMPDEST SWAP2 POP POP PUSH1 0x60 DUP4 ADD MLOAD DUP5 DUP3 SUB PUSH1 0x60 DUP7 ADD MSTORE PUSH2 0x1664 DUP3 DUP3 PUSH2 0x14F0 JUMP JUMPDEST SWAP2 POP POP PUSH1 0x80 DUP4 ADD MLOAD DUP5 DUP3 SUB PUSH1 0x80 DUP7 ADD MSTORE PUSH2 0x167E DUP3 DUP3 PUSH2 0x14F0 JUMP JUMPDEST SWAP2 POP POP PUSH1 0xA0 DUP4 ADD MLOAD PUSH2 0x1693 PUSH1 0xA0 DUP7 ADD DUP3 PUSH2 0x1558 JUMP JUMPDEST POP PUSH1 0xC0 DUP4 ADD MLOAD PUSH2 0x16A6 PUSH1 0xC0 DUP7 ADD DUP3 PUSH2 0x15B3 JUMP JUMPDEST POP PUSH1 0xE0 DUP4 ADD MLOAD PUSH2 0x16B9 PUSH1 0xE0 DUP7 ADD DUP3 PUSH2 0x15D3 JUMP JUMPDEST POP PUSH2 0x100 DUP4 ADD MLOAD PUSH2 0x16CE PUSH2 0x100 DUP7 ADD DUP3 PUSH2 0x15F3 JUMP JUMPDEST POP DUP1 SWAP2 POP POP SWAP3 SWAP2 POP POP JUMP JUMPDEST PUSH0 PUSH1 0x20 DUP3 ADD SWAP1 POP DUP2 DUP2 SUB PUSH0 DUP4 ADD MSTORE PUSH2 0x16F1 DUP2 DUP5 PUSH2 0x1602 JUMP JUMPDEST SWAP1 POP SWAP3 SWAP2 POP POP JUMP JUMPDEST PUSH0 PUSH0 REVERT JUMPDEST PUSH0 PUSH0 REVERT JUMPDEST PUSH32 0x4E487B7100000000000000000000000000000000000000000000000000000000 PUSH0 MSTORE PUSH1 0x41 PUSH1 0x4 MSTORE PUSH1 0x24 PUSH0 REVERT JUMPDEST PUSH2 0x1737 DUP3 PUSH2 0x14E0 JUMP JUMPDEST DUP2 ADD DUP2 DUP2 LT PUSH8 0xFFFFFFFFFFFFFFFF DUP3 GT OR ISZERO PUSH2 0x1756 JUMPI PUSH2 0x1755 PUSH2 0x1701 JUMP JUMPDEST JUMPDEST DUP1 PUSH1 0x40 MSTORE POP POP POP JUMP JUMPDEST PUSH0 PUSH2 0x1768 PUSH2 0x143A JUMP JUMPDEST SWAP1 POP PUSH2 0x1774 DUP3 DUP3 PUSH2 0x172E JUMP JUMPDEST SWAP2 SWAP1 POP JUMP JUMPDEST PUSH0 PUSH8 0xFFFFFFFFFFFFFFFF DUP3 GT ISZERO PUSH2 0x1793 JUMPI PUSH2 0x1792 PUSH2 0x1701 JUMP JUMPDEST JUMPDEST PUSH2 0x179C DUP3 PUSH2 0x14E0 JUMP JUMPDEST SWAP1 POP PUSH1 0x20 DUP2 ADD SWAP1 POP SWAP2 SWAP1 POP JUMP JUMPDEST DUP3 DUP2 DUP4 CALLDATACOPY PUSH0 DUP4 DUP4 ADD MSTORE POP POP POP JUMP JUMPDEST PUSH0 PUSH2 0x17C9 PUSH2 0x17C4 DUP5 PUSH2 0x1779 JUMP JUMPDEST PUSH2 0x175F JUMP JUMPDEST SWAP1 POP DUP3 DUP2 MSTORE PUSH1 0x20 DUP2 ADD DUP5 DUP5 DUP5 ADD GT ISZERO PUSH2 0x17E5 JUMPI PUSH2 0x17E4 PUSH2 0x16FD JUMP JUMPDEST JUMPDEST PUSH2 0x17F0 DUP5 DUP3 DUP6 PUSH2 0x17A9 JUMP JUMPDEST POP SWAP4 SWAP3 POP POP POP JUMP JUMPDEST PUSH0 DUP3 PUSH1 0x1F DUP4 ADD SLT PUSH2 0x180C JUMPI PUSH2 0x180B PUSH2 0x16F9 JUMP JUMPDEST JUMPDEST DUP2 CALLDATALOAD PUSH2 0x181C DUP5 DUP3 PUSH1 0x20 DUP7 ADD PUSH2 0x17B7 JUMP JUMPDEST SWAP2 POP POP SWAP3 SWAP2 POP POP JUMP JUMPDEST PUSH0 PUSH0 PUSH0 PUSH0 PUSH1 0x80 DUP6 DUP8 SUB SLT ISZERO PUSH2 0x183D JUMPI PUSH2 0x183C PUSH2 0x1443 JUMP JUMPDEST JUMPDEST PUSH0 DUP6 ADD CALLDATALOAD PUSH8 0xFFFFFFFFFFFFFFFF DUP2 GT ISZERO PUSH2 0x185A JUMPI PUSH2 0x1859 PUSH2 0x1447 JUMP JUMPDEST JUMPDEST PUSH2 0x1866 DUP8 DUP3 DUP9 ADD PUSH2 0x17F8 JUMP JUMPDEST SWAP5 POP POP PUSH1 0x20 DUP6 ADD CALLDATALOAD PUSH8 0xFFFFFFFFFFFFFFFF DUP2 GT ISZERO PUSH2 0x1887 JUMPI PUSH2 0x1886 PUSH2 0x1447 JUMP JUMPDEST JUMPDEST PUSH2 0x1893 DUP8 DUP3 DUP9 ADD PUSH2 0x17F8 JUMP JUMPDEST SWAP4 POP POP PUSH1 0x40 DUP6 ADD CALLDATALOAD PUSH8 0xFFFFFFFFFFFFFFFF DUP2 GT ISZERO PUSH2 0x18B4 JUMPI PUSH2 0x18B3 PUSH2 0x1447 JUMP JUMPDEST JUMPDEST PUSH2 0x18C0 DUP8 DUP3 DUP9 ADD PUSH2 0x17F8 JUMP JUMPDEST SWAP3 POP POP PUSH1 0x60 DUP6 ADD CALLDATALOAD PUSH8 0xFFFFFFFFFFFFFFFF DUP2 GT ISZERO PUSH2 0x18E1 JUMPI PUSH2 0x18E0 PUSH2 0x1447 JUMP JUMPDEST JUMPDEST PUSH2 0x18ED DUP8 DUP3 DUP9 ADD PUSH2 0x17F8 JUMP JUMPDEST SWAP2 POP POP SWAP3 SWAP6 SWAP2 SWAP5 POP SWAP3 POP JUMP JUMPDEST PUSH0 PUSH0 PUSH0 PUSH0 PUSH0 PUSH1 0xA0 DUP7 DUP9 SUB SLT ISZERO PUSH2 0x1912 JUMPI PUSH2 0x1911 PUSH2 0x1443 JUMP JUMPDEST JUMPDEST PUSH0 PUSH2 0x191F DUP9 DUP3 DUP10 ADD PUSH2 0x146A JUMP JUMPDEST SWAP6 POP POP PUSH1 0x20 DUP7 ADD CALLDATALOAD PUSH8 0xFFFFFFFFFFFFFFFF DUP2 GT ISZERO PUSH2 0x1940 JUMPI PUSH2 0x193F PUSH2 0x1447 JUMP JUMPDEST JUMPDEST PUSH2 0x194C DUP9 DUP3 DUP10 ADD PUSH2 0x17F8 JUMP JUMPDEST SWAP5 POP POP PUSH1 0x40 DUP7 ADD CALLDATALOAD PUSH8 0xFFFFFFFFFFFFFFFF DUP2 GT ISZERO PUSH2 0x196D JUMPI PUSH2 0x196C PUSH2 0x1447 JUMP JUMPDEST JUMPDEST PUSH2 0x1979 DUP9 DUP3 DUP10 ADD PUSH2 0x17F8 JUMP JUMPDEST SWAP4 POP POP PUSH1 0x60 PUSH2 0x198A DUP9 DUP3 DUP10 ADD PUSH2 0x146A JUMP JUMPDEST SWAP3 POP POP PUSH1 0x80 DUP7 ADD CALLDATALOAD PUSH8 0xFFFFFFFFFFFFFFFF DUP2 GT ISZERO PUSH2 0x19AB JUMPI PUSH2 0x19AA PUSH2 0x1447 JUMP JUMPDEST JUMPDEST PUSH2 0x19B7 DUP9 DUP3 DUP10 ADD PUSH2 0x17F8 JUMP JUMPDEST SWAP2 POP POP SWAP3 SWAP6 POP SWAP3 SWAP6 SWAP1 SWAP4 POP JUMP JUMPDEST PUSH2 0x19CD DUP2 PUSH2 0x144B JUMP JUMPDEST DUP3 MSTORE POP POP JUMP JUMPDEST PUSH0 DUP3 DUP3 MSTORE PUSH1 0x20 DUP3 ADD SWAP1 POP SWAP3 SWAP2 POP POP JUMP JUMPDEST PUSH0 PUSH2 0x19ED DUP3 PUSH2 0x14B8 JUMP JUMPDEST PUSH2 0x19F7 DUP2 DUP6 PUSH2 0x19D3 JUMP JUMPDEST SWAP4 POP PUSH2 0x1A07 DUP2 DUP6 PUSH1 0x20 DUP7 ADD PUSH2 0x14D2 JUMP JUMPDEST PUSH2 0x1A10 DUP2 PUSH2 0x14E0 JUMP JUMPDEST DUP5 ADD SWAP2 POP POP SWAP3 SWAP2 POP POP JUMP JUMPDEST PUSH2 0x1A24 DUP2 PUSH2 0x1547 JUMP JUMPDEST DUP3 MSTORE POP POP JUMP JUMPDEST PUSH2 0x1A33 DUP2 PUSH2 0x15A2 JUMP JUMPDEST DUP3 MSTORE POP POP JUMP JUMPDEST PUSH2 0x1A42 DUP2 PUSH2 0x15C2 JUMP JUMPDEST DUP3 MSTORE POP POP JUMP JUMPDEST PUSH2 0x1A51 DUP2 PUSH2 0x15E2 JUMP JUMPDEST DUP3 MSTORE POP POP JUMP JUMPDEST PUSH0 PUSH2 0x120 DUP3 ADD SWAP1 POP PUSH2 0x1A6B PUSH0 DUP4 ADD DUP13 PUSH2 0x19C4 JUMP JUMPDEST DUP2 DUP2 SUB PUSH1 0x20 DUP4 ADD MSTORE PUSH2 0x1A7D DUP2 DUP12 PUSH2 0x19E3 JUMP JUMPDEST SWAP1 POP DUP2 DUP2 SUB PUSH1 0x40 DUP4 ADD MSTORE PUSH2 0x1A91 DUP2 DUP11 PUSH2 0x19E3 JUMP JUMPDEST SWAP1 POP DUP2 DUP2 SUB PUSH1 0x60 DUP4 ADD MSTORE PUSH2 0x1AA5 DUP2 DUP10 PUSH2 0x19E3 JUMP JUMPDEST SWAP1 POP DUP2 DUP2 SUB PUSH1 0x80 DUP4 ADD MSTORE PUSH2 0x1AB9 DUP2 DUP9 PUSH2 0x19E3 JUMP JUMPDEST SWAP1 POP PUSH2 0x1AC8 PUSH1 0xA0 DUP4 ADD DUP8 PUSH2 0x1A1B JUMP JUMPDEST PUSH2 0x1AD5 PUSH1 0xC0 DUP4 ADD DUP7 PUSH2 0x1A2A JUMP JUMPDEST PUSH2 0x1AE2 PUSH1 0xE0 DUP4 ADD DUP6 PUSH2 0x1A39 JUMP JUMPDEST PUSH2 0x1AF0 PUSH2 0x100 DUP4 ADD DUP5 PUSH2 0x1A48 JUMP JUMPDEST SWAP11 SWAP10 POP POP POP POP POP POP POP POP POP POP JUMP JUMPDEST PUSH0 DUP2 MLOAD SWAP1 POP SWAP2 SWAP1 POP JUMP JUMPDEST PUSH0 DUP3 DUP3 MSTORE PUSH1 0x20 DUP3 ADD SWAP1 POP SWAP3 SWAP2 POP POP JUMP JUMPDEST PUSH0 DUP2 SWAP1 POP PUSH1 0x20 DUP3 ADD SWAP1 POP SWAP2 SWAP1 POP JUMP JUMPDEST PUSH0 PUSH2 0x120 DUP4 ADD PUSH0 DUP4 ADD MLOAD PUSH2 0x1B3D PUSH0 DUP7 ADD DUP3 PUSH2 0x14A9 JUMP JUMPDEST POP PUSH1 0x20 DUP4 ADD MLOAD DUP5 DUP3 SUB PUSH1 0x20 DUP7 ADD MSTORE PUSH2 0x1B55 DUP3 DUP3 PUSH2 0x14F0 JUMP JUMPDEST SWAP2 POP POP PUSH1 0x40 DUP4 ADD MLOAD DUP5 DUP3 SUB PUSH1 0x40 DUP7 ADD MSTORE PUSH2 0x1B6F DUP3 DUP3 PUSH2 0x14F0 JUMP JUMPDEST SWAP2 POP POP PUSH1 0x60 DUP4 ADD MLOAD DUP5 DUP3 SUB PUSH1 0x60 DUP7 ADD MSTORE PUSH2 0x1B89 DUP3 DUP3 PUSH2 0x14F0 JUMP JUMPDEST SWAP2 POP POP PUSH1 0x80 DUP4 ADD MLOAD DUP5 DUP3 SUB PUSH1 0x80 DUP7 ADD MSTORE PUSH2 0x1BA3 DUP3 DUP3 PUSH2 0x14F0 JUMP JUMPDEST SWAP2 POP POP PUSH1 0xA0 DUP4 ADD MLOAD PUSH2 0x1BB8 PUSH1 0xA0 DUP7 ADD DUP3 PUSH2 0x1558 JUMP JUMPDEST POP PUSH1 0xC0 DUP4 ADD MLOAD PUSH2 0x1BCB PUSH1 0xC0 DUP7 ADD DUP3 PUSH2 0x15B3 JUMP JUMPDEST POP PUSH1 0xE0 DUP4 ADD MLOAD PUSH2 0x1BDE PUSH1 0xE0 DUP7 ADD DUP3 PUSH2 0x15D3 JUMP JUMPDEST POP PUSH2 0x100 DUP4 ADD MLOAD PUSH2 0x1BF3 PUSH2 0x100 DUP7 ADD DUP3 PUSH2 0x15F3 JUMP JUMPDEST POP DUP1 SWAP2 POP POP SWAP3 SWAP2 POP POP JUMP JUMPDEST PUSH0 PUSH2 0x1C09 DUP4 DUP4 PUSH2 0x1B27 JUMP JUMPDEST SWAP1 POP SWAP3 SWAP2 POP POP JUMP JUMPDEST PUSH0 PUSH1 0x20 DUP3 ADD SWAP1 POP SWAP2 SWAP1 POP JUMP JUMPDEST PUSH0 PUSH2 0x1C27 DUP3 PUSH2 0x1AFE JUMP JUMPDEST PUSH2 0x1C31 DUP2 DUP6 PUSH2 0x1B08 JUMP JUMPDEST SWAP4 POP DUP4 PUSH1 0x20 DUP3 MUL DUP6 ADD PUSH2 0x1C43 DUP6 PUSH2 0x1B18 JUMP JUMPDEST DUP1 PUSH0 JUMPDEST DUP6 DUP2 LT ISZERO PUSH2 0x1C7E JUMPI DUP5 DUP5 SUB DUP10 MSTORE DUP2 MLOAD PUSH2 0x1C5F DUP6 DUP3 PUSH2 0x1BFE JUMP JUMPDEST SWAP5 POP PUSH2 0x1C6A DUP4 PUSH2 0x1C11 JUMP JUMPDEST SWAP3 POP PUSH1 0x20 DUP11 ADD SWAP10 POP POP PUSH1 0x1 DUP2 ADD SWAP1 POP PUSH2 0x1C46 JUMP JUMPDEST POP DUP3 SWAP8 POP DUP8 SWAP6 POP POP POP POP POP POP SWAP3 SWAP2 POP POP JUMP JUMPDEST PUSH0 PUSH1 0x20 DUP3 ADD SWAP1 POP DUP2 DUP2 SUB PUSH0 DUP4 ADD MSTORE PUSH2 0x1CA8 DUP2 DUP5 PUSH2 0x1C1D JUMP JUMPDEST SWAP1 POP SWAP3 SWAP2 POP POP JUMP JUMPDEST PUSH0 PUSH0 PUSH0 PUSH1 0x60 DUP5 DUP7 SUB SLT ISZERO PUSH2 0x1CC7 JUMPI PUSH2 0x1CC6 PUSH2 0x1443 JUMP JUMPDEST JUMPDEST PUSH0 PUSH2 0x1CD4 DUP7 DUP3 DUP8 ADD PUSH2 0x146A JUMP JUMPDEST SWAP4 POP POP PUSH1 0x20 DUP5 ADD CALLDATALOAD PUSH8 0xFFFFFFFFFFFFFFFF DUP2 GT ISZERO PUSH2 0x1CF5 JUMPI PUSH2 0x1CF4 PUSH2 0x1447 JUMP JUMPDEST JUMPDEST PUSH2 0x1D01 DUP7 DUP3 DUP8 ADD PUSH2 0x17F8 JUMP JUMPDEST SWAP3 POP POP PUSH1 0x40 PUSH2 0x1D12 DUP7 DUP3 DUP8 ADD PUSH2 0x146A JUMP JUMPDEST SWAP2 POP POP SWAP3 POP SWAP3 POP SWAP3 JUMP JUMPDEST PUSH32 0x4E487B7100000000000000000000000000000000000000000000000000000000 PUSH0 MSTORE PUSH1 0x32 PUSH1 0x4 MSTORE PUSH1 0x24 PUSH0 REVERT JUMPDEST PUSH32 0x4E487B7100000000000000000000000000000000000000000000000000000000 PUSH0 MSTORE PUSH1 0x22 PUSH1 0x4 MSTORE PUSH1 0x24 PUSH0 REVERT JUMPDEST PUSH0 PUSH1 0x2 DUP3 DIV SWAP1 POP PUSH1 0x1 DUP3 AND DUP1 PUSH2 0x1D8D JUMPI PUSH1 0x7F DUP3 AND SWAP2 POP JUMPDEST PUSH1 0x20 DUP3 LT DUP2 SUB PUSH2 0x1DA0 JUMPI PUSH2 0x1D9F PUSH2 0x1D49 JUMP JUMPDEST JUMPDEST POP SWAP2 SWAP1 POP JUMP JUMPDEST PUSH32 0x5363686F6F6C206E6F7420666F756E6400000000000000000000000000000000 PUSH0 DUP3 ADD MSTORE POP JUMP JUMPDEST PUSH0 PUSH2 0x1DDA PUSH1 0x10 DUP4 PUSH2 0x19D3 JUMP JUMPDEST SWAP2 POP PUSH2 0x1DE5 DUP3 PUSH2 0x1DA6 JUMP JUMPDEST PUSH1 0x20 DUP3 ADD SWAP1 POP SWAP2 SWAP1 POP JUMP JUMPDEST PUSH0 PUSH1 0x20 DUP3 ADD SWAP1 POP DUP2 DUP2 SUB PUSH0 DUP4 ADD MSTORE PUSH2 0x1E07 DUP2 PUSH2 0x1DCE JUMP JUMPDEST SWAP1 POP SWAP2 SWAP1 POP JUMP JUMPDEST PUSH32 0x596F7520617265206E6F7420746865206F776E6572206F662074686973207363 PUSH0 DUP3 ADD MSTORE PUSH32 0x686F6F6C00000000000000000000000000000000000000000000000000000000 PUSH1 0x20 DUP3 ADD MSTORE POP JUMP JUMPDEST PUSH0 PUSH2 0x1E68 PUSH1 0x24 DUP4 PUSH2 0x19D3 JUMP JUMPDEST SWAP2 POP PUSH2 0x1E73 DUP3 PUSH2 0x1E0E JUMP JUMPDEST PUSH1 0x40 DUP3 ADD SWAP1 POP SWAP2 SWAP1 POP JUMP JUMPDEST PUSH0 PUSH1 0x20 DUP3 ADD SWAP1 POP DUP2 DUP2 SUB PUSH0 DUP4 ADD MSTORE PUSH2 0x1E95 DUP2 PUSH2 0x1E5C JUMP JUMPDEST SWAP1 POP SWAP2 SWAP1 POP JUMP JUMPDEST PUSH0 DUP2 SWAP1 POP SWAP3 SWAP2 POP POP JUMP JUMPDEST PUSH0 PUSH2 0x1EB0 DUP3 PUSH2 0x14B8 JUMP JUMPDEST PUSH2 0x1EBA DUP2 DUP6 PUSH2 0x1E9C JUMP JUMPDEST SWAP4 POP PUSH2 0x1ECA DUP2 DUP6 PUSH1 0x20 DUP7 ADD PUSH2 0x14D2 JUMP JUMPDEST DUP1 DUP5 ADD SWAP2 POP POP SWAP3 SWAP2 POP POP JUMP JUMPDEST PUSH0 PUSH2 0x1EE1 DUP3 DUP5 PUSH2 0x1EA6 JUMP JUMPDEST SWAP2 POP DUP2 SWAP1 POP SWAP3 SWAP2 POP POP JUMP JUMPDEST PUSH32 0x5363686F6F6C206E616D6520616C726561647920657869737473000000000000 PUSH0 DUP3 ADD MSTORE POP JUMP JUMPDEST PUSH0 PUSH2 0x1F20 PUSH1 0x1A DUP4 PUSH2 0x19D3 JUMP JUMPDEST SWAP2 POP PUSH2 0x1F2B DUP3 PUSH2 0x1EEC JUMP JUMPDEST PUSH1 0x20 DUP3 ADD SWAP1 POP SWAP2 SWAP1 POP JUMP JUMPDEST PUSH0 PUSH1 0x20 DUP3 ADD SWAP1 POP DUP2 DUP2 SUB PUSH0 DUP4 ADD MSTORE PUSH2 0x1F4D DUP2 PUSH2 0x1F14 JUMP JUMPDEST SWAP1 POP SWAP2 SWAP1 POP JUMP JUMPDEST PUSH32 0x4E487B7100000000000000000000000000000000000000000000000000000000 PUSH0 MSTORE PUSH1 0x11 PUSH1 0x4 MSTORE PUSH1 0x24 PUSH0 REVERT JUMPDEST PUSH0 PUSH2 0x1F8B DUP3 PUSH2 0x144B JUMP JUMPDEST SWAP2 POP PUSH2 0x1F96 DUP4 PUSH2 0x144B JUMP JUMPDEST SWAP3 POP DUP3 DUP3 ADD SWAP1 POP DUP1 DUP3 GT ISZERO PUSH2 0x1FAE JUMPI PUSH2 0x1FAD PUSH2 0x1F54 JUMP JUMPDEST JUMPDEST SWAP3 SWAP2 POP POP JUMP JUMPDEST PUSH0 DUP2 SWAP1 POP DUP2 PUSH0 MSTORE PUSH1 0x20 PUSH0 KECCAK256 SWAP1 POP SWAP2 SWAP1 POP JUMP JUMPDEST PUSH0 PUSH1 0x20 PUSH1 0x1F DUP4 ADD DIV SWAP1 POP SWAP2 SWAP1 POP JUMP JUMPDEST PUSH0 DUP3 DUP3 SHL SWAP1 POP SWAP3 SWAP2 POP POP JUMP JUMPDEST PUSH0 PUSH1 0x8 DUP4 MUL PUSH2 0x2010 PUSH32 0xFFFFFFFFFFFFFFFFFFFFFFFFFFFFFFFFFFFFFFFFFFFFFFFFFFFFFFFFFFFFFFFF DUP3 PUSH2 0x1FD5 JUMP JUMPDEST PUSH2 0x201A DUP7 DUP4 PUSH2 0x1FD5 JUMP JUMPDEST SWAP6 POP DUP1 NOT DUP5 AND SWAP4 POP DUP1 DUP7 AND DUP5 OR SWAP3 POP POP POP SWAP4 SWAP3 POP POP POP JUMP JUMPDEST PUSH0 PUSH2 0x204C PUSH2 0x2047 PUSH2 0x2042 DUP5 PUSH2 0x144B JUMP JUMPDEST PUSH2 0x1567 JUMP JUMPDEST PUSH2 0x144B JUMP JUMPDEST SWAP1 POP SWAP2 SWAP1 POP JUMP JUMPDEST PUSH0 DUP2 SWAP1 POP SWAP2 SWAP1 POP JUMP JUMPDEST PUSH2 0x2065 DUP4 PUSH2 0x2032 JUMP JUMPDEST PUSH2 0x2079 PUSH2 0x2071 DUP3 PUSH2 0x2053 JUMP JUMPDEST DUP5 DUP5 SLOAD PUSH2 0x1FE1 JUMP JUMPDEST DUP3 SSTORE POP POP POP POP JUMP JUMPDEST PUSH0 PUSH0 SWAP1 POP SWAP1 JUMP JUMPDEST PUSH2 0x2090 PUSH2 0x2081 JUMP JUMPDEST PUSH2 0x209B DUP2 DUP5 DUP5 PUSH2 0x205C JUMP JUMPDEST POP POP POP JUMP JUMPDEST JUMPDEST DUP2 DUP2 LT ISZERO PUSH2 0x20BE JUMPI PUSH2 0x20B3 PUSH0 DUP3 PUSH2 0x2088 JUMP JUMPDEST PUSH1 0x1 DUP2 ADD SWAP1 POP PUSH2 0x20A1 JUMP JUMPDEST POP POP JUMP JUMPDEST PUSH1 0x1F DUP3 GT ISZERO PUSH2 0x2103 JUMPI PUSH2 0x20D4 DUP2 PUSH2 0x1FB4 JUMP JUMPDEST PUSH2 0x20DD DUP5 PUSH2 0x1FC6 JUMP JUMPDEST DUP2 ADD PUSH1 0x20 DUP6 LT ISZERO PUSH2 0x20EC JUMPI DUP2 SWAP1 POP JUMPDEST PUSH2 0x2100 PUSH2 0x20F8 DUP6 PUSH2 0x1FC6 JUMP JUMPDEST DUP4 ADD DUP3 PUSH2 0x20A0 JUMP JUMPDEST POP POP JUMPDEST POP POP POP JUMP JUMPDEST PUSH0 DUP3 DUP3 SHR SWAP1 POP SWAP3 SWAP2 POP POP JUMP JUMPDEST PUSH0 PUSH2 0x2123 PUSH0 NOT DUP5 PUSH1 0x8 MUL PUSH2 0x2108 JUMP JUMPDEST NOT DUP1 DUP4 AND SWAP2 POP POP SWAP3 SWAP2 POP POP JUMP JUMPDEST PUSH0 PUSH2 0x213B DUP4 DUP4 PUSH2 0x2114 JUMP JUMPDEST SWAP2 POP DUP3 PUSH1 0x2 MUL DUP3 OR SWAP1 POP SWAP3 SWAP2 POP POP JUMP JUMPDEST PUSH2 0x2154 DUP3 PUSH2 0x14B8 JUMP JUMPDEST PUSH8 0xFFFFFFFFFFFFFFFF DUP2 GT ISZERO PUSH2 0x216D JUMPI PUSH2 0x216C PUSH2 0x1701 JUMP JUMPDEST JUMPDEST PUSH2 0x2177 DUP3 SLOAD PUSH2 0x1D76 JUMP JUMPDEST PUSH2 0x2182 DUP3 DUP3 DUP6 PUSH2 0x20C2 JUMP JUMPDEST PUSH0 PUSH1 0x20 SWAP1 POP PUSH1 0x1F DUP4 GT PUSH1 0x1 DUP2 EQ PUSH2 0x21B3 JUMPI PUSH0 DUP5 ISZERO PUSH2 0x21A1 JUMPI DUP3 DUP8 ADD MLOAD SWAP1 POP JUMPDEST PUSH2 0x21AB DUP6 DUP3 PUSH2 0x2130 JUMP JUMPDEST DUP7 SSTORE POP PUSH2 0x2212 JUMP JUMPDEST PUSH1 0x1F NOT DUP5 AND PUSH2 0x21C1 DUP7 PUSH2 0x1FB4 JUMP JUMPDEST PUSH0 JUMPDEST DUP3 DUP2 LT ISZERO PUSH2 0x21E8 JUMPI DUP5 DUP10 ADD MLOAD DUP3 SSTORE PUSH1 0x1 DUP3 ADD SWAP2 POP PUSH1 0x20 DUP6 ADD SWAP5 POP PUSH1 0x20 DUP2 ADD SWAP1 POP PUSH2 0x21C3 JUMP JUMPDEST DUP7 DUP4 LT ISZERO PUSH2 0x2205 JUMPI DUP5 DUP10 ADD MLOAD PUSH2 0x2201 PUSH1 0x1F DUP10 AND DUP3 PUSH2 0x2114 JUMP JUMPDEST DUP4 SSTORE POP JUMPDEST PUSH1 0x1 PUSH1 0x2 DUP9 MUL ADD DUP9 SSTORE POP POP POP JUMPDEST POP POP POP POP POP POP JUMP JUMPDEST PUSH32 0x4F6E6C79206F776E65722063616E2061646420636F7572736573000000000000 PUSH0 DUP3 ADD MSTORE POP JUMP JUMPDEST PUSH0 PUSH2 0x224E PUSH1 0x1A DUP4 PUSH2 0x19D3 JUMP JUMPDEST SWAP2 POP PUSH2 0x2259 DUP3 PUSH2 0x221A JUMP JUMPDEST PUSH1 0x20 DUP3 ADD SWAP1 POP SWAP2 SWAP1 POP JUMP JUMPDEST PUSH0 PUSH1 0x20 DUP3 ADD SWAP1 POP DUP2 DUP2 SUB PUSH0 DUP4 ADD MSTORE PUSH2 0x227B DUP2 PUSH2 0x2242 JUMP JUMPDEST SWAP1 POP SWAP2 SWAP1 POP JUMP JUMPDEST PUSH0 PUSH1 0x80 DUP3 ADD SWAP1 POP DUP2 DUP2 SUB PUSH0 DUP4 ADD MSTORE PUSH2 0x229A DUP2 DUP8 PUSH2 0x19E3 JUMP JUMPDEST SWAP1 POP DUP2 DUP2 SUB PUSH1 0x20 DUP4 ADD MSTORE PUSH2 0x22AE DUP2 DUP7 PUSH2 0x19E3 JUMP JUMPDEST SWAP1 POP PUSH2 0x22BD PUSH1 0x40 DUP4 ADD DUP6 PUSH2 0x19C4 JUMP JUMPDEST DUP2 DUP2 SUB PUSH1 0x60 DUP4 ADD MSTORE PUSH2 0x22CF DUP2 DUP5 PUSH2 0x19E3 JUMP JUMPDEST SWAP1 POP SWAP6 SWAP5 POP POP POP POP POP JUMP JUMPDEST PUSH0 PUSH2 0x22E4 DUP3 PUSH2 0x144B JUMP JUMPDEST SWAP2 POP PUSH32 0xFFFFFFFFFFFFFFFFFFFFFFFFFFFFFFFFFFFFFFFFFFFFFFFFFFFFFFFFFFFFFFFF DUP3 SUB PUSH2 0x2316 JUMPI PUSH2 0x2315 PUSH2 0x1F54 JUMP JUMPDEST JUMPDEST PUSH1 0x1 DUP3 ADD SWAP1 POP SWAP2 SWAP1 POP JUMP INVALID PUSH1 0x80 PUSH1 0x40 MSTORE CALLVALUE DUP1 ISZERO PUSH1 0xE JUMPI PUSH0 PUSH0 REVERT JUMPDEST POP PUSH2 0xC35 DUP1 PUSH2 0x1C PUSH0 CODECOPY PUSH0 RETURN INVALID PUSH1 0x80 PUSH1 0x40 MSTORE CALLVALUE DUP1 ISZERO PUSH2 0xF JUMPI PUSH0 PUSH0 REVERT JUMPDEST POP PUSH1 0x4 CALLDATASIZE LT PUSH2 0x3F JUMPI PUSH0 CALLDATALOAD PUSH1 0xE0 SHR DUP1 PUSH4 0x904AE8AD EQ PUSH2 0x43 JUMPI DUP1 PUSH4 0x96F979D2 EQ PUSH2 0x5F JUMPI DUP1 PUSH4 0x981D6C33 EQ PUSH2 0x92 JUMPI JUMPDEST PUSH0 PUSH0 REVERT JUMPDEST PUSH2 0x5D PUSH1 0x4 DUP1 CALLDATASIZE SUB DUP2 ADD SWAP1 PUSH2 0x58 SWAP2 SWAP1 PUSH2 0x6F2 JUMP JUMPDEST PUSH2 0xC5 JUMP JUMPDEST STOP JUMPDEST PUSH2 0x79 PUSH1 0x4 DUP1 CALLDATASIZE SUB DUP2 ADD SWAP1 PUSH2 0x74 SWAP2 SWAP1 PUSH2 0x7AA JUMP JUMPDEST PUSH2 0x1D0 JUMP JUMPDEST PUSH1 0x40 MLOAD PUSH2 0x89 SWAP5 SWAP4 SWAP3 SWAP2 SWAP1 PUSH2 0x844 JUMP JUMPDEST PUSH1 0x40 MLOAD DUP1 SWAP2 SUB SWAP1 RETURN JUMPDEST PUSH2 0xAC PUSH1 0x4 DUP1 CALLDATASIZE SUB DUP2 ADD SWAP1 PUSH2 0xA7 SWAP2 SWAP1 PUSH2 0x89C JUMP JUMPDEST PUSH2 0x39C JUMP JUMPDEST PUSH1 0x40 MLOAD PUSH2 0xBC SWAP5 SWAP4 SWAP3 SWAP2 SWAP1 PUSH2 0x844 JUMP JUMPDEST PUSH1 0x40 MLOAD DUP1 SWAP2 SUB SWAP1 RETURN JUMPDEST PUSH0 PUSH1 0x40 MLOAD DUP1 PUSH1 0x80 ADD PUSH1 0x40 MSTORE DUP1 DUP7 DUP2 MSTORE PUSH1 0x20 ADD DUP5 DUP2 MSTORE PUSH1 0x20 ADD DUP6 DUP2 MSTORE PUSH1 0x20 ADD DUP4 DUP2 MSTORE POP SWAP1 POP PUSH0 DUP2 SWAP1 DUP1 PUSH1 0x1 DUP2 SLOAD ADD DUP1 DUP3 SSTORE DUP1 SWAP2 POP POP PUSH1 0x1 SWAP1 SUB SWAP1 PUSH0 MSTORE PUSH1 0x20 PUSH0 KECCAK256 SWAP1 PUSH1 0x4 MUL ADD PUSH0 SWAP1 SWAP2 SWAP1 SWAP2 SWAP1 SWAP2 POP PUSH0 DUP3 ADD MLOAD DUP2 PUSH0 ADD SWAP1 DUP2 PUSH2 0x124 SWAP2 SWAP1 PUSH2 0xAE0 JUMP JUMPDEST POP PUSH1 0x20 DUP3 ADD MLOAD DUP2 PUSH1 0x1 ADD SSTORE PUSH1 0x40 DUP3 ADD MLOAD DUP2 PUSH1 0x2 ADD SWAP1 DUP2 PUSH2 0x144 SWAP2 SWAP1 PUSH2 0xAE0 JUMP JUMPDEST POP PUSH1 0x60 DUP3 ADD MLOAD DUP2 PUSH1 0x3 ADD SWAP1 DUP2 PUSH2 0x15A SWAP2 SWAP1 PUSH2 0xAE0 JUMP JUMPDEST POP POP POP DUP1 PUSH1 0x1 DUP6 PUSH1 0x40 MLOAD PUSH2 0x16E SWAP2 SWAP1 PUSH2 0xBE9 JUMP JUMPDEST SWAP1 DUP2 MSTORE PUSH1 0x20 ADD PUSH1 0x40 MLOAD DUP1 SWAP2 SUB SWAP1 KECCAK256 PUSH0 DUP3 ADD MLOAD DUP2 PUSH0 ADD SWAP1 DUP2 PUSH2 0x18F SWAP2 SWAP1 PUSH2 0xAE0 JUMP JUMPDEST POP PUSH1 0x20 DUP3 ADD MLOAD DUP2 PUSH1 0x1 ADD SSTORE PUSH1 0x40 DUP3 ADD MLOAD DUP2 PUSH1 0x2 ADD SWAP1 DUP2 PUSH2 0x1AF SWAP2 SWAP1 PUSH2 0xAE0 JUMP JUMPDEST POP PUSH1 0x60 DUP3 ADD MLOAD DUP2 PUSH1 0x3 ADD SWAP1 DUP2 PUSH2 0x1C5 SWAP2 SWAP1 PUSH2 0xAE0 JUMP JUMPDEST POP SWAP1 POP POP POP POP POP POP POP JUMP JUMPDEST PUSH0 DUP2 DUP2 SLOAD DUP2 LT PUSH2 0x1DE JUMPI PUSH0 DUP1 REVERT JUMPDEST SWAP1 PUSH0 MSTORE PUSH1 0x20 PUSH0 KECCAK256 SWAP1 PUSH1 0x4 MUL ADD PUSH0 SWAP2 POP SWAP1 POP DUP1 PUSH0 ADD DUP1 SLOAD PUSH2 0x1FD SWAP1 PUSH2 0x910 JUMP JUMPDEST DUP1 PUSH1 0x1F ADD PUSH1 0x20 DUP1 SWAP2 DIV MUL PUSH1 0x20 ADD PUSH1 0x40 MLOAD SWAP1 DUP2 ADD PUSH1 0x40 MSTORE DUP1 SWAP3 SWAP2 SWAP1 DUP2 DUP2 MSTORE PUSH1 0x20 ADD DUP3 DUP1 SLOAD PUSH2 0x229 SWAP1 PUSH2 0x910 JUMP JUMPDEST DUP1 ISZERO PUSH2 0x274 JUMPI DUP1 PUSH1 0x1F LT PUSH2 0x24B JUMPI PUSH2 0x100 DUP1 DUP4 SLOAD DIV MUL DUP4 MSTORE SWAP2 PUSH1 0x20 ADD SWAP2 PUSH2 0x274 JUMP JUMPDEST DUP3 ADD SWAP2 SWAP1 PUSH0 MSTORE PUSH1 0x20 PUSH0 KECCAK256 SWAP1 JUMPDEST DUP2 SLOAD DUP2 MSTORE SWAP1 PUSH1 0x1 ADD SWAP1 PUSH1 0x20 ADD DUP1 DUP4 GT PUSH2 0x257 JUMPI DUP3 SWAP1 SUB PUSH1 0x1F AND DUP3 ADD SWAP2 JUMPDEST POP POP POP POP POP SWAP1 DUP1 PUSH1 0x1 ADD SLOAD SWAP1 DUP1 PUSH1 0x2 ADD DUP1 SLOAD PUSH2 0x28F SWAP1 PUSH2 0x910 JUMP JUMPDEST DUP1 PUSH1 0x1F ADD PUSH1 0x20 DUP1 SWAP2 DIV MUL PUSH1 0x20 ADD PUSH1 0x40 MLOAD SWAP1 DUP2 ADD PUSH1 0x40 MSTORE DUP1 SWAP3 SWAP2 SWAP1 DUP2 DUP2 MSTORE PUSH1 0x20 ADD DUP3 DUP1 SLOAD PUSH2 0x2BB SWAP1 PUSH2 0x910 JUMP JUMPDEST DUP1 ISZERO PUSH2 0x306 JUMPI DUP1 PUSH1 0x1F LT PUSH2 0x2DD JUMPI PUSH2 0x100 DUP1 DUP4 SLOAD DIV MUL DUP4 MSTORE SWAP2 PUSH1 0x20 ADD SWAP2 PUSH2 0x306 JUMP JUMPDEST DUP3 ADD SWAP2 SWAP1 PUSH0 MSTORE PUSH1 0x20 PUSH0 KECCAK256 SWAP1 JUMPDEST DUP2 SLOAD DUP2 MSTORE SWAP1 PUSH1 0x1 ADD SWAP1 PUSH1 0x20 ADD DUP1 DUP4 GT PUSH2 0x2E9 JUMPI DUP3 SWAP1 SUB PUSH1 0x1F AND DUP3 ADD SWAP2 JUMPDEST POP POP POP POP POP SWAP1 DUP1 PUSH1 0x3 ADD DUP1 SLOAD PUSH2 0x31B SWAP1 PUSH2 0x910 JUMP JUMPDEST DUP1 PUSH1 0x1F ADD PUSH1 0x20 DUP1 SWAP2 DIV MUL PUSH1 0x20 ADD PUSH1 0x40 MLOAD SWAP1 DUP2 ADD PUSH1 0x40 MSTORE DUP1 SWAP3 SWAP2 SWAP1 DUP2 DUP2 MSTORE PUSH1 0x20 ADD DUP3 DUP1 SLOAD PUSH2 0x347 SWAP1 PUSH2 0x910 JUMP JUMPDEST DUP1 ISZERO PUSH2 0x392 JUMPI DUP1 PUSH1 0x1F LT PUSH2 0x369 JUMPI PUSH2 0x100 DUP1 DUP4 SLOAD DIV MUL DUP4 MSTORE SWAP2 PUSH1 0x20 ADD SWAP2 PUSH2 0x392 JUMP JUMPDEST DUP3 ADD SWAP2 SWAP1 PUSH0 MSTORE PUSH1 0x20 PUSH0 KECCAK256 SWAP1 JUMPDEST DUP2 SLOAD DUP2 MSTORE SWAP1 PUSH1 0x1 ADD SWAP1 PUSH1 0x20 ADD DUP1 DUP4 GT PUSH2 0x375 JUMPI DUP3 SWAP1 SUB PUSH1 0x1F AND DUP3 ADD SWAP2 JUMPDEST POP POP POP POP POP SWAP1 POP DUP5 JUMP JUMPDEST PUSH1 0x1 DUP2 DUP1 MLOAD PUSH1 0x20 DUP2 ADD DUP3 ADD DUP1 MLOAD DUP5 DUP3 MSTORE PUSH1 0x20 DUP4 ADD PUSH1 0x20 DUP6 ADD KECCAK256 DUP2 DUP4 MSTORE DUP1 SWAP6 POP POP POP POP POP POP PUSH0 SWAP2 POP SWAP1 POP DUP1 PUSH0 ADD DUP1 SLOAD PUSH2 0x3D3 SWAP1 PUSH2 0x910 JUMP JUMPDEST DUP1 PUSH1 0x1F ADD PUSH1 0x20 DUP1 SWAP2 DIV MUL PUSH1 0x20 ADD PUSH1 0x40 MLOAD SWAP1 DUP2 ADD PUSH1 0x40 MSTORE DUP1 SWAP3 SWAP2 SWAP1 DUP2 DUP2 MSTORE PUSH1 0x20 ADD DUP3 DUP1 SLOAD PUSH2 0x3FF SWAP1 PUSH2 0x910 JUMP JUMPDEST DUP1 ISZERO PUSH2 0x44A JUMPI DUP1 PUSH1 0x1F LT PUSH2 0x421 JUMPI PUSH2 0x100 DUP1 DUP4 SLOAD DIV MUL DUP4 MSTORE SWAP2 PUSH1 0x20 ADD SWAP2 PUSH2 0x44A JUMP JUMPDEST DUP3 ADD SWAP2 SWAP1 PUSH0 MSTORE PUSH1 0x20 PUSH0 KECCAK256 SWAP1 JUMPDEST DUP2 SLOAD DUP2 MSTORE SWAP1 PUSH1 0x1 ADD SWAP1 PUSH1 0x20 ADD DUP1 DUP4 GT PUSH2 0x42D JUMPI DUP3 SWAP1 SUB PUSH1 0x1F AND DUP3 ADD SWAP2 JUMPDEST POP POP POP POP POP SWAP1 DUP1 PUSH1 0x1 ADD SLOAD SWAP1 DUP1 PUSH1 0x2 ADD DUP1 SLOAD PUSH2 0x465 SWAP1 PUSH2 0x910 JUMP JUMPDEST DUP1 PUSH1 0x1F ADD PUSH1 0x20 DUP1 SWAP2 DIV MUL PUSH1 0x20 ADD PUSH1 0x40 MLOAD SWAP1 DUP2 ADD PUSH1 0x40 MSTORE DUP1 SWAP3 SWAP2 SWAP1 DUP2 DUP2 MSTORE PUSH1 0x20 ADD DUP3 DUP1 SLOAD PUSH2 0x491 SWAP1 PUSH2 0x910 JUMP JUMPDEST DUP1 ISZERO PUSH2 0x4DC JUMPI DUP1 PUSH1 0x1F LT PUSH2 0x4B3 JUMPI PUSH2 0x100 DUP1 DUP4 SLOAD DIV MUL DUP4 MSTORE SWAP2 PUSH1 0x20 ADD SWAP2 PUSH2 0x4DC JUMP JUMPDEST DUP3 ADD SWAP2 SWAP1 PUSH0 MSTORE PUSH1 0x20 PUSH0 KECCAK256 SWAP1 JUMPDEST DUP2 SLOAD DUP2 MSTORE SWAP1 PUSH1 0x1 ADD SWAP1 PUSH1 0x20 ADD DUP1 DUP4 GT PUSH2 0x4BF JUMPI DUP3 SWAP1 SUB PUSH1 0x1F AND DUP3 ADD SWAP2 JUMPDEST POP POP POP POP POP SWAP1 DUP1 PUSH1 0x3 ADD DUP1 SLOAD PUSH2 0x4F1 SWAP1 PUSH2 0x910 JUMP JUMPDEST DUP1 PUSH1 0x1F ADD PUSH1 0x20 DUP1 SWAP2 DIV MUL PUSH1 0x20 ADD PUSH1 0x40 MLOAD SWAP1 DUP2 ADD PUSH1 0x40 MSTORE DUP1 SWAP3 SWAP2 SWAP1 DUP2 DUP2 MSTORE PUSH1 0x20 ADD DUP3 DUP1 SLOAD PUSH2 0x51D SWAP1 PUSH2 0x910 JUMP JUMPDEST DUP1 ISZERO PUSH2 0x568 JUMPI DUP1 PUSH1 0x1F LT PUSH2 0x53F JUMPI PUSH2 0x100 DUP1 DUP4 SLOAD DIV MUL DUP4 MSTORE SWAP2 PUSH1 0x20 ADD SWAP2 PUSH2 0x568 JUMP JUMPDEST DUP3 ADD SWAP2 SWAP1 PUSH0 MSTORE PUSH1 0x20 PUSH0 KECCAK256 SWAP1 JUMPDEST DUP2 SLOAD DUP2 MSTORE SWAP1 PUSH1 0x1 ADD SWAP1 PUSH1 0x20 ADD DUP1 DUP4 GT PUSH2 0x54B JUMPI DUP3 SWAP1 SUB PUSH1 0x1F AND DUP3 ADD SWAP2 JUMPDEST POP POP POP POP POP SWAP1 POP DUP5 JUMP JUMPDEST PUSH0 PUSH1 0x40 MLOAD SWAP1 POP SWAP1 JUMP JUMPDEST PUSH0 PUSH0 REVERT JUMPDEST PUSH0 PUSH0 REVERT JUMPDEST PUSH0 PUSH0 REVERT JUMPDEST PUSH0 PUSH0 REVERT JUMPDEST PUSH0 PUSH1 0x1F NOT PUSH1 0x1F DUP4 ADD AND SWAP1 POP SWAP2 SWAP1 POP JUMP JUMPDEST PUSH32 0x4E487B7100000000000000000000000000000000000000000000000000000000 PUSH0 MSTORE PUSH1 0x41 PUSH1 0x4 MSTORE PUSH1 0x24 PUSH0 REVERT JUMPDEST PUSH2 0x5D1 DUP3 PUSH2 0x58B JUMP JUMPDEST DUP2 ADD DUP2 DUP2 LT PUSH8 0xFFFFFFFFFFFFFFFF DUP3 GT OR ISZERO PUSH2 0x5F0 JUMPI PUSH2 0x5EF PUSH2 0x59B JUMP JUMPDEST JUMPDEST DUP1 PUSH1 0x40 MSTORE POP POP POP JUMP JUMPDEST PUSH0 PUSH2 0x602 PUSH2 0x572 JUMP JUMPDEST SWAP1 POP PUSH2 0x60E DUP3 DUP3 PUSH2 0x5C8 JUMP JUMPDEST SWAP2 SWAP1 POP JUMP JUMPDEST PUSH0 PUSH8 0xFFFFFFFFFFFFFFFF DUP3 GT ISZERO PUSH2 0x62D JUMPI PUSH2 0x62C PUSH2 0x59B JUMP JUMPDEST JUMPDEST PUSH2 0x636 DUP3 PUSH2 0x58B JUMP JUMPDEST SWAP1 POP PUSH1 0x20 DUP2 ADD SWAP1 POP SWAP2 SWAP1 POP JUMP JUMPDEST DUP3 DUP2 DUP4 CALLDATACOPY PUSH0 DUP4 DUP4 ADD MSTORE POP POP POP JUMP JUMPDEST PUSH0 PUSH2 0x663 PUSH2 0x65E DUP5 PUSH2 0x613 JUMP JUMPDEST PUSH2 0x5F9 JUMP JUMPDEST SWAP1 POP DUP3 DUP2 MSTORE PUSH1 0x20 DUP2 ADD DUP5 DUP5 DUP5 ADD GT ISZERO PUSH2 0x67F JUMPI PUSH2 0x67E PUSH2 0x587 JUMP JUMPDEST JUMPDEST PUSH2 0x68A DUP5 DUP3 DUP6 PUSH2 0x643 JUMP JUMPDEST POP SWAP4 SWAP3 POP POP POP JUMP JUMPDEST PUSH0 DUP3 PUSH1 0x1F DUP4 ADD SLT PUSH2 0x6A6 JUMPI PUSH2 0x6A5 PUSH2 0x583 JUMP JUMPDEST JUMPDEST DUP2 CALLDATALOAD PUSH2 0x6B6 DUP5 DUP3 PUSH1 0x20 DUP7 ADD PUSH2 0x651 JUMP JUMPDEST SWAP2 POP POP SWAP3 SWAP2 POP POP JUMP JUMPDEST PUSH0 DUP2 SWAP1 POP SWAP2 SWAP1 POP JUMP JUMPDEST PUSH2 0x6D1 DUP2 PUSH2 0x6BF JUMP JUMPDEST DUP2 EQ PUSH2 0x6DB JUMPI PUSH0 PUSH0 REVERT JUMPDEST POP JUMP JUMPDEST PUSH0 DUP2 CALLDATALOAD SWAP1 POP PUSH2 0x6EC DUP2 PUSH2 0x6C8 JUMP JUMPDEST SWAP3 SWAP2 POP POP JUMP JUMPDEST PUSH0 PUSH0 PUSH0 PUSH0 PUSH1 0x80 DUP6 DUP8 SUB SLT ISZERO PUSH2 0x70A JUMPI PUSH2 0x709 PUSH2 0x57B JUMP JUMPDEST JUMPDEST PUSH0 DUP6 ADD CALLDATALOAD PUSH8 0xFFFFFFFFFFFFFFFF DUP2 GT ISZERO PUSH2 0x727 JUMPI PUSH2 0x726 PUSH2 0x57F JUMP JUMPDEST JUMPDEST PUSH2 0x733 DUP8 DUP3 DUP9 ADD PUSH2 0x692 JUMP JUMPDEST SWAP5 POP POP PUSH1 0x20 DUP6 ADD CALLDATALOAD PUSH8 0xFFFFFFFFFFFFFFFF DUP2 GT ISZERO PUSH2 0x754 JUMPI PUSH2 0x753 PUSH2 0x57F JUMP JUMPDEST JUMPDEST PUSH2 0x760 DUP8 DUP3 DUP9 ADD PUSH2 0x692 JUMP JUMPDEST SWAP4 POP POP PUSH1 0x40 PUSH2 0x771 DUP8 DUP3 DUP9 ADD PUSH2 0x6DE JUMP JUMPDEST SWAP3 POP POP PUSH1 0x60 DUP6 ADD CALLDATALOAD PUSH8 0xFFFFFFFFFFFFFFFF DUP2 GT ISZERO PUSH2 0x792 JUMPI PUSH2 0x791 PUSH2 0x57F JUMP JUMPDEST JUMPDEST PUSH2 0x79E DUP8 DUP3 DUP9 ADD PUSH2 0x692 JUMP JUMPDEST SWAP2 POP POP SWAP3 SWAP6 SWAP2 SWAP5 POP SWAP3 POP JUMP JUMPDEST PUSH0 PUSH1 0x20 DUP3 DUP5 SUB SLT ISZERO PUSH2 0x7BF JUMPI PUSH2 0x7BE PUSH2 0x57B JUMP JUMPDEST JUMPDEST PUSH0 PUSH2 0x7CC DUP5 DUP3 DUP6 ADD PUSH2 0x6DE JUMP JUMPDEST SWAP2 POP POP SWAP3 SWAP2 POP POP JUMP JUMPDEST PUSH0 DUP2 MLOAD SWAP1 POP SWAP2 SWAP1 POP JUMP JUMPDEST PUSH0 DUP3 DUP3 MSTORE PUSH1 0x20 DUP3 ADD SWAP1 POP SWAP3 SWAP2 POP POP JUMP JUMPDEST DUP3 DUP2 DUP4 MCOPY PUSH0 DUP4 DUP4 ADD MSTORE POP POP POP JUMP JUMPDEST PUSH0 PUSH2 0x807 DUP3 PUSH2 0x7D5 JUMP JUMPDEST PUSH2 0x811 DUP2 DUP6 PUSH2 0x7DF JUMP JUMPDEST SWAP4 POP PUSH2 0x821 DUP2 DUP6 PUSH1 0x20 DUP7 ADD PUSH2 0x7EF JUMP JUMPDEST PUSH2 0x82A DUP2 PUSH2 0x58B JUMP JUMPDEST DUP5 ADD SWAP2 POP POP SWAP3 SWAP2 POP POP JUMP JUMPDEST PUSH2 0x83E DUP2 PUSH2 0x6BF JUMP JUMPDEST DUP3 MSTORE POP POP JUMP JUMPDEST PUSH0 PUSH1 0x80 DUP3 ADD SWAP1 POP DUP2 DUP2 SUB PUSH0 DUP4 ADD MSTORE PUSH2 0x85C DUP2 DUP8 PUSH2 0x7FD JUMP JUMPDEST SWAP1 POP PUSH2 0x86B PUSH1 0x20 DUP4 ADD DUP7 PUSH2 0x835 JUMP JUMPDEST DUP2 DUP2 SUB PUSH1 0x40 DUP4 ADD MSTORE PUSH2 0x87D DUP2 DUP6 PUSH2 0x7FD JUMP JUMPDEST SWAP1 POP DUP2 DUP2 SUB PUSH1 0x60 DUP4 ADD MSTORE PUSH2 0x891 DUP2 DUP5 PUSH2 0x7FD JUMP JUMPDEST SWAP1 POP SWAP6 SWAP5 POP POP POP POP POP JUMP JUMPDEST PUSH0 PUSH1 0x20 DUP3 DUP5 SUB SLT ISZERO PUSH2 0x8B1 JUMPI PUSH2 0x8B0 PUSH2 0x57B JUMP JUMPDEST JUMPDEST PUSH0 DUP3 ADD CALLDATALOAD PUSH8 0xFFFFFFFFFFFFFFFF DUP2 GT ISZERO PUSH2 0x8CE JUMPI PUSH2 0x8CD PUSH2 0x57F JUMP JUMPDEST JUMPDEST PUSH2 0x8DA DUP5 DUP3 DUP6 ADD PUSH2 0x692 JUMP JUMPDEST SWAP2 POP POP SWAP3 SWAP2 POP POP JUMP JUMPDEST PUSH32 0x4E487B7100000000000000000000000000000000000000000000000000000000 PUSH0 MSTORE PUSH1 0x22 PUSH1 0x4 MSTORE PUSH1 0x24 PUSH0 REVERT JUMPDEST PUSH0 PUSH1 0x2 DUP3 DIV SWAP1 POP PUSH1 0x1 DUP3 AND DUP1 PUSH2 0x927 JUMPI PUSH1 0x7F DUP3 AND SWAP2 POP JUMPDEST PUSH1 0x20 DUP3 LT DUP2 SUB PUSH2 0x93A JUMPI PUSH2 0x939 PUSH2 0x8E3 JUMP JUMPDEST JUMPDEST POP SWAP2 SWAP1 POP JUMP JUMPDEST PUSH0 DUP2 SWAP1 POP DUP2 PUSH0 MSTORE PUSH1 0x20 PUSH0 KECCAK256 SWAP1 POP SWAP2 SWAP1 POP JUMP JUMPDEST PUSH0 PUSH1 0x20 PUSH1 0x1F DUP4 ADD DIV SWAP1 POP SWAP2 SWAP1 POP JUMP JUMPDEST PUSH0 DUP3 DUP3 SHL SWAP1 POP SWAP3 SWAP2 POP POP JUMP JUMPDEST PUSH0 PUSH1 0x8 DUP4 MUL PUSH2 0x99C PUSH32 0xFFFFFFFFFFFFFFFFFFFFFFFFFFFFFFFFFFFFFFFFFFFFFFFFFFFFFFFFFFFFFFFF DUP3 PUSH2 0x961 JUMP JUMPDEST PUSH2 0x9A6 DUP7 DUP4 PUSH2 0x961 JUMP JUMPDEST SWAP6 POP DUP1 NOT DUP5 AND SWAP4 POP DUP1 DUP7 AND DUP5 OR SWAP3 POP POP POP SWAP4 SWAP3 POP POP POP JUMP JUMPDEST PUSH0 DUP2 SWAP1 POP SWAP2 SWAP1 POP JUMP JUMPDEST PUSH0 PUSH2 0x9E1 PUSH2 0x9DC PUSH2 0x9D7 DUP5 PUSH2 0x6BF JUMP JUMPDEST PUSH2 0x9BE JUMP JUMPDEST PUSH2 0x6BF JUMP JUMPDEST SWAP1 POP SWAP2 SWAP1 POP JUMP JUMPDEST PUSH0 DUP2 SWAP1 POP SWAP2 SWAP1 POP JUMP JUMPDEST PUSH2 0x9FA DUP4 PUSH2 0x9C7 JUMP JUMPDEST PUSH2 0xA0E PUSH2 0xA06 DUP3 PUSH2 0x9E8 JUMP JUMPDEST DUP5 DUP5 SLOAD PUSH2 0x96D JUMP JUMPDEST DUP3 SSTORE POP POP POP POP JUMP JUMPDEST PUSH0 PUSH0 SWAP1 POP SWAP1 JUMP JUMPDEST PUSH2 0xA25 PUSH2 0xA16 JUMP JUMPDEST PUSH2 0xA30 DUP2 DUP5 DUP5 PUSH2 0x9F1 JUMP JUMPDEST POP POP POP JUMP JUMPDEST JUMPDEST DUP2 DUP2 LT ISZERO PUSH2 0xA53 JUMPI PUSH2 0xA48 PUSH0 DUP3 PUSH2 0xA1D JUMP JUMPDEST PUSH1 0x1 DUP2 ADD SWAP1 POP PUSH2 0xA36 JUMP JUMPDEST POP POP JUMP JUMPDEST PUSH1 0x1F DUP3 GT ISZERO PUSH2 0xA98 JUMPI PUSH2 0xA69 DUP2 PUSH2 0x940 JUMP JUMPDEST PUSH2 0xA72 DUP5 PUSH2 0x952 JUMP JUMPDEST DUP2 ADD PUSH1 0x20 DUP6 LT ISZERO PUSH2 0xA81 JUMPI DUP2 SWAP1 POP JUMPDEST PUSH2 0xA95 PUSH2 0xA8D DUP6 PUSH2 0x952 JUMP JUMPDEST DUP4 ADD DUP3 PUSH2 0xA35 JUMP JUMPDEST POP POP JUMPDEST POP POP POP JUMP JUMPDEST PUSH0 DUP3 DUP3 SHR SWAP1 POP SWAP3 SWAP2 POP POP JUMP JUMPDEST PUSH0 PUSH2 0xAB8 PUSH0 NOT DUP5 PUSH1 0x8 MUL PUSH2 0xA9D JUMP JUMPDEST NOT DUP1 DUP4 AND SWAP2 POP POP SWAP3 SWAP2 POP POP JUMP JUMPDEST PUSH0 PUSH2 0xAD0 DUP4 DUP4 PUSH2 0xAA9 JUMP JUMPDEST SWAP2 POP DUP3 PUSH1 0x2 MUL DUP3 OR SWAP1 POP SWAP3 SWAP2 POP POP JUMP JUMPDEST PUSH2 0xAE9 DUP3 PUSH2 0x7D5 JUMP JUMPDEST PUSH8 0xFFFFFFFFFFFFFFFF DUP2 GT ISZERO PUSH2 0xB02 JUMPI PUSH2 0xB01 PUSH2 0x59B JUMP JUMPDEST JUMPDEST PUSH2 0xB0C DUP3 SLOAD PUSH2 0x910 JUMP JUMPDEST PUSH2 0xB17 DUP3 DUP3 DUP6 PUSH2 0xA57 JUMP JUMPDEST PUSH0 PUSH1 0x20 SWAP1 POP PUSH1 0x1F DUP4 GT PUSH1 0x1 DUP2 EQ PUSH2 0xB48 JUMPI PUSH0 DUP5 ISZERO PUSH2 0xB36 JUMPI DUP3 DUP8 ADD MLOAD SWAP1 POP JUMPDEST PUSH2 0xB40 DUP6 DUP3 PUSH2 0xAC5 JUMP JUMPDEST DUP7 SSTORE POP PUSH2 0xBA7 JUMP JUMPDEST PUSH1 0x1F NOT DUP5 AND PUSH2 0xB56 DUP7 PUSH2 0x940 JUMP JUMPDEST PUSH0 JUMPDEST DUP3 DUP2 LT ISZERO PUSH2 0xB7D JUMPI DUP5 DUP10 ADD MLOAD DUP3 SSTORE PUSH1 0x1 DUP3 ADD SWAP2 POP PUSH1 0x20 DUP6 ADD SWAP5 POP PUSH1 0x20 DUP2 ADD SWAP1 POP PUSH2 0xB58 JUMP JUMPDEST DUP7 DUP4 LT ISZERO PUSH2 0xB9A JUMPI DUP5 DUP10 ADD MLOAD PUSH2 0xB96 PUSH1 0x1F DUP10 AND DUP3 PUSH2 0xAA9 JUMP JUMPDEST DUP4 SSTORE POP JUMPDEST PUSH1 0x1 PUSH1 0x2 DUP9 MUL ADD DUP9 SSTORE POP POP POP JUMPDEST POP POP POP POP POP POP JUMP JUMPDEST PUSH0 DUP2 SWAP1 POP SWAP3 SWAP2 POP POP JUMP JUMPDEST PUSH0 PUSH2 0xBC3 DUP3 PUSH2 0x7D5 JUMP JUMPDEST PUSH2 0xBCD DUP2 DUP6 PUSH2 0xBAF JUMP JUMPDEST SWAP4 POP PUSH2 0xBDD DUP2 DUP6 PUSH1 0x20 DUP7 ADD PUSH2 0x7EF JUMP JUMPDEST DUP1 DUP5 ADD SWAP2 POP POP SWAP3 SWAP2 POP POP JUMP JUMPDEST PUSH0 PUSH2 0xBF4 DUP3 DUP5 PUSH2 0xBB9 JUMP JUMPDEST SWAP2 POP DUP2 SWAP1 POP SWAP3 SWAP2 POP POP JUMP INVALID LOG2 PUSH5 0x6970667358 0x22 SLT KECCAK256 SWAP7 BLOBHASH CALLF 0x31A1 PUSH10 0x38C7FE43F5E8C03E3D30 DUP7 DUPN 0xFC CREATE2 DUP16 0xA5 0xB9 SWAP13 0x1F 0x2C PUSH17 0x4E172CDA8A64736F6C634300081F003360 DUP1 PUSH1 0x40 MSTORE CALLVALUE DUP1 ISZERO PUSH1 0xE JUMPI PUSH0 PUSH0 REVERT JUMPDEST POP PUSH2 0xF9B DUP1 PUSH2 0x1C PUSH0 CODECOPY PUSH0 RETURN INVALID PUSH1 0x80 PUSH1 0x40 MSTORE CALLVALUE DUP1 ISZERO PUSH2 0xF JUMPI PUSH0 PUSH0 REVERT JUMPDEST POP PUSH1 0x4 CALLDATASIZE LT PUSH2 0x4A JUMPI PUSH0 CALLDATALOAD PUSH1 0xE0 SHR DUP1 PUSH4 0x6EAD22E EQ PUSH2 0x4E JUMPI DUP1 PUSH4 0x8917D33C EQ PUSH2 0x81 JUMPI DUP1 PUSH4 0xAA67F06B EQ PUSH2 0x9D JUMPI DUP1 PUSH4 0xDC78302B EQ PUSH2 0xD0 JUMPI JUMPDEST PUSH0 PUSH0 REVERT JUMPDEST PUSH2 0x68 PUSH1 0x4 DUP1 CALLDATASIZE SUB DUP2 ADD SWAP1 PUSH2 0x63 SWAP2 SWAP1 PUSH2 0x80A JUMP JUMPDEST PUSH2 0x100 JUMP JUMPDEST PUSH1 0x40 MLOAD PUSH2 0x78 SWAP5 SWAP4 SWAP3 SWAP2 SWAP1 PUSH2 0x8B4 JUMP JUMPDEST PUSH1 0x40 MLOAD DUP1 SWAP2 SUB SWAP1 RETURN JUMPDEST PUSH2 0x9B PUSH1 0x4 DUP1 CALLDATASIZE SUB DUP2 ADD SWAP1 PUSH2 0x96 SWAP2 SWAP1 PUSH2 0xA38 JUMP JUMPDEST PUSH2 0x2CC JUMP JUMPDEST STOP JUMPDEST PUSH2 0xB7 PUSH1 0x4 DUP1 CALLDATASIZE SUB DUP2 ADD SWAP1 PUSH2 0xB2 SWAP2 SWAP1 PUSH2 0xAF0 JUMP JUMPDEST PUSH2 0x3D7 JUMP JUMPDEST PUSH1 0x40 MLOAD PUSH2 0xC7 SWAP5 SWAP4 SWAP3 SWAP2 SWAP1 PUSH2 0x8B4 JUMP JUMPDEST PUSH1 0x40 MLOAD DUP1 SWAP2 SUB SWAP1 RETURN JUMPDEST PUSH2 0xEA PUSH1 0x4 DUP1 CALLDATASIZE SUB DUP2 ADD SWAP1 PUSH2 0xE5 SWAP2 SWAP1 PUSH2 0x80A JUMP JUMPDEST PUSH2 0x5AD JUMP JUMPDEST PUSH1 0x40 MLOAD PUSH2 0xF7 SWAP2 SWAP1 PUSH2 0xBFC JUMP JUMPDEST PUSH1 0x40 MLOAD DUP1 SWAP2 SUB SWAP1 RETURN JUMPDEST PUSH0 DUP2 DUP2 SLOAD DUP2 LT PUSH2 0x10E JUMPI PUSH0 DUP1 REVERT JUMPDEST SWAP1 PUSH0 MSTORE PUSH1 0x20 PUSH0 KECCAK256 SWAP1 PUSH1 0x4 MUL ADD PUSH0 SWAP2 POP SWAP1 POP DUP1 PUSH0 ADD DUP1 SLOAD PUSH2 0x12D SWAP1 PUSH2 0xC49 JUMP JUMPDEST DUP1 PUSH1 0x1F ADD PUSH1 0x20 DUP1 SWAP2 DIV MUL PUSH1 0x20 ADD PUSH1 0x40 MLOAD SWAP1 DUP2 ADD PUSH1 0x40 MSTORE DUP1 SWAP3 SWAP2 SWAP1 DUP2 DUP2 MSTORE PUSH1 0x20 ADD DUP3 DUP1 SLOAD PUSH2 0x159 SWAP1 PUSH2 0xC49 JUMP JUMPDEST DUP1 ISZERO PUSH2 0x1A4 JUMPI DUP1 PUSH1 0x1F LT PUSH2 0x17B JUMPI PUSH2 0x100 DUP1 DUP4 SLOAD DIV MUL DUP4 MSTORE SWAP2 PUSH1 0x20 ADD SWAP2 PUSH2 0x1A4 JUMP JUMPDEST DUP3 ADD SWAP2 SWAP1 PUSH0 MSTORE PUSH1 0x20 PUSH0 KECCAK256 SWAP1 JUMPDEST DUP2 SLOAD DUP2 MSTORE SWAP1 PUSH1 0x1 ADD SWAP1 PUSH1 0x20 ADD DUP1 DUP4 GT PUSH2 0x187 JUMPI DUP3 SWAP1 SUB PUSH1 0x1F AND DUP3 ADD SWAP2 JUMPDEST POP POP POP POP POP SWAP1 DUP1 PUSH1 0x1 ADD SLOAD SWAP1 DUP1 PUSH1 0x2 ADD DUP1 SLOAD PUSH2 0x1BF SWAP1 PUSH2 0xC49 JUMP JUMPDEST DUP1 PUSH1 0x1F ADD PUSH1 0x20 DUP1 SWAP2 DIV MUL PUSH1 0x20 ADD PUSH1 0x40 MLOAD SWAP1 DUP2 ADD PUSH1 0x40 MSTORE DUP1 SWAP3 SWAP2 SWAP1 DUP2 DUP2 MSTORE PUSH1 0x20 ADD DUP3 DUP1 SLOAD PUSH2 0x1EB SWAP1 PUSH2 0xC49 JUMP JUMPDEST DUP1 ISZERO PUSH2 0x236 JUMPI DUP1 PUSH1 0x1F LT PUSH2 0x20D JUMPI PUSH2 0x100 DUP1 DUP4 SLOAD DIV MUL DUP4 MSTORE SWAP2 PUSH1 0x20 ADD SWAP2 PUSH2 0x236 JUMP JUMPDEST DUP3 ADD SWAP2 SWAP1 PUSH0 MSTORE PUSH1 0x20 PUSH0 KECCAK256 SWAP1 JUMPDEST DUP2 SLOAD DUP2 MSTORE SWAP1 PUSH1 0x1 ADD SWAP1 PUSH1 0x20 ADD DUP1 DUP4 GT PUSH2 0x219 JUMPI DUP3 SWAP1 SUB PUSH1 0x1F AND DUP3 ADD SWAP2 JUMPDEST POP POP POP POP POP SWAP1 DUP1 PUSH1 0x3 ADD DUP1 SLOAD PUSH2 0x24B SWAP1 PUSH2 0xC49 JUMP JUMPDEST DUP1 PUSH1 0x1F ADD PUSH1 0x20 DUP1 SWAP2 DIV MUL PUSH1 0x20 ADD PUSH1 0x40 MLOAD SWAP1 DUP2 ADD PUSH1 0x40 MSTORE DUP1 SWAP3 SWAP2 SWAP1 DUP2 DUP2 MSTORE PUSH1 0x20 ADD DUP3 DUP1 SLOAD PUSH2 0x277 SWAP1 PUSH2 0xC49 JUMP JUMPDEST DUP1 ISZERO PUSH2 0x2C2 JUMPI DUP1 PUSH1 0x1F LT PUSH2 0x299 JUMPI PUSH2 0x100 DUP1 DUP4 SLOAD DIV MUL DUP4 MSTORE SWAP2 PUSH1 0x20 ADD SWAP2 PUSH2 0x2C2 JUMP JUMPDEST DUP3 ADD SWAP2 SWAP1 PUSH0 MSTORE PUSH1 0x20 PUSH0 KECCAK256 SWAP1 JUMPDEST DUP2 SLOAD DUP2 MSTORE SWAP1 PUSH1 0x1 ADD SWAP1 PUSH1 0x20 ADD DUP1 DUP4 GT PUSH2 0x2A5 JUMPI DUP3 SWAP1 SUB PUSH1 0x1F AND DUP3 ADD SWAP2 JUMPDEST POP POP POP POP POP SWAP1 POP DUP5 JUMP JUMPDEST PUSH0 PUSH1 0x40 MLOAD DUP1 PUSH1 0x80 ADD PUSH1 0x40 MSTORE DUP1 DUP7 DUP2 MSTORE PUSH1 0x20 ADD DUP6 DUP2 MSTORE PUSH1 0x20 ADD DUP5 DUP2 MSTORE PUSH1 0x20 ADD DUP4 DUP2 MSTORE POP SWAP1 POP PUSH0 DUP2 SWAP1 DUP1 PUSH1 0x1 DUP2 SLOAD ADD DUP1 DUP3 SSTORE DUP1 SWAP2 POP POP PUSH1 0x1 SWAP1 SUB SWAP1 PUSH0 MSTORE PUSH1 0x20 PUSH0 KECCAK256 SWAP1 PUSH1 0x4 MUL ADD PUSH0 SWAP1 SWAP2 SWAP1 SWAP2 SWAP1 SWAP2 POP PUSH0 DUP3 ADD MLOAD DUP2 PUSH0 ADD SWAP1 DUP2 PUSH2 0x32B SWAP2 SWAP1 PUSH2 0xE19 JUMP JUMPDEST POP PUSH1 0x20 DUP3 ADD MLOAD DUP2 PUSH1 0x1 ADD SSTORE PUSH1 0x40 DUP3 ADD MLOAD DUP2 PUSH1 0x2 ADD SWAP1 DUP2 PUSH2 0x34B SWAP2 SWAP1 PUSH2 0xE19 JUMP JUMPDEST POP PUSH1 0x60 DUP3 ADD MLOAD DUP2 PUSH1 0x3 ADD SWAP1 DUP2 PUSH2 0x361 SWAP2 SWAP1 PUSH2 0xE19 JUMP JUMPDEST POP POP POP DUP1 PUSH1 0x1 DUP7 PUSH1 0x40 MLOAD PUSH2 0x375 SWAP2 SWAP1 PUSH2 0xF22 JUMP JUMPDEST SWAP1 DUP2 MSTORE PUSH1 0x20 ADD PUSH1 0x40 MLOAD DUP1 SWAP2 SUB SWAP1 KECCAK256 PUSH0 DUP3 ADD MLOAD DUP2 PUSH0 ADD SWAP1 DUP2 PUSH2 0x396 SWAP2 SWAP1 PUSH2 0xE19 JUMP JUMPDEST POP PUSH1 0x20 DUP3 ADD MLOAD DUP2 PUSH1 0x1 ADD SSTORE PUSH1 0x40 DUP3 ADD MLOAD DUP2 PUSH1 0x2 ADD SWAP1 DUP2 PUSH2 0x3B6 SWAP2 SWAP1 PUSH2 0xE19 JUMP JUMPDEST POP PUSH1 0x60 DUP3 ADD MLOAD DUP2 PUSH1 0x3 ADD SWAP1 DUP2 PUSH2 0x3CC SWAP2 SWAP1 PUSH2 0xE19 JUMP JUMPDEST POP SWAP1 POP POP POP POP POP POP POP JUMP JUMPDEST PUSH1 0x1 DUP2 DUP1 MLOAD PUSH1 0x20 DUP2 ADD DUP3 ADD DUP1 MLOAD DUP5 DUP3 MSTORE PUSH1 0x20 DUP4 ADD PUSH1 0x20 DUP6 ADD KECCAK256 DUP2 DUP4 MSTORE DUP1 SWAP6 POP POP POP POP POP POP PUSH0 SWAP2 POP SWAP1 POP DUP1 PUSH0 ADD DUP1 SLOAD PUSH2 0x40E SWAP1 PUSH2 0xC49 JUMP JUMPDEST DUP1 PUSH1 0x1F ADD PUSH1 0x20 DUP1 SWAP2 DIV MUL PUSH1 0x20 ADD PUSH1 0x40 MLOAD SWAP1 DUP2 ADD PUSH1 0x40 MSTORE DUP1 SWAP3 SWAP2 SWAP1 DUP2 DUP2 MSTORE PUSH1 0x20 ADD DUP3 DUP1 SLOAD PUSH2 0x43A SWAP1 PUSH2 0xC49 JUMP JUMPDEST DUP1 ISZERO PUSH2 0x485 JUMPI DUP1 PUSH1 0x1F LT PUSH2 0x45C JUMPI PUSH2 0x100 DUP1 DUP4 SLOAD DIV MUL DUP4 MSTORE SWAP2 PUSH1 0x20 ADD SWAP2 PUSH2 0x485 JUMP JUMPDEST DUP3 ADD SWAP2 SWAP1 PUSH0 MSTORE PUSH1 0x20 PUSH0 KECCAK256 SWAP1 JUMPDEST DUP2 SLOAD DUP2 MSTORE SWAP1 PUSH1 0x1 ADD SWAP1 PUSH1 0x20 ADD DUP1 DUP4 GT PUSH2 0x468 JUMPI DUP3 SWAP1 SUB PUSH1 0x1F AND DUP3 ADD SWAP2 JUMPDEST POP POP POP POP POP SWAP1 DUP1 PUSH1 0x1 ADD SLOAD SWAP1 DUP1 PUSH1 0x2 ADD DUP1 SLOAD PUSH2 0x4A0 SWAP1 PUSH2 0xC49 JUMP JUMPDEST DUP1 PUSH1 0x1F ADD PUSH1 0x20 DUP1 SWAP2 DIV MUL PUSH1 0x20 ADD PUSH1 0x40 MLOAD SWAP1 DUP2 ADD PUSH1 0x40 MSTORE DUP1 SWAP3 SWAP2 SWAP1 DUP2 DUP2 MSTORE PUSH1 0x20 ADD DUP3 DUP1 SLOAD PUSH2 0x4CC SWAP1 PUSH2 0xC49 JUMP JUMPDEST DUP1 ISZERO PUSH2 0x517 JUMPI DUP1 PUSH1 0x1F LT PUSH2 0x4EE JUMPI PUSH2 0x100 DUP1 DUP4 SLOAD DIV MUL DUP4 MSTORE SWAP2 PUSH1 0x20 ADD SWAP2 PUSH2 0x517 JUMP JUMPDEST DUP3 ADD SWAP2 SWAP1 PUSH0 MSTORE PUSH1 0x20 PUSH0 KECCAK256 SWAP1 JUMPDEST DUP2 SLOAD DUP2 MSTORE SWAP1 PUSH1 0x1 ADD SWAP1 PUSH1 0x20 ADD DUP1 DUP4 GT PUSH2 0x4FA JUMPI DUP3 SWAP1 SUB PUSH1 0x1F AND DUP3 ADD SWAP2 JUMPDEST POP POP POP POP POP SWAP1 DUP1 PUSH1 0x3 ADD DUP1 SLOAD PUSH2 0x52C SWAP1 PUSH2 0xC49 JUMP JUMPDEST DUP1 PUSH1 0x1F ADD PUSH1 0x20 DUP1 SWAP2 DIV MUL PUSH1 0x20 ADD PUSH1 0x40 MLOAD SWAP1 DUP2 ADD PUSH1 0x40 MSTORE DUP1 SWAP3 SWAP2 SWAP1 DUP2 DUP2 MSTORE PUSH1 0x20 ADD DUP3 DUP1 SLOAD PUSH2 0x558 SWAP1 PUSH2 0xC49 JUMP JUMPDEST DUP1 ISZERO PUSH2 0x5A3 JUMPI DUP1 PUSH1 0x1F LT PUSH2 0x57A JUMPI PUSH2 0x100 DUP1 DUP4 SLOAD DIV MUL DUP4 MSTORE SWAP2 PUSH1 0x20 ADD SWAP2 PUSH2 0x5A3 JUMP JUMPDEST DUP3 ADD SWAP2 SWAP1 PUSH0 MSTORE PUSH1 0x20 PUSH0 KECCAK256 SWAP1 JUMPDEST DUP2 SLOAD DUP2 MSTORE SWAP1 PUSH1 0x1 ADD SWAP1 PUSH1 0x20 ADD DUP1 DUP4 GT PUSH2 0x586 JUMPI DUP3 SWAP1 SUB PUSH1 0x1F AND DUP3 ADD SWAP2 JUMPDEST POP POP POP POP POP SWAP1 POP DUP5 JUMP JUMPDEST PUSH2 0x5B5 PUSH2 0x79F JUMP JUMPDEST PUSH0 DUP3 DUP2 SLOAD DUP2 LT PUSH2 0x5C8 JUMPI PUSH2 0x5C7 PUSH2 0xF38 JUMP JUMPDEST JUMPDEST SWAP1 PUSH0 MSTORE PUSH1 0x20 PUSH0 KECCAK256 SWAP1 PUSH1 0x4 MUL ADD PUSH1 0x40 MLOAD DUP1 PUSH1 0x80 ADD PUSH1 0x40 MSTORE SWAP1 DUP2 PUSH0 DUP3 ADD DUP1 SLOAD PUSH2 0x5EE SWAP1 PUSH2 0xC49 JUMP JUMPDEST DUP1 PUSH1 0x1F ADD PUSH1 0x20 DUP1 SWAP2 DIV MUL PUSH1 0x20 ADD PUSH1 0x40 MLOAD SWAP1 DUP2 ADD PUSH1 0x40 MSTORE DUP1 SWAP3 SWAP2 SWAP1 DUP2 DUP2 MSTORE PUSH1 0x20 ADD DUP3 DUP1 SLOAD PUSH2 0x61A SWAP1 PUSH2 0xC49 JUMP JUMPDEST DUP1 ISZERO PUSH2 0x665 JUMPI DUP1 PUSH1 0x1F LT PUSH2 0x63C JUMPI PUSH2 0x100 DUP1 DUP4 SLOAD DIV MUL DUP4 MSTORE SWAP2 PUSH1 0x20 ADD SWAP2 PUSH2 0x665 JUMP JUMPDEST DUP3 ADD SWAP2 SWAP1 PUSH0 MSTORE PUSH1 0x20 PUSH0 KECCAK256 SWAP1 JUMPDEST DUP2 SLOAD DUP2 MSTORE SWAP1 PUSH1 0x1 ADD SWAP1 PUSH1 0x20 ADD DUP1 DUP4 GT PUSH2 0x648 JUMPI DUP3 SWAP1 SUB PUSH1 0x1F AND DUP3 ADD SWAP2 JUMPDEST POP POP POP POP POP DUP2 MSTORE PUSH1 0x20 ADD PUSH1 0x1 DUP3 ADD SLOAD DUP2 MSTORE PUSH1 0x20 ADD PUSH1 0x2 DUP3 ADD DUP1 SLOAD PUSH2 0x688 SWAP1 PUSH2 0xC49 JUMP JUMPDEST DUP1 PUSH1 0x1F ADD PUSH1 0x20 DUP1 SWAP2 DIV MUL PUSH1 0x20 ADD PUSH1 0x40 MLOAD SWAP1 DUP2 ADD PUSH1 0x40 MSTORE DUP1 SWAP3 SWAP2 SWAP1 DUP2 DUP2 MSTORE PUSH1 0x20 ADD DUP3 DUP1 SLOAD PUSH2 0x6B4 SWAP1 PUSH2 0xC49 JUMP JUMPDEST DUP1 ISZERO PUSH2 0x6FF JUMPI DUP1 PUSH1 0x1F LT PUSH2 0x6D6 JUMPI PUSH2 0x100 DUP1 DUP4 SLOAD DIV MUL DUP4 MSTORE SWAP2 PUSH1 0x20 ADD SWAP2 PUSH2 0x6FF JUMP JUMPDEST DUP3 ADD SWAP2 SWAP1 PUSH0 MSTORE PUSH1 0x20 PUSH0 KECCAK256 SWAP1 JUMPDEST DUP2 SLOAD DUP2 MSTORE SWAP1 PUSH1 0x1 ADD SWAP1 PUSH1 0x20 ADD DUP1 DUP4 GT PUSH2 0x6E2 JUMPI DUP3 SWAP1 SUB PUSH1 0x1F AND DUP3 ADD SWAP2 JUMPDEST POP POP POP POP POP DUP2 MSTORE PUSH1 0x20 ADD PUSH1 0x3 DUP3 ADD DUP1 SLOAD PUSH2 0x718 SWAP1 PUSH2 0xC49 JUMP JUMPDEST DUP1 PUSH1 0x1F ADD PUSH1 0x20 DUP1 SWAP2 DIV MUL PUSH1 0x20 ADD PUSH1 0x40 MLOAD SWAP1 DUP2 ADD PUSH1 0x40 MSTORE DUP1 SWAP3 SWAP2 SWAP1 DUP2 DUP2 MSTORE PUSH1 0x20 ADD DUP3 DUP1 SLOAD PUSH2 0x744 SWAP1 PUSH2 0xC49 JUMP JUMPDEST DUP1 ISZERO PUSH2 0x78F JUMPI DUP1 PUSH1 0x1F LT PUSH2 0x766 JUMPI PUSH2 0x100 DUP1 DUP4 SLOAD DIV MUL DUP4 MSTORE SWAP2 PUSH1 0x20 ADD SWAP2 PUSH2 0x78F JUMP JUMPDEST DUP3 ADD SWAP2 SWAP1 PUSH0 MSTORE PUSH1 0x20 PUSH0 KECCAK256 SWAP1 JUMPDEST DUP2 SLOAD DUP2 MSTORE SWAP1 PUSH1 0x1 ADD SWAP1 PUSH1 0x20 ADD DUP1 DUP4 GT PUSH2 0x772 JUMPI DUP3 SWAP1 SUB PUSH1 0x1F AND DUP3 ADD SWAP2 JUMPDEST POP POP POP POP POP DUP2 MSTORE POP POP SWAP1 POP SWAP2 SWAP1 POP JUMP JUMPDEST PUSH1 0x40 MLOAD DUP1 PUSH1 0x80 ADD PUSH1 0x40 MSTORE DUP1 PUSH1 0x60 DUP2 MSTORE PUSH1 0x20 ADD PUSH0 DUP2 MSTORE PUSH1 0x20 ADD PUSH1 0x60 DUP2 MSTORE PUSH1 0x20 ADD PUSH1 0x60 DUP2 MSTORE POP SWAP1 JUMP JUMPDEST PUSH0 PUSH1 0x40 MLOAD SWAP1 POP SWAP1 JUMP JUMPDEST PUSH0 PUSH0 REVERT JUMPDEST PUSH0 PUSH0 REVERT JUMPDEST PUSH0 DUP2 SWAP1 POP SWAP2 SWAP1 POP JUMP JUMPDEST PUSH2 0x7E9 DUP2 PUSH2 0x7D7 JUMP JUMPDEST DUP2 EQ PUSH2 0x7F3 JUMPI PUSH0 PUSH0 REVERT JUMPDEST POP JUMP JUMPDEST PUSH0 DUP2 CALLDATALOAD SWAP1 POP PUSH2 0x804 DUP2 PUSH2 0x7E0 JUMP JUMPDEST SWAP3 SWAP2 POP POP JUMP JUMPDEST PUSH0 PUSH1 0x20 DUP3 DUP5 SUB SLT ISZERO PUSH2 0x81F JUMPI PUSH2 0x81E PUSH2 0x7CF JUMP JUMPDEST JUMPDEST PUSH0 PUSH2 0x82C DUP5 DUP3 DUP6 ADD PUSH2 0x7F6 JUMP JUMPDEST SWAP2 POP POP SWAP3 SWAP2 POP POP JUMP JUMPDEST PUSH0 DUP2 MLOAD SWAP1 POP SWAP2 SWAP1 POP JUMP JUMPDEST PUSH0 DUP3 DUP3 MSTORE PUSH1 0x20 DUP3 ADD SWAP1 POP SWAP3 SWAP2 POP POP JUMP JUMPDEST DUP3 DUP2 DUP4 MCOPY PUSH0 DUP4 DUP4 ADD MSTORE POP POP POP JUMP JUMPDEST PUSH0 PUSH1 0x1F NOT PUSH1 0x1F DUP4 ADD AND SWAP1 POP SWAP2 SWAP1 POP JUMP JUMPDEST PUSH0 PUSH2 0x877 DUP3 PUSH2 0x835 JUMP JUMPDEST PUSH2 0x881 DUP2 DUP6 PUSH2 0x83F JUMP JUMPDEST SWAP4 POP PUSH2 0x891 DUP2 DUP6 PUSH1 0x20 DUP7 ADD PUSH2 0x84F JUMP JUMPDEST PUSH2 0x89A DUP2 PUSH2 0x85D JUMP JUMPDEST DUP5 ADD SWAP2 POP POP SWAP3 SWAP2 POP POP JUMP JUMPDEST PUSH2 0x8AE DUP2 PUSH2 0x7D7 JUMP JUMPDEST DUP3 MSTORE POP POP JUMP JUMPDEST PUSH0 PUSH1 0x80 DUP3 ADD SWAP1 POP DUP2 DUP2 SUB PUSH0 DUP4 ADD MSTORE PUSH2 0x8CC DUP2 DUP8 PUSH2 0x86D JUMP JUMPDEST SWAP1 POP PUSH2 0x8DB PUSH1 0x20 DUP4 ADD DUP7 PUSH2 0x8A5 JUMP JUMPDEST DUP2 DUP2 SUB PUSH1 0x40 DUP4 ADD MSTORE PUSH2 0x8ED DUP2 DUP6 PUSH2 0x86D JUMP JUMPDEST SWAP1 POP DUP2 DUP2 SUB PUSH1 0x60 DUP4 ADD MSTORE PUSH2 0x901 DUP2 DUP5 PUSH2 0x86D JUMP JUMPDEST SWAP1 POP SWAP6 SWAP5 POP POP POP POP POP JUMP JUMPDEST PUSH0 PUSH0 REVERT JUMPDEST PUSH0 PUSH0 REVERT JUMPDEST PUSH32 0x4E487B7100000000000000000000000000000000000000000000000000000000 PUSH0 MSTORE PUSH1 0x41 PUSH1 0x4 MSTORE PUSH1 0x24 PUSH0 REVERT JUMPDEST PUSH2 0x94A DUP3 PUSH2 0x85D JUMP JUMPDEST DUP2 ADD DUP2 DUP2 LT PUSH8 0xFFFFFFFFFFFFFFFF DUP3 GT OR ISZERO PUSH2 0x969 JUMPI PUSH2 0x968 PUSH2 0x914 JUMP JUMPDEST JUMPDEST DUP1 PUSH1 0x40 MSTORE POP POP POP JUMP JUMPDEST PUSH0 PUSH2 0x97B PUSH2 0x7C6 JUMP JUMPDEST SWAP1 POP PUSH2 0x987 DUP3 DUP3 PUSH2 0x941 JUMP JUMPDEST SWAP2 SWAP1 POP JUMP JUMPDEST PUSH0 PUSH8 0xFFFFFFFFFFFFFFFF DUP3 GT ISZERO PUSH2 0x9A6 JUMPI PUSH2 0x9A5 PUSH2 0x914 JUMP JUMPDEST JUMPDEST PUSH2 0x9AF DUP3 PUSH2 0x85D JUMP JUMPDEST SWAP1 POP PUSH1 0x20 DUP2 ADD SWAP1 POP SWAP2 SWAP1 POP JUMP JUMPDEST DUP3 DUP2 DUP4 CALLDATACOPY PUSH0 DUP4 DUP4 ADD MSTORE POP POP POP JUMP JUMPDEST PUSH0 PUSH2 0x9DC PUSH2 0x9D7 DUP5 PUSH2 0x98C JUMP JUMPDEST PUSH2 0x972 JUMP JUMPDEST SWAP1 POP DUP3 DUP2 MSTORE PUSH1 0x20 DUP2 ADD DUP5 DUP5 DUP5 ADD GT ISZERO PUSH2 0x9F8 JUMPI PUSH2 0x9F7 PUSH2 0x910 JUMP JUMPDEST JUMPDEST PUSH2 0xA03 DUP5 DUP3 DUP6 PUSH2 0x9BC JUMP JUMPDEST POP SWAP4 SWAP3 POP POP POP JUMP JUMPDEST PUSH0 DUP3 PUSH1 0x1F DUP4 ADD SLT PUSH2 0xA1F JUMPI PUSH2 0xA1E PUSH2 0x90C JUMP JUMPDEST JUMPDEST DUP2 CALLDATALOAD PUSH2 0xA2F DUP5 DUP3 PUSH1 0x20 DUP7 ADD PUSH2 0x9CA JUMP JUMPDEST SWAP2 POP POP SWAP3 SWAP2 POP POP JUMP JUMPDEST PUSH0 PUSH0 PUSH0 PUSH0 PUSH1 0x80 DUP6 DUP8 SUB SLT ISZERO PUSH2 0xA50 JUMPI PUSH2 0xA4F PUSH2 0x7CF JUMP JUMPDEST JUMPDEST PUSH0 DUP6 ADD CALLDATALOAD PUSH8 0xFFFFFFFFFFFFFFFF DUP2 GT ISZERO PUSH2 0xA6D JUMPI PUSH2 0xA6C PUSH2 0x7D3 JUMP JUMPDEST JUMPDEST PUSH2 0xA79 DUP8 DUP3 DUP9 ADD PUSH2 0xA0B JUMP JUMPDEST SWAP5 POP POP PUSH1 0x20 PUSH2 0xA8A DUP8 DUP3 DUP9 ADD PUSH2 0x7F6 JUMP JUMPDEST SWAP4 POP POP PUSH1 0x40 DUP6 ADD CALLDATALOAD PUSH8 0xFFFFFFFFFFFFFFFF DUP2 GT ISZERO PUSH2 0xAAB JUMPI PUSH2 0xAAA PUSH2 0x7D3 JUMP JUMPDEST JUMPDEST PUSH2 0xAB7 DUP8 DUP3 DUP9 ADD PUSH2 0xA0B JUMP JUMPDEST SWAP3 POP POP PUSH1 0x60 DUP6 ADD CALLDATALOAD PUSH8 0xFFFFFFFFFFFFFFFF DUP2 GT ISZERO PUSH2 0xAD8 JUMPI PUSH2 0xAD7 PUSH2 0x7D3 JUMP JUMPDEST JUMPDEST PUSH2 0xAE4 DUP8 DUP3 DUP9 ADD PUSH2 0xA0B JUMP JUMPDEST SWAP2 POP POP SWAP3 SWAP6 SWAP2 SWAP5 POP SWAP3 POP JUMP JUMPDEST PUSH0 PUSH1 0x20 DUP3 DUP5 SUB SLT ISZERO PUSH2 0xB05 JUMPI PUSH2 0xB04 PUSH2 0x7CF JUMP JUMPDEST JUMPDEST PUSH0 DUP3 ADD CALLDATALOAD PUSH8 0xFFFFFFFFFFFFFFFF DUP2 GT ISZERO PUSH2 0xB22 JUMPI PUSH2 0xB21 PUSH2 0x7D3 JUMP JUMPDEST JUMPDEST PUSH2 0xB2E DUP5 DUP3 DUP6 ADD PUSH2 0xA0B JUMP JUMPDEST SWAP2 POP POP SWAP3 SWAP2 POP POP JUMP JUMPDEST PUSH0 DUP3 DUP3 MSTORE PUSH1 0x20 DUP3 ADD SWAP1 POP SWAP3 SWAP2 POP POP JUMP JUMPDEST PUSH0 PUSH2 0xB51 DUP3 PUSH2 0x835 JUMP JUMPDEST PUSH2 0xB5B DUP2 DUP6 PUSH2 0xB37 JUMP JUMPDEST SWAP4 POP PUSH2 0xB6B DUP2 DUP6 PUSH1 0x20 DUP7 ADD PUSH2 0x84F JUMP JUMPDEST PUSH2 0xB74 DUP2 PUSH2 0x85D JUMP JUMPDEST DUP5 ADD SWAP2 POP POP SWAP3 SWAP2 POP POP JUMP JUMPDEST PUSH2 0xB88 DUP2 PUSH2 0x7D7 JUMP JUMPDEST DUP3 MSTORE POP POP JUMP JUMPDEST PUSH0 PUSH1 0x80 DUP4 ADD PUSH0 DUP4 ADD MLOAD DUP5 DUP3 SUB PUSH0 DUP7 ADD MSTORE PUSH2 0xBA8 DUP3 DUP3 PUSH2 0xB47 JUMP JUMPDEST SWAP2 POP POP PUSH1 0x20 DUP4 ADD MLOAD PUSH2 0xBBD PUSH1 0x20 DUP7 ADD DUP3 PUSH2 0xB7F JUMP JUMPDEST POP PUSH1 0x40 DUP4 ADD MLOAD DUP5 DUP3 SUB PUSH1 0x40 DUP7 ADD MSTORE PUSH2 0xBD5 DUP3 DUP3 PUSH2 0xB47 JUMP JUMPDEST SWAP2 POP POP PUSH1 0x60 DUP4 ADD MLOAD DUP5 DUP3 SUB PUSH1 0x60 DUP7 ADD MSTORE PUSH2 0xBEF DUP3 DUP3 PUSH2 0xB47 JUMP JUMPDEST SWAP2 POP POP DUP1 SWAP2 POP POP SWAP3 SWAP2 POP POP JUMP JUMPDEST PUSH0 PUSH1 0x20 DUP3 ADD SWAP1 POP DUP2 DUP2 SUB PUSH0 DUP4 ADD MSTORE PUSH2 0xC14 DUP2 DUP5 PUSH2 0xB8E JUMP JUMPDEST SWAP1 POP SWAP3 SWAP2 POP POP JUMP JUMPDEST PUSH32 0x4E487B7100000000000000000000000000000000000000000000000000000000 PUSH0 MSTORE PUSH1 0x22 PUSH1 0x4 MSTORE PUSH1 0x24 PUSH0 REVERT JUMPDEST PUSH0 PUSH1 0x2 DUP3 DIV SWAP1 POP PUSH1 0x1 DUP3 AND DUP1 PUSH2 0xC60 JUMPI PUSH1 0x7F DUP3 AND SWAP2 POP JUMPDEST PUSH1 0x20 DUP3 LT DUP2 SUB PUSH2 0xC73 JUMPI PUSH2 0xC72 PUSH2 0xC1C JUMP JUMPDEST JUMPDEST POP SWAP2 SWAP1 POP JUMP JUMPDEST PUSH0 DUP2 SWAP1 POP DUP2 PUSH0 MSTORE PUSH1 0x20 PUSH0 KECCAK256 SWAP1 POP SWAP2 SWAP1 POP JUMP JUMPDEST PUSH0 PUSH1 0x20 PUSH1 0x1F DUP4 ADD DIV SWAP1 POP SWAP2 SWAP1 POP JUMP JUMPDEST PUSH0 DUP3 DUP3 SHL SWAP1 POP SWAP3 SWAP2 POP POP JUMP JUMPDEST PUSH0 PUSH1 0x8 DUP4 MUL PUSH2 0xCD5 PUSH32 0xFFFFFFFFFFFFFFFFFFFFFFFFFFFFFFFFFFFFFFFFFFFFFFFFFFFFFFFFFFFFFFFF DUP3 PUSH2 0xC9A JUMP JUMPDEST PUSH2 0xCDF DUP7 DUP4 PUSH2 0xC9A JUMP JUMPDEST SWAP6 POP DUP1 NOT DUP5 AND SWAP4 POP DUP1 DUP7 AND DUP5 OR SWAP3 POP POP POP SWAP4 SWAP3 POP POP POP JUMP JUMPDEST PUSH0 DUP2 SWAP1 POP SWAP2 SWAP1 POP JUMP JUMPDEST PUSH0 PUSH2 0xD1A PUSH2 0xD15 PUSH2 0xD10 DUP5 PUSH2 0x7D7 JUMP JUMPDEST PUSH2 0xCF7 JUMP JUMPDEST PUSH2 0x7D7 JUMP JUMPDEST SWAP1 POP SWAP2 SWAP1 POP JUMP JUMPDEST PUSH0 DUP2 SWAP1 POP SWAP2 SWAP1 POP JUMP JUMPDEST PUSH2 0xD33 DUP4 PUSH2 0xD00 JUMP JUMPDEST PUSH2 0xD47 PUSH2 0xD3F DUP3 PUSH2 0xD21 JUMP JUMPDEST DUP5 DUP5 SLOAD PUSH2 0xCA6 JUMP JUMPDEST DUP3 SSTORE POP POP POP POP JUMP JUMPDEST PUSH0 PUSH0 SWAP1 POP SWAP1 JUMP JUMPDEST PUSH2 0xD5E PUSH2 0xD4F JUMP JUMPDEST PUSH2 0xD69 DUP2 DUP5 DUP5 PUSH2 0xD2A JUMP JUMPDEST POP POP POP JUMP JUMPDEST JUMPDEST DUP2 DUP2 LT ISZERO PUSH2 0xD8C JUMPI PUSH2 0xD81 PUSH0 DUP3 PUSH2 0xD56 JUMP JUMPDEST PUSH1 0x1 DUP2 ADD SWAP1 POP PUSH2 0xD6F JUMP JUMPDEST POP POP JUMP JUMPDEST PUSH1 0x1F DUP3 GT ISZERO PUSH2 0xDD1 JUMPI PUSH2 0xDA2 DUP2 PUSH2 0xC79 JUMP JUMPDEST PUSH2 0xDAB DUP5 PUSH2 0xC8B JUMP JUMPDEST DUP2 ADD PUSH1 0x20 DUP6 LT ISZERO PUSH2 0xDBA JUMPI DUP2 SWAP1 POP JUMPDEST PUSH2 0xDCE PUSH2 0xDC6 DUP6 PUSH2 0xC8B JUMP JUMPDEST DUP4 ADD DUP3 PUSH2 0xD6E JUMP JUMPDEST POP POP JUMPDEST POP POP POP JUMP JUMPDEST PUSH0 DUP3 DUP3 SHR SWAP1 POP SWAP3 SWAP2 POP POP JUMP JUMPDEST PUSH0 PUSH2 0xDF1 PUSH0 NOT DUP5 PUSH1 0x8 MUL PUSH2 0xDD6 JUMP JUMPDEST NOT DUP1 DUP4 AND SWAP2 POP POP SWAP3 SWAP2 POP POP JUMP JUMPDEST PUSH0 PUSH2 0xE09 DUP4 DUP4 PUSH2 0xDE2 JUMP JUMPDEST SWAP2 POP DUP3 PUSH1 0x2 MUL DUP3 OR SWAP1 POP SWAP3 SWAP2 POP POP JUMP JUMPDEST PUSH2 0xE22 DUP3 PUSH2 0x835 JUMP JUMPDEST PUSH8 0xFFFFFFFFFFFFFFFF DUP2 GT ISZERO PUSH2 0xE3B JUMPI PUSH2 0xE3A PUSH2 0x914 JUMP JUMPDEST JUMPDEST PUSH2 0xE45 DUP3 SLOAD PUSH2 0xC49 JUMP JUMPDEST PUSH2 0xE50 DUP3 DUP3 DUP6 PUSH2 0xD90 JUMP JUMPDEST PUSH0 PUSH1 0x20 SWAP1 POP PUSH1 0x1F DUP4 GT PUSH1 0x1 DUP2 EQ PUSH2 0xE81 JUMPI PUSH0 DUP5 ISZERO PUSH2 0xE6F JUMPI DUP3 DUP8 ADD MLOAD SWAP1 POP JUMPDEST PUSH2 0xE79 DUP6 DUP3 PUSH2 0xDFE JUMP JUMPDEST DUP7 SSTORE POP PUSH2 0xEE0 JUMP JUMPDEST PUSH1 0x1F NOT DUP5 AND PUSH2 0xE8F DUP7 PUSH2 0xC79 JUMP JUMPDEST PUSH0 JUMPDEST DUP3 DUP2 LT ISZERO PUSH2 0xEB6 JUMPI DUP5 DUP10 ADD MLOAD DUP3 SSTORE PUSH1 0x1 DUP3 ADD SWAP2 POP PUSH1 0x20 DUP6 ADD SWAP5 POP PUSH1 0x20 DUP2 ADD SWAP1 POP PUSH2 0xE91 JUMP JUMPDEST DUP7 DUP4 LT ISZERO PUSH2 0xED3 JUMPI DUP5 DUP10 ADD MLOAD PUSH2 0xECF PUSH1 0x1F DUP10 AND DUP3 PUSH2 0xDE2 JUMP JUMPDEST DUP4 SSTORE POP JUMPDEST PUSH1 0x1 PUSH1 0x2 DUP9 MUL ADD DUP9 SSTORE POP POP POP JUMPDEST POP POP POP POP POP POP JUMP JUMPDEST PUSH0 DUP2 SWAP1 POP SWAP3 SWAP2 POP POP JUMP JUMPDEST PUSH0 PUSH2 0xEFC DUP3 PUSH2 0x835 JUMP JUMPDEST PUSH2 0xF06 DUP2 DUP6 PUSH2 0xEE8 JUMP JUMPDEST SWAP4 POP PUSH2 0xF16 DUP2 DUP6 PUSH1 0x20 DUP7 ADD PUSH2 0x84F JUMP JUMPDEST DUP1 DUP5 ADD SWAP2 POP POP SWAP3 SWAP2 POP POP JUMP JUMPDEST PUSH0 PUSH2 0xF2D DUP3 DUP5 PUSH2 0xEF2 JUMP JUMPDEST SWAP2 POP DUP2 SWAP1 POP SWAP3 SWAP2 POP POP JUMP JUMPDEST PUSH32 0x4E487B7100000000000000000000000000000000000000000000000000000000 PUSH0 MSTORE PUSH1 0x32 PUSH1 0x4 MSTORE PUSH1 0x24 PUSH0 REVERT INVALID LOG2 PUSH5 0x6970667358 0x22 SLT KECCAK256 0xE2 0xD0 BLOBHASH 0x4E 0xA5 JUMPDEST 0xC6 0xB6 0xAE SLT PUSH3 0x513DD2 SLT JUMPDEST POP 0xC0 0xB0 MUL 0xEB PUSH23 0xEB9C634651830187C52164736F6C634300081F00336080 PUSH1 0x40 MSTORE CALLVALUE DUP1 ISZERO PUSH1 0xE JUMPI PUSH0 PUSH0 REVERT JUMPDEST POP PUSH2 0x73D DUP1 PUSH2 0x1C PUSH0 CODECOPY PUSH0 RETURN INVALID PUSH1 0x80 PUSH1 0x40 MSTORE CALLVALUE DUP1 ISZERO PUSH2 0xF JUMPI PUSH0 PUSH0 REVERT JUMPDEST POP PUSH1 0x4 CALLDATASIZE LT PUSH2 0x34 JUMPI PUSH0 CALLDATALOAD PUSH1 0xE0 SHR DUP1 PUSH4 0xB8392E1 EQ PUSH2 0x38 JUMPI DUP1 PUSH4 0x3B83AD65 EQ PUSH2 0x69 JUMPI JUMPDEST PUSH0 PUSH0 REVERT JUMPDEST PUSH2 0x52 PUSH1 0x4 DUP1 CALLDATASIZE SUB DUP2 ADD SWAP1 PUSH2 0x4D SWAP2 SWAP1 PUSH2 0x1DD JUMP JUMPDEST PUSH2 0x85 JUMP JUMPDEST PUSH1 0x40 MLOAD PUSH2 0x60 SWAP3 SWAP2 SWAP1 PUSH2 0x287 JUMP JUMPDEST PUSH1 0x40 MLOAD DUP1 SWAP2 SUB SWAP1 RETURN JUMPDEST PUSH2 0x83 PUSH1 0x4 DUP1 CALLDATASIZE SUB DUP2 ADD SWAP1 PUSH2 0x7E SWAP2 SWAP1 PUSH2 0x3E1 JUMP JUMPDEST PUSH2 0x139 JUMP JUMPDEST STOP JUMPDEST PUSH0 DUP2 DUP2 SLOAD DUP2 LT PUSH2 0x93 JUMPI PUSH0 DUP1 REVERT JUMPDEST SWAP1 PUSH0 MSTORE PUSH1 0x20 PUSH0 KECCAK256 SWAP1 PUSH1 0x2 MUL ADD PUSH0 SWAP2 POP SWAP1 POP DUP1 PUSH0 ADD DUP1 SLOAD PUSH2 0xB2 SWAP1 PUSH2 0x468 JUMP JUMPDEST DUP1 PUSH1 0x1F ADD PUSH1 0x20 DUP1 SWAP2 DIV MUL PUSH1 0x20 ADD PUSH1 0x40 MLOAD SWAP1 DUP2 ADD PUSH1 0x40 MSTORE DUP1 SWAP3 SWAP2 SWAP1 DUP2 DUP2 MSTORE PUSH1 0x20 ADD DUP3 DUP1 SLOAD PUSH2 0xDE SWAP1 PUSH2 0x468 JUMP JUMPDEST DUP1 ISZERO PUSH2 0x129 JUMPI DUP1 PUSH1 0x1F LT PUSH2 0x100 JUMPI PUSH2 0x100 DUP1 DUP4 SLOAD DIV MUL DUP4 MSTORE SWAP2 PUSH1 0x20 ADD SWAP2 PUSH2 0x129 JUMP JUMPDEST DUP3 ADD SWAP2 SWAP1 PUSH0 MSTORE PUSH1 0x20 PUSH0 KECCAK256 SWAP1 JUMPDEST DUP2 SLOAD DUP2 MSTORE SWAP1 PUSH1 0x1 ADD SWAP1 PUSH1 0x20 ADD DUP1 DUP4 GT PUSH2 0x10C JUMPI DUP3 SWAP1 SUB PUSH1 0x1F AND DUP3 ADD SWAP2 JUMPDEST POP POP POP POP POP SWAP1 DUP1 PUSH1 0x1 ADD SLOAD SWAP1 POP DUP3 JUMP JUMPDEST PUSH0 PUSH1 0x40 MLOAD DUP1 PUSH1 0x40 ADD PUSH1 0x40 MSTORE DUP1 DUP5 DUP2 MSTORE PUSH1 0x20 ADD DUP4 DUP2 MSTORE POP SWAP1 DUP1 PUSH1 0x1 DUP2 SLOAD ADD DUP1 DUP3 SSTORE DUP1 SWAP2 POP POP PUSH1 0x1 SWAP1 SUB SWAP1 PUSH0 MSTORE PUSH1 0x20 PUSH0 KECCAK256 SWAP1 PUSH1 0x2 MUL ADD PUSH0 SWAP1 SWAP2 SWAP1 SWAP2 SWAP1 SWAP2 POP PUSH0 DUP3 ADD MLOAD DUP2 PUSH0 ADD SWAP1 DUP2 PUSH2 0x188 SWAP2 SWAP1 PUSH2 0x638 JUMP JUMPDEST POP PUSH1 0x20 DUP3 ADD MLOAD DUP2 PUSH1 0x1 ADD SSTORE POP POP POP POP JUMP JUMPDEST PUSH0 PUSH1 0x40 MLOAD SWAP1 POP SWAP1 JUMP JUMPDEST PUSH0 PUSH0 REVERT JUMPDEST PUSH0 PUSH0 REVERT JUMPDEST PUSH0 DUP2 SWAP1 POP SWAP2 SWAP1 POP JUMP JUMPDEST PUSH2 0x1BC DUP2 PUSH2 0x1AA JUMP JUMPDEST DUP2 EQ PUSH2 0x1C6 JUMPI PUSH0 PUSH0 REVERT JUMPDEST POP JUMP JUMPDEST PUSH0 DUP2 CALLDATALOAD SWAP1 POP PUSH2 0x1D7 DUP2 PUSH2 0x1B3 JUMP JUMPDEST SWAP3 SWAP2 POP POP JUMP JUMPDEST PUSH0 PUSH1 0x20 DUP3 DUP5 SUB SLT ISZERO PUSH2 0x1F2 JUMPI PUSH2 0x1F1 PUSH2 0x1A2 JUMP JUMPDEST JUMPDEST PUSH0 PUSH2 0x1FF DUP5 DUP3 DUP6 ADD PUSH2 0x1C9 JUMP JUMPDEST SWAP2 POP POP SWAP3 SWAP2 POP POP JUMP JUMPDEST PUSH0 DUP2 MLOAD SWAP1 POP SWAP2 SWAP1 POP JUMP JUMPDEST PUSH0 DUP3 DUP3 MSTORE PUSH1 0x20 DUP3 ADD SWAP1 POP SWAP3 SWAP2 POP POP JUMP JUMPDEST DUP3 DUP2 DUP4 MCOPY PUSH0 DUP4 DUP4 ADD MSTORE POP POP POP JUMP JUMPDEST PUSH0 PUSH1 0x1F NOT PUSH1 0x1F DUP4 ADD AND SWAP1 POP SWAP2 SWAP1 POP JUMP JUMPDEST PUSH0 PUSH2 0x24A DUP3 PUSH2 0x208 JUMP JUMPDEST PUSH2 0x254 DUP2 DUP6 PUSH2 0x212 JUMP JUMPDEST SWAP4 POP PUSH2 0x264 DUP2 DUP6 PUSH1 0x20 DUP7 ADD PUSH2 0x222 JUMP JUMPDEST PUSH2 0x26D DUP2 PUSH2 0x230 JUMP JUMPDEST DUP5 ADD SWAP2 POP POP SWAP3 SWAP2 POP POP JUMP JUMPDEST PUSH2 0x281 DUP2 PUSH2 0x1AA JUMP JUMPDEST DUP3 MSTORE POP POP JUMP JUMPDEST PUSH0 PUSH1 0x40 DUP3 ADD SWAP1 POP DUP2 DUP2 SUB PUSH0 DUP4 ADD MSTORE PUSH2 0x29F DUP2 DUP6 PUSH2 0x240 JUMP JUMPDEST SWAP1 POP PUSH2 0x2AE PUSH1 0x20 DUP4 ADD DUP5 PUSH2 0x278 JUMP JUMPDEST SWAP4 SWAP3 POP POP POP JUMP JUMPDEST PUSH0 PUSH0 REVERT JUMPDEST PUSH0 PUSH0 REVERT JUMPDEST PUSH32 0x4E487B7100000000000000000000000000000000000000000000000000000000 PUSH0 MSTORE PUSH1 0x41 PUSH1 0x4 MSTORE PUSH1 0x24 PUSH0 REVERT JUMPDEST PUSH2 0x2F3 DUP3 PUSH2 0x230 JUMP JUMPDEST DUP2 ADD DUP2 DUP2 LT PUSH8 0xFFFFFFFFFFFFFFFF DUP3 GT OR ISZERO PUSH2 0x312 JUMPI PUSH2 0x311 PUSH2 0x2BD JUMP JUMPDEST JUMPDEST DUP1 PUSH1 0x40 MSTORE POP POP POP JUMP JUMPDEST PUSH0 PUSH2 0x324 PUSH2 0x199 JUMP JUMPDEST SWAP1 POP PUSH2 0x330 DUP3 DUP3 PUSH2 0x2EA JUMP JUMPDEST SWAP2 SWAP1 POP JUMP JUMPDEST PUSH0 PUSH8 0xFFFFFFFFFFFFFFFF DUP3 GT ISZERO PUSH2 0x34F JUMPI PUSH2 0x34E PUSH2 0x2BD JUMP JUMPDEST JUMPDEST PUSH2 0x358 DUP3 PUSH2 0x230 JUMP JUMPDEST SWAP1 POP PUSH1 0x20 DUP2 ADD SWAP1 POP SWAP2 SWAP1 POP JUMP JUMPDEST DUP3 DUP2 DUP4 CALLDATACOPY PUSH0 DUP4 DUP4 ADD MSTORE POP POP POP JUMP JUMPDEST PUSH0 PUSH2 0x385 PUSH2 0x380 DUP5 PUSH2 0x335 JUMP JUMPDEST PUSH2 0x31B JUMP JUMPDEST SWAP1 POP DUP3 DUP2 MSTORE PUSH1 0x20 DUP2 ADD DUP5 DUP5 DUP5 ADD GT ISZERO PUSH2 0x3A1 JUMPI PUSH2 0x3A0 PUSH2 0x2B9 JUMP JUMPDEST JUMPDEST PUSH2 0x3AC DUP5 DUP3 DUP6 PUSH2 0x365 JUMP JUMPDEST POP SWAP4 SWAP3 POP POP POP JUMP JUMPDEST PUSH0 DUP3 PUSH1 0x1F DUP4 ADD SLT PUSH2 0x3C8 JUMPI PUSH2 0x3C7 PUSH2 0x2B5 JUMP JUMPDEST JUMPDEST DUP2 CALLDATALOAD PUSH2 0x3D8 DUP5 DUP3 PUSH1 0x20 DUP7 ADD PUSH2 0x373 JUMP JUMPDEST SWAP2 POP POP SWAP3 SWAP2 POP POP JUMP JUMPDEST PUSH0 PUSH0 PUSH1 0x40 DUP4 DUP6 SUB SLT ISZERO PUSH2 0x3F7 JUMPI PUSH2 0x3F6 PUSH2 0x1A2 JUMP JUMPDEST JUMPDEST PUSH0 DUP4 ADD CALLDATALOAD PUSH8 0xFFFFFFFFFFFFFFFF DUP2 GT ISZERO PUSH2 0x414 JUMPI PUSH2 0x413 PUSH2 0x1A6 JUMP JUMPDEST JUMPDEST PUSH2 0x420 DUP6 DUP3 DUP7 ADD PUSH2 0x3B4 JUMP JUMPDEST SWAP3 POP POP PUSH1 0x20 PUSH2 0x431 DUP6 DUP3 DUP7 ADD PUSH2 0x1C9 JUMP JUMPDEST SWAP2 POP POP SWAP3 POP SWAP3 SWAP1 POP JUMP JUMPDEST PUSH32 0x4E487B7100000000000000000000000000000000000000000000000000000000 PUSH0 MSTORE PUSH1 0x22 PUSH1 0x4 MSTORE PUSH1 0x24 PUSH0 REVERT JUMPDEST PUSH0 PUSH1 0x2 DUP3 DIV SWAP1 POP PUSH1 0x1 DUP3 AND DUP1 PUSH2 0x47F JUMPI PUSH1 0x7F DUP3 AND SWAP2 POP JUMPDEST PUSH1 0x20 DUP3 LT DUP2 SUB PUSH2 0x492 JUMPI PUSH2 0x491 PUSH2 0x43B JUMP JUMPDEST JUMPDEST POP SWAP2 SWAP1 POP JUMP JUMPDEST PUSH0 DUP2 SWAP1 POP DUP2 PUSH0 MSTORE PUSH1 0x20 PUSH0 KECCAK256 SWAP1 POP SWAP2 SWAP1 POP JUMP JUMPDEST PUSH0 PUSH1 0x20 PUSH1 0x1F DUP4 ADD DIV SWAP1 POP SWAP2 SWAP1 POP JUMP JUMPDEST PUSH0 DUP3 DUP3 SHL SWAP1 POP SWAP3 SWAP2 POP POP JUMP JUMPDEST PUSH0 PUSH1 0x8 DUP4 MUL PUSH2 0x4F4 PUSH32 0xFFFFFFFFFFFFFFFFFFFFFFFFFFFFFFFFFFFFFFFFFFFFFFFFFFFFFFFFFFFFFFFF DUP3 PUSH2 0x4B9 JUMP JUMPDEST PUSH2 0x4FE DUP7 DUP4 PUSH2 0x4B9 JUMP JUMPDEST SWAP6 POP DUP1 NOT DUP5 AND SWAP4 POP DUP1 DUP7 AND DUP5 OR SWAP3 POP POP POP SWAP4 SWAP3 POP POP POP JUMP JUMPDEST PUSH0 DUP2 SWAP1 POP SWAP2 SWAP1 POP JUMP JUMPDEST PUSH0 PUSH2 0x539 PUSH2 0x534 PUSH2 0x52F DUP5 PUSH2 0x1AA JUMP JUMPDEST PUSH2 0x516 JUMP JUMPDEST PUSH2 0x1AA JUMP JUMPDEST SWAP1 POP SWAP2 SWAP1 POP JUMP JUMPDEST PUSH0 DUP2 SWAP1 POP SWAP2 SWAP1 POP JUMP JUMPDEST PUSH2 0x552 DUP4 PUSH2 0x51F JUMP JUMPDEST PUSH2 0x566 PUSH2 0x55E DUP3 PUSH2 0x540 JUMP JUMPDEST DUP5 DUP5 SLOAD PUSH2 0x4C5 JUMP JUMPDEST DUP3 SSTORE POP POP POP POP JUMP JUMPDEST PUSH0 PUSH0 SWAP1 POP SWAP1 JUMP JUMPDEST PUSH2 0x57D PUSH2 0x56E JUMP JUMPDEST PUSH2 0x588 DUP2 DUP5 DUP5 PUSH2 0x549 JUMP JUMPDEST POP POP POP JUMP JUMPDEST JUMPDEST DUP2 DUP2 LT ISZERO PUSH2 0x5AB JUMPI PUSH2 0x5A0 PUSH0 DUP3 PUSH2 0x575 JUMP JUMPDEST PUSH1 0x1 DUP2 ADD SWAP1 POP PUSH2 0x58E JUMP JUMPDEST POP POP JUMP JUMPDEST PUSH1 0x1F DUP3 GT ISZERO PUSH2 0x5F0 JUMPI PUSH2 0x5C1 DUP2 PUSH2 0x498 JUMP JUMPDEST PUSH2 0x5CA DUP5 PUSH2 0x4AA JUMP JUMPDEST DUP2 ADD PUSH1 0x20 DUP6 LT ISZERO PUSH2 0x5D9 JUMPI DUP2 SWAP1 POP JUMPDEST PUSH2 0x5ED PUSH2 0x5E5 DUP6 PUSH2 0x4AA JUMP JUMPDEST DUP4 ADD DUP3 PUSH2 0x58D JUMP JUMPDEST POP POP JUMPDEST POP POP POP JUMP JUMPDEST PUSH0 DUP3 DUP3 SHR SWAP1 POP SWAP3 SWAP2 POP POP JUMP JUMPDEST PUSH0 PUSH2 0x610 PUSH0 NOT DUP5 PUSH1 0x8 MUL PUSH2 0x5F5 JUMP JUMPDEST NOT DUP1 DUP4 AND SWAP2 POP POP SWAP3 SWAP2 POP POP JUMP JUMPDEST PUSH0 PUSH2 0x628 DUP4 DUP4 PUSH2 0x601 JUMP JUMPDEST SWAP2 POP DUP3 PUSH1 0x2 MUL DUP3 OR SWAP1 POP SWAP3 SWAP2 POP POP JUMP JUMPDEST PUSH2 0x641 DUP3 PUSH2 0x208 JUMP JUMPDEST PUSH8 0xFFFFFFFFFFFFFFFF DUP2 GT ISZERO PUSH2 0x65A JUMPI PUSH2 0x659 PUSH2 0x2BD JUMP JUMPDEST JUMPDEST PUSH2 0x664 DUP3 SLOAD PUSH2 0x468 JUMP JUMPDEST PUSH2 0x66F DUP3 DUP3 DUP6 PUSH2 0x5AF JUMP JUMPDEST PUSH0 PUSH1 0x20 SWAP1 POP PUSH1 0x1F DUP4 GT PUSH1 0x1 DUP2 EQ PUSH2 0x6A0 JUMPI PUSH0 DUP5 ISZERO PUSH2 0x68E JUMPI DUP3 DUP8 ADD MLOAD SWAP1 POP JUMPDEST PUSH2 0x698 DUP6 DUP3 PUSH2 0x61D JUMP JUMPDEST DUP7 SSTORE POP PUSH2 0x6FF JUMP JUMPDEST PUSH1 0x1F NOT DUP5 AND PUSH2 0x6AE DUP7 PUSH2 0x498 JUMP JUMPDEST PUSH0 JUMPDEST DUP3 DUP2 LT ISZERO PUSH2 0x6D5 JUMPI DUP5 DUP10 ADD MLOAD DUP3 SSTORE PUSH1 0x1 DUP3 ADD SWAP2 POP PUSH1 0x20 DUP6 ADD SWAP5 POP PUSH1 0x20 DUP2 ADD SWAP1 POP PUSH2 0x6B0 JUMP JUMPDEST DUP7 DUP4 LT ISZERO PUSH2 0x6F2 JUMPI DUP5 DUP10 ADD MLOAD PUSH2 0x6EE PUSH1 0x1F DUP10 AND DUP3 PUSH2 0x601 JUMP JUMPDEST DUP4 SSTORE POP JUMPDEST PUSH1 0x1 PUSH1 0x2 DUP9 MUL ADD DUP9 SSTORE POP POP POP JUMPDEST POP POP POP POP POP POP JUMP INVALID LOG2 PUSH5 0x6970667358 0x22 SLT KECCAK256 SWAP14 PUSH13 0x8274291F7C0B5E5707F6AE972A CALLVALUE PUSH21 0xD4AB19D545478D2839147844367EB564736F6C6343 STOP ADDMOD 0x1F STOP CALLER LOG2 PUSH5 0x6970667358 0x22 SLT KECCAK256 DUP13 RETURN SHL SHR MSTORE8 NOT MSIZE 0x2C SAR 0xE DUP14 PUSH13 0x13D54E41560DD2E2C99325B7C8 0xBE 0x2C DUP12 SWAPN 0x85 0xB9 SIGNEXTEND PUSH5 0x736F6C6343 STOP ADDMOD 0x1F STOP CALLER "
		},
		"gasEstimates": {
			"creation": {
				"codeDepositCost": "3620800",
				"executionCost": "4070",
				"totalCost": "3624870"
			},
			"external": {
				"addCourseToSchoo(uint256,string,string,uint256,string)": "infinite",
				"addLecturerToSchool(uint256,string,uint256)": "infinite",
				"getMySchool(uint256)": "infinite",
				"getMySchools()": "infinite",
				"registerSchool(string,string,string,string)": "infinite",
				"schools(uint256)": "infinite"
			},
			"internal": {
				"_getMySchool(uint256)": "infinite"
			}
		},
		"methodIdentifiers": {
			"addCourseToSchoo(uint256,string,string,uint256,string)": "6148e637",
			"addLecturerToSchool(uint256,string,uint256)": "facb18c2",
			"getMySchool(uint256)": "5456568f",
			"getMySchools()": "cd8947bf",
			"registerSchool(string,string,string,string)": "5dfbf120",
			"schools(uint256)": "719c0d04"
		}
	},
	"abi": [
		{
			"inputs": [
				{
					"internalType": "uint256",
					"name": "_schoolId",
					"type": "uint256"
				},
				{
					"internalType": "string",
					"name": "_courseTitle",
					"type": "string"
				},
				{
					"internalType": "string",
					"name": "_courseCode",
					"type": "string"
				},
				{
					"internalType": "uint256",
					"name": "_courseUnit",
					"type": "uint256"
				},
				{
					"internalType": "string",
					"name": "_lecturerName",
					"type": "string"
				}
			],
			"name": "addCourseToSchoo",
			"outputs": [],
			"stateMutability": "nonpayable",
			"type": "function"
		},
		{
			"inputs": [
				{
					"internalType": "uint256",
					"name": "_schoolId",
					"type": "uint256"
				},
				{
					"internalType": "string",
					"name": "_name",
					"type": "string"
				},
				{
					"internalType": "uint256",
					"name": "_age",
					"type": "uint256"
				}
			],
			"name": "addLecturerToSchool",
			"outputs": [],
			"stateMutability": "nonpayable",
			"type": "function"
		},
		{
			"inputs": [
				{
					"internalType": "uint256",
					"name": "_schoolId",
					"type": "uint256"
				}
			],
			"name": "getMySchool",
			"outputs": [
				{
					"components": [
						{
							"internalType": "uint256",
							"name": "id",
							"type": "uint256"
						},
						{
							"internalType": "string",
							"name": "name",
							"type": "string"
						},
						{
							"internalType": "string",
							"name": "country",
							"type": "string"
						},
						{
							"internalType": "string",
							"name": "city",
							"type": "string"
						},
						{
							"internalType": "string",
							"name": "schoolAddress",
							"type": "string"
						},
						{
							"internalType": "address",
							"name": "owner",
							"type": "address"
						},
						{
							"internalType": "contract Courses",
							"name": "courses",
							"type": "address"
						},
						{
							"internalType": "contract StudentRecords",
							"name": "students",
							"type": "address"
						},
						{
							"internalType": "contract Lecturers",
							"name": "lecturers",
							"type": "address"
						}
					],
					"internalType": "struct SchoolFactory.School",
					"name": "",
					"type": "tuple"
				}
			],
			"stateMutability": "view",
			"type": "function"
		},
		{
			"inputs": [],
			"name": "getMySchools",
			"outputs": [
				{
					"components": [
						{
							"internalType": "uint256",
							"name": "id",
							"type": "uint256"
						},
						{
							"internalType": "string",
							"name": "name",
							"type": "string"
						},
						{
							"internalType": "string",
							"name": "country",
							"type": "string"
						},
						{
							"internalType": "string",
							"name": "city",
							"type": "string"
						},
						{
							"internalType": "string",
							"name": "schoolAddress",
							"type": "string"
						},
						{
							"internalType": "address",
							"name": "owner",
							"type": "address"
						},
						{
							"internalType": "contract Courses",
							"name": "courses",
							"type": "address"
						},
						{
							"internalType": "contract StudentRecords",
							"name": "students",
							"type": "address"
						},
						{
							"internalType": "contract Lecturers",
							"name": "lecturers",
							"type": "address"
						}
					],
					"internalType": "struct SchoolFactory.School[]",
					"name": "",
					"type": "tuple[]"
				}
			],
			"stateMutability": "view",
			"type": "function"
		},
		{
			"inputs": [
				{
					"internalType": "string",
					"name": "_name",
					"type": "string"
				},
				{
					"internalType": "string",
					"name": "_country",
					"type": "string"
				},
				{
					"internalType": "string",
					"name": "_city",
					"type": "string"
				},
				{
					"internalType": "string",
					"name": "_schoolAddress",
					"type": "string"
				}
			],
			"name": "registerSchool",
			"outputs": [],
			"stateMutability": "nonpayable",
			"type": "function"
		},
		{
			"inputs": [
				{
					"internalType": "uint256",
					"name": "",
					"type": "uint256"
				}
			],
			"name": "schools",
			"outputs": [
				{
					"internalType": "uint256",
					"name": "id",
					"type": "uint256"
				},
				{
					"internalType": "string",
					"name": "name",
					"type": "string"
				},
				{
					"internalType": "string",
					"name": "country",
					"type": "string"
				},
				{
					"internalType": "string",
					"name": "city",
					"type": "string"
				},
				{
					"internalType": "string",
					"name": "schoolAddress",
					"type": "string"
				},
				{
					"internalType": "address",
					"name": "owner",
					"type": "address"
				},
				{
					"internalType": "contract Courses",
					"name": "courses",
					"type": "address"
				},
				{
					"internalType": "contract StudentRecords",
					"name": "students",
					"type": "address"
				},
				{
					"internalType": "contract Lecturers",
					"name": "lecturers",
					"type": "address"
				}
			],
			"stateMutability": "view",
			"type": "function"
		}
	]
}