{
	"data": {
		"bytecode": {
			"linkReferences": {},
			"object": "6080604052348015600e575f5ffd5b506110ef8061001c5f395ff3fe608060405234801561000f575f5ffd5b506004361061003f575f3560e01c806306ead22e146100435780638917d33c14610076578063f1d064b314610092575b5f5ffd5b61005d60048036038101906100589190610777565b6100b0565b60405161006d9493929190610821565b60405180910390f35b610090600480360381019061008b91906109a5565b61027c565b005b61009a610505565b6040516100a79190610bdd565b60405180910390f35b5f81815481106100be575f80fd5b905f5260205f2090600402015f91509050805f0180546100dd90610c2a565b80601f016020809104026020016040519081016040528092919081815260200182805461010990610c2a565b80156101545780601f1061012b57610100808354040283529160200191610154565b820191905f5260205f20905b81548152906001019060200180831161013757829003601f168201915b50505050509080600101549080600201805461016f90610c2a565b80601f016020809104026020016040519081016040528092919081815260200182805461019b90610c2a565b80156101e65780601f106101bd576101008083540402835291602001916101e6565b820191905f5260205f20905b8154815290600101906020018083116101c957829003601f168201915b5050505050908060030180546101fb90610c2a565b80601f016020809104026020016040519081016040528092919081815260200182805461022790610c2a565b80156102725780601f1061024957610100808354040283529160200191610272565b820191905f5260205f20905b81548152906001019060200180831161025557829003601f168201915b5050505050905084565b5f8451116102bf576040517f08c379a00000000000000000000000000000000000000000000000000000000081526004016102b690610ca4565b60405180910390fd5b60118311610302576040517f08c379a00000000000000000000000000000000000000000000000000000000081526004016102f990610d0c565b60405180910390fd5b610341826040518060400160405280600481526020017f6d616c6500000000000000000000000000000000000000000000000000000000815250610719565b806103875750610386826040518060400160405280600681526020017f66656d616c650000000000000000000000000000000000000000000000000000815250610719565b5b6103c6576040517f08c379a00000000000000000000000000000000000000000000000000000000081526004016103bd90610d74565b60405180910390fd5b6001846040516103d69190610dcc565b90815260200160405180910390205f9054906101000a900460ff1615610431576040517f08c379a000000000000000000000000000000000000000000000000000000000815260040161042890610e2c565b60405180910390fd5b600180856040516104429190610dcc565b90815260200160405180910390205f6101000a81548160ff0219169083151502179055505f60405180608001604052808681526020018581526020018481526020018381525090505f81908060018154018082558091505060019003905f5260205f2090600402015f909190919091505f820151815f0190816104c59190610fea565b506020820151816001015560408201518160020190816104e59190610fea565b5060608201518160030190816104fb9190610fea565b5050505050505050565b60605f805480602002602001604051908101604052809291908181526020015f905b82821015610710578382905f5260205f2090600402016040518060800160405290815f8201805461055790610c2a565b80601f016020809104026020016040519081016040528092919081815260200182805461058390610c2a565b80156105ce5780601f106105a5576101008083540402835291602001916105ce565b820191905f5260205f20905b8154815290600101906020018083116105b157829003601f168201915b50505050508152602001600182015481526020016002820180546105f190610c2a565b80601f016020809104026020016040519081016040528092919081815260200182805461061d90610c2a565b80156106685780601f1061063f57610100808354040283529160200191610668565b820191905f5260205f20905b81548152906001019060200180831161064b57829003601f168201915b5050505050815260200160038201805461068190610c2a565b80601f01602080910402602001604051908101604052809291908181526020018280546106ad90610c2a565b80156106f85780601f106106cf576101008083540402835291602001916106f8565b820191905f5260205f20905b8154815290600101906020018083116106db57829003601f168201915b50505050508152505081526020019060010190610527565b50505050905090565b5f8180519060200120838051906020012014905092915050565b5f604051905090565b5f5ffd5b5f5ffd5b5f819050919050565b61075681610744565b8114610760575f5ffd5b50565b5f813590506107718161074d565b92915050565b5f6020828403121561078c5761078b61073c565b5b5f61079984828501610763565b91505092915050565b5f81519050919050565b5f82825260208201905092915050565b8281835e5f83830152505050565b5f601f19601f8301169050919050565b5f6107e4826107a2565b6107ee81856107ac565b93506107fe8185602086016107bc565b610807816107ca565b840191505092915050565b61081b81610744565b82525050565b5f6080820190508181035f83015261083981876107da565b90506108486020830186610812565b818103604083015261085a81856107da565b9050818103606083015261086e81846107da565b905095945050505050565b5f5ffd5b5f5ffd5b7f4e487b71000000000000000000000000000000000000000000000000000000005f52604160045260245ffd5b6108b7826107ca565b810181811067ffffffffffffffff821117156108d6576108d5610881565b5b80604052505050565b5f6108e8610733565b90506108f482826108ae565b919050565b5f67ffffffffffffffff82111561091357610912610881565b5b61091c826107ca565b9050602081019050919050565b828183375f83830152505050565b5f610949610944846108f9565b6108df565b9050828152602081018484840111156109655761096461087d565b5b610970848285610929565b509392505050565b5f82601f83011261098c5761098b610879565b5b813561099c848260208601610937565b91505092915050565b5f5f5f5f608085870312156109bd576109bc61073c565b5b5f85013567ffffffffffffffff8111156109da576109d9610740565b5b6109e687828801610978565b94505060206109f787828801610763565b935050604085013567ffffffffffffffff811115610a1857610a17610740565b5b610a2487828801610978565b925050606085013567ffffffffffffffff811115610a4557610a44610740565b5b610a5187828801610978565b91505092959194509250565b5f81519050919050565b5f82825260208201905092915050565b5f819050602082019050919050565b5f82825260208201905092915050565b5f610aa0826107a2565b610aaa8185610a86565b9350610aba8185602086016107bc565b610ac3816107ca565b840191505092915050565b610ad781610744565b82525050565b5f608083015f8301518482035f860152610af78282610a96565b9150506020830151610b0c6020860182610ace565b5060408301518482036040860152610b248282610a96565b91505060608301518482036060860152610b3e8282610a96565b9150508091505092915050565b5f610b568383610add565b905092915050565b5f602082019050919050565b5f610b7482610a5d565b610b7e8185610a67565b935083602082028501610b9085610a77565b805f5b85811015610bcb5784840389528151610bac8582610b4b565b9450610bb783610b5e565b925060208a01995050600181019050610b93565b50829750879550505050505092915050565b5f6020820190508181035f830152610bf58184610b6a565b905092915050565b7f4e487b71000000000000000000000000000000000000000000000000000000005f52602260045260245ffd5b5f6002820490506001821680610c4157607f821691505b602082108103610c5457610c53610bfd565b5b50919050565b7f4e616d652063616e6e6f7420626520656d7074790000000000000000000000005f82015250565b5f610c8e6014836107ac565b9150610c9982610c5a565b602082019050919050565b5f6020820190508181035f830152610cbb81610c82565b9050919050565b7f4167652063616e6e6f74206265206c657373207468616e2031370000000000005f82015250565b5f610cf6601a836107ac565b9150610d0182610cc2565b602082019050919050565b5f6020820190508181035f830152610d2381610cea565b9050919050565b7f47656e646572206d757374206265206d616c65206f722066656d616c650000005f82015250565b5f610d5e601d836107ac565b9150610d6982610d2a565b602082019050919050565b5f6020820190508181035f830152610d8b81610d52565b9050919050565b5f81905092915050565b5f610da6826107a2565b610db08185610d92565b9350610dc08185602086016107bc565b80840191505092915050565b5f610dd78284610d9c565b915081905092915050565b7f53747564656e7420616c726561647920726567697374657265642100000000005f82015250565b5f610e16601b836107ac565b9150610e2182610de2565b602082019050919050565b5f6020820190508181035f830152610e4381610e0a565b9050919050565b5f819050815f5260205f209050919050565b5f6020601f8301049050919050565b5f82821b905092915050565b5f60088302610ea67fffffffffffffffffffffffffffffffffffffffffffffffffffffffffffffffff82610e6b565b610eb08683610e6b565b95508019841693508086168417925050509392505050565b5f819050919050565b5f610eeb610ee6610ee184610744565b610ec8565b610744565b9050919050565b5f819050919050565b610f0483610ed1565b610f18610f1082610ef2565b848454610e77565b825550505050565b5f5f905090565b610f2f610f20565b610f3a818484610efb565b505050565b5b81811015610f5d57610f525f82610f27565b600181019050610f40565b5050565b601f821115610fa257610f7381610e4a565b610f7c84610e5c565b81016020851015610f8b578190505b610f9f610f9785610e5c565b830182610f3f565b50505b505050565b5f82821c905092915050565b5f610fc25f1984600802610fa7565b1980831691505092915050565b5f610fda8383610fb3565b9150826002028217905092915050565b610ff3826107a2565b67ffffffffffffffff81111561100c5761100b610881565b5b6110168254610c2a565b611021828285610f61565b5f60209050601f831160018114611052575f8415611040578287015190505b61104a8582610fcf565b8655506110b1565b601f19841661106086610e4a565b5f5b8281101561108757848901518255600182019150602085019450602081019050611062565b868310156110a457848901516110a0601f891682610fb3565b8355505b6001600288020188555050505b50505050505056fea26469706673582212209164ae016f786afb3b6186cfa5fee4f231cf6c1b06659cd8c635bc5c336c25dc64736f6c634300081f0033",
			"opcodes": "PUSH1 0x80 PUSH1 0x40 MSTORE CALLVALUE DUP1 ISZERO PUSH1 0xE JUMPI PUSH0 PUSH0 REVERT JUMPDEST POP PUSH2 0x10EF DUP1 PUSH2 0x1C PUSH0 CODECOPY PUSH0 RETURN INVALID PUSH1 0x80 PUSH1 0x40 MSTORE CALLVALUE DUP1 ISZERO PUSH2 0xF JUMPI PUSH0 PUSH0 REVERT JUMPDEST POP PUSH1 0x4 CALLDATASIZE LT PUSH2 0x3F JUMPI PUSH0 CALLDATALOAD PUSH1 0xE0 SHR DUP1 PUSH4 0x6EAD22E EQ PUSH2 0x43 JUMPI DUP1 PUSH4 0x8917D33C EQ PUSH2 0x76 JUMPI DUP1 PUSH4 0xF1D064B3 EQ PUSH2 0x92 JUMPI JUMPDEST PUSH0 PUSH0 REVERT JUMPDEST PUSH2 0x5D PUSH1 0x4 DUP1 CALLDATASIZE SUB DUP2 ADD SWAP1 PUSH2 0x58 SWAP2 SWAP1 PUSH2 0x777 JUMP JUMPDEST PUSH2 0xB0 JUMP JUMPDEST PUSH1 0x40 MLOAD PUSH2 0x6D SWAP5 SWAP4 SWAP3 SWAP2 SWAP1 PUSH2 0x821 JUMP JUMPDEST PUSH1 0x40 MLOAD DUP1 SWAP2 SUB SWAP1 RETURN JUMPDEST PUSH2 0x90 PUSH1 0x4 DUP1 CALLDATASIZE SUB DUP2 ADD SWAP1 PUSH2 0x8B SWAP2 SWAP1 PUSH2 0x9A5 JUMP JUMPDEST PUSH2 0x27C JUMP JUMPDEST STOP JUMPDEST PUSH2 0x9A PUSH2 0x505 JUMP JUMPDEST PUSH1 0x40 MLOAD PUSH2 0xA7 SWAP2 SWAP1 PUSH2 0xBDD JUMP JUMPDEST PUSH1 0x40 MLOAD DUP1 SWAP2 SUB SWAP1 RETURN JUMPDEST PUSH0 DUP2 DUP2 SLOAD DUP2 LT PUSH2 0xBE JUMPI PUSH0 DUP1 REVERT JUMPDEST SWAP1 PUSH0 MSTORE PUSH1 0x20 PUSH0 KECCAK256 SWAP1 PUSH1 0x4 MUL ADD PUSH0 SWAP2 POP SWAP1 POP DUP1 PUSH0 ADD DUP1 SLOAD PUSH2 0xDD SWAP1 PUSH2 0xC2A JUMP JUMPDEST DUP1 PUSH1 0x1F ADD PUSH1 0x20 DUP1 SWAP2 DIV MUL PUSH1 0x20 ADD PUSH1 0x40 MLOAD SWAP1 DUP2 ADD PUSH1 0x40 MSTORE DUP1 SWAP3 SWAP2 SWAP1 DUP2 DUP2 MSTORE PUSH1 0x20 ADD DUP3 DUP1 SLOAD PUSH2 0x109 SWAP1 PUSH2 0xC2A JUMP JUMPDEST DUP1 ISZERO PUSH2 0x154 JUMPI DUP1 PUSH1 0x1F LT PUSH2 0x12B JUMPI PUSH2 0x100 DUP1 DUP4 SLOAD DIV MUL DUP4 MSTORE SWAP2 PUSH1 0x20 ADD SWAP2 PUSH2 0x154 JUMP JUMPDEST DUP3 ADD SWAP2 SWAP1 PUSH0 MSTORE PUSH1 0x20 PUSH0 KECCAK256 SWAP1 JUMPDEST DUP2 SLOAD DUP2 MSTORE SWAP1 PUSH1 0x1 ADD SWAP1 PUSH1 0x20 ADD DUP1 DUP4 GT PUSH2 0x137 JUMPI DUP3 SWAP1 SUB PUSH1 0x1F AND DUP3 ADD SWAP2 JUMPDEST POP POP POP POP POP SWAP1 DUP1 PUSH1 0x1 ADD SLOAD SWAP1 DUP1 PUSH1 0x2 ADD DUP1 SLOAD PUSH2 0x16F SWAP1 PUSH2 0xC2A JUMP JUMPDEST DUP1 PUSH1 0x1F ADD PUSH1 0x20 DUP1 SWAP2 DIV MUL PUSH1 0x20 ADD PUSH1 0x40 MLOAD SWAP1 DUP2 ADD PUSH1 0x40 MSTORE DUP1 SWAP3 SWAP2 SWAP1 DUP2 DUP2 MSTORE PUSH1 0x20 ADD DUP3 DUP1 SLOAD PUSH2 0x19B SWAP1 PUSH2 0xC2A JUMP JUMPDEST DUP1 ISZERO PUSH2 0x1E6 JUMPI DUP1 PUSH1 0x1F LT PUSH2 0x1BD JUMPI PUSH2 0x100 DUP1 DUP4 SLOAD DIV MUL DUP4 MSTORE SWAP2 PUSH1 0x20 ADD SWAP2 PUSH2 0x1E6 JUMP JUMPDEST DUP3 ADD SWAP2 SWAP1 PUSH0 MSTORE PUSH1 0x20 PUSH0 KECCAK256 SWAP1 JUMPDEST DUP2 SLOAD DUP2 MSTORE SWAP1 PUSH1 0x1 ADD SWAP1 PUSH1 0x20 ADD DUP1 DUP4 GT PUSH2 0x1C9 JUMPI DUP3 SWAP1 SUB PUSH1 0x1F AND DUP3 ADD SWAP2 JUMPDEST POP POP POP POP POP SWAP1 DUP1 PUSH1 0x3 ADD DUP1 SLOAD PUSH2 0x1FB SWAP1 PUSH2 0xC2A JUMP JUMPDEST DUP1 PUSH1 0x1F ADD PUSH1 0x20 DUP1 SWAP2 DIV MUL PUSH1 0x20 ADD PUSH1 0x40 MLOAD SWAP1 DUP2 ADD PUSH1 0x40 MSTORE DUP1 SWAP3 SWAP2 SWAP1 DUP2 DUP2 MSTORE PUSH1 0x20 ADD DUP3 DUP1 SLOAD PUSH2 0x227 SWAP1 PUSH2 0xC2A JUMP JUMPDEST DUP1 ISZERO PUSH2 0x272 JUMPI DUP1 PUSH1 0x1F LT PUSH2 0x249 JUMPI PUSH2 0x100 DUP1 DUP4 SLOAD DIV MUL DUP4 MSTORE SWAP2 PUSH1 0x20 ADD SWAP2 PUSH2 0x272 JUMP JUMPDEST DUP3 ADD SWAP2 SWAP1 PUSH0 MSTORE PUSH1 0x20 PUSH0 KECCAK256 SWAP1 JUMPDEST DUP2 SLOAD DUP2 MSTORE SWAP1 PUSH1 0x1 ADD SWAP1 PUSH1 0x20 ADD DUP1 DUP4 GT PUSH2 0x255 JUMPI DUP3 SWAP1 SUB PUSH1 0x1F AND DUP3 ADD SWAP2 JUMPDEST POP POP POP POP POP SWAP1 POP DUP5 JUMP JUMPDEST PUSH0 DUP5 MLOAD GT PUSH2 0x2BF JUMPI PUSH1 0x40 MLOAD PUSH32 0x8C379A000000000000000000000000000000000000000000000000000000000 DUP2 MSTORE PUSH1 0x4 ADD PUSH2 0x2B6 SWAP1 PUSH2 0xCA4 JUMP JUMPDEST PUSH1 0x40 MLOAD DUP1 SWAP2 SUB SWAP1 REVERT JUMPDEST PUSH1 0x11 DUP4 GT PUSH2 0x302 JUMPI PUSH1 0x40 MLOAD PUSH32 0x8C379A000000000000000000000000000000000000000000000000000000000 DUP2 MSTORE PUSH1 0x4 ADD PUSH2 0x2F9 SWAP1 PUSH2 0xD0C JUMP JUMPDEST PUSH1 0x40 MLOAD DUP1 SWAP2 SUB SWAP1 REVERT JUMPDEST PUSH2 0x341 DUP3 PUSH1 0x40 MLOAD DUP1 PUSH1 0x40 ADD PUSH1 0x40 MSTORE DUP1 PUSH1 0x4 DUP2 MSTORE PUSH1 0x20 ADD PUSH32 0x6D616C6500000000000000000000000000000000000000000000000000000000 DUP2 MSTORE POP PUSH2 0x719 JUMP JUMPDEST DUP1 PUSH2 0x387 JUMPI POP PUSH2 0x386 DUP3 PUSH1 0x40 MLOAD DUP1 PUSH1 0x40 ADD PUSH1 0x40 MSTORE DUP1 PUSH1 0x6 DUP2 MSTORE PUSH1 0x20 ADD PUSH32 0x66656D616C650000000000000000000000000000000000000000000000000000 DUP2 MSTORE POP PUSH2 0x719 JUMP JUMPDEST JUMPDEST PUSH2 0x3C6 JUMPI PUSH1 0x40 MLOAD PUSH32 0x8C379A000000000000000000000000000000000000000000000000000000000 DUP2 MSTORE PUSH1 0x4 ADD PUSH2 0x3BD SWAP1 PUSH2 0xD74 JUMP JUMPDEST PUSH1 0x40 MLOAD DUP1 SWAP2 SUB SWAP1 REVERT JUMPDEST PUSH1 0x1 DUP5 PUSH1 0x40 MLOAD PUSH2 0x3D6 SWAP2 SWAP1 PUSH2 0xDCC JUMP JUMPDEST SWAP1 DUP2 MSTORE PUSH1 0x20 ADD PUSH1 0x40 MLOAD DUP1 SWAP2 SUB SWAP1 KECCAK256 PUSH0 SWAP1 SLOAD SWAP1 PUSH2 0x100 EXP SWAP1 DIV PUSH1 0xFF AND ISZERO PUSH2 0x431 JUMPI PUSH1 0x40 MLOAD PUSH32 0x8C379A000000000000000000000000000000000000000000000000000000000 DUP2 MSTORE PUSH1 0x4 ADD PUSH2 0x428 SWAP1 PUSH2 0xE2C JUMP JUMPDEST PUSH1 0x40 MLOAD DUP1 SWAP2 SUB SWAP1 REVERT JUMPDEST PUSH1 0x1 DUP1 DUP6 PUSH1 0x40 MLOAD PUSH2 0x442 SWAP2 SWAP1 PUSH2 0xDCC JUMP JUMPDEST SWAP1 DUP2 MSTORE PUSH1 0x20 ADD PUSH1 0x40 MLOAD DUP1 SWAP2 SUB SWAP1 KECCAK256 PUSH0 PUSH2 0x100 EXP DUP2 SLOAD DUP2 PUSH1 0xFF MUL NOT AND SWAP1 DUP4 ISZERO ISZERO MUL OR SWAP1 SSTORE POP PUSH0 PUSH1 0x40 MLOAD DUP1 PUSH1 0x80 ADD PUSH1 0x40 MSTORE DUP1 DUP7 DUP2 MSTORE PUSH1 0x20 ADD DUP6 DUP2 MSTORE PUSH1 0x20 ADD DUP5 DUP2 MSTORE PUSH1 0x20 ADD DUP4 DUP2 MSTORE POP SWAP1 POP PUSH0 DUP2 SWAP1 DUP1 PUSH1 0x1 DUP2 SLOAD ADD DUP1 DUP3 SSTORE DUP1 SWAP2 POP POP PUSH1 0x1 SWAP1 SUB SWAP1 PUSH0 MSTORE PUSH1 0x20 PUSH0 KECCAK256 SWAP1 PUSH1 0x4 MUL ADD PUSH0 SWAP1 SWAP2 SWAP1 SWAP2 SWAP1 SWAP2 POP PUSH0 DUP3 ADD MLOAD DUP2 PUSH0 ADD SWAP1 DUP2 PUSH2 0x4C5 SWAP2 SWAP1 PUSH2 0xFEA JUMP JUMPDEST POP PUSH1 0x20 DUP3 ADD MLOAD DUP2 PUSH1 0x1 ADD SSTORE PUSH1 0x40 DUP3 ADD MLOAD DUP2 PUSH1 0x2 ADD SWAP1 DUP2 PUSH2 0x4E5 SWAP2 SWAP1 PUSH2 0xFEA JUMP JUMPDEST POP PUSH1 0x60 DUP3 ADD MLOAD DUP2 PUSH1 0x3 ADD SWAP1 DUP2 PUSH2 0x4FB SWAP2 SWAP1 PUSH2 0xFEA JUMP JUMPDEST POP POP POP POP POP POP POP POP JUMP JUMPDEST PUSH1 0x60 PUSH0 DUP1 SLOAD DUP1 PUSH1 0x20 MUL PUSH1 0x20 ADD PUSH1 0x40 MLOAD SWAP1 DUP2 ADD PUSH1 0x40 MSTORE DUP1 SWAP3 SWAP2 SWAP1 DUP2 DUP2 MSTORE PUSH1 0x20 ADD PUSH0 SWAP1 JUMPDEST DUP3 DUP3 LT ISZERO PUSH2 0x710 JUMPI DUP4 DUP3 SWAP1 PUSH0 MSTORE PUSH1 0x20 PUSH0 KECCAK256 SWAP1 PUSH1 0x4 MUL ADD PUSH1 0x40 MLOAD DUP1 PUSH1 0x80 ADD PUSH1 0x40 MSTORE SWAP1 DUP2 PUSH0 DUP3 ADD DUP1 SLOAD PUSH2 0x557 SWAP1 PUSH2 0xC2A JUMP JUMPDEST DUP1 PUSH1 0x1F ADD PUSH1 0x20 DUP1 SWAP2 DIV MUL PUSH1 0x20 ADD PUSH1 0x40 MLOAD SWAP1 DUP2 ADD PUSH1 0x40 MSTORE DUP1 SWAP3 SWAP2 SWAP1 DUP2 DUP2 MSTORE PUSH1 0x20 ADD DUP3 DUP1 SLOAD PUSH2 0x583 SWAP1 PUSH2 0xC2A JUMP JUMPDEST DUP1 ISZERO PUSH2 0x5CE JUMPI DUP1 PUSH1 0x1F LT PUSH2 0x5A5 JUMPI PUSH2 0x100 DUP1 DUP4 SLOAD DIV MUL DUP4 MSTORE SWAP2 PUSH1 0x20 ADD SWAP2 PUSH2 0x5CE JUMP JUMPDEST DUP3 ADD SWAP2 SWAP1 PUSH0 MSTORE PUSH1 0x20 PUSH0 KECCAK256 SWAP1 JUMPDEST DUP2 SLOAD DUP2 MSTORE SWAP1 PUSH1 0x1 ADD SWAP1 PUSH1 0x20 ADD DUP1 DUP4 GT PUSH2 0x5B1 JUMPI DUP3 SWAP1 SUB PUSH1 0x1F AND DUP3 ADD SWAP2 JUMPDEST POP POP POP POP POP DUP2 MSTORE PUSH1 0x20 ADD PUSH1 0x1 DUP3 ADD SLOAD DUP2 MSTORE PUSH1 0x20 ADD PUSH1 0x2 DUP3 ADD DUP1 SLOAD PUSH2 0x5F1 SWAP1 PUSH2 0xC2A JUMP JUMPDEST DUP1 PUSH1 0x1F ADD PUSH1 0x20 DUP1 SWAP2 DIV MUL PUSH1 0x20 ADD PUSH1 0x40 MLOAD SWAP1 DUP2 ADD PUSH1 0x40 MSTORE DUP1 SWAP3 SWAP2 SWAP1 DUP2 DUP2 MSTORE PUSH1 0x20 ADD DUP3 DUP1 SLOAD PUSH2 0x61D SWAP1 PUSH2 0xC2A JUMP JUMPDEST DUP1 ISZERO PUSH2 0x668 JUMPI DUP1 PUSH1 0x1F LT PUSH2 0x63F JUMPI PUSH2 0x100 DUP1 DUP4 SLOAD DIV MUL DUP4 MSTORE SWAP2 PUSH1 0x20 ADD SWAP2 PUSH2 0x668 JUMP JUMPDEST DUP3 ADD SWAP2 SWAP1 PUSH0 MSTORE PUSH1 0x20 PUSH0 KECCAK256 SWAP1 JUMPDEST DUP2 SLOAD DUP2 MSTORE SWAP1 PUSH1 0x1 ADD SWAP1 PUSH1 0x20 ADD DUP1 DUP4 GT PUSH2 0x64B JUMPI DUP3 SWAP1 SUB PUSH1 0x1F AND DUP3 ADD SWAP2 JUMPDEST POP POP POP POP POP DUP2 MSTORE PUSH1 0x20 ADD PUSH1 0x3 DUP3 ADD DUP1 SLOAD PUSH2 0x681 SWAP1 PUSH2 0xC2A JUMP JUMPDEST DUP1 PUSH1 0x1F ADD PUSH1 0x20 DUP1 SWAP2 DIV MUL PUSH1 0x20 ADD PUSH1 0x40 MLOAD SWAP1 DUP2 ADD PUSH1 0x40 MSTORE DUP1 SWAP3 SWAP2 SWAP1 DUP2 DUP2 MSTORE PUSH1 0x20 ADD DUP3 DUP1 SLOAD PUSH2 0x6AD SWAP1 PUSH2 0xC2A JUMP JUMPDEST DUP1 ISZERO PUSH2 0x6F8 JUMPI DUP1 PUSH1 0x1F LT PUSH2 0x6CF JUMPI PUSH2 0x100 DUP1 DUP4 SLOAD DIV MUL DUP4 MSTORE SWAP2 PUSH1 0x20 ADD SWAP2 PUSH2 0x6F8 JUMP JUMPDEST DUP3 ADD SWAP2 SWAP1 PUSH0 MSTORE PUSH1 0x20 PUSH0 KECCAK256 SWAP1 JUMPDEST DUP2 SLOAD DUP2 MSTORE SWAP1 PUSH1 0x1 ADD SWAP1 PUSH1 0x20 ADD DUP1 DUP4 GT PUSH2 0x6DB JUMPI DUP3 SWAP1 SUB PUSH1 0x1F AND DUP3 ADD SWAP2 JUMPDEST POP POP POP POP POP DUP2 MSTORE POP POP DUP2 MSTORE PUSH1 0x20 ADD SWAP1 PUSH1 0x1 ADD SWAP1 PUSH2 0x527 JUMP JUMPDEST POP POP POP POP SWAP1 POP SWAP1 JUMP JUMPDEST PUSH0 DUP2 DUP1 MLOAD SWAP1 PUSH1 0x20 ADD KECCAK256 DUP4 DUP1 MLOAD SWAP1 PUSH1 0x20 ADD KECCAK256 EQ SWAP1 POP SWAP3 SWAP2 POP POP JUMP JUMPDEST PUSH0 PUSH1 0x40 MLOAD SWAP1 POP SWAP1 JUMP JUMPDEST PUSH0 PUSH0 REVERT JUMPDEST PUSH0 PUSH0 REVERT JUMPDEST PUSH0 DUP2 SWAP1 POP SWAP2 SWAP1 POP JUMP JUMPDEST PUSH2 0x756 DUP2 PUSH2 0x744 JUMP JUMPDEST DUP2 EQ PUSH2 0x760 JUMPI PUSH0 PUSH0 REVERT JUMPDEST POP JUMP JUMPDEST PUSH0 DUP2 CALLDATALOAD SWAP1 POP PUSH2 0x771 DUP2 PUSH2 0x74D JUMP JUMPDEST SWAP3 SWAP2 POP POP JUMP JUMPDEST PUSH0 PUSH1 0x20 DUP3 DUP5 SUB SLT ISZERO PUSH2 0x78C JUMPI PUSH2 0x78B PUSH2 0x73C JUMP JUMPDEST JUMPDEST PUSH0 PUSH2 0x799 DUP5 DUP3 DUP6 ADD PUSH2 0x763 JUMP JUMPDEST SWAP2 POP POP SWAP3 SWAP2 POP POP JUMP JUMPDEST PUSH0 DUP2 MLOAD SWAP1 POP SWAP2 SWAP1 POP JUMP JUMPDEST PUSH0 DUP3 DUP3 MSTORE PUSH1 0x20 DUP3 ADD SWAP1 POP SWAP3 SWAP2 POP POP JUMP JUMPDEST DUP3 DUP2 DUP4 MCOPY PUSH0 DUP4 DUP4 ADD MSTORE POP POP POP JUMP JUMPDEST PUSH0 PUSH1 0x1F NOT PUSH1 0x1F DUP4 ADD AND SWAP1 POP SWAP2 SWAP1 POP JUMP JUMPDEST PUSH0 PUSH2 0x7E4 DUP3 PUSH2 0x7A2 JUMP JUMPDEST PUSH2 0x7EE DUP2 DUP6 PUSH2 0x7AC JUMP JUMPDEST SWAP4 POP PUSH2 0x7FE DUP2 DUP6 PUSH1 0x20 DUP7 ADD PUSH2 0x7BC JUMP JUMPDEST PUSH2 0x807 DUP2 PUSH2 0x7CA JUMP JUMPDEST DUP5 ADD SWAP2 POP POP SWAP3 SWAP2 POP POP JUMP JUMPDEST PUSH2 0x81B DUP2 PUSH2 0x744 JUMP JUMPDEST DUP3 MSTORE POP POP JUMP JUMPDEST PUSH0 PUSH1 0x80 DUP3 ADD SWAP1 POP DUP2 DUP2 SUB PUSH0 DUP4 ADD MSTORE PUSH2 0x839 DUP2 DUP8 PUSH2 0x7DA JUMP JUMPDEST SWAP1 POP PUSH2 0x848 PUSH1 0x20 DUP4 ADD DUP7 PUSH2 0x812 JUMP JUMPDEST DUP2 DUP2 SUB PUSH1 0x40 DUP4 ADD MSTORE PUSH2 0x85A DUP2 DUP6 PUSH2 0x7DA JUMP JUMPDEST SWAP1 POP DUP2 DUP2 SUB PUSH1 0x60 DUP4 ADD MSTORE PUSH2 0x86E DUP2 DUP5 PUSH2 0x7DA JUMP JUMPDEST SWAP1 POP SWAP6 SWAP5 POP POP POP POP POP JUMP JUMPDEST PUSH0 PUSH0 REVERT JUMPDEST PUSH0 PUSH0 REVERT JUMPDEST PUSH32 0x4E487B7100000000000000000000000000000000000000000000000000000000 PUSH0 MSTORE PUSH1 0x41 PUSH1 0x4 MSTORE PUSH1 0x24 PUSH0 REVERT JUMPDEST PUSH2 0x8B7 DUP3 PUSH2 0x7CA JUMP JUMPDEST DUP2 ADD DUP2 DUP2 LT PUSH8 0xFFFFFFFFFFFFFFFF DUP3 GT OR ISZERO PUSH2 0x8D6 JUMPI PUSH2 0x8D5 PUSH2 0x881 JUMP JUMPDEST JUMPDEST DUP1 PUSH1 0x40 MSTORE POP POP POP JUMP JUMPDEST PUSH0 PUSH2 0x8E8 PUSH2 0x733 JUMP JUMPDEST SWAP1 POP PUSH2 0x8F4 DUP3 DUP3 PUSH2 0x8AE JUMP JUMPDEST SWAP2 SWAP1 POP JUMP JUMPDEST PUSH0 PUSH8 0xFFFFFFFFFFFFFFFF DUP3 GT ISZERO PUSH2 0x913 JUMPI PUSH2 0x912 PUSH2 0x881 JUMP JUMPDEST JUMPDEST PUSH2 0x91C DUP3 PUSH2 0x7CA JUMP JUMPDEST SWAP1 POP PUSH1 0x20 DUP2 ADD SWAP1 POP SWAP2 SWAP1 POP JUMP JUMPDEST DUP3 DUP2 DUP4 CALLDATACOPY PUSH0 DUP4 DUP4 ADD MSTORE POP POP POP JUMP JUMPDEST PUSH0 PUSH2 0x949 PUSH2 0x944 DUP5 PUSH2 0x8F9 JUMP JUMPDEST PUSH2 0x8DF JUMP JUMPDEST SWAP1 POP DUP3 DUP2 MSTORE PUSH1 0x20 DUP2 ADD DUP5 DUP5 DUP5 ADD GT ISZERO PUSH2 0x965 JUMPI PUSH2 0x964 PUSH2 0x87D JUMP JUMPDEST JUMPDEST PUSH2 0x970 DUP5 DUP3 DUP6 PUSH2 0x929 JUMP JUMPDEST POP SWAP4 SWAP3 POP POP POP JUMP JUMPDEST PUSH0 DUP3 PUSH1 0x1F DUP4 ADD SLT PUSH2 0x98C JUMPI PUSH2 0x98B PUSH2 0x879 JUMP JUMPDEST JUMPDEST DUP2 CALLDATALOAD PUSH2 0x99C DUP5 DUP3 PUSH1 0x20 DUP7 ADD PUSH2 0x937 JUMP JUMPDEST SWAP2 POP POP SWAP3 SWAP2 POP POP JUMP JUMPDEST PUSH0 PUSH0 PUSH0 PUSH0 PUSH1 0x80 DUP6 DUP8 SUB SLT ISZERO PUSH2 0x9BD JUMPI PUSH2 0x9BC PUSH2 0x73C JUMP JUMPDEST JUMPDEST PUSH0 DUP6 ADD CALLDATALOAD PUSH8 0xFFFFFFFFFFFFFFFF DUP2 GT ISZERO PUSH2 0x9DA JUMPI PUSH2 0x9D9 PUSH2 0x740 JUMP JUMPDEST JUMPDEST PUSH2 0x9E6 DUP8 DUP3 DUP9 ADD PUSH2 0x978 JUMP JUMPDEST SWAP5 POP POP PUSH1 0x20 PUSH2 0x9F7 DUP8 DUP3 DUP9 ADD PUSH2 0x763 JUMP JUMPDEST SWAP4 POP POP PUSH1 0x40 DUP6 ADD CALLDATALOAD PUSH8 0xFFFFFFFFFFFFFFFF DUP2 GT ISZERO PUSH2 0xA18 JUMPI PUSH2 0xA17 PUSH2 0x740 JUMP JUMPDEST JUMPDEST PUSH2 0xA24 DUP8 DUP3 DUP9 ADD PUSH2 0x978 JUMP JUMPDEST SWAP3 POP POP PUSH1 0x60 DUP6 ADD CALLDATALOAD PUSH8 0xFFFFFFFFFFFFFFFF DUP2 GT ISZERO PUSH2 0xA45 JUMPI PUSH2 0xA44 PUSH2 0x740 JUMP JUMPDEST JUMPDEST PUSH2 0xA51 DUP8 DUP3 DUP9 ADD PUSH2 0x978 JUMP JUMPDEST SWAP2 POP POP SWAP3 SWAP6 SWAP2 SWAP5 POP SWAP3 POP JUMP JUMPDEST PUSH0 DUP2 MLOAD SWAP1 POP SWAP2 SWAP1 POP JUMP JUMPDEST PUSH0 DUP3 DUP3 MSTORE PUSH1 0x20 DUP3 ADD SWAP1 POP SWAP3 SWAP2 POP POP JUMP JUMPDEST PUSH0 DUP2 SWAP1 POP PUSH1 0x20 DUP3 ADD SWAP1 POP SWAP2 SWAP1 POP JUMP JUMPDEST PUSH0 DUP3 DUP3 MSTORE PUSH1 0x20 DUP3 ADD SWAP1 POP SWAP3 SWAP2 POP POP JUMP JUMPDEST PUSH0 PUSH2 0xAA0 DUP3 PUSH2 0x7A2 JUMP JUMPDEST PUSH2 0xAAA DUP2 DUP6 PUSH2 0xA86 JUMP JUMPDEST SWAP4 POP PUSH2 0xABA DUP2 DUP6 PUSH1 0x20 DUP7 ADD PUSH2 0x7BC JUMP JUMPDEST PUSH2 0xAC3 DUP2 PUSH2 0x7CA JUMP JUMPDEST DUP5 ADD SWAP2 POP POP SWAP3 SWAP2 POP POP JUMP JUMPDEST PUSH2 0xAD7 DUP2 PUSH2 0x744 JUMP JUMPDEST DUP3 MSTORE POP POP JUMP JUMPDEST PUSH0 PUSH1 0x80 DUP4 ADD PUSH0 DUP4 ADD MLOAD DUP5 DUP3 SUB PUSH0 DUP7 ADD MSTORE PUSH2 0xAF7 DUP3 DUP3 PUSH2 0xA96 JUMP JUMPDEST SWAP2 POP POP PUSH1 0x20 DUP4 ADD MLOAD PUSH2 0xB0C PUSH1 0x20 DUP7 ADD DUP3 PUSH2 0xACE JUMP JUMPDEST POP PUSH1 0x40 DUP4 ADD MLOAD DUP5 DUP3 SUB PUSH1 0x40 DUP7 ADD MSTORE PUSH2 0xB24 DUP3 DUP3 PUSH2 0xA96 JUMP JUMPDEST SWAP2 POP POP PUSH1 0x60 DUP4 ADD MLOAD DUP5 DUP3 SUB PUSH1 0x60 DUP7 ADD MSTORE PUSH2 0xB3E DUP3 DUP3 PUSH2 0xA96 JUMP JUMPDEST SWAP2 POP POP DUP1 SWAP2 POP POP SWAP3 SWAP2 POP POP JUMP JUMPDEST PUSH0 PUSH2 0xB56 DUP4 DUP4 PUSH2 0xADD JUMP JUMPDEST SWAP1 POP SWAP3 SWAP2 POP POP JUMP JUMPDEST PUSH0 PUSH1 0x20 DUP3 ADD SWAP1 POP SWAP2 SWAP1 POP JUMP JUMPDEST PUSH0 PUSH2 0xB74 DUP3 PUSH2 0xA5D JUMP JUMPDEST PUSH2 0xB7E DUP2 DUP6 PUSH2 0xA67 JUMP JUMPDEST SWAP4 POP DUP4 PUSH1 0x20 DUP3 MUL DUP6 ADD PUSH2 0xB90 DUP6 PUSH2 0xA77 JUMP JUMPDEST DUP1 PUSH0 JUMPDEST DUP6 DUP2 LT ISZERO PUSH2 0xBCB JUMPI DUP5 DUP5 SUB DUP10 MSTORE DUP2 MLOAD PUSH2 0xBAC DUP6 DUP3 PUSH2 0xB4B JUMP JUMPDEST SWAP5 POP PUSH2 0xBB7 DUP4 PUSH2 0xB5E JUMP JUMPDEST SWAP3 POP PUSH1 0x20 DUP11 ADD SWAP10 POP POP PUSH1 0x1 DUP2 ADD SWAP1 POP PUSH2 0xB93 JUMP JUMPDEST POP DUP3 SWAP8 POP DUP8 SWAP6 POP POP POP POP POP POP SWAP3 SWAP2 POP POP JUMP JUMPDEST PUSH0 PUSH1 0x20 DUP3 ADD SWAP1 POP DUP2 DUP2 SUB PUSH0 DUP4 ADD MSTORE PUSH2 0xBF5 DUP2 DUP5 PUSH2 0xB6A JUMP JUMPDEST SWAP1 POP SWAP3 SWAP2 POP POP JUMP JUMPDEST PUSH32 0x4E487B7100000000000000000000000000000000000000000000000000000000 PUSH0 MSTORE PUSH1 0x22 PUSH1 0x4 MSTORE PUSH1 0x24 PUSH0 REVERT JUMPDEST PUSH0 PUSH1 0x2 DUP3 DIV SWAP1 POP PUSH1 0x1 DUP3 AND DUP1 PUSH2 0xC41 JUMPI PUSH1 0x7F DUP3 AND SWAP2 POP JUMPDEST PUSH1 0x20 DUP3 LT DUP2 SUB PUSH2 0xC54 JUMPI PUSH2 0xC53 PUSH2 0xBFD JUMP JUMPDEST JUMPDEST POP SWAP2 SWAP1 POP JUMP JUMPDEST PUSH32 0x4E616D652063616E6E6F7420626520656D707479000000000000000000000000 PUSH0 DUP3 ADD MSTORE POP JUMP JUMPDEST PUSH0 PUSH2 0xC8E PUSH1 0x14 DUP4 PUSH2 0x7AC JUMP JUMPDEST SWAP2 POP PUSH2 0xC99 DUP3 PUSH2 0xC5A JUMP JUMPDEST PUSH1 0x20 DUP3 ADD SWAP1 POP SWAP2 SWAP1 POP JUMP JUMPDEST PUSH0 PUSH1 0x20 DUP3 ADD SWAP1 POP DUP2 DUP2 SUB PUSH0 DUP4 ADD MSTORE PUSH2 0xCBB DUP2 PUSH2 0xC82 JUMP JUMPDEST SWAP1 POP SWAP2 SWAP1 POP JUMP JUMPDEST PUSH32 0x4167652063616E6E6F74206265206C657373207468616E203137000000000000 PUSH0 DUP3 ADD MSTORE POP JUMP JUMPDEST PUSH0 PUSH2 0xCF6 PUSH1 0x1A DUP4 PUSH2 0x7AC JUMP JUMPDEST SWAP2 POP PUSH2 0xD01 DUP3 PUSH2 0xCC2 JUMP JUMPDEST PUSH1 0x20 DUP3 ADD SWAP1 POP SWAP2 SWAP1 POP JUMP JUMPDEST PUSH0 PUSH1 0x20 DUP3 ADD SWAP1 POP DUP2 DUP2 SUB PUSH0 DUP4 ADD MSTORE PUSH2 0xD23 DUP2 PUSH2 0xCEA JUMP JUMPDEST SWAP1 POP SWAP2 SWAP1 POP JUMP JUMPDEST PUSH32 0x47656E646572206D757374206265206D616C65206F722066656D616C65000000 PUSH0 DUP3 ADD MSTORE POP JUMP JUMPDEST PUSH0 PUSH2 0xD5E PUSH1 0x1D DUP4 PUSH2 0x7AC JUMP JUMPDEST SWAP2 POP PUSH2 0xD69 DUP3 PUSH2 0xD2A JUMP JUMPDEST PUSH1 0x20 DUP3 ADD SWAP1 POP SWAP2 SWAP1 POP JUMP JUMPDEST PUSH0 PUSH1 0x20 DUP3 ADD SWAP1 POP DUP2 DUP2 SUB PUSH0 DUP4 ADD MSTORE PUSH2 0xD8B DUP2 PUSH2 0xD52 JUMP JUMPDEST SWAP1 POP SWAP2 SWAP1 POP JUMP JUMPDEST PUSH0 DUP2 SWAP1 POP SWAP3 SWAP2 POP POP JUMP JUMPDEST PUSH0 PUSH2 0xDA6 DUP3 PUSH2 0x7A2 JUMP JUMPDEST PUSH2 0xDB0 DUP2 DUP6 PUSH2 0xD92 JUMP JUMPDEST SWAP4 POP PUSH2 0xDC0 DUP2 DUP6 PUSH1 0x20 DUP7 ADD PUSH2 0x7BC JUMP JUMPDEST DUP1 DUP5 ADD SWAP2 POP POP SWAP3 SWAP2 POP POP JUMP JUMPDEST PUSH0 PUSH2 0xDD7 DUP3 DUP5 PUSH2 0xD9C JUMP JUMPDEST SWAP2 POP DUP2 SWAP1 POP SWAP3 SWAP2 POP POP JUMP JUMPDEST PUSH32 0x53747564656E7420616C72656164792072656769737465726564210000000000 PUSH0 DUP3 ADD MSTORE POP JUMP JUMPDEST PUSH0 PUSH2 0xE16 PUSH1 0x1B DUP4 PUSH2 0x7AC JUMP JUMPDEST SWAP2 POP PUSH2 0xE21 DUP3 PUSH2 0xDE2 JUMP JUMPDEST PUSH1 0x20 DUP3 ADD SWAP1 POP SWAP2 SWAP1 POP JUMP JUMPDEST PUSH0 PUSH1 0x20 DUP3 ADD SWAP1 POP DUP2 DUP2 SUB PUSH0 DUP4 ADD MSTORE PUSH2 0xE43 DUP2 PUSH2 0xE0A JUMP JUMPDEST SWAP1 POP SWAP2 SWAP1 POP JUMP JUMPDEST PUSH0 DUP2 SWAP1 POP DUP2 PUSH0 MSTORE PUSH1 0x20 PUSH0 KECCAK256 SWAP1 POP SWAP2 SWAP1 POP JUMP JUMPDEST PUSH0 PUSH1 0x20 PUSH1 0x1F DUP4 ADD DIV SWAP1 POP SWAP2 SWAP1 POP JUMP JUMPDEST PUSH0 DUP3 DUP3 SHL SWAP1 POP SWAP3 SWAP2 POP POP JUMP JUMPDEST PUSH0 PUSH1 0x8 DUP4 MUL PUSH2 0xEA6 PUSH32 0xFFFFFFFFFFFFFFFFFFFFFFFFFFFFFFFFFFFFFFFFFFFFFFFFFFFFFFFFFFFFFFFF DUP3 PUSH2 0xE6B JUMP JUMPDEST PUSH2 0xEB0 DUP7 DUP4 PUSH2 0xE6B JUMP JUMPDEST SWAP6 POP DUP1 NOT DUP5 AND SWAP4 POP DUP1 DUP7 AND DUP5 OR SWAP3 POP POP POP SWAP4 SWAP3 POP POP POP JUMP JUMPDEST PUSH0 DUP2 SWAP1 POP SWAP2 SWAP1 POP JUMP JUMPDEST PUSH0 PUSH2 0xEEB PUSH2 0xEE6 PUSH2 0xEE1 DUP5 PUSH2 0x744 JUMP JUMPDEST PUSH2 0xEC8 JUMP JUMPDEST PUSH2 0x744 JUMP JUMPDEST SWAP1 POP SWAP2 SWAP1 POP JUMP JUMPDEST PUSH0 DUP2 SWAP1 POP SWAP2 SWAP1 POP JUMP JUMPDEST PUSH2 0xF04 DUP4 PUSH2 0xED1 JUMP JUMPDEST PUSH2 0xF18 PUSH2 0xF10 DUP3 PUSH2 0xEF2 JUMP JUMPDEST DUP5 DUP5 SLOAD PUSH2 0xE77 JUMP JUMPDEST DUP3 SSTORE POP POP POP POP JUMP JUMPDEST PUSH0 PUSH0 SWAP1 POP SWAP1 JUMP JUMPDEST PUSH2 0xF2F PUSH2 0xF20 JUMP JUMPDEST PUSH2 0xF3A DUP2 DUP5 DUP5 PUSH2 0xEFB JUMP JUMPDEST POP POP POP JUMP JUMPDEST JUMPDEST DUP2 DUP2 LT ISZERO PUSH2 0xF5D JUMPI PUSH2 0xF52 PUSH0 DUP3 PUSH2 0xF27 JUMP JUMPDEST PUSH1 0x1 DUP2 ADD SWAP1 POP PUSH2 0xF40 JUMP JUMPDEST POP POP JUMP JUMPDEST PUSH1 0x1F DUP3 GT ISZERO PUSH2 0xFA2 JUMPI PUSH2 0xF73 DUP2 PUSH2 0xE4A JUMP JUMPDEST PUSH2 0xF7C DUP5 PUSH2 0xE5C JUMP JUMPDEST DUP2 ADD PUSH1 0x20 DUP6 LT ISZERO PUSH2 0xF8B JUMPI DUP2 SWAP1 POP JUMPDEST PUSH2 0xF9F PUSH2 0xF97 DUP6 PUSH2 0xE5C JUMP JUMPDEST DUP4 ADD DUP3 PUSH2 0xF3F JUMP JUMPDEST POP POP JUMPDEST POP POP POP JUMP JUMPDEST PUSH0 DUP3 DUP3 SHR SWAP1 POP SWAP3 SWAP2 POP POP JUMP JUMPDEST PUSH0 PUSH2 0xFC2 PUSH0 NOT DUP5 PUSH1 0x8 MUL PUSH2 0xFA7 JUMP JUMPDEST NOT DUP1 DUP4 AND SWAP2 POP POP SWAP3 SWAP2 POP POP JUMP JUMPDEST PUSH0 PUSH2 0xFDA DUP4 DUP4 PUSH2 0xFB3 JUMP JUMPDEST SWAP2 POP DUP3 PUSH1 0x2 MUL DUP3 OR SWAP1 POP SWAP3 SWAP2 POP POP JUMP JUMPDEST PUSH2 0xFF3 DUP3 PUSH2 0x7A2 JUMP JUMPDEST PUSH8 0xFFFFFFFFFFFFFFFF DUP2 GT ISZERO PUSH2 0x100C JUMPI PUSH2 0x100B PUSH2 0x881 JUMP JUMPDEST JUMPDEST PUSH2 0x1016 DUP3 SLOAD PUSH2 0xC2A JUMP JUMPDEST PUSH2 0x1021 DUP3 DUP3 DUP6 PUSH2 0xF61 JUMP JUMPDEST PUSH0 PUSH1 0x20 SWAP1 POP PUSH1 0x1F DUP4 GT PUSH1 0x1 DUP2 EQ PUSH2 0x1052 JUMPI PUSH0 DUP5 ISZERO PUSH2 0x1040 JUMPI DUP3 DUP8 ADD MLOAD SWAP1 POP JUMPDEST PUSH2 0x104A DUP6 DUP3 PUSH2 0xFCF JUMP JUMPDEST DUP7 SSTORE POP PUSH2 0x10B1 JUMP JUMPDEST PUSH1 0x1F NOT DUP5 AND PUSH2 0x1060 DUP7 PUSH2 0xE4A JUMP JUMPDEST PUSH0 JUMPDEST DUP3 DUP2 LT ISZERO PUSH2 0x1087 JUMPI DUP5 DUP10 ADD MLOAD DUP3 SSTORE PUSH1 0x1 DUP3 ADD SWAP2 POP PUSH1 0x20 DUP6 ADD SWAP5 POP PUSH1 0x20 DUP2 ADD SWAP1 POP PUSH2 0x1062 JUMP JUMPDEST DUP7 DUP4 LT ISZERO PUSH2 0x10A4 JUMPI DUP5 DUP10 ADD MLOAD PUSH2 0x10A0 PUSH1 0x1F DUP10 AND DUP3 PUSH2 0xFB3 JUMP JUMPDEST DUP4 SSTORE POP JUMPDEST PUSH1 0x1 PUSH1 0x2 DUP9 MUL ADD DUP9 SSTORE POP POP POP JUMPDEST POP POP POP POP POP POP JUMP INVALID LOG2 PUSH5 0x6970667358 0x22 SLT KECCAK256 SWAP2 PUSH5 0xAE016F786A EXTSTATICCALL EXTCODESIZE PUSH2 0x86CF 0xA5 INVALID RETF CALLCODE BALANCE 0xCF PUSH13 0x1B06659CD8C635BC5C336C25DC PUSH5 0x736F6C6343 STOP ADDMOD 0x1F STOP CALLER "
		},
		"gasEstimates": {
			"creation": {
				"codeDepositCost": "867000",
				"executionCost": "901",
				"totalCost": "867901"
			},
			"external": {
				"getStudents()": "infinite",
				"registerStudent(string,uint256,string,string)": "infinite",
				"students(uint256)": "infinite"
			},
			"internal": {
				"compareString(string memory,string memory)": "infinite"
			}
		},
		"methodIdentifiers": {
			"getStudents()": "f1d064b3",
			"registerStudent(string,uint256,string,string)": "8917d33c",
			"students(uint256)": "06ead22e"
		}
	},
	"abi": [
		{
			"inputs": [],
			"name": "getStudents",
			"outputs": [
				{
					"components": [
						{
							"internalType": "string",
							"name": "name",
							"type": "string"
						},
						{
							"internalType": "uint256",
							"name": "age",
							"type": "uint256"
						},
						{
							"internalType": "string",
							"name": "gender",
							"type": "string"
						},
						{
							"internalType": "string",
							"name": "department",
							"type": "string"
						}
					],
					"internalType": "struct StudentRecords.Student[]",
					"name": "",
					"type": "tuple[]"
				}
			],
			"stateMutability": "view",
			"type": "function"
		},
		{
			"inputs": [
				{
					"internalType": "string",
					"name": "_name",
					"type": "string"
				},
				{
					"internalType": "uint256",
					"name": "_age",
					"type": "uint256"
				},
				{
					"internalType": "string",
					"name": "_gender",
					"type": "string"
				},
				{
					"internalType": "string",
					"name": "_department",
					"type": "string"
				}
			],
			"name": "registerStudent",
			"outputs": [],
			"stateMutability": "nonpayable",
			"type": "function"
		},
		{
			"inputs": [
				{
					"internalType": "uint256",
					"name": "",
					"type": "uint256"
				}
			],
			"name": "students",
			"outputs": [
				{
					"internalType": "string",
					"name": "name",
					"type": "string"
				},
				{
					"internalType": "uint256",
					"name": "age",
					"type": "uint256"
				},
				{
					"internalType": "string",
					"name": "gender",
					"type": "string"
				},
				{
					"internalType": "string",
					"name": "department",
					"type": "string"
				}
			],
			"stateMutability": "view",
			"type": "function"
		}
	]
}